{
	"practise5.1/MyToken.sol": {
		"MyToken": {
			"abi": [
				{
					"inputs": [],
					"stateMutability": "nonpayable",
					"type": "constructor"
				},
				{
					"anonymous": false,
					"inputs": [
						{
							"indexed": false,
							"internalType": "address",
							"name": "from",
							"type": "address"
						},
						{
							"indexed": false,
							"internalType": "address",
							"name": "to",
							"type": "address"
						},
						{
							"indexed": false,
							"internalType": "uint256",
							"name": "amount",
							"type": "uint256"
						}
					],
					"name": "Approval",
					"type": "event"
				},
				{
					"anonymous": false,
					"inputs": [
						{
							"indexed": false,
							"internalType": "address",
							"name": "from",
							"type": "address"
						},
						{
							"indexed": false,
							"internalType": "address",
							"name": "to",
							"type": "address"
						},
						{
							"indexed": false,
							"internalType": "uint256",
							"name": "amount",
							"type": "uint256"
						}
					],
					"name": "Transfer",
					"type": "event"
				},
				{
					"anonymous": false,
					"inputs": [
						{
							"indexed": false,
							"internalType": "address",
							"name": "from",
							"type": "address"
						},
						{
							"indexed": false,
							"internalType": "address",
							"name": "to",
							"type": "address"
						},
						{
							"indexed": false,
							"internalType": "uint256",
							"name": "amount",
							"type": "uint256"
						}
					],
					"name": "TransferFrom",
					"type": "event"
				},
				{
					"inputs": [
						{
							"internalType": "address",
							"name": "",
							"type": "address"
						},
						{
							"internalType": "address",
							"name": "",
							"type": "address"
						}
					],
					"name": "allowance",
					"outputs": [
						{
							"internalType": "uint256",
							"name": "",
							"type": "uint256"
						}
					],
					"stateMutability": "view",
					"type": "function"
				},
				{
					"inputs": [
						{
							"internalType": "address",
							"name": "spender",
							"type": "address"
						},
						{
							"internalType": "uint256",
							"name": "amount",
							"type": "uint256"
						}
					],
					"name": "approval",
					"outputs": [
						{
							"internalType": "bool",
							"name": "",
							"type": "bool"
						}
					],
					"stateMutability": "nonpayable",
					"type": "function"
				},
				{
					"inputs": [
						{
							"internalType": "address",
							"name": "",
							"type": "address"
						}
					],
					"name": "balanceOf",
					"outputs": [
						{
							"internalType": "uint256",
							"name": "",
							"type": "uint256"
						}
					],
					"stateMutability": "view",
					"type": "function"
				},
				{
					"inputs": [
						{
							"internalType": "address[]",
							"name": "recipients",
							"type": "address[]"
						},
						{
							"internalType": "uint256[]",
							"name": "amounts",
							"type": "uint256[]"
						}
					],
					"name": "batchTransfer",
					"outputs": [
						{
							"internalType": "bool",
							"name": "",
							"type": "bool"
						}
					],
					"stateMutability": "nonpayable",
					"type": "function"
				},
				{
					"inputs": [
						{
							"internalType": "uint256",
							"name": "amount",
							"type": "uint256"
						}
					],
					"name": "burn",
					"outputs": [
						{
							"internalType": "bool",
							"name": "",
							"type": "bool"
						}
					],
					"stateMutability": "nonpayable",
					"type": "function"
				},
				{
					"inputs": [],
					"name": "decimals",
					"outputs": [
						{
							"internalType": "uint8",
							"name": "",
							"type": "uint8"
						}
					],
					"stateMutability": "view",
					"type": "function"
				},
				{
					"inputs": [
						{
							"internalType": "address",
							"name": "to",
							"type": "address"
						},
						{
							"internalType": "uint256",
							"name": "amount",
							"type": "uint256"
						}
					],
					"name": "mint",
					"outputs": [
						{
							"internalType": "bool",
							"name": "",
							"type": "bool"
						}
					],
					"stateMutability": "nonpayable",
					"type": "function"
				},
				{
					"inputs": [],
					"name": "name",
					"outputs": [
						{
							"internalType": "string",
							"name": "",
							"type": "string"
						}
					],
					"stateMutability": "view",
					"type": "function"
				},
				{
					"inputs": [],
					"name": "owner",
					"outputs": [
						{
							"internalType": "address",
							"name": "",
							"type": "address"
						}
					],
					"stateMutability": "view",
					"type": "function"
				},
				{
					"inputs": [],
					"name": "pause",
					"outputs": [],
					"stateMutability": "nonpayable",
					"type": "function"
				},
				{
					"inputs": [],
					"name": "paused",
					"outputs": [
						{
							"internalType": "bool",
							"name": "",
							"type": "bool"
						}
					],
					"stateMutability": "view",
					"type": "function"
				},
				{
					"inputs": [],
					"name": "symbol",
					"outputs": [
						{
							"internalType": "string",
							"name": "",
							"type": "string"
						}
					],
					"stateMutability": "view",
					"type": "function"
				},
				{
					"inputs": [],
					"name": "totalSupply",
					"outputs": [
						{
							"internalType": "uint256",
							"name": "",
							"type": "uint256"
						}
					],
					"stateMutability": "view",
					"type": "function"
				},
				{
					"inputs": [
						{
							"internalType": "address",
							"name": "to",
							"type": "address"
						},
						{
							"internalType": "uint256",
							"name": "amount",
							"type": "uint256"
						}
					],
					"name": "transfer",
					"outputs": [
						{
							"internalType": "bool",
							"name": "",
							"type": "bool"
						}
					],
					"stateMutability": "payable",
					"type": "function"
				},
				{
					"inputs": [
						{
							"internalType": "address",
							"name": "from",
							"type": "address"
						},
						{
							"internalType": "address",
							"name": "to",
							"type": "address"
						},
						{
							"internalType": "uint256",
							"name": "amount",
							"type": "uint256"
						}
					],
					"name": "transferFrom",
					"outputs": [
						{
							"internalType": "bool",
							"name": "",
							"type": "bool"
						}
					],
					"stateMutability": "nonpayable",
					"type": "function"
				},
				{
					"inputs": [],
					"name": "unpause",
					"outputs": [],
					"stateMutability": "nonpayable",
					"type": "function"
				}
			],
			"devdoc": {
				"kind": "dev",
				"methods": {},
				"version": 1
			},
			"evm": {
				"assembly": "    /* \"practise5.1/MyToken.sol\":56:3702  contract MyToken{... */\n  mstore(0x40, 0x80)\n    /* \"practise5.1/MyToken.sol\":78:110  string public name = \"Chp Token\" */\n  mload(0x40)\n  dup1\n  0x40\n  add\n  0x40\n  mstore\n  dup1\n  0x09\n  dup2\n  mstore\n  0x20\n  add\n  0x43687020546f6b656e0000000000000000000000000000000000000000000000\n  dup2\n  mstore\n  pop\n  0x00\n  swap1\n  dup2\n  tag_1\n  swap2\n  swap1\n  tag_2\n  jump\t// in\ntag_1:\n  pop\n    /* \"practise5.1/MyToken.sol\":116:144  string public symbol = \"CTK\" */\n  mload(0x40)\n  dup1\n  0x40\n  add\n  0x40\n  mstore\n  dup1\n  0x03\n  dup2\n  mstore\n  0x20\n  add\n  0x43544b0000000000000000000000000000000000000000000000000000000000\n  dup2\n  mstore\n  pop\n  0x01\n  swap1\n  dup2\n  tag_3\n  swap2\n  swap1\n  tag_2\n  jump\t// in\ntag_3:\n  pop\n    /* \"practise5.1/MyToken.sol\":174:176  18 */\n  0x12\n    /* \"practise5.1/MyToken.sol\":150:176  uint8 public decimals = 18 */\n  0x02\n  exp(0x0100, 0x00)\n  dup2\n  sload\n  dup2\n  0xff\n  mul\n  not\n  and\n  swap1\n  dup4\n  0xff\n  and\n  mul\n  or\n  swap1\n  sstore\n  pop\n    /* \"practise5.1/MyToken.sol\":625:630  false */\n  0x00\n    /* \"practise5.1/MyToken.sol\":604:630  bool public paused = false */\n  0x06\n  exp(0x0100, 0x14)\n  dup2\n  sload\n  dup2\n  0xff\n  mul\n  not\n  and\n  swap1\n  dup4\n  iszero\n  iszero\n  mul\n  or\n  swap1\n  sstore\n  pop\n    /* \"practise5.1/MyToken.sol\":548:599  constructor ()  {... */\n  callvalue\n  dup1\n  iszero\n  tag_4\n  jumpi\n  0x00\n  dup1\n  revert\ntag_4:\n  pop\n    /* \"practise5.1/MyToken.sol\":582:592  msg.sender */\n  caller\n    /* \"practise5.1/MyToken.sol\":574:579  owner */\n  0x06\n  0x00\n    /* \"practise5.1/MyToken.sol\":574:592  owner = msg.sender */\n  0x0100\n  exp\n  dup2\n  sload\n  dup2\n  0xffffffffffffffffffffffffffffffffffffffff\n  mul\n  not\n  and\n  swap1\n  dup4\n  0xffffffffffffffffffffffffffffffffffffffff\n  and\n  mul\n  or\n  swap1\n  sstore\n  pop\n    /* \"practise5.1/MyToken.sol\":56:3702  contract MyToken{... */\n  jump(tag_7)\n    /* \"#utility.yul\":7:106   */\ntag_8:\n    /* \"#utility.yul\":59:65   */\n  0x00\n    /* \"#utility.yul\":93:98   */\n  dup2\n    /* \"#utility.yul\":87:99   */\n  mload\n    /* \"#utility.yul\":77:99   */\n  swap1\n  pop\n    /* \"#utility.yul\":7:106   */\n  swap2\n  swap1\n  pop\n  jump\t// out\n    /* \"#utility.yul\":112:292   */\ntag_9:\n    /* \"#utility.yul\":160:237   */\n  0x4e487b7100000000000000000000000000000000000000000000000000000000\n    /* \"#utility.yul\":157:158   */\n  0x00\n    /* \"#utility.yul\":150:238   */\n  mstore\n    /* \"#utility.yul\":257:261   */\n  0x41\n    /* \"#utility.yul\":254:255   */\n  0x04\n    /* \"#utility.yul\":247:262   */\n  mstore\n    /* \"#utility.yul\":281:285   */\n  0x24\n    /* \"#utility.yul\":278:279   */\n  0x00\n    /* \"#utility.yul\":271:286   */\n  revert\n    /* \"#utility.yul\":298:478   */\ntag_10:\n    /* \"#utility.yul\":346:423   */\n  0x4e487b7100000000000000000000000000000000000000000000000000000000\n    /* \"#utility.yul\":343:344   */\n  0x00\n    /* \"#utility.yul\":336:424   */\n  mstore\n    /* \"#utility.yul\":443:447   */\n  0x22\n    /* \"#utility.yul\":440:441   */\n  0x04\n    /* \"#utility.yul\":433:448   */\n  mstore\n    /* \"#utility.yul\":467:471   */\n  0x24\n    /* \"#utility.yul\":464:465   */\n  0x00\n    /* \"#utility.yul\":457:472   */\n  revert\n    /* \"#utility.yul\":484:804   */\ntag_11:\n    /* \"#utility.yul\":528:534   */\n  0x00\n    /* \"#utility.yul\":565:566   */\n  0x02\n    /* \"#utility.yul\":559:563   */\n  dup3\n    /* \"#utility.yul\":555:567   */\n  div\n    /* \"#utility.yul\":545:567   */\n  swap1\n  pop\n    /* \"#utility.yul\":612:613   */\n  0x01\n    /* \"#utility.yul\":606:610   */\n  dup3\n    /* \"#utility.yul\":602:614   */\n  and\n    /* \"#utility.yul\":633:651   */\n  dup1\n    /* \"#utility.yul\":623:704   */\n  tag_33\n  jumpi\n    /* \"#utility.yul\":689:693   */\n  0x7f\n    /* \"#utility.yul\":681:687   */\n  dup3\n    /* \"#utility.yul\":677:694   */\n  and\n    /* \"#utility.yul\":667:694   */\n  swap2\n  pop\n    /* \"#utility.yul\":623:704   */\ntag_33:\n    /* \"#utility.yul\":751:753   */\n  0x20\n    /* \"#utility.yul\":743:749   */\n  dup3\n    /* \"#utility.yul\":740:754   */\n  lt\n    /* \"#utility.yul\":720:738   */\n  dup2\n    /* \"#utility.yul\":717:755   */\n  sub\n    /* \"#utility.yul\":714:798   */\n  tag_34\n  jumpi\n    /* \"#utility.yul\":770:788   */\n  tag_35\n  tag_10\n  jump\t// in\ntag_35:\n    /* \"#utility.yul\":714:798   */\ntag_34:\n    /* \"#utility.yul\":535:804   */\n  pop\n    /* \"#utility.yul\":484:804   */\n  swap2\n  swap1\n  pop\n  jump\t// out\n    /* \"#utility.yul\":810:951   */\ntag_12:\n    /* \"#utility.yul\":859:863   */\n  0x00\n    /* \"#utility.yul\":882:885   */\n  dup2\n    /* \"#utility.yul\":874:885   */\n  swap1\n  pop\n    /* \"#utility.yul\":905:908   */\n  dup2\n    /* \"#utility.yul\":902:903   */\n  0x00\n    /* \"#utility.yul\":895:909   */\n  mstore\n    /* \"#utility.yul\":939:943   */\n  0x20\n    /* \"#utility.yul\":936:937   */\n  0x00\n    /* \"#utility.yul\":926:944   */\n  keccak256\n    /* \"#utility.yul\":918:944   */\n  swap1\n  pop\n    /* \"#utility.yul\":810:951   */\n  swap2\n  swap1\n  pop\n  jump\t// out\n    /* \"#utility.yul\":957:1050   */\ntag_13:\n    /* \"#utility.yul\":994:1000   */\n  0x00\n    /* \"#utility.yul\":1041:1043   */\n  0x20\n    /* \"#utility.yul\":1036:1038   */\n  0x1f\n    /* \"#utility.yul\":1029:1034   */\n  dup4\n    /* \"#utility.yul\":1025:1039   */\n  add\n    /* \"#utility.yul\":1021:1044   */\n  div\n    /* \"#utility.yul\":1011:1044   */\n  swap1\n  pop\n    /* \"#utility.yul\":957:1050   */\n  swap2\n  swap1\n  pop\n  jump\t// out\n    /* \"#utility.yul\":1056:1163   */\ntag_14:\n    /* \"#utility.yul\":1100:1108   */\n  0x00\n    /* \"#utility.yul\":1150:1155   */\n  dup3\n    /* \"#utility.yul\":1144:1148   */\n  dup3\n    /* \"#utility.yul\":1140:1156   */\n  shl\n    /* \"#utility.yul\":1119:1156   */\n  swap1\n  pop\n    /* \"#utility.yul\":1056:1163   */\n  swap3\n  swap2\n  pop\n  pop\n  jump\t// out\n    /* \"#utility.yul\":1169:1562   */\ntag_15:\n    /* \"#utility.yul\":1238:1244   */\n  0x00\n    /* \"#utility.yul\":1288:1289   */\n  0x08\n    /* \"#utility.yul\":1276:1286   */\n  dup4\n    /* \"#utility.yul\":1272:1290   */\n  mul\n    /* \"#utility.yul\":1311:1408   */\n  tag_40\n    /* \"#utility.yul\":1341:1407   */\n  0xffffffffffffffffffffffffffffffffffffffffffffffffffffffffffffffff\n    /* \"#utility.yul\":1330:1339   */\n  dup3\n    /* \"#utility.yul\":1311:1408   */\n  tag_14\n  jump\t// in\ntag_40:\n    /* \"#utility.yul\":1429:1468   */\n  tag_41\n    /* \"#utility.yul\":1459:1467   */\n  dup7\n    /* \"#utility.yul\":1448:1457   */\n  dup4\n    /* \"#utility.yul\":1429:1468   */\n  tag_14\n  jump\t// in\ntag_41:\n    /* \"#utility.yul\":1417:1468   */\n  swap6\n  pop\n    /* \"#utility.yul\":1501:1505   */\n  dup1\n    /* \"#utility.yul\":1497:1506   */\n  not\n    /* \"#utility.yul\":1490:1495   */\n  dup5\n    /* \"#utility.yul\":1486:1507   */\n  and\n    /* \"#utility.yul\":1477:1507   */\n  swap4\n  pop\n    /* \"#utility.yul\":1550:1554   */\n  dup1\n    /* \"#utility.yul\":1540:1548   */\n  dup7\n    /* \"#utility.yul\":1536:1555   */\n  and\n    /* \"#utility.yul\":1529:1534   */\n  dup5\n    /* \"#utility.yul\":1526:1556   */\n  or\n    /* \"#utility.yul\":1516:1556   */\n  swap3\n  pop\n    /* \"#utility.yul\":1245:1562   */\n  pop\n  pop\n    /* \"#utility.yul\":1169:1562   */\n  swap4\n  swap3\n  pop\n  pop\n  pop\n  jump\t// out\n    /* \"#utility.yul\":1568:1645   */\ntag_16:\n    /* \"#utility.yul\":1605:1612   */\n  0x00\n    /* \"#utility.yul\":1634:1639   */\n  dup2\n    /* \"#utility.yul\":1623:1639   */\n  swap1\n  pop\n    /* \"#utility.yul\":1568:1645   */\n  swap2\n  swap1\n  pop\n  jump\t// out\n    /* \"#utility.yul\":1651:1711   */\ntag_17:\n    /* \"#utility.yul\":1679:1682   */\n  0x00\n    /* \"#utility.yul\":1700:1705   */\n  dup2\n    /* \"#utility.yul\":1693:1705   */\n  swap1\n  pop\n    /* \"#utility.yul\":1651:1711   */\n  swap2\n  swap1\n  pop\n  jump\t// out\n    /* \"#utility.yul\":1717:1859   */\ntag_18:\n    /* \"#utility.yul\":1767:1776   */\n  0x00\n    /* \"#utility.yul\":1800:1853   */\n  tag_45\n    /* \"#utility.yul\":1818:1852   */\n  tag_46\n    /* \"#utility.yul\":1827:1851   */\n  tag_47\n    /* \"#utility.yul\":1845:1850   */\n  dup5\n    /* \"#utility.yul\":1827:1851   */\n  tag_16\n  jump\t// in\ntag_47:\n    /* \"#utility.yul\":1818:1852   */\n  tag_17\n  jump\t// in\ntag_46:\n    /* \"#utility.yul\":1800:1853   */\n  tag_16\n  jump\t// in\ntag_45:\n    /* \"#utility.yul\":1787:1853   */\n  swap1\n  pop\n    /* \"#utility.yul\":1717:1859   */\n  swap2\n  swap1\n  pop\n  jump\t// out\n    /* \"#utility.yul\":1865:1940   */\ntag_19:\n    /* \"#utility.yul\":1908:1911   */\n  0x00\n    /* \"#utility.yul\":1929:1934   */\n  dup2\n    /* \"#utility.yul\":1922:1934   */\n  swap1\n  pop\n    /* \"#utility.yul\":1865:1940   */\n  swap2\n  swap1\n  pop\n  jump\t// out\n    /* \"#utility.yul\":1946:2215   */\ntag_20:\n    /* \"#utility.yul\":2056:2095   */\n  tag_50\n    /* \"#utility.yul\":2087:2094   */\n  dup4\n    /* \"#utility.yul\":2056:2095   */\n  tag_18\n  jump\t// in\ntag_50:\n    /* \"#utility.yul\":2117:2208   */\n  tag_51\n    /* \"#utility.yul\":2166:2207   */\n  tag_52\n    /* \"#utility.yul\":2190:2206   */\n  dup3\n    /* \"#utility.yul\":2166:2207   */\n  tag_19\n  jump\t// in\ntag_52:\n    /* \"#utility.yul\":2158:2164   */\n  dup5\n    /* \"#utility.yul\":2151:2155   */\n  dup5\n    /* \"#utility.yul\":2145:2156   */\n  sload\n    /* \"#utility.yul\":2117:2208   */\n  tag_15\n  jump\t// in\ntag_51:\n    /* \"#utility.yul\":2111:2115   */\n  dup3\n    /* \"#utility.yul\":2104:2209   */\n  sstore\n    /* \"#utility.yul\":2022:2215   */\n  pop\n    /* \"#utility.yul\":1946:2215   */\n  pop\n  pop\n  pop\n  jump\t// out\n    /* \"#utility.yul\":2221:2294   */\ntag_21:\n    /* \"#utility.yul\":2266:2269   */\n  0x00\n    /* \"#utility.yul\":2221:2294   */\n  swap1\n  jump\t// out\n    /* \"#utility.yul\":2300:2489   */\ntag_22:\n    /* \"#utility.yul\":2377:2409   */\n  tag_55\n  tag_21\n  jump\t// in\ntag_55:\n    /* \"#utility.yul\":2418:2483   */\n  tag_56\n    /* \"#utility.yul\":2476:2482   */\n  dup2\n    /* \"#utility.yul\":2468:2474   */\n  dup5\n    /* \"#utility.yul\":2462:2466   */\n  dup5\n    /* \"#utility.yul\":2418:2483   */\n  tag_20\n  jump\t// in\ntag_56:\n    /* \"#utility.yul\":2353:2489   */\n  pop\n    /* \"#utility.yul\":2300:2489   */\n  pop\n  pop\n  jump\t// out\n    /* \"#utility.yul\":2495:2681   */\ntag_23:\n    /* \"#utility.yul\":2555:2675   */\ntag_58:\n    /* \"#utility.yul\":2572:2575   */\n  dup2\n    /* \"#utility.yul\":2565:2570   */\n  dup2\n    /* \"#utility.yul\":2562:2576   */\n  lt\n    /* \"#utility.yul\":2555:2675   */\n  iszero\n  tag_60\n  jumpi\n    /* \"#utility.yul\":2626:2665   */\n  tag_61\n    /* \"#utility.yul\":2663:2664   */\n  0x00\n    /* \"#utility.yul\":2656:2661   */\n  dup3\n    /* \"#utility.yul\":2626:2665   */\n  tag_22\n  jump\t// in\ntag_61:\n    /* \"#utility.yul\":2599:2600   */\n  0x01\n    /* \"#utility.yul\":2592:2597   */\n  dup2\n    /* \"#utility.yul\":2588:2601   */\n  add\n    /* \"#utility.yul\":2579:2601   */\n  swap1\n  pop\n    /* \"#utility.yul\":2555:2675   */\n  jump(tag_58)\ntag_60:\n    /* \"#utility.yul\":2495:2681   */\n  pop\n  pop\n  jump\t// out\n    /* \"#utility.yul\":2687:3230   */\ntag_24:\n    /* \"#utility.yul\":2788:2790   */\n  0x1f\n    /* \"#utility.yul\":2783:2786   */\n  dup3\n    /* \"#utility.yul\":2780:2791   */\n  gt\n    /* \"#utility.yul\":2777:3223   */\n  iszero\n  tag_63\n  jumpi\n    /* \"#utility.yul\":2822:2860   */\n  tag_64\n    /* \"#utility.yul\":2854:2859   */\n  dup2\n    /* \"#utility.yul\":2822:2860   */\n  tag_12\n  jump\t// in\ntag_64:\n    /* \"#utility.yul\":2906:2935   */\n  tag_65\n    /* \"#utility.yul\":2924:2934   */\n  dup5\n    /* \"#utility.yul\":2906:2935   */\n  tag_13\n  jump\t// in\ntag_65:\n    /* \"#utility.yul\":2896:2904   */\n  dup2\n    /* \"#utility.yul\":2892:2936   */\n  add\n    /* \"#utility.yul\":3089:3091   */\n  0x20\n    /* \"#utility.yul\":3077:3087   */\n  dup6\n    /* \"#utility.yul\":3074:3092   */\n  lt\n    /* \"#utility.yul\":3071:3120   */\n  iszero\n  tag_66\n  jumpi\n    /* \"#utility.yul\":3110:3118   */\n  dup2\n    /* \"#utility.yul\":3095:3118   */\n  swap1\n  pop\n    /* \"#utility.yul\":3071:3120   */\ntag_66:\n    /* \"#utility.yul\":3133:3213   */\n  tag_67\n    /* \"#utility.yul\":3189:3211   */\n  tag_68\n    /* \"#utility.yul\":3207:3210   */\n  dup6\n    /* \"#utility.yul\":3189:3211   */\n  tag_13\n  jump\t// in\ntag_68:\n    /* \"#utility.yul\":3179:3187   */\n  dup4\n    /* \"#utility.yul\":3175:3212   */\n  add\n    /* \"#utility.yul\":3162:3173   */\n  dup3\n    /* \"#utility.yul\":3133:3213   */\n  tag_23\n  jump\t// in\ntag_67:\n    /* \"#utility.yul\":2792:3223   */\n  pop\n  pop\n    /* \"#utility.yul\":2777:3223   */\ntag_63:\n    /* \"#utility.yul\":2687:3230   */\n  pop\n  pop\n  pop\n  jump\t// out\n    /* \"#utility.yul\":3236:3353   */\ntag_25:\n    /* \"#utility.yul\":3290:3298   */\n  0x00\n    /* \"#utility.yul\":3340:3345   */\n  dup3\n    /* \"#utility.yul\":3334:3338   */\n  dup3\n    /* \"#utility.yul\":3330:3346   */\n  shr\n    /* \"#utility.yul\":3309:3346   */\n  swap1\n  pop\n    /* \"#utility.yul\":3236:3353   */\n  swap3\n  swap2\n  pop\n  pop\n  jump\t// out\n    /* \"#utility.yul\":3359:3528   */\ntag_26:\n    /* \"#utility.yul\":3403:3409   */\n  0x00\n    /* \"#utility.yul\":3436:3487   */\n  tag_71\n    /* \"#utility.yul\":3484:3485   */\n  0x00\n    /* \"#utility.yul\":3480:3486   */\n  not\n    /* \"#utility.yul\":3472:3477   */\n  dup5\n    /* \"#utility.yul\":3469:3470   */\n  0x08\n    /* \"#utility.yul\":3465:3478   */\n  mul\n    /* \"#utility.yul\":3436:3487   */\n  tag_25\n  jump\t// in\ntag_71:\n    /* \"#utility.yul\":3432:3488   */\n  not\n    /* \"#utility.yul\":3517:3521   */\n  dup1\n    /* \"#utility.yul\":3511:3515   */\n  dup4\n    /* \"#utility.yul\":3507:3522   */\n  and\n    /* \"#utility.yul\":3497:3522   */\n  swap2\n  pop\n    /* \"#utility.yul\":3410:3528   */\n  pop\n    /* \"#utility.yul\":3359:3528   */\n  swap3\n  swap2\n  pop\n  pop\n  jump\t// out\n    /* \"#utility.yul\":3533:3828   */\ntag_27:\n    /* \"#utility.yul\":3609:3613   */\n  0x00\n    /* \"#utility.yul\":3755:3784   */\n  tag_73\n    /* \"#utility.yul\":3780:3783   */\n  dup4\n    /* \"#utility.yul\":3774:3778   */\n  dup4\n    /* \"#utility.yul\":3755:3784   */\n  tag_26\n  jump\t// in\ntag_73:\n    /* \"#utility.yul\":3747:3784   */\n  swap2\n  pop\n    /* \"#utility.yul\":3817:3820   */\n  dup3\n    /* \"#utility.yul\":3814:3815   */\n  0x02\n    /* \"#utility.yul\":3810:3821   */\n  mul\n    /* \"#utility.yul\":3804:3808   */\n  dup3\n    /* \"#utility.yul\":3801:3822   */\n  or\n    /* \"#utility.yul\":3793:3822   */\n  swap1\n  pop\n    /* \"#utility.yul\":3533:3828   */\n  swap3\n  swap2\n  pop\n  pop\n  jump\t// out\n    /* \"#utility.yul\":3833:5228   */\ntag_2:\n    /* \"#utility.yul\":3950:3987   */\n  tag_75\n    /* \"#utility.yul\":3983:3986   */\n  dup3\n    /* \"#utility.yul\":3950:3987   */\n  tag_8\n  jump\t// in\ntag_75:\n    /* \"#utility.yul\":4052:4070   */\n  0xffffffffffffffff\n    /* \"#utility.yul\":4044:4050   */\n  dup2\n    /* \"#utility.yul\":4041:4071   */\n  gt\n    /* \"#utility.yul\":4038:4094   */\n  iszero\n  tag_76\n  jumpi\n    /* \"#utility.yul\":4074:4092   */\n  tag_77\n  tag_9\n  jump\t// in\ntag_77:\n    /* \"#utility.yul\":4038:4094   */\ntag_76:\n    /* \"#utility.yul\":4118:4156   */\n  tag_78\n    /* \"#utility.yul\":4150:4154   */\n  dup3\n    /* \"#utility.yul\":4144:4155   */\n  sload\n    /* \"#utility.yul\":4118:4156   */\n  tag_11\n  jump\t// in\ntag_78:\n    /* \"#utility.yul\":4203:4270   */\n  tag_79\n    /* \"#utility.yul\":4263:4269   */\n  dup3\n    /* \"#utility.yul\":4255:4261   */\n  dup3\n    /* \"#utility.yul\":4249:4253   */\n  dup6\n    /* \"#utility.yul\":4203:4270   */\n  tag_24\n  jump\t// in\ntag_79:\n    /* \"#utility.yul\":4297:4298   */\n  0x00\n    /* \"#utility.yul\":4321:4325   */\n  0x20\n    /* \"#utility.yul\":4308:4325   */\n  swap1\n  pop\n    /* \"#utility.yul\":4353:4355   */\n  0x1f\n    /* \"#utility.yul\":4345:4351   */\n  dup4\n    /* \"#utility.yul\":4342:4356   */\n  gt\n    /* \"#utility.yul\":4370:4371   */\n  0x01\n    /* \"#utility.yul\":4365:4983   */\n  dup2\n  eq\n  tag_81\n  jumpi\n    /* \"#utility.yul\":5027:5028   */\n  0x00\n    /* \"#utility.yul\":5044:5050   */\n  dup5\n    /* \"#utility.yul\":5041:5118   */\n  iszero\n  tag_82\n  jumpi\n    /* \"#utility.yul\":5093:5102   */\n  dup3\n    /* \"#utility.yul\":5088:5091   */\n  dup8\n    /* \"#utility.yul\":5084:5103   */\n  add\n    /* \"#utility.yul\":5078:5104   */\n  mload\n    /* \"#utility.yul\":5069:5104   */\n  swap1\n  pop\n    /* \"#utility.yul\":5041:5118   */\ntag_82:\n    /* \"#utility.yul\":5144:5211   */\n  tag_83\n    /* \"#utility.yul\":5204:5210   */\n  dup6\n    /* \"#utility.yul\":5197:5202   */\n  dup3\n    /* \"#utility.yul\":5144:5211   */\n  tag_27\n  jump\t// in\ntag_83:\n    /* \"#utility.yul\":5138:5142   */\n  dup7\n    /* \"#utility.yul\":5131:5212   */\n  sstore\n    /* \"#utility.yul\":5000:5222   */\n  pop\n    /* \"#utility.yul\":4335:5222   */\n  jump(tag_80)\n    /* \"#utility.yul\":4365:4983   */\ntag_81:\n    /* \"#utility.yul\":4417:4421   */\n  0x1f\n    /* \"#utility.yul\":4413:4422   */\n  not\n    /* \"#utility.yul\":4405:4411   */\n  dup5\n    /* \"#utility.yul\":4401:4423   */\n  and\n    /* \"#utility.yul\":4451:4488   */\n  tag_84\n    /* \"#utility.yul\":4483:4487   */\n  dup7\n    /* \"#utility.yul\":4451:4488   */\n  tag_12\n  jump\t// in\ntag_84:\n    /* \"#utility.yul\":4510:4511   */\n  0x00\n    /* \"#utility.yul\":4524:4732   */\ntag_85:\n    /* \"#utility.yul\":4538:4545   */\n  dup3\n    /* \"#utility.yul\":4535:4536   */\n  dup2\n    /* \"#utility.yul\":4532:4546   */\n  lt\n    /* \"#utility.yul\":4524:4732   */\n  iszero\n  tag_87\n  jumpi\n    /* \"#utility.yul\":4617:4626   */\n  dup5\n    /* \"#utility.yul\":4612:4615   */\n  dup10\n    /* \"#utility.yul\":4608:4627   */\n  add\n    /* \"#utility.yul\":4602:4628   */\n  mload\n    /* \"#utility.yul\":4594:4600   */\n  dup3\n    /* \"#utility.yul\":4587:4629   */\n  sstore\n    /* \"#utility.yul\":4668:4669   */\n  0x01\n    /* \"#utility.yul\":4660:4666   */\n  dup3\n    /* \"#utility.yul\":4656:4670   */\n  add\n    /* \"#utility.yul\":4646:4670   */\n  swap2\n  pop\n    /* \"#utility.yul\":4715:4717   */\n  0x20\n    /* \"#utility.yul\":4704:4713   */\n  dup6\n    /* \"#utility.yul\":4700:4718   */\n  add\n    /* \"#utility.yul\":4687:4718   */\n  swap5\n  pop\n    /* \"#utility.yul\":4561:4565   */\n  0x20\n    /* \"#utility.yul\":4558:4559   */\n  dup2\n    /* \"#utility.yul\":4554:4566   */\n  add\n    /* \"#utility.yul\":4549:4566   */\n  swap1\n  pop\n    /* \"#utility.yul\":4524:4732   */\n  jump(tag_85)\ntag_87:\n    /* \"#utility.yul\":4760:4766   */\n  dup7\n    /* \"#utility.yul\":4751:4758   */\n  dup4\n    /* \"#utility.yul\":4748:4767   */\n  lt\n    /* \"#utility.yul\":4745:4924   */\n  iszero\n  tag_88\n  jumpi\n    /* \"#utility.yul\":4818:4827   */\n  dup5\n    /* \"#utility.yul\":4813:4816   */\n  dup10\n    /* \"#utility.yul\":4809:4828   */\n  add\n    /* \"#utility.yul\":4803:4829   */\n  mload\n    /* \"#utility.yul\":4861:4909   */\n  tag_89\n    /* \"#utility.yul\":4903:4907   */\n  0x1f\n    /* \"#utility.yul\":4895:4901   */\n  dup10\n    /* \"#utility.yul\":4891:4908   */\n  and\n    /* \"#utility.yul\":4880:4889   */\n  dup3\n    /* \"#utility.yul\":4861:4909   */\n  tag_26\n  jump\t// in\ntag_89:\n    /* \"#utility.yul\":4853:4859   */\n  dup4\n    /* \"#utility.yul\":4846:4910   */\n  sstore\n    /* \"#utility.yul\":4768:4924   */\n  pop\n    /* \"#utility.yul\":4745:4924   */\ntag_88:\n    /* \"#utility.yul\":4970:4971   */\n  0x01\n    /* \"#utility.yul\":4966:4967   */\n  0x02\n    /* \"#utility.yul\":4958:4964   */\n  dup9\n    /* \"#utility.yul\":4954:4968   */\n  mul\n    /* \"#utility.yul\":4950:4972   */\n  add\n    /* \"#utility.yul\":4944:4948   */\n  dup9\n    /* \"#utility.yul\":4937:4973   */\n  sstore\n    /* \"#utility.yul\":4372:4983   */\n  pop\n  pop\n  pop\n    /* \"#utility.yul\":4335:5222   */\ntag_80:\n  pop\n    /* \"#utility.yul\":3925:5228   */\n  pop\n  pop\n  pop\n    /* \"#utility.yul\":3833:5228   */\n  pop\n  pop\n  jump\t// out\n    /* \"practise5.1/MyToken.sol\":56:3702  contract MyToken{... */\ntag_7:\n  dataSize(sub_0)\n  dup1\n  dataOffset(sub_0)\n  0x00\n  codecopy\n  0x00\n  return\nstop\n\nsub_0: assembly {\n        /* \"practise5.1/MyToken.sol\":56:3702  contract MyToken{... */\n      mstore(0x40, 0x80)\n      jumpi(tag_1, lt(calldatasize, 0x04))\n      shr(0xe0, calldataload(0x00))\n      dup1\n      0x70a08231\n      gt\n      tag_18\n      jumpi\n      dup1\n      0x8da5cb5b\n      gt\n      tag_19\n      jumpi\n      dup1\n      0x8da5cb5b\n      eq\n      tag_14\n      jumpi\n      dup1\n      0x95d89b41\n      eq\n      tag_15\n      jumpi\n      dup1\n      0xa9059cbb\n      eq\n      tag_16\n      jumpi\n      dup1\n      0xdd62ed3e\n      eq\n      tag_17\n      jumpi\n      jump(tag_1)\n    tag_19:\n      dup1\n      0x70a08231\n      eq\n      tag_10\n      jumpi\n      dup1\n      0x75247a58\n      eq\n      tag_11\n      jumpi\n      dup1\n      0x8456cb59\n      eq\n      tag_12\n      jumpi\n      dup1\n      0x88d695b2\n      eq\n      tag_13\n      jumpi\n      jump(tag_1)\n    tag_18:\n      dup1\n      0x3f4ba83a\n      gt\n      tag_20\n      jumpi\n      dup1\n      0x3f4ba83a\n      eq\n      tag_6\n      jumpi\n      dup1\n      0x40c10f19\n      eq\n      tag_7\n      jumpi\n      dup1\n      0x42966c68\n      eq\n      tag_8\n      jumpi\n      dup1\n      0x5c975abb\n      eq\n      tag_9\n      jumpi\n      jump(tag_1)\n    tag_20:\n      dup1\n      0x06fdde03\n      eq\n      tag_2\n      jumpi\n      dup1\n      0x18160ddd\n      eq\n      tag_3\n      jumpi\n      dup1\n      0x23b872dd\n      eq\n      tag_4\n      jumpi\n      dup1\n      0x313ce567\n      eq\n      tag_5\n      jumpi\n    tag_1:\n      0x00\n      dup1\n      revert\n        /* \"practise5.1/MyToken.sol\":78:110  string public name = \"Chp Token\" */\n    tag_2:\n      callvalue\n      dup1\n      iszero\n      tag_21\n      jumpi\n      0x00\n      dup1\n      revert\n    tag_21:\n      pop\n      tag_22\n      tag_23\n      jump\t// in\n    tag_22:\n      mload(0x40)\n      tag_24\n      swap2\n      swap1\n      tag_25\n      jump\t// in\n    tag_24:\n      mload(0x40)\n      dup1\n      swap2\n      sub\n      swap1\n      return\n        /* \"practise5.1/MyToken.sol\":182:208  uint256 public totalSupply */\n    tag_3:\n      callvalue\n      dup1\n      iszero\n      tag_26\n      jumpi\n      0x00\n      dup1\n      revert\n    tag_26:\n      pop\n      tag_27\n      tag_28\n      jump\t// in\n    tag_27:\n      mload(0x40)\n      tag_29\n      swap2\n      swap1\n      tag_30\n      jump\t// in\n    tag_29:\n      mload(0x40)\n      dup1\n      swap2\n      sub\n      swap1\n      return\n        /* \"practise5.1/MyToken.sol\":1798:2324  function transferFrom(address from,address to ,uint amount) public whenNotPaused returns (bool){... */\n    tag_4:\n      callvalue\n      dup1\n      iszero\n      tag_31\n      jumpi\n      0x00\n      dup1\n      revert\n    tag_31:\n      pop\n      tag_32\n      0x04\n      dup1\n      calldatasize\n      sub\n      dup2\n      add\n      swap1\n      tag_33\n      swap2\n      swap1\n      tag_34\n      jump\t// in\n    tag_33:\n      tag_35\n      jump\t// in\n    tag_32:\n      mload(0x40)\n      tag_36\n      swap2\n      swap1\n      tag_37\n      jump\t// in\n    tag_36:\n      mload(0x40)\n      dup1\n      swap2\n      sub\n      swap1\n      return\n        /* \"practise5.1/MyToken.sol\":150:176  uint8 public decimals = 18 */\n    tag_5:\n      callvalue\n      dup1\n      iszero\n      tag_38\n      jumpi\n      0x00\n      dup1\n      revert\n    tag_38:\n      pop\n      tag_39\n      tag_40\n      jump\t// in\n    tag_39:\n      mload(0x40)\n      tag_41\n      swap2\n      swap1\n      tag_42\n      jump\t// in\n    tag_41:\n      mload(0x40)\n      dup1\n      swap2\n      sub\n      swap1\n      return\n        /* \"practise5.1/MyToken.sol\":864:923  function unpause() public onlyOwner {... */\n    tag_6:\n      callvalue\n      dup1\n      iszero\n      tag_43\n      jumpi\n      0x00\n      dup1\n      revert\n    tag_43:\n      pop\n      tag_44\n      tag_45\n      jump\t// in\n    tag_44:\n      stop\n        /* \"practise5.1/MyToken.sol\":2329:2595  function mint(address to ,uint amount) public  returns (bool){... */\n    tag_7:\n      callvalue\n      dup1\n      iszero\n      tag_46\n      jumpi\n      0x00\n      dup1\n      revert\n    tag_46:\n      pop\n      tag_47\n      0x04\n      dup1\n      calldatasize\n      sub\n      dup2\n      add\n      swap1\n      tag_48\n      swap2\n      swap1\n      tag_49\n      jump\t// in\n    tag_48:\n      tag_50\n      jump\t// in\n    tag_47:\n      mload(0x40)\n      tag_51\n      swap2\n      swap1\n      tag_37\n      jump\t// in\n    tag_51:\n      mload(0x40)\n      dup1\n      swap2\n      sub\n      swap1\n      return\n        /* \"practise5.1/MyToken.sol\":2600:2886  function burn(uint amount) public  returns (bool){... */\n    tag_8:\n      callvalue\n      dup1\n      iszero\n      tag_52\n      jumpi\n      0x00\n      dup1\n      revert\n    tag_52:\n      pop\n      tag_53\n      0x04\n      dup1\n      calldatasize\n      sub\n      dup2\n      add\n      swap1\n      tag_54\n      swap2\n      swap1\n      tag_55\n      jump\t// in\n    tag_54:\n      tag_56\n      jump\t// in\n    tag_53:\n      mload(0x40)\n      tag_57\n      swap2\n      swap1\n      tag_37\n      jump\t// in\n    tag_57:\n      mload(0x40)\n      dup1\n      swap2\n      sub\n      swap1\n      return\n        /* \"practise5.1/MyToken.sol\":604:630  bool public paused = false */\n    tag_9:\n      callvalue\n      dup1\n      iszero\n      tag_58\n      jumpi\n      0x00\n      dup1\n      revert\n    tag_58:\n      pop\n      tag_59\n      tag_60\n      jump\t// in\n    tag_59:\n      mload(0x40)\n      tag_61\n      swap2\n      swap1\n      tag_37\n      jump\t// in\n    tag_61:\n      mload(0x40)\n      dup1\n      swap2\n      sub\n      swap1\n      return\n        /* \"practise5.1/MyToken.sol\":219:263  mapping(address => uint256) public balanceOf */\n    tag_10:\n      callvalue\n      dup1\n      iszero\n      tag_62\n      jumpi\n      0x00\n      dup1\n      revert\n    tag_62:\n      pop\n      tag_63\n      0x04\n      dup1\n      calldatasize\n      sub\n      dup2\n      add\n      swap1\n      tag_64\n      swap2\n      swap1\n      tag_65\n      jump\t// in\n    tag_64:\n      tag_66\n      jump\t// in\n    tag_63:\n      mload(0x40)\n      tag_67\n      swap2\n      swap1\n      tag_30\n      jump\t// in\n    tag_67:\n      mload(0x40)\n      dup1\n      swap2\n      sub\n      swap1\n      return\n        /* \"practise5.1/MyToken.sol\":1437:1793  function approval (address spender ,uint amount)public whenNotPaused returns (bool){... */\n    tag_11:\n      callvalue\n      dup1\n      iszero\n      tag_68\n      jumpi\n      0x00\n      dup1\n      revert\n    tag_68:\n      pop\n      tag_69\n      0x04\n      dup1\n      calldatasize\n      sub\n      dup2\n      add\n      swap1\n      tag_70\n      swap2\n      swap1\n      tag_49\n      jump\t// in\n    tag_70:\n      tag_71\n      jump\t// in\n    tag_69:\n      mload(0x40)\n      tag_72\n      swap2\n      swap1\n      tag_37\n      jump\t// in\n    tag_72:\n      mload(0x40)\n      dup1\n      swap2\n      sub\n      swap1\n      return\n        /* \"practise5.1/MyToken.sol\":806:862  function pause() public onlyOwner {... */\n    tag_12:\n      callvalue\n      dup1\n      iszero\n      tag_73\n      jumpi\n      0x00\n      dup1\n      revert\n    tag_73:\n      pop\n      tag_74\n      tag_75\n      jump\t// in\n    tag_74:\n      stop\n        /* \"practise5.1/MyToken.sol\":2891:3700  function batchTransfer(... */\n    tag_13:\n      callvalue\n      dup1\n      iszero\n      tag_76\n      jumpi\n      0x00\n      dup1\n      revert\n    tag_76:\n      pop\n      tag_77\n      0x04\n      dup1\n      calldatasize\n      sub\n      dup2\n      add\n      swap1\n      tag_78\n      swap2\n      swap1\n      tag_79\n      jump\t// in\n    tag_78:\n      tag_80\n      jump\t// in\n    tag_77:\n      mload(0x40)\n      tag_81\n      swap2\n      swap1\n      tag_37\n      jump\t// in\n    tag_81:\n      mload(0x40)\n      dup1\n      swap2\n      sub\n      swap1\n      return\n        /* \"practise5.1/MyToken.sol\":339:359  address public owner */\n    tag_14:\n      callvalue\n      dup1\n      iszero\n      tag_82\n      jumpi\n      0x00\n      dup1\n      revert\n    tag_82:\n      pop\n      tag_83\n      tag_84\n      jump\t// in\n    tag_83:\n      mload(0x40)\n      tag_85\n      swap2\n      swap1\n      tag_86\n      jump\t// in\n    tag_85:\n      mload(0x40)\n      dup1\n      swap2\n      sub\n      swap1\n      return\n        /* \"practise5.1/MyToken.sol\":116:144  string public symbol = \"CTK\" */\n    tag_15:\n      callvalue\n      dup1\n      iszero\n      tag_87\n      jumpi\n      0x00\n      dup1\n      revert\n    tag_87:\n      pop\n      tag_88\n      tag_89\n      jump\t// in\n    tag_88:\n      mload(0x40)\n      tag_90\n      swap2\n      swap1\n      tag_25\n      jump\t// in\n    tag_90:\n      mload(0x40)\n      dup1\n      swap2\n      sub\n      swap1\n      return\n        /* \"practise5.1/MyToken.sol\":1056:1432  function transfer(address to ,uint amount)public  payable whenNotPaused  returns (bool){... */\n    tag_16:\n      tag_91\n      0x04\n      dup1\n      calldatasize\n      sub\n      dup2\n      add\n      swap1\n      tag_92\n      swap2\n      swap1\n      tag_49\n      jump\t// in\n    tag_92:\n      tag_93\n      jump\t// in\n    tag_91:\n      mload(0x40)\n      tag_94\n      swap2\n      swap1\n      tag_37\n      jump\t// in\n    tag_94:\n      mload(0x40)\n      dup1\n      swap2\n      sub\n      swap1\n      return\n        /* \"practise5.1/MyToken.sol\":269:333  mapping(address => mapping(address => uint256)) public allowance */\n    tag_17:\n      callvalue\n      dup1\n      iszero\n      tag_95\n      jumpi\n      0x00\n      dup1\n      revert\n    tag_95:\n      pop\n      tag_96\n      0x04\n      dup1\n      calldatasize\n      sub\n      dup2\n      add\n      swap1\n      tag_97\n      swap2\n      swap1\n      tag_98\n      jump\t// in\n    tag_97:\n      tag_99\n      jump\t// in\n    tag_96:\n      mload(0x40)\n      tag_100\n      swap2\n      swap1\n      tag_30\n      jump\t// in\n    tag_100:\n      mload(0x40)\n      dup1\n      swap2\n      sub\n      swap1\n      return\n        /* \"practise5.1/MyToken.sol\":78:110  string public name = \"Chp Token\" */\n    tag_23:\n      0x00\n      dup1\n      sload\n      tag_101\n      swap1\n      tag_102\n      jump\t// in\n    tag_101:\n      dup1\n      0x1f\n      add\n      0x20\n      dup1\n      swap2\n      div\n      mul\n      0x20\n      add\n      mload(0x40)\n      swap1\n      dup2\n      add\n      0x40\n      mstore\n      dup1\n      swap3\n      swap2\n      swap1\n      dup2\n      dup2\n      mstore\n      0x20\n      add\n      dup3\n      dup1\n      sload\n      tag_103\n      swap1\n      tag_102\n      jump\t// in\n    tag_103:\n      dup1\n      iszero\n      tag_104\n      jumpi\n      dup1\n      0x1f\n      lt\n      tag_105\n      jumpi\n      0x0100\n      dup1\n      dup4\n      sload\n      div\n      mul\n      dup4\n      mstore\n      swap2\n      0x20\n      add\n      swap2\n      jump(tag_104)\n    tag_105:\n      dup3\n      add\n      swap2\n      swap1\n      0x00\n      mstore\n      keccak256(0x00, 0x20)\n      swap1\n    tag_106:\n      dup2\n      sload\n      dup2\n      mstore\n      swap1\n      0x01\n      add\n      swap1\n      0x20\n      add\n      dup1\n      dup4\n      gt\n      tag_106\n      jumpi\n      dup3\n      swap1\n      sub\n      0x1f\n      and\n      dup3\n      add\n      swap2\n    tag_104:\n      pop\n      pop\n      pop\n      pop\n      pop\n      dup2\n      jump\t// out\n        /* \"practise5.1/MyToken.sol\":182:208  uint256 public totalSupply */\n    tag_28:\n      sload(0x03)\n      dup2\n      jump\t// out\n        /* \"practise5.1/MyToken.sol\":1798:2324  function transferFrom(address from,address to ,uint amount) public whenNotPaused returns (bool){... */\n    tag_35:\n        /* \"practise5.1/MyToken.sol\":1888:1892  bool */\n      0x00\n        /* \"practise5.1/MyToken.sol\":673:679  paused */\n      0x06\n      0x14\n      swap1\n      sload\n      swap1\n      0x0100\n      exp\n      swap1\n      div\n      0xff\n      and\n        /* \"practise5.1/MyToken.sol\":672:679  !paused */\n      iszero\n        /* \"practise5.1/MyToken.sol\":664:702  require(!paused, \"Contract is paused\") */\n      tag_108\n      jumpi\n      mload(0x40)\n      0x08c379a000000000000000000000000000000000000000000000000000000000\n      dup2\n      mstore\n      0x04\n      add\n      tag_109\n      swap1\n      tag_110\n      jump\t// in\n    tag_109:\n      mload(0x40)\n      dup1\n      swap2\n      sub\n      swap1\n      revert\n    tag_108:\n        /* \"practise5.1/MyToken.sol\":1927:1928  0 */\n      0x00\n        /* \"practise5.1/MyToken.sol\":1911:1929  from != address(0) */\n      0xffffffffffffffffffffffffffffffffffffffff\n      and\n        /* \"practise5.1/MyToken.sol\":1911:1915  from */\n      dup5\n        /* \"practise5.1/MyToken.sol\":1911:1929  from != address(0) */\n      0xffffffffffffffffffffffffffffffffffffffff\n      and\n      sub\n        /* \"practise5.1/MyToken.sol\":1903:1942  require(from != address(0),\"from Zero\") */\n      tag_112\n      jumpi\n      mload(0x40)\n      0x08c379a000000000000000000000000000000000000000000000000000000000\n      dup2\n      mstore\n      0x04\n      add\n      tag_113\n      swap1\n      tag_114\n      jump\t// in\n    tag_113:\n      mload(0x40)\n      dup1\n      swap2\n      sub\n      swap1\n      revert\n    tag_112:\n        /* \"practise5.1/MyToken.sol\":1974:1975  0 */\n      0x00\n        /* \"practise5.1/MyToken.sol\":1960:1976  to != address(0) */\n      0xffffffffffffffffffffffffffffffffffffffff\n      and\n        /* \"practise5.1/MyToken.sol\":1960:1962  to */\n      dup4\n        /* \"practise5.1/MyToken.sol\":1960:1976  to != address(0) */\n      0xffffffffffffffffffffffffffffffffffffffff\n      and\n      sub\n        /* \"practise5.1/MyToken.sol\":1952:1987  require(to != address(0),\"to Zero\") */\n      tag_115\n      jumpi\n      mload(0x40)\n      0x08c379a000000000000000000000000000000000000000000000000000000000\n      dup2\n      mstore\n      0x04\n      add\n      tag_116\n      swap1\n      tag_117\n      jump\t// in\n    tag_116:\n      mload(0x40)\n      dup1\n      swap2\n      sub\n      swap1\n      revert\n    tag_115:\n        /* \"practise5.1/MyToken.sol\":2024:2030  amount */\n      dup2\n        /* \"practise5.1/MyToken.sol\":2005:2014  balanceOf */\n      0x04\n        /* \"practise5.1/MyToken.sol\":2005:2020  balanceOf[from] */\n      0x00\n        /* \"practise5.1/MyToken.sol\":2015:2019  from */\n      dup7\n        /* \"practise5.1/MyToken.sol\":2005:2020  balanceOf[from] */\n      0xffffffffffffffffffffffffffffffffffffffff\n      and\n      0xffffffffffffffffffffffffffffffffffffffff\n      and\n      dup2\n      mstore\n      0x20\n      add\n      swap1\n      dup2\n      mstore\n      0x20\n      add\n      0x00\n      keccak256\n      sload\n        /* \"practise5.1/MyToken.sol\":2005:2030  balanceOf[from] >= amount */\n      lt\n      iszero\n        /* \"practise5.1/MyToken.sol\":1997:2054  require(balanceOf[from] >= amount,\"Insufficient Balance\") */\n      tag_118\n      jumpi\n      mload(0x40)\n      0x08c379a000000000000000000000000000000000000000000000000000000000\n      dup2\n      mstore\n      0x04\n      add\n      tag_119\n      swap1\n      tag_120\n      jump\t// in\n    tag_119:\n      mload(0x40)\n      dup1\n      swap2\n      sub\n      swap1\n      revert\n    tag_118:\n        /* \"practise5.1/MyToken.sol\":2103:2109  amount */\n      dup2\n        /* \"practise5.1/MyToken.sol\":2072:2081  allowance */\n      0x05\n        /* \"practise5.1/MyToken.sol\":2072:2087  allowance[from] */\n      0x00\n        /* \"practise5.1/MyToken.sol\":2082:2086  from */\n      dup7\n        /* \"practise5.1/MyToken.sol\":2072:2087  allowance[from] */\n      0xffffffffffffffffffffffffffffffffffffffff\n      and\n      0xffffffffffffffffffffffffffffffffffffffff\n      and\n      dup2\n      mstore\n      0x20\n      add\n      swap1\n      dup2\n      mstore\n      0x20\n      add\n      0x00\n      keccak256\n        /* \"practise5.1/MyToken.sol\":2072:2099  allowance[from][msg.sender] */\n      0x00\n        /* \"practise5.1/MyToken.sol\":2088:2098  msg.sender */\n      caller\n        /* \"practise5.1/MyToken.sol\":2072:2099  allowance[from][msg.sender] */\n      0xffffffffffffffffffffffffffffffffffffffff\n      and\n      0xffffffffffffffffffffffffffffffffffffffff\n      and\n      dup2\n      mstore\n      0x20\n      add\n      swap1\n      dup2\n      mstore\n      0x20\n      add\n      0x00\n      keccak256\n      sload\n        /* \"practise5.1/MyToken.sol\":2072:2109  allowance[from][msg.sender] >= amount */\n      lt\n      iszero\n        /* \"practise5.1/MyToken.sol\":2064:2135  require(allowance[from][msg.sender] >= amount,\"Insufficient allowance\") */\n      tag_121\n      jumpi\n      mload(0x40)\n      0x08c379a000000000000000000000000000000000000000000000000000000000\n      dup2\n      mstore\n      0x04\n      add\n      tag_122\n      swap1\n      tag_123\n      jump\t// in\n    tag_122:\n      mload(0x40)\n      dup1\n      swap2\n      sub\n      swap1\n      revert\n    tag_121:\n        /* \"practise5.1/MyToken.sol\":2164:2170  amount */\n      dup2\n        /* \"practise5.1/MyToken.sol\":2145:2154  balanceOf */\n      0x04\n        /* \"practise5.1/MyToken.sol\":2145:2160  balanceOf[from] */\n      0x00\n        /* \"practise5.1/MyToken.sol\":2155:2159  from */\n      dup7\n        /* \"practise5.1/MyToken.sol\":2145:2160  balanceOf[from] */\n      0xffffffffffffffffffffffffffffffffffffffff\n      and\n      0xffffffffffffffffffffffffffffffffffffffff\n      and\n      dup2\n      mstore\n      0x20\n      add\n      swap1\n      dup2\n      mstore\n      0x20\n      add\n      0x00\n      keccak256\n      0x00\n        /* \"practise5.1/MyToken.sol\":2145:2170  balanceOf[from] -= amount */\n      dup3\n      dup3\n      sload\n      tag_124\n      swap2\n      swap1\n      tag_125\n      jump\t// in\n    tag_124:\n      swap3\n      pop\n      pop\n      dup2\n      swap1\n      sstore\n      pop\n        /* \"practise5.1/MyToken.sol\":2197:2203  amount */\n      dup2\n        /* \"practise5.1/MyToken.sol\":2180:2189  balanceOf */\n      0x04\n        /* \"practise5.1/MyToken.sol\":2180:2193  balanceOf[to] */\n      0x00\n        /* \"practise5.1/MyToken.sol\":2190:2192  to */\n      dup6\n        /* \"practise5.1/MyToken.sol\":2180:2193  balanceOf[to] */\n      0xffffffffffffffffffffffffffffffffffffffff\n      and\n      0xffffffffffffffffffffffffffffffffffffffff\n      and\n      dup2\n      mstore\n      0x20\n      add\n      swap1\n      dup2\n      mstore\n      0x20\n      add\n      0x00\n      keccak256\n      0x00\n        /* \"practise5.1/MyToken.sol\":2180:2203  balanceOf[to] += amount */\n      dup3\n      dup3\n      sload\n      tag_126\n      swap2\n      swap1\n      tag_127\n      jump\t// in\n    tag_126:\n      swap3\n      pop\n      pop\n      dup2\n      swap1\n      sstore\n      pop\n        /* \"practise5.1/MyToken.sol\":2244:2250  amount */\n      dup2\n        /* \"practise5.1/MyToken.sol\":2213:2222  allowance */\n      0x05\n        /* \"practise5.1/MyToken.sol\":2213:2228  allowance[from] */\n      0x00\n        /* \"practise5.1/MyToken.sol\":2223:2227  from */\n      dup7\n        /* \"practise5.1/MyToken.sol\":2213:2228  allowance[from] */\n      0xffffffffffffffffffffffffffffffffffffffff\n      and\n      0xffffffffffffffffffffffffffffffffffffffff\n      and\n      dup2\n      mstore\n      0x20\n      add\n      swap1\n      dup2\n      mstore\n      0x20\n      add\n      0x00\n      keccak256\n        /* \"practise5.1/MyToken.sol\":2213:2240  allowance[from][msg.sender] */\n      0x00\n        /* \"practise5.1/MyToken.sol\":2229:2239  msg.sender */\n      caller\n        /* \"practise5.1/MyToken.sol\":2213:2240  allowance[from][msg.sender] */\n      0xffffffffffffffffffffffffffffffffffffffff\n      and\n      0xffffffffffffffffffffffffffffffffffffffff\n      and\n      dup2\n      mstore\n      0x20\n      add\n      swap1\n      dup2\n      mstore\n      0x20\n      add\n      0x00\n      keccak256\n      0x00\n        /* \"practise5.1/MyToken.sol\":2213:2250  allowance[from][msg.sender] -= amount */\n      dup3\n      dup3\n      sload\n      tag_128\n      swap2\n      swap1\n      tag_125\n      jump\t// in\n    tag_128:\n      swap3\n      pop\n      pop\n      dup2\n      swap1\n      sstore\n      pop\n        /* \"practise5.1/MyToken.sol\":2265:2295  TransferFrom(from, to, amount) */\n      0xc0d84ce5c7ff9ca21adb0f8436ff3f4951b4bb78c4e2fae2b6837958b3946ffd\n        /* \"practise5.1/MyToken.sol\":2278:2282  from */\n      dup5\n        /* \"practise5.1/MyToken.sol\":2284:2286  to */\n      dup5\n        /* \"practise5.1/MyToken.sol\":2288:2294  amount */\n      dup5\n        /* \"practise5.1/MyToken.sol\":2265:2295  TransferFrom(from, to, amount) */\n      mload(0x40)\n      tag_129\n      swap4\n      swap3\n      swap2\n      swap1\n      tag_130\n      jump\t// in\n    tag_129:\n      mload(0x40)\n      dup1\n      swap2\n      sub\n      swap1\n      log1\n        /* \"practise5.1/MyToken.sol\":2313:2317  true */\n      0x01\n        /* \"practise5.1/MyToken.sol\":2305:2317  return  true */\n      swap1\n      pop\n        /* \"practise5.1/MyToken.sol\":1798:2324  function transferFrom(address from,address to ,uint amount) public whenNotPaused returns (bool){... */\n      swap4\n      swap3\n      pop\n      pop\n      pop\n      jump\t// out\n        /* \"practise5.1/MyToken.sol\":150:176  uint8 public decimals = 18 */\n    tag_40:\n      0x02\n      0x00\n      swap1\n      sload\n      swap1\n      0x0100\n      exp\n      swap1\n      div\n      0xff\n      and\n      dup2\n      jump\t// out\n        /* \"practise5.1/MyToken.sol\":864:923  function unpause() public onlyOwner {... */\n    tag_45:\n        /* \"practise5.1/MyToken.sol\":761:766  owner */\n      0x06\n      0x00\n      swap1\n      sload\n      swap1\n      0x0100\n      exp\n      swap1\n      div\n      0xffffffffffffffffffffffffffffffffffffffff\n      and\n        /* \"practise5.1/MyToken.sol\":747:766  msg.sender == owner */\n      0xffffffffffffffffffffffffffffffffffffffff\n      and\n        /* \"practise5.1/MyToken.sol\":747:757  msg.sender */\n      caller\n        /* \"practise5.1/MyToken.sol\":747:766  msg.sender == owner */\n      0xffffffffffffffffffffffffffffffffffffffff\n      and\n      eq\n        /* \"practise5.1/MyToken.sol\":739:795  require(msg.sender == owner ,\"Only owner can operation\") */\n      tag_132\n      jumpi\n      mload(0x40)\n      0x08c379a000000000000000000000000000000000000000000000000000000000\n      dup2\n      mstore\n      0x04\n      add\n      tag_133\n      swap1\n      tag_134\n      jump\t// in\n    tag_133:\n      mload(0x40)\n      dup1\n      swap2\n      sub\n      swap1\n      revert\n    tag_132:\n        /* \"practise5.1/MyToken.sol\":915:920  false */\n      0x00\n        /* \"practise5.1/MyToken.sol\":906:912  paused */\n      0x06\n      0x14\n        /* \"practise5.1/MyToken.sol\":906:920  paused = false */\n      0x0100\n      exp\n      dup2\n      sload\n      dup2\n      0xff\n      mul\n      not\n      and\n      swap1\n      dup4\n      iszero\n      iszero\n      mul\n      or\n      swap1\n      sstore\n      pop\n        /* \"practise5.1/MyToken.sol\":864:923  function unpause() public onlyOwner {... */\n      jump\t// out\n        /* \"practise5.1/MyToken.sol\":2329:2595  function mint(address to ,uint amount) public  returns (bool){... */\n    tag_50:\n        /* \"practise5.1/MyToken.sol\":2385:2389  bool */\n      0x00\n        /* \"practise5.1/MyToken.sol\":2422:2423  0 */\n      dup1\n        /* \"practise5.1/MyToken.sol\":2408:2424  to != address(0) */\n      0xffffffffffffffffffffffffffffffffffffffff\n      and\n        /* \"practise5.1/MyToken.sol\":2408:2410  to */\n      dup4\n        /* \"practise5.1/MyToken.sol\":2408:2424  to != address(0) */\n      0xffffffffffffffffffffffffffffffffffffffff\n      and\n      sub\n        /* \"practise5.1/MyToken.sol\":2400:2455  require(to != address(0),\"Cannot mint to zero address\") */\n      tag_137\n      jumpi\n      mload(0x40)\n      0x08c379a000000000000000000000000000000000000000000000000000000000\n      dup2\n      mstore\n      0x04\n      add\n      tag_138\n      swap1\n      tag_139\n      jump\t// in\n    tag_138:\n      mload(0x40)\n      dup1\n      swap2\n      sub\n      swap1\n      revert\n    tag_137:\n        /* \"practise5.1/MyToken.sol\":2480:2486  amount */\n      dup2\n        /* \"practise5.1/MyToken.sol\":2465:2476  totalSupply */\n      0x03\n      0x00\n        /* \"practise5.1/MyToken.sol\":2465:2486  totalSupply += amount */\n      dup3\n      dup3\n      sload\n      tag_140\n      swap2\n      swap1\n      tag_127\n      jump\t// in\n    tag_140:\n      swap3\n      pop\n      pop\n      dup2\n      swap1\n      sstore\n      pop\n        /* \"practise5.1/MyToken.sol\":2513:2519  amount */\n      dup2\n        /* \"practise5.1/MyToken.sol\":2496:2505  balanceOf */\n      0x04\n        /* \"practise5.1/MyToken.sol\":2496:2509  balanceOf[to] */\n      0x00\n        /* \"practise5.1/MyToken.sol\":2506:2508  to */\n      dup6\n        /* \"practise5.1/MyToken.sol\":2496:2509  balanceOf[to] */\n      0xffffffffffffffffffffffffffffffffffffffff\n      and\n      0xffffffffffffffffffffffffffffffffffffffff\n      and\n      dup2\n      mstore\n      0x20\n      add\n      swap1\n      dup2\n      mstore\n      0x20\n      add\n      0x00\n      keccak256\n      0x00\n        /* \"practise5.1/MyToken.sol\":2496:2519  balanceOf[to] += amount */\n      dup3\n      dup3\n      sload\n      tag_141\n      swap2\n      swap1\n      tag_127\n      jump\t// in\n    tag_141:\n      swap3\n      pop\n      pop\n      dup2\n      swap1\n      sstore\n      pop\n        /* \"practise5.1/MyToken.sol\":2535:2567  Transfer(address(0), to, amount) */\n      0xddf252ad1be2c89b69c2b068fc378daa952ba7f163c4a11628f55a4df523b3ef\n        /* \"practise5.1/MyToken.sol\":2552:2553  0 */\n      0x00\n        /* \"practise5.1/MyToken.sol\":2556:2558  to */\n      dup5\n        /* \"practise5.1/MyToken.sol\":2560:2566  amount */\n      dup5\n        /* \"practise5.1/MyToken.sol\":2535:2567  Transfer(address(0), to, amount) */\n      mload(0x40)\n      tag_142\n      swap4\n      swap3\n      swap2\n      swap1\n      tag_130\n      jump\t// in\n    tag_142:\n      mload(0x40)\n      dup1\n      swap2\n      sub\n      swap1\n      log1\n        /* \"practise5.1/MyToken.sol\":2584:2588  true */\n      0x01\n        /* \"practise5.1/MyToken.sol\":2577:2588  return true */\n      swap1\n      pop\n        /* \"practise5.1/MyToken.sol\":2329:2595  function mint(address to ,uint amount) public  returns (bool){... */\n      swap3\n      swap2\n      pop\n      pop\n      jump\t// out\n        /* \"practise5.1/MyToken.sol\":2600:2886  function burn(uint amount) public  returns (bool){... */\n    tag_56:\n        /* \"practise5.1/MyToken.sol\":2644:2648  bool */\n      0x00\n        /* \"practise5.1/MyToken.sol\":2692:2698  amount */\n      dup2\n        /* \"practise5.1/MyToken.sol\":2667:2676  balanceOf */\n      0x04\n        /* \"practise5.1/MyToken.sol\":2667:2688  balanceOf[msg.sender] */\n      0x00\n        /* \"practise5.1/MyToken.sol\":2677:2687  msg.sender */\n      caller\n        /* \"practise5.1/MyToken.sol\":2667:2688  balanceOf[msg.sender] */\n      0xffffffffffffffffffffffffffffffffffffffff\n      and\n      0xffffffffffffffffffffffffffffffffffffffff\n      and\n      dup2\n      mstore\n      0x20\n      add\n      swap1\n      dup2\n      mstore\n      0x20\n      add\n      0x00\n      keccak256\n      sload\n        /* \"practise5.1/MyToken.sol\":2667:2698  balanceOf[msg.sender] >= amount */\n      lt\n      iszero\n        /* \"practise5.1/MyToken.sol\":2659:2730  require(balanceOf[msg.sender] >= amount,\"Insufficient balance to burn\") */\n      tag_144\n      jumpi\n      mload(0x40)\n      0x08c379a000000000000000000000000000000000000000000000000000000000\n      dup2\n      mstore\n      0x04\n      add\n      tag_145\n      swap1\n      tag_146\n      jump\t// in\n    tag_145:\n      mload(0x40)\n      dup1\n      swap2\n      sub\n      swap1\n      revert\n    tag_144:\n        /* \"practise5.1/MyToken.sol\":2755:2761  amount */\n      dup2\n        /* \"practise5.1/MyToken.sol\":2740:2751  totalSupply */\n      0x03\n      0x00\n        /* \"practise5.1/MyToken.sol\":2740:2761  totalSupply -= amount */\n      dup3\n      dup3\n      sload\n      tag_147\n      swap2\n      swap1\n      tag_125\n      jump\t// in\n    tag_147:\n      swap3\n      pop\n      pop\n      dup2\n      swap1\n      sstore\n      pop\n        /* \"practise5.1/MyToken.sol\":2796:2802  amount */\n      dup2\n        /* \"practise5.1/MyToken.sol\":2771:2780  balanceOf */\n      0x04\n        /* \"practise5.1/MyToken.sol\":2771:2792  balanceOf[msg.sender] */\n      0x00\n        /* \"practise5.1/MyToken.sol\":2781:2791  msg.sender */\n      caller\n        /* \"practise5.1/MyToken.sol\":2771:2792  balanceOf[msg.sender] */\n      0xffffffffffffffffffffffffffffffffffffffff\n      and\n      0xffffffffffffffffffffffffffffffffffffffff\n      and\n      dup2\n      mstore\n      0x20\n      add\n      swap1\n      dup2\n      mstore\n      0x20\n      add\n      0x00\n      keccak256\n      0x00\n        /* \"practise5.1/MyToken.sol\":2771:2802  balanceOf[msg.sender] -= amount */\n      dup3\n      dup3\n      sload\n      tag_148\n      swap2\n      swap1\n      tag_125\n      jump\t// in\n    tag_148:\n      swap3\n      pop\n      pop\n      dup2\n      swap1\n      sstore\n      pop\n        /* \"practise5.1/MyToken.sol\":2818:2858  Transfer(msg.sender, address(0), amount) */\n      0xddf252ad1be2c89b69c2b068fc378daa952ba7f163c4a11628f55a4df523b3ef\n        /* \"practise5.1/MyToken.sol\":2827:2837  msg.sender */\n      caller\n        /* \"practise5.1/MyToken.sol\":2847:2848  0 */\n      0x00\n        /* \"practise5.1/MyToken.sol\":2851:2857  amount */\n      dup5\n        /* \"practise5.1/MyToken.sol\":2818:2858  Transfer(msg.sender, address(0), amount) */\n      mload(0x40)\n      tag_149\n      swap4\n      swap3\n      swap2\n      swap1\n      tag_130\n      jump\t// in\n    tag_149:\n      mload(0x40)\n      dup1\n      swap2\n      sub\n      swap1\n      log1\n        /* \"practise5.1/MyToken.sol\":2875:2879  true */\n      0x01\n        /* \"practise5.1/MyToken.sol\":2868:2879  return true */\n      swap1\n      pop\n        /* \"practise5.1/MyToken.sol\":2600:2886  function burn(uint amount) public  returns (bool){... */\n      swap2\n      swap1\n      pop\n      jump\t// out\n        /* \"practise5.1/MyToken.sol\":604:630  bool public paused = false */\n    tag_60:\n      0x06\n      0x14\n      swap1\n      sload\n      swap1\n      0x0100\n      exp\n      swap1\n      div\n      0xff\n      and\n      dup2\n      jump\t// out\n        /* \"practise5.1/MyToken.sol\":219:263  mapping(address => uint256) public balanceOf */\n    tag_66:\n      mstore(0x20, 0x04)\n      dup1\n      0x00\n      mstore\n      keccak256(0x00, 0x40)\n      0x00\n      swap2\n      pop\n      swap1\n      pop\n      sload\n      dup2\n      jump\t// out\n        /* \"practise5.1/MyToken.sol\":1437:1793  function approval (address spender ,uint amount)public whenNotPaused returns (bool){... */\n    tag_71:\n        /* \"practise5.1/MyToken.sol\":1515:1519  bool */\n      0x00\n        /* \"practise5.1/MyToken.sol\":673:679  paused */\n      0x06\n      0x14\n      swap1\n      sload\n      swap1\n      0x0100\n      exp\n      swap1\n      div\n      0xff\n      and\n        /* \"practise5.1/MyToken.sol\":672:679  !paused */\n      iszero\n        /* \"practise5.1/MyToken.sol\":664:702  require(!paused, \"Contract is paused\") */\n      tag_151\n      jumpi\n      mload(0x40)\n      0x08c379a000000000000000000000000000000000000000000000000000000000\n      dup2\n      mstore\n      0x04\n      add\n      tag_152\n      swap1\n      tag_110\n      jump\t// in\n    tag_152:\n      mload(0x40)\n      dup1\n      swap2\n      sub\n      swap1\n      revert\n    tag_151:\n        /* \"practise5.1/MyToken.sol\":1557:1558  0 */\n      0x00\n        /* \"practise5.1/MyToken.sol\":1538:1559  spender != address(0) */\n      0xffffffffffffffffffffffffffffffffffffffff\n      and\n        /* \"practise5.1/MyToken.sol\":1538:1545  spender */\n      dup4\n        /* \"practise5.1/MyToken.sol\":1538:1559  spender != address(0) */\n      0xffffffffffffffffffffffffffffffffffffffff\n      and\n      sub\n        /* \"practise5.1/MyToken.sol\":1530:1595  require(spender != address(0),\"can not approval to zero address\") */\n      tag_154\n      jumpi\n      mload(0x40)\n      0x08c379a000000000000000000000000000000000000000000000000000000000\n      dup2\n      mstore\n      0x04\n      add\n      tag_155\n      swap1\n      tag_156\n      jump\t// in\n    tag_155:\n      mload(0x40)\n      dup1\n      swap2\n      sub\n      swap1\n      revert\n    tag_154:\n        /* \"practise5.1/MyToken.sol\":1637:1643  amount */\n      dup2\n        /* \"practise5.1/MyToken.sol\":1612:1621  balanceOf */\n      0x04\n        /* \"practise5.1/MyToken.sol\":1612:1633  balanceOf[msg.sender] */\n      0x00\n        /* \"practise5.1/MyToken.sol\":1622:1632  msg.sender */\n      caller\n        /* \"practise5.1/MyToken.sol\":1612:1633  balanceOf[msg.sender] */\n      0xffffffffffffffffffffffffffffffffffffffff\n      and\n      0xffffffffffffffffffffffffffffffffffffffff\n      and\n      dup2\n      mstore\n      0x20\n      add\n      swap1\n      dup2\n      mstore\n      0x20\n      add\n      0x00\n      keccak256\n      sload\n        /* \"practise5.1/MyToken.sol\":1612:1643  balanceOf[msg.sender] >= amount */\n      lt\n      iszero\n        /* \"practise5.1/MyToken.sol\":1604:1668  require(balanceOf[msg.sender] >= amount ,\"insufficient balance\") */\n      tag_157\n      jumpi\n      mload(0x40)\n      0x08c379a000000000000000000000000000000000000000000000000000000000\n      dup2\n      mstore\n      0x04\n      add\n      tag_158\n      swap1\n      tag_159\n      jump\t// in\n    tag_158:\n      mload(0x40)\n      dup1\n      swap2\n      sub\n      swap1\n      revert\n    tag_157:\n        /* \"practise5.1/MyToken.sol\":1710:1716  amount */\n      dup2\n        /* \"practise5.1/MyToken.sol\":1677:1686  allowance */\n      0x05\n        /* \"practise5.1/MyToken.sol\":1677:1698  allowance[msg.sender] */\n      0x00\n        /* \"practise5.1/MyToken.sol\":1687:1697  msg.sender */\n      caller\n        /* \"practise5.1/MyToken.sol\":1677:1698  allowance[msg.sender] */\n      0xffffffffffffffffffffffffffffffffffffffff\n      and\n      0xffffffffffffffffffffffffffffffffffffffff\n      and\n      dup2\n      mstore\n      0x20\n      add\n      swap1\n      dup2\n      mstore\n      0x20\n      add\n      0x00\n      keccak256\n        /* \"practise5.1/MyToken.sol\":1677:1707  allowance[msg.sender][spender] */\n      0x00\n        /* \"practise5.1/MyToken.sol\":1699:1706  spender */\n      dup6\n        /* \"practise5.1/MyToken.sol\":1677:1707  allowance[msg.sender][spender] */\n      0xffffffffffffffffffffffffffffffffffffffff\n      and\n      0xffffffffffffffffffffffffffffffffffffffff\n      and\n      dup2\n      mstore\n      0x20\n      add\n      swap1\n      dup2\n      mstore\n      0x20\n      add\n      0x00\n      keccak256\n        /* \"practise5.1/MyToken.sol\":1677:1716  allowance[msg.sender][spender] = amount */\n      dup2\n      swap1\n      sstore\n      pop\n        /* \"practise5.1/MyToken.sol\":1730:1765  Approval(msg.sender,spender,amount) */\n      0x8c5be1e5ebec7d5bd14f71427d1e84f3dd0314c0f7b2291e5b200ac8c7c3b925\n        /* \"practise5.1/MyToken.sol\":1739:1749  msg.sender */\n      caller\n        /* \"practise5.1/MyToken.sol\":1750:1757  spender */\n      dup5\n        /* \"practise5.1/MyToken.sol\":1758:1764  amount */\n      dup5\n        /* \"practise5.1/MyToken.sol\":1730:1765  Approval(msg.sender,spender,amount) */\n      mload(0x40)\n      tag_160\n      swap4\n      swap3\n      swap2\n      swap1\n      tag_130\n      jump\t// in\n    tag_160:\n      mload(0x40)\n      dup1\n      swap2\n      sub\n      swap1\n      log1\n        /* \"practise5.1/MyToken.sol\":1782:1786  true */\n      0x01\n        /* \"practise5.1/MyToken.sol\":1774:1786  return  true */\n      swap1\n      pop\n        /* \"practise5.1/MyToken.sol\":1437:1793  function approval (address spender ,uint amount)public whenNotPaused returns (bool){... */\n      swap3\n      swap2\n      pop\n      pop\n      jump\t// out\n        /* \"practise5.1/MyToken.sol\":806:862  function pause() public onlyOwner {... */\n    tag_75:\n        /* \"practise5.1/MyToken.sol\":761:766  owner */\n      0x06\n      0x00\n      swap1\n      sload\n      swap1\n      0x0100\n      exp\n      swap1\n      div\n      0xffffffffffffffffffffffffffffffffffffffff\n      and\n        /* \"practise5.1/MyToken.sol\":747:766  msg.sender == owner */\n      0xffffffffffffffffffffffffffffffffffffffff\n      and\n        /* \"practise5.1/MyToken.sol\":747:757  msg.sender */\n      caller\n        /* \"practise5.1/MyToken.sol\":747:766  msg.sender == owner */\n      0xffffffffffffffffffffffffffffffffffffffff\n      and\n      eq\n        /* \"practise5.1/MyToken.sol\":739:795  require(msg.sender == owner ,\"Only owner can operation\") */\n      tag_162\n      jumpi\n      mload(0x40)\n      0x08c379a000000000000000000000000000000000000000000000000000000000\n      dup2\n      mstore\n      0x04\n      add\n      tag_163\n      swap1\n      tag_134\n      jump\t// in\n    tag_163:\n      mload(0x40)\n      dup1\n      swap2\n      sub\n      swap1\n      revert\n    tag_162:\n        /* \"practise5.1/MyToken.sol\":855:859  true */\n      0x01\n        /* \"practise5.1/MyToken.sol\":846:852  paused */\n      0x06\n      0x14\n        /* \"practise5.1/MyToken.sol\":846:859  paused = true */\n      0x0100\n      exp\n      dup2\n      sload\n      dup2\n      0xff\n      mul\n      not\n      and\n      swap1\n      dup4\n      iszero\n      iszero\n      mul\n      or\n      swap1\n      sstore\n      pop\n        /* \"practise5.1/MyToken.sol\":806:862  function pause() public onlyOwner {... */\n      jump\t// out\n        /* \"practise5.1/MyToken.sol\":2891:3700  function batchTransfer(... */\n    tag_80:\n        /* \"practise5.1/MyToken.sol\":2995:2999  bool */\n      0x00\n        /* \"practise5.1/MyToken.sol\":3097:3104  amounts */\n      dup2\n        /* \"practise5.1/MyToken.sol\":3097:3111  amounts.length */\n      mload\n        /* \"practise5.1/MyToken.sol\":3076:3086  recipients */\n      dup4\n        /* \"practise5.1/MyToken.sol\":3076:3093  recipients.length */\n      mload\n        /* \"practise5.1/MyToken.sol\":3076:3111  recipients.length == amounts.length */\n      eq\n        /* \"practise5.1/MyToken.sol\":3068:3130  require(recipients.length == amounts.length,\"Length mismatch\") */\n      tag_166\n      jumpi\n      mload(0x40)\n      0x08c379a000000000000000000000000000000000000000000000000000000000\n      dup2\n      mstore\n      0x04\n      add\n      tag_167\n      swap1\n      tag_168\n      jump\t// in\n    tag_167:\n      mload(0x40)\n      dup1\n      swap2\n      sub\n      swap1\n      revert\n    tag_166:\n        /* \"practise5.1/MyToken.sol\":3194:3196  50 */\n      0x32\n        /* \"practise5.1/MyToken.sol\":3173:3183  recipients */\n      dup4\n        /* \"practise5.1/MyToken.sol\":3173:3190  recipients.length */\n      mload\n        /* \"practise5.1/MyToken.sol\":3173:3196  recipients.length <= 50 */\n      gt\n      iszero\n        /* \"practise5.1/MyToken.sol\":3165:3215  require(recipients.length <= 50,\"Batch too large\") */\n      tag_169\n      jumpi\n      mload(0x40)\n      0x08c379a000000000000000000000000000000000000000000000000000000000\n      dup2\n      mstore\n      0x04\n      add\n      tag_170\n      swap1\n      tag_171\n      jump\t// in\n    tag_170:\n      mload(0x40)\n      dup1\n      swap2\n      sub\n      swap1\n      revert\n    tag_169:\n        /* \"practise5.1/MyToken.sol\":3247:3263  uint totalAmount */\n      0x00\n        /* \"practise5.1/MyToken.sol\":3274:3280  uint i */\n      dup1\n        /* \"practise5.1/MyToken.sol\":3269:3347  for (uint i ;i < amounts.length;i++){... */\n    tag_172:\n        /* \"practise5.1/MyToken.sol\":3286:3293  amounts */\n      dup4\n        /* \"practise5.1/MyToken.sol\":3286:3300  amounts.length */\n      mload\n        /* \"practise5.1/MyToken.sol\":3282:3283  i */\n      dup2\n        /* \"practise5.1/MyToken.sol\":3282:3300  i < amounts.length */\n      lt\n        /* \"practise5.1/MyToken.sol\":3269:3347  for (uint i ;i < amounts.length;i++){... */\n      iszero\n      tag_173\n      jumpi\n        /* \"practise5.1/MyToken.sol\":3330:3337  amounts */\n      dup4\n        /* \"practise5.1/MyToken.sol\":3338:3339  i */\n      dup2\n        /* \"practise5.1/MyToken.sol\":3330:3340  amounts[i] */\n      dup2\n      mload\n      dup2\n      lt\n      tag_175\n      jumpi\n      tag_176\n      tag_177\n      jump\t// in\n    tag_176:\n    tag_175:\n      0x20\n      mul\n      0x20\n      add\n      add\n      mload\n        /* \"practise5.1/MyToken.sol\":3315:3340  totalAmount += amounts[i] */\n      dup3\n      tag_178\n      swap2\n      swap1\n      tag_127\n      jump\t// in\n    tag_178:\n      swap2\n      pop\n        /* \"practise5.1/MyToken.sol\":3301:3304  i++ */\n      dup1\n      dup1\n      0x01\n      add\n      swap2\n      pop\n      pop\n        /* \"practise5.1/MyToken.sol\":3269:3347  for (uint i ;i < amounts.length;i++){... */\n      jump(tag_172)\n    tag_173:\n      pop\n        /* \"practise5.1/MyToken.sol\":3410:3421  totalAmount */\n      dup1\n        /* \"practise5.1/MyToken.sol\":3386:3395  balanceOf */\n      0x04\n        /* \"practise5.1/MyToken.sol\":3386:3407  balanceOf[msg.sender] */\n      0x00\n        /* \"practise5.1/MyToken.sol\":3396:3406  msg.sender */\n      caller\n        /* \"practise5.1/MyToken.sol\":3386:3407  balanceOf[msg.sender] */\n      0xffffffffffffffffffffffffffffffffffffffff\n      and\n      0xffffffffffffffffffffffffffffffffffffffff\n      and\n      dup2\n      mstore\n      0x20\n      add\n      swap1\n      dup2\n      mstore\n      0x20\n      add\n      0x00\n      keccak256\n      sload\n        /* \"practise5.1/MyToken.sol\":3386:3421  balanceOf[msg.sender]>= totalAmount */\n      lt\n      iszero\n        /* \"practise5.1/MyToken.sol\":3378:3445  require(balanceOf[msg.sender]>= totalAmount,\"Insufficient balance\") */\n      tag_179\n      jumpi\n      mload(0x40)\n      0x08c379a000000000000000000000000000000000000000000000000000000000\n      dup2\n      mstore\n      0x04\n      add\n      tag_180\n      swap1\n      tag_181\n      jump\t// in\n    tag_180:\n      mload(0x40)\n      dup1\n      swap2\n      sub\n      swap1\n      revert\n    tag_179:\n        /* \"practise5.1/MyToken.sol\":3479:3485  uint i */\n      0x00\n        /* \"practise5.1/MyToken.sol\":3474:3680  for (uint i;i<recipients.length;i++){... */\n    tag_182:\n        /* \"practise5.1/MyToken.sol\":3488:3498  recipients */\n      dup5\n        /* \"practise5.1/MyToken.sol\":3488:3505  recipients.length */\n      mload\n        /* \"practise5.1/MyToken.sol\":3486:3487  i */\n      dup2\n        /* \"practise5.1/MyToken.sol\":3486:3505  i<recipients.length */\n      lt\n        /* \"practise5.1/MyToken.sol\":3474:3680  for (uint i;i<recipients.length;i++){... */\n      iszero\n      tag_183\n      jumpi\n        /* \"practise5.1/MyToken.sol\":3549:3556  amounts */\n      dup4\n        /* \"practise5.1/MyToken.sol\":3557:3558  i */\n      dup2\n        /* \"practise5.1/MyToken.sol\":3549:3559  amounts[i] */\n      dup2\n      mload\n      dup2\n      lt\n      tag_185\n      jumpi\n      tag_186\n      tag_177\n      jump\t// in\n    tag_186:\n    tag_185:\n      0x20\n      mul\n      0x20\n      add\n      add\n      mload\n        /* \"practise5.1/MyToken.sol\":3524:3533  balanceOf */\n      0x04\n        /* \"practise5.1/MyToken.sol\":3524:3545  balanceOf[msg.sender] */\n      0x00\n        /* \"practise5.1/MyToken.sol\":3534:3544  msg.sender */\n      caller\n        /* \"practise5.1/MyToken.sol\":3524:3545  balanceOf[msg.sender] */\n      0xffffffffffffffffffffffffffffffffffffffff\n      and\n      0xffffffffffffffffffffffffffffffffffffffff\n      and\n      dup2\n      mstore\n      0x20\n      add\n      swap1\n      dup2\n      mstore\n      0x20\n      add\n      0x00\n      keccak256\n      0x00\n        /* \"practise5.1/MyToken.sol\":3524:3559  balanceOf[msg.sender] -= amounts[i] */\n      dup3\n      dup3\n      sload\n      tag_187\n      swap2\n      swap1\n      tag_125\n      jump\t// in\n    tag_187:\n      swap3\n      pop\n      pop\n      dup2\n      swap1\n      sstore\n      pop\n        /* \"practise5.1/MyToken.sol\":3601:3608  amounts */\n      dup4\n        /* \"practise5.1/MyToken.sol\":3609:3610  i */\n      dup2\n        /* \"practise5.1/MyToken.sol\":3601:3611  amounts[i] */\n      dup2\n      mload\n      dup2\n      lt\n      tag_188\n      jumpi\n      tag_189\n      tag_177\n      jump\t// in\n    tag_189:\n    tag_188:\n      0x20\n      mul\n      0x20\n      add\n      add\n      mload\n        /* \"practise5.1/MyToken.sol\":3573:3582  balanceOf */\n      0x04\n        /* \"practise5.1/MyToken.sol\":3573:3597  balanceOf[recipients[i]] */\n      0x00\n        /* \"practise5.1/MyToken.sol\":3583:3593  recipients */\n      dup8\n        /* \"practise5.1/MyToken.sol\":3594:3595  i */\n      dup5\n        /* \"practise5.1/MyToken.sol\":3583:3596  recipients[i] */\n      dup2\n      mload\n      dup2\n      lt\n      tag_190\n      jumpi\n      tag_191\n      tag_177\n      jump\t// in\n    tag_191:\n    tag_190:\n      0x20\n      mul\n      0x20\n      add\n      add\n      mload\n        /* \"practise5.1/MyToken.sol\":3573:3597  balanceOf[recipients[i]] */\n      0xffffffffffffffffffffffffffffffffffffffff\n      and\n      0xffffffffffffffffffffffffffffffffffffffff\n      and\n      dup2\n      mstore\n      0x20\n      add\n      swap1\n      dup2\n      mstore\n      0x20\n      add\n      0x00\n      keccak256\n      0x00\n        /* \"practise5.1/MyToken.sol\":3573:3611  balanceOf[recipients[i]] += amounts[i] */\n      dup3\n      dup3\n      sload\n      tag_192\n      swap2\n      swap1\n      tag_127\n      jump\t// in\n    tag_192:\n      swap3\n      pop\n      pop\n      dup2\n      swap1\n      sstore\n      pop\n        /* \"practise5.1/MyToken.sol\":3627:3673  Transfer(msg.sender,recipients[i], amounts[i]) */\n      0xddf252ad1be2c89b69c2b068fc378daa952ba7f163c4a11628f55a4df523b3ef\n        /* \"practise5.1/MyToken.sol\":3636:3646  msg.sender */\n      caller\n        /* \"practise5.1/MyToken.sol\":3647:3657  recipients */\n      dup7\n        /* \"practise5.1/MyToken.sol\":3658:3659  i */\n      dup4\n        /* \"practise5.1/MyToken.sol\":3647:3660  recipients[i] */\n      dup2\n      mload\n      dup2\n      lt\n      tag_193\n      jumpi\n      tag_194\n      tag_177\n      jump\t// in\n    tag_194:\n    tag_193:\n      0x20\n      mul\n      0x20\n      add\n      add\n      mload\n        /* \"practise5.1/MyToken.sol\":3662:3669  amounts */\n      dup7\n        /* \"practise5.1/MyToken.sol\":3670:3671  i */\n      dup5\n        /* \"practise5.1/MyToken.sol\":3662:3672  amounts[i] */\n      dup2\n      mload\n      dup2\n      lt\n      tag_195\n      jumpi\n      tag_196\n      tag_177\n      jump\t// in\n    tag_196:\n    tag_195:\n      0x20\n      mul\n      0x20\n      add\n      add\n      mload\n        /* \"practise5.1/MyToken.sol\":3627:3673  Transfer(msg.sender,recipients[i], amounts[i]) */\n      mload(0x40)\n      tag_197\n      swap4\n      swap3\n      swap2\n      swap1\n      tag_130\n      jump\t// in\n    tag_197:\n      mload(0x40)\n      dup1\n      swap2\n      sub\n      swap1\n      log1\n        /* \"practise5.1/MyToken.sol\":3506:3509  i++ */\n      dup1\n      dup1\n      0x01\n      add\n      swap2\n      pop\n      pop\n        /* \"practise5.1/MyToken.sol\":3474:3680  for (uint i;i<recipients.length;i++){... */\n      jump(tag_182)\n    tag_183:\n      pop\n        /* \"practise5.1/MyToken.sol\":3693:3697  true */\n      0x01\n        /* \"practise5.1/MyToken.sol\":3685:3697  return  true */\n      swap2\n      pop\n      pop\n        /* \"practise5.1/MyToken.sol\":2891:3700  function batchTransfer(... */\n      swap3\n      swap2\n      pop\n      pop\n      jump\t// out\n        /* \"practise5.1/MyToken.sol\":339:359  address public owner */\n    tag_84:\n      0x06\n      0x00\n      swap1\n      sload\n      swap1\n      0x0100\n      exp\n      swap1\n      div\n      0xffffffffffffffffffffffffffffffffffffffff\n      and\n      dup2\n      jump\t// out\n        /* \"practise5.1/MyToken.sol\":116:144  string public symbol = \"CTK\" */\n    tag_89:\n      0x01\n      dup1\n      sload\n      tag_198\n      swap1\n      tag_102\n      jump\t// in\n    tag_198:\n      dup1\n      0x1f\n      add\n      0x20\n      dup1\n      swap2\n      div\n      mul\n      0x20\n      add\n      mload(0x40)\n      swap1\n      dup2\n      add\n      0x40\n      mstore\n      dup1\n      swap3\n      swap2\n      swap1\n      dup2\n      dup2\n      mstore\n      0x20\n      add\n      dup3\n      dup1\n      sload\n      tag_199\n      swap1\n      tag_102\n      jump\t// in\n    tag_199:\n      dup1\n      iszero\n      tag_200\n      jumpi\n      dup1\n      0x1f\n      lt\n      tag_201\n      jumpi\n      0x0100\n      dup1\n      dup4\n      sload\n      div\n      mul\n      dup4\n      mstore\n      swap2\n      0x20\n      add\n      swap2\n      jump(tag_200)\n    tag_201:\n      dup3\n      add\n      swap2\n      swap1\n      0x00\n      mstore\n      keccak256(0x00, 0x20)\n      swap1\n    tag_202:\n      dup2\n      sload\n      dup2\n      mstore\n      swap1\n      0x01\n      add\n      swap1\n      0x20\n      add\n      dup1\n      dup4\n      gt\n      tag_202\n      jumpi\n      dup3\n      swap1\n      sub\n      0x1f\n      and\n      dup3\n      add\n      swap2\n    tag_200:\n      pop\n      pop\n      pop\n      pop\n      pop\n      dup2\n      jump\t// out\n        /* \"practise5.1/MyToken.sol\":1056:1432  function transfer(address to ,uint amount)public  payable whenNotPaused  returns (bool){... */\n    tag_93:\n        /* \"practise5.1/MyToken.sol\":1138:1142  bool */\n      0x00\n        /* \"practise5.1/MyToken.sol\":673:679  paused */\n      0x06\n      0x14\n      swap1\n      sload\n      swap1\n      0x0100\n      exp\n      swap1\n      div\n      0xff\n      and\n        /* \"practise5.1/MyToken.sol\":672:679  !paused */\n      iszero\n        /* \"practise5.1/MyToken.sol\":664:702  require(!paused, \"Contract is paused\") */\n      tag_204\n      jumpi\n      mload(0x40)\n      0x08c379a000000000000000000000000000000000000000000000000000000000\n      dup2\n      mstore\n      0x04\n      add\n      tag_205\n      swap1\n      tag_110\n      jump\t// in\n    tag_205:\n      mload(0x40)\n      dup1\n      swap2\n      sub\n      swap1\n      revert\n    tag_204:\n        /* \"practise5.1/MyToken.sol\":1174:1175  0 */\n      0x00\n        /* \"practise5.1/MyToken.sol\":1160:1176  to != address(0) */\n      0xffffffffffffffffffffffffffffffffffffffff\n      and\n        /* \"practise5.1/MyToken.sol\":1160:1162  to */\n      dup4\n        /* \"practise5.1/MyToken.sol\":1160:1176  to != address(0) */\n      0xffffffffffffffffffffffffffffffffffffffff\n      and\n      sub\n        /* \"practise5.1/MyToken.sol\":1152:1212  require(to != address(0),\"can not transfer to zero address\") */\n      tag_207\n      jumpi\n      mload(0x40)\n      0x08c379a000000000000000000000000000000000000000000000000000000000\n      dup2\n      mstore\n      0x04\n      add\n      tag_208\n      swap1\n      tag_209\n      jump\t// in\n    tag_208:\n      mload(0x40)\n      dup1\n      swap2\n      sub\n      swap1\n      revert\n    tag_207:\n        /* \"practise5.1/MyToken.sol\":1254:1260  amount */\n      dup2\n        /* \"practise5.1/MyToken.sol\":1229:1238  balanceOf */\n      0x04\n        /* \"practise5.1/MyToken.sol\":1229:1250  balanceOf[msg.sender] */\n      0x00\n        /* \"practise5.1/MyToken.sol\":1239:1249  msg.sender */\n      caller\n        /* \"practise5.1/MyToken.sol\":1229:1250  balanceOf[msg.sender] */\n      0xffffffffffffffffffffffffffffffffffffffff\n      and\n      0xffffffffffffffffffffffffffffffffffffffff\n      and\n      dup2\n      mstore\n      0x20\n      add\n      swap1\n      dup2\n      mstore\n      0x20\n      add\n      0x00\n      keccak256\n      sload\n        /* \"practise5.1/MyToken.sol\":1229:1260  balanceOf[msg.sender] >= amount */\n      lt\n      iszero\n        /* \"practise5.1/MyToken.sol\":1221:1285  require(balanceOf[msg.sender] >= amount ,\"insufficient balance\") */\n      tag_210\n      jumpi\n      mload(0x40)\n      0x08c379a000000000000000000000000000000000000000000000000000000000\n      dup2\n      mstore\n      0x04\n      add\n      tag_211\n      swap1\n      tag_159\n      jump\t// in\n    tag_211:\n      mload(0x40)\n      dup1\n      swap2\n      sub\n      swap1\n      revert\n    tag_210:\n        /* \"practise5.1/MyToken.sol\":1319:1325  amount */\n      dup2\n        /* \"practise5.1/MyToken.sol\":1294:1303  balanceOf */\n      0x04\n        /* \"practise5.1/MyToken.sol\":1294:1315  balanceOf[msg.sender] */\n      0x00\n        /* \"practise5.1/MyToken.sol\":1304:1314  msg.sender */\n      caller\n        /* \"practise5.1/MyToken.sol\":1294:1315  balanceOf[msg.sender] */\n      0xffffffffffffffffffffffffffffffffffffffff\n      and\n      0xffffffffffffffffffffffffffffffffffffffff\n      and\n      dup2\n      mstore\n      0x20\n      add\n      swap1\n      dup2\n      mstore\n      0x20\n      add\n      0x00\n      keccak256\n      0x00\n        /* \"practise5.1/MyToken.sol\":1294:1325  balanceOf[msg.sender] -= amount */\n      dup3\n      dup3\n      sload\n      tag_212\n      swap2\n      swap1\n      tag_125\n      jump\t// in\n    tag_212:\n      swap3\n      pop\n      pop\n      dup2\n      swap1\n      sstore\n      pop\n        /* \"practise5.1/MyToken.sol\":1351:1357  amount */\n      dup2\n        /* \"practise5.1/MyToken.sol\":1334:1343  balanceOf */\n      0x04\n        /* \"practise5.1/MyToken.sol\":1334:1347  balanceOf[to] */\n      0x00\n        /* \"practise5.1/MyToken.sol\":1344:1346  to */\n      dup6\n        /* \"practise5.1/MyToken.sol\":1334:1347  balanceOf[to] */\n      0xffffffffffffffffffffffffffffffffffffffff\n      and\n      0xffffffffffffffffffffffffffffffffffffffff\n      and\n      dup2\n      mstore\n      0x20\n      add\n      swap1\n      dup2\n      mstore\n      0x20\n      add\n      0x00\n      keccak256\n      0x00\n        /* \"practise5.1/MyToken.sol\":1334:1357  balanceOf[to] += amount */\n      dup3\n      dup3\n      sload\n      tag_213\n      swap2\n      swap1\n      tag_127\n      jump\t// in\n    tag_213:\n      swap3\n      pop\n      pop\n      dup2\n      swap1\n      sstore\n      pop\n        /* \"practise5.1/MyToken.sol\":1372:1404  Transfer(msg.sender, to, amount) */\n      0xddf252ad1be2c89b69c2b068fc378daa952ba7f163c4a11628f55a4df523b3ef\n        /* \"practise5.1/MyToken.sol\":1381:1391  msg.sender */\n      caller\n        /* \"practise5.1/MyToken.sol\":1393:1395  to */\n      dup5\n        /* \"practise5.1/MyToken.sol\":1397:1403  amount */\n      dup5\n        /* \"practise5.1/MyToken.sol\":1372:1404  Transfer(msg.sender, to, amount) */\n      mload(0x40)\n      tag_214\n      swap4\n      swap3\n      swap2\n      swap1\n      tag_130\n      jump\t// in\n    tag_214:\n      mload(0x40)\n      dup1\n      swap2\n      sub\n      swap1\n      log1\n        /* \"practise5.1/MyToken.sol\":1421:1425  true */\n      0x01\n        /* \"practise5.1/MyToken.sol\":1413:1425  return  true */\n      swap1\n      pop\n        /* \"practise5.1/MyToken.sol\":1056:1432  function transfer(address to ,uint amount)public  payable whenNotPaused  returns (bool){... */\n      swap3\n      swap2\n      pop\n      pop\n      jump\t// out\n        /* \"practise5.1/MyToken.sol\":269:333  mapping(address => mapping(address => uint256)) public allowance */\n    tag_99:\n      mstore(0x20, 0x05)\n      dup2\n      0x00\n      mstore\n      mstore(0x20, keccak256(0x00, 0x40))\n      dup1\n      0x00\n      mstore\n      keccak256(0x00, 0x40)\n      0x00\n      swap2\n      pop\n      swap2\n      pop\n      pop\n      sload\n      dup2\n      jump\t// out\n        /* \"#utility.yul\":7:106   */\n    tag_215:\n        /* \"#utility.yul\":59:65   */\n      0x00\n        /* \"#utility.yul\":93:98   */\n      dup2\n        /* \"#utility.yul\":87:99   */\n      mload\n        /* \"#utility.yul\":77:99   */\n      swap1\n      pop\n        /* \"#utility.yul\":7:106   */\n      swap2\n      swap1\n      pop\n      jump\t// out\n        /* \"#utility.yul\":112:281   */\n    tag_216:\n        /* \"#utility.yul\":196:207   */\n      0x00\n        /* \"#utility.yul\":230:236   */\n      dup3\n        /* \"#utility.yul\":225:228   */\n      dup3\n        /* \"#utility.yul\":218:237   */\n      mstore\n        /* \"#utility.yul\":270:274   */\n      0x20\n        /* \"#utility.yul\":265:268   */\n      dup3\n        /* \"#utility.yul\":261:275   */\n      add\n        /* \"#utility.yul\":246:275   */\n      swap1\n      pop\n        /* \"#utility.yul\":112:281   */\n      swap3\n      swap2\n      pop\n      pop\n      jump\t// out\n        /* \"#utility.yul\":287:533   */\n    tag_217:\n        /* \"#utility.yul\":368:369   */\n      0x00\n        /* \"#utility.yul\":378:491   */\n    tag_281:\n        /* \"#utility.yul\":392:398   */\n      dup4\n        /* \"#utility.yul\":389:390   */\n      dup2\n        /* \"#utility.yul\":386:399   */\n      lt\n        /* \"#utility.yul\":378:491   */\n      iszero\n      tag_283\n      jumpi\n        /* \"#utility.yul\":477:478   */\n      dup1\n        /* \"#utility.yul\":472:475   */\n      dup3\n        /* \"#utility.yul\":468:479   */\n      add\n        /* \"#utility.yul\":462:480   */\n      mload\n        /* \"#utility.yul\":458:459   */\n      dup2\n        /* \"#utility.yul\":453:456   */\n      dup5\n        /* \"#utility.yul\":449:460   */\n      add\n        /* \"#utility.yul\":442:481   */\n      mstore\n        /* \"#utility.yul\":414:416   */\n      0x20\n        /* \"#utility.yul\":411:412   */\n      dup2\n        /* \"#utility.yul\":407:417   */\n      add\n        /* \"#utility.yul\":402:417   */\n      swap1\n      pop\n        /* \"#utility.yul\":378:491   */\n      jump(tag_281)\n    tag_283:\n        /* \"#utility.yul\":525:526   */\n      0x00\n        /* \"#utility.yul\":516:522   */\n      dup5\n        /* \"#utility.yul\":511:514   */\n      dup5\n        /* \"#utility.yul\":507:523   */\n      add\n        /* \"#utility.yul\":500:527   */\n      mstore\n        /* \"#utility.yul\":349:533   */\n      pop\n        /* \"#utility.yul\":287:533   */\n      pop\n      pop\n      pop\n      jump\t// out\n        /* \"#utility.yul\":539:641   */\n    tag_218:\n        /* \"#utility.yul\":580:586   */\n      0x00\n        /* \"#utility.yul\":631:633   */\n      0x1f\n        /* \"#utility.yul\":627:634   */\n      not\n        /* \"#utility.yul\":622:624   */\n      0x1f\n        /* \"#utility.yul\":615:620   */\n      dup4\n        /* \"#utility.yul\":611:625   */\n      add\n        /* \"#utility.yul\":607:635   */\n      and\n        /* \"#utility.yul\":597:635   */\n      swap1\n      pop\n        /* \"#utility.yul\":539:641   */\n      swap2\n      swap1\n      pop\n      jump\t// out\n        /* \"#utility.yul\":647:1024   */\n    tag_219:\n        /* \"#utility.yul\":735:738   */\n      0x00\n        /* \"#utility.yul\":763:802   */\n      tag_286\n        /* \"#utility.yul\":796:801   */\n      dup3\n        /* \"#utility.yul\":763:802   */\n      tag_215\n      jump\t// in\n    tag_286:\n        /* \"#utility.yul\":818:889   */\n      tag_287\n        /* \"#utility.yul\":882:888   */\n      dup2\n        /* \"#utility.yul\":877:880   */\n      dup6\n        /* \"#utility.yul\":818:889   */\n      tag_216\n      jump\t// in\n    tag_287:\n        /* \"#utility.yul\":811:889   */\n      swap4\n      pop\n        /* \"#utility.yul\":898:963   */\n      tag_288\n        /* \"#utility.yul\":956:962   */\n      dup2\n        /* \"#utility.yul\":951:954   */\n      dup6\n        /* \"#utility.yul\":944:948   */\n      0x20\n        /* \"#utility.yul\":937:942   */\n      dup7\n        /* \"#utility.yul\":933:949   */\n      add\n        /* \"#utility.yul\":898:963   */\n      tag_217\n      jump\t// in\n    tag_288:\n        /* \"#utility.yul\":988:1017   */\n      tag_289\n        /* \"#utility.yul\":1010:1016   */\n      dup2\n        /* \"#utility.yul\":988:1017   */\n      tag_218\n      jump\t// in\n    tag_289:\n        /* \"#utility.yul\":983:986   */\n      dup5\n        /* \"#utility.yul\":979:1018   */\n      add\n        /* \"#utility.yul\":972:1018   */\n      swap2\n      pop\n        /* \"#utility.yul\":739:1024   */\n      pop\n        /* \"#utility.yul\":647:1024   */\n      swap3\n      swap2\n      pop\n      pop\n      jump\t// out\n        /* \"#utility.yul\":1030:1343   */\n    tag_25:\n        /* \"#utility.yul\":1143:1147   */\n      0x00\n        /* \"#utility.yul\":1181:1183   */\n      0x20\n        /* \"#utility.yul\":1170:1179   */\n      dup3\n        /* \"#utility.yul\":1166:1184   */\n      add\n        /* \"#utility.yul\":1158:1184   */\n      swap1\n      pop\n        /* \"#utility.yul\":1230:1239   */\n      dup2\n        /* \"#utility.yul\":1224:1228   */\n      dup2\n        /* \"#utility.yul\":1220:1240   */\n      sub\n        /* \"#utility.yul\":1216:1217   */\n      0x00\n        /* \"#utility.yul\":1205:1214   */\n      dup4\n        /* \"#utility.yul\":1201:1218   */\n      add\n        /* \"#utility.yul\":1194:1241   */\n      mstore\n        /* \"#utility.yul\":1258:1336   */\n      tag_291\n        /* \"#utility.yul\":1331:1335   */\n      dup2\n        /* \"#utility.yul\":1322:1328   */\n      dup5\n        /* \"#utility.yul\":1258:1336   */\n      tag_219\n      jump\t// in\n    tag_291:\n        /* \"#utility.yul\":1250:1336   */\n      swap1\n      pop\n        /* \"#utility.yul\":1030:1343   */\n      swap3\n      swap2\n      pop\n      pop\n      jump\t// out\n        /* \"#utility.yul\":1349:1426   */\n    tag_220:\n        /* \"#utility.yul\":1386:1393   */\n      0x00\n        /* \"#utility.yul\":1415:1420   */\n      dup2\n        /* \"#utility.yul\":1404:1420   */\n      swap1\n      pop\n        /* \"#utility.yul\":1349:1426   */\n      swap2\n      swap1\n      pop\n      jump\t// out\n        /* \"#utility.yul\":1432:1550   */\n    tag_221:\n        /* \"#utility.yul\":1519:1543   */\n      tag_294\n        /* \"#utility.yul\":1537:1542   */\n      dup2\n        /* \"#utility.yul\":1519:1543   */\n      tag_220\n      jump\t// in\n    tag_294:\n        /* \"#utility.yul\":1514:1517   */\n      dup3\n        /* \"#utility.yul\":1507:1544   */\n      mstore\n        /* \"#utility.yul\":1432:1550   */\n      pop\n      pop\n      jump\t// out\n        /* \"#utility.yul\":1556:1778   */\n    tag_30:\n        /* \"#utility.yul\":1649:1653   */\n      0x00\n        /* \"#utility.yul\":1687:1689   */\n      0x20\n        /* \"#utility.yul\":1676:1685   */\n      dup3\n        /* \"#utility.yul\":1672:1690   */\n      add\n        /* \"#utility.yul\":1664:1690   */\n      swap1\n      pop\n        /* \"#utility.yul\":1700:1771   */\n      tag_296\n        /* \"#utility.yul\":1768:1769   */\n      0x00\n        /* \"#utility.yul\":1757:1766   */\n      dup4\n        /* \"#utility.yul\":1753:1770   */\n      add\n        /* \"#utility.yul\":1744:1750   */\n      dup5\n        /* \"#utility.yul\":1700:1771   */\n      tag_221\n      jump\t// in\n    tag_296:\n        /* \"#utility.yul\":1556:1778   */\n      swap3\n      swap2\n      pop\n      pop\n      jump\t// out\n        /* \"#utility.yul\":1784:1859   */\n    tag_222:\n        /* \"#utility.yul\":1817:1823   */\n      0x00\n        /* \"#utility.yul\":1850:1852   */\n      0x40\n        /* \"#utility.yul\":1844:1853   */\n      mload\n        /* \"#utility.yul\":1834:1853   */\n      swap1\n      pop\n        /* \"#utility.yul\":1784:1859   */\n      swap1\n      jump\t// out\n        /* \"#utility.yul\":1865:1982   */\n    tag_223:\n        /* \"#utility.yul\":1974:1975   */\n      0x00\n        /* \"#utility.yul\":1971:1972   */\n      dup1\n        /* \"#utility.yul\":1964:1976   */\n      revert\n        /* \"#utility.yul\":1988:2105   */\n    tag_224:\n        /* \"#utility.yul\":2097:2098   */\n      0x00\n        /* \"#utility.yul\":2094:2095   */\n      dup1\n        /* \"#utility.yul\":2087:2099   */\n      revert\n        /* \"#utility.yul\":2111:2237   */\n    tag_225:\n        /* \"#utility.yul\":2148:2155   */\n      0x00\n        /* \"#utility.yul\":2188:2230   */\n      0xffffffffffffffffffffffffffffffffffffffff\n        /* \"#utility.yul\":2181:2186   */\n      dup3\n        /* \"#utility.yul\":2177:2231   */\n      and\n        /* \"#utility.yul\":2166:2231   */\n      swap1\n      pop\n        /* \"#utility.yul\":2111:2237   */\n      swap2\n      swap1\n      pop\n      jump\t// out\n        /* \"#utility.yul\":2243:2339   */\n    tag_226:\n        /* \"#utility.yul\":2280:2287   */\n      0x00\n        /* \"#utility.yul\":2309:2333   */\n      tag_302\n        /* \"#utility.yul\":2327:2332   */\n      dup3\n        /* \"#utility.yul\":2309:2333   */\n      tag_225\n      jump\t// in\n    tag_302:\n        /* \"#utility.yul\":2298:2333   */\n      swap1\n      pop\n        /* \"#utility.yul\":2243:2339   */\n      swap2\n      swap1\n      pop\n      jump\t// out\n        /* \"#utility.yul\":2345:2467   */\n    tag_227:\n        /* \"#utility.yul\":2418:2442   */\n      tag_304\n        /* \"#utility.yul\":2436:2441   */\n      dup2\n        /* \"#utility.yul\":2418:2442   */\n      tag_226\n      jump\t// in\n    tag_304:\n        /* \"#utility.yul\":2411:2416   */\n      dup2\n        /* \"#utility.yul\":2408:2443   */\n      eq\n        /* \"#utility.yul\":2398:2461   */\n      tag_305\n      jumpi\n        /* \"#utility.yul\":2457:2458   */\n      0x00\n        /* \"#utility.yul\":2454:2455   */\n      dup1\n        /* \"#utility.yul\":2447:2459   */\n      revert\n        /* \"#utility.yul\":2398:2461   */\n    tag_305:\n        /* \"#utility.yul\":2345:2467   */\n      pop\n      jump\t// out\n        /* \"#utility.yul\":2473:2612   */\n    tag_228:\n        /* \"#utility.yul\":2519:2524   */\n      0x00\n        /* \"#utility.yul\":2557:2563   */\n      dup2\n        /* \"#utility.yul\":2544:2564   */\n      calldataload\n        /* \"#utility.yul\":2535:2564   */\n      swap1\n      pop\n        /* \"#utility.yul\":2573:2606   */\n      tag_307\n        /* \"#utility.yul\":2600:2605   */\n      dup2\n        /* \"#utility.yul\":2573:2606   */\n      tag_227\n      jump\t// in\n    tag_307:\n        /* \"#utility.yul\":2473:2612   */\n      swap3\n      swap2\n      pop\n      pop\n      jump\t// out\n        /* \"#utility.yul\":2618:2740   */\n    tag_229:\n        /* \"#utility.yul\":2691:2715   */\n      tag_309\n        /* \"#utility.yul\":2709:2714   */\n      dup2\n        /* \"#utility.yul\":2691:2715   */\n      tag_220\n      jump\t// in\n    tag_309:\n        /* \"#utility.yul\":2684:2689   */\n      dup2\n        /* \"#utility.yul\":2681:2716   */\n      eq\n        /* \"#utility.yul\":2671:2734   */\n      tag_310\n      jumpi\n        /* \"#utility.yul\":2730:2731   */\n      0x00\n        /* \"#utility.yul\":2727:2728   */\n      dup1\n        /* \"#utility.yul\":2720:2732   */\n      revert\n        /* \"#utility.yul\":2671:2734   */\n    tag_310:\n        /* \"#utility.yul\":2618:2740   */\n      pop\n      jump\t// out\n        /* \"#utility.yul\":2746:2885   */\n    tag_230:\n        /* \"#utility.yul\":2792:2797   */\n      0x00\n        /* \"#utility.yul\":2830:2836   */\n      dup2\n        /* \"#utility.yul\":2817:2837   */\n      calldataload\n        /* \"#utility.yul\":2808:2837   */\n      swap1\n      pop\n        /* \"#utility.yul\":2846:2879   */\n      tag_312\n        /* \"#utility.yul\":2873:2878   */\n      dup2\n        /* \"#utility.yul\":2846:2879   */\n      tag_229\n      jump\t// in\n    tag_312:\n        /* \"#utility.yul\":2746:2885   */\n      swap3\n      swap2\n      pop\n      pop\n      jump\t// out\n        /* \"#utility.yul\":2891:3510   */\n    tag_34:\n        /* \"#utility.yul\":2968:2974   */\n      0x00\n        /* \"#utility.yul\":2976:2982   */\n      dup1\n        /* \"#utility.yul\":2984:2990   */\n      0x00\n        /* \"#utility.yul\":3033:3035   */\n      0x60\n        /* \"#utility.yul\":3021:3030   */\n      dup5\n        /* \"#utility.yul\":3012:3019   */\n      dup7\n        /* \"#utility.yul\":3008:3031   */\n      sub\n        /* \"#utility.yul\":3004:3036   */\n      slt\n        /* \"#utility.yul\":3001:3120   */\n      iszero\n      tag_314\n      jumpi\n        /* \"#utility.yul\":3039:3118   */\n      tag_315\n      tag_223\n      jump\t// in\n    tag_315:\n        /* \"#utility.yul\":3001:3120   */\n    tag_314:\n        /* \"#utility.yul\":3159:3160   */\n      0x00\n        /* \"#utility.yul\":3184:3237   */\n      tag_316\n        /* \"#utility.yul\":3229:3236   */\n      dup7\n        /* \"#utility.yul\":3220:3226   */\n      dup3\n        /* \"#utility.yul\":3209:3218   */\n      dup8\n        /* \"#utility.yul\":3205:3227   */\n      add\n        /* \"#utility.yul\":3184:3237   */\n      tag_228\n      jump\t// in\n    tag_316:\n        /* \"#utility.yul\":3174:3237   */\n      swap4\n      pop\n        /* \"#utility.yul\":3130:3247   */\n      pop\n        /* \"#utility.yul\":3286:3288   */\n      0x20\n        /* \"#utility.yul\":3312:3365   */\n      tag_317\n        /* \"#utility.yul\":3357:3364   */\n      dup7\n        /* \"#utility.yul\":3348:3354   */\n      dup3\n        /* \"#utility.yul\":3337:3346   */\n      dup8\n        /* \"#utility.yul\":3333:3355   */\n      add\n        /* \"#utility.yul\":3312:3365   */\n      tag_228\n      jump\t// in\n    tag_317:\n        /* \"#utility.yul\":3302:3365   */\n      swap3\n      pop\n        /* \"#utility.yul\":3257:3375   */\n      pop\n        /* \"#utility.yul\":3414:3416   */\n      0x40\n        /* \"#utility.yul\":3440:3493   */\n      tag_318\n        /* \"#utility.yul\":3485:3492   */\n      dup7\n        /* \"#utility.yul\":3476:3482   */\n      dup3\n        /* \"#utility.yul\":3465:3474   */\n      dup8\n        /* \"#utility.yul\":3461:3483   */\n      add\n        /* \"#utility.yul\":3440:3493   */\n      tag_230\n      jump\t// in\n    tag_318:\n        /* \"#utility.yul\":3430:3493   */\n      swap2\n      pop\n        /* \"#utility.yul\":3385:3503   */\n      pop\n        /* \"#utility.yul\":2891:3510   */\n      swap3\n      pop\n      swap3\n      pop\n      swap3\n      jump\t// out\n        /* \"#utility.yul\":3516:3606   */\n    tag_231:\n        /* \"#utility.yul\":3550:3557   */\n      0x00\n        /* \"#utility.yul\":3593:3598   */\n      dup2\n        /* \"#utility.yul\":3586:3599   */\n      iszero\n        /* \"#utility.yul\":3579:3600   */\n      iszero\n        /* \"#utility.yul\":3568:3600   */\n      swap1\n      pop\n        /* \"#utility.yul\":3516:3606   */\n      swap2\n      swap1\n      pop\n      jump\t// out\n        /* \"#utility.yul\":3612:3721   */\n    tag_232:\n        /* \"#utility.yul\":3693:3714   */\n      tag_321\n        /* \"#utility.yul\":3708:3713   */\n      dup2\n        /* \"#utility.yul\":3693:3714   */\n      tag_231\n      jump\t// in\n    tag_321:\n        /* \"#utility.yul\":3688:3691   */\n      dup3\n        /* \"#utility.yul\":3681:3715   */\n      mstore\n        /* \"#utility.yul\":3612:3721   */\n      pop\n      pop\n      jump\t// out\n        /* \"#utility.yul\":3727:3937   */\n    tag_37:\n        /* \"#utility.yul\":3814:3818   */\n      0x00\n        /* \"#utility.yul\":3852:3854   */\n      0x20\n        /* \"#utility.yul\":3841:3850   */\n      dup3\n        /* \"#utility.yul\":3837:3855   */\n      add\n        /* \"#utility.yul\":3829:3855   */\n      swap1\n      pop\n        /* \"#utility.yul\":3865:3930   */\n      tag_323\n        /* \"#utility.yul\":3927:3928   */\n      0x00\n        /* \"#utility.yul\":3916:3925   */\n      dup4\n        /* \"#utility.yul\":3912:3929   */\n      add\n        /* \"#utility.yul\":3903:3909   */\n      dup5\n        /* \"#utility.yul\":3865:3930   */\n      tag_232\n      jump\t// in\n    tag_323:\n        /* \"#utility.yul\":3727:3937   */\n      swap3\n      swap2\n      pop\n      pop\n      jump\t// out\n        /* \"#utility.yul\":3943:4029   */\n    tag_233:\n        /* \"#utility.yul\":3978:3985   */\n      0x00\n        /* \"#utility.yul\":4018:4022   */\n      0xff\n        /* \"#utility.yul\":4011:4016   */\n      dup3\n        /* \"#utility.yul\":4007:4023   */\n      and\n        /* \"#utility.yul\":3996:4023   */\n      swap1\n      pop\n        /* \"#utility.yul\":3943:4029   */\n      swap2\n      swap1\n      pop\n      jump\t// out\n        /* \"#utility.yul\":4035:4147   */\n    tag_234:\n        /* \"#utility.yul\":4118:4140   */\n      tag_326\n        /* \"#utility.yul\":4134:4139   */\n      dup2\n        /* \"#utility.yul\":4118:4140   */\n      tag_233\n      jump\t// in\n    tag_326:\n        /* \"#utility.yul\":4113:4116   */\n      dup3\n        /* \"#utility.yul\":4106:4141   */\n      mstore\n        /* \"#utility.yul\":4035:4147   */\n      pop\n      pop\n      jump\t// out\n        /* \"#utility.yul\":4153:4367   */\n    tag_42:\n        /* \"#utility.yul\":4242:4246   */\n      0x00\n        /* \"#utility.yul\":4280:4282   */\n      0x20\n        /* \"#utility.yul\":4269:4278   */\n      dup3\n        /* \"#utility.yul\":4265:4283   */\n      add\n        /* \"#utility.yul\":4257:4283   */\n      swap1\n      pop\n        /* \"#utility.yul\":4293:4360   */\n      tag_328\n        /* \"#utility.yul\":4357:4358   */\n      0x00\n        /* \"#utility.yul\":4346:4355   */\n      dup4\n        /* \"#utility.yul\":4342:4359   */\n      add\n        /* \"#utility.yul\":4333:4339   */\n      dup5\n        /* \"#utility.yul\":4293:4360   */\n      tag_234\n      jump\t// in\n    tag_328:\n        /* \"#utility.yul\":4153:4367   */\n      swap3\n      swap2\n      pop\n      pop\n      jump\t// out\n        /* \"#utility.yul\":4373:4847   */\n    tag_49:\n        /* \"#utility.yul\":4441:4447   */\n      0x00\n        /* \"#utility.yul\":4449:4455   */\n      dup1\n        /* \"#utility.yul\":4498:4500   */\n      0x40\n        /* \"#utility.yul\":4486:4495   */\n      dup4\n        /* \"#utility.yul\":4477:4484   */\n      dup6\n        /* \"#utility.yul\":4473:4496   */\n      sub\n        /* \"#utility.yul\":4469:4501   */\n      slt\n        /* \"#utility.yul\":4466:4585   */\n      iszero\n      tag_330\n      jumpi\n        /* \"#utility.yul\":4504:4583   */\n      tag_331\n      tag_223\n      jump\t// in\n    tag_331:\n        /* \"#utility.yul\":4466:4585   */\n    tag_330:\n        /* \"#utility.yul\":4624:4625   */\n      0x00\n        /* \"#utility.yul\":4649:4702   */\n      tag_332\n        /* \"#utility.yul\":4694:4701   */\n      dup6\n        /* \"#utility.yul\":4685:4691   */\n      dup3\n        /* \"#utility.yul\":4674:4683   */\n      dup7\n        /* \"#utility.yul\":4670:4692   */\n      add\n        /* \"#utility.yul\":4649:4702   */\n      tag_228\n      jump\t// in\n    tag_332:\n        /* \"#utility.yul\":4639:4702   */\n      swap3\n      pop\n        /* \"#utility.yul\":4595:4712   */\n      pop\n        /* \"#utility.yul\":4751:4753   */\n      0x20\n        /* \"#utility.yul\":4777:4830   */\n      tag_333\n        /* \"#utility.yul\":4822:4829   */\n      dup6\n        /* \"#utility.yul\":4813:4819   */\n      dup3\n        /* \"#utility.yul\":4802:4811   */\n      dup7\n        /* \"#utility.yul\":4798:4820   */\n      add\n        /* \"#utility.yul\":4777:4830   */\n      tag_230\n      jump\t// in\n    tag_333:\n        /* \"#utility.yul\":4767:4830   */\n      swap2\n      pop\n        /* \"#utility.yul\":4722:4840   */\n      pop\n        /* \"#utility.yul\":4373:4847   */\n      swap3\n      pop\n      swap3\n      swap1\n      pop\n      jump\t// out\n        /* \"#utility.yul\":4853:5182   */\n    tag_55:\n        /* \"#utility.yul\":4912:4918   */\n      0x00\n        /* \"#utility.yul\":4961:4963   */\n      0x20\n        /* \"#utility.yul\":4949:4958   */\n      dup3\n        /* \"#utility.yul\":4940:4947   */\n      dup5\n        /* \"#utility.yul\":4936:4959   */\n      sub\n        /* \"#utility.yul\":4932:4964   */\n      slt\n        /* \"#utility.yul\":4929:5048   */\n      iszero\n      tag_335\n      jumpi\n        /* \"#utility.yul\":4967:5046   */\n      tag_336\n      tag_223\n      jump\t// in\n    tag_336:\n        /* \"#utility.yul\":4929:5048   */\n    tag_335:\n        /* \"#utility.yul\":5087:5088   */\n      0x00\n        /* \"#utility.yul\":5112:5165   */\n      tag_337\n        /* \"#utility.yul\":5157:5164   */\n      dup5\n        /* \"#utility.yul\":5148:5154   */\n      dup3\n        /* \"#utility.yul\":5137:5146   */\n      dup6\n        /* \"#utility.yul\":5133:5155   */\n      add\n        /* \"#utility.yul\":5112:5165   */\n      tag_230\n      jump\t// in\n    tag_337:\n        /* \"#utility.yul\":5102:5165   */\n      swap2\n      pop\n        /* \"#utility.yul\":5058:5175   */\n      pop\n        /* \"#utility.yul\":4853:5182   */\n      swap3\n      swap2\n      pop\n      pop\n      jump\t// out\n        /* \"#utility.yul\":5188:5517   */\n    tag_65:\n        /* \"#utility.yul\":5247:5253   */\n      0x00\n        /* \"#utility.yul\":5296:5298   */\n      0x20\n        /* \"#utility.yul\":5284:5293   */\n      dup3\n        /* \"#utility.yul\":5275:5282   */\n      dup5\n        /* \"#utility.yul\":5271:5294   */\n      sub\n        /* \"#utility.yul\":5267:5299   */\n      slt\n        /* \"#utility.yul\":5264:5383   */\n      iszero\n      tag_339\n      jumpi\n        /* \"#utility.yul\":5302:5381   */\n      tag_340\n      tag_223\n      jump\t// in\n    tag_340:\n        /* \"#utility.yul\":5264:5383   */\n    tag_339:\n        /* \"#utility.yul\":5422:5423   */\n      0x00\n        /* \"#utility.yul\":5447:5500   */\n      tag_341\n        /* \"#utility.yul\":5492:5499   */\n      dup5\n        /* \"#utility.yul\":5483:5489   */\n      dup3\n        /* \"#utility.yul\":5472:5481   */\n      dup6\n        /* \"#utility.yul\":5468:5490   */\n      add\n        /* \"#utility.yul\":5447:5500   */\n      tag_228\n      jump\t// in\n    tag_341:\n        /* \"#utility.yul\":5437:5500   */\n      swap2\n      pop\n        /* \"#utility.yul\":5393:5510   */\n      pop\n        /* \"#utility.yul\":5188:5517   */\n      swap3\n      swap2\n      pop\n      pop\n      jump\t// out\n        /* \"#utility.yul\":5523:5640   */\n    tag_235:\n        /* \"#utility.yul\":5632:5633   */\n      0x00\n        /* \"#utility.yul\":5629:5630   */\n      dup1\n        /* \"#utility.yul\":5622:5634   */\n      revert\n        /* \"#utility.yul\":5646:5826   */\n    tag_236:\n        /* \"#utility.yul\":5694:5771   */\n      0x4e487b7100000000000000000000000000000000000000000000000000000000\n        /* \"#utility.yul\":5691:5692   */\n      0x00\n        /* \"#utility.yul\":5684:5772   */\n      mstore\n        /* \"#utility.yul\":5791:5795   */\n      0x41\n        /* \"#utility.yul\":5788:5789   */\n      0x04\n        /* \"#utility.yul\":5781:5796   */\n      mstore\n        /* \"#utility.yul\":5815:5819   */\n      0x24\n        /* \"#utility.yul\":5812:5813   */\n      0x00\n        /* \"#utility.yul\":5805:5820   */\n      revert\n        /* \"#utility.yul\":5832:6113   */\n    tag_237:\n        /* \"#utility.yul\":5915:5942   */\n      tag_345\n        /* \"#utility.yul\":5937:5941   */\n      dup3\n        /* \"#utility.yul\":5915:5942   */\n      tag_218\n      jump\t// in\n    tag_345:\n        /* \"#utility.yul\":5907:5913   */\n      dup2\n        /* \"#utility.yul\":5903:5943   */\n      add\n        /* \"#utility.yul\":6045:6051   */\n      dup2\n        /* \"#utility.yul\":6033:6043   */\n      dup2\n        /* \"#utility.yul\":6030:6052   */\n      lt\n        /* \"#utility.yul\":6009:6027   */\n      0xffffffffffffffff\n        /* \"#utility.yul\":5997:6007   */\n      dup3\n        /* \"#utility.yul\":5994:6028   */\n      gt\n        /* \"#utility.yul\":5991:6053   */\n      or\n        /* \"#utility.yul\":5988:6076   */\n      iszero\n      tag_346\n      jumpi\n        /* \"#utility.yul\":6056:6074   */\n      tag_347\n      tag_236\n      jump\t// in\n    tag_347:\n        /* \"#utility.yul\":5988:6076   */\n    tag_346:\n        /* \"#utility.yul\":6096:6106   */\n      dup1\n        /* \"#utility.yul\":6092:6094   */\n      0x40\n        /* \"#utility.yul\":6085:6107   */\n      mstore\n        /* \"#utility.yul\":5875:6113   */\n      pop\n        /* \"#utility.yul\":5832:6113   */\n      pop\n      pop\n      jump\t// out\n        /* \"#utility.yul\":6119:6248   */\n    tag_238:\n        /* \"#utility.yul\":6153:6159   */\n      0x00\n        /* \"#utility.yul\":6180:6200   */\n      tag_349\n      tag_222\n      jump\t// in\n    tag_349:\n        /* \"#utility.yul\":6170:6200   */\n      swap1\n      pop\n        /* \"#utility.yul\":6209:6242   */\n      tag_350\n        /* \"#utility.yul\":6237:6241   */\n      dup3\n        /* \"#utility.yul\":6229:6235   */\n      dup3\n        /* \"#utility.yul\":6209:6242   */\n      tag_237\n      jump\t// in\n    tag_350:\n        /* \"#utility.yul\":6119:6248   */\n      swap2\n      swap1\n      pop\n      jump\t// out\n        /* \"#utility.yul\":6254:6565   */\n    tag_239:\n        /* \"#utility.yul\":6331:6335   */\n      0x00\n        /* \"#utility.yul\":6421:6439   */\n      0xffffffffffffffff\n        /* \"#utility.yul\":6413:6419   */\n      dup3\n        /* \"#utility.yul\":6410:6440   */\n      gt\n        /* \"#utility.yul\":6407:6463   */\n      iszero\n      tag_352\n      jumpi\n        /* \"#utility.yul\":6443:6461   */\n      tag_353\n      tag_236\n      jump\t// in\n    tag_353:\n        /* \"#utility.yul\":6407:6463   */\n    tag_352:\n        /* \"#utility.yul\":6493:6497   */\n      0x20\n        /* \"#utility.yul\":6485:6491   */\n      dup3\n        /* \"#utility.yul\":6481:6498   */\n      mul\n        /* \"#utility.yul\":6473:6498   */\n      swap1\n      pop\n        /* \"#utility.yul\":6553:6557   */\n      0x20\n        /* \"#utility.yul\":6547:6551   */\n      dup2\n        /* \"#utility.yul\":6543:6558   */\n      add\n        /* \"#utility.yul\":6535:6558   */\n      swap1\n      pop\n        /* \"#utility.yul\":6254:6565   */\n      swap2\n      swap1\n      pop\n      jump\t// out\n        /* \"#utility.yul\":6571:6688   */\n    tag_240:\n        /* \"#utility.yul\":6680:6681   */\n      0x00\n        /* \"#utility.yul\":6677:6678   */\n      dup1\n        /* \"#utility.yul\":6670:6682   */\n      revert\n        /* \"#utility.yul\":6711:7421   */\n    tag_241:\n        /* \"#utility.yul\":6807:6812   */\n      0x00\n        /* \"#utility.yul\":6832:6913   */\n      tag_356\n        /* \"#utility.yul\":6848:6912   */\n      tag_357\n        /* \"#utility.yul\":6905:6911   */\n      dup5\n        /* \"#utility.yul\":6848:6912   */\n      tag_239\n      jump\t// in\n    tag_357:\n        /* \"#utility.yul\":6832:6913   */\n      tag_238\n      jump\t// in\n    tag_356:\n        /* \"#utility.yul\":6823:6913   */\n      swap1\n      pop\n        /* \"#utility.yul\":6933:6938   */\n      dup1\n        /* \"#utility.yul\":6962:6968   */\n      dup4\n        /* \"#utility.yul\":6955:6960   */\n      dup3\n        /* \"#utility.yul\":6948:6969   */\n      mstore\n        /* \"#utility.yul\":6996:7000   */\n      0x20\n        /* \"#utility.yul\":6989:6994   */\n      dup3\n        /* \"#utility.yul\":6985:7001   */\n      add\n        /* \"#utility.yul\":6978:7001   */\n      swap1\n      pop\n        /* \"#utility.yul\":7049:7053   */\n      0x20\n        /* \"#utility.yul\":7041:7047   */\n      dup5\n        /* \"#utility.yul\":7037:7054   */\n      mul\n        /* \"#utility.yul\":7029:7035   */\n      dup4\n        /* \"#utility.yul\":7025:7055   */\n      add\n        /* \"#utility.yul\":7078:7081   */\n      dup6\n        /* \"#utility.yul\":7070:7076   */\n      dup2\n        /* \"#utility.yul\":7067:7082   */\n      gt\n        /* \"#utility.yul\":7064:7186   */\n      iszero\n      tag_358\n      jumpi\n        /* \"#utility.yul\":7097:7176   */\n      tag_359\n      tag_240\n      jump\t// in\n    tag_359:\n        /* \"#utility.yul\":7064:7186   */\n    tag_358:\n        /* \"#utility.yul\":7212:7218   */\n      dup4\n        /* \"#utility.yul\":7195:7415   */\n    tag_360:\n        /* \"#utility.yul\":7229:7235   */\n      dup2\n        /* \"#utility.yul\":7224:7227   */\n      dup2\n        /* \"#utility.yul\":7221:7236   */\n      lt\n        /* \"#utility.yul\":7195:7415   */\n      iszero\n      tag_362\n      jumpi\n        /* \"#utility.yul\":7304:7307   */\n      dup1\n        /* \"#utility.yul\":7333:7370   */\n      tag_363\n        /* \"#utility.yul\":7366:7369   */\n      dup9\n        /* \"#utility.yul\":7354:7364   */\n      dup3\n        /* \"#utility.yul\":7333:7370   */\n      tag_228\n      jump\t// in\n    tag_363:\n        /* \"#utility.yul\":7328:7331   */\n      dup5\n        /* \"#utility.yul\":7321:7371   */\n      mstore\n        /* \"#utility.yul\":7400:7404   */\n      0x20\n        /* \"#utility.yul\":7395:7398   */\n      dup5\n        /* \"#utility.yul\":7391:7405   */\n      add\n        /* \"#utility.yul\":7384:7405   */\n      swap4\n      pop\n        /* \"#utility.yul\":7271:7415   */\n      pop\n        /* \"#utility.yul\":7255:7259   */\n      0x20\n        /* \"#utility.yul\":7250:7253   */\n      dup2\n        /* \"#utility.yul\":7246:7260   */\n      add\n        /* \"#utility.yul\":7239:7260   */\n      swap1\n      pop\n        /* \"#utility.yul\":7195:7415   */\n      jump(tag_360)\n    tag_362:\n        /* \"#utility.yul\":7199:7220   */\n      pop\n        /* \"#utility.yul\":6813:7421   */\n      pop\n      pop\n        /* \"#utility.yul\":6711:7421   */\n      swap4\n      swap3\n      pop\n      pop\n      pop\n      jump\t// out\n        /* \"#utility.yul\":7444:7814   */\n    tag_242:\n        /* \"#utility.yul\":7515:7520   */\n      0x00\n        /* \"#utility.yul\":7564:7567   */\n      dup3\n        /* \"#utility.yul\":7557:7561   */\n      0x1f\n        /* \"#utility.yul\":7549:7555   */\n      dup4\n        /* \"#utility.yul\":7545:7562   */\n      add\n        /* \"#utility.yul\":7541:7568   */\n      slt\n        /* \"#utility.yul\":7531:7653   */\n      tag_365\n      jumpi\n        /* \"#utility.yul\":7572:7651   */\n      tag_366\n      tag_235\n      jump\t// in\n    tag_366:\n        /* \"#utility.yul\":7531:7653   */\n    tag_365:\n        /* \"#utility.yul\":7689:7695   */\n      dup2\n        /* \"#utility.yul\":7676:7696   */\n      calldataload\n        /* \"#utility.yul\":7714:7808   */\n      tag_367\n        /* \"#utility.yul\":7804:7807   */\n      dup5\n        /* \"#utility.yul\":7796:7802   */\n      dup3\n        /* \"#utility.yul\":7789:7793   */\n      0x20\n        /* \"#utility.yul\":7781:7787   */\n      dup7\n        /* \"#utility.yul\":7777:7794   */\n      add\n        /* \"#utility.yul\":7714:7808   */\n      tag_241\n      jump\t// in\n    tag_367:\n        /* \"#utility.yul\":7705:7808   */\n      swap2\n      pop\n        /* \"#utility.yul\":7521:7814   */\n      pop\n        /* \"#utility.yul\":7444:7814   */\n      swap3\n      swap2\n      pop\n      pop\n      jump\t// out\n        /* \"#utility.yul\":7820:8131   */\n    tag_243:\n        /* \"#utility.yul\":7897:7901   */\n      0x00\n        /* \"#utility.yul\":7987:8005   */\n      0xffffffffffffffff\n        /* \"#utility.yul\":7979:7985   */\n      dup3\n        /* \"#utility.yul\":7976:8006   */\n      gt\n        /* \"#utility.yul\":7973:8029   */\n      iszero\n      tag_369\n      jumpi\n        /* \"#utility.yul\":8009:8027   */\n      tag_370\n      tag_236\n      jump\t// in\n    tag_370:\n        /* \"#utility.yul\":7973:8029   */\n    tag_369:\n        /* \"#utility.yul\":8059:8063   */\n      0x20\n        /* \"#utility.yul\":8051:8057   */\n      dup3\n        /* \"#utility.yul\":8047:8064   */\n      mul\n        /* \"#utility.yul\":8039:8064   */\n      swap1\n      pop\n        /* \"#utility.yul\":8119:8123   */\n      0x20\n        /* \"#utility.yul\":8113:8117   */\n      dup2\n        /* \"#utility.yul\":8109:8124   */\n      add\n        /* \"#utility.yul\":8101:8124   */\n      swap1\n      pop\n        /* \"#utility.yul\":7820:8131   */\n      swap2\n      swap1\n      pop\n      jump\t// out\n        /* \"#utility.yul\":8154:8864   */\n    tag_244:\n        /* \"#utility.yul\":8250:8255   */\n      0x00\n        /* \"#utility.yul\":8275:8356   */\n      tag_372\n        /* \"#utility.yul\":8291:8355   */\n      tag_373\n        /* \"#utility.yul\":8348:8354   */\n      dup5\n        /* \"#utility.yul\":8291:8355   */\n      tag_243\n      jump\t// in\n    tag_373:\n        /* \"#utility.yul\":8275:8356   */\n      tag_238\n      jump\t// in\n    tag_372:\n        /* \"#utility.yul\":8266:8356   */\n      swap1\n      pop\n        /* \"#utility.yul\":8376:8381   */\n      dup1\n        /* \"#utility.yul\":8405:8411   */\n      dup4\n        /* \"#utility.yul\":8398:8403   */\n      dup3\n        /* \"#utility.yul\":8391:8412   */\n      mstore\n        /* \"#utility.yul\":8439:8443   */\n      0x20\n        /* \"#utility.yul\":8432:8437   */\n      dup3\n        /* \"#utility.yul\":8428:8444   */\n      add\n        /* \"#utility.yul\":8421:8444   */\n      swap1\n      pop\n        /* \"#utility.yul\":8492:8496   */\n      0x20\n        /* \"#utility.yul\":8484:8490   */\n      dup5\n        /* \"#utility.yul\":8480:8497   */\n      mul\n        /* \"#utility.yul\":8472:8478   */\n      dup4\n        /* \"#utility.yul\":8468:8498   */\n      add\n        /* \"#utility.yul\":8521:8524   */\n      dup6\n        /* \"#utility.yul\":8513:8519   */\n      dup2\n        /* \"#utility.yul\":8510:8525   */\n      gt\n        /* \"#utility.yul\":8507:8629   */\n      iszero\n      tag_374\n      jumpi\n        /* \"#utility.yul\":8540:8619   */\n      tag_375\n      tag_240\n      jump\t// in\n    tag_375:\n        /* \"#utility.yul\":8507:8629   */\n    tag_374:\n        /* \"#utility.yul\":8655:8661   */\n      dup4\n        /* \"#utility.yul\":8638:8858   */\n    tag_376:\n        /* \"#utility.yul\":8672:8678   */\n      dup2\n        /* \"#utility.yul\":8667:8670   */\n      dup2\n        /* \"#utility.yul\":8664:8679   */\n      lt\n        /* \"#utility.yul\":8638:8858   */\n      iszero\n      tag_378\n      jumpi\n        /* \"#utility.yul\":8747:8750   */\n      dup1\n        /* \"#utility.yul\":8776:8813   */\n      tag_379\n        /* \"#utility.yul\":8809:8812   */\n      dup9\n        /* \"#utility.yul\":8797:8807   */\n      dup3\n        /* \"#utility.yul\":8776:8813   */\n      tag_230\n      jump\t// in\n    tag_379:\n        /* \"#utility.yul\":8771:8774   */\n      dup5\n        /* \"#utility.yul\":8764:8814   */\n      mstore\n        /* \"#utility.yul\":8843:8847   */\n      0x20\n        /* \"#utility.yul\":8838:8841   */\n      dup5\n        /* \"#utility.yul\":8834:8848   */\n      add\n        /* \"#utility.yul\":8827:8848   */\n      swap4\n      pop\n        /* \"#utility.yul\":8714:8858   */\n      pop\n        /* \"#utility.yul\":8698:8702   */\n      0x20\n        /* \"#utility.yul\":8693:8696   */\n      dup2\n        /* \"#utility.yul\":8689:8703   */\n      add\n        /* \"#utility.yul\":8682:8703   */\n      swap1\n      pop\n        /* \"#utility.yul\":8638:8858   */\n      jump(tag_376)\n    tag_378:\n        /* \"#utility.yul\":8642:8663   */\n      pop\n        /* \"#utility.yul\":8256:8864   */\n      pop\n      pop\n        /* \"#utility.yul\":8154:8864   */\n      swap4\n      swap3\n      pop\n      pop\n      pop\n      jump\t// out\n        /* \"#utility.yul\":8887:9257   */\n    tag_245:\n        /* \"#utility.yul\":8958:8963   */\n      0x00\n        /* \"#utility.yul\":9007:9010   */\n      dup3\n        /* \"#utility.yul\":9000:9004   */\n      0x1f\n        /* \"#utility.yul\":8992:8998   */\n      dup4\n        /* \"#utility.yul\":8988:9005   */\n      add\n        /* \"#utility.yul\":8984:9011   */\n      slt\n        /* \"#utility.yul\":8974:9096   */\n      tag_381\n      jumpi\n        /* \"#utility.yul\":9015:9094   */\n      tag_382\n      tag_235\n      jump\t// in\n    tag_382:\n        /* \"#utility.yul\":8974:9096   */\n    tag_381:\n        /* \"#utility.yul\":9132:9138   */\n      dup2\n        /* \"#utility.yul\":9119:9139   */\n      calldataload\n        /* \"#utility.yul\":9157:9251   */\n      tag_383\n        /* \"#utility.yul\":9247:9250   */\n      dup5\n        /* \"#utility.yul\":9239:9245   */\n      dup3\n        /* \"#utility.yul\":9232:9236   */\n      0x20\n        /* \"#utility.yul\":9224:9230   */\n      dup7\n        /* \"#utility.yul\":9220:9237   */\n      add\n        /* \"#utility.yul\":9157:9251   */\n      tag_244\n      jump\t// in\n    tag_383:\n        /* \"#utility.yul\":9148:9251   */\n      swap2\n      pop\n        /* \"#utility.yul\":8964:9257   */\n      pop\n        /* \"#utility.yul\":8887:9257   */\n      swap3\n      swap2\n      pop\n      pop\n      jump\t// out\n        /* \"#utility.yul\":9263:10157   */\n    tag_79:\n        /* \"#utility.yul\":9381:9387   */\n      0x00\n        /* \"#utility.yul\":9389:9395   */\n      dup1\n        /* \"#utility.yul\":9438:9440   */\n      0x40\n        /* \"#utility.yul\":9426:9435   */\n      dup4\n        /* \"#utility.yul\":9417:9424   */\n      dup6\n        /* \"#utility.yul\":9413:9436   */\n      sub\n        /* \"#utility.yul\":9409:9441   */\n      slt\n        /* \"#utility.yul\":9406:9525   */\n      iszero\n      tag_385\n      jumpi\n        /* \"#utility.yul\":9444:9523   */\n      tag_386\n      tag_223\n      jump\t// in\n    tag_386:\n        /* \"#utility.yul\":9406:9525   */\n    tag_385:\n        /* \"#utility.yul\":9592:9593   */\n      0x00\n        /* \"#utility.yul\":9581:9590   */\n      dup4\n        /* \"#utility.yul\":9577:9594   */\n      add\n        /* \"#utility.yul\":9564:9595   */\n      calldataload\n        /* \"#utility.yul\":9622:9640   */\n      0xffffffffffffffff\n        /* \"#utility.yul\":9614:9620   */\n      dup2\n        /* \"#utility.yul\":9611:9641   */\n      gt\n        /* \"#utility.yul\":9608:9725   */\n      iszero\n      tag_387\n      jumpi\n        /* \"#utility.yul\":9644:9723   */\n      tag_388\n      tag_224\n      jump\t// in\n    tag_388:\n        /* \"#utility.yul\":9608:9725   */\n    tag_387:\n        /* \"#utility.yul\":9749:9827   */\n      tag_389\n        /* \"#utility.yul\":9819:9826   */\n      dup6\n        /* \"#utility.yul\":9810:9816   */\n      dup3\n        /* \"#utility.yul\":9799:9808   */\n      dup7\n        /* \"#utility.yul\":9795:9817   */\n      add\n        /* \"#utility.yul\":9749:9827   */\n      tag_242\n      jump\t// in\n    tag_389:\n        /* \"#utility.yul\":9739:9827   */\n      swap3\n      pop\n        /* \"#utility.yul\":9535:9837   */\n      pop\n        /* \"#utility.yul\":9904:9906   */\n      0x20\n        /* \"#utility.yul\":9893:9902   */\n      dup4\n        /* \"#utility.yul\":9889:9907   */\n      add\n        /* \"#utility.yul\":9876:9908   */\n      calldataload\n        /* \"#utility.yul\":9935:9953   */\n      0xffffffffffffffff\n        /* \"#utility.yul\":9927:9933   */\n      dup2\n        /* \"#utility.yul\":9924:9954   */\n      gt\n        /* \"#utility.yul\":9921:10038   */\n      iszero\n      tag_390\n      jumpi\n        /* \"#utility.yul\":9957:10036   */\n      tag_391\n      tag_224\n      jump\t// in\n    tag_391:\n        /* \"#utility.yul\":9921:10038   */\n    tag_390:\n        /* \"#utility.yul\":10062:10140   */\n      tag_392\n        /* \"#utility.yul\":10132:10139   */\n      dup6\n        /* \"#utility.yul\":10123:10129   */\n      dup3\n        /* \"#utility.yul\":10112:10121   */\n      dup7\n        /* \"#utility.yul\":10108:10130   */\n      add\n        /* \"#utility.yul\":10062:10140   */\n      tag_245\n      jump\t// in\n    tag_392:\n        /* \"#utility.yul\":10052:10140   */\n      swap2\n      pop\n        /* \"#utility.yul\":9847:10150   */\n      pop\n        /* \"#utility.yul\":9263:10157   */\n      swap3\n      pop\n      swap3\n      swap1\n      pop\n      jump\t// out\n        /* \"#utility.yul\":10163:10281   */\n    tag_246:\n        /* \"#utility.yul\":10250:10274   */\n      tag_394\n        /* \"#utility.yul\":10268:10273   */\n      dup2\n        /* \"#utility.yul\":10250:10274   */\n      tag_226\n      jump\t// in\n    tag_394:\n        /* \"#utility.yul\":10245:10248   */\n      dup3\n        /* \"#utility.yul\":10238:10275   */\n      mstore\n        /* \"#utility.yul\":10163:10281   */\n      pop\n      pop\n      jump\t// out\n        /* \"#utility.yul\":10287:10509   */\n    tag_86:\n        /* \"#utility.yul\":10380:10384   */\n      0x00\n        /* \"#utility.yul\":10418:10420   */\n      0x20\n        /* \"#utility.yul\":10407:10416   */\n      dup3\n        /* \"#utility.yul\":10403:10421   */\n      add\n        /* \"#utility.yul\":10395:10421   */\n      swap1\n      pop\n        /* \"#utility.yul\":10431:10502   */\n      tag_396\n        /* \"#utility.yul\":10499:10500   */\n      0x00\n        /* \"#utility.yul\":10488:10497   */\n      dup4\n        /* \"#utility.yul\":10484:10501   */\n      add\n        /* \"#utility.yul\":10475:10481   */\n      dup5\n        /* \"#utility.yul\":10431:10502   */\n      tag_246\n      jump\t// in\n    tag_396:\n        /* \"#utility.yul\":10287:10509   */\n      swap3\n      swap2\n      pop\n      pop\n      jump\t// out\n        /* \"#utility.yul\":10515:10989   */\n    tag_98:\n        /* \"#utility.yul\":10583:10589   */\n      0x00\n        /* \"#utility.yul\":10591:10597   */\n      dup1\n        /* \"#utility.yul\":10640:10642   */\n      0x40\n        /* \"#utility.yul\":10628:10637   */\n      dup4\n        /* \"#utility.yul\":10619:10626   */\n      dup6\n        /* \"#utility.yul\":10615:10638   */\n      sub\n        /* \"#utility.yul\":10611:10643   */\n      slt\n        /* \"#utility.yul\":10608:10727   */\n      iszero\n      tag_398\n      jumpi\n        /* \"#utility.yul\":10646:10725   */\n      tag_399\n      tag_223\n      jump\t// in\n    tag_399:\n        /* \"#utility.yul\":10608:10727   */\n    tag_398:\n        /* \"#utility.yul\":10766:10767   */\n      0x00\n        /* \"#utility.yul\":10791:10844   */\n      tag_400\n        /* \"#utility.yul\":10836:10843   */\n      dup6\n        /* \"#utility.yul\":10827:10833   */\n      dup3\n        /* \"#utility.yul\":10816:10825   */\n      dup7\n        /* \"#utility.yul\":10812:10834   */\n      add\n        /* \"#utility.yul\":10791:10844   */\n      tag_228\n      jump\t// in\n    tag_400:\n        /* \"#utility.yul\":10781:10844   */\n      swap3\n      pop\n        /* \"#utility.yul\":10737:10854   */\n      pop\n        /* \"#utility.yul\":10893:10895   */\n      0x20\n        /* \"#utility.yul\":10919:10972   */\n      tag_401\n        /* \"#utility.yul\":10964:10971   */\n      dup6\n        /* \"#utility.yul\":10955:10961   */\n      dup3\n        /* \"#utility.yul\":10944:10953   */\n      dup7\n        /* \"#utility.yul\":10940:10962   */\n      add\n        /* \"#utility.yul\":10919:10972   */\n      tag_228\n      jump\t// in\n    tag_401:\n        /* \"#utility.yul\":10909:10972   */\n      swap2\n      pop\n        /* \"#utility.yul\":10864:10982   */\n      pop\n        /* \"#utility.yul\":10515:10989   */\n      swap3\n      pop\n      swap3\n      swap1\n      pop\n      jump\t// out\n        /* \"#utility.yul\":10995:11175   */\n    tag_247:\n        /* \"#utility.yul\":11043:11120   */\n      0x4e487b7100000000000000000000000000000000000000000000000000000000\n        /* \"#utility.yul\":11040:11041   */\n      0x00\n        /* \"#utility.yul\":11033:11121   */\n      mstore\n        /* \"#utility.yul\":11140:11144   */\n      0x22\n        /* \"#utility.yul\":11137:11138   */\n      0x04\n        /* \"#utility.yul\":11130:11145   */\n      mstore\n        /* \"#utility.yul\":11164:11168   */\n      0x24\n        /* \"#utility.yul\":11161:11162   */\n      0x00\n        /* \"#utility.yul\":11154:11169   */\n      revert\n        /* \"#utility.yul\":11181:11501   */\n    tag_102:\n        /* \"#utility.yul\":11225:11231   */\n      0x00\n        /* \"#utility.yul\":11262:11263   */\n      0x02\n        /* \"#utility.yul\":11256:11260   */\n      dup3\n        /* \"#utility.yul\":11252:11264   */\n      div\n        /* \"#utility.yul\":11242:11264   */\n      swap1\n      pop\n        /* \"#utility.yul\":11309:11310   */\n      0x01\n        /* \"#utility.yul\":11303:11307   */\n      dup3\n        /* \"#utility.yul\":11299:11311   */\n      and\n        /* \"#utility.yul\":11330:11348   */\n      dup1\n        /* \"#utility.yul\":11320:11401   */\n      tag_404\n      jumpi\n        /* \"#utility.yul\":11386:11390   */\n      0x7f\n        /* \"#utility.yul\":11378:11384   */\n      dup3\n        /* \"#utility.yul\":11374:11391   */\n      and\n        /* \"#utility.yul\":11364:11391   */\n      swap2\n      pop\n        /* \"#utility.yul\":11320:11401   */\n    tag_404:\n        /* \"#utility.yul\":11448:11450   */\n      0x20\n        /* \"#utility.yul\":11440:11446   */\n      dup3\n        /* \"#utility.yul\":11437:11451   */\n      lt\n        /* \"#utility.yul\":11417:11435   */\n      dup2\n        /* \"#utility.yul\":11414:11452   */\n      sub\n        /* \"#utility.yul\":11411:11495   */\n      tag_405\n      jumpi\n        /* \"#utility.yul\":11467:11485   */\n      tag_406\n      tag_247\n      jump\t// in\n    tag_406:\n        /* \"#utility.yul\":11411:11495   */\n    tag_405:\n        /* \"#utility.yul\":11232:11501   */\n      pop\n        /* \"#utility.yul\":11181:11501   */\n      swap2\n      swap1\n      pop\n      jump\t// out\n        /* \"#utility.yul\":11507:11675   */\n    tag_248:\n        /* \"#utility.yul\":11647:11667   */\n      0x436f6e7472616374206973207061757365640000000000000000000000000000\n        /* \"#utility.yul\":11643:11644   */\n      0x00\n        /* \"#utility.yul\":11635:11641   */\n      dup3\n        /* \"#utility.yul\":11631:11645   */\n      add\n        /* \"#utility.yul\":11624:11668   */\n      mstore\n        /* \"#utility.yul\":11507:11675   */\n      pop\n      jump\t// out\n        /* \"#utility.yul\":11681:12047   */\n    tag_249:\n        /* \"#utility.yul\":11823:11826   */\n      0x00\n        /* \"#utility.yul\":11844:11911   */\n      tag_409\n        /* \"#utility.yul\":11908:11910   */\n      0x12\n        /* \"#utility.yul\":11903:11906   */\n      dup4\n        /* \"#utility.yul\":11844:11911   */\n      tag_216\n      jump\t// in\n    tag_409:\n        /* \"#utility.yul\":11837:11911   */\n      swap2\n      pop\n        /* \"#utility.yul\":11920:12013   */\n      tag_410\n        /* \"#utility.yul\":12009:12012   */\n      dup3\n        /* \"#utility.yul\":11920:12013   */\n      tag_248\n      jump\t// in\n    tag_410:\n        /* \"#utility.yul\":12038:12040   */\n      0x20\n        /* \"#utility.yul\":12033:12036   */\n      dup3\n        /* \"#utility.yul\":12029:12041   */\n      add\n        /* \"#utility.yul\":12022:12041   */\n      swap1\n      pop\n        /* \"#utility.yul\":11681:12047   */\n      swap2\n      swap1\n      pop\n      jump\t// out\n        /* \"#utility.yul\":12053:12472   */\n    tag_110:\n        /* \"#utility.yul\":12219:12223   */\n      0x00\n        /* \"#utility.yul\":12257:12259   */\n      0x20\n        /* \"#utility.yul\":12246:12255   */\n      dup3\n        /* \"#utility.yul\":12242:12260   */\n      add\n        /* \"#utility.yul\":12234:12260   */\n      swap1\n      pop\n        /* \"#utility.yul\":12306:12315   */\n      dup2\n        /* \"#utility.yul\":12300:12304   */\n      dup2\n        /* \"#utility.yul\":12296:12316   */\n      sub\n        /* \"#utility.yul\":12292:12293   */\n      0x00\n        /* \"#utility.yul\":12281:12290   */\n      dup4\n        /* \"#utility.yul\":12277:12294   */\n      add\n        /* \"#utility.yul\":12270:12317   */\n      mstore\n        /* \"#utility.yul\":12334:12465   */\n      tag_412\n        /* \"#utility.yul\":12460:12464   */\n      dup2\n        /* \"#utility.yul\":12334:12465   */\n      tag_249\n      jump\t// in\n    tag_412:\n        /* \"#utility.yul\":12326:12465   */\n      swap1\n      pop\n        /* \"#utility.yul\":12053:12472   */\n      swap2\n      swap1\n      pop\n      jump\t// out\n        /* \"#utility.yul\":12478:12637   */\n    tag_250:\n        /* \"#utility.yul\":12618:12629   */\n      0x66726f6d205a65726f0000000000000000000000000000000000000000000000\n        /* \"#utility.yul\":12614:12615   */\n      0x00\n        /* \"#utility.yul\":12606:12612   */\n      dup3\n        /* \"#utility.yul\":12602:12616   */\n      add\n        /* \"#utility.yul\":12595:12630   */\n      mstore\n        /* \"#utility.yul\":12478:12637   */\n      pop\n      jump\t// out\n        /* \"#utility.yul\":12643:13008   */\n    tag_251:\n        /* \"#utility.yul\":12785:12788   */\n      0x00\n        /* \"#utility.yul\":12806:12872   */\n      tag_415\n        /* \"#utility.yul\":12870:12871   */\n      0x09\n        /* \"#utility.yul\":12865:12868   */\n      dup4\n        /* \"#utility.yul\":12806:12872   */\n      tag_216\n      jump\t// in\n    tag_415:\n        /* \"#utility.yul\":12799:12872   */\n      swap2\n      pop\n        /* \"#utility.yul\":12881:12974   */\n      tag_416\n        /* \"#utility.yul\":12970:12973   */\n      dup3\n        /* \"#utility.yul\":12881:12974   */\n      tag_250\n      jump\t// in\n    tag_416:\n        /* \"#utility.yul\":12999:13001   */\n      0x20\n        /* \"#utility.yul\":12994:12997   */\n      dup3\n        /* \"#utility.yul\":12990:13002   */\n      add\n        /* \"#utility.yul\":12983:13002   */\n      swap1\n      pop\n        /* \"#utility.yul\":12643:13008   */\n      swap2\n      swap1\n      pop\n      jump\t// out\n        /* \"#utility.yul\":13014:13433   */\n    tag_114:\n        /* \"#utility.yul\":13180:13184   */\n      0x00\n        /* \"#utility.yul\":13218:13220   */\n      0x20\n        /* \"#utility.yul\":13207:13216   */\n      dup3\n        /* \"#utility.yul\":13203:13221   */\n      add\n        /* \"#utility.yul\":13195:13221   */\n      swap1\n      pop\n        /* \"#utility.yul\":13267:13276   */\n      dup2\n        /* \"#utility.yul\":13261:13265   */\n      dup2\n        /* \"#utility.yul\":13257:13277   */\n      sub\n        /* \"#utility.yul\":13253:13254   */\n      0x00\n        /* \"#utility.yul\":13242:13251   */\n      dup4\n        /* \"#utility.yul\":13238:13255   */\n      add\n        /* \"#utility.yul\":13231:13278   */\n      mstore\n        /* \"#utility.yul\":13295:13426   */\n      tag_418\n        /* \"#utility.yul\":13421:13425   */\n      dup2\n        /* \"#utility.yul\":13295:13426   */\n      tag_251\n      jump\t// in\n    tag_418:\n        /* \"#utility.yul\":13287:13426   */\n      swap1\n      pop\n        /* \"#utility.yul\":13014:13433   */\n      swap2\n      swap1\n      pop\n      jump\t// out\n        /* \"#utility.yul\":13439:13596   */\n    tag_252:\n        /* \"#utility.yul\":13579:13588   */\n      0x746f205a65726f00000000000000000000000000000000000000000000000000\n        /* \"#utility.yul\":13575:13576   */\n      0x00\n        /* \"#utility.yul\":13567:13573   */\n      dup3\n        /* \"#utility.yul\":13563:13577   */\n      add\n        /* \"#utility.yul\":13556:13589   */\n      mstore\n        /* \"#utility.yul\":13439:13596   */\n      pop\n      jump\t// out\n        /* \"#utility.yul\":13602:13967   */\n    tag_253:\n        /* \"#utility.yul\":13744:13747   */\n      0x00\n        /* \"#utility.yul\":13765:13831   */\n      tag_421\n        /* \"#utility.yul\":13829:13830   */\n      0x07\n        /* \"#utility.yul\":13824:13827   */\n      dup4\n        /* \"#utility.yul\":13765:13831   */\n      tag_216\n      jump\t// in\n    tag_421:\n        /* \"#utility.yul\":13758:13831   */\n      swap2\n      pop\n        /* \"#utility.yul\":13840:13933   */\n      tag_422\n        /* \"#utility.yul\":13929:13932   */\n      dup3\n        /* \"#utility.yul\":13840:13933   */\n      tag_252\n      jump\t// in\n    tag_422:\n        /* \"#utility.yul\":13958:13960   */\n      0x20\n        /* \"#utility.yul\":13953:13956   */\n      dup3\n        /* \"#utility.yul\":13949:13961   */\n      add\n        /* \"#utility.yul\":13942:13961   */\n      swap1\n      pop\n        /* \"#utility.yul\":13602:13967   */\n      swap2\n      swap1\n      pop\n      jump\t// out\n        /* \"#utility.yul\":13973:14392   */\n    tag_117:\n        /* \"#utility.yul\":14139:14143   */\n      0x00\n        /* \"#utility.yul\":14177:14179   */\n      0x20\n        /* \"#utility.yul\":14166:14175   */\n      dup3\n        /* \"#utility.yul\":14162:14180   */\n      add\n        /* \"#utility.yul\":14154:14180   */\n      swap1\n      pop\n        /* \"#utility.yul\":14226:14235   */\n      dup2\n        /* \"#utility.yul\":14220:14224   */\n      dup2\n        /* \"#utility.yul\":14216:14236   */\n      sub\n        /* \"#utility.yul\":14212:14213   */\n      0x00\n        /* \"#utility.yul\":14201:14210   */\n      dup4\n        /* \"#utility.yul\":14197:14214   */\n      add\n        /* \"#utility.yul\":14190:14237   */\n      mstore\n        /* \"#utility.yul\":14254:14385   */\n      tag_424\n        /* \"#utility.yul\":14380:14384   */\n      dup2\n        /* \"#utility.yul\":14254:14385   */\n      tag_253\n      jump\t// in\n    tag_424:\n        /* \"#utility.yul\":14246:14385   */\n      swap1\n      pop\n        /* \"#utility.yul\":13973:14392   */\n      swap2\n      swap1\n      pop\n      jump\t// out\n        /* \"#utility.yul\":14398:14568   */\n    tag_254:\n        /* \"#utility.yul\":14538:14560   */\n      0x496e73756666696369656e742042616c616e6365000000000000000000000000\n        /* \"#utility.yul\":14534:14535   */\n      0x00\n        /* \"#utility.yul\":14526:14532   */\n      dup3\n        /* \"#utility.yul\":14522:14536   */\n      add\n        /* \"#utility.yul\":14515:14561   */\n      mstore\n        /* \"#utility.yul\":14398:14568   */\n      pop\n      jump\t// out\n        /* \"#utility.yul\":14574:14940   */\n    tag_255:\n        /* \"#utility.yul\":14716:14719   */\n      0x00\n        /* \"#utility.yul\":14737:14804   */\n      tag_427\n        /* \"#utility.yul\":14801:14803   */\n      0x14\n        /* \"#utility.yul\":14796:14799   */\n      dup4\n        /* \"#utility.yul\":14737:14804   */\n      tag_216\n      jump\t// in\n    tag_427:\n        /* \"#utility.yul\":14730:14804   */\n      swap2\n      pop\n        /* \"#utility.yul\":14813:14906   */\n      tag_428\n        /* \"#utility.yul\":14902:14905   */\n      dup3\n        /* \"#utility.yul\":14813:14906   */\n      tag_254\n      jump\t// in\n    tag_428:\n        /* \"#utility.yul\":14931:14933   */\n      0x20\n        /* \"#utility.yul\":14926:14929   */\n      dup3\n        /* \"#utility.yul\":14922:14934   */\n      add\n        /* \"#utility.yul\":14915:14934   */\n      swap1\n      pop\n        /* \"#utility.yul\":14574:14940   */\n      swap2\n      swap1\n      pop\n      jump\t// out\n        /* \"#utility.yul\":14946:15365   */\n    tag_120:\n        /* \"#utility.yul\":15112:15116   */\n      0x00\n        /* \"#utility.yul\":15150:15152   */\n      0x20\n        /* \"#utility.yul\":15139:15148   */\n      dup3\n        /* \"#utility.yul\":15135:15153   */\n      add\n        /* \"#utility.yul\":15127:15153   */\n      swap1\n      pop\n        /* \"#utility.yul\":15199:15208   */\n      dup2\n        /* \"#utility.yul\":15193:15197   */\n      dup2\n        /* \"#utility.yul\":15189:15209   */\n      sub\n        /* \"#utility.yul\":15185:15186   */\n      0x00\n        /* \"#utility.yul\":15174:15183   */\n      dup4\n        /* \"#utility.yul\":15170:15187   */\n      add\n        /* \"#utility.yul\":15163:15210   */\n      mstore\n        /* \"#utility.yul\":15227:15358   */\n      tag_430\n        /* \"#utility.yul\":15353:15357   */\n      dup2\n        /* \"#utility.yul\":15227:15358   */\n      tag_255\n      jump\t// in\n    tag_430:\n        /* \"#utility.yul\":15219:15358   */\n      swap1\n      pop\n        /* \"#utility.yul\":14946:15365   */\n      swap2\n      swap1\n      pop\n      jump\t// out\n        /* \"#utility.yul\":15371:15543   */\n    tag_256:\n        /* \"#utility.yul\":15511:15535   */\n      0x496e73756666696369656e7420616c6c6f77616e636500000000000000000000\n        /* \"#utility.yul\":15507:15508   */\n      0x00\n        /* \"#utility.yul\":15499:15505   */\n      dup3\n        /* \"#utility.yul\":15495:15509   */\n      add\n        /* \"#utility.yul\":15488:15536   */\n      mstore\n        /* \"#utility.yul\":15371:15543   */\n      pop\n      jump\t// out\n        /* \"#utility.yul\":15549:15915   */\n    tag_257:\n        /* \"#utility.yul\":15691:15694   */\n      0x00\n        /* \"#utility.yul\":15712:15779   */\n      tag_433\n        /* \"#utility.yul\":15776:15778   */\n      0x16\n        /* \"#utility.yul\":15771:15774   */\n      dup4\n        /* \"#utility.yul\":15712:15779   */\n      tag_216\n      jump\t// in\n    tag_433:\n        /* \"#utility.yul\":15705:15779   */\n      swap2\n      pop\n        /* \"#utility.yul\":15788:15881   */\n      tag_434\n        /* \"#utility.yul\":15877:15880   */\n      dup3\n        /* \"#utility.yul\":15788:15881   */\n      tag_256\n      jump\t// in\n    tag_434:\n        /* \"#utility.yul\":15906:15908   */\n      0x20\n        /* \"#utility.yul\":15901:15904   */\n      dup3\n        /* \"#utility.yul\":15897:15909   */\n      add\n        /* \"#utility.yul\":15890:15909   */\n      swap1\n      pop\n        /* \"#utility.yul\":15549:15915   */\n      swap2\n      swap1\n      pop\n      jump\t// out\n        /* \"#utility.yul\":15921:16340   */\n    tag_123:\n        /* \"#utility.yul\":16087:16091   */\n      0x00\n        /* \"#utility.yul\":16125:16127   */\n      0x20\n        /* \"#utility.yul\":16114:16123   */\n      dup3\n        /* \"#utility.yul\":16110:16128   */\n      add\n        /* \"#utility.yul\":16102:16128   */\n      swap1\n      pop\n        /* \"#utility.yul\":16174:16183   */\n      dup2\n        /* \"#utility.yul\":16168:16172   */\n      dup2\n        /* \"#utility.yul\":16164:16184   */\n      sub\n        /* \"#utility.yul\":16160:16161   */\n      0x00\n        /* \"#utility.yul\":16149:16158   */\n      dup4\n        /* \"#utility.yul\":16145:16162   */\n      add\n        /* \"#utility.yul\":16138:16185   */\n      mstore\n        /* \"#utility.yul\":16202:16333   */\n      tag_436\n        /* \"#utility.yul\":16328:16332   */\n      dup2\n        /* \"#utility.yul\":16202:16333   */\n      tag_257\n      jump\t// in\n    tag_436:\n        /* \"#utility.yul\":16194:16333   */\n      swap1\n      pop\n        /* \"#utility.yul\":15921:16340   */\n      swap2\n      swap1\n      pop\n      jump\t// out\n        /* \"#utility.yul\":16346:16526   */\n    tag_258:\n        /* \"#utility.yul\":16394:16471   */\n      0x4e487b7100000000000000000000000000000000000000000000000000000000\n        /* \"#utility.yul\":16391:16392   */\n      0x00\n        /* \"#utility.yul\":16384:16472   */\n      mstore\n        /* \"#utility.yul\":16491:16495   */\n      0x11\n        /* \"#utility.yul\":16488:16489   */\n      0x04\n        /* \"#utility.yul\":16481:16496   */\n      mstore\n        /* \"#utility.yul\":16515:16519   */\n      0x24\n        /* \"#utility.yul\":16512:16513   */\n      0x00\n        /* \"#utility.yul\":16505:16520   */\n      revert\n        /* \"#utility.yul\":16532:16726   */\n    tag_125:\n        /* \"#utility.yul\":16572:16576   */\n      0x00\n        /* \"#utility.yul\":16592:16612   */\n      tag_439\n        /* \"#utility.yul\":16610:16611   */\n      dup3\n        /* \"#utility.yul\":16592:16612   */\n      tag_220\n      jump\t// in\n    tag_439:\n        /* \"#utility.yul\":16587:16612   */\n      swap2\n      pop\n        /* \"#utility.yul\":16626:16646   */\n      tag_440\n        /* \"#utility.yul\":16644:16645   */\n      dup4\n        /* \"#utility.yul\":16626:16646   */\n      tag_220\n      jump\t// in\n    tag_440:\n        /* \"#utility.yul\":16621:16646   */\n      swap3\n      pop\n        /* \"#utility.yul\":16670:16671   */\n      dup3\n        /* \"#utility.yul\":16667:16668   */\n      dup3\n        /* \"#utility.yul\":16663:16672   */\n      sub\n        /* \"#utility.yul\":16655:16672   */\n      swap1\n      pop\n        /* \"#utility.yul\":16694:16695   */\n      dup2\n        /* \"#utility.yul\":16688:16692   */\n      dup2\n        /* \"#utility.yul\":16685:16696   */\n      gt\n        /* \"#utility.yul\":16682:16719   */\n      iszero\n      tag_441\n      jumpi\n        /* \"#utility.yul\":16699:16717   */\n      tag_442\n      tag_258\n      jump\t// in\n    tag_442:\n        /* \"#utility.yul\":16682:16719   */\n    tag_441:\n        /* \"#utility.yul\":16532:16726   */\n      swap3\n      swap2\n      pop\n      pop\n      jump\t// out\n        /* \"#utility.yul\":16732:16923   */\n    tag_127:\n        /* \"#utility.yul\":16772:16775   */\n      0x00\n        /* \"#utility.yul\":16791:16811   */\n      tag_444\n        /* \"#utility.yul\":16809:16810   */\n      dup3\n        /* \"#utility.yul\":16791:16811   */\n      tag_220\n      jump\t// in\n    tag_444:\n        /* \"#utility.yul\":16786:16811   */\n      swap2\n      pop\n        /* \"#utility.yul\":16825:16845   */\n      tag_445\n        /* \"#utility.yul\":16843:16844   */\n      dup4\n        /* \"#utility.yul\":16825:16845   */\n      tag_220\n      jump\t// in\n    tag_445:\n        /* \"#utility.yul\":16820:16845   */\n      swap3\n      pop\n        /* \"#utility.yul\":16868:16869   */\n      dup3\n        /* \"#utility.yul\":16865:16866   */\n      dup3\n        /* \"#utility.yul\":16861:16870   */\n      add\n        /* \"#utility.yul\":16854:16870   */\n      swap1\n      pop\n        /* \"#utility.yul\":16889:16892   */\n      dup1\n        /* \"#utility.yul\":16886:16887   */\n      dup3\n        /* \"#utility.yul\":16883:16893   */\n      gt\n        /* \"#utility.yul\":16880:16916   */\n      iszero\n      tag_446\n      jumpi\n        /* \"#utility.yul\":16896:16914   */\n      tag_447\n      tag_258\n      jump\t// in\n    tag_447:\n        /* \"#utility.yul\":16880:16916   */\n    tag_446:\n        /* \"#utility.yul\":16732:16923   */\n      swap3\n      swap2\n      pop\n      pop\n      jump\t// out\n        /* \"#utility.yul\":16929:17371   */\n    tag_130:\n        /* \"#utility.yul\":17078:17082   */\n      0x00\n        /* \"#utility.yul\":17116:17118   */\n      0x60\n        /* \"#utility.yul\":17105:17114   */\n      dup3\n        /* \"#utility.yul\":17101:17119   */\n      add\n        /* \"#utility.yul\":17093:17119   */\n      swap1\n      pop\n        /* \"#utility.yul\":17129:17200   */\n      tag_449\n        /* \"#utility.yul\":17197:17198   */\n      0x00\n        /* \"#utility.yul\":17186:17195   */\n      dup4\n        /* \"#utility.yul\":17182:17199   */\n      add\n        /* \"#utility.yul\":17173:17179   */\n      dup7\n        /* \"#utility.yul\":17129:17200   */\n      tag_246\n      jump\t// in\n    tag_449:\n        /* \"#utility.yul\":17210:17282   */\n      tag_450\n        /* \"#utility.yul\":17278:17280   */\n      0x20\n        /* \"#utility.yul\":17267:17276   */\n      dup4\n        /* \"#utility.yul\":17263:17281   */\n      add\n        /* \"#utility.yul\":17254:17260   */\n      dup6\n        /* \"#utility.yul\":17210:17282   */\n      tag_246\n      jump\t// in\n    tag_450:\n        /* \"#utility.yul\":17292:17364   */\n      tag_451\n        /* \"#utility.yul\":17360:17362   */\n      0x40\n        /* \"#utility.yul\":17349:17358   */\n      dup4\n        /* \"#utility.yul\":17345:17363   */\n      add\n        /* \"#utility.yul\":17336:17342   */\n      dup5\n        /* \"#utility.yul\":17292:17364   */\n      tag_221\n      jump\t// in\n    tag_451:\n        /* \"#utility.yul\":16929:17371   */\n      swap5\n      swap4\n      pop\n      pop\n      pop\n      pop\n      jump\t// out\n        /* \"#utility.yul\":17377:17551   */\n    tag_259:\n        /* \"#utility.yul\":17517:17543   */\n      0x4f6e6c79206f776e65722063616e206f7065726174696f6e0000000000000000\n        /* \"#utility.yul\":17513:17514   */\n      0x00\n        /* \"#utility.yul\":17505:17511   */\n      dup3\n        /* \"#utility.yul\":17501:17515   */\n      add\n        /* \"#utility.yul\":17494:17544   */\n      mstore\n        /* \"#utility.yul\":17377:17551   */\n      pop\n      jump\t// out\n        /* \"#utility.yul\":17557:17923   */\n    tag_260:\n        /* \"#utility.yul\":17699:17702   */\n      0x00\n        /* \"#utility.yul\":17720:17787   */\n      tag_454\n        /* \"#utility.yul\":17784:17786   */\n      0x18\n        /* \"#utility.yul\":17779:17782   */\n      dup4\n        /* \"#utility.yul\":17720:17787   */\n      tag_216\n      jump\t// in\n    tag_454:\n        /* \"#utility.yul\":17713:17787   */\n      swap2\n      pop\n        /* \"#utility.yul\":17796:17889   */\n      tag_455\n        /* \"#utility.yul\":17885:17888   */\n      dup3\n        /* \"#utility.yul\":17796:17889   */\n      tag_259\n      jump\t// in\n    tag_455:\n        /* \"#utility.yul\":17914:17916   */\n      0x20\n        /* \"#utility.yul\":17909:17912   */\n      dup3\n        /* \"#utility.yul\":17905:17917   */\n      add\n        /* \"#utility.yul\":17898:17917   */\n      swap1\n      pop\n        /* \"#utility.yul\":17557:17923   */\n      swap2\n      swap1\n      pop\n      jump\t// out\n        /* \"#utility.yul\":17929:18348   */\n    tag_134:\n        /* \"#utility.yul\":18095:18099   */\n      0x00\n        /* \"#utility.yul\":18133:18135   */\n      0x20\n        /* \"#utility.yul\":18122:18131   */\n      dup3\n        /* \"#utility.yul\":18118:18136   */\n      add\n        /* \"#utility.yul\":18110:18136   */\n      swap1\n      pop\n        /* \"#utility.yul\":18182:18191   */\n      dup2\n        /* \"#utility.yul\":18176:18180   */\n      dup2\n        /* \"#utility.yul\":18172:18192   */\n      sub\n        /* \"#utility.yul\":18168:18169   */\n      0x00\n        /* \"#utility.yul\":18157:18166   */\n      dup4\n        /* \"#utility.yul\":18153:18170   */\n      add\n        /* \"#utility.yul\":18146:18193   */\n      mstore\n        /* \"#utility.yul\":18210:18341   */\n      tag_457\n        /* \"#utility.yul\":18336:18340   */\n      dup2\n        /* \"#utility.yul\":18210:18341   */\n      tag_260\n      jump\t// in\n    tag_457:\n        /* \"#utility.yul\":18202:18341   */\n      swap1\n      pop\n        /* \"#utility.yul\":17929:18348   */\n      swap2\n      swap1\n      pop\n      jump\t// out\n        /* \"#utility.yul\":18354:18531   */\n    tag_261:\n        /* \"#utility.yul\":18494:18523   */\n      0x43616e6e6f74206d696e7420746f207a65726f20616464726573730000000000\n        /* \"#utility.yul\":18490:18491   */\n      0x00\n        /* \"#utility.yul\":18482:18488   */\n      dup3\n        /* \"#utility.yul\":18478:18492   */\n      add\n        /* \"#utility.yul\":18471:18524   */\n      mstore\n        /* \"#utility.yul\":18354:18531   */\n      pop\n      jump\t// out\n        /* \"#utility.yul\":18537:18903   */\n    tag_262:\n        /* \"#utility.yul\":18679:18682   */\n      0x00\n        /* \"#utility.yul\":18700:18767   */\n      tag_460\n        /* \"#utility.yul\":18764:18766   */\n      0x1b\n        /* \"#utility.yul\":18759:18762   */\n      dup4\n        /* \"#utility.yul\":18700:18767   */\n      tag_216\n      jump\t// in\n    tag_460:\n        /* \"#utility.yul\":18693:18767   */\n      swap2\n      pop\n        /* \"#utility.yul\":18776:18869   */\n      tag_461\n        /* \"#utility.yul\":18865:18868   */\n      dup3\n        /* \"#utility.yul\":18776:18869   */\n      tag_261\n      jump\t// in\n    tag_461:\n        /* \"#utility.yul\":18894:18896   */\n      0x20\n        /* \"#utility.yul\":18889:18892   */\n      dup3\n        /* \"#utility.yul\":18885:18897   */\n      add\n        /* \"#utility.yul\":18878:18897   */\n      swap1\n      pop\n        /* \"#utility.yul\":18537:18903   */\n      swap2\n      swap1\n      pop\n      jump\t// out\n        /* \"#utility.yul\":18909:19328   */\n    tag_139:\n        /* \"#utility.yul\":19075:19079   */\n      0x00\n        /* \"#utility.yul\":19113:19115   */\n      0x20\n        /* \"#utility.yul\":19102:19111   */\n      dup3\n        /* \"#utility.yul\":19098:19116   */\n      add\n        /* \"#utility.yul\":19090:19116   */\n      swap1\n      pop\n        /* \"#utility.yul\":19162:19171   */\n      dup2\n        /* \"#utility.yul\":19156:19160   */\n      dup2\n        /* \"#utility.yul\":19152:19172   */\n      sub\n        /* \"#utility.yul\":19148:19149   */\n      0x00\n        /* \"#utility.yul\":19137:19146   */\n      dup4\n        /* \"#utility.yul\":19133:19150   */\n      add\n        /* \"#utility.yul\":19126:19173   */\n      mstore\n        /* \"#utility.yul\":19190:19321   */\n      tag_463\n        /* \"#utility.yul\":19316:19320   */\n      dup2\n        /* \"#utility.yul\":19190:19321   */\n      tag_262\n      jump\t// in\n    tag_463:\n        /* \"#utility.yul\":19182:19321   */\n      swap1\n      pop\n        /* \"#utility.yul\":18909:19328   */\n      swap2\n      swap1\n      pop\n      jump\t// out\n        /* \"#utility.yul\":19334:19512   */\n    tag_263:\n        /* \"#utility.yul\":19474:19504   */\n      0x496e73756666696369656e742062616c616e636520746f206275726e00000000\n        /* \"#utility.yul\":19470:19471   */\n      0x00\n        /* \"#utility.yul\":19462:19468   */\n      dup3\n        /* \"#utility.yul\":19458:19472   */\n      add\n        /* \"#utility.yul\":19451:19505   */\n      mstore\n        /* \"#utility.yul\":19334:19512   */\n      pop\n      jump\t// out\n        /* \"#utility.yul\":19518:19884   */\n    tag_264:\n        /* \"#utility.yul\":19660:19663   */\n      0x00\n        /* \"#utility.yul\":19681:19748   */\n      tag_466\n        /* \"#utility.yul\":19745:19747   */\n      0x1c\n        /* \"#utility.yul\":19740:19743   */\n      dup4\n        /* \"#utility.yul\":19681:19748   */\n      tag_216\n      jump\t// in\n    tag_466:\n        /* \"#utility.yul\":19674:19748   */\n      swap2\n      pop\n        /* \"#utility.yul\":19757:19850   */\n      tag_467\n        /* \"#utility.yul\":19846:19849   */\n      dup3\n        /* \"#utility.yul\":19757:19850   */\n      tag_263\n      jump\t// in\n    tag_467:\n        /* \"#utility.yul\":19875:19877   */\n      0x20\n        /* \"#utility.yul\":19870:19873   */\n      dup3\n        /* \"#utility.yul\":19866:19878   */\n      add\n        /* \"#utility.yul\":19859:19878   */\n      swap1\n      pop\n        /* \"#utility.yul\":19518:19884   */\n      swap2\n      swap1\n      pop\n      jump\t// out\n        /* \"#utility.yul\":19890:20309   */\n    tag_146:\n        /* \"#utility.yul\":20056:20060   */\n      0x00\n        /* \"#utility.yul\":20094:20096   */\n      0x20\n        /* \"#utility.yul\":20083:20092   */\n      dup3\n        /* \"#utility.yul\":20079:20097   */\n      add\n        /* \"#utility.yul\":20071:20097   */\n      swap1\n      pop\n        /* \"#utility.yul\":20143:20152   */\n      dup2\n        /* \"#utility.yul\":20137:20141   */\n      dup2\n        /* \"#utility.yul\":20133:20153   */\n      sub\n        /* \"#utility.yul\":20129:20130   */\n      0x00\n        /* \"#utility.yul\":20118:20127   */\n      dup4\n        /* \"#utility.yul\":20114:20131   */\n      add\n        /* \"#utility.yul\":20107:20154   */\n      mstore\n        /* \"#utility.yul\":20171:20302   */\n      tag_469\n        /* \"#utility.yul\":20297:20301   */\n      dup2\n        /* \"#utility.yul\":20171:20302   */\n      tag_264\n      jump\t// in\n    tag_469:\n        /* \"#utility.yul\":20163:20302   */\n      swap1\n      pop\n        /* \"#utility.yul\":19890:20309   */\n      swap2\n      swap1\n      pop\n      jump\t// out\n        /* \"#utility.yul\":20315:20497   */\n    tag_265:\n        /* \"#utility.yul\":20455:20489   */\n      0x63616e206e6f7420617070726f76616c20746f207a65726f2061646472657373\n        /* \"#utility.yul\":20451:20452   */\n      0x00\n        /* \"#utility.yul\":20443:20449   */\n      dup3\n        /* \"#utility.yul\":20439:20453   */\n      add\n        /* \"#utility.yul\":20432:20490   */\n      mstore\n        /* \"#utility.yul\":20315:20497   */\n      pop\n      jump\t// out\n        /* \"#utility.yul\":20503:20869   */\n    tag_266:\n        /* \"#utility.yul\":20645:20648   */\n      0x00\n        /* \"#utility.yul\":20666:20733   */\n      tag_472\n        /* \"#utility.yul\":20730:20732   */\n      0x20\n        /* \"#utility.yul\":20725:20728   */\n      dup4\n        /* \"#utility.yul\":20666:20733   */\n      tag_216\n      jump\t// in\n    tag_472:\n        /* \"#utility.yul\":20659:20733   */\n      swap2\n      pop\n        /* \"#utility.yul\":20742:20835   */\n      tag_473\n        /* \"#utility.yul\":20831:20834   */\n      dup3\n        /* \"#utility.yul\":20742:20835   */\n      tag_265\n      jump\t// in\n    tag_473:\n        /* \"#utility.yul\":20860:20862   */\n      0x20\n        /* \"#utility.yul\":20855:20858   */\n      dup3\n        /* \"#utility.yul\":20851:20863   */\n      add\n        /* \"#utility.yul\":20844:20863   */\n      swap1\n      pop\n        /* \"#utility.yul\":20503:20869   */\n      swap2\n      swap1\n      pop\n      jump\t// out\n        /* \"#utility.yul\":20875:21294   */\n    tag_156:\n        /* \"#utility.yul\":21041:21045   */\n      0x00\n        /* \"#utility.yul\":21079:21081   */\n      0x20\n        /* \"#utility.yul\":21068:21077   */\n      dup3\n        /* \"#utility.yul\":21064:21082   */\n      add\n        /* \"#utility.yul\":21056:21082   */\n      swap1\n      pop\n        /* \"#utility.yul\":21128:21137   */\n      dup2\n        /* \"#utility.yul\":21122:21126   */\n      dup2\n        /* \"#utility.yul\":21118:21138   */\n      sub\n        /* \"#utility.yul\":21114:21115   */\n      0x00\n        /* \"#utility.yul\":21103:21112   */\n      dup4\n        /* \"#utility.yul\":21099:21116   */\n      add\n        /* \"#utility.yul\":21092:21139   */\n      mstore\n        /* \"#utility.yul\":21156:21287   */\n      tag_475\n        /* \"#utility.yul\":21282:21286   */\n      dup2\n        /* \"#utility.yul\":21156:21287   */\n      tag_266\n      jump\t// in\n    tag_475:\n        /* \"#utility.yul\":21148:21287   */\n      swap1\n      pop\n        /* \"#utility.yul\":20875:21294   */\n      swap2\n      swap1\n      pop\n      jump\t// out\n        /* \"#utility.yul\":21300:21470   */\n    tag_267:\n        /* \"#utility.yul\":21440:21462   */\n      0x696e73756666696369656e742062616c616e6365000000000000000000000000\n        /* \"#utility.yul\":21436:21437   */\n      0x00\n        /* \"#utility.yul\":21428:21434   */\n      dup3\n        /* \"#utility.yul\":21424:21438   */\n      add\n        /* \"#utility.yul\":21417:21463   */\n      mstore\n        /* \"#utility.yul\":21300:21470   */\n      pop\n      jump\t// out\n        /* \"#utility.yul\":21476:21842   */\n    tag_268:\n        /* \"#utility.yul\":21618:21621   */\n      0x00\n        /* \"#utility.yul\":21639:21706   */\n      tag_478\n        /* \"#utility.yul\":21703:21705   */\n      0x14\n        /* \"#utility.yul\":21698:21701   */\n      dup4\n        /* \"#utility.yul\":21639:21706   */\n      tag_216\n      jump\t// in\n    tag_478:\n        /* \"#utility.yul\":21632:21706   */\n      swap2\n      pop\n        /* \"#utility.yul\":21715:21808   */\n      tag_479\n        /* \"#utility.yul\":21804:21807   */\n      dup3\n        /* \"#utility.yul\":21715:21808   */\n      tag_267\n      jump\t// in\n    tag_479:\n        /* \"#utility.yul\":21833:21835   */\n      0x20\n        /* \"#utility.yul\":21828:21831   */\n      dup3\n        /* \"#utility.yul\":21824:21836   */\n      add\n        /* \"#utility.yul\":21817:21836   */\n      swap1\n      pop\n        /* \"#utility.yul\":21476:21842   */\n      swap2\n      swap1\n      pop\n      jump\t// out\n        /* \"#utility.yul\":21848:22267   */\n    tag_159:\n        /* \"#utility.yul\":22014:22018   */\n      0x00\n        /* \"#utility.yul\":22052:22054   */\n      0x20\n        /* \"#utility.yul\":22041:22050   */\n      dup3\n        /* \"#utility.yul\":22037:22055   */\n      add\n        /* \"#utility.yul\":22029:22055   */\n      swap1\n      pop\n        /* \"#utility.yul\":22101:22110   */\n      dup2\n        /* \"#utility.yul\":22095:22099   */\n      dup2\n        /* \"#utility.yul\":22091:22111   */\n      sub\n        /* \"#utility.yul\":22087:22088   */\n      0x00\n        /* \"#utility.yul\":22076:22085   */\n      dup4\n        /* \"#utility.yul\":22072:22089   */\n      add\n        /* \"#utility.yul\":22065:22112   */\n      mstore\n        /* \"#utility.yul\":22129:22260   */\n      tag_481\n        /* \"#utility.yul\":22255:22259   */\n      dup2\n        /* \"#utility.yul\":22129:22260   */\n      tag_268\n      jump\t// in\n    tag_481:\n        /* \"#utility.yul\":22121:22260   */\n      swap1\n      pop\n        /* \"#utility.yul\":21848:22267   */\n      swap2\n      swap1\n      pop\n      jump\t// out\n        /* \"#utility.yul\":22273:22438   */\n    tag_269:\n        /* \"#utility.yul\":22413:22430   */\n      0x4c656e677468206d69736d617463680000000000000000000000000000000000\n        /* \"#utility.yul\":22409:22410   */\n      0x00\n        /* \"#utility.yul\":22401:22407   */\n      dup3\n        /* \"#utility.yul\":22397:22411   */\n      add\n        /* \"#utility.yul\":22390:22431   */\n      mstore\n        /* \"#utility.yul\":22273:22438   */\n      pop\n      jump\t// out\n        /* \"#utility.yul\":22444:22810   */\n    tag_270:\n        /* \"#utility.yul\":22586:22589   */\n      0x00\n        /* \"#utility.yul\":22607:22674   */\n      tag_484\n        /* \"#utility.yul\":22671:22673   */\n      0x0f\n        /* \"#utility.yul\":22666:22669   */\n      dup4\n        /* \"#utility.yul\":22607:22674   */\n      tag_216\n      jump\t// in\n    tag_484:\n        /* \"#utility.yul\":22600:22674   */\n      swap2\n      pop\n        /* \"#utility.yul\":22683:22776   */\n      tag_485\n        /* \"#utility.yul\":22772:22775   */\n      dup3\n        /* \"#utility.yul\":22683:22776   */\n      tag_269\n      jump\t// in\n    tag_485:\n        /* \"#utility.yul\":22801:22803   */\n      0x20\n        /* \"#utility.yul\":22796:22799   */\n      dup3\n        /* \"#utility.yul\":22792:22804   */\n      add\n        /* \"#utility.yul\":22785:22804   */\n      swap1\n      pop\n        /* \"#utility.yul\":22444:22810   */\n      swap2\n      swap1\n      pop\n      jump\t// out\n        /* \"#utility.yul\":22816:23235   */\n    tag_168:\n        /* \"#utility.yul\":22982:22986   */\n      0x00\n        /* \"#utility.yul\":23020:23022   */\n      0x20\n        /* \"#utility.yul\":23009:23018   */\n      dup3\n        /* \"#utility.yul\":23005:23023   */\n      add\n        /* \"#utility.yul\":22997:23023   */\n      swap1\n      pop\n        /* \"#utility.yul\":23069:23078   */\n      dup2\n        /* \"#utility.yul\":23063:23067   */\n      dup2\n        /* \"#utility.yul\":23059:23079   */\n      sub\n        /* \"#utility.yul\":23055:23056   */\n      0x00\n        /* \"#utility.yul\":23044:23053   */\n      dup4\n        /* \"#utility.yul\":23040:23057   */\n      add\n        /* \"#utility.yul\":23033:23080   */\n      mstore\n        /* \"#utility.yul\":23097:23228   */\n      tag_487\n        /* \"#utility.yul\":23223:23227   */\n      dup2\n        /* \"#utility.yul\":23097:23228   */\n      tag_270\n      jump\t// in\n    tag_487:\n        /* \"#utility.yul\":23089:23228   */\n      swap1\n      pop\n        /* \"#utility.yul\":22816:23235   */\n      swap2\n      swap1\n      pop\n      jump\t// out\n        /* \"#utility.yul\":23241:23406   */\n    tag_271:\n        /* \"#utility.yul\":23381:23398   */\n      0x426174636820746f6f206c617267650000000000000000000000000000000000\n        /* \"#utility.yul\":23377:23378   */\n      0x00\n        /* \"#utility.yul\":23369:23375   */\n      dup3\n        /* \"#utility.yul\":23365:23379   */\n      add\n        /* \"#utility.yul\":23358:23399   */\n      mstore\n        /* \"#utility.yul\":23241:23406   */\n      pop\n      jump\t// out\n        /* \"#utility.yul\":23412:23778   */\n    tag_272:\n        /* \"#utility.yul\":23554:23557   */\n      0x00\n        /* \"#utility.yul\":23575:23642   */\n      tag_490\n        /* \"#utility.yul\":23639:23641   */\n      0x0f\n        /* \"#utility.yul\":23634:23637   */\n      dup4\n        /* \"#utility.yul\":23575:23642   */\n      tag_216\n      jump\t// in\n    tag_490:\n        /* \"#utility.yul\":23568:23642   */\n      swap2\n      pop\n        /* \"#utility.yul\":23651:23744   */\n      tag_491\n        /* \"#utility.yul\":23740:23743   */\n      dup3\n        /* \"#utility.yul\":23651:23744   */\n      tag_271\n      jump\t// in\n    tag_491:\n        /* \"#utility.yul\":23769:23771   */\n      0x20\n        /* \"#utility.yul\":23764:23767   */\n      dup3\n        /* \"#utility.yul\":23760:23772   */\n      add\n        /* \"#utility.yul\":23753:23772   */\n      swap1\n      pop\n        /* \"#utility.yul\":23412:23778   */\n      swap2\n      swap1\n      pop\n      jump\t// out\n        /* \"#utility.yul\":23784:24203   */\n    tag_171:\n        /* \"#utility.yul\":23950:23954   */\n      0x00\n        /* \"#utility.yul\":23988:23990   */\n      0x20\n        /* \"#utility.yul\":23977:23986   */\n      dup3\n        /* \"#utility.yul\":23973:23991   */\n      add\n        /* \"#utility.yul\":23965:23991   */\n      swap1\n      pop\n        /* \"#utility.yul\":24037:24046   */\n      dup2\n        /* \"#utility.yul\":24031:24035   */\n      dup2\n        /* \"#utility.yul\":24027:24047   */\n      sub\n        /* \"#utility.yul\":24023:24024   */\n      0x00\n        /* \"#utility.yul\":24012:24021   */\n      dup4\n        /* \"#utility.yul\":24008:24025   */\n      add\n        /* \"#utility.yul\":24001:24048   */\n      mstore\n        /* \"#utility.yul\":24065:24196   */\n      tag_493\n        /* \"#utility.yul\":24191:24195   */\n      dup2\n        /* \"#utility.yul\":24065:24196   */\n      tag_272\n      jump\t// in\n    tag_493:\n        /* \"#utility.yul\":24057:24196   */\n      swap1\n      pop\n        /* \"#utility.yul\":23784:24203   */\n      swap2\n      swap1\n      pop\n      jump\t// out\n        /* \"#utility.yul\":24209:24389   */\n    tag_177:\n        /* \"#utility.yul\":24257:24334   */\n      0x4e487b7100000000000000000000000000000000000000000000000000000000\n        /* \"#utility.yul\":24254:24255   */\n      0x00\n        /* \"#utility.yul\":24247:24335   */\n      mstore\n        /* \"#utility.yul\":24354:24358   */\n      0x32\n        /* \"#utility.yul\":24351:24352   */\n      0x04\n        /* \"#utility.yul\":24344:24359   */\n      mstore\n        /* \"#utility.yul\":24378:24382   */\n      0x24\n        /* \"#utility.yul\":24375:24376   */\n      0x00\n        /* \"#utility.yul\":24368:24383   */\n      revert\n        /* \"#utility.yul\":24395:24565   */\n    tag_273:\n        /* \"#utility.yul\":24535:24557   */\n      0x496e73756666696369656e742062616c616e6365000000000000000000000000\n        /* \"#utility.yul\":24531:24532   */\n      0x00\n        /* \"#utility.yul\":24523:24529   */\n      dup3\n        /* \"#utility.yul\":24519:24533   */\n      add\n        /* \"#utility.yul\":24512:24558   */\n      mstore\n        /* \"#utility.yul\":24395:24565   */\n      pop\n      jump\t// out\n        /* \"#utility.yul\":24571:24937   */\n    tag_274:\n        /* \"#utility.yul\":24713:24716   */\n      0x00\n        /* \"#utility.yul\":24734:24801   */\n      tag_497\n        /* \"#utility.yul\":24798:24800   */\n      0x14\n        /* \"#utility.yul\":24793:24796   */\n      dup4\n        /* \"#utility.yul\":24734:24801   */\n      tag_216\n      jump\t// in\n    tag_497:\n        /* \"#utility.yul\":24727:24801   */\n      swap2\n      pop\n        /* \"#utility.yul\":24810:24903   */\n      tag_498\n        /* \"#utility.yul\":24899:24902   */\n      dup3\n        /* \"#utility.yul\":24810:24903   */\n      tag_273\n      jump\t// in\n    tag_498:\n        /* \"#utility.yul\":24928:24930   */\n      0x20\n        /* \"#utility.yul\":24923:24926   */\n      dup3\n        /* \"#utility.yul\":24919:24931   */\n      add\n        /* \"#utility.yul\":24912:24931   */\n      swap1\n      pop\n        /* \"#utility.yul\":24571:24937   */\n      swap2\n      swap1\n      pop\n      jump\t// out\n        /* \"#utility.yul\":24943:25362   */\n    tag_181:\n        /* \"#utility.yul\":25109:25113   */\n      0x00\n        /* \"#utility.yul\":25147:25149   */\n      0x20\n        /* \"#utility.yul\":25136:25145   */\n      dup3\n        /* \"#utility.yul\":25132:25150   */\n      add\n        /* \"#utility.yul\":25124:25150   */\n      swap1\n      pop\n        /* \"#utility.yul\":25196:25205   */\n      dup2\n        /* \"#utility.yul\":25190:25194   */\n      dup2\n        /* \"#utility.yul\":25186:25206   */\n      sub\n        /* \"#utility.yul\":25182:25183   */\n      0x00\n        /* \"#utility.yul\":25171:25180   */\n      dup4\n        /* \"#utility.yul\":25167:25184   */\n      add\n        /* \"#utility.yul\":25160:25207   */\n      mstore\n        /* \"#utility.yul\":25224:25355   */\n      tag_500\n        /* \"#utility.yul\":25350:25354   */\n      dup2\n        /* \"#utility.yul\":25224:25355   */\n      tag_274\n      jump\t// in\n    tag_500:\n        /* \"#utility.yul\":25216:25355   */\n      swap1\n      pop\n        /* \"#utility.yul\":24943:25362   */\n      swap2\n      swap1\n      pop\n      jump\t// out\n        /* \"#utility.yul\":25368:25550   */\n    tag_275:\n        /* \"#utility.yul\":25508:25542   */\n      0x63616e206e6f74207472616e7366657220746f207a65726f2061646472657373\n        /* \"#utility.yul\":25504:25505   */\n      0x00\n        /* \"#utility.yul\":25496:25502   */\n      dup3\n        /* \"#utility.yul\":25492:25506   */\n      add\n        /* \"#utility.yul\":25485:25543   */\n      mstore\n        /* \"#utility.yul\":25368:25550   */\n      pop\n      jump\t// out\n        /* \"#utility.yul\":25556:25922   */\n    tag_276:\n        /* \"#utility.yul\":25698:25701   */\n      0x00\n        /* \"#utility.yul\":25719:25786   */\n      tag_503\n        /* \"#utility.yul\":25783:25785   */\n      0x20\n        /* \"#utility.yul\":25778:25781   */\n      dup4\n        /* \"#utility.yul\":25719:25786   */\n      tag_216\n      jump\t// in\n    tag_503:\n        /* \"#utility.yul\":25712:25786   */\n      swap2\n      pop\n        /* \"#utility.yul\":25795:25888   */\n      tag_504\n        /* \"#utility.yul\":25884:25887   */\n      dup3\n        /* \"#utility.yul\":25795:25888   */\n      tag_275\n      jump\t// in\n    tag_504:\n        /* \"#utility.yul\":25913:25915   */\n      0x20\n        /* \"#utility.yul\":25908:25911   */\n      dup3\n        /* \"#utility.yul\":25904:25916   */\n      add\n        /* \"#utility.yul\":25897:25916   */\n      swap1\n      pop\n        /* \"#utility.yul\":25556:25922   */\n      swap2\n      swap1\n      pop\n      jump\t// out\n        /* \"#utility.yul\":25928:26347   */\n    tag_209:\n        /* \"#utility.yul\":26094:26098   */\n      0x00\n        /* \"#utility.yul\":26132:26134   */\n      0x20\n        /* \"#utility.yul\":26121:26130   */\n      dup3\n        /* \"#utility.yul\":26117:26135   */\n      add\n        /* \"#utility.yul\":26109:26135   */\n      swap1\n      pop\n        /* \"#utility.yul\":26181:26190   */\n      dup2\n        /* \"#utility.yul\":26175:26179   */\n      dup2\n        /* \"#utility.yul\":26171:26191   */\n      sub\n        /* \"#utility.yul\":26167:26168   */\n      0x00\n        /* \"#utility.yul\":26156:26165   */\n      dup4\n        /* \"#utility.yul\":26152:26169   */\n      add\n        /* \"#utility.yul\":26145:26192   */\n      mstore\n        /* \"#utility.yul\":26209:26340   */\n      tag_506\n        /* \"#utility.yul\":26335:26339   */\n      dup2\n        /* \"#utility.yul\":26209:26340   */\n      tag_276\n      jump\t// in\n    tag_506:\n        /* \"#utility.yul\":26201:26340   */\n      swap1\n      pop\n        /* \"#utility.yul\":25928:26347   */\n      swap2\n      swap1\n      pop\n      jump\t// out\n\n    auxdata: 0xa26469706673582212206970636da592b17222d63bef20e79083ad465f91e01eb49255c45e4c4bff700f64736f6c63430008160033\n}\n",
				"bytecode": {
					"linkReferences": {},
					"object": "60806040526040518060400160405280600981526020017f43687020546f6b656e0000000000000000000000000000000000000000000000815250600090816200004a919062000398565b506040518060400160405280600381526020017f43544b00000000000000000000000000000000000000000000000000000000008152506001908162000091919062000398565b506012600260006101000a81548160ff021916908360ff1602179055506000600660146101000a81548160ff021916908315150217905550348015620000d657600080fd5b5033600660006101000a81548173ffffffffffffffffffffffffffffffffffffffff021916908373ffffffffffffffffffffffffffffffffffffffff1602179055506200047f565b600081519050919050565b7f4e487b7100000000000000000000000000000000000000000000000000000000600052604160045260246000fd5b7f4e487b7100000000000000000000000000000000000000000000000000000000600052602260045260246000fd5b60006002820490506001821680620001a057607f821691505b602082108103620001b657620001b562000158565b5b50919050565b60008190508160005260206000209050919050565b60006020601f8301049050919050565b600082821b905092915050565b600060088302620002207fffffffffffffffffffffffffffffffffffffffffffffffffffffffffffffffff82620001e1565b6200022c8683620001e1565b95508019841693508086168417925050509392505050565b6000819050919050565b6000819050919050565b600062000279620002736200026d8462000244565b6200024e565b62000244565b9050919050565b6000819050919050565b620002958362000258565b620002ad620002a48262000280565b848454620001ee565b825550505050565b600090565b620002c4620002b5565b620002d18184846200028a565b505050565b5b81811015620002f957620002ed600082620002ba565b600181019050620002d7565b5050565b601f82111562000348576200031281620001bc565b6200031d84620001d1565b810160208510156200032d578190505b620003456200033c85620001d1565b830182620002d6565b50505b505050565b600082821c905092915050565b60006200036d600019846008026200034d565b1980831691505092915050565b60006200038883836200035a565b9150826002028217905092915050565b620003a3826200011e565b67ffffffffffffffff811115620003bf57620003be62000129565b5b620003cb825462000187565b620003d8828285620002fd565b600060209050601f831160018114620004105760008415620003fb578287015190505b6200040785826200037a565b86555062000477565b601f1984166200042086620001bc565b60005b828110156200044a5784890151825560018201915060208501945060208101905062000423565b868310156200046a578489015162000466601f8916826200035a565b8355505b6001600288020188555050505b505050505050565b6121bc806200048f6000396000f3fe6080604052600436106100f35760003560e01c806370a082311161008a5780638da5cb5b116100595780638da5cb5b1461034057806395d89b411461036b578063a9059cbb14610396578063dd62ed3e146103c6576100f3565b806370a082311461027257806375247a58146102af5780638456cb59146102ec57806388d695b214610303576100f3565b80633f4ba83a116100c65780633f4ba83a146101b657806340c10f19146101cd57806342966c681461020a5780635c975abb14610247576100f3565b806306fdde03146100f857806318160ddd1461012357806323b872dd1461014e578063313ce5671461018b575b600080fd5b34801561010457600080fd5b5061010d610403565b60405161011a9190611506565b60405180910390f35b34801561012f57600080fd5b50610138610491565b6040516101459190611541565b60405180910390f35b34801561015a57600080fd5b50610175600480360381019061017091906115fa565b610497565b6040516101829190611668565b60405180910390f35b34801561019757600080fd5b506101a061088d565b6040516101ad919061169f565b60405180910390f35b3480156101c257600080fd5b506101cb6108a0565b005b3480156101d957600080fd5b506101f460048036038101906101ef91906116ba565b61094d565b6040516102019190611668565b60405180910390f35b34801561021657600080fd5b50610231600480360381019061022c91906116fa565b610a72565b60405161023e9190611668565b60405180910390f35b34801561025357600080fd5b5061025c610baa565b6040516102699190611668565b60405180910390f35b34801561027e57600080fd5b5061029960048036038101906102949190611727565b610bbd565b6040516102a69190611541565b60405180910390f35b3480156102bb57600080fd5b506102d660048036038101906102d191906116ba565b610bd5565b6040516102e39190611668565b60405180910390f35b3480156102f857600080fd5b50610301610dde565b005b34801561030f57600080fd5b5061032a6004803603810190610325919061195f565b610e8b565b6040516103379190611668565b60405180910390f35b34801561034c57600080fd5b50610355611169565b60405161036291906119e6565b60405180910390f35b34801561037757600080fd5b5061038061118f565b60405161038d9190611506565b60405180910390f35b6103b060048036038101906103ab91906116ba565b61121d565b6040516103bd9190611668565b60405180910390f35b3480156103d257600080fd5b506103ed60048036038101906103e89190611a01565b611451565b6040516103fa9190611541565b60405180910390f35b6000805461041090611a70565b80601f016020809104026020016040519081016040528092919081815260200182805461043c90611a70565b80156104895780601f1061045e57610100808354040283529160200191610489565b820191906000526020600020905b81548152906001019060200180831161046c57829003601f168201915b505050505081565b60035481565b6000600660149054906101000a900460ff16156104e9576040517f08c379a00000000000000000000000000000000000000000000000000000000081526004016104e090611aed565b60405180910390fd5b600073ffffffffffffffffffffffffffffffffffffffff168473ffffffffffffffffffffffffffffffffffffffff1603610558576040517f08c379a000000000000000000000000000000000000000000000000000000000815260040161054f90611b59565b60405180910390fd5b600073ffffffffffffffffffffffffffffffffffffffff168373ffffffffffffffffffffffffffffffffffffffff16036105c7576040517f08c379a00000000000000000000000000000000000000000000000000000000081526004016105be90611bc5565b60405180910390fd5b81600460008673ffffffffffffffffffffffffffffffffffffffff1673ffffffffffffffffffffffffffffffffffffffff168152602001908152602001600020541015610649576040517f08c379a000000000000000000000000000000000000000000000000000000000815260040161064090611c31565b60405180910390fd5b81600560008673ffffffffffffffffffffffffffffffffffffffff1673ffffffffffffffffffffffffffffffffffffffff16815260200190815260200160002060003373ffffffffffffffffffffffffffffffffffffffff1673ffffffffffffffffffffffffffffffffffffffff168152602001908152602001600020541015610708576040517f08c379a00000000000000000000000000000000000000000000000000000000081526004016106ff90611c9d565b60405180910390fd5b81600460008673ffffffffffffffffffffffffffffffffffffffff1673ffffffffffffffffffffffffffffffffffffffff16815260200190815260200160002060008282546107579190611cec565b9250508190555081600460008573ffffffffffffffffffffffffffffffffffffffff1673ffffffffffffffffffffffffffffffffffffffff16815260200190815260200160002060008282546107ad9190611d20565b9250508190555081600560008673ffffffffffffffffffffffffffffffffffffffff1673ffffffffffffffffffffffffffffffffffffffff16815260200190815260200160002060003373ffffffffffffffffffffffffffffffffffffffff1673ffffffffffffffffffffffffffffffffffffffff16815260200190815260200160002060008282546108409190611cec565b925050819055507fc0d84ce5c7ff9ca21adb0f8436ff3f4951b4bb78c4e2fae2b6837958b3946ffd84848460405161087a93929190611d54565b60405180910390a1600190509392505050565b600260009054906101000a900460ff1681565b600660009054906101000a900473ffffffffffffffffffffffffffffffffffffffff1673ffffffffffffffffffffffffffffffffffffffff163373ffffffffffffffffffffffffffffffffffffffff1614610930576040517f08c379a000000000000000000000000000000000000000000000000000000000815260040161092790611dd7565b60405180910390fd5b6000600660146101000a81548160ff021916908315150217905550565b60008073ffffffffffffffffffffffffffffffffffffffff168373ffffffffffffffffffffffffffffffffffffffff16036109bd576040517f08c379a00000000000000000000000000000000000000000000000000000000081526004016109b490611e43565b60405180910390fd5b81600360008282546109cf9190611d20565b9250508190555081600460008573ffffffffffffffffffffffffffffffffffffffff1673ffffffffffffffffffffffffffffffffffffffff1681526020019081526020016000206000828254610a259190611d20565b925050819055507fddf252ad1be2c89b69c2b068fc378daa952ba7f163c4a11628f55a4df523b3ef60008484604051610a6093929190611d54565b60405180910390a16001905092915050565b600081600460003373ffffffffffffffffffffffffffffffffffffffff1673ffffffffffffffffffffffffffffffffffffffff168152602001908152602001600020541015610af6576040517f08c379a0000000000000000000000000000000000000000000000000000000008152600401610aed90611eaf565b60405180910390fd5b8160036000828254610b089190611cec565b9250508190555081600460003373ffffffffffffffffffffffffffffffffffffffff1673ffffffffffffffffffffffffffffffffffffffff1681526020019081526020016000206000828254610b5e9190611cec565b925050819055507fddf252ad1be2c89b69c2b068fc378daa952ba7f163c4a11628f55a4df523b3ef33600084604051610b9993929190611d54565b60405180910390a160019050919050565b600660149054906101000a900460ff1681565b60046020528060005260406000206000915090505481565b6000600660149054906101000a900460ff1615610c27576040517f08c379a0000000000000000000000000000000000000000000000000000000008152600401610c1e90611aed565b60405180910390fd5b600073ffffffffffffffffffffffffffffffffffffffff168373ffffffffffffffffffffffffffffffffffffffff1603610c96576040517f08c379a0000000000000000000000000000000000000000000000000000000008152600401610c8d90611f1b565b60405180910390fd5b81600460003373ffffffffffffffffffffffffffffffffffffffff1673ffffffffffffffffffffffffffffffffffffffff168152602001908152602001600020541015610d18576040517f08c379a0000000000000000000000000000000000000000000000000000000008152600401610d0f90611f87565b60405180910390fd5b81600560003373ffffffffffffffffffffffffffffffffffffffff1673ffffffffffffffffffffffffffffffffffffffff16815260200190815260200160002060008573ffffffffffffffffffffffffffffffffffffffff1673ffffffffffffffffffffffffffffffffffffffff168152602001908152602001600020819055507f8c5be1e5ebec7d5bd14f71427d1e84f3dd0314c0f7b2291e5b200ac8c7c3b925338484604051610dcc93929190611d54565b60405180910390a16001905092915050565b600660009054906101000a900473ffffffffffffffffffffffffffffffffffffffff1673ffffffffffffffffffffffffffffffffffffffff163373ffffffffffffffffffffffffffffffffffffffff1614610e6e576040517f08c379a0000000000000000000000000000000000000000000000000000000008152600401610e6590611dd7565b60405180910390fd5b6001600660146101000a81548160ff021916908315150217905550565b60008151835114610ed1576040517f08c379a0000000000000000000000000000000000000000000000000000000008152600401610ec890611ff3565b60405180910390fd5b603283511115610f16576040517f08c379a0000000000000000000000000000000000000000000000000000000008152600401610f0d9061205f565b60405180910390fd5b6000805b8351811015610f5857838181518110610f3657610f3561207f565b5b602002602001015182610f499190611d20565b91508080600101915050610f1a565b5080600460003373ffffffffffffffffffffffffffffffffffffffff1673ffffffffffffffffffffffffffffffffffffffff168152602001908152602001600020541015610fdb576040517f08c379a0000000000000000000000000000000000000000000000000000000008152600401610fd2906120fa565b60405180910390fd5b60005b845181101561115d57838181518110610ffa57610ff961207f565b5b6020026020010151600460003373ffffffffffffffffffffffffffffffffffffffff1673ffffffffffffffffffffffffffffffffffffffff16815260200190815260200160002060008282546110509190611cec565b9250508190555083818151811061106a5761106961207f565b5b6020026020010151600460008784815181106110895761108861207f565b5b602002602001015173ffffffffffffffffffffffffffffffffffffffff1673ffffffffffffffffffffffffffffffffffffffff16815260200190815260200160002060008282546110da9190611d20565b925050819055507fddf252ad1be2c89b69c2b068fc378daa952ba7f163c4a11628f55a4df523b3ef338683815181106111165761111561207f565b5b60200260200101518684815181106111315761113061207f565b5b602002602001015160405161114893929190611d54565b60405180910390a18080600101915050610fde565b50600191505092915050565b600660009054906101000a900473ffffffffffffffffffffffffffffffffffffffff1681565b6001805461119c90611a70565b80601f01602080910402602001604051908101604052809291908181526020018280546111c890611a70565b80156112155780601f106111ea57610100808354040283529160200191611215565b820191906000526020600020905b8154815290600101906020018083116111f857829003601f168201915b505050505081565b6000600660149054906101000a900460ff161561126f576040517f08c379a000000000000000000000000000000000000000000000000000000000815260040161126690611aed565b60405180910390fd5b600073ffffffffffffffffffffffffffffffffffffffff168373ffffffffffffffffffffffffffffffffffffffff16036112de576040517f08c379a00000000000000000000000000000000000000000000000000000000081526004016112d590612166565b60405180910390fd5b81600460003373ffffffffffffffffffffffffffffffffffffffff1673ffffffffffffffffffffffffffffffffffffffff168152602001908152602001600020541015611360576040517f08c379a000000000000000000000000000000000000000000000000000000000815260040161135790611f87565b60405180910390fd5b81600460003373ffffffffffffffffffffffffffffffffffffffff1673ffffffffffffffffffffffffffffffffffffffff16815260200190815260200160002060008282546113af9190611cec565b9250508190555081600460008573ffffffffffffffffffffffffffffffffffffffff1673ffffffffffffffffffffffffffffffffffffffff16815260200190815260200160002060008282546114059190611d20565b925050819055507fddf252ad1be2c89b69c2b068fc378daa952ba7f163c4a11628f55a4df523b3ef33848460405161143f93929190611d54565b60405180910390a16001905092915050565b6005602052816000526040600020602052806000526040600020600091509150505481565b600081519050919050565b600082825260208201905092915050565b60005b838110156114b0578082015181840152602081019050611495565b60008484015250505050565b6000601f19601f8301169050919050565b60006114d882611476565b6114e28185611481565b93506114f2818560208601611492565b6114fb816114bc565b840191505092915050565b6000602082019050818103600083015261152081846114cd565b905092915050565b6000819050919050565b61153b81611528565b82525050565b60006020820190506115566000830184611532565b92915050565b6000604051905090565b600080fd5b600080fd5b600073ffffffffffffffffffffffffffffffffffffffff82169050919050565b600061159b82611570565b9050919050565b6115ab81611590565b81146115b657600080fd5b50565b6000813590506115c8816115a2565b92915050565b6115d781611528565b81146115e257600080fd5b50565b6000813590506115f4816115ce565b92915050565b60008060006060848603121561161357611612611566565b5b6000611621868287016115b9565b9350506020611632868287016115b9565b9250506040611643868287016115e5565b9150509250925092565b60008115159050919050565b6116628161164d565b82525050565b600060208201905061167d6000830184611659565b92915050565b600060ff82169050919050565b61169981611683565b82525050565b60006020820190506116b46000830184611690565b92915050565b600080604083850312156116d1576116d0611566565b5b60006116df858286016115b9565b92505060206116f0858286016115e5565b9150509250929050565b6000602082840312156117105761170f611566565b5b600061171e848285016115e5565b91505092915050565b60006020828403121561173d5761173c611566565b5b600061174b848285016115b9565b91505092915050565b600080fd5b7f4e487b7100000000000000000000000000000000000000000000000000000000600052604160045260246000fd5b611791826114bc565b810181811067ffffffffffffffff821117156117b0576117af611759565b5b80604052505050565b60006117c361155c565b90506117cf8282611788565b919050565b600067ffffffffffffffff8211156117ef576117ee611759565b5b602082029050602081019050919050565b600080fd5b6000611818611813846117d4565b6117b9565b9050808382526020820190506020840283018581111561183b5761183a611800565b5b835b81811015611864578061185088826115b9565b84526020840193505060208101905061183d565b5050509392505050565b600082601f83011261188357611882611754565b5b8135611893848260208601611805565b91505092915050565b600067ffffffffffffffff8211156118b7576118b6611759565b5b602082029050602081019050919050565b60006118db6118d68461189c565b6117b9565b905080838252602082019050602084028301858111156118fe576118fd611800565b5b835b81811015611927578061191388826115e5565b845260208401935050602081019050611900565b5050509392505050565b600082601f83011261194657611945611754565b5b81356119568482602086016118c8565b91505092915050565b6000806040838503121561197657611975611566565b5b600083013567ffffffffffffffff8111156119945761199361156b565b5b6119a08582860161186e565b925050602083013567ffffffffffffffff8111156119c1576119c061156b565b5b6119cd85828601611931565b9150509250929050565b6119e081611590565b82525050565b60006020820190506119fb60008301846119d7565b92915050565b60008060408385031215611a1857611a17611566565b5b6000611a26858286016115b9565b9250506020611a37858286016115b9565b9150509250929050565b7f4e487b7100000000000000000000000000000000000000000000000000000000600052602260045260246000fd5b60006002820490506001821680611a8857607f821691505b602082108103611a9b57611a9a611a41565b5b50919050565b7f436f6e7472616374206973207061757365640000000000000000000000000000600082015250565b6000611ad7601283611481565b9150611ae282611aa1565b602082019050919050565b60006020820190508181036000830152611b0681611aca565b9050919050565b7f66726f6d205a65726f0000000000000000000000000000000000000000000000600082015250565b6000611b43600983611481565b9150611b4e82611b0d565b602082019050919050565b60006020820190508181036000830152611b7281611b36565b9050919050565b7f746f205a65726f00000000000000000000000000000000000000000000000000600082015250565b6000611baf600783611481565b9150611bba82611b79565b602082019050919050565b60006020820190508181036000830152611bde81611ba2565b9050919050565b7f496e73756666696369656e742042616c616e6365000000000000000000000000600082015250565b6000611c1b601483611481565b9150611c2682611be5565b602082019050919050565b60006020820190508181036000830152611c4a81611c0e565b9050919050565b7f496e73756666696369656e7420616c6c6f77616e636500000000000000000000600082015250565b6000611c87601683611481565b9150611c9282611c51565b602082019050919050565b60006020820190508181036000830152611cb681611c7a565b9050919050565b7f4e487b7100000000000000000000000000000000000000000000000000000000600052601160045260246000fd5b6000611cf782611528565b9150611d0283611528565b9250828203905081811115611d1a57611d19611cbd565b5b92915050565b6000611d2b82611528565b9150611d3683611528565b9250828201905080821115611d4e57611d4d611cbd565b5b92915050565b6000606082019050611d6960008301866119d7565b611d7660208301856119d7565b611d836040830184611532565b949350505050565b7f4f6e6c79206f776e65722063616e206f7065726174696f6e0000000000000000600082015250565b6000611dc1601883611481565b9150611dcc82611d8b565b602082019050919050565b60006020820190508181036000830152611df081611db4565b9050919050565b7f43616e6e6f74206d696e7420746f207a65726f20616464726573730000000000600082015250565b6000611e2d601b83611481565b9150611e3882611df7565b602082019050919050565b60006020820190508181036000830152611e5c81611e20565b9050919050565b7f496e73756666696369656e742062616c616e636520746f206275726e00000000600082015250565b6000611e99601c83611481565b9150611ea482611e63565b602082019050919050565b60006020820190508181036000830152611ec881611e8c565b9050919050565b7f63616e206e6f7420617070726f76616c20746f207a65726f2061646472657373600082015250565b6000611f05602083611481565b9150611f1082611ecf565b602082019050919050565b60006020820190508181036000830152611f3481611ef8565b9050919050565b7f696e73756666696369656e742062616c616e6365000000000000000000000000600082015250565b6000611f71601483611481565b9150611f7c82611f3b565b602082019050919050565b60006020820190508181036000830152611fa081611f64565b9050919050565b7f4c656e677468206d69736d617463680000000000000000000000000000000000600082015250565b6000611fdd600f83611481565b9150611fe882611fa7565b602082019050919050565b6000602082019050818103600083015261200c81611fd0565b9050919050565b7f426174636820746f6f206c617267650000000000000000000000000000000000600082015250565b6000612049600f83611481565b915061205482612013565b602082019050919050565b600060208201905081810360008301526120788161203c565b9050919050565b7f4e487b7100000000000000000000000000000000000000000000000000000000600052603260045260246000fd5b7f496e73756666696369656e742062616c616e6365000000000000000000000000600082015250565b60006120e4601483611481565b91506120ef826120ae565b602082019050919050565b60006020820190508181036000830152612113816120d7565b9050919050565b7f63616e206e6f74207472616e7366657220746f207a65726f2061646472657373600082015250565b6000612150602083611481565b915061215b8261211a565b602082019050919050565b6000602082019050818103600083015261217f81612143565b905091905056fea26469706673582212206970636da592b17222d63bef20e79083ad465f91e01eb49255c45e4c4bff700f64736f6c63430008160033",
					"opcodes": "PUSH1 0x80 PUSH1 0x40 MSTORE PUSH1 0x40 MLOAD DUP1 PUSH1 0x40 ADD PUSH1 0x40 MSTORE DUP1 PUSH1 0x9 DUP2 MSTORE PUSH1 0x20 ADD PUSH32 0x43687020546F6B656E0000000000000000000000000000000000000000000000 DUP2 MSTORE POP PUSH1 0x0 SWAP1 DUP2 PUSH3 0x4A SWAP2 SWAP1 PUSH3 0x398 JUMP JUMPDEST POP PUSH1 0x40 MLOAD DUP1 PUSH1 0x40 ADD PUSH1 0x40 MSTORE DUP1 PUSH1 0x3 DUP2 MSTORE PUSH1 0x20 ADD PUSH32 0x43544B0000000000000000000000000000000000000000000000000000000000 DUP2 MSTORE POP PUSH1 0x1 SWAP1 DUP2 PUSH3 0x91 SWAP2 SWAP1 PUSH3 0x398 JUMP JUMPDEST POP PUSH1 0x12 PUSH1 0x2 PUSH1 0x0 PUSH2 0x100 EXP DUP2 SLOAD DUP2 PUSH1 0xFF MUL NOT AND SWAP1 DUP4 PUSH1 0xFF AND MUL OR SWAP1 SSTORE POP PUSH1 0x0 PUSH1 0x6 PUSH1 0x14 PUSH2 0x100 EXP DUP2 SLOAD DUP2 PUSH1 0xFF MUL NOT AND SWAP1 DUP4 ISZERO ISZERO MUL OR SWAP1 SSTORE POP CALLVALUE DUP1 ISZERO PUSH3 0xD6 JUMPI PUSH1 0x0 DUP1 REVERT JUMPDEST POP CALLER PUSH1 0x6 PUSH1 0x0 PUSH2 0x100 EXP DUP2 SLOAD DUP2 PUSH20 0xFFFFFFFFFFFFFFFFFFFFFFFFFFFFFFFFFFFFFFFF MUL NOT AND SWAP1 DUP4 PUSH20 0xFFFFFFFFFFFFFFFFFFFFFFFFFFFFFFFFFFFFFFFF AND MUL OR SWAP1 SSTORE POP PUSH3 0x47F JUMP JUMPDEST PUSH1 0x0 DUP2 MLOAD SWAP1 POP SWAP2 SWAP1 POP JUMP JUMPDEST PUSH32 0x4E487B7100000000000000000000000000000000000000000000000000000000 PUSH1 0x0 MSTORE PUSH1 0x41 PUSH1 0x4 MSTORE PUSH1 0x24 PUSH1 0x0 REVERT JUMPDEST PUSH32 0x4E487B7100000000000000000000000000000000000000000000000000000000 PUSH1 0x0 MSTORE PUSH1 0x22 PUSH1 0x4 MSTORE PUSH1 0x24 PUSH1 0x0 REVERT JUMPDEST PUSH1 0x0 PUSH1 0x2 DUP3 DIV SWAP1 POP PUSH1 0x1 DUP3 AND DUP1 PUSH3 0x1A0 JUMPI PUSH1 0x7F DUP3 AND SWAP2 POP JUMPDEST PUSH1 0x20 DUP3 LT DUP2 SUB PUSH3 0x1B6 JUMPI PUSH3 0x1B5 PUSH3 0x158 JUMP JUMPDEST JUMPDEST POP SWAP2 SWAP1 POP JUMP JUMPDEST PUSH1 0x0 DUP2 SWAP1 POP DUP2 PUSH1 0x0 MSTORE PUSH1 0x20 PUSH1 0x0 KECCAK256 SWAP1 POP SWAP2 SWAP1 POP JUMP JUMPDEST PUSH1 0x0 PUSH1 0x20 PUSH1 0x1F DUP4 ADD DIV SWAP1 POP SWAP2 SWAP1 POP JUMP JUMPDEST PUSH1 0x0 DUP3 DUP3 SHL SWAP1 POP SWAP3 SWAP2 POP POP JUMP JUMPDEST PUSH1 0x0 PUSH1 0x8 DUP4 MUL PUSH3 0x220 PUSH32 0xFFFFFFFFFFFFFFFFFFFFFFFFFFFFFFFFFFFFFFFFFFFFFFFFFFFFFFFFFFFFFFFF DUP3 PUSH3 0x1E1 JUMP JUMPDEST PUSH3 0x22C DUP7 DUP4 PUSH3 0x1E1 JUMP JUMPDEST SWAP6 POP DUP1 NOT DUP5 AND SWAP4 POP DUP1 DUP7 AND DUP5 OR SWAP3 POP POP POP SWAP4 SWAP3 POP POP POP JUMP JUMPDEST PUSH1 0x0 DUP2 SWAP1 POP SWAP2 SWAP1 POP JUMP JUMPDEST PUSH1 0x0 DUP2 SWAP1 POP SWAP2 SWAP1 POP JUMP JUMPDEST PUSH1 0x0 PUSH3 0x279 PUSH3 0x273 PUSH3 0x26D DUP5 PUSH3 0x244 JUMP JUMPDEST PUSH3 0x24E JUMP JUMPDEST PUSH3 0x244 JUMP JUMPDEST SWAP1 POP SWAP2 SWAP1 POP JUMP JUMPDEST PUSH1 0x0 DUP2 SWAP1 POP SWAP2 SWAP1 POP JUMP JUMPDEST PUSH3 0x295 DUP4 PUSH3 0x258 JUMP JUMPDEST PUSH3 0x2AD PUSH3 0x2A4 DUP3 PUSH3 0x280 JUMP JUMPDEST DUP5 DUP5 SLOAD PUSH3 0x1EE JUMP JUMPDEST DUP3 SSTORE POP POP POP POP JUMP JUMPDEST PUSH1 0x0 SWAP1 JUMP JUMPDEST PUSH3 0x2C4 PUSH3 0x2B5 JUMP JUMPDEST PUSH3 0x2D1 DUP2 DUP5 DUP5 PUSH3 0x28A JUMP JUMPDEST POP POP POP JUMP JUMPDEST JUMPDEST DUP2 DUP2 LT ISZERO PUSH3 0x2F9 JUMPI PUSH3 0x2ED PUSH1 0x0 DUP3 PUSH3 0x2BA JUMP JUMPDEST PUSH1 0x1 DUP2 ADD SWAP1 POP PUSH3 0x2D7 JUMP JUMPDEST POP POP JUMP JUMPDEST PUSH1 0x1F DUP3 GT ISZERO PUSH3 0x348 JUMPI PUSH3 0x312 DUP2 PUSH3 0x1BC JUMP JUMPDEST PUSH3 0x31D DUP5 PUSH3 0x1D1 JUMP JUMPDEST DUP2 ADD PUSH1 0x20 DUP6 LT ISZERO PUSH3 0x32D JUMPI DUP2 SWAP1 POP JUMPDEST PUSH3 0x345 PUSH3 0x33C DUP6 PUSH3 0x1D1 JUMP JUMPDEST DUP4 ADD DUP3 PUSH3 0x2D6 JUMP JUMPDEST POP POP JUMPDEST POP POP POP JUMP JUMPDEST PUSH1 0x0 DUP3 DUP3 SHR SWAP1 POP SWAP3 SWAP2 POP POP JUMP JUMPDEST PUSH1 0x0 PUSH3 0x36D PUSH1 0x0 NOT DUP5 PUSH1 0x8 MUL PUSH3 0x34D JUMP JUMPDEST NOT DUP1 DUP4 AND SWAP2 POP POP SWAP3 SWAP2 POP POP JUMP JUMPDEST PUSH1 0x0 PUSH3 0x388 DUP4 DUP4 PUSH3 0x35A JUMP JUMPDEST SWAP2 POP DUP3 PUSH1 0x2 MUL DUP3 OR SWAP1 POP SWAP3 SWAP2 POP POP JUMP JUMPDEST PUSH3 0x3A3 DUP3 PUSH3 0x11E JUMP JUMPDEST PUSH8 0xFFFFFFFFFFFFFFFF DUP2 GT ISZERO PUSH3 0x3BF JUMPI PUSH3 0x3BE PUSH3 0x129 JUMP JUMPDEST JUMPDEST PUSH3 0x3CB DUP3 SLOAD PUSH3 0x187 JUMP JUMPDEST PUSH3 0x3D8 DUP3 DUP3 DUP6 PUSH3 0x2FD JUMP JUMPDEST PUSH1 0x0 PUSH1 0x20 SWAP1 POP PUSH1 0x1F DUP4 GT PUSH1 0x1 DUP2 EQ PUSH3 0x410 JUMPI PUSH1 0x0 DUP5 ISZERO PUSH3 0x3FB JUMPI DUP3 DUP8 ADD MLOAD SWAP1 POP JUMPDEST PUSH3 0x407 DUP6 DUP3 PUSH3 0x37A JUMP JUMPDEST DUP7 SSTORE POP PUSH3 0x477 JUMP JUMPDEST PUSH1 0x1F NOT DUP5 AND PUSH3 0x420 DUP7 PUSH3 0x1BC JUMP JUMPDEST PUSH1 0x0 JUMPDEST DUP3 DUP2 LT ISZERO PUSH3 0x44A JUMPI DUP5 DUP10 ADD MLOAD DUP3 SSTORE PUSH1 0x1 DUP3 ADD SWAP2 POP PUSH1 0x20 DUP6 ADD SWAP5 POP PUSH1 0x20 DUP2 ADD SWAP1 POP PUSH3 0x423 JUMP JUMPDEST DUP7 DUP4 LT ISZERO PUSH3 0x46A JUMPI DUP5 DUP10 ADD MLOAD PUSH3 0x466 PUSH1 0x1F DUP10 AND DUP3 PUSH3 0x35A JUMP JUMPDEST DUP4 SSTORE POP JUMPDEST PUSH1 0x1 PUSH1 0x2 DUP9 MUL ADD DUP9 SSTORE POP POP POP JUMPDEST POP POP POP POP POP POP JUMP JUMPDEST PUSH2 0x21BC DUP1 PUSH3 0x48F PUSH1 0x0 CODECOPY PUSH1 0x0 RETURN INVALID PUSH1 0x80 PUSH1 0x40 MSTORE PUSH1 0x4 CALLDATASIZE LT PUSH2 0xF3 JUMPI PUSH1 0x0 CALLDATALOAD PUSH1 0xE0 SHR DUP1 PUSH4 0x70A08231 GT PUSH2 0x8A JUMPI DUP1 PUSH4 0x8DA5CB5B GT PUSH2 0x59 JUMPI DUP1 PUSH4 0x8DA5CB5B EQ PUSH2 0x340 JUMPI DUP1 PUSH4 0x95D89B41 EQ PUSH2 0x36B JUMPI DUP1 PUSH4 0xA9059CBB EQ PUSH2 0x396 JUMPI DUP1 PUSH4 0xDD62ED3E EQ PUSH2 0x3C6 JUMPI PUSH2 0xF3 JUMP JUMPDEST DUP1 PUSH4 0x70A08231 EQ PUSH2 0x272 JUMPI DUP1 PUSH4 0x75247A58 EQ PUSH2 0x2AF JUMPI DUP1 PUSH4 0x8456CB59 EQ PUSH2 0x2EC JUMPI DUP1 PUSH4 0x88D695B2 EQ PUSH2 0x303 JUMPI PUSH2 0xF3 JUMP JUMPDEST DUP1 PUSH4 0x3F4BA83A GT PUSH2 0xC6 JUMPI DUP1 PUSH4 0x3F4BA83A EQ PUSH2 0x1B6 JUMPI DUP1 PUSH4 0x40C10F19 EQ PUSH2 0x1CD JUMPI DUP1 PUSH4 0x42966C68 EQ PUSH2 0x20A JUMPI DUP1 PUSH4 0x5C975ABB EQ PUSH2 0x247 JUMPI PUSH2 0xF3 JUMP JUMPDEST DUP1 PUSH4 0x6FDDE03 EQ PUSH2 0xF8 JUMPI DUP1 PUSH4 0x18160DDD EQ PUSH2 0x123 JUMPI DUP1 PUSH4 0x23B872DD EQ PUSH2 0x14E JUMPI DUP1 PUSH4 0x313CE567 EQ PUSH2 0x18B JUMPI JUMPDEST PUSH1 0x0 DUP1 REVERT JUMPDEST CALLVALUE DUP1 ISZERO PUSH2 0x104 JUMPI PUSH1 0x0 DUP1 REVERT JUMPDEST POP PUSH2 0x10D PUSH2 0x403 JUMP JUMPDEST PUSH1 0x40 MLOAD PUSH2 0x11A SWAP2 SWAP1 PUSH2 0x1506 JUMP JUMPDEST PUSH1 0x40 MLOAD DUP1 SWAP2 SUB SWAP1 RETURN JUMPDEST CALLVALUE DUP1 ISZERO PUSH2 0x12F JUMPI PUSH1 0x0 DUP1 REVERT JUMPDEST POP PUSH2 0x138 PUSH2 0x491 JUMP JUMPDEST PUSH1 0x40 MLOAD PUSH2 0x145 SWAP2 SWAP1 PUSH2 0x1541 JUMP JUMPDEST PUSH1 0x40 MLOAD DUP1 SWAP2 SUB SWAP1 RETURN JUMPDEST CALLVALUE DUP1 ISZERO PUSH2 0x15A JUMPI PUSH1 0x0 DUP1 REVERT JUMPDEST POP PUSH2 0x175 PUSH1 0x4 DUP1 CALLDATASIZE SUB DUP2 ADD SWAP1 PUSH2 0x170 SWAP2 SWAP1 PUSH2 0x15FA JUMP JUMPDEST PUSH2 0x497 JUMP JUMPDEST PUSH1 0x40 MLOAD PUSH2 0x182 SWAP2 SWAP1 PUSH2 0x1668 JUMP JUMPDEST PUSH1 0x40 MLOAD DUP1 SWAP2 SUB SWAP1 RETURN JUMPDEST CALLVALUE DUP1 ISZERO PUSH2 0x197 JUMPI PUSH1 0x0 DUP1 REVERT JUMPDEST POP PUSH2 0x1A0 PUSH2 0x88D JUMP JUMPDEST PUSH1 0x40 MLOAD PUSH2 0x1AD SWAP2 SWAP1 PUSH2 0x169F JUMP JUMPDEST PUSH1 0x40 MLOAD DUP1 SWAP2 SUB SWAP1 RETURN JUMPDEST CALLVALUE DUP1 ISZERO PUSH2 0x1C2 JUMPI PUSH1 0x0 DUP1 REVERT JUMPDEST POP PUSH2 0x1CB PUSH2 0x8A0 JUMP JUMPDEST STOP JUMPDEST CALLVALUE DUP1 ISZERO PUSH2 0x1D9 JUMPI PUSH1 0x0 DUP1 REVERT JUMPDEST POP PUSH2 0x1F4 PUSH1 0x4 DUP1 CALLDATASIZE SUB DUP2 ADD SWAP1 PUSH2 0x1EF SWAP2 SWAP1 PUSH2 0x16BA JUMP JUMPDEST PUSH2 0x94D JUMP JUMPDEST PUSH1 0x40 MLOAD PUSH2 0x201 SWAP2 SWAP1 PUSH2 0x1668 JUMP JUMPDEST PUSH1 0x40 MLOAD DUP1 SWAP2 SUB SWAP1 RETURN JUMPDEST CALLVALUE DUP1 ISZERO PUSH2 0x216 JUMPI PUSH1 0x0 DUP1 REVERT JUMPDEST POP PUSH2 0x231 PUSH1 0x4 DUP1 CALLDATASIZE SUB DUP2 ADD SWAP1 PUSH2 0x22C SWAP2 SWAP1 PUSH2 0x16FA JUMP JUMPDEST PUSH2 0xA72 JUMP JUMPDEST PUSH1 0x40 MLOAD PUSH2 0x23E SWAP2 SWAP1 PUSH2 0x1668 JUMP JUMPDEST PUSH1 0x40 MLOAD DUP1 SWAP2 SUB SWAP1 RETURN JUMPDEST CALLVALUE DUP1 ISZERO PUSH2 0x253 JUMPI PUSH1 0x0 DUP1 REVERT JUMPDEST POP PUSH2 0x25C PUSH2 0xBAA JUMP JUMPDEST PUSH1 0x40 MLOAD PUSH2 0x269 SWAP2 SWAP1 PUSH2 0x1668 JUMP JUMPDEST PUSH1 0x40 MLOAD DUP1 SWAP2 SUB SWAP1 RETURN JUMPDEST CALLVALUE DUP1 ISZERO PUSH2 0x27E JUMPI PUSH1 0x0 DUP1 REVERT JUMPDEST POP PUSH2 0x299 PUSH1 0x4 DUP1 CALLDATASIZE SUB DUP2 ADD SWAP1 PUSH2 0x294 SWAP2 SWAP1 PUSH2 0x1727 JUMP JUMPDEST PUSH2 0xBBD JUMP JUMPDEST PUSH1 0x40 MLOAD PUSH2 0x2A6 SWAP2 SWAP1 PUSH2 0x1541 JUMP JUMPDEST PUSH1 0x40 MLOAD DUP1 SWAP2 SUB SWAP1 RETURN JUMPDEST CALLVALUE DUP1 ISZERO PUSH2 0x2BB JUMPI PUSH1 0x0 DUP1 REVERT JUMPDEST POP PUSH2 0x2D6 PUSH1 0x4 DUP1 CALLDATASIZE SUB DUP2 ADD SWAP1 PUSH2 0x2D1 SWAP2 SWAP1 PUSH2 0x16BA JUMP JUMPDEST PUSH2 0xBD5 JUMP JUMPDEST PUSH1 0x40 MLOAD PUSH2 0x2E3 SWAP2 SWAP1 PUSH2 0x1668 JUMP JUMPDEST PUSH1 0x40 MLOAD DUP1 SWAP2 SUB SWAP1 RETURN JUMPDEST CALLVALUE DUP1 ISZERO PUSH2 0x2F8 JUMPI PUSH1 0x0 DUP1 REVERT JUMPDEST POP PUSH2 0x301 PUSH2 0xDDE JUMP JUMPDEST STOP JUMPDEST CALLVALUE DUP1 ISZERO PUSH2 0x30F JUMPI PUSH1 0x0 DUP1 REVERT JUMPDEST POP PUSH2 0x32A PUSH1 0x4 DUP1 CALLDATASIZE SUB DUP2 ADD SWAP1 PUSH2 0x325 SWAP2 SWAP1 PUSH2 0x195F JUMP JUMPDEST PUSH2 0xE8B JUMP JUMPDEST PUSH1 0x40 MLOAD PUSH2 0x337 SWAP2 SWAP1 PUSH2 0x1668 JUMP JUMPDEST PUSH1 0x40 MLOAD DUP1 SWAP2 SUB SWAP1 RETURN JUMPDEST CALLVALUE DUP1 ISZERO PUSH2 0x34C JUMPI PUSH1 0x0 DUP1 REVERT JUMPDEST POP PUSH2 0x355 PUSH2 0x1169 JUMP JUMPDEST PUSH1 0x40 MLOAD PUSH2 0x362 SWAP2 SWAP1 PUSH2 0x19E6 JUMP JUMPDEST PUSH1 0x40 MLOAD DUP1 SWAP2 SUB SWAP1 RETURN JUMPDEST CALLVALUE DUP1 ISZERO PUSH2 0x377 JUMPI PUSH1 0x0 DUP1 REVERT JUMPDEST POP PUSH2 0x380 PUSH2 0x118F JUMP JUMPDEST PUSH1 0x40 MLOAD PUSH2 0x38D SWAP2 SWAP1 PUSH2 0x1506 JUMP JUMPDEST PUSH1 0x40 MLOAD DUP1 SWAP2 SUB SWAP1 RETURN JUMPDEST PUSH2 0x3B0 PUSH1 0x4 DUP1 CALLDATASIZE SUB DUP2 ADD SWAP1 PUSH2 0x3AB SWAP2 SWAP1 PUSH2 0x16BA JUMP JUMPDEST PUSH2 0x121D JUMP JUMPDEST PUSH1 0x40 MLOAD PUSH2 0x3BD SWAP2 SWAP1 PUSH2 0x1668 JUMP JUMPDEST PUSH1 0x40 MLOAD DUP1 SWAP2 SUB SWAP1 RETURN JUMPDEST CALLVALUE DUP1 ISZERO PUSH2 0x3D2 JUMPI PUSH1 0x0 DUP1 REVERT JUMPDEST POP PUSH2 0x3ED PUSH1 0x4 DUP1 CALLDATASIZE SUB DUP2 ADD SWAP1 PUSH2 0x3E8 SWAP2 SWAP1 PUSH2 0x1A01 JUMP JUMPDEST PUSH2 0x1451 JUMP JUMPDEST PUSH1 0x40 MLOAD PUSH2 0x3FA SWAP2 SWAP1 PUSH2 0x1541 JUMP JUMPDEST PUSH1 0x40 MLOAD DUP1 SWAP2 SUB SWAP1 RETURN JUMPDEST PUSH1 0x0 DUP1 SLOAD PUSH2 0x410 SWAP1 PUSH2 0x1A70 JUMP JUMPDEST DUP1 PUSH1 0x1F ADD PUSH1 0x20 DUP1 SWAP2 DIV MUL PUSH1 0x20 ADD PUSH1 0x40 MLOAD SWAP1 DUP2 ADD PUSH1 0x40 MSTORE DUP1 SWAP3 SWAP2 SWAP1 DUP2 DUP2 MSTORE PUSH1 0x20 ADD DUP3 DUP1 SLOAD PUSH2 0x43C SWAP1 PUSH2 0x1A70 JUMP JUMPDEST DUP1 ISZERO PUSH2 0x489 JUMPI DUP1 PUSH1 0x1F LT PUSH2 0x45E JUMPI PUSH2 0x100 DUP1 DUP4 SLOAD DIV MUL DUP4 MSTORE SWAP2 PUSH1 0x20 ADD SWAP2 PUSH2 0x489 JUMP JUMPDEST DUP3 ADD SWAP2 SWAP1 PUSH1 0x0 MSTORE PUSH1 0x20 PUSH1 0x0 KECCAK256 SWAP1 JUMPDEST DUP2 SLOAD DUP2 MSTORE SWAP1 PUSH1 0x1 ADD SWAP1 PUSH1 0x20 ADD DUP1 DUP4 GT PUSH2 0x46C JUMPI DUP3 SWAP1 SUB PUSH1 0x1F AND DUP3 ADD SWAP2 JUMPDEST POP POP POP POP POP DUP2 JUMP JUMPDEST PUSH1 0x3 SLOAD DUP2 JUMP JUMPDEST PUSH1 0x0 PUSH1 0x6 PUSH1 0x14 SWAP1 SLOAD SWAP1 PUSH2 0x100 EXP SWAP1 DIV PUSH1 0xFF AND ISZERO PUSH2 0x4E9 JUMPI PUSH1 0x40 MLOAD PUSH32 0x8C379A000000000000000000000000000000000000000000000000000000000 DUP2 MSTORE PUSH1 0x4 ADD PUSH2 0x4E0 SWAP1 PUSH2 0x1AED JUMP JUMPDEST PUSH1 0x40 MLOAD DUP1 SWAP2 SUB SWAP1 REVERT JUMPDEST PUSH1 0x0 PUSH20 0xFFFFFFFFFFFFFFFFFFFFFFFFFFFFFFFFFFFFFFFF AND DUP5 PUSH20 0xFFFFFFFFFFFFFFFFFFFFFFFFFFFFFFFFFFFFFFFF AND SUB PUSH2 0x558 JUMPI PUSH1 0x40 MLOAD PUSH32 0x8C379A000000000000000000000000000000000000000000000000000000000 DUP2 MSTORE PUSH1 0x4 ADD PUSH2 0x54F SWAP1 PUSH2 0x1B59 JUMP JUMPDEST PUSH1 0x40 MLOAD DUP1 SWAP2 SUB SWAP1 REVERT JUMPDEST PUSH1 0x0 PUSH20 0xFFFFFFFFFFFFFFFFFFFFFFFFFFFFFFFFFFFFFFFF AND DUP4 PUSH20 0xFFFFFFFFFFFFFFFFFFFFFFFFFFFFFFFFFFFFFFFF AND SUB PUSH2 0x5C7 JUMPI PUSH1 0x40 MLOAD PUSH32 0x8C379A000000000000000000000000000000000000000000000000000000000 DUP2 MSTORE PUSH1 0x4 ADD PUSH2 0x5BE SWAP1 PUSH2 0x1BC5 JUMP JUMPDEST PUSH1 0x40 MLOAD DUP1 SWAP2 SUB SWAP1 REVERT JUMPDEST DUP2 PUSH1 0x4 PUSH1 0x0 DUP7 PUSH20 0xFFFFFFFFFFFFFFFFFFFFFFFFFFFFFFFFFFFFFFFF AND PUSH20 0xFFFFFFFFFFFFFFFFFFFFFFFFFFFFFFFFFFFFFFFF AND DUP2 MSTORE PUSH1 0x20 ADD SWAP1 DUP2 MSTORE PUSH1 0x20 ADD PUSH1 0x0 KECCAK256 SLOAD LT ISZERO PUSH2 0x649 JUMPI PUSH1 0x40 MLOAD PUSH32 0x8C379A000000000000000000000000000000000000000000000000000000000 DUP2 MSTORE PUSH1 0x4 ADD PUSH2 0x640 SWAP1 PUSH2 0x1C31 JUMP JUMPDEST PUSH1 0x40 MLOAD DUP1 SWAP2 SUB SWAP1 REVERT JUMPDEST DUP2 PUSH1 0x5 PUSH1 0x0 DUP7 PUSH20 0xFFFFFFFFFFFFFFFFFFFFFFFFFFFFFFFFFFFFFFFF AND PUSH20 0xFFFFFFFFFFFFFFFFFFFFFFFFFFFFFFFFFFFFFFFF AND DUP2 MSTORE PUSH1 0x20 ADD SWAP1 DUP2 MSTORE PUSH1 0x20 ADD PUSH1 0x0 KECCAK256 PUSH1 0x0 CALLER PUSH20 0xFFFFFFFFFFFFFFFFFFFFFFFFFFFFFFFFFFFFFFFF AND PUSH20 0xFFFFFFFFFFFFFFFFFFFFFFFFFFFFFFFFFFFFFFFF AND DUP2 MSTORE PUSH1 0x20 ADD SWAP1 DUP2 MSTORE PUSH1 0x20 ADD PUSH1 0x0 KECCAK256 SLOAD LT ISZERO PUSH2 0x708 JUMPI PUSH1 0x40 MLOAD PUSH32 0x8C379A000000000000000000000000000000000000000000000000000000000 DUP2 MSTORE PUSH1 0x4 ADD PUSH2 0x6FF SWAP1 PUSH2 0x1C9D JUMP JUMPDEST PUSH1 0x40 MLOAD DUP1 SWAP2 SUB SWAP1 REVERT JUMPDEST DUP2 PUSH1 0x4 PUSH1 0x0 DUP7 PUSH20 0xFFFFFFFFFFFFFFFFFFFFFFFFFFFFFFFFFFFFFFFF AND PUSH20 0xFFFFFFFFFFFFFFFFFFFFFFFFFFFFFFFFFFFFFFFF AND DUP2 MSTORE PUSH1 0x20 ADD SWAP1 DUP2 MSTORE PUSH1 0x20 ADD PUSH1 0x0 KECCAK256 PUSH1 0x0 DUP3 DUP3 SLOAD PUSH2 0x757 SWAP2 SWAP1 PUSH2 0x1CEC JUMP JUMPDEST SWAP3 POP POP DUP2 SWAP1 SSTORE POP DUP2 PUSH1 0x4 PUSH1 0x0 DUP6 PUSH20 0xFFFFFFFFFFFFFFFFFFFFFFFFFFFFFFFFFFFFFFFF AND PUSH20 0xFFFFFFFFFFFFFFFFFFFFFFFFFFFFFFFFFFFFFFFF AND DUP2 MSTORE PUSH1 0x20 ADD SWAP1 DUP2 MSTORE PUSH1 0x20 ADD PUSH1 0x0 KECCAK256 PUSH1 0x0 DUP3 DUP3 SLOAD PUSH2 0x7AD SWAP2 SWAP1 PUSH2 0x1D20 JUMP JUMPDEST SWAP3 POP POP DUP2 SWAP1 SSTORE POP DUP2 PUSH1 0x5 PUSH1 0x0 DUP7 PUSH20 0xFFFFFFFFFFFFFFFFFFFFFFFFFFFFFFFFFFFFFFFF AND PUSH20 0xFFFFFFFFFFFFFFFFFFFFFFFFFFFFFFFFFFFFFFFF AND DUP2 MSTORE PUSH1 0x20 ADD SWAP1 DUP2 MSTORE PUSH1 0x20 ADD PUSH1 0x0 KECCAK256 PUSH1 0x0 CALLER PUSH20 0xFFFFFFFFFFFFFFFFFFFFFFFFFFFFFFFFFFFFFFFF AND PUSH20 0xFFFFFFFFFFFFFFFFFFFFFFFFFFFFFFFFFFFFFFFF AND DUP2 MSTORE PUSH1 0x20 ADD SWAP1 DUP2 MSTORE PUSH1 0x20 ADD PUSH1 0x0 KECCAK256 PUSH1 0x0 DUP3 DUP3 SLOAD PUSH2 0x840 SWAP2 SWAP1 PUSH2 0x1CEC JUMP JUMPDEST SWAP3 POP POP DUP2 SWAP1 SSTORE POP PUSH32 0xC0D84CE5C7FF9CA21ADB0F8436FF3F4951B4BB78C4E2FAE2B6837958B3946FFD DUP5 DUP5 DUP5 PUSH1 0x40 MLOAD PUSH2 0x87A SWAP4 SWAP3 SWAP2 SWAP1 PUSH2 0x1D54 JUMP JUMPDEST PUSH1 0x40 MLOAD DUP1 SWAP2 SUB SWAP1 LOG1 PUSH1 0x1 SWAP1 POP SWAP4 SWAP3 POP POP POP JUMP JUMPDEST PUSH1 0x2 PUSH1 0x0 SWAP1 SLOAD SWAP1 PUSH2 0x100 EXP SWAP1 DIV PUSH1 0xFF AND DUP2 JUMP JUMPDEST PUSH1 0x6 PUSH1 0x0 SWAP1 SLOAD SWAP1 PUSH2 0x100 EXP SWAP1 DIV PUSH20 0xFFFFFFFFFFFFFFFFFFFFFFFFFFFFFFFFFFFFFFFF AND PUSH20 0xFFFFFFFFFFFFFFFFFFFFFFFFFFFFFFFFFFFFFFFF AND CALLER PUSH20 0xFFFFFFFFFFFFFFFFFFFFFFFFFFFFFFFFFFFFFFFF AND EQ PUSH2 0x930 JUMPI PUSH1 0x40 MLOAD PUSH32 0x8C379A000000000000000000000000000000000000000000000000000000000 DUP2 MSTORE PUSH1 0x4 ADD PUSH2 0x927 SWAP1 PUSH2 0x1DD7 JUMP JUMPDEST PUSH1 0x40 MLOAD DUP1 SWAP2 SUB SWAP1 REVERT JUMPDEST PUSH1 0x0 PUSH1 0x6 PUSH1 0x14 PUSH2 0x100 EXP DUP2 SLOAD DUP2 PUSH1 0xFF MUL NOT AND SWAP1 DUP4 ISZERO ISZERO MUL OR SWAP1 SSTORE POP JUMP JUMPDEST PUSH1 0x0 DUP1 PUSH20 0xFFFFFFFFFFFFFFFFFFFFFFFFFFFFFFFFFFFFFFFF AND DUP4 PUSH20 0xFFFFFFFFFFFFFFFFFFFFFFFFFFFFFFFFFFFFFFFF AND SUB PUSH2 0x9BD JUMPI PUSH1 0x40 MLOAD PUSH32 0x8C379A000000000000000000000000000000000000000000000000000000000 DUP2 MSTORE PUSH1 0x4 ADD PUSH2 0x9B4 SWAP1 PUSH2 0x1E43 JUMP JUMPDEST PUSH1 0x40 MLOAD DUP1 SWAP2 SUB SWAP1 REVERT JUMPDEST DUP2 PUSH1 0x3 PUSH1 0x0 DUP3 DUP3 SLOAD PUSH2 0x9CF SWAP2 SWAP1 PUSH2 0x1D20 JUMP JUMPDEST SWAP3 POP POP DUP2 SWAP1 SSTORE POP DUP2 PUSH1 0x4 PUSH1 0x0 DUP6 PUSH20 0xFFFFFFFFFFFFFFFFFFFFFFFFFFFFFFFFFFFFFFFF AND PUSH20 0xFFFFFFFFFFFFFFFFFFFFFFFFFFFFFFFFFFFFFFFF AND DUP2 MSTORE PUSH1 0x20 ADD SWAP1 DUP2 MSTORE PUSH1 0x20 ADD PUSH1 0x0 KECCAK256 PUSH1 0x0 DUP3 DUP3 SLOAD PUSH2 0xA25 SWAP2 SWAP1 PUSH2 0x1D20 JUMP JUMPDEST SWAP3 POP POP DUP2 SWAP1 SSTORE POP PUSH32 0xDDF252AD1BE2C89B69C2B068FC378DAA952BA7F163C4A11628F55A4DF523B3EF PUSH1 0x0 DUP5 DUP5 PUSH1 0x40 MLOAD PUSH2 0xA60 SWAP4 SWAP3 SWAP2 SWAP1 PUSH2 0x1D54 JUMP JUMPDEST PUSH1 0x40 MLOAD DUP1 SWAP2 SUB SWAP1 LOG1 PUSH1 0x1 SWAP1 POP SWAP3 SWAP2 POP POP JUMP JUMPDEST PUSH1 0x0 DUP2 PUSH1 0x4 PUSH1 0x0 CALLER PUSH20 0xFFFFFFFFFFFFFFFFFFFFFFFFFFFFFFFFFFFFFFFF AND PUSH20 0xFFFFFFFFFFFFFFFFFFFFFFFFFFFFFFFFFFFFFFFF AND DUP2 MSTORE PUSH1 0x20 ADD SWAP1 DUP2 MSTORE PUSH1 0x20 ADD PUSH1 0x0 KECCAK256 SLOAD LT ISZERO PUSH2 0xAF6 JUMPI PUSH1 0x40 MLOAD PUSH32 0x8C379A000000000000000000000000000000000000000000000000000000000 DUP2 MSTORE PUSH1 0x4 ADD PUSH2 0xAED SWAP1 PUSH2 0x1EAF JUMP JUMPDEST PUSH1 0x40 MLOAD DUP1 SWAP2 SUB SWAP1 REVERT JUMPDEST DUP2 PUSH1 0x3 PUSH1 0x0 DUP3 DUP3 SLOAD PUSH2 0xB08 SWAP2 SWAP1 PUSH2 0x1CEC JUMP JUMPDEST SWAP3 POP POP DUP2 SWAP1 SSTORE POP DUP2 PUSH1 0x4 PUSH1 0x0 CALLER PUSH20 0xFFFFFFFFFFFFFFFFFFFFFFFFFFFFFFFFFFFFFFFF AND PUSH20 0xFFFFFFFFFFFFFFFFFFFFFFFFFFFFFFFFFFFFFFFF AND DUP2 MSTORE PUSH1 0x20 ADD SWAP1 DUP2 MSTORE PUSH1 0x20 ADD PUSH1 0x0 KECCAK256 PUSH1 0x0 DUP3 DUP3 SLOAD PUSH2 0xB5E SWAP2 SWAP1 PUSH2 0x1CEC JUMP JUMPDEST SWAP3 POP POP DUP2 SWAP1 SSTORE POP PUSH32 0xDDF252AD1BE2C89B69C2B068FC378DAA952BA7F163C4A11628F55A4DF523B3EF CALLER PUSH1 0x0 DUP5 PUSH1 0x40 MLOAD PUSH2 0xB99 SWAP4 SWAP3 SWAP2 SWAP1 PUSH2 0x1D54 JUMP JUMPDEST PUSH1 0x40 MLOAD DUP1 SWAP2 SUB SWAP1 LOG1 PUSH1 0x1 SWAP1 POP SWAP2 SWAP1 POP JUMP JUMPDEST PUSH1 0x6 PUSH1 0x14 SWAP1 SLOAD SWAP1 PUSH2 0x100 EXP SWAP1 DIV PUSH1 0xFF AND DUP2 JUMP JUMPDEST PUSH1 0x4 PUSH1 0x20 MSTORE DUP1 PUSH1 0x0 MSTORE PUSH1 0x40 PUSH1 0x0 KECCAK256 PUSH1 0x0 SWAP2 POP SWAP1 POP SLOAD DUP2 JUMP JUMPDEST PUSH1 0x0 PUSH1 0x6 PUSH1 0x14 SWAP1 SLOAD SWAP1 PUSH2 0x100 EXP SWAP1 DIV PUSH1 0xFF AND ISZERO PUSH2 0xC27 JUMPI PUSH1 0x40 MLOAD PUSH32 0x8C379A000000000000000000000000000000000000000000000000000000000 DUP2 MSTORE PUSH1 0x4 ADD PUSH2 0xC1E SWAP1 PUSH2 0x1AED JUMP JUMPDEST PUSH1 0x40 MLOAD DUP1 SWAP2 SUB SWAP1 REVERT JUMPDEST PUSH1 0x0 PUSH20 0xFFFFFFFFFFFFFFFFFFFFFFFFFFFFFFFFFFFFFFFF AND DUP4 PUSH20 0xFFFFFFFFFFFFFFFFFFFFFFFFFFFFFFFFFFFFFFFF AND SUB PUSH2 0xC96 JUMPI PUSH1 0x40 MLOAD PUSH32 0x8C379A000000000000000000000000000000000000000000000000000000000 DUP2 MSTORE PUSH1 0x4 ADD PUSH2 0xC8D SWAP1 PUSH2 0x1F1B JUMP JUMPDEST PUSH1 0x40 MLOAD DUP1 SWAP2 SUB SWAP1 REVERT JUMPDEST DUP2 PUSH1 0x4 PUSH1 0x0 CALLER PUSH20 0xFFFFFFFFFFFFFFFFFFFFFFFFFFFFFFFFFFFFFFFF AND PUSH20 0xFFFFFFFFFFFFFFFFFFFFFFFFFFFFFFFFFFFFFFFF AND DUP2 MSTORE PUSH1 0x20 ADD SWAP1 DUP2 MSTORE PUSH1 0x20 ADD PUSH1 0x0 KECCAK256 SLOAD LT ISZERO PUSH2 0xD18 JUMPI PUSH1 0x40 MLOAD PUSH32 0x8C379A000000000000000000000000000000000000000000000000000000000 DUP2 MSTORE PUSH1 0x4 ADD PUSH2 0xD0F SWAP1 PUSH2 0x1F87 JUMP JUMPDEST PUSH1 0x40 MLOAD DUP1 SWAP2 SUB SWAP1 REVERT JUMPDEST DUP2 PUSH1 0x5 PUSH1 0x0 CALLER PUSH20 0xFFFFFFFFFFFFFFFFFFFFFFFFFFFFFFFFFFFFFFFF AND PUSH20 0xFFFFFFFFFFFFFFFFFFFFFFFFFFFFFFFFFFFFFFFF AND DUP2 MSTORE PUSH1 0x20 ADD SWAP1 DUP2 MSTORE PUSH1 0x20 ADD PUSH1 0x0 KECCAK256 PUSH1 0x0 DUP6 PUSH20 0xFFFFFFFFFFFFFFFFFFFFFFFFFFFFFFFFFFFFFFFF AND PUSH20 0xFFFFFFFFFFFFFFFFFFFFFFFFFFFFFFFFFFFFFFFF AND DUP2 MSTORE PUSH1 0x20 ADD SWAP1 DUP2 MSTORE PUSH1 0x20 ADD PUSH1 0x0 KECCAK256 DUP2 SWAP1 SSTORE POP PUSH32 0x8C5BE1E5EBEC7D5BD14F71427D1E84F3DD0314C0F7B2291E5B200AC8C7C3B925 CALLER DUP5 DUP5 PUSH1 0x40 MLOAD PUSH2 0xDCC SWAP4 SWAP3 SWAP2 SWAP1 PUSH2 0x1D54 JUMP JUMPDEST PUSH1 0x40 MLOAD DUP1 SWAP2 SUB SWAP1 LOG1 PUSH1 0x1 SWAP1 POP SWAP3 SWAP2 POP POP JUMP JUMPDEST PUSH1 0x6 PUSH1 0x0 SWAP1 SLOAD SWAP1 PUSH2 0x100 EXP SWAP1 DIV PUSH20 0xFFFFFFFFFFFFFFFFFFFFFFFFFFFFFFFFFFFFFFFF AND PUSH20 0xFFFFFFFFFFFFFFFFFFFFFFFFFFFFFFFFFFFFFFFF AND CALLER PUSH20 0xFFFFFFFFFFFFFFFFFFFFFFFFFFFFFFFFFFFFFFFF AND EQ PUSH2 0xE6E JUMPI PUSH1 0x40 MLOAD PUSH32 0x8C379A000000000000000000000000000000000000000000000000000000000 DUP2 MSTORE PUSH1 0x4 ADD PUSH2 0xE65 SWAP1 PUSH2 0x1DD7 JUMP JUMPDEST PUSH1 0x40 MLOAD DUP1 SWAP2 SUB SWAP1 REVERT JUMPDEST PUSH1 0x1 PUSH1 0x6 PUSH1 0x14 PUSH2 0x100 EXP DUP2 SLOAD DUP2 PUSH1 0xFF MUL NOT AND SWAP1 DUP4 ISZERO ISZERO MUL OR SWAP1 SSTORE POP JUMP JUMPDEST PUSH1 0x0 DUP2 MLOAD DUP4 MLOAD EQ PUSH2 0xED1 JUMPI PUSH1 0x40 MLOAD PUSH32 0x8C379A000000000000000000000000000000000000000000000000000000000 DUP2 MSTORE PUSH1 0x4 ADD PUSH2 0xEC8 SWAP1 PUSH2 0x1FF3 JUMP JUMPDEST PUSH1 0x40 MLOAD DUP1 SWAP2 SUB SWAP1 REVERT JUMPDEST PUSH1 0x32 DUP4 MLOAD GT ISZERO PUSH2 0xF16 JUMPI PUSH1 0x40 MLOAD PUSH32 0x8C379A000000000000000000000000000000000000000000000000000000000 DUP2 MSTORE PUSH1 0x4 ADD PUSH2 0xF0D SWAP1 PUSH2 0x205F JUMP JUMPDEST PUSH1 0x40 MLOAD DUP1 SWAP2 SUB SWAP1 REVERT JUMPDEST PUSH1 0x0 DUP1 JUMPDEST DUP4 MLOAD DUP2 LT ISZERO PUSH2 0xF58 JUMPI DUP4 DUP2 DUP2 MLOAD DUP2 LT PUSH2 0xF36 JUMPI PUSH2 0xF35 PUSH2 0x207F JUMP JUMPDEST JUMPDEST PUSH1 0x20 MUL PUSH1 0x20 ADD ADD MLOAD DUP3 PUSH2 0xF49 SWAP2 SWAP1 PUSH2 0x1D20 JUMP JUMPDEST SWAP2 POP DUP1 DUP1 PUSH1 0x1 ADD SWAP2 POP POP PUSH2 0xF1A JUMP JUMPDEST POP DUP1 PUSH1 0x4 PUSH1 0x0 CALLER PUSH20 0xFFFFFFFFFFFFFFFFFFFFFFFFFFFFFFFFFFFFFFFF AND PUSH20 0xFFFFFFFFFFFFFFFFFFFFFFFFFFFFFFFFFFFFFFFF AND DUP2 MSTORE PUSH1 0x20 ADD SWAP1 DUP2 MSTORE PUSH1 0x20 ADD PUSH1 0x0 KECCAK256 SLOAD LT ISZERO PUSH2 0xFDB JUMPI PUSH1 0x40 MLOAD PUSH32 0x8C379A000000000000000000000000000000000000000000000000000000000 DUP2 MSTORE PUSH1 0x4 ADD PUSH2 0xFD2 SWAP1 PUSH2 0x20FA JUMP JUMPDEST PUSH1 0x40 MLOAD DUP1 SWAP2 SUB SWAP1 REVERT JUMPDEST PUSH1 0x0 JUMPDEST DUP5 MLOAD DUP2 LT ISZERO PUSH2 0x115D JUMPI DUP4 DUP2 DUP2 MLOAD DUP2 LT PUSH2 0xFFA JUMPI PUSH2 0xFF9 PUSH2 0x207F JUMP JUMPDEST JUMPDEST PUSH1 0x20 MUL PUSH1 0x20 ADD ADD MLOAD PUSH1 0x4 PUSH1 0x0 CALLER PUSH20 0xFFFFFFFFFFFFFFFFFFFFFFFFFFFFFFFFFFFFFFFF AND PUSH20 0xFFFFFFFFFFFFFFFFFFFFFFFFFFFFFFFFFFFFFFFF AND DUP2 MSTORE PUSH1 0x20 ADD SWAP1 DUP2 MSTORE PUSH1 0x20 ADD PUSH1 0x0 KECCAK256 PUSH1 0x0 DUP3 DUP3 SLOAD PUSH2 0x1050 SWAP2 SWAP1 PUSH2 0x1CEC JUMP JUMPDEST SWAP3 POP POP DUP2 SWAP1 SSTORE POP DUP4 DUP2 DUP2 MLOAD DUP2 LT PUSH2 0x106A JUMPI PUSH2 0x1069 PUSH2 0x207F JUMP JUMPDEST JUMPDEST PUSH1 0x20 MUL PUSH1 0x20 ADD ADD MLOAD PUSH1 0x4 PUSH1 0x0 DUP8 DUP5 DUP2 MLOAD DUP2 LT PUSH2 0x1089 JUMPI PUSH2 0x1088 PUSH2 0x207F JUMP JUMPDEST JUMPDEST PUSH1 0x20 MUL PUSH1 0x20 ADD ADD MLOAD PUSH20 0xFFFFFFFFFFFFFFFFFFFFFFFFFFFFFFFFFFFFFFFF AND PUSH20 0xFFFFFFFFFFFFFFFFFFFFFFFFFFFFFFFFFFFFFFFF AND DUP2 MSTORE PUSH1 0x20 ADD SWAP1 DUP2 MSTORE PUSH1 0x20 ADD PUSH1 0x0 KECCAK256 PUSH1 0x0 DUP3 DUP3 SLOAD PUSH2 0x10DA SWAP2 SWAP1 PUSH2 0x1D20 JUMP JUMPDEST SWAP3 POP POP DUP2 SWAP1 SSTORE POP PUSH32 0xDDF252AD1BE2C89B69C2B068FC378DAA952BA7F163C4A11628F55A4DF523B3EF CALLER DUP7 DUP4 DUP2 MLOAD DUP2 LT PUSH2 0x1116 JUMPI PUSH2 0x1115 PUSH2 0x207F JUMP JUMPDEST JUMPDEST PUSH1 0x20 MUL PUSH1 0x20 ADD ADD MLOAD DUP7 DUP5 DUP2 MLOAD DUP2 LT PUSH2 0x1131 JUMPI PUSH2 0x1130 PUSH2 0x207F JUMP JUMPDEST JUMPDEST PUSH1 0x20 MUL PUSH1 0x20 ADD ADD MLOAD PUSH1 0x40 MLOAD PUSH2 0x1148 SWAP4 SWAP3 SWAP2 SWAP1 PUSH2 0x1D54 JUMP JUMPDEST PUSH1 0x40 MLOAD DUP1 SWAP2 SUB SWAP1 LOG1 DUP1 DUP1 PUSH1 0x1 ADD SWAP2 POP POP PUSH2 0xFDE JUMP JUMPDEST POP PUSH1 0x1 SWAP2 POP POP SWAP3 SWAP2 POP POP JUMP JUMPDEST PUSH1 0x6 PUSH1 0x0 SWAP1 SLOAD SWAP1 PUSH2 0x100 EXP SWAP1 DIV PUSH20 0xFFFFFFFFFFFFFFFFFFFFFFFFFFFFFFFFFFFFFFFF AND DUP2 JUMP JUMPDEST PUSH1 0x1 DUP1 SLOAD PUSH2 0x119C SWAP1 PUSH2 0x1A70 JUMP JUMPDEST DUP1 PUSH1 0x1F ADD PUSH1 0x20 DUP1 SWAP2 DIV MUL PUSH1 0x20 ADD PUSH1 0x40 MLOAD SWAP1 DUP2 ADD PUSH1 0x40 MSTORE DUP1 SWAP3 SWAP2 SWAP1 DUP2 DUP2 MSTORE PUSH1 0x20 ADD DUP3 DUP1 SLOAD PUSH2 0x11C8 SWAP1 PUSH2 0x1A70 JUMP JUMPDEST DUP1 ISZERO PUSH2 0x1215 JUMPI DUP1 PUSH1 0x1F LT PUSH2 0x11EA JUMPI PUSH2 0x100 DUP1 DUP4 SLOAD DIV MUL DUP4 MSTORE SWAP2 PUSH1 0x20 ADD SWAP2 PUSH2 0x1215 JUMP JUMPDEST DUP3 ADD SWAP2 SWAP1 PUSH1 0x0 MSTORE PUSH1 0x20 PUSH1 0x0 KECCAK256 SWAP1 JUMPDEST DUP2 SLOAD DUP2 MSTORE SWAP1 PUSH1 0x1 ADD SWAP1 PUSH1 0x20 ADD DUP1 DUP4 GT PUSH2 0x11F8 JUMPI DUP3 SWAP1 SUB PUSH1 0x1F AND DUP3 ADD SWAP2 JUMPDEST POP POP POP POP POP DUP2 JUMP JUMPDEST PUSH1 0x0 PUSH1 0x6 PUSH1 0x14 SWAP1 SLOAD SWAP1 PUSH2 0x100 EXP SWAP1 DIV PUSH1 0xFF AND ISZERO PUSH2 0x126F JUMPI PUSH1 0x40 MLOAD PUSH32 0x8C379A000000000000000000000000000000000000000000000000000000000 DUP2 MSTORE PUSH1 0x4 ADD PUSH2 0x1266 SWAP1 PUSH2 0x1AED JUMP JUMPDEST PUSH1 0x40 MLOAD DUP1 SWAP2 SUB SWAP1 REVERT JUMPDEST PUSH1 0x0 PUSH20 0xFFFFFFFFFFFFFFFFFFFFFFFFFFFFFFFFFFFFFFFF AND DUP4 PUSH20 0xFFFFFFFFFFFFFFFFFFFFFFFFFFFFFFFFFFFFFFFF AND SUB PUSH2 0x12DE JUMPI PUSH1 0x40 MLOAD PUSH32 0x8C379A000000000000000000000000000000000000000000000000000000000 DUP2 MSTORE PUSH1 0x4 ADD PUSH2 0x12D5 SWAP1 PUSH2 0x2166 JUMP JUMPDEST PUSH1 0x40 MLOAD DUP1 SWAP2 SUB SWAP1 REVERT JUMPDEST DUP2 PUSH1 0x4 PUSH1 0x0 CALLER PUSH20 0xFFFFFFFFFFFFFFFFFFFFFFFFFFFFFFFFFFFFFFFF AND PUSH20 0xFFFFFFFFFFFFFFFFFFFFFFFFFFFFFFFFFFFFFFFF AND DUP2 MSTORE PUSH1 0x20 ADD SWAP1 DUP2 MSTORE PUSH1 0x20 ADD PUSH1 0x0 KECCAK256 SLOAD LT ISZERO PUSH2 0x1360 JUMPI PUSH1 0x40 MLOAD PUSH32 0x8C379A000000000000000000000000000000000000000000000000000000000 DUP2 MSTORE PUSH1 0x4 ADD PUSH2 0x1357 SWAP1 PUSH2 0x1F87 JUMP JUMPDEST PUSH1 0x40 MLOAD DUP1 SWAP2 SUB SWAP1 REVERT JUMPDEST DUP2 PUSH1 0x4 PUSH1 0x0 CALLER PUSH20 0xFFFFFFFFFFFFFFFFFFFFFFFFFFFFFFFFFFFFFFFF AND PUSH20 0xFFFFFFFFFFFFFFFFFFFFFFFFFFFFFFFFFFFFFFFF AND DUP2 MSTORE PUSH1 0x20 ADD SWAP1 DUP2 MSTORE PUSH1 0x20 ADD PUSH1 0x0 KECCAK256 PUSH1 0x0 DUP3 DUP3 SLOAD PUSH2 0x13AF SWAP2 SWAP1 PUSH2 0x1CEC JUMP JUMPDEST SWAP3 POP POP DUP2 SWAP1 SSTORE POP DUP2 PUSH1 0x4 PUSH1 0x0 DUP6 PUSH20 0xFFFFFFFFFFFFFFFFFFFFFFFFFFFFFFFFFFFFFFFF AND PUSH20 0xFFFFFFFFFFFFFFFFFFFFFFFFFFFFFFFFFFFFFFFF AND DUP2 MSTORE PUSH1 0x20 ADD SWAP1 DUP2 MSTORE PUSH1 0x20 ADD PUSH1 0x0 KECCAK256 PUSH1 0x0 DUP3 DUP3 SLOAD PUSH2 0x1405 SWAP2 SWAP1 PUSH2 0x1D20 JUMP JUMPDEST SWAP3 POP POP DUP2 SWAP1 SSTORE POP PUSH32 0xDDF252AD1BE2C89B69C2B068FC378DAA952BA7F163C4A11628F55A4DF523B3EF CALLER DUP5 DUP5 PUSH1 0x40 MLOAD PUSH2 0x143F SWAP4 SWAP3 SWAP2 SWAP1 PUSH2 0x1D54 JUMP JUMPDEST PUSH1 0x40 MLOAD DUP1 SWAP2 SUB SWAP1 LOG1 PUSH1 0x1 SWAP1 POP SWAP3 SWAP2 POP POP JUMP JUMPDEST PUSH1 0x5 PUSH1 0x20 MSTORE DUP2 PUSH1 0x0 MSTORE PUSH1 0x40 PUSH1 0x0 KECCAK256 PUSH1 0x20 MSTORE DUP1 PUSH1 0x0 MSTORE PUSH1 0x40 PUSH1 0x0 KECCAK256 PUSH1 0x0 SWAP2 POP SWAP2 POP POP SLOAD DUP2 JUMP JUMPDEST PUSH1 0x0 DUP2 MLOAD SWAP1 POP SWAP2 SWAP1 POP JUMP JUMPDEST PUSH1 0x0 DUP3 DUP3 MSTORE PUSH1 0x20 DUP3 ADD SWAP1 POP SWAP3 SWAP2 POP POP JUMP JUMPDEST PUSH1 0x0 JUMPDEST DUP4 DUP2 LT ISZERO PUSH2 0x14B0 JUMPI DUP1 DUP3 ADD MLOAD DUP2 DUP5 ADD MSTORE PUSH1 0x20 DUP2 ADD SWAP1 POP PUSH2 0x1495 JUMP JUMPDEST PUSH1 0x0 DUP5 DUP5 ADD MSTORE POP POP POP POP JUMP JUMPDEST PUSH1 0x0 PUSH1 0x1F NOT PUSH1 0x1F DUP4 ADD AND SWAP1 POP SWAP2 SWAP1 POP JUMP JUMPDEST PUSH1 0x0 PUSH2 0x14D8 DUP3 PUSH2 0x1476 JUMP JUMPDEST PUSH2 0x14E2 DUP2 DUP6 PUSH2 0x1481 JUMP JUMPDEST SWAP4 POP PUSH2 0x14F2 DUP2 DUP6 PUSH1 0x20 DUP7 ADD PUSH2 0x1492 JUMP JUMPDEST PUSH2 0x14FB DUP2 PUSH2 0x14BC JUMP JUMPDEST DUP5 ADD SWAP2 POP POP SWAP3 SWAP2 POP POP JUMP JUMPDEST PUSH1 0x0 PUSH1 0x20 DUP3 ADD SWAP1 POP DUP2 DUP2 SUB PUSH1 0x0 DUP4 ADD MSTORE PUSH2 0x1520 DUP2 DUP5 PUSH2 0x14CD JUMP JUMPDEST SWAP1 POP SWAP3 SWAP2 POP POP JUMP JUMPDEST PUSH1 0x0 DUP2 SWAP1 POP SWAP2 SWAP1 POP JUMP JUMPDEST PUSH2 0x153B DUP2 PUSH2 0x1528 JUMP JUMPDEST DUP3 MSTORE POP POP JUMP JUMPDEST PUSH1 0x0 PUSH1 0x20 DUP3 ADD SWAP1 POP PUSH2 0x1556 PUSH1 0x0 DUP4 ADD DUP5 PUSH2 0x1532 JUMP JUMPDEST SWAP3 SWAP2 POP POP JUMP JUMPDEST PUSH1 0x0 PUSH1 0x40 MLOAD SWAP1 POP SWAP1 JUMP JUMPDEST PUSH1 0x0 DUP1 REVERT JUMPDEST PUSH1 0x0 DUP1 REVERT JUMPDEST PUSH1 0x0 PUSH20 0xFFFFFFFFFFFFFFFFFFFFFFFFFFFFFFFFFFFFFFFF DUP3 AND SWAP1 POP SWAP2 SWAP1 POP JUMP JUMPDEST PUSH1 0x0 PUSH2 0x159B DUP3 PUSH2 0x1570 JUMP JUMPDEST SWAP1 POP SWAP2 SWAP1 POP JUMP JUMPDEST PUSH2 0x15AB DUP2 PUSH2 0x1590 JUMP JUMPDEST DUP2 EQ PUSH2 0x15B6 JUMPI PUSH1 0x0 DUP1 REVERT JUMPDEST POP JUMP JUMPDEST PUSH1 0x0 DUP2 CALLDATALOAD SWAP1 POP PUSH2 0x15C8 DUP2 PUSH2 0x15A2 JUMP JUMPDEST SWAP3 SWAP2 POP POP JUMP JUMPDEST PUSH2 0x15D7 DUP2 PUSH2 0x1528 JUMP JUMPDEST DUP2 EQ PUSH2 0x15E2 JUMPI PUSH1 0x0 DUP1 REVERT JUMPDEST POP JUMP JUMPDEST PUSH1 0x0 DUP2 CALLDATALOAD SWAP1 POP PUSH2 0x15F4 DUP2 PUSH2 0x15CE JUMP JUMPDEST SWAP3 SWAP2 POP POP JUMP JUMPDEST PUSH1 0x0 DUP1 PUSH1 0x0 PUSH1 0x60 DUP5 DUP7 SUB SLT ISZERO PUSH2 0x1613 JUMPI PUSH2 0x1612 PUSH2 0x1566 JUMP JUMPDEST JUMPDEST PUSH1 0x0 PUSH2 0x1621 DUP7 DUP3 DUP8 ADD PUSH2 0x15B9 JUMP JUMPDEST SWAP4 POP POP PUSH1 0x20 PUSH2 0x1632 DUP7 DUP3 DUP8 ADD PUSH2 0x15B9 JUMP JUMPDEST SWAP3 POP POP PUSH1 0x40 PUSH2 0x1643 DUP7 DUP3 DUP8 ADD PUSH2 0x15E5 JUMP JUMPDEST SWAP2 POP POP SWAP3 POP SWAP3 POP SWAP3 JUMP JUMPDEST PUSH1 0x0 DUP2 ISZERO ISZERO SWAP1 POP SWAP2 SWAP1 POP JUMP JUMPDEST PUSH2 0x1662 DUP2 PUSH2 0x164D JUMP JUMPDEST DUP3 MSTORE POP POP JUMP JUMPDEST PUSH1 0x0 PUSH1 0x20 DUP3 ADD SWAP1 POP PUSH2 0x167D PUSH1 0x0 DUP4 ADD DUP5 PUSH2 0x1659 JUMP JUMPDEST SWAP3 SWAP2 POP POP JUMP JUMPDEST PUSH1 0x0 PUSH1 0xFF DUP3 AND SWAP1 POP SWAP2 SWAP1 POP JUMP JUMPDEST PUSH2 0x1699 DUP2 PUSH2 0x1683 JUMP JUMPDEST DUP3 MSTORE POP POP JUMP JUMPDEST PUSH1 0x0 PUSH1 0x20 DUP3 ADD SWAP1 POP PUSH2 0x16B4 PUSH1 0x0 DUP4 ADD DUP5 PUSH2 0x1690 JUMP JUMPDEST SWAP3 SWAP2 POP POP JUMP JUMPDEST PUSH1 0x0 DUP1 PUSH1 0x40 DUP4 DUP6 SUB SLT ISZERO PUSH2 0x16D1 JUMPI PUSH2 0x16D0 PUSH2 0x1566 JUMP JUMPDEST JUMPDEST PUSH1 0x0 PUSH2 0x16DF DUP6 DUP3 DUP7 ADD PUSH2 0x15B9 JUMP JUMPDEST SWAP3 POP POP PUSH1 0x20 PUSH2 0x16F0 DUP6 DUP3 DUP7 ADD PUSH2 0x15E5 JUMP JUMPDEST SWAP2 POP POP SWAP3 POP SWAP3 SWAP1 POP JUMP JUMPDEST PUSH1 0x0 PUSH1 0x20 DUP3 DUP5 SUB SLT ISZERO PUSH2 0x1710 JUMPI PUSH2 0x170F PUSH2 0x1566 JUMP JUMPDEST JUMPDEST PUSH1 0x0 PUSH2 0x171E DUP5 DUP3 DUP6 ADD PUSH2 0x15E5 JUMP JUMPDEST SWAP2 POP POP SWAP3 SWAP2 POP POP JUMP JUMPDEST PUSH1 0x0 PUSH1 0x20 DUP3 DUP5 SUB SLT ISZERO PUSH2 0x173D JUMPI PUSH2 0x173C PUSH2 0x1566 JUMP JUMPDEST JUMPDEST PUSH1 0x0 PUSH2 0x174B DUP5 DUP3 DUP6 ADD PUSH2 0x15B9 JUMP JUMPDEST SWAP2 POP POP SWAP3 SWAP2 POP POP JUMP JUMPDEST PUSH1 0x0 DUP1 REVERT JUMPDEST PUSH32 0x4E487B7100000000000000000000000000000000000000000000000000000000 PUSH1 0x0 MSTORE PUSH1 0x41 PUSH1 0x4 MSTORE PUSH1 0x24 PUSH1 0x0 REVERT JUMPDEST PUSH2 0x1791 DUP3 PUSH2 0x14BC JUMP JUMPDEST DUP2 ADD DUP2 DUP2 LT PUSH8 0xFFFFFFFFFFFFFFFF DUP3 GT OR ISZERO PUSH2 0x17B0 JUMPI PUSH2 0x17AF PUSH2 0x1759 JUMP JUMPDEST JUMPDEST DUP1 PUSH1 0x40 MSTORE POP POP POP JUMP JUMPDEST PUSH1 0x0 PUSH2 0x17C3 PUSH2 0x155C JUMP JUMPDEST SWAP1 POP PUSH2 0x17CF DUP3 DUP3 PUSH2 0x1788 JUMP JUMPDEST SWAP2 SWAP1 POP JUMP JUMPDEST PUSH1 0x0 PUSH8 0xFFFFFFFFFFFFFFFF DUP3 GT ISZERO PUSH2 0x17EF JUMPI PUSH2 0x17EE PUSH2 0x1759 JUMP JUMPDEST JUMPDEST PUSH1 0x20 DUP3 MUL SWAP1 POP PUSH1 0x20 DUP2 ADD SWAP1 POP SWAP2 SWAP1 POP JUMP JUMPDEST PUSH1 0x0 DUP1 REVERT JUMPDEST PUSH1 0x0 PUSH2 0x1818 PUSH2 0x1813 DUP5 PUSH2 0x17D4 JUMP JUMPDEST PUSH2 0x17B9 JUMP JUMPDEST SWAP1 POP DUP1 DUP4 DUP3 MSTORE PUSH1 0x20 DUP3 ADD SWAP1 POP PUSH1 0x20 DUP5 MUL DUP4 ADD DUP6 DUP2 GT ISZERO PUSH2 0x183B JUMPI PUSH2 0x183A PUSH2 0x1800 JUMP JUMPDEST JUMPDEST DUP4 JUMPDEST DUP2 DUP2 LT ISZERO PUSH2 0x1864 JUMPI DUP1 PUSH2 0x1850 DUP9 DUP3 PUSH2 0x15B9 JUMP JUMPDEST DUP5 MSTORE PUSH1 0x20 DUP5 ADD SWAP4 POP POP PUSH1 0x20 DUP2 ADD SWAP1 POP PUSH2 0x183D JUMP JUMPDEST POP POP POP SWAP4 SWAP3 POP POP POP JUMP JUMPDEST PUSH1 0x0 DUP3 PUSH1 0x1F DUP4 ADD SLT PUSH2 0x1883 JUMPI PUSH2 0x1882 PUSH2 0x1754 JUMP JUMPDEST JUMPDEST DUP2 CALLDATALOAD PUSH2 0x1893 DUP5 DUP3 PUSH1 0x20 DUP7 ADD PUSH2 0x1805 JUMP JUMPDEST SWAP2 POP POP SWAP3 SWAP2 POP POP JUMP JUMPDEST PUSH1 0x0 PUSH8 0xFFFFFFFFFFFFFFFF DUP3 GT ISZERO PUSH2 0x18B7 JUMPI PUSH2 0x18B6 PUSH2 0x1759 JUMP JUMPDEST JUMPDEST PUSH1 0x20 DUP3 MUL SWAP1 POP PUSH1 0x20 DUP2 ADD SWAP1 POP SWAP2 SWAP1 POP JUMP JUMPDEST PUSH1 0x0 PUSH2 0x18DB PUSH2 0x18D6 DUP5 PUSH2 0x189C JUMP JUMPDEST PUSH2 0x17B9 JUMP JUMPDEST SWAP1 POP DUP1 DUP4 DUP3 MSTORE PUSH1 0x20 DUP3 ADD SWAP1 POP PUSH1 0x20 DUP5 MUL DUP4 ADD DUP6 DUP2 GT ISZERO PUSH2 0x18FE JUMPI PUSH2 0x18FD PUSH2 0x1800 JUMP JUMPDEST JUMPDEST DUP4 JUMPDEST DUP2 DUP2 LT ISZERO PUSH2 0x1927 JUMPI DUP1 PUSH2 0x1913 DUP9 DUP3 PUSH2 0x15E5 JUMP JUMPDEST DUP5 MSTORE PUSH1 0x20 DUP5 ADD SWAP4 POP POP PUSH1 0x20 DUP2 ADD SWAP1 POP PUSH2 0x1900 JUMP JUMPDEST POP POP POP SWAP4 SWAP3 POP POP POP JUMP JUMPDEST PUSH1 0x0 DUP3 PUSH1 0x1F DUP4 ADD SLT PUSH2 0x1946 JUMPI PUSH2 0x1945 PUSH2 0x1754 JUMP JUMPDEST JUMPDEST DUP2 CALLDATALOAD PUSH2 0x1956 DUP5 DUP3 PUSH1 0x20 DUP7 ADD PUSH2 0x18C8 JUMP JUMPDEST SWAP2 POP POP SWAP3 SWAP2 POP POP JUMP JUMPDEST PUSH1 0x0 DUP1 PUSH1 0x40 DUP4 DUP6 SUB SLT ISZERO PUSH2 0x1976 JUMPI PUSH2 0x1975 PUSH2 0x1566 JUMP JUMPDEST JUMPDEST PUSH1 0x0 DUP4 ADD CALLDATALOAD PUSH8 0xFFFFFFFFFFFFFFFF DUP2 GT ISZERO PUSH2 0x1994 JUMPI PUSH2 0x1993 PUSH2 0x156B JUMP JUMPDEST JUMPDEST PUSH2 0x19A0 DUP6 DUP3 DUP7 ADD PUSH2 0x186E JUMP JUMPDEST SWAP3 POP POP PUSH1 0x20 DUP4 ADD CALLDATALOAD PUSH8 0xFFFFFFFFFFFFFFFF DUP2 GT ISZERO PUSH2 0x19C1 JUMPI PUSH2 0x19C0 PUSH2 0x156B JUMP JUMPDEST JUMPDEST PUSH2 0x19CD DUP6 DUP3 DUP7 ADD PUSH2 0x1931 JUMP JUMPDEST SWAP2 POP POP SWAP3 POP SWAP3 SWAP1 POP JUMP JUMPDEST PUSH2 0x19E0 DUP2 PUSH2 0x1590 JUMP JUMPDEST DUP3 MSTORE POP POP JUMP JUMPDEST PUSH1 0x0 PUSH1 0x20 DUP3 ADD SWAP1 POP PUSH2 0x19FB PUSH1 0x0 DUP4 ADD DUP5 PUSH2 0x19D7 JUMP JUMPDEST SWAP3 SWAP2 POP POP JUMP JUMPDEST PUSH1 0x0 DUP1 PUSH1 0x40 DUP4 DUP6 SUB SLT ISZERO PUSH2 0x1A18 JUMPI PUSH2 0x1A17 PUSH2 0x1566 JUMP JUMPDEST JUMPDEST PUSH1 0x0 PUSH2 0x1A26 DUP6 DUP3 DUP7 ADD PUSH2 0x15B9 JUMP JUMPDEST SWAP3 POP POP PUSH1 0x20 PUSH2 0x1A37 DUP6 DUP3 DUP7 ADD PUSH2 0x15B9 JUMP JUMPDEST SWAP2 POP POP SWAP3 POP SWAP3 SWAP1 POP JUMP JUMPDEST PUSH32 0x4E487B7100000000000000000000000000000000000000000000000000000000 PUSH1 0x0 MSTORE PUSH1 0x22 PUSH1 0x4 MSTORE PUSH1 0x24 PUSH1 0x0 REVERT JUMPDEST PUSH1 0x0 PUSH1 0x2 DUP3 DIV SWAP1 POP PUSH1 0x1 DUP3 AND DUP1 PUSH2 0x1A88 JUMPI PUSH1 0x7F DUP3 AND SWAP2 POP JUMPDEST PUSH1 0x20 DUP3 LT DUP2 SUB PUSH2 0x1A9B JUMPI PUSH2 0x1A9A PUSH2 0x1A41 JUMP JUMPDEST JUMPDEST POP SWAP2 SWAP1 POP JUMP JUMPDEST PUSH32 0x436F6E7472616374206973207061757365640000000000000000000000000000 PUSH1 0x0 DUP3 ADD MSTORE POP JUMP JUMPDEST PUSH1 0x0 PUSH2 0x1AD7 PUSH1 0x12 DUP4 PUSH2 0x1481 JUMP JUMPDEST SWAP2 POP PUSH2 0x1AE2 DUP3 PUSH2 0x1AA1 JUMP JUMPDEST PUSH1 0x20 DUP3 ADD SWAP1 POP SWAP2 SWAP1 POP JUMP JUMPDEST PUSH1 0x0 PUSH1 0x20 DUP3 ADD SWAP1 POP DUP2 DUP2 SUB PUSH1 0x0 DUP4 ADD MSTORE PUSH2 0x1B06 DUP2 PUSH2 0x1ACA JUMP JUMPDEST SWAP1 POP SWAP2 SWAP1 POP JUMP JUMPDEST PUSH32 0x66726F6D205A65726F0000000000000000000000000000000000000000000000 PUSH1 0x0 DUP3 ADD MSTORE POP JUMP JUMPDEST PUSH1 0x0 PUSH2 0x1B43 PUSH1 0x9 DUP4 PUSH2 0x1481 JUMP JUMPDEST SWAP2 POP PUSH2 0x1B4E DUP3 PUSH2 0x1B0D JUMP JUMPDEST PUSH1 0x20 DUP3 ADD SWAP1 POP SWAP2 SWAP1 POP JUMP JUMPDEST PUSH1 0x0 PUSH1 0x20 DUP3 ADD SWAP1 POP DUP2 DUP2 SUB PUSH1 0x0 DUP4 ADD MSTORE PUSH2 0x1B72 DUP2 PUSH2 0x1B36 JUMP JUMPDEST SWAP1 POP SWAP2 SWAP1 POP JUMP JUMPDEST PUSH32 0x746F205A65726F00000000000000000000000000000000000000000000000000 PUSH1 0x0 DUP3 ADD MSTORE POP JUMP JUMPDEST PUSH1 0x0 PUSH2 0x1BAF PUSH1 0x7 DUP4 PUSH2 0x1481 JUMP JUMPDEST SWAP2 POP PUSH2 0x1BBA DUP3 PUSH2 0x1B79 JUMP JUMPDEST PUSH1 0x20 DUP3 ADD SWAP1 POP SWAP2 SWAP1 POP JUMP JUMPDEST PUSH1 0x0 PUSH1 0x20 DUP3 ADD SWAP1 POP DUP2 DUP2 SUB PUSH1 0x0 DUP4 ADD MSTORE PUSH2 0x1BDE DUP2 PUSH2 0x1BA2 JUMP JUMPDEST SWAP1 POP SWAP2 SWAP1 POP JUMP JUMPDEST PUSH32 0x496E73756666696369656E742042616C616E6365000000000000000000000000 PUSH1 0x0 DUP3 ADD MSTORE POP JUMP JUMPDEST PUSH1 0x0 PUSH2 0x1C1B PUSH1 0x14 DUP4 PUSH2 0x1481 JUMP JUMPDEST SWAP2 POP PUSH2 0x1C26 DUP3 PUSH2 0x1BE5 JUMP JUMPDEST PUSH1 0x20 DUP3 ADD SWAP1 POP SWAP2 SWAP1 POP JUMP JUMPDEST PUSH1 0x0 PUSH1 0x20 DUP3 ADD SWAP1 POP DUP2 DUP2 SUB PUSH1 0x0 DUP4 ADD MSTORE PUSH2 0x1C4A DUP2 PUSH2 0x1C0E JUMP JUMPDEST SWAP1 POP SWAP2 SWAP1 POP JUMP JUMPDEST PUSH32 0x496E73756666696369656E7420616C6C6F77616E636500000000000000000000 PUSH1 0x0 DUP3 ADD MSTORE POP JUMP JUMPDEST PUSH1 0x0 PUSH2 0x1C87 PUSH1 0x16 DUP4 PUSH2 0x1481 JUMP JUMPDEST SWAP2 POP PUSH2 0x1C92 DUP3 PUSH2 0x1C51 JUMP JUMPDEST PUSH1 0x20 DUP3 ADD SWAP1 POP SWAP2 SWAP1 POP JUMP JUMPDEST PUSH1 0x0 PUSH1 0x20 DUP3 ADD SWAP1 POP DUP2 DUP2 SUB PUSH1 0x0 DUP4 ADD MSTORE PUSH2 0x1CB6 DUP2 PUSH2 0x1C7A JUMP JUMPDEST SWAP1 POP SWAP2 SWAP1 POP JUMP JUMPDEST PUSH32 0x4E487B7100000000000000000000000000000000000000000000000000000000 PUSH1 0x0 MSTORE PUSH1 0x11 PUSH1 0x4 MSTORE PUSH1 0x24 PUSH1 0x0 REVERT JUMPDEST PUSH1 0x0 PUSH2 0x1CF7 DUP3 PUSH2 0x1528 JUMP JUMPDEST SWAP2 POP PUSH2 0x1D02 DUP4 PUSH2 0x1528 JUMP JUMPDEST SWAP3 POP DUP3 DUP3 SUB SWAP1 POP DUP2 DUP2 GT ISZERO PUSH2 0x1D1A JUMPI PUSH2 0x1D19 PUSH2 0x1CBD JUMP JUMPDEST JUMPDEST SWAP3 SWAP2 POP POP JUMP JUMPDEST PUSH1 0x0 PUSH2 0x1D2B DUP3 PUSH2 0x1528 JUMP JUMPDEST SWAP2 POP PUSH2 0x1D36 DUP4 PUSH2 0x1528 JUMP JUMPDEST SWAP3 POP DUP3 DUP3 ADD SWAP1 POP DUP1 DUP3 GT ISZERO PUSH2 0x1D4E JUMPI PUSH2 0x1D4D PUSH2 0x1CBD JUMP JUMPDEST JUMPDEST SWAP3 SWAP2 POP POP JUMP JUMPDEST PUSH1 0x0 PUSH1 0x60 DUP3 ADD SWAP1 POP PUSH2 0x1D69 PUSH1 0x0 DUP4 ADD DUP7 PUSH2 0x19D7 JUMP JUMPDEST PUSH2 0x1D76 PUSH1 0x20 DUP4 ADD DUP6 PUSH2 0x19D7 JUMP JUMPDEST PUSH2 0x1D83 PUSH1 0x40 DUP4 ADD DUP5 PUSH2 0x1532 JUMP JUMPDEST SWAP5 SWAP4 POP POP POP POP JUMP JUMPDEST PUSH32 0x4F6E6C79206F776E65722063616E206F7065726174696F6E0000000000000000 PUSH1 0x0 DUP3 ADD MSTORE POP JUMP JUMPDEST PUSH1 0x0 PUSH2 0x1DC1 PUSH1 0x18 DUP4 PUSH2 0x1481 JUMP JUMPDEST SWAP2 POP PUSH2 0x1DCC DUP3 PUSH2 0x1D8B JUMP JUMPDEST PUSH1 0x20 DUP3 ADD SWAP1 POP SWAP2 SWAP1 POP JUMP JUMPDEST PUSH1 0x0 PUSH1 0x20 DUP3 ADD SWAP1 POP DUP2 DUP2 SUB PUSH1 0x0 DUP4 ADD MSTORE PUSH2 0x1DF0 DUP2 PUSH2 0x1DB4 JUMP JUMPDEST SWAP1 POP SWAP2 SWAP1 POP JUMP JUMPDEST PUSH32 0x43616E6E6F74206D696E7420746F207A65726F20616464726573730000000000 PUSH1 0x0 DUP3 ADD MSTORE POP JUMP JUMPDEST PUSH1 0x0 PUSH2 0x1E2D PUSH1 0x1B DUP4 PUSH2 0x1481 JUMP JUMPDEST SWAP2 POP PUSH2 0x1E38 DUP3 PUSH2 0x1DF7 JUMP JUMPDEST PUSH1 0x20 DUP3 ADD SWAP1 POP SWAP2 SWAP1 POP JUMP JUMPDEST PUSH1 0x0 PUSH1 0x20 DUP3 ADD SWAP1 POP DUP2 DUP2 SUB PUSH1 0x0 DUP4 ADD MSTORE PUSH2 0x1E5C DUP2 PUSH2 0x1E20 JUMP JUMPDEST SWAP1 POP SWAP2 SWAP1 POP JUMP JUMPDEST PUSH32 0x496E73756666696369656E742062616C616E636520746F206275726E00000000 PUSH1 0x0 DUP3 ADD MSTORE POP JUMP JUMPDEST PUSH1 0x0 PUSH2 0x1E99 PUSH1 0x1C DUP4 PUSH2 0x1481 JUMP JUMPDEST SWAP2 POP PUSH2 0x1EA4 DUP3 PUSH2 0x1E63 JUMP JUMPDEST PUSH1 0x20 DUP3 ADD SWAP1 POP SWAP2 SWAP1 POP JUMP JUMPDEST PUSH1 0x0 PUSH1 0x20 DUP3 ADD SWAP1 POP DUP2 DUP2 SUB PUSH1 0x0 DUP4 ADD MSTORE PUSH2 0x1EC8 DUP2 PUSH2 0x1E8C JUMP JUMPDEST SWAP1 POP SWAP2 SWAP1 POP JUMP JUMPDEST PUSH32 0x63616E206E6F7420617070726F76616C20746F207A65726F2061646472657373 PUSH1 0x0 DUP3 ADD MSTORE POP JUMP JUMPDEST PUSH1 0x0 PUSH2 0x1F05 PUSH1 0x20 DUP4 PUSH2 0x1481 JUMP JUMPDEST SWAP2 POP PUSH2 0x1F10 DUP3 PUSH2 0x1ECF JUMP JUMPDEST PUSH1 0x20 DUP3 ADD SWAP1 POP SWAP2 SWAP1 POP JUMP JUMPDEST PUSH1 0x0 PUSH1 0x20 DUP3 ADD SWAP1 POP DUP2 DUP2 SUB PUSH1 0x0 DUP4 ADD MSTORE PUSH2 0x1F34 DUP2 PUSH2 0x1EF8 JUMP JUMPDEST SWAP1 POP SWAP2 SWAP1 POP JUMP JUMPDEST PUSH32 0x696E73756666696369656E742062616C616E6365000000000000000000000000 PUSH1 0x0 DUP3 ADD MSTORE POP JUMP JUMPDEST PUSH1 0x0 PUSH2 0x1F71 PUSH1 0x14 DUP4 PUSH2 0x1481 JUMP JUMPDEST SWAP2 POP PUSH2 0x1F7C DUP3 PUSH2 0x1F3B JUMP JUMPDEST PUSH1 0x20 DUP3 ADD SWAP1 POP SWAP2 SWAP1 POP JUMP JUMPDEST PUSH1 0x0 PUSH1 0x20 DUP3 ADD SWAP1 POP DUP2 DUP2 SUB PUSH1 0x0 DUP4 ADD MSTORE PUSH2 0x1FA0 DUP2 PUSH2 0x1F64 JUMP JUMPDEST SWAP1 POP SWAP2 SWAP1 POP JUMP JUMPDEST PUSH32 0x4C656E677468206D69736D617463680000000000000000000000000000000000 PUSH1 0x0 DUP3 ADD MSTORE POP JUMP JUMPDEST PUSH1 0x0 PUSH2 0x1FDD PUSH1 0xF DUP4 PUSH2 0x1481 JUMP JUMPDEST SWAP2 POP PUSH2 0x1FE8 DUP3 PUSH2 0x1FA7 JUMP JUMPDEST PUSH1 0x20 DUP3 ADD SWAP1 POP SWAP2 SWAP1 POP JUMP JUMPDEST PUSH1 0x0 PUSH1 0x20 DUP3 ADD SWAP1 POP DUP2 DUP2 SUB PUSH1 0x0 DUP4 ADD MSTORE PUSH2 0x200C DUP2 PUSH2 0x1FD0 JUMP JUMPDEST SWAP1 POP SWAP2 SWAP1 POP JUMP JUMPDEST PUSH32 0x426174636820746F6F206C617267650000000000000000000000000000000000 PUSH1 0x0 DUP3 ADD MSTORE POP JUMP JUMPDEST PUSH1 0x0 PUSH2 0x2049 PUSH1 0xF DUP4 PUSH2 0x1481 JUMP JUMPDEST SWAP2 POP PUSH2 0x2054 DUP3 PUSH2 0x2013 JUMP JUMPDEST PUSH1 0x20 DUP3 ADD SWAP1 POP SWAP2 SWAP1 POP JUMP JUMPDEST PUSH1 0x0 PUSH1 0x20 DUP3 ADD SWAP1 POP DUP2 DUP2 SUB PUSH1 0x0 DUP4 ADD MSTORE PUSH2 0x2078 DUP2 PUSH2 0x203C JUMP JUMPDEST SWAP1 POP SWAP2 SWAP1 POP JUMP JUMPDEST PUSH32 0x4E487B7100000000000000000000000000000000000000000000000000000000 PUSH1 0x0 MSTORE PUSH1 0x32 PUSH1 0x4 MSTORE PUSH1 0x24 PUSH1 0x0 REVERT JUMPDEST PUSH32 0x496E73756666696369656E742062616C616E6365000000000000000000000000 PUSH1 0x0 DUP3 ADD MSTORE POP JUMP JUMPDEST PUSH1 0x0 PUSH2 0x20E4 PUSH1 0x14 DUP4 PUSH2 0x1481 JUMP JUMPDEST SWAP2 POP PUSH2 0x20EF DUP3 PUSH2 0x20AE JUMP JUMPDEST PUSH1 0x20 DUP3 ADD SWAP1 POP SWAP2 SWAP1 POP JUMP JUMPDEST PUSH1 0x0 PUSH1 0x20 DUP3 ADD SWAP1 POP DUP2 DUP2 SUB PUSH1 0x0 DUP4 ADD MSTORE PUSH2 0x2113 DUP2 PUSH2 0x20D7 JUMP JUMPDEST SWAP1 POP SWAP2 SWAP1 POP JUMP JUMPDEST PUSH32 0x63616E206E6F74207472616E7366657220746F207A65726F2061646472657373 PUSH1 0x0 DUP3 ADD MSTORE POP JUMP JUMPDEST PUSH1 0x0 PUSH2 0x2150 PUSH1 0x20 DUP4 PUSH2 0x1481 JUMP JUMPDEST SWAP2 POP PUSH2 0x215B DUP3 PUSH2 0x211A JUMP JUMPDEST PUSH1 0x20 DUP3 ADD SWAP1 POP SWAP2 SWAP1 POP JUMP JUMPDEST PUSH1 0x0 PUSH1 0x20 DUP3 ADD SWAP1 POP DUP2 DUP2 SUB PUSH1 0x0 DUP4 ADD MSTORE PUSH2 0x217F DUP2 PUSH2 0x2143 JUMP JUMPDEST SWAP1 POP SWAP2 SWAP1 POP JUMP INVALID LOG2 PUSH5 0x6970667358 0x22 SLT KECCAK256 PUSH10 0x70636DA592B17222D63B 0xEF KECCAK256 0xE7 SWAP1 DUP4 0xAD CHAINID PUSH0 SWAP2 0xE0 0x1E 0xB4 SWAP3 SSTORE 0xC4 0x5E 0x4C 0x4B SELFDESTRUCT PUSH17 0xF64736F6C634300081600330000000000 "
				},
				"gasEstimates": {
					"creation": {
						"codeDepositCost": "1727200",
						"executionCost": "infinite",
						"totalCost": "infinite"
					},
					"external": {
						"allowance(address,address)": "infinite",
						"approval(address,uint256)": "infinite",
						"balanceOf(address)": "2837",
						"batchTransfer(address[],uint256[])": "infinite",
						"burn(uint256)": "infinite",
						"decimals()": "2561",
						"mint(address,uint256)": "infinite",
						"name()": "infinite",
						"owner()": "2536",
						"pause()": "26698",
						"paused()": "2610",
						"symbol()": "infinite",
						"totalSupply()": "2475",
						"transfer(address,uint256)": "infinite",
						"transferFrom(address,address,uint256)": "infinite",
						"unpause()": "26654"
					}
				},
				"methodIdentifiers": {
					"allowance(address,address)": "dd62ed3e",
					"approval(address,uint256)": "75247a58",
					"balanceOf(address)": "70a08231",
					"batchTransfer(address[],uint256[])": "88d695b2",
					"burn(uint256)": "42966c68",
					"decimals()": "313ce567",
					"mint(address,uint256)": "40c10f19",
					"name()": "06fdde03",
					"owner()": "8da5cb5b",
					"pause()": "8456cb59",
					"paused()": "5c975abb",
					"symbol()": "95d89b41",
					"totalSupply()": "18160ddd",
					"transfer(address,uint256)": "a9059cbb",
					"transferFrom(address,address,uint256)": "23b872dd",
					"unpause()": "3f4ba83a"
				}
			},
			"storageLayout": {
				"storage": [
					{
						"astId": 4,
						"contract": "practise5.1/MyToken.sol:MyToken",
						"label": "name",
						"offset": 0,
						"slot": "0",
						"type": "t_string_storage"
					},
					{
						"astId": 7,
						"contract": "practise5.1/MyToken.sol:MyToken",
						"label": "symbol",
						"offset": 0,
						"slot": "1",
						"type": "t_string_storage"
					},
					{
						"astId": 10,
						"contract": "practise5.1/MyToken.sol:MyToken",
						"label": "decimals",
						"offset": 0,
						"slot": "2",
						"type": "t_uint8"
					},
					{
						"astId": 12,
						"contract": "practise5.1/MyToken.sol:MyToken",
						"label": "totalSupply",
						"offset": 0,
						"slot": "3",
						"type": "t_uint256"
					},
					{
						"astId": 16,
						"contract": "practise5.1/MyToken.sol:MyToken",
						"label": "balanceOf",
						"offset": 0,
						"slot": "4",
						"type": "t_mapping(t_address,t_uint256)"
					},
					{
						"astId": 22,
						"contract": "practise5.1/MyToken.sol:MyToken",
						"label": "allowance",
						"offset": 0,
						"slot": "5",
						"type": "t_mapping(t_address,t_mapping(t_address,t_uint256))"
					},
					{
						"astId": 24,
						"contract": "practise5.1/MyToken.sol:MyToken",
						"label": "owner",
						"offset": 0,
						"slot": "6",
						"type": "t_address"
					},
					{
						"astId": 60,
						"contract": "practise5.1/MyToken.sol:MyToken",
						"label": "paused",
						"offset": 20,
						"slot": "6",
						"type": "t_bool"
					}
				],
				"types": {
					"t_address": {
						"encoding": "inplace",
						"label": "address",
						"numberOfBytes": "20"
					},
					"t_bool": {
						"encoding": "inplace",
						"label": "bool",
						"numberOfBytes": "1"
					},
					"t_mapping(t_address,t_mapping(t_address,t_uint256))": {
						"encoding": "mapping",
						"key": "t_address",
						"label": "mapping(address => mapping(address => uint256))",
						"numberOfBytes": "32",
						"value": "t_mapping(t_address,t_uint256)"
					},
					"t_mapping(t_address,t_uint256)": {
						"encoding": "mapping",
						"key": "t_address",
						"label": "mapping(address => uint256)",
						"numberOfBytes": "32",
						"value": "t_uint256"
					},
					"t_string_storage": {
						"encoding": "bytes",
						"label": "string",
						"numberOfBytes": "32"
					},
					"t_uint256": {
						"encoding": "inplace",
						"label": "uint256",
						"numberOfBytes": "32"
					},
					"t_uint8": {
						"encoding": "inplace",
						"label": "uint8",
						"numberOfBytes": "1"
					}
				}
			},
			"userdoc": {
				"kind": "user",
				"methods": {},
				"version": 1
			}
		}
	}
}