{
	"practises/HelloWorld.sol": {
		"HelloWorld": {
			"abi": [
				{
					"inputs": [],
					"name": "getMessage",
					"outputs": [
						{
							"internalType": "string",
							"name": "",
							"type": "string"
						}
					],
					"stateMutability": "view",
					"type": "function"
				},
				{
					"inputs": [],
					"name": "getOwner",
					"outputs": [
						{
							"internalType": "address",
							"name": "",
							"type": "address"
						}
					],
					"stateMutability": "view",
					"type": "function"
				},
				{
					"inputs": [],
					"name": "isOwner",
					"outputs": [
						{
							"internalType": "bool",
							"name": "",
							"type": "bool"
						}
					],
					"stateMutability": "view",
					"type": "function"
				},
				{
					"inputs": [],
					"name": "message",
					"outputs": [
						{
							"internalType": "string",
							"name": "",
							"type": "string"
						}
					],
					"stateMutability": "view",
					"type": "function"
				},
				{
					"inputs": [],
					"name": "owner",
					"outputs": [
						{
							"internalType": "address",
							"name": "",
							"type": "address"
						}
					],
					"stateMutability": "view",
					"type": "function"
				},
				{
					"inputs": [],
					"name": "setOwner",
					"outputs": [],
					"stateMutability": "nonpayable",
					"type": "function"
				},
				{
					"inputs": [
						{
							"internalType": "string",
							"name": "newMessage",
							"type": "string"
						}
					],
					"name": "updateMessage",
					"outputs": [],
					"stateMutability": "nonpayable",
					"type": "function"
				}
			],
			"devdoc": {
				"kind": "dev",
				"methods": {},
				"version": 1
			},
			"evm": {
				"assembly": "    /* \"practises/HelloWorld.sol\":56:592  contract HelloWorld{... */\n  mstore(0x40, 0x80)\n    /* \"practises/HelloWorld.sol\":81:119  string public  message = \"hello world\" */\n  mload(0x40)\n  dup1\n  0x40\n  add\n  0x40\n  mstore\n  dup1\n  0x0b\n  dup2\n  mstore\n  0x20\n  add\n  0x68656c6c6f20776f726c64000000000000000000000000000000000000000000\n  dup2\n  mstore\n  pop\n  0x00\n  swap1\n  dup2\n  tag_1\n  swap2\n  swap1\n  tag_2\n  jump\t// in\ntag_1:\n  pop\n    /* \"practises/HelloWorld.sol\":56:592  contract HelloWorld{... */\n  callvalue\n  dup1\n  iszero\n  tag_3\n  jumpi\n  0x00\n  dup1\n  revert\ntag_3:\n  pop\n  jump(tag_4)\n    /* \"#utility.yul\":7:106   */\ntag_5:\n    /* \"#utility.yul\":59:65   */\n  0x00\n    /* \"#utility.yul\":93:98   */\n  dup2\n    /* \"#utility.yul\":87:99   */\n  mload\n    /* \"#utility.yul\":77:99   */\n  swap1\n  pop\n    /* \"#utility.yul\":7:106   */\n  swap2\n  swap1\n  pop\n  jump\t// out\n    /* \"#utility.yul\":112:292   */\ntag_6:\n    /* \"#utility.yul\":160:237   */\n  0x4e487b7100000000000000000000000000000000000000000000000000000000\n    /* \"#utility.yul\":157:158   */\n  0x00\n    /* \"#utility.yul\":150:238   */\n  mstore\n    /* \"#utility.yul\":257:261   */\n  0x41\n    /* \"#utility.yul\":254:255   */\n  0x04\n    /* \"#utility.yul\":247:262   */\n  mstore\n    /* \"#utility.yul\":281:285   */\n  0x24\n    /* \"#utility.yul\":278:279   */\n  0x00\n    /* \"#utility.yul\":271:286   */\n  revert\n    /* \"#utility.yul\":298:478   */\ntag_7:\n    /* \"#utility.yul\":346:423   */\n  0x4e487b7100000000000000000000000000000000000000000000000000000000\n    /* \"#utility.yul\":343:344   */\n  0x00\n    /* \"#utility.yul\":336:424   */\n  mstore\n    /* \"#utility.yul\":443:447   */\n  0x22\n    /* \"#utility.yul\":440:441   */\n  0x04\n    /* \"#utility.yul\":433:448   */\n  mstore\n    /* \"#utility.yul\":467:471   */\n  0x24\n    /* \"#utility.yul\":464:465   */\n  0x00\n    /* \"#utility.yul\":457:472   */\n  revert\n    /* \"#utility.yul\":484:804   */\ntag_8:\n    /* \"#utility.yul\":528:534   */\n  0x00\n    /* \"#utility.yul\":565:566   */\n  0x02\n    /* \"#utility.yul\":559:563   */\n  dup3\n    /* \"#utility.yul\":555:567   */\n  div\n    /* \"#utility.yul\":545:567   */\n  swap1\n  pop\n    /* \"#utility.yul\":612:613   */\n  0x01\n    /* \"#utility.yul\":606:610   */\n  dup3\n    /* \"#utility.yul\":602:614   */\n  and\n    /* \"#utility.yul\":633:651   */\n  dup1\n    /* \"#utility.yul\":623:704   */\n  tag_30\n  jumpi\n    /* \"#utility.yul\":689:693   */\n  0x7f\n    /* \"#utility.yul\":681:687   */\n  dup3\n    /* \"#utility.yul\":677:694   */\n  and\n    /* \"#utility.yul\":667:694   */\n  swap2\n  pop\n    /* \"#utility.yul\":623:704   */\ntag_30:\n    /* \"#utility.yul\":751:753   */\n  0x20\n    /* \"#utility.yul\":743:749   */\n  dup3\n    /* \"#utility.yul\":740:754   */\n  lt\n    /* \"#utility.yul\":720:738   */\n  dup2\n    /* \"#utility.yul\":717:755   */\n  sub\n    /* \"#utility.yul\":714:798   */\n  tag_31\n  jumpi\n    /* \"#utility.yul\":770:788   */\n  tag_32\n  tag_7\n  jump\t// in\ntag_32:\n    /* \"#utility.yul\":714:798   */\ntag_31:\n    /* \"#utility.yul\":535:804   */\n  pop\n    /* \"#utility.yul\":484:804   */\n  swap2\n  swap1\n  pop\n  jump\t// out\n    /* \"#utility.yul\":810:951   */\ntag_9:\n    /* \"#utility.yul\":859:863   */\n  0x00\n    /* \"#utility.yul\":882:885   */\n  dup2\n    /* \"#utility.yul\":874:885   */\n  swap1\n  pop\n    /* \"#utility.yul\":905:908   */\n  dup2\n    /* \"#utility.yul\":902:903   */\n  0x00\n    /* \"#utility.yul\":895:909   */\n  mstore\n    /* \"#utility.yul\":939:943   */\n  0x20\n    /* \"#utility.yul\":936:937   */\n  0x00\n    /* \"#utility.yul\":926:944   */\n  keccak256\n    /* \"#utility.yul\":918:944   */\n  swap1\n  pop\n    /* \"#utility.yul\":810:951   */\n  swap2\n  swap1\n  pop\n  jump\t// out\n    /* \"#utility.yul\":957:1050   */\ntag_10:\n    /* \"#utility.yul\":994:1000   */\n  0x00\n    /* \"#utility.yul\":1041:1043   */\n  0x20\n    /* \"#utility.yul\":1036:1038   */\n  0x1f\n    /* \"#utility.yul\":1029:1034   */\n  dup4\n    /* \"#utility.yul\":1025:1039   */\n  add\n    /* \"#utility.yul\":1021:1044   */\n  div\n    /* \"#utility.yul\":1011:1044   */\n  swap1\n  pop\n    /* \"#utility.yul\":957:1050   */\n  swap2\n  swap1\n  pop\n  jump\t// out\n    /* \"#utility.yul\":1056:1163   */\ntag_11:\n    /* \"#utility.yul\":1100:1108   */\n  0x00\n    /* \"#utility.yul\":1150:1155   */\n  dup3\n    /* \"#utility.yul\":1144:1148   */\n  dup3\n    /* \"#utility.yul\":1140:1156   */\n  shl\n    /* \"#utility.yul\":1119:1156   */\n  swap1\n  pop\n    /* \"#utility.yul\":1056:1163   */\n  swap3\n  swap2\n  pop\n  pop\n  jump\t// out\n    /* \"#utility.yul\":1169:1562   */\ntag_12:\n    /* \"#utility.yul\":1238:1244   */\n  0x00\n    /* \"#utility.yul\":1288:1289   */\n  0x08\n    /* \"#utility.yul\":1276:1286   */\n  dup4\n    /* \"#utility.yul\":1272:1290   */\n  mul\n    /* \"#utility.yul\":1311:1408   */\n  tag_37\n    /* \"#utility.yul\":1341:1407   */\n  0xffffffffffffffffffffffffffffffffffffffffffffffffffffffffffffffff\n    /* \"#utility.yul\":1330:1339   */\n  dup3\n    /* \"#utility.yul\":1311:1408   */\n  tag_11\n  jump\t// in\ntag_37:\n    /* \"#utility.yul\":1429:1468   */\n  tag_38\n    /* \"#utility.yul\":1459:1467   */\n  dup7\n    /* \"#utility.yul\":1448:1457   */\n  dup4\n    /* \"#utility.yul\":1429:1468   */\n  tag_11\n  jump\t// in\ntag_38:\n    /* \"#utility.yul\":1417:1468   */\n  swap6\n  pop\n    /* \"#utility.yul\":1501:1505   */\n  dup1\n    /* \"#utility.yul\":1497:1506   */\n  not\n    /* \"#utility.yul\":1490:1495   */\n  dup5\n    /* \"#utility.yul\":1486:1507   */\n  and\n    /* \"#utility.yul\":1477:1507   */\n  swap4\n  pop\n    /* \"#utility.yul\":1550:1554   */\n  dup1\n    /* \"#utility.yul\":1540:1548   */\n  dup7\n    /* \"#utility.yul\":1536:1555   */\n  and\n    /* \"#utility.yul\":1529:1534   */\n  dup5\n    /* \"#utility.yul\":1526:1556   */\n  or\n    /* \"#utility.yul\":1516:1556   */\n  swap3\n  pop\n    /* \"#utility.yul\":1245:1562   */\n  pop\n  pop\n    /* \"#utility.yul\":1169:1562   */\n  swap4\n  swap3\n  pop\n  pop\n  pop\n  jump\t// out\n    /* \"#utility.yul\":1568:1645   */\ntag_13:\n    /* \"#utility.yul\":1605:1612   */\n  0x00\n    /* \"#utility.yul\":1634:1639   */\n  dup2\n    /* \"#utility.yul\":1623:1639   */\n  swap1\n  pop\n    /* \"#utility.yul\":1568:1645   */\n  swap2\n  swap1\n  pop\n  jump\t// out\n    /* \"#utility.yul\":1651:1711   */\ntag_14:\n    /* \"#utility.yul\":1679:1682   */\n  0x00\n    /* \"#utility.yul\":1700:1705   */\n  dup2\n    /* \"#utility.yul\":1693:1705   */\n  swap1\n  pop\n    /* \"#utility.yul\":1651:1711   */\n  swap2\n  swap1\n  pop\n  jump\t// out\n    /* \"#utility.yul\":1717:1859   */\ntag_15:\n    /* \"#utility.yul\":1767:1776   */\n  0x00\n    /* \"#utility.yul\":1800:1853   */\n  tag_42\n    /* \"#utility.yul\":1818:1852   */\n  tag_43\n    /* \"#utility.yul\":1827:1851   */\n  tag_44\n    /* \"#utility.yul\":1845:1850   */\n  dup5\n    /* \"#utility.yul\":1827:1851   */\n  tag_13\n  jump\t// in\ntag_44:\n    /* \"#utility.yul\":1818:1852   */\n  tag_14\n  jump\t// in\ntag_43:\n    /* \"#utility.yul\":1800:1853   */\n  tag_13\n  jump\t// in\ntag_42:\n    /* \"#utility.yul\":1787:1853   */\n  swap1\n  pop\n    /* \"#utility.yul\":1717:1859   */\n  swap2\n  swap1\n  pop\n  jump\t// out\n    /* \"#utility.yul\":1865:1940   */\ntag_16:\n    /* \"#utility.yul\":1908:1911   */\n  0x00\n    /* \"#utility.yul\":1929:1934   */\n  dup2\n    /* \"#utility.yul\":1922:1934   */\n  swap1\n  pop\n    /* \"#utility.yul\":1865:1940   */\n  swap2\n  swap1\n  pop\n  jump\t// out\n    /* \"#utility.yul\":1946:2215   */\ntag_17:\n    /* \"#utility.yul\":2056:2095   */\n  tag_47\n    /* \"#utility.yul\":2087:2094   */\n  dup4\n    /* \"#utility.yul\":2056:2095   */\n  tag_15\n  jump\t// in\ntag_47:\n    /* \"#utility.yul\":2117:2208   */\n  tag_48\n    /* \"#utility.yul\":2166:2207   */\n  tag_49\n    /* \"#utility.yul\":2190:2206   */\n  dup3\n    /* \"#utility.yul\":2166:2207   */\n  tag_16\n  jump\t// in\ntag_49:\n    /* \"#utility.yul\":2158:2164   */\n  dup5\n    /* \"#utility.yul\":2151:2155   */\n  dup5\n    /* \"#utility.yul\":2145:2156   */\n  sload\n    /* \"#utility.yul\":2117:2208   */\n  tag_12\n  jump\t// in\ntag_48:\n    /* \"#utility.yul\":2111:2115   */\n  dup3\n    /* \"#utility.yul\":2104:2209   */\n  sstore\n    /* \"#utility.yul\":2022:2215   */\n  pop\n    /* \"#utility.yul\":1946:2215   */\n  pop\n  pop\n  pop\n  jump\t// out\n    /* \"#utility.yul\":2221:2294   */\ntag_18:\n    /* \"#utility.yul\":2266:2269   */\n  0x00\n    /* \"#utility.yul\":2221:2294   */\n  swap1\n  jump\t// out\n    /* \"#utility.yul\":2300:2489   */\ntag_19:\n    /* \"#utility.yul\":2377:2409   */\n  tag_52\n  tag_18\n  jump\t// in\ntag_52:\n    /* \"#utility.yul\":2418:2483   */\n  tag_53\n    /* \"#utility.yul\":2476:2482   */\n  dup2\n    /* \"#utility.yul\":2468:2474   */\n  dup5\n    /* \"#utility.yul\":2462:2466   */\n  dup5\n    /* \"#utility.yul\":2418:2483   */\n  tag_17\n  jump\t// in\ntag_53:\n    /* \"#utility.yul\":2353:2489   */\n  pop\n    /* \"#utility.yul\":2300:2489   */\n  pop\n  pop\n  jump\t// out\n    /* \"#utility.yul\":2495:2681   */\ntag_20:\n    /* \"#utility.yul\":2555:2675   */\ntag_55:\n    /* \"#utility.yul\":2572:2575   */\n  dup2\n    /* \"#utility.yul\":2565:2570   */\n  dup2\n    /* \"#utility.yul\":2562:2576   */\n  lt\n    /* \"#utility.yul\":2555:2675   */\n  iszero\n  tag_57\n  jumpi\n    /* \"#utility.yul\":2626:2665   */\n  tag_58\n    /* \"#utility.yul\":2663:2664   */\n  0x00\n    /* \"#utility.yul\":2656:2661   */\n  dup3\n    /* \"#utility.yul\":2626:2665   */\n  tag_19\n  jump\t// in\ntag_58:\n    /* \"#utility.yul\":2599:2600   */\n  0x01\n    /* \"#utility.yul\":2592:2597   */\n  dup2\n    /* \"#utility.yul\":2588:2601   */\n  add\n    /* \"#utility.yul\":2579:2601   */\n  swap1\n  pop\n    /* \"#utility.yul\":2555:2675   */\n  jump(tag_55)\ntag_57:\n    /* \"#utility.yul\":2495:2681   */\n  pop\n  pop\n  jump\t// out\n    /* \"#utility.yul\":2687:3230   */\ntag_21:\n    /* \"#utility.yul\":2788:2790   */\n  0x1f\n    /* \"#utility.yul\":2783:2786   */\n  dup3\n    /* \"#utility.yul\":2780:2791   */\n  gt\n    /* \"#utility.yul\":2777:3223   */\n  iszero\n  tag_60\n  jumpi\n    /* \"#utility.yul\":2822:2860   */\n  tag_61\n    /* \"#utility.yul\":2854:2859   */\n  dup2\n    /* \"#utility.yul\":2822:2860   */\n  tag_9\n  jump\t// in\ntag_61:\n    /* \"#utility.yul\":2906:2935   */\n  tag_62\n    /* \"#utility.yul\":2924:2934   */\n  dup5\n    /* \"#utility.yul\":2906:2935   */\n  tag_10\n  jump\t// in\ntag_62:\n    /* \"#utility.yul\":2896:2904   */\n  dup2\n    /* \"#utility.yul\":2892:2936   */\n  add\n    /* \"#utility.yul\":3089:3091   */\n  0x20\n    /* \"#utility.yul\":3077:3087   */\n  dup6\n    /* \"#utility.yul\":3074:3092   */\n  lt\n    /* \"#utility.yul\":3071:3120   */\n  iszero\n  tag_63\n  jumpi\n    /* \"#utility.yul\":3110:3118   */\n  dup2\n    /* \"#utility.yul\":3095:3118   */\n  swap1\n  pop\n    /* \"#utility.yul\":3071:3120   */\ntag_63:\n    /* \"#utility.yul\":3133:3213   */\n  tag_64\n    /* \"#utility.yul\":3189:3211   */\n  tag_65\n    /* \"#utility.yul\":3207:3210   */\n  dup6\n    /* \"#utility.yul\":3189:3211   */\n  tag_10\n  jump\t// in\ntag_65:\n    /* \"#utility.yul\":3179:3187   */\n  dup4\n    /* \"#utility.yul\":3175:3212   */\n  add\n    /* \"#utility.yul\":3162:3173   */\n  dup3\n    /* \"#utility.yul\":3133:3213   */\n  tag_20\n  jump\t// in\ntag_64:\n    /* \"#utility.yul\":2792:3223   */\n  pop\n  pop\n    /* \"#utility.yul\":2777:3223   */\ntag_60:\n    /* \"#utility.yul\":2687:3230   */\n  pop\n  pop\n  pop\n  jump\t// out\n    /* \"#utility.yul\":3236:3353   */\ntag_22:\n    /* \"#utility.yul\":3290:3298   */\n  0x00\n    /* \"#utility.yul\":3340:3345   */\n  dup3\n    /* \"#utility.yul\":3334:3338   */\n  dup3\n    /* \"#utility.yul\":3330:3346   */\n  shr\n    /* \"#utility.yul\":3309:3346   */\n  swap1\n  pop\n    /* \"#utility.yul\":3236:3353   */\n  swap3\n  swap2\n  pop\n  pop\n  jump\t// out\n    /* \"#utility.yul\":3359:3528   */\ntag_23:\n    /* \"#utility.yul\":3403:3409   */\n  0x00\n    /* \"#utility.yul\":3436:3487   */\n  tag_68\n    /* \"#utility.yul\":3484:3485   */\n  0x00\n    /* \"#utility.yul\":3480:3486   */\n  not\n    /* \"#utility.yul\":3472:3477   */\n  dup5\n    /* \"#utility.yul\":3469:3470   */\n  0x08\n    /* \"#utility.yul\":3465:3478   */\n  mul\n    /* \"#utility.yul\":3436:3487   */\n  tag_22\n  jump\t// in\ntag_68:\n    /* \"#utility.yul\":3432:3488   */\n  not\n    /* \"#utility.yul\":3517:3521   */\n  dup1\n    /* \"#utility.yul\":3511:3515   */\n  dup4\n    /* \"#utility.yul\":3507:3522   */\n  and\n    /* \"#utility.yul\":3497:3522   */\n  swap2\n  pop\n    /* \"#utility.yul\":3410:3528   */\n  pop\n    /* \"#utility.yul\":3359:3528   */\n  swap3\n  swap2\n  pop\n  pop\n  jump\t// out\n    /* \"#utility.yul\":3533:3828   */\ntag_24:\n    /* \"#utility.yul\":3609:3613   */\n  0x00\n    /* \"#utility.yul\":3755:3784   */\n  tag_70\n    /* \"#utility.yul\":3780:3783   */\n  dup4\n    /* \"#utility.yul\":3774:3778   */\n  dup4\n    /* \"#utility.yul\":3755:3784   */\n  tag_23\n  jump\t// in\ntag_70:\n    /* \"#utility.yul\":3747:3784   */\n  swap2\n  pop\n    /* \"#utility.yul\":3817:3820   */\n  dup3\n    /* \"#utility.yul\":3814:3815   */\n  0x02\n    /* \"#utility.yul\":3810:3821   */\n  mul\n    /* \"#utility.yul\":3804:3808   */\n  dup3\n    /* \"#utility.yul\":3801:3822   */\n  or\n    /* \"#utility.yul\":3793:3822   */\n  swap1\n  pop\n    /* \"#utility.yul\":3533:3828   */\n  swap3\n  swap2\n  pop\n  pop\n  jump\t// out\n    /* \"#utility.yul\":3833:5228   */\ntag_2:\n    /* \"#utility.yul\":3950:3987   */\n  tag_72\n    /* \"#utility.yul\":3983:3986   */\n  dup3\n    /* \"#utility.yul\":3950:3987   */\n  tag_5\n  jump\t// in\ntag_72:\n    /* \"#utility.yul\":4052:4070   */\n  0xffffffffffffffff\n    /* \"#utility.yul\":4044:4050   */\n  dup2\n    /* \"#utility.yul\":4041:4071   */\n  gt\n    /* \"#utility.yul\":4038:4094   */\n  iszero\n  tag_73\n  jumpi\n    /* \"#utility.yul\":4074:4092   */\n  tag_74\n  tag_6\n  jump\t// in\ntag_74:\n    /* \"#utility.yul\":4038:4094   */\ntag_73:\n    /* \"#utility.yul\":4118:4156   */\n  tag_75\n    /* \"#utility.yul\":4150:4154   */\n  dup3\n    /* \"#utility.yul\":4144:4155   */\n  sload\n    /* \"#utility.yul\":4118:4156   */\n  tag_8\n  jump\t// in\ntag_75:\n    /* \"#utility.yul\":4203:4270   */\n  tag_76\n    /* \"#utility.yul\":4263:4269   */\n  dup3\n    /* \"#utility.yul\":4255:4261   */\n  dup3\n    /* \"#utility.yul\":4249:4253   */\n  dup6\n    /* \"#utility.yul\":4203:4270   */\n  tag_21\n  jump\t// in\ntag_76:\n    /* \"#utility.yul\":4297:4298   */\n  0x00\n    /* \"#utility.yul\":4321:4325   */\n  0x20\n    /* \"#utility.yul\":4308:4325   */\n  swap1\n  pop\n    /* \"#utility.yul\":4353:4355   */\n  0x1f\n    /* \"#utility.yul\":4345:4351   */\n  dup4\n    /* \"#utility.yul\":4342:4356   */\n  gt\n    /* \"#utility.yul\":4370:4371   */\n  0x01\n    /* \"#utility.yul\":4365:4983   */\n  dup2\n  eq\n  tag_78\n  jumpi\n    /* \"#utility.yul\":5027:5028   */\n  0x00\n    /* \"#utility.yul\":5044:5050   */\n  dup5\n    /* \"#utility.yul\":5041:5118   */\n  iszero\n  tag_79\n  jumpi\n    /* \"#utility.yul\":5093:5102   */\n  dup3\n    /* \"#utility.yul\":5088:5091   */\n  dup8\n    /* \"#utility.yul\":5084:5103   */\n  add\n    /* \"#utility.yul\":5078:5104   */\n  mload\n    /* \"#utility.yul\":5069:5104   */\n  swap1\n  pop\n    /* \"#utility.yul\":5041:5118   */\ntag_79:\n    /* \"#utility.yul\":5144:5211   */\n  tag_80\n    /* \"#utility.yul\":5204:5210   */\n  dup6\n    /* \"#utility.yul\":5197:5202   */\n  dup3\n    /* \"#utility.yul\":5144:5211   */\n  tag_24\n  jump\t// in\ntag_80:\n    /* \"#utility.yul\":5138:5142   */\n  dup7\n    /* \"#utility.yul\":5131:5212   */\n  sstore\n    /* \"#utility.yul\":5000:5222   */\n  pop\n    /* \"#utility.yul\":4335:5222   */\n  jump(tag_77)\n    /* \"#utility.yul\":4365:4983   */\ntag_78:\n    /* \"#utility.yul\":4417:4421   */\n  0x1f\n    /* \"#utility.yul\":4413:4422   */\n  not\n    /* \"#utility.yul\":4405:4411   */\n  dup5\n    /* \"#utility.yul\":4401:4423   */\n  and\n    /* \"#utility.yul\":4451:4488   */\n  tag_81\n    /* \"#utility.yul\":4483:4487   */\n  dup7\n    /* \"#utility.yul\":4451:4488   */\n  tag_9\n  jump\t// in\ntag_81:\n    /* \"#utility.yul\":4510:4511   */\n  0x00\n    /* \"#utility.yul\":4524:4732   */\ntag_82:\n    /* \"#utility.yul\":4538:4545   */\n  dup3\n    /* \"#utility.yul\":4535:4536   */\n  dup2\n    /* \"#utility.yul\":4532:4546   */\n  lt\n    /* \"#utility.yul\":4524:4732   */\n  iszero\n  tag_84\n  jumpi\n    /* \"#utility.yul\":4617:4626   */\n  dup5\n    /* \"#utility.yul\":4612:4615   */\n  dup10\n    /* \"#utility.yul\":4608:4627   */\n  add\n    /* \"#utility.yul\":4602:4628   */\n  mload\n    /* \"#utility.yul\":4594:4600   */\n  dup3\n    /* \"#utility.yul\":4587:4629   */\n  sstore\n    /* \"#utility.yul\":4668:4669   */\n  0x01\n    /* \"#utility.yul\":4660:4666   */\n  dup3\n    /* \"#utility.yul\":4656:4670   */\n  add\n    /* \"#utility.yul\":4646:4670   */\n  swap2\n  pop\n    /* \"#utility.yul\":4715:4717   */\n  0x20\n    /* \"#utility.yul\":4704:4713   */\n  dup6\n    /* \"#utility.yul\":4700:4718   */\n  add\n    /* \"#utility.yul\":4687:4718   */\n  swap5\n  pop\n    /* \"#utility.yul\":4561:4565   */\n  0x20\n    /* \"#utility.yul\":4558:4559   */\n  dup2\n    /* \"#utility.yul\":4554:4566   */\n  add\n    /* \"#utility.yul\":4549:4566   */\n  swap1\n  pop\n    /* \"#utility.yul\":4524:4732   */\n  jump(tag_82)\ntag_84:\n    /* \"#utility.yul\":4760:4766   */\n  dup7\n    /* \"#utility.yul\":4751:4758   */\n  dup4\n    /* \"#utility.yul\":4748:4767   */\n  lt\n    /* \"#utility.yul\":4745:4924   */\n  iszero\n  tag_85\n  jumpi\n    /* \"#utility.yul\":4818:4827   */\n  dup5\n    /* \"#utility.yul\":4813:4816   */\n  dup10\n    /* \"#utility.yul\":4809:4828   */\n  add\n    /* \"#utility.yul\":4803:4829   */\n  mload\n    /* \"#utility.yul\":4861:4909   */\n  tag_86\n    /* \"#utility.yul\":4903:4907   */\n  0x1f\n    /* \"#utility.yul\":4895:4901   */\n  dup10\n    /* \"#utility.yul\":4891:4908   */\n  and\n    /* \"#utility.yul\":4880:4889   */\n  dup3\n    /* \"#utility.yul\":4861:4909   */\n  tag_23\n  jump\t// in\ntag_86:\n    /* \"#utility.yul\":4853:4859   */\n  dup4\n    /* \"#utility.yul\":4846:4910   */\n  sstore\n    /* \"#utility.yul\":4768:4924   */\n  pop\n    /* \"#utility.yul\":4745:4924   */\ntag_85:\n    /* \"#utility.yul\":4970:4971   */\n  0x01\n    /* \"#utility.yul\":4966:4967   */\n  0x02\n    /* \"#utility.yul\":4958:4964   */\n  dup9\n    /* \"#utility.yul\":4954:4968   */\n  mul\n    /* \"#utility.yul\":4950:4972   */\n  add\n    /* \"#utility.yul\":4944:4948   */\n  dup9\n    /* \"#utility.yul\":4937:4973   */\n  sstore\n    /* \"#utility.yul\":4372:4983   */\n  pop\n  pop\n  pop\n    /* \"#utility.yul\":4335:5222   */\ntag_77:\n  pop\n    /* \"#utility.yul\":3925:5228   */\n  pop\n  pop\n  pop\n    /* \"#utility.yul\":3833:5228   */\n  pop\n  pop\n  jump\t// out\n    /* \"practises/HelloWorld.sol\":56:592  contract HelloWorld{... */\ntag_4:\n  dataSize(sub_0)\n  dup1\n  dataOffset(sub_0)\n  0x00\n  codecopy\n  0x00\n  return\nstop\n\nsub_0: assembly {\n        /* \"practises/HelloWorld.sol\":56:592  contract HelloWorld{... */\n      mstore(0x40, 0x80)\n      callvalue\n      dup1\n      iszero\n      tag_1\n      jumpi\n      0x00\n      dup1\n      revert\n    tag_1:\n      pop\n      jumpi(tag_2, lt(calldatasize, 0x04))\n      shr(0xe0, calldataload(0x00))\n      dup1\n      0x8da5cb5b\n      gt\n      tag_10\n      jumpi\n      dup1\n      0x8da5cb5b\n      eq\n      tag_6\n      jumpi\n      dup1\n      0x8f32d59b\n      eq\n      tag_7\n      jumpi\n      dup1\n      0xce6d41de\n      eq\n      tag_8\n      jumpi\n      dup1\n      0xe21f37ce\n      eq\n      tag_9\n      jumpi\n      jump(tag_2)\n    tag_10:\n      dup1\n      0x1923be24\n      eq\n      tag_3\n      jumpi\n      dup1\n      0x40caae06\n      eq\n      tag_4\n      jumpi\n      dup1\n      0x893d20e8\n      eq\n      tag_5\n      jumpi\n    tag_2:\n      0x00\n      dup1\n      revert\n        /* \"practises/HelloWorld.sol\":251:345  function updateMessage(string calldata newMessage) public {... */\n    tag_3:\n      tag_11\n      0x04\n      dup1\n      calldatasize\n      sub\n      dup2\n      add\n      swap1\n      tag_12\n      swap2\n      swap1\n      tag_13\n      jump\t// in\n    tag_12:\n      tag_14\n      jump\t// in\n    tag_11:\n      stop\n        /* \"practises/HelloWorld.sol\":350:411  function setOwner ()public {... */\n    tag_4:\n      tag_15\n      tag_16\n      jump\t// in\n    tag_15:\n      stop\n        /* \"practises/HelloWorld.sol\":416:497  function getOwner () public  view returns (address){... */\n    tag_5:\n      tag_17\n      tag_18\n      jump\t// in\n    tag_17:\n      mload(0x40)\n      tag_19\n      swap2\n      swap1\n      tag_20\n      jump\t// in\n    tag_19:\n      mload(0x40)\n      dup1\n      swap2\n      sub\n      swap1\n      return\n        /* \"practises/HelloWorld.sol\":125:146  address public  owner */\n    tag_6:\n      tag_21\n      tag_22\n      jump\t// in\n    tag_21:\n      mload(0x40)\n      tag_23\n      swap2\n      swap1\n      tag_20\n      jump\t// in\n    tag_23:\n      mload(0x40)\n      dup1\n      swap2\n      sub\n      swap1\n      return\n        /* \"practises/HelloWorld.sol\":502:590  function isOwner () public  view  returns (bool){... */\n    tag_7:\n      tag_24\n      tag_25\n      jump\t// in\n    tag_24:\n      mload(0x40)\n      tag_26\n      swap2\n      swap1\n      tag_27\n      jump\t// in\n    tag_26:\n      mload(0x40)\n      dup1\n      swap2\n      sub\n      swap1\n      return\n        /* \"practises/HelloWorld.sol\":152:246  function   getMessage()  public  view returns   (string memory){... */\n    tag_8:\n      tag_28\n      tag_29\n      jump\t// in\n    tag_28:\n      mload(0x40)\n      tag_30\n      swap2\n      swap1\n      tag_31\n      jump\t// in\n    tag_30:\n      mload(0x40)\n      dup1\n      swap2\n      sub\n      swap1\n      return\n        /* \"practises/HelloWorld.sol\":81:119  string public  message = \"hello world\" */\n    tag_9:\n      tag_32\n      tag_33\n      jump\t// in\n    tag_32:\n      mload(0x40)\n      tag_34\n      swap2\n      swap1\n      tag_31\n      jump\t// in\n    tag_34:\n      mload(0x40)\n      dup1\n      swap2\n      sub\n      swap1\n      return\n        /* \"practises/HelloWorld.sol\":251:345  function updateMessage(string calldata newMessage) public {... */\n    tag_14:\n        /* \"practises/HelloWorld.sol\":328:338  newMessage */\n      dup2\n      dup2\n        /* \"practises/HelloWorld.sol\":319:326  message */\n      0x00\n        /* \"practises/HelloWorld.sol\":319:338  message =newMessage */\n      swap2\n      dup3\n      tag_36\n      swap3\n      swap2\n      swap1\n      tag_37\n      jump\t// in\n    tag_36:\n      pop\n        /* \"practises/HelloWorld.sol\":251:345  function updateMessage(string calldata newMessage) public {... */\n      pop\n      pop\n      jump\t// out\n        /* \"practises/HelloWorld.sol\":350:411  function setOwner ()public {... */\n    tag_16:\n        /* \"practises/HelloWorld.sol\":394:404  msg.sender */\n      caller\n        /* \"practises/HelloWorld.sol\":388:393  owner */\n      0x01\n      0x00\n        /* \"practises/HelloWorld.sol\":388:404  owner=msg.sender */\n      0x0100\n      exp\n      dup2\n      sload\n      dup2\n      0xffffffffffffffffffffffffffffffffffffffff\n      mul\n      not\n      and\n      swap1\n      dup4\n      0xffffffffffffffffffffffffffffffffffffffff\n      and\n      mul\n      or\n      swap1\n      sstore\n      pop\n        /* \"practises/HelloWorld.sol\":350:411  function setOwner ()public {... */\n      jump\t// out\n        /* \"practises/HelloWorld.sol\":416:497  function getOwner () public  view returns (address){... */\n    tag_18:\n        /* \"practises/HelloWorld.sol\":459:466  address */\n      0x00\n        /* \"practises/HelloWorld.sol\":485:490  owner */\n      0x01\n      0x00\n      swap1\n      sload\n      swap1\n      0x0100\n      exp\n      swap1\n      div\n      0xffffffffffffffffffffffffffffffffffffffff\n      and\n        /* \"practises/HelloWorld.sol\":478:490  return owner */\n      swap1\n      pop\n        /* \"practises/HelloWorld.sol\":416:497  function getOwner () public  view returns (address){... */\n      swap1\n      jump\t// out\n        /* \"practises/HelloWorld.sol\":125:146  address public  owner */\n    tag_22:\n      0x01\n      0x00\n      swap1\n      sload\n      swap1\n      0x0100\n      exp\n      swap1\n      div\n      0xffffffffffffffffffffffffffffffffffffffff\n      and\n      dup2\n      jump\t// out\n        /* \"practises/HelloWorld.sol\":502:590  function isOwner () public  view  returns (bool){... */\n    tag_25:\n        /* \"practises/HelloWorld.sol\":545:549  bool */\n      0x00\n        /* \"practises/HelloWorld.sol\":577:587  msg.sender */\n      caller\n        /* \"practises/HelloWorld.sol\":568:587  owner == msg.sender */\n      0xffffffffffffffffffffffffffffffffffffffff\n      and\n        /* \"practises/HelloWorld.sol\":568:573  owner */\n      0x01\n      0x00\n      swap1\n      sload\n      swap1\n      0x0100\n      exp\n      swap1\n      div\n      0xffffffffffffffffffffffffffffffffffffffff\n      and\n        /* \"practises/HelloWorld.sol\":568:587  owner == msg.sender */\n      0xffffffffffffffffffffffffffffffffffffffff\n      and\n      eq\n        /* \"practises/HelloWorld.sol\":560:587  return  owner == msg.sender */\n      swap1\n      pop\n        /* \"practises/HelloWorld.sol\":502:590  function isOwner () public  view  returns (bool){... */\n      swap1\n      jump\t// out\n        /* \"practises/HelloWorld.sol\":152:246  function   getMessage()  public  view returns   (string memory){... */\n    tag_29:\n        /* \"practises/HelloWorld.sol\":201:214  string memory */\n      0x60\n        /* \"practises/HelloWorld.sol\":232:239  message */\n      0x00\n        /* \"practises/HelloWorld.sol\":225:239  return message */\n      dup1\n      sload\n      tag_42\n      swap1\n      tag_43\n      jump\t// in\n    tag_42:\n      dup1\n      0x1f\n      add\n      0x20\n      dup1\n      swap2\n      div\n      mul\n      0x20\n      add\n      mload(0x40)\n      swap1\n      dup2\n      add\n      0x40\n      mstore\n      dup1\n      swap3\n      swap2\n      swap1\n      dup2\n      dup2\n      mstore\n      0x20\n      add\n      dup3\n      dup1\n      sload\n      tag_44\n      swap1\n      tag_43\n      jump\t// in\n    tag_44:\n      dup1\n      iszero\n      tag_45\n      jumpi\n      dup1\n      0x1f\n      lt\n      tag_46\n      jumpi\n      0x0100\n      dup1\n      dup4\n      sload\n      div\n      mul\n      dup4\n      mstore\n      swap2\n      0x20\n      add\n      swap2\n      jump(tag_45)\n    tag_46:\n      dup3\n      add\n      swap2\n      swap1\n      0x00\n      mstore\n      keccak256(0x00, 0x20)\n      swap1\n    tag_47:\n      dup2\n      sload\n      dup2\n      mstore\n      swap1\n      0x01\n      add\n      swap1\n      0x20\n      add\n      dup1\n      dup4\n      gt\n      tag_47\n      jumpi\n      dup3\n      swap1\n      sub\n      0x1f\n      and\n      dup3\n      add\n      swap2\n    tag_45:\n      pop\n      pop\n      pop\n      pop\n      pop\n      swap1\n      pop\n        /* \"practises/HelloWorld.sol\":152:246  function   getMessage()  public  view returns   (string memory){... */\n      swap1\n      jump\t// out\n        /* \"practises/HelloWorld.sol\":81:119  string public  message = \"hello world\" */\n    tag_33:\n      0x00\n      dup1\n      sload\n      tag_48\n      swap1\n      tag_43\n      jump\t// in\n    tag_48:\n      dup1\n      0x1f\n      add\n      0x20\n      dup1\n      swap2\n      div\n      mul\n      0x20\n      add\n      mload(0x40)\n      swap1\n      dup2\n      add\n      0x40\n      mstore\n      dup1\n      swap3\n      swap2\n      swap1\n      dup2\n      dup2\n      mstore\n      0x20\n      add\n      dup3\n      dup1\n      sload\n      tag_49\n      swap1\n      tag_43\n      jump\t// in\n    tag_49:\n      dup1\n      iszero\n      tag_50\n      jumpi\n      dup1\n      0x1f\n      lt\n      tag_51\n      jumpi\n      0x0100\n      dup1\n      dup4\n      sload\n      div\n      mul\n      dup4\n      mstore\n      swap2\n      0x20\n      add\n      swap2\n      jump(tag_50)\n    tag_51:\n      dup3\n      add\n      swap2\n      swap1\n      0x00\n      mstore\n      keccak256(0x00, 0x20)\n      swap1\n    tag_52:\n      dup2\n      sload\n      dup2\n      mstore\n      swap1\n      0x01\n      add\n      swap1\n      0x20\n      add\n      dup1\n      dup4\n      gt\n      tag_52\n      jumpi\n      dup3\n      swap1\n      sub\n      0x1f\n      and\n      dup3\n      add\n      swap2\n    tag_50:\n      pop\n      pop\n      pop\n      pop\n      pop\n      dup2\n      jump\t// out\n        /* \"#utility.yul\":88:205   */\n    tag_54:\n        /* \"#utility.yul\":197:198   */\n      0x00\n        /* \"#utility.yul\":194:195   */\n      dup1\n        /* \"#utility.yul\":187:199   */\n      revert\n        /* \"#utility.yul\":211:328   */\n    tag_55:\n        /* \"#utility.yul\":320:321   */\n      0x00\n        /* \"#utility.yul\":317:318   */\n      dup1\n        /* \"#utility.yul\":310:322   */\n      revert\n        /* \"#utility.yul\":334:451   */\n    tag_56:\n        /* \"#utility.yul\":443:444   */\n      0x00\n        /* \"#utility.yul\":440:441   */\n      dup1\n        /* \"#utility.yul\":433:445   */\n      revert\n        /* \"#utility.yul\":457:574   */\n    tag_57:\n        /* \"#utility.yul\":566:567   */\n      0x00\n        /* \"#utility.yul\":563:564   */\n      dup1\n        /* \"#utility.yul\":556:568   */\n      revert\n        /* \"#utility.yul\":580:697   */\n    tag_58:\n        /* \"#utility.yul\":689:690   */\n      0x00\n        /* \"#utility.yul\":686:687   */\n      dup1\n        /* \"#utility.yul\":679:691   */\n      revert\n        /* \"#utility.yul\":717:1270   */\n    tag_59:\n        /* \"#utility.yul\":775:783   */\n      0x00\n        /* \"#utility.yul\":785:791   */\n      dup1\n        /* \"#utility.yul\":835:838   */\n      dup4\n        /* \"#utility.yul\":828:832   */\n      0x1f\n        /* \"#utility.yul\":820:826   */\n      dup5\n        /* \"#utility.yul\":816:833   */\n      add\n        /* \"#utility.yul\":812:839   */\n      slt\n        /* \"#utility.yul\":802:924   */\n      tag_97\n      jumpi\n        /* \"#utility.yul\":843:922   */\n      tag_98\n      tag_56\n      jump\t// in\n    tag_98:\n        /* \"#utility.yul\":802:924   */\n    tag_97:\n        /* \"#utility.yul\":956:962   */\n      dup3\n        /* \"#utility.yul\":943:963   */\n      calldataload\n        /* \"#utility.yul\":933:963   */\n      swap1\n      pop\n        /* \"#utility.yul\":986:1004   */\n      0xffffffffffffffff\n        /* \"#utility.yul\":978:984   */\n      dup2\n        /* \"#utility.yul\":975:1005   */\n      gt\n        /* \"#utility.yul\":972:1089   */\n      iszero\n      tag_99\n      jumpi\n        /* \"#utility.yul\":1008:1087   */\n      tag_100\n      tag_57\n      jump\t// in\n    tag_100:\n        /* \"#utility.yul\":972:1089   */\n    tag_99:\n        /* \"#utility.yul\":1122:1126   */\n      0x20\n        /* \"#utility.yul\":1114:1120   */\n      dup4\n        /* \"#utility.yul\":1110:1127   */\n      add\n        /* \"#utility.yul\":1098:1127   */\n      swap2\n      pop\n        /* \"#utility.yul\":1176:1179   */\n      dup4\n        /* \"#utility.yul\":1168:1172   */\n      0x01\n        /* \"#utility.yul\":1160:1166   */\n      dup3\n        /* \"#utility.yul\":1156:1173   */\n      mul\n        /* \"#utility.yul\":1146:1154   */\n      dup4\n        /* \"#utility.yul\":1142:1174   */\n      add\n        /* \"#utility.yul\":1139:1180   */\n      gt\n        /* \"#utility.yul\":1136:1264   */\n      iszero\n      tag_101\n      jumpi\n        /* \"#utility.yul\":1183:1262   */\n      tag_102\n      tag_58\n      jump\t// in\n    tag_102:\n        /* \"#utility.yul\":1136:1264   */\n    tag_101:\n        /* \"#utility.yul\":717:1270   */\n      swap3\n      pop\n      swap3\n      swap1\n      pop\n      jump\t// out\n        /* \"#utility.yul\":1276:1805   */\n    tag_13:\n        /* \"#utility.yul\":1347:1353   */\n      0x00\n        /* \"#utility.yul\":1355:1361   */\n      dup1\n        /* \"#utility.yul\":1404:1406   */\n      0x20\n        /* \"#utility.yul\":1392:1401   */\n      dup4\n        /* \"#utility.yul\":1383:1390   */\n      dup6\n        /* \"#utility.yul\":1379:1402   */\n      sub\n        /* \"#utility.yul\":1375:1407   */\n      slt\n        /* \"#utility.yul\":1372:1491   */\n      iszero\n      tag_104\n      jumpi\n        /* \"#utility.yul\":1410:1489   */\n      tag_105\n      tag_54\n      jump\t// in\n    tag_105:\n        /* \"#utility.yul\":1372:1491   */\n    tag_104:\n        /* \"#utility.yul\":1558:1559   */\n      0x00\n        /* \"#utility.yul\":1547:1556   */\n      dup4\n        /* \"#utility.yul\":1543:1560   */\n      add\n        /* \"#utility.yul\":1530:1561   */\n      calldataload\n        /* \"#utility.yul\":1588:1606   */\n      0xffffffffffffffff\n        /* \"#utility.yul\":1580:1586   */\n      dup2\n        /* \"#utility.yul\":1577:1607   */\n      gt\n        /* \"#utility.yul\":1574:1691   */\n      iszero\n      tag_106\n      jumpi\n        /* \"#utility.yul\":1610:1689   */\n      tag_107\n      tag_55\n      jump\t// in\n    tag_107:\n        /* \"#utility.yul\":1574:1691   */\n    tag_106:\n        /* \"#utility.yul\":1723:1788   */\n      tag_108\n        /* \"#utility.yul\":1780:1787   */\n      dup6\n        /* \"#utility.yul\":1771:1777   */\n      dup3\n        /* \"#utility.yul\":1760:1769   */\n      dup7\n        /* \"#utility.yul\":1756:1778   */\n      add\n        /* \"#utility.yul\":1723:1788   */\n      tag_59\n      jump\t// in\n    tag_108:\n        /* \"#utility.yul\":1705:1788   */\n      swap3\n      pop\n      swap3\n      pop\n        /* \"#utility.yul\":1501:1798   */\n      pop\n        /* \"#utility.yul\":1276:1805   */\n      swap3\n      pop\n      swap3\n      swap1\n      pop\n      jump\t// out\n        /* \"#utility.yul\":1811:1937   */\n    tag_60:\n        /* \"#utility.yul\":1848:1855   */\n      0x00\n        /* \"#utility.yul\":1888:1930   */\n      0xffffffffffffffffffffffffffffffffffffffff\n        /* \"#utility.yul\":1881:1886   */\n      dup3\n        /* \"#utility.yul\":1877:1931   */\n      and\n        /* \"#utility.yul\":1866:1931   */\n      swap1\n      pop\n        /* \"#utility.yul\":1811:1937   */\n      swap2\n      swap1\n      pop\n      jump\t// out\n        /* \"#utility.yul\":1943:2039   */\n    tag_61:\n        /* \"#utility.yul\":1980:1987   */\n      0x00\n        /* \"#utility.yul\":2009:2033   */\n      tag_111\n        /* \"#utility.yul\":2027:2032   */\n      dup3\n        /* \"#utility.yul\":2009:2033   */\n      tag_60\n      jump\t// in\n    tag_111:\n        /* \"#utility.yul\":1998:2033   */\n      swap1\n      pop\n        /* \"#utility.yul\":1943:2039   */\n      swap2\n      swap1\n      pop\n      jump\t// out\n        /* \"#utility.yul\":2045:2163   */\n    tag_62:\n        /* \"#utility.yul\":2132:2156   */\n      tag_113\n        /* \"#utility.yul\":2150:2155   */\n      dup2\n        /* \"#utility.yul\":2132:2156   */\n      tag_61\n      jump\t// in\n    tag_113:\n        /* \"#utility.yul\":2127:2130   */\n      dup3\n        /* \"#utility.yul\":2120:2157   */\n      mstore\n        /* \"#utility.yul\":2045:2163   */\n      pop\n      pop\n      jump\t// out\n        /* \"#utility.yul\":2169:2391   */\n    tag_20:\n        /* \"#utility.yul\":2262:2266   */\n      0x00\n        /* \"#utility.yul\":2300:2302   */\n      0x20\n        /* \"#utility.yul\":2289:2298   */\n      dup3\n        /* \"#utility.yul\":2285:2303   */\n      add\n        /* \"#utility.yul\":2277:2303   */\n      swap1\n      pop\n        /* \"#utility.yul\":2313:2384   */\n      tag_115\n        /* \"#utility.yul\":2381:2382   */\n      0x00\n        /* \"#utility.yul\":2370:2379   */\n      dup4\n        /* \"#utility.yul\":2366:2383   */\n      add\n        /* \"#utility.yul\":2357:2363   */\n      dup5\n        /* \"#utility.yul\":2313:2384   */\n      tag_62\n      jump\t// in\n    tag_115:\n        /* \"#utility.yul\":2169:2391   */\n      swap3\n      swap2\n      pop\n      pop\n      jump\t// out\n        /* \"#utility.yul\":2397:2487   */\n    tag_63:\n        /* \"#utility.yul\":2431:2438   */\n      0x00\n        /* \"#utility.yul\":2474:2479   */\n      dup2\n        /* \"#utility.yul\":2467:2480   */\n      iszero\n        /* \"#utility.yul\":2460:2481   */\n      iszero\n        /* \"#utility.yul\":2449:2481   */\n      swap1\n      pop\n        /* \"#utility.yul\":2397:2487   */\n      swap2\n      swap1\n      pop\n      jump\t// out\n        /* \"#utility.yul\":2493:2602   */\n    tag_64:\n        /* \"#utility.yul\":2574:2595   */\n      tag_118\n        /* \"#utility.yul\":2589:2594   */\n      dup2\n        /* \"#utility.yul\":2574:2595   */\n      tag_63\n      jump\t// in\n    tag_118:\n        /* \"#utility.yul\":2569:2572   */\n      dup3\n        /* \"#utility.yul\":2562:2596   */\n      mstore\n        /* \"#utility.yul\":2493:2602   */\n      pop\n      pop\n      jump\t// out\n        /* \"#utility.yul\":2608:2818   */\n    tag_27:\n        /* \"#utility.yul\":2695:2699   */\n      0x00\n        /* \"#utility.yul\":2733:2735   */\n      0x20\n        /* \"#utility.yul\":2722:2731   */\n      dup3\n        /* \"#utility.yul\":2718:2736   */\n      add\n        /* \"#utility.yul\":2710:2736   */\n      swap1\n      pop\n        /* \"#utility.yul\":2746:2811   */\n      tag_120\n        /* \"#utility.yul\":2808:2809   */\n      0x00\n        /* \"#utility.yul\":2797:2806   */\n      dup4\n        /* \"#utility.yul\":2793:2810   */\n      add\n        /* \"#utility.yul\":2784:2790   */\n      dup5\n        /* \"#utility.yul\":2746:2811   */\n      tag_64\n      jump\t// in\n    tag_120:\n        /* \"#utility.yul\":2608:2818   */\n      swap3\n      swap2\n      pop\n      pop\n      jump\t// out\n        /* \"#utility.yul\":2824:2923   */\n    tag_65:\n        /* \"#utility.yul\":2876:2882   */\n      0x00\n        /* \"#utility.yul\":2910:2915   */\n      dup2\n        /* \"#utility.yul\":2904:2916   */\n      mload\n        /* \"#utility.yul\":2894:2916   */\n      swap1\n      pop\n        /* \"#utility.yul\":2824:2923   */\n      swap2\n      swap1\n      pop\n      jump\t// out\n        /* \"#utility.yul\":2929:3098   */\n    tag_66:\n        /* \"#utility.yul\":3013:3024   */\n      0x00\n        /* \"#utility.yul\":3047:3053   */\n      dup3\n        /* \"#utility.yul\":3042:3045   */\n      dup3\n        /* \"#utility.yul\":3035:3054   */\n      mstore\n        /* \"#utility.yul\":3087:3091   */\n      0x20\n        /* \"#utility.yul\":3082:3085   */\n      dup3\n        /* \"#utility.yul\":3078:3092   */\n      add\n        /* \"#utility.yul\":3063:3092   */\n      swap1\n      pop\n        /* \"#utility.yul\":2929:3098   */\n      swap3\n      swap2\n      pop\n      pop\n      jump\t// out\n        /* \"#utility.yul\":3104:3352   */\n    tag_67:\n        /* \"#utility.yul\":3186:3187   */\n      0x00\n        /* \"#utility.yul\":3196:3309   */\n    tag_124:\n        /* \"#utility.yul\":3210:3216   */\n      dup4\n        /* \"#utility.yul\":3207:3208   */\n      dup2\n        /* \"#utility.yul\":3204:3217   */\n      lt\n        /* \"#utility.yul\":3196:3309   */\n      iszero\n      tag_126\n      jumpi\n        /* \"#utility.yul\":3295:3296   */\n      dup1\n        /* \"#utility.yul\":3290:3293   */\n      dup3\n        /* \"#utility.yul\":3286:3297   */\n      add\n        /* \"#utility.yul\":3280:3298   */\n      mload\n        /* \"#utility.yul\":3276:3277   */\n      dup2\n        /* \"#utility.yul\":3271:3274   */\n      dup5\n        /* \"#utility.yul\":3267:3278   */\n      add\n        /* \"#utility.yul\":3260:3299   */\n      mstore\n        /* \"#utility.yul\":3232:3234   */\n      0x20\n        /* \"#utility.yul\":3229:3230   */\n      dup2\n        /* \"#utility.yul\":3225:3235   */\n      add\n        /* \"#utility.yul\":3220:3235   */\n      swap1\n      pop\n        /* \"#utility.yul\":3196:3309   */\n      jump(tag_124)\n    tag_126:\n        /* \"#utility.yul\":3343:3344   */\n      0x00\n        /* \"#utility.yul\":3334:3340   */\n      dup5\n        /* \"#utility.yul\":3329:3332   */\n      dup5\n        /* \"#utility.yul\":3325:3341   */\n      add\n        /* \"#utility.yul\":3318:3345   */\n      mstore\n        /* \"#utility.yul\":3166:3352   */\n      pop\n        /* \"#utility.yul\":3104:3352   */\n      pop\n      pop\n      pop\n      jump\t// out\n        /* \"#utility.yul\":3358:3460   */\n    tag_68:\n        /* \"#utility.yul\":3399:3405   */\n      0x00\n        /* \"#utility.yul\":3450:3452   */\n      0x1f\n        /* \"#utility.yul\":3446:3453   */\n      not\n        /* \"#utility.yul\":3441:3443   */\n      0x1f\n        /* \"#utility.yul\":3434:3439   */\n      dup4\n        /* \"#utility.yul\":3430:3444   */\n      add\n        /* \"#utility.yul\":3426:3454   */\n      and\n        /* \"#utility.yul\":3416:3454   */\n      swap1\n      pop\n        /* \"#utility.yul\":3358:3460   */\n      swap2\n      swap1\n      pop\n      jump\t// out\n        /* \"#utility.yul\":3466:3843   */\n    tag_69:\n        /* \"#utility.yul\":3554:3557   */\n      0x00\n        /* \"#utility.yul\":3582:3621   */\n      tag_129\n        /* \"#utility.yul\":3615:3620   */\n      dup3\n        /* \"#utility.yul\":3582:3621   */\n      tag_65\n      jump\t// in\n    tag_129:\n        /* \"#utility.yul\":3637:3708   */\n      tag_130\n        /* \"#utility.yul\":3701:3707   */\n      dup2\n        /* \"#utility.yul\":3696:3699   */\n      dup6\n        /* \"#utility.yul\":3637:3708   */\n      tag_66\n      jump\t// in\n    tag_130:\n        /* \"#utility.yul\":3630:3708   */\n      swap4\n      pop\n        /* \"#utility.yul\":3717:3782   */\n      tag_131\n        /* \"#utility.yul\":3775:3781   */\n      dup2\n        /* \"#utility.yul\":3770:3773   */\n      dup6\n        /* \"#utility.yul\":3763:3767   */\n      0x20\n        /* \"#utility.yul\":3756:3761   */\n      dup7\n        /* \"#utility.yul\":3752:3768   */\n      add\n        /* \"#utility.yul\":3717:3782   */\n      tag_67\n      jump\t// in\n    tag_131:\n        /* \"#utility.yul\":3807:3836   */\n      tag_132\n        /* \"#utility.yul\":3829:3835   */\n      dup2\n        /* \"#utility.yul\":3807:3836   */\n      tag_68\n      jump\t// in\n    tag_132:\n        /* \"#utility.yul\":3802:3805   */\n      dup5\n        /* \"#utility.yul\":3798:3837   */\n      add\n        /* \"#utility.yul\":3791:3837   */\n      swap2\n      pop\n        /* \"#utility.yul\":3558:3843   */\n      pop\n        /* \"#utility.yul\":3466:3843   */\n      swap3\n      swap2\n      pop\n      pop\n      jump\t// out\n        /* \"#utility.yul\":3849:4162   */\n    tag_31:\n        /* \"#utility.yul\":3962:3966   */\n      0x00\n        /* \"#utility.yul\":4000:4002   */\n      0x20\n        /* \"#utility.yul\":3989:3998   */\n      dup3\n        /* \"#utility.yul\":3985:4003   */\n      add\n        /* \"#utility.yul\":3977:4003   */\n      swap1\n      pop\n        /* \"#utility.yul\":4049:4058   */\n      dup2\n        /* \"#utility.yul\":4043:4047   */\n      dup2\n        /* \"#utility.yul\":4039:4059   */\n      sub\n        /* \"#utility.yul\":4035:4036   */\n      0x00\n        /* \"#utility.yul\":4024:4033   */\n      dup4\n        /* \"#utility.yul\":4020:4037   */\n      add\n        /* \"#utility.yul\":4013:4060   */\n      mstore\n        /* \"#utility.yul\":4077:4155   */\n      tag_134\n        /* \"#utility.yul\":4150:4154   */\n      dup2\n        /* \"#utility.yul\":4141:4147   */\n      dup5\n        /* \"#utility.yul\":4077:4155   */\n      tag_69\n      jump\t// in\n    tag_134:\n        /* \"#utility.yul\":4069:4155   */\n      swap1\n      pop\n        /* \"#utility.yul\":3849:4162   */\n      swap3\n      swap2\n      pop\n      pop\n      jump\t// out\n        /* \"#utility.yul\":4168:4265   */\n    tag_70:\n        /* \"#utility.yul\":4227:4233   */\n      0x00\n        /* \"#utility.yul\":4255:4258   */\n      dup3\n        /* \"#utility.yul\":4245:4258   */\n      swap1\n      pop\n        /* \"#utility.yul\":4168:4265   */\n      swap3\n      swap2\n      pop\n      pop\n      jump\t// out\n        /* \"#utility.yul\":4271:4451   */\n    tag_71:\n        /* \"#utility.yul\":4319:4396   */\n      0x4e487b7100000000000000000000000000000000000000000000000000000000\n        /* \"#utility.yul\":4316:4317   */\n      0x00\n        /* \"#utility.yul\":4309:4397   */\n      mstore\n        /* \"#utility.yul\":4416:4420   */\n      0x41\n        /* \"#utility.yul\":4413:4414   */\n      0x04\n        /* \"#utility.yul\":4406:4421   */\n      mstore\n        /* \"#utility.yul\":4440:4444   */\n      0x24\n        /* \"#utility.yul\":4437:4438   */\n      0x00\n        /* \"#utility.yul\":4430:4445   */\n      revert\n        /* \"#utility.yul\":4457:4637   */\n    tag_72:\n        /* \"#utility.yul\":4505:4582   */\n      0x4e487b7100000000000000000000000000000000000000000000000000000000\n        /* \"#utility.yul\":4502:4503   */\n      0x00\n        /* \"#utility.yul\":4495:4583   */\n      mstore\n        /* \"#utility.yul\":4602:4606   */\n      0x22\n        /* \"#utility.yul\":4599:4600   */\n      0x04\n        /* \"#utility.yul\":4592:4607   */\n      mstore\n        /* \"#utility.yul\":4626:4630   */\n      0x24\n        /* \"#utility.yul\":4623:4624   */\n      0x00\n        /* \"#utility.yul\":4616:4631   */\n      revert\n        /* \"#utility.yul\":4643:4963   */\n    tag_43:\n        /* \"#utility.yul\":4687:4693   */\n      0x00\n        /* \"#utility.yul\":4724:4725   */\n      0x02\n        /* \"#utility.yul\":4718:4722   */\n      dup3\n        /* \"#utility.yul\":4714:4726   */\n      div\n        /* \"#utility.yul\":4704:4726   */\n      swap1\n      pop\n        /* \"#utility.yul\":4771:4772   */\n      0x01\n        /* \"#utility.yul\":4765:4769   */\n      dup3\n        /* \"#utility.yul\":4761:4773   */\n      and\n        /* \"#utility.yul\":4792:4810   */\n      dup1\n        /* \"#utility.yul\":4782:4863   */\n      tag_139\n      jumpi\n        /* \"#utility.yul\":4848:4852   */\n      0x7f\n        /* \"#utility.yul\":4840:4846   */\n      dup3\n        /* \"#utility.yul\":4836:4853   */\n      and\n        /* \"#utility.yul\":4826:4853   */\n      swap2\n      pop\n        /* \"#utility.yul\":4782:4863   */\n    tag_139:\n        /* \"#utility.yul\":4910:4912   */\n      0x20\n        /* \"#utility.yul\":4902:4908   */\n      dup3\n        /* \"#utility.yul\":4899:4913   */\n      lt\n        /* \"#utility.yul\":4879:4897   */\n      dup2\n        /* \"#utility.yul\":4876:4914   */\n      sub\n        /* \"#utility.yul\":4873:4957   */\n      tag_140\n      jumpi\n        /* \"#utility.yul\":4929:4947   */\n      tag_141\n      tag_72\n      jump\t// in\n    tag_141:\n        /* \"#utility.yul\":4873:4957   */\n    tag_140:\n        /* \"#utility.yul\":4694:4963   */\n      pop\n        /* \"#utility.yul\":4643:4963   */\n      swap2\n      swap1\n      pop\n      jump\t// out\n        /* \"#utility.yul\":4969:5110   */\n    tag_73:\n        /* \"#utility.yul\":5018:5022   */\n      0x00\n        /* \"#utility.yul\":5041:5044   */\n      dup2\n        /* \"#utility.yul\":5033:5044   */\n      swap1\n      pop\n        /* \"#utility.yul\":5064:5067   */\n      dup2\n        /* \"#utility.yul\":5061:5062   */\n      0x00\n        /* \"#utility.yul\":5054:5068   */\n      mstore\n        /* \"#utility.yul\":5098:5102   */\n      0x20\n        /* \"#utility.yul\":5095:5096   */\n      0x00\n        /* \"#utility.yul\":5085:5103   */\n      keccak256\n        /* \"#utility.yul\":5077:5103   */\n      swap1\n      pop\n        /* \"#utility.yul\":4969:5110   */\n      swap2\n      swap1\n      pop\n      jump\t// out\n        /* \"#utility.yul\":5116:5209   */\n    tag_74:\n        /* \"#utility.yul\":5153:5159   */\n      0x00\n        /* \"#utility.yul\":5200:5202   */\n      0x20\n        /* \"#utility.yul\":5195:5197   */\n      0x1f\n        /* \"#utility.yul\":5188:5193   */\n      dup4\n        /* \"#utility.yul\":5184:5198   */\n      add\n        /* \"#utility.yul\":5180:5203   */\n      div\n        /* \"#utility.yul\":5170:5203   */\n      swap1\n      pop\n        /* \"#utility.yul\":5116:5209   */\n      swap2\n      swap1\n      pop\n      jump\t// out\n        /* \"#utility.yul\":5215:5322   */\n    tag_75:\n        /* \"#utility.yul\":5259:5267   */\n      0x00\n        /* \"#utility.yul\":5309:5314   */\n      dup3\n        /* \"#utility.yul\":5303:5307   */\n      dup3\n        /* \"#utility.yul\":5299:5315   */\n      shl\n        /* \"#utility.yul\":5278:5315   */\n      swap1\n      pop\n        /* \"#utility.yul\":5215:5322   */\n      swap3\n      swap2\n      pop\n      pop\n      jump\t// out\n        /* \"#utility.yul\":5328:5721   */\n    tag_76:\n        /* \"#utility.yul\":5397:5403   */\n      0x00\n        /* \"#utility.yul\":5447:5448   */\n      0x08\n        /* \"#utility.yul\":5435:5445   */\n      dup4\n        /* \"#utility.yul\":5431:5449   */\n      mul\n        /* \"#utility.yul\":5470:5567   */\n      tag_146\n        /* \"#utility.yul\":5500:5566   */\n      0xffffffffffffffffffffffffffffffffffffffffffffffffffffffffffffffff\n        /* \"#utility.yul\":5489:5498   */\n      dup3\n        /* \"#utility.yul\":5470:5567   */\n      tag_75\n      jump\t// in\n    tag_146:\n        /* \"#utility.yul\":5588:5627   */\n      tag_147\n        /* \"#utility.yul\":5618:5626   */\n      dup7\n        /* \"#utility.yul\":5607:5616   */\n      dup4\n        /* \"#utility.yul\":5588:5627   */\n      tag_75\n      jump\t// in\n    tag_147:\n        /* \"#utility.yul\":5576:5627   */\n      swap6\n      pop\n        /* \"#utility.yul\":5660:5664   */\n      dup1\n        /* \"#utility.yul\":5656:5665   */\n      not\n        /* \"#utility.yul\":5649:5654   */\n      dup5\n        /* \"#utility.yul\":5645:5666   */\n      and\n        /* \"#utility.yul\":5636:5666   */\n      swap4\n      pop\n        /* \"#utility.yul\":5709:5713   */\n      dup1\n        /* \"#utility.yul\":5699:5707   */\n      dup7\n        /* \"#utility.yul\":5695:5714   */\n      and\n        /* \"#utility.yul\":5688:5693   */\n      dup5\n        /* \"#utility.yul\":5685:5715   */\n      or\n        /* \"#utility.yul\":5675:5715   */\n      swap3\n      pop\n        /* \"#utility.yul\":5404:5721   */\n      pop\n      pop\n        /* \"#utility.yul\":5328:5721   */\n      swap4\n      swap3\n      pop\n      pop\n      pop\n      jump\t// out\n        /* \"#utility.yul\":5727:5804   */\n    tag_77:\n        /* \"#utility.yul\":5764:5771   */\n      0x00\n        /* \"#utility.yul\":5793:5798   */\n      dup2\n        /* \"#utility.yul\":5782:5798   */\n      swap1\n      pop\n        /* \"#utility.yul\":5727:5804   */\n      swap2\n      swap1\n      pop\n      jump\t// out\n        /* \"#utility.yul\":5810:5870   */\n    tag_78:\n        /* \"#utility.yul\":5838:5841   */\n      0x00\n        /* \"#utility.yul\":5859:5864   */\n      dup2\n        /* \"#utility.yul\":5852:5864   */\n      swap1\n      pop\n        /* \"#utility.yul\":5810:5870   */\n      swap2\n      swap1\n      pop\n      jump\t// out\n        /* \"#utility.yul\":5876:6018   */\n    tag_79:\n        /* \"#utility.yul\":5926:5935   */\n      0x00\n        /* \"#utility.yul\":5959:6012   */\n      tag_151\n        /* \"#utility.yul\":5977:6011   */\n      tag_152\n        /* \"#utility.yul\":5986:6010   */\n      tag_153\n        /* \"#utility.yul\":6004:6009   */\n      dup5\n        /* \"#utility.yul\":5986:6010   */\n      tag_77\n      jump\t// in\n    tag_153:\n        /* \"#utility.yul\":5977:6011   */\n      tag_78\n      jump\t// in\n    tag_152:\n        /* \"#utility.yul\":5959:6012   */\n      tag_77\n      jump\t// in\n    tag_151:\n        /* \"#utility.yul\":5946:6012   */\n      swap1\n      pop\n        /* \"#utility.yul\":5876:6018   */\n      swap2\n      swap1\n      pop\n      jump\t// out\n        /* \"#utility.yul\":6024:6099   */\n    tag_80:\n        /* \"#utility.yul\":6067:6070   */\n      0x00\n        /* \"#utility.yul\":6088:6093   */\n      dup2\n        /* \"#utility.yul\":6081:6093   */\n      swap1\n      pop\n        /* \"#utility.yul\":6024:6099   */\n      swap2\n      swap1\n      pop\n      jump\t// out\n        /* \"#utility.yul\":6105:6374   */\n    tag_81:\n        /* \"#utility.yul\":6215:6254   */\n      tag_156\n        /* \"#utility.yul\":6246:6253   */\n      dup4\n        /* \"#utility.yul\":6215:6254   */\n      tag_79\n      jump\t// in\n    tag_156:\n        /* \"#utility.yul\":6276:6367   */\n      tag_157\n        /* \"#utility.yul\":6325:6366   */\n      tag_158\n        /* \"#utility.yul\":6349:6365   */\n      dup3\n        /* \"#utility.yul\":6325:6366   */\n      tag_80\n      jump\t// in\n    tag_158:\n        /* \"#utility.yul\":6317:6323   */\n      dup5\n        /* \"#utility.yul\":6310:6314   */\n      dup5\n        /* \"#utility.yul\":6304:6315   */\n      sload\n        /* \"#utility.yul\":6276:6367   */\n      tag_76\n      jump\t// in\n    tag_157:\n        /* \"#utility.yul\":6270:6274   */\n      dup3\n        /* \"#utility.yul\":6263:6368   */\n      sstore\n        /* \"#utility.yul\":6181:6374   */\n      pop\n        /* \"#utility.yul\":6105:6374   */\n      pop\n      pop\n      pop\n      jump\t// out\n        /* \"#utility.yul\":6380:6453   */\n    tag_82:\n        /* \"#utility.yul\":6425:6428   */\n      0x00\n        /* \"#utility.yul\":6380:6453   */\n      swap1\n      jump\t// out\n        /* \"#utility.yul\":6459:6648   */\n    tag_83:\n        /* \"#utility.yul\":6536:6568   */\n      tag_161\n      tag_82\n      jump\t// in\n    tag_161:\n        /* \"#utility.yul\":6577:6642   */\n      tag_162\n        /* \"#utility.yul\":6635:6641   */\n      dup2\n        /* \"#utility.yul\":6627:6633   */\n      dup5\n        /* \"#utility.yul\":6621:6625   */\n      dup5\n        /* \"#utility.yul\":6577:6642   */\n      tag_81\n      jump\t// in\n    tag_162:\n        /* \"#utility.yul\":6512:6648   */\n      pop\n        /* \"#utility.yul\":6459:6648   */\n      pop\n      pop\n      jump\t// out\n        /* \"#utility.yul\":6654:6840   */\n    tag_84:\n        /* \"#utility.yul\":6714:6834   */\n    tag_164:\n        /* \"#utility.yul\":6731:6734   */\n      dup2\n        /* \"#utility.yul\":6724:6729   */\n      dup2\n        /* \"#utility.yul\":6721:6735   */\n      lt\n        /* \"#utility.yul\":6714:6834   */\n      iszero\n      tag_166\n      jumpi\n        /* \"#utility.yul\":6785:6824   */\n      tag_167\n        /* \"#utility.yul\":6822:6823   */\n      0x00\n        /* \"#utility.yul\":6815:6820   */\n      dup3\n        /* \"#utility.yul\":6785:6824   */\n      tag_83\n      jump\t// in\n    tag_167:\n        /* \"#utility.yul\":6758:6759   */\n      0x01\n        /* \"#utility.yul\":6751:6756   */\n      dup2\n        /* \"#utility.yul\":6747:6760   */\n      add\n        /* \"#utility.yul\":6738:6760   */\n      swap1\n      pop\n        /* \"#utility.yul\":6714:6834   */\n      jump(tag_164)\n    tag_166:\n        /* \"#utility.yul\":6654:6840   */\n      pop\n      pop\n      jump\t// out\n        /* \"#utility.yul\":6846:7389   */\n    tag_85:\n        /* \"#utility.yul\":6947:6949   */\n      0x1f\n        /* \"#utility.yul\":6942:6945   */\n      dup3\n        /* \"#utility.yul\":6939:6950   */\n      gt\n        /* \"#utility.yul\":6936:7382   */\n      iszero\n      tag_169\n      jumpi\n        /* \"#utility.yul\":6981:7019   */\n      tag_170\n        /* \"#utility.yul\":7013:7018   */\n      dup2\n        /* \"#utility.yul\":6981:7019   */\n      tag_73\n      jump\t// in\n    tag_170:\n        /* \"#utility.yul\":7065:7094   */\n      tag_171\n        /* \"#utility.yul\":7083:7093   */\n      dup5\n        /* \"#utility.yul\":7065:7094   */\n      tag_74\n      jump\t// in\n    tag_171:\n        /* \"#utility.yul\":7055:7063   */\n      dup2\n        /* \"#utility.yul\":7051:7095   */\n      add\n        /* \"#utility.yul\":7248:7250   */\n      0x20\n        /* \"#utility.yul\":7236:7246   */\n      dup6\n        /* \"#utility.yul\":7233:7251   */\n      lt\n        /* \"#utility.yul\":7230:7279   */\n      iszero\n      tag_172\n      jumpi\n        /* \"#utility.yul\":7269:7277   */\n      dup2\n        /* \"#utility.yul\":7254:7277   */\n      swap1\n      pop\n        /* \"#utility.yul\":7230:7279   */\n    tag_172:\n        /* \"#utility.yul\":7292:7372   */\n      tag_173\n        /* \"#utility.yul\":7348:7370   */\n      tag_174\n        /* \"#utility.yul\":7366:7369   */\n      dup6\n        /* \"#utility.yul\":7348:7370   */\n      tag_74\n      jump\t// in\n    tag_174:\n        /* \"#utility.yul\":7338:7346   */\n      dup4\n        /* \"#utility.yul\":7334:7371   */\n      add\n        /* \"#utility.yul\":7321:7332   */\n      dup3\n        /* \"#utility.yul\":7292:7372   */\n      tag_84\n      jump\t// in\n    tag_173:\n        /* \"#utility.yul\":6951:7382   */\n      pop\n      pop\n        /* \"#utility.yul\":6936:7382   */\n    tag_169:\n        /* \"#utility.yul\":6846:7389   */\n      pop\n      pop\n      pop\n      jump\t// out\n        /* \"#utility.yul\":7395:7512   */\n    tag_86:\n        /* \"#utility.yul\":7449:7457   */\n      0x00\n        /* \"#utility.yul\":7499:7504   */\n      dup3\n        /* \"#utility.yul\":7493:7497   */\n      dup3\n        /* \"#utility.yul\":7489:7505   */\n      shr\n        /* \"#utility.yul\":7468:7505   */\n      swap1\n      pop\n        /* \"#utility.yul\":7395:7512   */\n      swap3\n      swap2\n      pop\n      pop\n      jump\t// out\n        /* \"#utility.yul\":7518:7687   */\n    tag_87:\n        /* \"#utility.yul\":7562:7568   */\n      0x00\n        /* \"#utility.yul\":7595:7646   */\n      tag_177\n        /* \"#utility.yul\":7643:7644   */\n      0x00\n        /* \"#utility.yul\":7639:7645   */\n      not\n        /* \"#utility.yul\":7631:7636   */\n      dup5\n        /* \"#utility.yul\":7628:7629   */\n      0x08\n        /* \"#utility.yul\":7624:7637   */\n      mul\n        /* \"#utility.yul\":7595:7646   */\n      tag_86\n      jump\t// in\n    tag_177:\n        /* \"#utility.yul\":7591:7647   */\n      not\n        /* \"#utility.yul\":7676:7680   */\n      dup1\n        /* \"#utility.yul\":7670:7674   */\n      dup4\n        /* \"#utility.yul\":7666:7681   */\n      and\n        /* \"#utility.yul\":7656:7681   */\n      swap2\n      pop\n        /* \"#utility.yul\":7569:7687   */\n      pop\n        /* \"#utility.yul\":7518:7687   */\n      swap3\n      swap2\n      pop\n      pop\n      jump\t// out\n        /* \"#utility.yul\":7692:7987   */\n    tag_88:\n        /* \"#utility.yul\":7768:7772   */\n      0x00\n        /* \"#utility.yul\":7914:7943   */\n      tag_179\n        /* \"#utility.yul\":7939:7942   */\n      dup4\n        /* \"#utility.yul\":7933:7937   */\n      dup4\n        /* \"#utility.yul\":7914:7943   */\n      tag_87\n      jump\t// in\n    tag_179:\n        /* \"#utility.yul\":7906:7943   */\n      swap2\n      pop\n        /* \"#utility.yul\":7976:7979   */\n      dup3\n        /* \"#utility.yul\":7973:7974   */\n      0x02\n        /* \"#utility.yul\":7969:7980   */\n      mul\n        /* \"#utility.yul\":7963:7967   */\n      dup3\n        /* \"#utility.yul\":7960:7981   */\n      or\n        /* \"#utility.yul\":7952:7981   */\n      swap1\n      pop\n        /* \"#utility.yul\":7692:7987   */\n      swap3\n      swap2\n      pop\n      pop\n      jump\t// out\n        /* \"#utility.yul\":7992:9395   */\n    tag_37:\n        /* \"#utility.yul\":8116:8160   */\n      tag_181\n        /* \"#utility.yul\":8156:8159   */\n      dup4\n        /* \"#utility.yul\":8151:8154   */\n      dup4\n        /* \"#utility.yul\":8116:8160   */\n      tag_70\n      jump\t// in\n    tag_181:\n        /* \"#utility.yul\":8225:8243   */\n      0xffffffffffffffff\n        /* \"#utility.yul\":8217:8223   */\n      dup2\n        /* \"#utility.yul\":8214:8244   */\n      gt\n        /* \"#utility.yul\":8211:8267   */\n      iszero\n      tag_182\n      jumpi\n        /* \"#utility.yul\":8247:8265   */\n      tag_183\n      tag_71\n      jump\t// in\n    tag_183:\n        /* \"#utility.yul\":8211:8267   */\n    tag_182:\n        /* \"#utility.yul\":8291:8329   */\n      tag_184\n        /* \"#utility.yul\":8323:8327   */\n      dup3\n        /* \"#utility.yul\":8317:8328   */\n      sload\n        /* \"#utility.yul\":8291:8329   */\n      tag_43\n      jump\t// in\n    tag_184:\n        /* \"#utility.yul\":8376:8443   */\n      tag_185\n        /* \"#utility.yul\":8436:8442   */\n      dup3\n        /* \"#utility.yul\":8428:8434   */\n      dup3\n        /* \"#utility.yul\":8422:8426   */\n      dup6\n        /* \"#utility.yul\":8376:8443   */\n      tag_85\n      jump\t// in\n    tag_185:\n        /* \"#utility.yul\":8470:8471   */\n      0x00\n        /* \"#utility.yul\":8499:8501   */\n      0x1f\n        /* \"#utility.yul\":8491:8497   */\n      dup4\n        /* \"#utility.yul\":8488:8502   */\n      gt\n        /* \"#utility.yul\":8516:8517   */\n      0x01\n        /* \"#utility.yul\":8511:9143   */\n      dup2\n      eq\n      tag_187\n      jumpi\n        /* \"#utility.yul\":9187:9188   */\n      0x00\n        /* \"#utility.yul\":9204:9210   */\n      dup5\n        /* \"#utility.yul\":9201:9285   */\n      iszero\n      tag_188\n      jumpi\n        /* \"#utility.yul\":9260:9269   */\n      dup3\n        /* \"#utility.yul\":9255:9258   */\n      dup8\n        /* \"#utility.yul\":9251:9270   */\n      add\n        /* \"#utility.yul\":9238:9271   */\n      calldataload\n        /* \"#utility.yul\":9229:9271   */\n      swap1\n      pop\n        /* \"#utility.yul\":9201:9285   */\n    tag_188:\n        /* \"#utility.yul\":9311:9378   */\n      tag_189\n        /* \"#utility.yul\":9371:9377   */\n      dup6\n        /* \"#utility.yul\":9364:9369   */\n      dup3\n        /* \"#utility.yul\":9311:9378   */\n      tag_88\n      jump\t// in\n    tag_189:\n        /* \"#utility.yul\":9305:9309   */\n      dup7\n        /* \"#utility.yul\":9298:9379   */\n      sstore\n        /* \"#utility.yul\":9160:9389   */\n      pop\n        /* \"#utility.yul\":8481:9389   */\n      jump(tag_186)\n        /* \"#utility.yul\":8511:9143   */\n    tag_187:\n        /* \"#utility.yul\":8563:8567   */\n      0x1f\n        /* \"#utility.yul\":8559:8568   */\n      not\n        /* \"#utility.yul\":8551:8557   */\n      dup5\n        /* \"#utility.yul\":8547:8569   */\n      and\n        /* \"#utility.yul\":8597:8634   */\n      tag_190\n        /* \"#utility.yul\":8629:8633   */\n      dup7\n        /* \"#utility.yul\":8597:8634   */\n      tag_73\n      jump\t// in\n    tag_190:\n        /* \"#utility.yul\":8656:8657   */\n      0x00\n        /* \"#utility.yul\":8670:8885   */\n    tag_191:\n        /* \"#utility.yul\":8684:8691   */\n      dup3\n        /* \"#utility.yul\":8681:8682   */\n      dup2\n        /* \"#utility.yul\":8678:8692   */\n      lt\n        /* \"#utility.yul\":8670:8885   */\n      iszero\n      tag_193\n      jumpi\n        /* \"#utility.yul\":8770:8779   */\n      dup5\n        /* \"#utility.yul\":8765:8768   */\n      dup10\n        /* \"#utility.yul\":8761:8780   */\n      add\n        /* \"#utility.yul\":8748:8781   */\n      calldataload\n        /* \"#utility.yul\":8740:8746   */\n      dup3\n        /* \"#utility.yul\":8733:8782   */\n      sstore\n        /* \"#utility.yul\":8821:8822   */\n      0x01\n        /* \"#utility.yul\":8813:8819   */\n      dup3\n        /* \"#utility.yul\":8809:8823   */\n      add\n        /* \"#utility.yul\":8799:8823   */\n      swap2\n      pop\n        /* \"#utility.yul\":8868:8870   */\n      0x20\n        /* \"#utility.yul\":8857:8866   */\n      dup6\n        /* \"#utility.yul\":8853:8871   */\n      add\n        /* \"#utility.yul\":8840:8871   */\n      swap5\n      pop\n        /* \"#utility.yul\":8707:8711   */\n      0x20\n        /* \"#utility.yul\":8704:8705   */\n      dup2\n        /* \"#utility.yul\":8700:8712   */\n      add\n        /* \"#utility.yul\":8695:8712   */\n      swap1\n      pop\n        /* \"#utility.yul\":8670:8885   */\n      jump(tag_191)\n    tag_193:\n        /* \"#utility.yul\":8913:8919   */\n      dup7\n        /* \"#utility.yul\":8904:8911   */\n      dup4\n        /* \"#utility.yul\":8901:8920   */\n      lt\n        /* \"#utility.yul\":8898:9084   */\n      iszero\n      tag_194\n      jumpi\n        /* \"#utility.yul\":8978:8987   */\n      dup5\n        /* \"#utility.yul\":8973:8976   */\n      dup10\n        /* \"#utility.yul\":8969:8988   */\n      add\n        /* \"#utility.yul\":8956:8989   */\n      calldataload\n        /* \"#utility.yul\":9021:9069   */\n      tag_195\n        /* \"#utility.yul\":9063:9067   */\n      0x1f\n        /* \"#utility.yul\":9055:9061   */\n      dup10\n        /* \"#utility.yul\":9051:9068   */\n      and\n        /* \"#utility.yul\":9040:9049   */\n      dup3\n        /* \"#utility.yul\":9021:9069   */\n      tag_87\n      jump\t// in\n    tag_195:\n        /* \"#utility.yul\":9013:9019   */\n      dup4\n        /* \"#utility.yul\":9006:9070   */\n      sstore\n        /* \"#utility.yul\":8921:9084   */\n      pop\n        /* \"#utility.yul\":8898:9084   */\n    tag_194:\n        /* \"#utility.yul\":9130:9131   */\n      0x01\n        /* \"#utility.yul\":9126:9127   */\n      0x02\n        /* \"#utility.yul\":9118:9124   */\n      dup9\n        /* \"#utility.yul\":9114:9128   */\n      mul\n        /* \"#utility.yul\":9110:9132   */\n      add\n        /* \"#utility.yul\":9104:9108   */\n      dup9\n        /* \"#utility.yul\":9097:9133   */\n      sstore\n        /* \"#utility.yul\":8518:9143   */\n      pop\n      pop\n      pop\n        /* \"#utility.yul\":8481:9389   */\n    tag_186:\n      pop\n        /* \"#utility.yul\":8091:9395   */\n      pop\n      pop\n      pop\n        /* \"#utility.yul\":7992:9395   */\n      pop\n      pop\n      pop\n      jump\t// out\n\n    auxdata: 0xa264697066735822122062a918c4eab8ce5b840e0f1e1baaf1c617d24f1a7cd3a88cf8df26f98626158264736f6c634300081e0033\n}\n",
				"bytecode": {
					"linkReferences": {},
					"object": "60806040526040518060400160405280600b81526020017f68656c6c6f20776f726c640000000000000000000000000000000000000000008152506000908161004891906102ab565b5034801561005557600080fd5b5061037d565b600081519050919050565b7f4e487b7100000000000000000000000000000000000000000000000000000000600052604160045260246000fd5b7f4e487b7100000000000000000000000000000000000000000000000000000000600052602260045260246000fd5b600060028204905060018216806100dc57607f821691505b6020821081036100ef576100ee610095565b5b50919050565b60008190508160005260206000209050919050565b60006020601f8301049050919050565b600082821b905092915050565b6000600883026101577fffffffffffffffffffffffffffffffffffffffffffffffffffffffffffffffff8261011a565b610161868361011a565b95508019841693508086168417925050509392505050565b6000819050919050565b6000819050919050565b60006101a86101a361019e84610179565b610183565b610179565b9050919050565b6000819050919050565b6101c28361018d565b6101d66101ce826101af565b848454610127565b825550505050565b600090565b6101eb6101de565b6101f68184846101b9565b505050565b5b8181101561021a5761020f6000826101e3565b6001810190506101fc565b5050565b601f82111561025f57610230816100f5565b6102398461010a565b81016020851015610248578190505b61025c6102548561010a565b8301826101fb565b50505b505050565b600082821c905092915050565b600061028260001984600802610264565b1980831691505092915050565b600061029b8383610271565b9150826002028217905092915050565b6102b48261005b565b67ffffffffffffffff8111156102cd576102cc610066565b5b6102d782546100c4565b6102e282828561021e565b600060209050601f8311600181146103155760008415610303578287015190505b61030d858261028f565b865550610375565b601f198416610323866100f5565b60005b8281101561034b57848901518255600182019150602085019450602081019050610326565b868310156103685784890151610364601f891682610271565b8355505b6001600288020188555050505b505050505050565b6108b58061038c6000396000f3fe608060405234801561001057600080fd5b506004361061007d5760003560e01c80638da5cb5b1161005b5780638da5cb5b146100c65780638f32d59b146100e4578063ce6d41de14610102578063e21f37ce146101205761007d565b80631923be241461008257806340caae061461009e578063893d20e8146100a8575b600080fd5b61009c600480360381019061009791906103ce565b61013e565b005b6100a6610154565b005b6100b0610197565b6040516100bd919061045c565b60405180910390f35b6100ce6101c1565b6040516100db919061045c565b60405180910390f35b6100ec6101e7565b6040516100f99190610492565b60405180910390f35b61010a61023f565b604051610117919061053d565b60405180910390f35b6101286102d1565b604051610135919061053d565b60405180910390f35b81816000918261014f9291906107af565b505050565b33600160006101000a81548173ffffffffffffffffffffffffffffffffffffffff021916908373ffffffffffffffffffffffffffffffffffffffff160217905550565b6000600160009054906101000a900473ffffffffffffffffffffffffffffffffffffffff16905090565b600160009054906101000a900473ffffffffffffffffffffffffffffffffffffffff1681565b60003373ffffffffffffffffffffffffffffffffffffffff16600160009054906101000a900473ffffffffffffffffffffffffffffffffffffffff1673ffffffffffffffffffffffffffffffffffffffff1614905090565b60606000805461024e906105c8565b80601f016020809104026020016040519081016040528092919081815260200182805461027a906105c8565b80156102c75780601f1061029c576101008083540402835291602001916102c7565b820191906000526020600020905b8154815290600101906020018083116102aa57829003601f168201915b5050505050905090565b600080546102de906105c8565b80601f016020809104026020016040519081016040528092919081815260200182805461030a906105c8565b80156103575780601f1061032c57610100808354040283529160200191610357565b820191906000526020600020905b81548152906001019060200180831161033a57829003601f168201915b505050505081565b600080fd5b600080fd5b600080fd5b600080fd5b600080fd5b60008083601f84011261038e5761038d610369565b5b8235905067ffffffffffffffff8111156103ab576103aa61036e565b5b6020830191508360018202830111156103c7576103c6610373565b5b9250929050565b600080602083850312156103e5576103e461035f565b5b600083013567ffffffffffffffff81111561040357610402610364565b5b61040f85828601610378565b92509250509250929050565b600073ffffffffffffffffffffffffffffffffffffffff82169050919050565b60006104468261041b565b9050919050565b6104568161043b565b82525050565b6000602082019050610471600083018461044d565b92915050565b60008115159050919050565b61048c81610477565b82525050565b60006020820190506104a76000830184610483565b92915050565b600081519050919050565b600082825260208201905092915050565b60005b838110156104e75780820151818401526020810190506104cc565b60008484015250505050565b6000601f19601f8301169050919050565b600061050f826104ad565b61051981856104b8565b93506105298185602086016104c9565b610532816104f3565b840191505092915050565b600060208201905081810360008301526105578184610504565b905092915050565b600082905092915050565b7f4e487b7100000000000000000000000000000000000000000000000000000000600052604160045260246000fd5b7f4e487b7100000000000000000000000000000000000000000000000000000000600052602260045260246000fd5b600060028204905060018216806105e057607f821691505b6020821081036105f3576105f2610599565b5b50919050565b60008190508160005260206000209050919050565b60006020601f8301049050919050565b600082821b905092915050565b60006008830261065b7fffffffffffffffffffffffffffffffffffffffffffffffffffffffffffffffff8261061e565b610665868361061e565b95508019841693508086168417925050509392505050565b6000819050919050565b6000819050919050565b60006106ac6106a76106a28461067d565b610687565b61067d565b9050919050565b6000819050919050565b6106c683610691565b6106da6106d2826106b3565b84845461062b565b825550505050565b600090565b6106ef6106e2565b6106fa8184846106bd565b505050565b5b8181101561071e576107136000826106e7565b600181019050610700565b5050565b601f82111561076357610734816105f9565b61073d8461060e565b8101602085101561074c578190505b6107606107588561060e565b8301826106ff565b50505b505050565b600082821c905092915050565b600061078660001984600802610768565b1980831691505092915050565b600061079f8383610775565b9150826002028217905092915050565b6107b9838361055f565b67ffffffffffffffff8111156107d2576107d161056a565b5b6107dc82546105c8565b6107e7828285610722565b6000601f8311600181146108165760008415610804578287013590505b61080e8582610793565b865550610876565b601f198416610824866105f9565b60005b8281101561084c57848901358255600182019150602085019450602081019050610827565b868310156108695784890135610865601f891682610775565b8355505b6001600288020188555050505b5050505050505056fea264697066735822122062a918c4eab8ce5b840e0f1e1baaf1c617d24f1a7cd3a88cf8df26f98626158264736f6c634300081e0033",
					"opcodes": "PUSH1 0x80 PUSH1 0x40 MSTORE PUSH1 0x40 MLOAD DUP1 PUSH1 0x40 ADD PUSH1 0x40 MSTORE DUP1 PUSH1 0xB DUP2 MSTORE PUSH1 0x20 ADD PUSH32 0x68656C6C6F20776F726C64000000000000000000000000000000000000000000 DUP2 MSTORE POP PUSH1 0x0 SWAP1 DUP2 PUSH2 0x48 SWAP2 SWAP1 PUSH2 0x2AB JUMP JUMPDEST POP CALLVALUE DUP1 ISZERO PUSH2 0x55 JUMPI PUSH1 0x0 DUP1 REVERT JUMPDEST POP PUSH2 0x37D JUMP JUMPDEST PUSH1 0x0 DUP2 MLOAD SWAP1 POP SWAP2 SWAP1 POP JUMP JUMPDEST PUSH32 0x4E487B7100000000000000000000000000000000000000000000000000000000 PUSH1 0x0 MSTORE PUSH1 0x41 PUSH1 0x4 MSTORE PUSH1 0x24 PUSH1 0x0 REVERT JUMPDEST PUSH32 0x4E487B7100000000000000000000000000000000000000000000000000000000 PUSH1 0x0 MSTORE PUSH1 0x22 PUSH1 0x4 MSTORE PUSH1 0x24 PUSH1 0x0 REVERT JUMPDEST PUSH1 0x0 PUSH1 0x2 DUP3 DIV SWAP1 POP PUSH1 0x1 DUP3 AND DUP1 PUSH2 0xDC JUMPI PUSH1 0x7F DUP3 AND SWAP2 POP JUMPDEST PUSH1 0x20 DUP3 LT DUP2 SUB PUSH2 0xEF JUMPI PUSH2 0xEE PUSH2 0x95 JUMP JUMPDEST JUMPDEST POP SWAP2 SWAP1 POP JUMP JUMPDEST PUSH1 0x0 DUP2 SWAP1 POP DUP2 PUSH1 0x0 MSTORE PUSH1 0x20 PUSH1 0x0 KECCAK256 SWAP1 POP SWAP2 SWAP1 POP JUMP JUMPDEST PUSH1 0x0 PUSH1 0x20 PUSH1 0x1F DUP4 ADD DIV SWAP1 POP SWAP2 SWAP1 POP JUMP JUMPDEST PUSH1 0x0 DUP3 DUP3 SHL SWAP1 POP SWAP3 SWAP2 POP POP JUMP JUMPDEST PUSH1 0x0 PUSH1 0x8 DUP4 MUL PUSH2 0x157 PUSH32 0xFFFFFFFFFFFFFFFFFFFFFFFFFFFFFFFFFFFFFFFFFFFFFFFFFFFFFFFFFFFFFFFF DUP3 PUSH2 0x11A JUMP JUMPDEST PUSH2 0x161 DUP7 DUP4 PUSH2 0x11A JUMP JUMPDEST SWAP6 POP DUP1 NOT DUP5 AND SWAP4 POP DUP1 DUP7 AND DUP5 OR SWAP3 POP POP POP SWAP4 SWAP3 POP POP POP JUMP JUMPDEST PUSH1 0x0 DUP2 SWAP1 POP SWAP2 SWAP1 POP JUMP JUMPDEST PUSH1 0x0 DUP2 SWAP1 POP SWAP2 SWAP1 POP JUMP JUMPDEST PUSH1 0x0 PUSH2 0x1A8 PUSH2 0x1A3 PUSH2 0x19E DUP5 PUSH2 0x179 JUMP JUMPDEST PUSH2 0x183 JUMP JUMPDEST PUSH2 0x179 JUMP JUMPDEST SWAP1 POP SWAP2 SWAP1 POP JUMP JUMPDEST PUSH1 0x0 DUP2 SWAP1 POP SWAP2 SWAP1 POP JUMP JUMPDEST PUSH2 0x1C2 DUP4 PUSH2 0x18D JUMP JUMPDEST PUSH2 0x1D6 PUSH2 0x1CE DUP3 PUSH2 0x1AF JUMP JUMPDEST DUP5 DUP5 SLOAD PUSH2 0x127 JUMP JUMPDEST DUP3 SSTORE POP POP POP POP JUMP JUMPDEST PUSH1 0x0 SWAP1 JUMP JUMPDEST PUSH2 0x1EB PUSH2 0x1DE JUMP JUMPDEST PUSH2 0x1F6 DUP2 DUP5 DUP5 PUSH2 0x1B9 JUMP JUMPDEST POP POP POP JUMP JUMPDEST JUMPDEST DUP2 DUP2 LT ISZERO PUSH2 0x21A JUMPI PUSH2 0x20F PUSH1 0x0 DUP3 PUSH2 0x1E3 JUMP JUMPDEST PUSH1 0x1 DUP2 ADD SWAP1 POP PUSH2 0x1FC JUMP JUMPDEST POP POP JUMP JUMPDEST PUSH1 0x1F DUP3 GT ISZERO PUSH2 0x25F JUMPI PUSH2 0x230 DUP2 PUSH2 0xF5 JUMP JUMPDEST PUSH2 0x239 DUP5 PUSH2 0x10A JUMP JUMPDEST DUP2 ADD PUSH1 0x20 DUP6 LT ISZERO PUSH2 0x248 JUMPI DUP2 SWAP1 POP JUMPDEST PUSH2 0x25C PUSH2 0x254 DUP6 PUSH2 0x10A JUMP JUMPDEST DUP4 ADD DUP3 PUSH2 0x1FB JUMP JUMPDEST POP POP JUMPDEST POP POP POP JUMP JUMPDEST PUSH1 0x0 DUP3 DUP3 SHR SWAP1 POP SWAP3 SWAP2 POP POP JUMP JUMPDEST PUSH1 0x0 PUSH2 0x282 PUSH1 0x0 NOT DUP5 PUSH1 0x8 MUL PUSH2 0x264 JUMP JUMPDEST NOT DUP1 DUP4 AND SWAP2 POP POP SWAP3 SWAP2 POP POP JUMP JUMPDEST PUSH1 0x0 PUSH2 0x29B DUP4 DUP4 PUSH2 0x271 JUMP JUMPDEST SWAP2 POP DUP3 PUSH1 0x2 MUL DUP3 OR SWAP1 POP SWAP3 SWAP2 POP POP JUMP JUMPDEST PUSH2 0x2B4 DUP3 PUSH2 0x5B JUMP JUMPDEST PUSH8 0xFFFFFFFFFFFFFFFF DUP2 GT ISZERO PUSH2 0x2CD JUMPI PUSH2 0x2CC PUSH2 0x66 JUMP JUMPDEST JUMPDEST PUSH2 0x2D7 DUP3 SLOAD PUSH2 0xC4 JUMP JUMPDEST PUSH2 0x2E2 DUP3 DUP3 DUP6 PUSH2 0x21E JUMP JUMPDEST PUSH1 0x0 PUSH1 0x20 SWAP1 POP PUSH1 0x1F DUP4 GT PUSH1 0x1 DUP2 EQ PUSH2 0x315 JUMPI PUSH1 0x0 DUP5 ISZERO PUSH2 0x303 JUMPI DUP3 DUP8 ADD MLOAD SWAP1 POP JUMPDEST PUSH2 0x30D DUP6 DUP3 PUSH2 0x28F JUMP JUMPDEST DUP7 SSTORE POP PUSH2 0x375 JUMP JUMPDEST PUSH1 0x1F NOT DUP5 AND PUSH2 0x323 DUP7 PUSH2 0xF5 JUMP JUMPDEST PUSH1 0x0 JUMPDEST DUP3 DUP2 LT ISZERO PUSH2 0x34B JUMPI DUP5 DUP10 ADD MLOAD DUP3 SSTORE PUSH1 0x1 DUP3 ADD SWAP2 POP PUSH1 0x20 DUP6 ADD SWAP5 POP PUSH1 0x20 DUP2 ADD SWAP1 POP PUSH2 0x326 JUMP JUMPDEST DUP7 DUP4 LT ISZERO PUSH2 0x368 JUMPI DUP5 DUP10 ADD MLOAD PUSH2 0x364 PUSH1 0x1F DUP10 AND DUP3 PUSH2 0x271 JUMP JUMPDEST DUP4 SSTORE POP JUMPDEST PUSH1 0x1 PUSH1 0x2 DUP9 MUL ADD DUP9 SSTORE POP POP POP JUMPDEST POP POP POP POP POP POP JUMP JUMPDEST PUSH2 0x8B5 DUP1 PUSH2 0x38C PUSH1 0x0 CODECOPY PUSH1 0x0 RETURN INVALID PUSH1 0x80 PUSH1 0x40 MSTORE CALLVALUE DUP1 ISZERO PUSH2 0x10 JUMPI PUSH1 0x0 DUP1 REVERT JUMPDEST POP PUSH1 0x4 CALLDATASIZE LT PUSH2 0x7D JUMPI PUSH1 0x0 CALLDATALOAD PUSH1 0xE0 SHR DUP1 PUSH4 0x8DA5CB5B GT PUSH2 0x5B JUMPI DUP1 PUSH4 0x8DA5CB5B EQ PUSH2 0xC6 JUMPI DUP1 PUSH4 0x8F32D59B EQ PUSH2 0xE4 JUMPI DUP1 PUSH4 0xCE6D41DE EQ PUSH2 0x102 JUMPI DUP1 PUSH4 0xE21F37CE EQ PUSH2 0x120 JUMPI PUSH2 0x7D JUMP JUMPDEST DUP1 PUSH4 0x1923BE24 EQ PUSH2 0x82 JUMPI DUP1 PUSH4 0x40CAAE06 EQ PUSH2 0x9E JUMPI DUP1 PUSH4 0x893D20E8 EQ PUSH2 0xA8 JUMPI JUMPDEST PUSH1 0x0 DUP1 REVERT JUMPDEST PUSH2 0x9C PUSH1 0x4 DUP1 CALLDATASIZE SUB DUP2 ADD SWAP1 PUSH2 0x97 SWAP2 SWAP1 PUSH2 0x3CE JUMP JUMPDEST PUSH2 0x13E JUMP JUMPDEST STOP JUMPDEST PUSH2 0xA6 PUSH2 0x154 JUMP JUMPDEST STOP JUMPDEST PUSH2 0xB0 PUSH2 0x197 JUMP JUMPDEST PUSH1 0x40 MLOAD PUSH2 0xBD SWAP2 SWAP1 PUSH2 0x45C JUMP JUMPDEST PUSH1 0x40 MLOAD DUP1 SWAP2 SUB SWAP1 RETURN JUMPDEST PUSH2 0xCE PUSH2 0x1C1 JUMP JUMPDEST PUSH1 0x40 MLOAD PUSH2 0xDB SWAP2 SWAP1 PUSH2 0x45C JUMP JUMPDEST PUSH1 0x40 MLOAD DUP1 SWAP2 SUB SWAP1 RETURN JUMPDEST PUSH2 0xEC PUSH2 0x1E7 JUMP JUMPDEST PUSH1 0x40 MLOAD PUSH2 0xF9 SWAP2 SWAP1 PUSH2 0x492 JUMP JUMPDEST PUSH1 0x40 MLOAD DUP1 SWAP2 SUB SWAP1 RETURN JUMPDEST PUSH2 0x10A PUSH2 0x23F JUMP JUMPDEST PUSH1 0x40 MLOAD PUSH2 0x117 SWAP2 SWAP1 PUSH2 0x53D JUMP JUMPDEST PUSH1 0x40 MLOAD DUP1 SWAP2 SUB SWAP1 RETURN JUMPDEST PUSH2 0x128 PUSH2 0x2D1 JUMP JUMPDEST PUSH1 0x40 MLOAD PUSH2 0x135 SWAP2 SWAP1 PUSH2 0x53D JUMP JUMPDEST PUSH1 0x40 MLOAD DUP1 SWAP2 SUB SWAP1 RETURN JUMPDEST DUP2 DUP2 PUSH1 0x0 SWAP2 DUP3 PUSH2 0x14F SWAP3 SWAP2 SWAP1 PUSH2 0x7AF JUMP JUMPDEST POP POP POP JUMP JUMPDEST CALLER PUSH1 0x1 PUSH1 0x0 PUSH2 0x100 EXP DUP2 SLOAD DUP2 PUSH20 0xFFFFFFFFFFFFFFFFFFFFFFFFFFFFFFFFFFFFFFFF MUL NOT AND SWAP1 DUP4 PUSH20 0xFFFFFFFFFFFFFFFFFFFFFFFFFFFFFFFFFFFFFFFF AND MUL OR SWAP1 SSTORE POP JUMP JUMPDEST PUSH1 0x0 PUSH1 0x1 PUSH1 0x0 SWAP1 SLOAD SWAP1 PUSH2 0x100 EXP SWAP1 DIV PUSH20 0xFFFFFFFFFFFFFFFFFFFFFFFFFFFFFFFFFFFFFFFF AND SWAP1 POP SWAP1 JUMP JUMPDEST PUSH1 0x1 PUSH1 0x0 SWAP1 SLOAD SWAP1 PUSH2 0x100 EXP SWAP1 DIV PUSH20 0xFFFFFFFFFFFFFFFFFFFFFFFFFFFFFFFFFFFFFFFF AND DUP2 JUMP JUMPDEST PUSH1 0x0 CALLER PUSH20 0xFFFFFFFFFFFFFFFFFFFFFFFFFFFFFFFFFFFFFFFF AND PUSH1 0x1 PUSH1 0x0 SWAP1 SLOAD SWAP1 PUSH2 0x100 EXP SWAP1 DIV PUSH20 0xFFFFFFFFFFFFFFFFFFFFFFFFFFFFFFFFFFFFFFFF AND PUSH20 0xFFFFFFFFFFFFFFFFFFFFFFFFFFFFFFFFFFFFFFFF AND EQ SWAP1 POP SWAP1 JUMP JUMPDEST PUSH1 0x60 PUSH1 0x0 DUP1 SLOAD PUSH2 0x24E SWAP1 PUSH2 0x5C8 JUMP JUMPDEST DUP1 PUSH1 0x1F ADD PUSH1 0x20 DUP1 SWAP2 DIV MUL PUSH1 0x20 ADD PUSH1 0x40 MLOAD SWAP1 DUP2 ADD PUSH1 0x40 MSTORE DUP1 SWAP3 SWAP2 SWAP1 DUP2 DUP2 MSTORE PUSH1 0x20 ADD DUP3 DUP1 SLOAD PUSH2 0x27A SWAP1 PUSH2 0x5C8 JUMP JUMPDEST DUP1 ISZERO PUSH2 0x2C7 JUMPI DUP1 PUSH1 0x1F LT PUSH2 0x29C JUMPI PUSH2 0x100 DUP1 DUP4 SLOAD DIV MUL DUP4 MSTORE SWAP2 PUSH1 0x20 ADD SWAP2 PUSH2 0x2C7 JUMP JUMPDEST DUP3 ADD SWAP2 SWAP1 PUSH1 0x0 MSTORE PUSH1 0x20 PUSH1 0x0 KECCAK256 SWAP1 JUMPDEST DUP2 SLOAD DUP2 MSTORE SWAP1 PUSH1 0x1 ADD SWAP1 PUSH1 0x20 ADD DUP1 DUP4 GT PUSH2 0x2AA JUMPI DUP3 SWAP1 SUB PUSH1 0x1F AND DUP3 ADD SWAP2 JUMPDEST POP POP POP POP POP SWAP1 POP SWAP1 JUMP JUMPDEST PUSH1 0x0 DUP1 SLOAD PUSH2 0x2DE SWAP1 PUSH2 0x5C8 JUMP JUMPDEST DUP1 PUSH1 0x1F ADD PUSH1 0x20 DUP1 SWAP2 DIV MUL PUSH1 0x20 ADD PUSH1 0x40 MLOAD SWAP1 DUP2 ADD PUSH1 0x40 MSTORE DUP1 SWAP3 SWAP2 SWAP1 DUP2 DUP2 MSTORE PUSH1 0x20 ADD DUP3 DUP1 SLOAD PUSH2 0x30A SWAP1 PUSH2 0x5C8 JUMP JUMPDEST DUP1 ISZERO PUSH2 0x357 JUMPI DUP1 PUSH1 0x1F LT PUSH2 0x32C JUMPI PUSH2 0x100 DUP1 DUP4 SLOAD DIV MUL DUP4 MSTORE SWAP2 PUSH1 0x20 ADD SWAP2 PUSH2 0x357 JUMP JUMPDEST DUP3 ADD SWAP2 SWAP1 PUSH1 0x0 MSTORE PUSH1 0x20 PUSH1 0x0 KECCAK256 SWAP1 JUMPDEST DUP2 SLOAD DUP2 MSTORE SWAP1 PUSH1 0x1 ADD SWAP1 PUSH1 0x20 ADD DUP1 DUP4 GT PUSH2 0x33A JUMPI DUP3 SWAP1 SUB PUSH1 0x1F AND DUP3 ADD SWAP2 JUMPDEST POP POP POP POP POP DUP2 JUMP JUMPDEST PUSH1 0x0 DUP1 REVERT JUMPDEST PUSH1 0x0 DUP1 REVERT JUMPDEST PUSH1 0x0 DUP1 REVERT JUMPDEST PUSH1 0x0 DUP1 REVERT JUMPDEST PUSH1 0x0 DUP1 REVERT JUMPDEST PUSH1 0x0 DUP1 DUP4 PUSH1 0x1F DUP5 ADD SLT PUSH2 0x38E JUMPI PUSH2 0x38D PUSH2 0x369 JUMP JUMPDEST JUMPDEST DUP3 CALLDATALOAD SWAP1 POP PUSH8 0xFFFFFFFFFFFFFFFF DUP2 GT ISZERO PUSH2 0x3AB JUMPI PUSH2 0x3AA PUSH2 0x36E JUMP JUMPDEST JUMPDEST PUSH1 0x20 DUP4 ADD SWAP2 POP DUP4 PUSH1 0x1 DUP3 MUL DUP4 ADD GT ISZERO PUSH2 0x3C7 JUMPI PUSH2 0x3C6 PUSH2 0x373 JUMP JUMPDEST JUMPDEST SWAP3 POP SWAP3 SWAP1 POP JUMP JUMPDEST PUSH1 0x0 DUP1 PUSH1 0x20 DUP4 DUP6 SUB SLT ISZERO PUSH2 0x3E5 JUMPI PUSH2 0x3E4 PUSH2 0x35F JUMP JUMPDEST JUMPDEST PUSH1 0x0 DUP4 ADD CALLDATALOAD PUSH8 0xFFFFFFFFFFFFFFFF DUP2 GT ISZERO PUSH2 0x403 JUMPI PUSH2 0x402 PUSH2 0x364 JUMP JUMPDEST JUMPDEST PUSH2 0x40F DUP6 DUP3 DUP7 ADD PUSH2 0x378 JUMP JUMPDEST SWAP3 POP SWAP3 POP POP SWAP3 POP SWAP3 SWAP1 POP JUMP JUMPDEST PUSH1 0x0 PUSH20 0xFFFFFFFFFFFFFFFFFFFFFFFFFFFFFFFFFFFFFFFF DUP3 AND SWAP1 POP SWAP2 SWAP1 POP JUMP JUMPDEST PUSH1 0x0 PUSH2 0x446 DUP3 PUSH2 0x41B JUMP JUMPDEST SWAP1 POP SWAP2 SWAP1 POP JUMP JUMPDEST PUSH2 0x456 DUP2 PUSH2 0x43B JUMP JUMPDEST DUP3 MSTORE POP POP JUMP JUMPDEST PUSH1 0x0 PUSH1 0x20 DUP3 ADD SWAP1 POP PUSH2 0x471 PUSH1 0x0 DUP4 ADD DUP5 PUSH2 0x44D JUMP JUMPDEST SWAP3 SWAP2 POP POP JUMP JUMPDEST PUSH1 0x0 DUP2 ISZERO ISZERO SWAP1 POP SWAP2 SWAP1 POP JUMP JUMPDEST PUSH2 0x48C DUP2 PUSH2 0x477 JUMP JUMPDEST DUP3 MSTORE POP POP JUMP JUMPDEST PUSH1 0x0 PUSH1 0x20 DUP3 ADD SWAP1 POP PUSH2 0x4A7 PUSH1 0x0 DUP4 ADD DUP5 PUSH2 0x483 JUMP JUMPDEST SWAP3 SWAP2 POP POP JUMP JUMPDEST PUSH1 0x0 DUP2 MLOAD SWAP1 POP SWAP2 SWAP1 POP JUMP JUMPDEST PUSH1 0x0 DUP3 DUP3 MSTORE PUSH1 0x20 DUP3 ADD SWAP1 POP SWAP3 SWAP2 POP POP JUMP JUMPDEST PUSH1 0x0 JUMPDEST DUP4 DUP2 LT ISZERO PUSH2 0x4E7 JUMPI DUP1 DUP3 ADD MLOAD DUP2 DUP5 ADD MSTORE PUSH1 0x20 DUP2 ADD SWAP1 POP PUSH2 0x4CC JUMP JUMPDEST PUSH1 0x0 DUP5 DUP5 ADD MSTORE POP POP POP POP JUMP JUMPDEST PUSH1 0x0 PUSH1 0x1F NOT PUSH1 0x1F DUP4 ADD AND SWAP1 POP SWAP2 SWAP1 POP JUMP JUMPDEST PUSH1 0x0 PUSH2 0x50F DUP3 PUSH2 0x4AD JUMP JUMPDEST PUSH2 0x519 DUP2 DUP6 PUSH2 0x4B8 JUMP JUMPDEST SWAP4 POP PUSH2 0x529 DUP2 DUP6 PUSH1 0x20 DUP7 ADD PUSH2 0x4C9 JUMP JUMPDEST PUSH2 0x532 DUP2 PUSH2 0x4F3 JUMP JUMPDEST DUP5 ADD SWAP2 POP POP SWAP3 SWAP2 POP POP JUMP JUMPDEST PUSH1 0x0 PUSH1 0x20 DUP3 ADD SWAP1 POP DUP2 DUP2 SUB PUSH1 0x0 DUP4 ADD MSTORE PUSH2 0x557 DUP2 DUP5 PUSH2 0x504 JUMP JUMPDEST SWAP1 POP SWAP3 SWAP2 POP POP JUMP JUMPDEST PUSH1 0x0 DUP3 SWAP1 POP SWAP3 SWAP2 POP POP JUMP JUMPDEST PUSH32 0x4E487B7100000000000000000000000000000000000000000000000000000000 PUSH1 0x0 MSTORE PUSH1 0x41 PUSH1 0x4 MSTORE PUSH1 0x24 PUSH1 0x0 REVERT JUMPDEST PUSH32 0x4E487B7100000000000000000000000000000000000000000000000000000000 PUSH1 0x0 MSTORE PUSH1 0x22 PUSH1 0x4 MSTORE PUSH1 0x24 PUSH1 0x0 REVERT JUMPDEST PUSH1 0x0 PUSH1 0x2 DUP3 DIV SWAP1 POP PUSH1 0x1 DUP3 AND DUP1 PUSH2 0x5E0 JUMPI PUSH1 0x7F DUP3 AND SWAP2 POP JUMPDEST PUSH1 0x20 DUP3 LT DUP2 SUB PUSH2 0x5F3 JUMPI PUSH2 0x5F2 PUSH2 0x599 JUMP JUMPDEST JUMPDEST POP SWAP2 SWAP1 POP JUMP JUMPDEST PUSH1 0x0 DUP2 SWAP1 POP DUP2 PUSH1 0x0 MSTORE PUSH1 0x20 PUSH1 0x0 KECCAK256 SWAP1 POP SWAP2 SWAP1 POP JUMP JUMPDEST PUSH1 0x0 PUSH1 0x20 PUSH1 0x1F DUP4 ADD DIV SWAP1 POP SWAP2 SWAP1 POP JUMP JUMPDEST PUSH1 0x0 DUP3 DUP3 SHL SWAP1 POP SWAP3 SWAP2 POP POP JUMP JUMPDEST PUSH1 0x0 PUSH1 0x8 DUP4 MUL PUSH2 0x65B PUSH32 0xFFFFFFFFFFFFFFFFFFFFFFFFFFFFFFFFFFFFFFFFFFFFFFFFFFFFFFFFFFFFFFFF DUP3 PUSH2 0x61E JUMP JUMPDEST PUSH2 0x665 DUP7 DUP4 PUSH2 0x61E JUMP JUMPDEST SWAP6 POP DUP1 NOT DUP5 AND SWAP4 POP DUP1 DUP7 AND DUP5 OR SWAP3 POP POP POP SWAP4 SWAP3 POP POP POP JUMP JUMPDEST PUSH1 0x0 DUP2 SWAP1 POP SWAP2 SWAP1 POP JUMP JUMPDEST PUSH1 0x0 DUP2 SWAP1 POP SWAP2 SWAP1 POP JUMP JUMPDEST PUSH1 0x0 PUSH2 0x6AC PUSH2 0x6A7 PUSH2 0x6A2 DUP5 PUSH2 0x67D JUMP JUMPDEST PUSH2 0x687 JUMP JUMPDEST PUSH2 0x67D JUMP JUMPDEST SWAP1 POP SWAP2 SWAP1 POP JUMP JUMPDEST PUSH1 0x0 DUP2 SWAP1 POP SWAP2 SWAP1 POP JUMP JUMPDEST PUSH2 0x6C6 DUP4 PUSH2 0x691 JUMP JUMPDEST PUSH2 0x6DA PUSH2 0x6D2 DUP3 PUSH2 0x6B3 JUMP JUMPDEST DUP5 DUP5 SLOAD PUSH2 0x62B JUMP JUMPDEST DUP3 SSTORE POP POP POP POP JUMP JUMPDEST PUSH1 0x0 SWAP1 JUMP JUMPDEST PUSH2 0x6EF PUSH2 0x6E2 JUMP JUMPDEST PUSH2 0x6FA DUP2 DUP5 DUP5 PUSH2 0x6BD JUMP JUMPDEST POP POP POP JUMP JUMPDEST JUMPDEST DUP2 DUP2 LT ISZERO PUSH2 0x71E JUMPI PUSH2 0x713 PUSH1 0x0 DUP3 PUSH2 0x6E7 JUMP JUMPDEST PUSH1 0x1 DUP2 ADD SWAP1 POP PUSH2 0x700 JUMP JUMPDEST POP POP JUMP JUMPDEST PUSH1 0x1F DUP3 GT ISZERO PUSH2 0x763 JUMPI PUSH2 0x734 DUP2 PUSH2 0x5F9 JUMP JUMPDEST PUSH2 0x73D DUP5 PUSH2 0x60E JUMP JUMPDEST DUP2 ADD PUSH1 0x20 DUP6 LT ISZERO PUSH2 0x74C JUMPI DUP2 SWAP1 POP JUMPDEST PUSH2 0x760 PUSH2 0x758 DUP6 PUSH2 0x60E JUMP JUMPDEST DUP4 ADD DUP3 PUSH2 0x6FF JUMP JUMPDEST POP POP JUMPDEST POP POP POP JUMP JUMPDEST PUSH1 0x0 DUP3 DUP3 SHR SWAP1 POP SWAP3 SWAP2 POP POP JUMP JUMPDEST PUSH1 0x0 PUSH2 0x786 PUSH1 0x0 NOT DUP5 PUSH1 0x8 MUL PUSH2 0x768 JUMP JUMPDEST NOT DUP1 DUP4 AND SWAP2 POP POP SWAP3 SWAP2 POP POP JUMP JUMPDEST PUSH1 0x0 PUSH2 0x79F DUP4 DUP4 PUSH2 0x775 JUMP JUMPDEST SWAP2 POP DUP3 PUSH1 0x2 MUL DUP3 OR SWAP1 POP SWAP3 SWAP2 POP POP JUMP JUMPDEST PUSH2 0x7B9 DUP4 DUP4 PUSH2 0x55F JUMP JUMPDEST PUSH8 0xFFFFFFFFFFFFFFFF DUP2 GT ISZERO PUSH2 0x7D2 JUMPI PUSH2 0x7D1 PUSH2 0x56A JUMP JUMPDEST JUMPDEST PUSH2 0x7DC DUP3 SLOAD PUSH2 0x5C8 JUMP JUMPDEST PUSH2 0x7E7 DUP3 DUP3 DUP6 PUSH2 0x722 JUMP JUMPDEST PUSH1 0x0 PUSH1 0x1F DUP4 GT PUSH1 0x1 DUP2 EQ PUSH2 0x816 JUMPI PUSH1 0x0 DUP5 ISZERO PUSH2 0x804 JUMPI DUP3 DUP8 ADD CALLDATALOAD SWAP1 POP JUMPDEST PUSH2 0x80E DUP6 DUP3 PUSH2 0x793 JUMP JUMPDEST DUP7 SSTORE POP PUSH2 0x876 JUMP JUMPDEST PUSH1 0x1F NOT DUP5 AND PUSH2 0x824 DUP7 PUSH2 0x5F9 JUMP JUMPDEST PUSH1 0x0 JUMPDEST DUP3 DUP2 LT ISZERO PUSH2 0x84C JUMPI DUP5 DUP10 ADD CALLDATALOAD DUP3 SSTORE PUSH1 0x1 DUP3 ADD SWAP2 POP PUSH1 0x20 DUP6 ADD SWAP5 POP PUSH1 0x20 DUP2 ADD SWAP1 POP PUSH2 0x827 JUMP JUMPDEST DUP7 DUP4 LT ISZERO PUSH2 0x869 JUMPI DUP5 DUP10 ADD CALLDATALOAD PUSH2 0x865 PUSH1 0x1F DUP10 AND DUP3 PUSH2 0x775 JUMP JUMPDEST DUP4 SSTORE POP JUMPDEST PUSH1 0x1 PUSH1 0x2 DUP9 MUL ADD DUP9 SSTORE POP POP POP JUMPDEST POP POP POP POP POP POP POP JUMP INVALID LOG2 PUSH5 0x6970667358 0x22 SLT KECCAK256 PUSH3 0xA918C4 0xEA 0xB8 0xCE JUMPDEST DUP5 0xE 0xF 0x1E SHL 0xAA CALL 0xC6 OR 0xD2 0x4F BYTE PUSH29 0xD3A88CF8DF26F98626158264736F6C634300081E003300000000000000 "
				},
				"gasEstimates": {
					"creation": {
						"codeDepositCost": "445800",
						"executionCost": "infinite",
						"totalCost": "infinite"
					},
					"external": {
						"getMessage()": "infinite",
						"getOwner()": "2567",
						"isOwner()": "2518",
						"message()": "infinite",
						"owner()": "2514",
						"setOwner()": "24433",
						"updateMessage(string)": "infinite"
					}
				},
				"methodIdentifiers": {
					"getMessage()": "ce6d41de",
					"getOwner()": "893d20e8",
					"isOwner()": "8f32d59b",
					"message()": "e21f37ce",
					"owner()": "8da5cb5b",
					"setOwner()": "40caae06",
					"updateMessage(string)": "1923be24"
				}
			},
			"storageLayout": {
				"storage": [
					{
						"astId": 4,
						"contract": "practises/HelloWorld.sol:HelloWorld",
						"label": "message",
						"offset": 0,
						"slot": "0",
						"type": "t_string_storage"
					},
					{
						"astId": 6,
						"contract": "practises/HelloWorld.sol:HelloWorld",
						"label": "owner",
						"offset": 0,
						"slot": "1",
						"type": "t_address"
					}
				],
				"types": {
					"t_address": {
						"encoding": "inplace",
						"label": "address",
						"numberOfBytes": "20"
					},
					"t_string_storage": {
						"encoding": "bytes",
						"label": "string",
						"numberOfBytes": "32"
					}
				}
			},
			"userdoc": {
				"kind": "user",
				"methods": {},
				"version": 1
			}
		}
	}
}