{
	"practise3.2/VotingSystem.sol": {
		"VotingSystem": {
			"abi": [
				{
					"inputs": [
						{
							"internalType": "string",
							"name": "description",
							"type": "string"
						},
						{
							"internalType": "uint256",
							"name": "duration",
							"type": "uint256"
						}
					],
					"name": "createProposal",
					"outputs": [
						{
							"internalType": "uint256",
							"name": "",
							"type": "uint256"
						}
					],
					"stateMutability": "nonpayable",
					"type": "function"
				},
				{
					"inputs": [
						{
							"internalType": "uint256",
							"name": "proposalId",
							"type": "uint256"
						}
					],
					"name": "getProposalInfo",
					"outputs": [
						{
							"internalType": "string",
							"name": "description",
							"type": "string"
						},
						{
							"internalType": "uint256",
							"name": "voteCount",
							"type": "uint256"
						},
						{
							"internalType": "uint256",
							"name": "deadline",
							"type": "uint256"
						},
						{
							"internalType": "bool",
							"name": "executed",
							"type": "bool"
						}
					],
					"stateMutability": "view",
					"type": "function"
				},
				{
					"inputs": [],
					"name": "getWinningProposal",
					"outputs": [
						{
							"internalType": "uint256",
							"name": "winningProposalId",
							"type": "uint256"
						}
					],
					"stateMutability": "view",
					"type": "function"
				},
				{
					"inputs": [
						{
							"internalType": "uint256",
							"name": "proposalId",
							"type": "uint256"
						},
						{
							"internalType": "address",
							"name": "voter",
							"type": "address"
						}
					],
					"name": "hasVoted",
					"outputs": [
						{
							"internalType": "bool",
							"name": "",
							"type": "bool"
						}
					],
					"stateMutability": "view",
					"type": "function"
				},
				{
					"inputs": [],
					"name": "proposalCount",
					"outputs": [
						{
							"internalType": "uint256",
							"name": "",
							"type": "uint256"
						}
					],
					"stateMutability": "view",
					"type": "function"
				},
				{
					"inputs": [
						{
							"internalType": "uint256",
							"name": "",
							"type": "uint256"
						}
					],
					"name": "proposals",
					"outputs": [
						{
							"internalType": "string",
							"name": "description",
							"type": "string"
						},
						{
							"internalType": "uint256",
							"name": "voteCount",
							"type": "uint256"
						},
						{
							"internalType": "uint256",
							"name": "deadline",
							"type": "uint256"
						},
						{
							"internalType": "bool",
							"name": "executed",
							"type": "bool"
						}
					],
					"stateMutability": "view",
					"type": "function"
				},
				{
					"inputs": [
						{
							"internalType": "uint256",
							"name": "proposalId",
							"type": "uint256"
						}
					],
					"name": "vote",
					"outputs": [],
					"stateMutability": "nonpayable",
					"type": "function"
				}
			],
			"devdoc": {
				"kind": "dev",
				"methods": {},
				"version": 1
			},
			"evm": {
				"assembly": "    /* \"practise3.2/VotingSystem.sol\":56:2234  contract VotingSystem{... */\n  mstore(0x40, 0x80)\n  callvalue\n  dup1\n  iszero\n  tag_1\n  jumpi\n  0x00\n  dup1\n  revert\ntag_1:\n  pop\n  dataSize(sub_0)\n  dup1\n  dataOffset(sub_0)\n  0x00\n  codecopy\n  0x00\n  return\nstop\n\nsub_0: assembly {\n        /* \"practise3.2/VotingSystem.sol\":56:2234  contract VotingSystem{... */\n      mstore(0x40, 0x80)\n      callvalue\n      dup1\n      iszero\n      tag_1\n      jumpi\n      0x00\n      dup1\n      revert\n    tag_1:\n      pop\n      jumpi(tag_2, lt(calldatasize, 0x04))\n      shr(0xe0, calldataload(0x00))\n      dup1\n      0x43859632\n      gt\n      tag_10\n      jumpi\n      dup1\n      0x43859632\n      eq\n      tag_6\n      jumpi\n      dup1\n      0xa5134620\n      eq\n      tag_7\n      jumpi\n      dup1\n      0xbc903cb8\n      eq\n      tag_8\n      jumpi\n      dup1\n      0xda35c664\n      eq\n      tag_9\n      jumpi\n      jump(tag_2)\n    tag_10:\n      dup1\n      0x0121b93f\n      eq\n      tag_3\n      jumpi\n      dup1\n      0x013cf08b\n      eq\n      tag_4\n      jumpi\n      dup1\n      0x35facf78\n      eq\n      tag_5\n      jumpi\n    tag_2:\n      0x00\n      dup1\n      revert\n        /* \"practise3.2/VotingSystem.sol\":817:1200  function vote(uint256 proposalId) public {... */\n    tag_3:\n      tag_11\n      0x04\n      dup1\n      calldatasize\n      sub\n      dup2\n      add\n      swap1\n      tag_12\n      swap2\n      swap1\n      tag_13\n      jump\t// in\n    tag_12:\n      tag_14\n      jump\t// in\n    tag_11:\n      stop\n        /* \"practise3.2/VotingSystem.sol\":258:303  mapping(uint256 => Proposal) public proposals */\n    tag_4:\n      tag_15\n      0x04\n      dup1\n      calldatasize\n      sub\n      dup2\n      add\n      swap1\n      tag_16\n      swap2\n      swap1\n      tag_13\n      jump\t// in\n    tag_16:\n      tag_17\n      jump\t// in\n    tag_15:\n      mload(0x40)\n      tag_18\n      swap5\n      swap4\n      swap3\n      swap2\n      swap1\n      tag_19\n      jump\t// in\n    tag_18:\n      mload(0x40)\n      dup1\n      swap2\n      sub\n      swap1\n      return\n        /* \"practise3.2/VotingSystem.sol\":343:812  function createProposal(string memory description,uint256 duration)public returns (uint256){... */\n    tag_5:\n      tag_20\n      0x04\n      dup1\n      calldatasize\n      sub\n      dup2\n      add\n      swap1\n      tag_21\n      swap2\n      swap1\n      tag_22\n      jump\t// in\n    tag_21:\n      tag_23\n      jump\t// in\n    tag_20:\n      mload(0x40)\n      tag_24\n      swap2\n      swap1\n      tag_25\n      jump\t// in\n    tag_24:\n      mload(0x40)\n      dup1\n      swap2\n      sub\n      swap1\n      return\n        /* \"practise3.2/VotingSystem.sol\":1206:1439  function hasVoted(... */\n    tag_6:\n      tag_26\n      0x04\n      dup1\n      calldatasize\n      sub\n      dup2\n      add\n      swap1\n      tag_27\n      swap2\n      swap1\n      tag_28\n      jump\t// in\n    tag_27:\n      tag_29\n      jump\t// in\n    tag_26:\n      mload(0x40)\n      tag_30\n      swap2\n      swap1\n      tag_31\n      jump\t// in\n    tag_30:\n      mload(0x40)\n      dup1\n      swap2\n      sub\n      swap1\n      return\n        /* \"practise3.2/VotingSystem.sol\":1846:2232  function getWinningProposal() public view returns (uint256 winningProposalId) {... */\n    tag_7:\n      tag_32\n      tag_33\n      jump\t// in\n    tag_32:\n      mload(0x40)\n      tag_34\n      swap2\n      swap1\n      tag_25\n      jump\t// in\n    tag_34:\n      mload(0x40)\n      dup1\n      swap2\n      sub\n      swap1\n      return\n        /* \"practise3.2/VotingSystem.sol\":1444:1836  function getProposalInfo(uint256 proposalId) public view returns (... */\n    tag_8:\n      tag_35\n      0x04\n      dup1\n      calldatasize\n      sub\n      dup2\n      add\n      swap1\n      tag_36\n      swap2\n      swap1\n      tag_13\n      jump\t// in\n    tag_36:\n      tag_37\n      jump\t// in\n    tag_35:\n      mload(0x40)\n      tag_38\n      swap5\n      swap4\n      swap3\n      swap2\n      swap1\n      tag_19\n      jump\t// in\n    tag_38:\n      mload(0x40)\n      dup1\n      swap2\n      sub\n      swap1\n      return\n        /* \"practise3.2/VotingSystem.sol\":309:337  uint256 public proposalCount */\n    tag_9:\n      tag_39\n      tag_40\n      jump\t// in\n    tag_39:\n      mload(0x40)\n      tag_41\n      swap2\n      swap1\n      tag_25\n      jump\t// in\n    tag_41:\n      mload(0x40)\n      dup1\n      swap2\n      sub\n      swap1\n      return\n        /* \"practise3.2/VotingSystem.sol\":817:1200  function vote(uint256 proposalId) public {... */\n    tag_14:\n        /* \"practise3.2/VotingSystem.sol\":889:902  proposalCount */\n      sload(0x01)\n        /* \"practise3.2/VotingSystem.sol\":876:886  proposalId */\n      dup2\n        /* \"practise3.2/VotingSystem.sol\":876:902  proposalId < proposalCount */\n      lt\n        /* \"practise3.2/VotingSystem.sol\":868:930  require(proposalId < proposalCount, \"Proposal does not exist\") */\n      tag_43\n      jumpi\n      mload(0x40)\n      0x08c379a000000000000000000000000000000000000000000000000000000000\n      dup2\n      mstore\n      0x04\n      add\n      tag_44\n      swap1\n      tag_45\n      jump\t// in\n    tag_44:\n      mload(0x40)\n      dup1\n      swap2\n      sub\n      swap1\n      revert\n    tag_43:\n        /* \"practise3.2/VotingSystem.sol\":949:967  Proposal storage p */\n      0x00\n        /* \"practise3.2/VotingSystem.sol\":970:979  proposals */\n      dup1\n        /* \"practise3.2/VotingSystem.sol\":970:991  proposals[proposalId] */\n      0x00\n        /* \"practise3.2/VotingSystem.sol\":980:990  proposalId */\n      dup4\n        /* \"practise3.2/VotingSystem.sol\":970:991  proposals[proposalId] */\n      dup2\n      mstore\n      0x20\n      add\n      swap1\n      dup2\n      mstore\n      0x20\n      add\n      0x00\n      keccak256\n        /* \"practise3.2/VotingSystem.sol\":949:991  Proposal storage p = proposals[proposalId] */\n      swap1\n      pop\n        /* \"practise3.2/VotingSystem.sol\":1036:1037  p */\n      dup1\n        /* \"practise3.2/VotingSystem.sol\":1036:1046  p.deadline */\n      0x02\n      add\n      sload\n        /* \"practise3.2/VotingSystem.sol\":1018:1033  block.timestamp */\n      timestamp\n        /* \"practise3.2/VotingSystem.sol\":1018:1046  block.timestamp < p.deadline */\n      lt\n        /* \"practise3.2/VotingSystem.sol\":1010:1067  require(block.timestamp < p.deadline, \"Voting has ended\") */\n      tag_46\n      jumpi\n      mload(0x40)\n      0x08c379a000000000000000000000000000000000000000000000000000000000\n      dup2\n      mstore\n      0x04\n      add\n      tag_47\n      swap1\n      tag_48\n      jump\t// in\n    tag_47:\n      mload(0x40)\n      dup1\n      swap2\n      sub\n      swap1\n      revert\n    tag_46:\n        /* \"practise3.2/VotingSystem.sol\":1086:1087  p */\n      dup1\n        /* \"practise3.2/VotingSystem.sol\":1086:1094  p.voters */\n      0x04\n      add\n        /* \"practise3.2/VotingSystem.sol\":1086:1106  p.voters[msg.sender] */\n      0x00\n        /* \"practise3.2/VotingSystem.sol\":1095:1105  msg.sender */\n      caller\n        /* \"practise3.2/VotingSystem.sol\":1086:1106  p.voters[msg.sender] */\n      0xffffffffffffffffffffffffffffffffffffffff\n      and\n      0xffffffffffffffffffffffffffffffffffffffff\n      and\n      dup2\n      mstore\n      0x20\n      add\n      swap1\n      dup2\n      mstore\n      0x20\n      add\n      0x00\n      keccak256\n      0x00\n      swap1\n      sload\n      swap1\n      0x0100\n      exp\n      swap1\n      div\n      0xff\n      and\n        /* \"practise3.2/VotingSystem.sol\":1085:1106  !p.voters[msg.sender] */\n      iszero\n        /* \"practise3.2/VotingSystem.sol\":1077:1124  require(!p.voters[msg.sender], \"Already voted\") */\n      tag_49\n      jumpi\n      mload(0x40)\n      0x08c379a000000000000000000000000000000000000000000000000000000000\n      dup2\n      mstore\n      0x04\n      add\n      tag_50\n      swap1\n      tag_51\n      jump\t// in\n    tag_50:\n      mload(0x40)\n      dup1\n      swap2\n      sub\n      swap1\n      revert\n    tag_49:\n        /* \"practise3.2/VotingSystem.sol\":1166:1170  true */\n      0x01\n        /* \"practise3.2/VotingSystem.sol\":1143:1144  p */\n      dup2\n        /* \"practise3.2/VotingSystem.sol\":1143:1151  p.voters */\n      0x04\n      add\n        /* \"practise3.2/VotingSystem.sol\":1143:1163  p.voters[msg.sender] */\n      0x00\n        /* \"practise3.2/VotingSystem.sol\":1152:1162  msg.sender */\n      caller\n        /* \"practise3.2/VotingSystem.sol\":1143:1163  p.voters[msg.sender] */\n      0xffffffffffffffffffffffffffffffffffffffff\n      and\n      0xffffffffffffffffffffffffffffffffffffffff\n      and\n      dup2\n      mstore\n      0x20\n      add\n      swap1\n      dup2\n      mstore\n      0x20\n      add\n      0x00\n      keccak256\n      0x00\n        /* \"practise3.2/VotingSystem.sol\":1143:1170  p.voters[msg.sender] = true */\n      0x0100\n      exp\n      dup2\n      sload\n      dup2\n      0xff\n      mul\n      not\n      and\n      swap1\n      dup4\n      iszero\n      iszero\n      mul\n      or\n      swap1\n      sstore\n      pop\n        /* \"practise3.2/VotingSystem.sol\":1180:1181  p */\n      dup1\n        /* \"practise3.2/VotingSystem.sol\":1180:1191  p.voteCount */\n      0x01\n      add\n      0x00\n        /* \"practise3.2/VotingSystem.sol\":1180:1193  p.voteCount++ */\n      dup2\n      sload\n      dup1\n      swap3\n      swap2\n      swap1\n      tag_52\n      swap1\n      tag_53\n      jump\t// in\n    tag_52:\n      swap2\n      swap1\n      pop\n      sstore\n      pop\n        /* \"practise3.2/VotingSystem.sol\":858:1200  {... */\n      pop\n        /* \"practise3.2/VotingSystem.sol\":817:1200  function vote(uint256 proposalId) public {... */\n      pop\n      jump\t// out\n        /* \"practise3.2/VotingSystem.sol\":258:303  mapping(uint256 => Proposal) public proposals */\n    tag_17:\n      mstore(0x20, 0x00)\n      dup1\n      0x00\n      mstore\n      keccak256(0x00, 0x40)\n      0x00\n      swap2\n      pop\n      swap1\n      pop\n      dup1\n      0x00\n      add\n      dup1\n      sload\n      tag_54\n      swap1\n      tag_55\n      jump\t// in\n    tag_54:\n      dup1\n      0x1f\n      add\n      0x20\n      dup1\n      swap2\n      div\n      mul\n      0x20\n      add\n      mload(0x40)\n      swap1\n      dup2\n      add\n      0x40\n      mstore\n      dup1\n      swap3\n      swap2\n      swap1\n      dup2\n      dup2\n      mstore\n      0x20\n      add\n      dup3\n      dup1\n      sload\n      tag_56\n      swap1\n      tag_55\n      jump\t// in\n    tag_56:\n      dup1\n      iszero\n      tag_57\n      jumpi\n      dup1\n      0x1f\n      lt\n      tag_58\n      jumpi\n      0x0100\n      dup1\n      dup4\n      sload\n      div\n      mul\n      dup4\n      mstore\n      swap2\n      0x20\n      add\n      swap2\n      jump(tag_57)\n    tag_58:\n      dup3\n      add\n      swap2\n      swap1\n      0x00\n      mstore\n      keccak256(0x00, 0x20)\n      swap1\n    tag_59:\n      dup2\n      sload\n      dup2\n      mstore\n      swap1\n      0x01\n      add\n      swap1\n      0x20\n      add\n      dup1\n      dup4\n      gt\n      tag_59\n      jumpi\n      dup3\n      swap1\n      sub\n      0x1f\n      and\n      dup3\n      add\n      swap2\n    tag_57:\n      pop\n      pop\n      pop\n      pop\n      pop\n      swap1\n      dup1\n      0x01\n      add\n      sload\n      swap1\n      dup1\n      0x02\n      add\n      sload\n      swap1\n      dup1\n      0x03\n      add\n      0x00\n      swap1\n      sload\n      swap1\n      0x0100\n      exp\n      swap1\n      div\n      0xff\n      and\n      swap1\n      pop\n      dup5\n      jump\t// out\n        /* \"practise3.2/VotingSystem.sol\":343:812  function createProposal(string memory description,uint256 duration)public returns (uint256){... */\n    tag_23:\n        /* \"practise3.2/VotingSystem.sol\":426:433  uint256 */\n      0x00\n        /* \"practise3.2/VotingSystem.sol\":478:479  0 */\n      dup1\n        /* \"practise3.2/VotingSystem.sol\":456:467  description */\n      dup4\n        /* \"practise3.2/VotingSystem.sol\":450:475  bytes(description).length */\n      mload\n        /* \"practise3.2/VotingSystem.sol\":450:479  bytes(description).length > 0 */\n      gt\n        /* \"practise3.2/VotingSystem.sol\":442:504  require(bytes(description).length > 0, \"Description required\") */\n      tag_61\n      jumpi\n      mload(0x40)\n      0x08c379a000000000000000000000000000000000000000000000000000000000\n      dup2\n      mstore\n      0x04\n      add\n      tag_62\n      swap1\n      tag_63\n      jump\t// in\n    tag_62:\n      mload(0x40)\n      dup1\n      swap2\n      sub\n      swap1\n      revert\n    tag_61:\n        /* \"practise3.2/VotingSystem.sol\":531:532  0 */\n      0x00\n        /* \"practise3.2/VotingSystem.sol\":520:528  duration */\n      dup3\n        /* \"practise3.2/VotingSystem.sol\":520:532  duration > 0 */\n      gt\n        /* \"practise3.2/VotingSystem.sol\":512:562  require(duration > 0, \"Duration must be positive\") */\n      tag_64\n      jumpi\n      mload(0x40)\n      0x08c379a000000000000000000000000000000000000000000000000000000000\n      dup2\n      mstore\n      0x04\n      add\n      tag_65\n      swap1\n      tag_66\n      jump\t// in\n    tag_65:\n      mload(0x40)\n      dup1\n      swap2\n      sub\n      swap1\n      revert\n    tag_64:\n        /* \"practise3.2/VotingSystem.sol\":570:588  uint256 proposalId */\n      0x00\n        /* \"practise3.2/VotingSystem.sol\":591:604  proposalCount */\n      0x01\n      0x00\n        /* \"practise3.2/VotingSystem.sol\":591:607  proposalCount ++ */\n      dup2\n      sload\n      dup1\n      swap3\n      swap2\n      swap1\n      tag_67\n      swap1\n      tag_53\n      jump\t// in\n    tag_67:\n      swap2\n      swap1\n      pop\n      sstore\n        /* \"practise3.2/VotingSystem.sol\":570:607  uint256 proposalId = proposalCount ++ */\n      swap1\n      pop\n        /* \"practise3.2/VotingSystem.sol\":615:633  Proposal storage p */\n      0x00\n        /* \"practise3.2/VotingSystem.sol\":635:644  proposals */\n      dup1\n        /* \"practise3.2/VotingSystem.sol\":635:656  proposals[proposalId] */\n      0x00\n        /* \"practise3.2/VotingSystem.sol\":645:655  proposalId */\n      dup4\n        /* \"practise3.2/VotingSystem.sol\":635:656  proposals[proposalId] */\n      dup2\n      mstore\n      0x20\n      add\n      swap1\n      dup2\n      mstore\n      0x20\n      add\n      0x00\n      keccak256\n        /* \"practise3.2/VotingSystem.sol\":615:656  Proposal storage p= proposals[proposalId] */\n      swap1\n      pop\n        /* \"practise3.2/VotingSystem.sol\":680:691  description */\n      dup5\n        /* \"practise3.2/VotingSystem.sol\":664:665  p */\n      dup2\n        /* \"practise3.2/VotingSystem.sol\":664:677  p.description */\n      0x00\n      add\n        /* \"practise3.2/VotingSystem.sol\":664:691  p.description = description */\n      swap1\n      dup2\n      tag_68\n      swap2\n      swap1\n      tag_69\n      jump\t// in\n    tag_68:\n      pop\n        /* \"practise3.2/VotingSystem.sol\":711:712  0 */\n      0x00\n        /* \"practise3.2/VotingSystem.sol\":699:700  p */\n      dup2\n        /* \"practise3.2/VotingSystem.sol\":699:710  p.voteCount */\n      0x01\n      add\n        /* \"practise3.2/VotingSystem.sol\":699:712  p.voteCount=0 */\n      dup2\n      swap1\n      sstore\n      pop\n        /* \"practise3.2/VotingSystem.sol\":747:755  duration */\n      dup4\n        /* \"practise3.2/VotingSystem.sol\":731:746  block.timestamp */\n      timestamp\n        /* \"practise3.2/VotingSystem.sol\":731:755  block.timestamp+duration */\n      tag_70\n      swap2\n      swap1\n      tag_71\n      jump\t// in\n    tag_70:\n        /* \"practise3.2/VotingSystem.sol\":720:721  p */\n      dup2\n        /* \"practise3.2/VotingSystem.sol\":720:730  p.deadline */\n      0x02\n      add\n        /* \"practise3.2/VotingSystem.sol\":720:755  p.deadline=block.timestamp+duration */\n      dup2\n      swap1\n      sstore\n      pop\n        /* \"practise3.2/VotingSystem.sol\":775:780  false */\n      0x00\n        /* \"practise3.2/VotingSystem.sol\":763:764  p */\n      dup2\n        /* \"practise3.2/VotingSystem.sol\":763:773  p.executed */\n      0x03\n      add\n      0x00\n        /* \"practise3.2/VotingSystem.sol\":763:780  p.executed =false */\n      0x0100\n      exp\n      dup2\n      sload\n      dup2\n      0xff\n      mul\n      not\n      and\n      swap1\n      dup4\n      iszero\n      iszero\n      mul\n      or\n      swap1\n      sstore\n      pop\n        /* \"practise3.2/VotingSystem.sol\":795:805  proposalId */\n      dup2\n        /* \"practise3.2/VotingSystem.sol\":788:805  return proposalId */\n      swap3\n      pop\n      pop\n      pop\n        /* \"practise3.2/VotingSystem.sol\":343:812  function createProposal(string memory description,uint256 duration)public returns (uint256){... */\n      swap3\n      swap2\n      pop\n      pop\n      jump\t// out\n        /* \"practise3.2/VotingSystem.sol\":1206:1439  function hasVoted(... */\n    tag_29:\n        /* \"practise3.2/VotingSystem.sol\":1302:1306  bool */\n      0x00\n        /* \"practise3.2/VotingSystem.sol\":1339:1352  proposalCount */\n      sload(0x01)\n        /* \"practise3.2/VotingSystem.sol\":1326:1336  proposalId */\n      dup4\n        /* \"practise3.2/VotingSystem.sol\":1326:1352  proposalId < proposalCount */\n      lt\n        /* \"practise3.2/VotingSystem.sol\":1318:1380  require(proposalId < proposalCount, \"Proposal does not exist\") */\n      tag_73\n      jumpi\n      mload(0x40)\n      0x08c379a000000000000000000000000000000000000000000000000000000000\n      dup2\n      mstore\n      0x04\n      add\n      tag_74\n      swap1\n      tag_45\n      jump\t// in\n    tag_74:\n      mload(0x40)\n      dup1\n      swap2\n      sub\n      swap1\n      revert\n    tag_73:\n        /* \"practise3.2/VotingSystem.sol\":1397:1406  proposals */\n      0x00\n        /* \"practise3.2/VotingSystem.sol\":1397:1418  proposals[proposalId] */\n      dup1\n        /* \"practise3.2/VotingSystem.sol\":1407:1417  proposalId */\n      dup5\n        /* \"practise3.2/VotingSystem.sol\":1397:1418  proposals[proposalId] */\n      dup2\n      mstore\n      0x20\n      add\n      swap1\n      dup2\n      mstore\n      0x20\n      add\n      0x00\n      keccak256\n        /* \"practise3.2/VotingSystem.sol\":1397:1425  proposals[proposalId].voters */\n      0x04\n      add\n        /* \"practise3.2/VotingSystem.sol\":1397:1432  proposals[proposalId].voters[voter] */\n      0x00\n        /* \"practise3.2/VotingSystem.sol\":1426:1431  voter */\n      dup4\n        /* \"practise3.2/VotingSystem.sol\":1397:1432  proposals[proposalId].voters[voter] */\n      0xffffffffffffffffffffffffffffffffffffffff\n      and\n      0xffffffffffffffffffffffffffffffffffffffff\n      and\n      dup2\n      mstore\n      0x20\n      add\n      swap1\n      dup2\n      mstore\n      0x20\n      add\n      0x00\n      keccak256\n      0x00\n      swap1\n      sload\n      swap1\n      0x0100\n      exp\n      swap1\n      div\n      0xff\n      and\n        /* \"practise3.2/VotingSystem.sol\":1390:1432  return proposals[proposalId].voters[voter] */\n      swap1\n      pop\n        /* \"practise3.2/VotingSystem.sol\":1206:1439  function hasVoted(... */\n      swap3\n      swap2\n      pop\n      pop\n      jump\t// out\n        /* \"practise3.2/VotingSystem.sol\":1846:2232  function getWinningProposal() public view returns (uint256 winningProposalId) {... */\n    tag_33:\n        /* \"practise3.2/VotingSystem.sol\":1897:1922  uint256 winningProposalId */\n      0x00\n        /* \"practise3.2/VotingSystem.sol\":1934:1950  uint256 maxVotes */\n      dup1\n        /* \"practise3.2/VotingSystem.sol\":1953:1954  0 */\n      0x00\n        /* \"practise3.2/VotingSystem.sol\":1934:1954  uint256 maxVotes = 0 */\n      swap1\n      pop\n        /* \"practise3.2/VotingSystem.sol\":1977:1986  uint256 i */\n      0x00\n        /* \"practise3.2/VotingSystem.sol\":1973:2183  for(uint256 i = 0; i < proposalCount; i++) {... */\n    tag_76:\n        /* \"practise3.2/VotingSystem.sol\":1996:2009  proposalCount */\n      sload(0x01)\n        /* \"practise3.2/VotingSystem.sol\":1992:1993  i */\n      dup2\n        /* \"practise3.2/VotingSystem.sol\":1992:2009  i < proposalCount */\n      lt\n        /* \"practise3.2/VotingSystem.sol\":1973:2183  for(uint256 i = 0; i < proposalCount; i++) {... */\n      iszero\n      tag_77\n      jumpi\n        /* \"practise3.2/VotingSystem.sol\":2058:2066  maxVotes */\n      dup2\n        /* \"practise3.2/VotingSystem.sol\":2033:2042  proposals */\n      0x00\n        /* \"practise3.2/VotingSystem.sol\":2033:2045  proposals[i] */\n      dup1\n        /* \"practise3.2/VotingSystem.sol\":2043:2044  i */\n      dup4\n        /* \"practise3.2/VotingSystem.sol\":2033:2045  proposals[i] */\n      dup2\n      mstore\n      0x20\n      add\n      swap1\n      dup2\n      mstore\n      0x20\n      add\n      0x00\n      keccak256\n        /* \"practise3.2/VotingSystem.sol\":2033:2055  proposals[i].voteCount */\n      0x01\n      add\n      sload\n        /* \"practise3.2/VotingSystem.sol\":2033:2066  proposals[i].voteCount > maxVotes */\n      gt\n        /* \"practise3.2/VotingSystem.sol\":2030:2173  if(proposals[i].voteCount > maxVotes) {... */\n      iszero\n      tag_79\n      jumpi\n        /* \"practise3.2/VotingSystem.sol\":2097:2106  proposals */\n      0x00\n        /* \"practise3.2/VotingSystem.sol\":2097:2109  proposals[i] */\n      dup1\n        /* \"practise3.2/VotingSystem.sol\":2107:2108  i */\n      dup3\n        /* \"practise3.2/VotingSystem.sol\":2097:2109  proposals[i] */\n      dup2\n      mstore\n      0x20\n      add\n      swap1\n      dup2\n      mstore\n      0x20\n      add\n      0x00\n      keccak256\n        /* \"practise3.2/VotingSystem.sol\":2097:2119  proposals[i].voteCount */\n      0x01\n      add\n      sload\n        /* \"practise3.2/VotingSystem.sol\":2086:2119  maxVotes = proposals[i].voteCount */\n      swap2\n      pop\n        /* \"practise3.2/VotingSystem.sol\":2157:2158  i */\n      dup1\n        /* \"practise3.2/VotingSystem.sol\":2137:2158  winningProposalId = i */\n      swap3\n      pop\n        /* \"practise3.2/VotingSystem.sol\":2030:2173  if(proposals[i].voteCount > maxVotes) {... */\n    tag_79:\n        /* \"practise3.2/VotingSystem.sol\":2011:2014  i++ */\n      dup1\n      dup1\n      0x01\n      add\n      swap2\n      pop\n      pop\n        /* \"practise3.2/VotingSystem.sol\":1973:2183  for(uint256 i = 0; i < proposalCount; i++) {... */\n      jump(tag_76)\n    tag_77:\n      pop\n        /* \"practise3.2/VotingSystem.sol\":2201:2225  return winningProposalId */\n      pop\n        /* \"practise3.2/VotingSystem.sol\":1846:2232  function getWinningProposal() public view returns (uint256 winningProposalId) {... */\n      swap1\n      jump\t// out\n        /* \"practise3.2/VotingSystem.sol\":1444:1836  function getProposalInfo(uint256 proposalId) public view returns (... */\n    tag_37:\n        /* \"practise3.2/VotingSystem.sol\":1519:1544  string memory description */\n      0x60\n        /* \"practise3.2/VotingSystem.sol\":1554:1571  uint256 voteCount */\n      0x00\n        /* \"practise3.2/VotingSystem.sol\":1581:1597  uint256 deadline */\n      dup1\n        /* \"practise3.2/VotingSystem.sol\":1607:1620  bool executed */\n      0x00\n        /* \"practise3.2/VotingSystem.sol\":1658:1671  proposalCount */\n      sload(0x01)\n        /* \"practise3.2/VotingSystem.sol\":1645:1655  proposalId */\n      dup6\n        /* \"practise3.2/VotingSystem.sol\":1645:1671  proposalId < proposalCount */\n      lt\n        /* \"practise3.2/VotingSystem.sol\":1637:1699  require(proposalId < proposalCount, \"Proposal does not exist\") */\n      tag_81\n      jumpi\n      mload(0x40)\n      0x08c379a000000000000000000000000000000000000000000000000000000000\n      dup2\n      mstore\n      0x04\n      add\n      tag_82\n      swap1\n      tag_45\n      jump\t// in\n    tag_82:\n      mload(0x40)\n      dup1\n      swap2\n      sub\n      swap1\n      revert\n    tag_81:\n        /* \"practise3.2/VotingSystem.sol\":1718:1736  Proposal storage p */\n      0x00\n        /* \"practise3.2/VotingSystem.sol\":1739:1748  proposals */\n      dup1\n        /* \"practise3.2/VotingSystem.sol\":1739:1760  proposals[proposalId] */\n      0x00\n        /* \"practise3.2/VotingSystem.sol\":1749:1759  proposalId */\n      dup8\n        /* \"practise3.2/VotingSystem.sol\":1739:1760  proposals[proposalId] */\n      dup2\n      mstore\n      0x20\n      add\n      swap1\n      dup2\n      mstore\n      0x20\n      add\n      0x00\n      keccak256\n        /* \"practise3.2/VotingSystem.sol\":1718:1760  Proposal storage p = proposals[proposalId] */\n      swap1\n      pop\n        /* \"practise3.2/VotingSystem.sol\":1778:1779  p */\n      dup1\n        /* \"practise3.2/VotingSystem.sol\":1778:1791  p.description */\n      0x00\n      add\n        /* \"practise3.2/VotingSystem.sol\":1793:1794  p */\n      dup2\n        /* \"practise3.2/VotingSystem.sol\":1793:1804  p.voteCount */\n      0x01\n      add\n      sload\n        /* \"practise3.2/VotingSystem.sol\":1806:1807  p */\n      dup3\n        /* \"practise3.2/VotingSystem.sol\":1806:1816  p.deadline */\n      0x02\n      add\n      sload\n        /* \"practise3.2/VotingSystem.sol\":1818:1819  p */\n      dup4\n        /* \"practise3.2/VotingSystem.sol\":1818:1828  p.executed */\n      0x03\n      add\n      0x00\n      swap1\n      sload\n      swap1\n      0x0100\n      exp\n      swap1\n      div\n      0xff\n      and\n        /* \"practise3.2/VotingSystem.sol\":1770:1829  return (p.description, p.voteCount, p.deadline, p.executed) */\n      dup4\n      dup1\n      sload\n      tag_83\n      swap1\n      tag_55\n      jump\t// in\n    tag_83:\n      dup1\n      0x1f\n      add\n      0x20\n      dup1\n      swap2\n      div\n      mul\n      0x20\n      add\n      mload(0x40)\n      swap1\n      dup2\n      add\n      0x40\n      mstore\n      dup1\n      swap3\n      swap2\n      swap1\n      dup2\n      dup2\n      mstore\n      0x20\n      add\n      dup3\n      dup1\n      sload\n      tag_84\n      swap1\n      tag_55\n      jump\t// in\n    tag_84:\n      dup1\n      iszero\n      tag_85\n      jumpi\n      dup1\n      0x1f\n      lt\n      tag_86\n      jumpi\n      0x0100\n      dup1\n      dup4\n      sload\n      div\n      mul\n      dup4\n      mstore\n      swap2\n      0x20\n      add\n      swap2\n      jump(tag_85)\n    tag_86:\n      dup3\n      add\n      swap2\n      swap1\n      0x00\n      mstore\n      keccak256(0x00, 0x20)\n      swap1\n    tag_87:\n      dup2\n      sload\n      dup2\n      mstore\n      swap1\n      0x01\n      add\n      swap1\n      0x20\n      add\n      dup1\n      dup4\n      gt\n      tag_87\n      jumpi\n      dup3\n      swap1\n      sub\n      0x1f\n      and\n      dup3\n      add\n      swap2\n    tag_85:\n      pop\n      pop\n      pop\n      pop\n      pop\n      swap4\n      pop\n      swap5\n      pop\n      swap5\n      pop\n      swap5\n      pop\n      swap5\n      pop\n      pop\n        /* \"practise3.2/VotingSystem.sol\":1444:1836  function getProposalInfo(uint256 proposalId) public view returns (... */\n      swap2\n      swap4\n      pop\n      swap2\n      swap4\n      jump\t// out\n        /* \"practise3.2/VotingSystem.sol\":309:337  uint256 public proposalCount */\n    tag_40:\n      sload(0x01)\n      dup2\n      jump\t// out\n        /* \"#utility.yul\":7:82   */\n    tag_88:\n        /* \"#utility.yul\":40:46   */\n      0x00\n        /* \"#utility.yul\":73:75   */\n      0x40\n        /* \"#utility.yul\":67:76   */\n      mload\n        /* \"#utility.yul\":57:76   */\n      swap1\n      pop\n        /* \"#utility.yul\":7:82   */\n      swap1\n      jump\t// out\n        /* \"#utility.yul\":88:205   */\n    tag_89:\n        /* \"#utility.yul\":197:198   */\n      0x00\n        /* \"#utility.yul\":194:195   */\n      dup1\n        /* \"#utility.yul\":187:199   */\n      revert\n        /* \"#utility.yul\":211:328   */\n    tag_90:\n        /* \"#utility.yul\":320:321   */\n      0x00\n        /* \"#utility.yul\":317:318   */\n      dup1\n        /* \"#utility.yul\":310:322   */\n      revert\n        /* \"#utility.yul\":334:411   */\n    tag_91:\n        /* \"#utility.yul\":371:378   */\n      0x00\n        /* \"#utility.yul\":400:405   */\n      dup2\n        /* \"#utility.yul\":389:405   */\n      swap1\n      pop\n        /* \"#utility.yul\":334:411   */\n      swap2\n      swap1\n      pop\n      jump\t// out\n        /* \"#utility.yul\":417:539   */\n    tag_92:\n        /* \"#utility.yul\":490:514   */\n      tag_148\n        /* \"#utility.yul\":508:513   */\n      dup2\n        /* \"#utility.yul\":490:514   */\n      tag_91\n      jump\t// in\n    tag_148:\n        /* \"#utility.yul\":483:488   */\n      dup2\n        /* \"#utility.yul\":480:515   */\n      eq\n        /* \"#utility.yul\":470:533   */\n      tag_149\n      jumpi\n        /* \"#utility.yul\":529:530   */\n      0x00\n        /* \"#utility.yul\":526:527   */\n      dup1\n        /* \"#utility.yul\":519:531   */\n      revert\n        /* \"#utility.yul\":470:533   */\n    tag_149:\n        /* \"#utility.yul\":417:539   */\n      pop\n      jump\t// out\n        /* \"#utility.yul\":545:684   */\n    tag_93:\n        /* \"#utility.yul\":591:596   */\n      0x00\n        /* \"#utility.yul\":629:635   */\n      dup2\n        /* \"#utility.yul\":616:636   */\n      calldataload\n        /* \"#utility.yul\":607:636   */\n      swap1\n      pop\n        /* \"#utility.yul\":645:678   */\n      tag_151\n        /* \"#utility.yul\":672:677   */\n      dup2\n        /* \"#utility.yul\":645:678   */\n      tag_92\n      jump\t// in\n    tag_151:\n        /* \"#utility.yul\":545:684   */\n      swap3\n      swap2\n      pop\n      pop\n      jump\t// out\n        /* \"#utility.yul\":690:1019   */\n    tag_13:\n        /* \"#utility.yul\":749:755   */\n      0x00\n        /* \"#utility.yul\":798:800   */\n      0x20\n        /* \"#utility.yul\":786:795   */\n      dup3\n        /* \"#utility.yul\":777:784   */\n      dup5\n        /* \"#utility.yul\":773:796   */\n      sub\n        /* \"#utility.yul\":769:801   */\n      slt\n        /* \"#utility.yul\":766:885   */\n      iszero\n      tag_153\n      jumpi\n        /* \"#utility.yul\":804:883   */\n      tag_154\n      tag_89\n      jump\t// in\n    tag_154:\n        /* \"#utility.yul\":766:885   */\n    tag_153:\n        /* \"#utility.yul\":924:925   */\n      0x00\n        /* \"#utility.yul\":949:1002   */\n      tag_155\n        /* \"#utility.yul\":994:1001   */\n      dup5\n        /* \"#utility.yul\":985:991   */\n      dup3\n        /* \"#utility.yul\":974:983   */\n      dup6\n        /* \"#utility.yul\":970:992   */\n      add\n        /* \"#utility.yul\":949:1002   */\n      tag_93\n      jump\t// in\n    tag_155:\n        /* \"#utility.yul\":939:1002   */\n      swap2\n      pop\n        /* \"#utility.yul\":895:1012   */\n      pop\n        /* \"#utility.yul\":690:1019   */\n      swap3\n      swap2\n      pop\n      pop\n      jump\t// out\n        /* \"#utility.yul\":1025:1124   */\n    tag_94:\n        /* \"#utility.yul\":1077:1083   */\n      0x00\n        /* \"#utility.yul\":1111:1116   */\n      dup2\n        /* \"#utility.yul\":1105:1117   */\n      mload\n        /* \"#utility.yul\":1095:1117   */\n      swap1\n      pop\n        /* \"#utility.yul\":1025:1124   */\n      swap2\n      swap1\n      pop\n      jump\t// out\n        /* \"#utility.yul\":1130:1299   */\n    tag_95:\n        /* \"#utility.yul\":1214:1225   */\n      0x00\n        /* \"#utility.yul\":1248:1254   */\n      dup3\n        /* \"#utility.yul\":1243:1246   */\n      dup3\n        /* \"#utility.yul\":1236:1255   */\n      mstore\n        /* \"#utility.yul\":1288:1292   */\n      0x20\n        /* \"#utility.yul\":1283:1286   */\n      dup3\n        /* \"#utility.yul\":1279:1293   */\n      add\n        /* \"#utility.yul\":1264:1293   */\n      swap1\n      pop\n        /* \"#utility.yul\":1130:1299   */\n      swap3\n      swap2\n      pop\n      pop\n      jump\t// out\n        /* \"#utility.yul\":1305:1553   */\n    tag_96:\n        /* \"#utility.yul\":1387:1388   */\n      0x00\n        /* \"#utility.yul\":1397:1510   */\n    tag_159:\n        /* \"#utility.yul\":1411:1417   */\n      dup4\n        /* \"#utility.yul\":1408:1409   */\n      dup2\n        /* \"#utility.yul\":1405:1418   */\n      lt\n        /* \"#utility.yul\":1397:1510   */\n      iszero\n      tag_161\n      jumpi\n        /* \"#utility.yul\":1496:1497   */\n      dup1\n        /* \"#utility.yul\":1491:1494   */\n      dup3\n        /* \"#utility.yul\":1487:1498   */\n      add\n        /* \"#utility.yul\":1481:1499   */\n      mload\n        /* \"#utility.yul\":1477:1478   */\n      dup2\n        /* \"#utility.yul\":1472:1475   */\n      dup5\n        /* \"#utility.yul\":1468:1479   */\n      add\n        /* \"#utility.yul\":1461:1500   */\n      mstore\n        /* \"#utility.yul\":1433:1435   */\n      0x20\n        /* \"#utility.yul\":1430:1431   */\n      dup2\n        /* \"#utility.yul\":1426:1436   */\n      add\n        /* \"#utility.yul\":1421:1436   */\n      swap1\n      pop\n        /* \"#utility.yul\":1397:1510   */\n      jump(tag_159)\n    tag_161:\n        /* \"#utility.yul\":1544:1545   */\n      0x00\n        /* \"#utility.yul\":1535:1541   */\n      dup5\n        /* \"#utility.yul\":1530:1533   */\n      dup5\n        /* \"#utility.yul\":1526:1542   */\n      add\n        /* \"#utility.yul\":1519:1546   */\n      mstore\n        /* \"#utility.yul\":1367:1553   */\n      pop\n        /* \"#utility.yul\":1305:1553   */\n      pop\n      pop\n      pop\n      jump\t// out\n        /* \"#utility.yul\":1559:1661   */\n    tag_97:\n        /* \"#utility.yul\":1600:1606   */\n      0x00\n        /* \"#utility.yul\":1651:1653   */\n      0x1f\n        /* \"#utility.yul\":1647:1654   */\n      not\n        /* \"#utility.yul\":1642:1644   */\n      0x1f\n        /* \"#utility.yul\":1635:1640   */\n      dup4\n        /* \"#utility.yul\":1631:1645   */\n      add\n        /* \"#utility.yul\":1627:1655   */\n      and\n        /* \"#utility.yul\":1617:1655   */\n      swap1\n      pop\n        /* \"#utility.yul\":1559:1661   */\n      swap2\n      swap1\n      pop\n      jump\t// out\n        /* \"#utility.yul\":1667:2044   */\n    tag_98:\n        /* \"#utility.yul\":1755:1758   */\n      0x00\n        /* \"#utility.yul\":1783:1822   */\n      tag_164\n        /* \"#utility.yul\":1816:1821   */\n      dup3\n        /* \"#utility.yul\":1783:1822   */\n      tag_94\n      jump\t// in\n    tag_164:\n        /* \"#utility.yul\":1838:1909   */\n      tag_165\n        /* \"#utility.yul\":1902:1908   */\n      dup2\n        /* \"#utility.yul\":1897:1900   */\n      dup6\n        /* \"#utility.yul\":1838:1909   */\n      tag_95\n      jump\t// in\n    tag_165:\n        /* \"#utility.yul\":1831:1909   */\n      swap4\n      pop\n        /* \"#utility.yul\":1918:1983   */\n      tag_166\n        /* \"#utility.yul\":1976:1982   */\n      dup2\n        /* \"#utility.yul\":1971:1974   */\n      dup6\n        /* \"#utility.yul\":1964:1968   */\n      0x20\n        /* \"#utility.yul\":1957:1962   */\n      dup7\n        /* \"#utility.yul\":1953:1969   */\n      add\n        /* \"#utility.yul\":1918:1983   */\n      tag_96\n      jump\t// in\n    tag_166:\n        /* \"#utility.yul\":2008:2037   */\n      tag_167\n        /* \"#utility.yul\":2030:2036   */\n      dup2\n        /* \"#utility.yul\":2008:2037   */\n      tag_97\n      jump\t// in\n    tag_167:\n        /* \"#utility.yul\":2003:2006   */\n      dup5\n        /* \"#utility.yul\":1999:2038   */\n      add\n        /* \"#utility.yul\":1992:2038   */\n      swap2\n      pop\n        /* \"#utility.yul\":1759:2044   */\n      pop\n        /* \"#utility.yul\":1667:2044   */\n      swap3\n      swap2\n      pop\n      pop\n      jump\t// out\n        /* \"#utility.yul\":2050:2168   */\n    tag_99:\n        /* \"#utility.yul\":2137:2161   */\n      tag_169\n        /* \"#utility.yul\":2155:2160   */\n      dup2\n        /* \"#utility.yul\":2137:2161   */\n      tag_91\n      jump\t// in\n    tag_169:\n        /* \"#utility.yul\":2132:2135   */\n      dup3\n        /* \"#utility.yul\":2125:2162   */\n      mstore\n        /* \"#utility.yul\":2050:2168   */\n      pop\n      pop\n      jump\t// out\n        /* \"#utility.yul\":2174:2264   */\n    tag_100:\n        /* \"#utility.yul\":2208:2215   */\n      0x00\n        /* \"#utility.yul\":2251:2256   */\n      dup2\n        /* \"#utility.yul\":2244:2257   */\n      iszero\n        /* \"#utility.yul\":2237:2258   */\n      iszero\n        /* \"#utility.yul\":2226:2258   */\n      swap1\n      pop\n        /* \"#utility.yul\":2174:2264   */\n      swap2\n      swap1\n      pop\n      jump\t// out\n        /* \"#utility.yul\":2270:2379   */\n    tag_101:\n        /* \"#utility.yul\":2351:2372   */\n      tag_172\n        /* \"#utility.yul\":2366:2371   */\n      dup2\n        /* \"#utility.yul\":2351:2372   */\n      tag_100\n      jump\t// in\n    tag_172:\n        /* \"#utility.yul\":2346:2349   */\n      dup3\n        /* \"#utility.yul\":2339:2373   */\n      mstore\n        /* \"#utility.yul\":2270:2379   */\n      pop\n      pop\n      jump\t// out\n        /* \"#utility.yul\":2385:3017   */\n    tag_19:\n        /* \"#utility.yul\":2576:2580   */\n      0x00\n        /* \"#utility.yul\":2614:2617   */\n      0x80\n        /* \"#utility.yul\":2603:2612   */\n      dup3\n        /* \"#utility.yul\":2599:2618   */\n      add\n        /* \"#utility.yul\":2591:2618   */\n      swap1\n      pop\n        /* \"#utility.yul\":2664:2673   */\n      dup2\n        /* \"#utility.yul\":2658:2662   */\n      dup2\n        /* \"#utility.yul\":2654:2674   */\n      sub\n        /* \"#utility.yul\":2650:2651   */\n      0x00\n        /* \"#utility.yul\":2639:2648   */\n      dup4\n        /* \"#utility.yul\":2635:2652   */\n      add\n        /* \"#utility.yul\":2628:2675   */\n      mstore\n        /* \"#utility.yul\":2692:2770   */\n      tag_174\n        /* \"#utility.yul\":2765:2769   */\n      dup2\n        /* \"#utility.yul\":2756:2762   */\n      dup8\n        /* \"#utility.yul\":2692:2770   */\n      tag_98\n      jump\t// in\n    tag_174:\n        /* \"#utility.yul\":2684:2770   */\n      swap1\n      pop\n        /* \"#utility.yul\":2780:2852   */\n      tag_175\n        /* \"#utility.yul\":2848:2850   */\n      0x20\n        /* \"#utility.yul\":2837:2846   */\n      dup4\n        /* \"#utility.yul\":2833:2851   */\n      add\n        /* \"#utility.yul\":2824:2830   */\n      dup7\n        /* \"#utility.yul\":2780:2852   */\n      tag_99\n      jump\t// in\n    tag_175:\n        /* \"#utility.yul\":2862:2934   */\n      tag_176\n        /* \"#utility.yul\":2930:2932   */\n      0x40\n        /* \"#utility.yul\":2919:2928   */\n      dup4\n        /* \"#utility.yul\":2915:2933   */\n      add\n        /* \"#utility.yul\":2906:2912   */\n      dup6\n        /* \"#utility.yul\":2862:2934   */\n      tag_99\n      jump\t// in\n    tag_176:\n        /* \"#utility.yul\":2944:3010   */\n      tag_177\n        /* \"#utility.yul\":3006:3008   */\n      0x60\n        /* \"#utility.yul\":2995:3004   */\n      dup4\n        /* \"#utility.yul\":2991:3009   */\n      add\n        /* \"#utility.yul\":2982:2988   */\n      dup5\n        /* \"#utility.yul\":2944:3010   */\n      tag_101\n      jump\t// in\n    tag_177:\n        /* \"#utility.yul\":2385:3017   */\n      swap6\n      swap5\n      pop\n      pop\n      pop\n      pop\n      pop\n      jump\t// out\n        /* \"#utility.yul\":3023:3140   */\n    tag_102:\n        /* \"#utility.yul\":3132:3133   */\n      0x00\n        /* \"#utility.yul\":3129:3130   */\n      dup1\n        /* \"#utility.yul\":3122:3134   */\n      revert\n        /* \"#utility.yul\":3146:3263   */\n    tag_103:\n        /* \"#utility.yul\":3255:3256   */\n      0x00\n        /* \"#utility.yul\":3252:3253   */\n      dup1\n        /* \"#utility.yul\":3245:3257   */\n      revert\n        /* \"#utility.yul\":3269:3449   */\n    tag_104:\n        /* \"#utility.yul\":3317:3394   */\n      0x4e487b7100000000000000000000000000000000000000000000000000000000\n        /* \"#utility.yul\":3314:3315   */\n      0x00\n        /* \"#utility.yul\":3307:3395   */\n      mstore\n        /* \"#utility.yul\":3414:3418   */\n      0x41\n        /* \"#utility.yul\":3411:3412   */\n      0x04\n        /* \"#utility.yul\":3404:3419   */\n      mstore\n        /* \"#utility.yul\":3438:3442   */\n      0x24\n        /* \"#utility.yul\":3435:3436   */\n      0x00\n        /* \"#utility.yul\":3428:3443   */\n      revert\n        /* \"#utility.yul\":3455:3736   */\n    tag_105:\n        /* \"#utility.yul\":3538:3565   */\n      tag_182\n        /* \"#utility.yul\":3560:3564   */\n      dup3\n        /* \"#utility.yul\":3538:3565   */\n      tag_97\n      jump\t// in\n    tag_182:\n        /* \"#utility.yul\":3530:3536   */\n      dup2\n        /* \"#utility.yul\":3526:3566   */\n      add\n        /* \"#utility.yul\":3668:3674   */\n      dup2\n        /* \"#utility.yul\":3656:3666   */\n      dup2\n        /* \"#utility.yul\":3653:3675   */\n      lt\n        /* \"#utility.yul\":3632:3650   */\n      0xffffffffffffffff\n        /* \"#utility.yul\":3620:3630   */\n      dup3\n        /* \"#utility.yul\":3617:3651   */\n      gt\n        /* \"#utility.yul\":3614:3676   */\n      or\n        /* \"#utility.yul\":3611:3699   */\n      iszero\n      tag_183\n      jumpi\n        /* \"#utility.yul\":3679:3697   */\n      tag_184\n      tag_104\n      jump\t// in\n    tag_184:\n        /* \"#utility.yul\":3611:3699   */\n    tag_183:\n        /* \"#utility.yul\":3719:3729   */\n      dup1\n        /* \"#utility.yul\":3715:3717   */\n      0x40\n        /* \"#utility.yul\":3708:3730   */\n      mstore\n        /* \"#utility.yul\":3498:3736   */\n      pop\n        /* \"#utility.yul\":3455:3736   */\n      pop\n      pop\n      jump\t// out\n        /* \"#utility.yul\":3742:3871   */\n    tag_106:\n        /* \"#utility.yul\":3776:3782   */\n      0x00\n        /* \"#utility.yul\":3803:3823   */\n      tag_186\n      tag_88\n      jump\t// in\n    tag_186:\n        /* \"#utility.yul\":3793:3823   */\n      swap1\n      pop\n        /* \"#utility.yul\":3832:3865   */\n      tag_187\n        /* \"#utility.yul\":3860:3864   */\n      dup3\n        /* \"#utility.yul\":3852:3858   */\n      dup3\n        /* \"#utility.yul\":3832:3865   */\n      tag_105\n      jump\t// in\n    tag_187:\n        /* \"#utility.yul\":3742:3871   */\n      swap2\n      swap1\n      pop\n      jump\t// out\n        /* \"#utility.yul\":3877:4185   */\n    tag_107:\n        /* \"#utility.yul\":3939:3943   */\n      0x00\n        /* \"#utility.yul\":4029:4047   */\n      0xffffffffffffffff\n        /* \"#utility.yul\":4021:4027   */\n      dup3\n        /* \"#utility.yul\":4018:4048   */\n      gt\n        /* \"#utility.yul\":4015:4071   */\n      iszero\n      tag_189\n      jumpi\n        /* \"#utility.yul\":4051:4069   */\n      tag_190\n      tag_104\n      jump\t// in\n    tag_190:\n        /* \"#utility.yul\":4015:4071   */\n    tag_189:\n        /* \"#utility.yul\":4089:4118   */\n      tag_191\n        /* \"#utility.yul\":4111:4117   */\n      dup3\n        /* \"#utility.yul\":4089:4118   */\n      tag_97\n      jump\t// in\n    tag_191:\n        /* \"#utility.yul\":4081:4118   */\n      swap1\n      pop\n        /* \"#utility.yul\":4173:4177   */\n      0x20\n        /* \"#utility.yul\":4167:4171   */\n      dup2\n        /* \"#utility.yul\":4163:4178   */\n      add\n        /* \"#utility.yul\":4155:4178   */\n      swap1\n      pop\n        /* \"#utility.yul\":3877:4185   */\n      swap2\n      swap1\n      pop\n      jump\t// out\n        /* \"#utility.yul\":4191:4339   */\n    tag_108:\n        /* \"#utility.yul\":4289:4295   */\n      dup3\n        /* \"#utility.yul\":4284:4287   */\n      dup2\n        /* \"#utility.yul\":4279:4282   */\n      dup4\n        /* \"#utility.yul\":4266:4296   */\n      calldatacopy\n        /* \"#utility.yul\":4330:4331   */\n      0x00\n        /* \"#utility.yul\":4321:4327   */\n      dup4\n        /* \"#utility.yul\":4316:4319   */\n      dup4\n        /* \"#utility.yul\":4312:4328   */\n      add\n        /* \"#utility.yul\":4305:4332   */\n      mstore\n        /* \"#utility.yul\":4191:4339   */\n      pop\n      pop\n      pop\n      jump\t// out\n        /* \"#utility.yul\":4345:4770   */\n    tag_109:\n        /* \"#utility.yul\":4423:4428   */\n      0x00\n        /* \"#utility.yul\":4448:4514   */\n      tag_194\n        /* \"#utility.yul\":4464:4513   */\n      tag_195\n        /* \"#utility.yul\":4506:4512   */\n      dup5\n        /* \"#utility.yul\":4464:4513   */\n      tag_107\n      jump\t// in\n    tag_195:\n        /* \"#utility.yul\":4448:4514   */\n      tag_106\n      jump\t// in\n    tag_194:\n        /* \"#utility.yul\":4439:4514   */\n      swap1\n      pop\n        /* \"#utility.yul\":4537:4543   */\n      dup3\n        /* \"#utility.yul\":4530:4535   */\n      dup2\n        /* \"#utility.yul\":4523:4544   */\n      mstore\n        /* \"#utility.yul\":4575:4579   */\n      0x20\n        /* \"#utility.yul\":4568:4573   */\n      dup2\n        /* \"#utility.yul\":4564:4580   */\n      add\n        /* \"#utility.yul\":4613:4616   */\n      dup5\n        /* \"#utility.yul\":4604:4610   */\n      dup5\n        /* \"#utility.yul\":4599:4602   */\n      dup5\n        /* \"#utility.yul\":4595:4611   */\n      add\n        /* \"#utility.yul\":4592:4617   */\n      gt\n        /* \"#utility.yul\":4589:4701   */\n      iszero\n      tag_196\n      jumpi\n        /* \"#utility.yul\":4620:4699   */\n      tag_197\n      tag_103\n      jump\t// in\n    tag_197:\n        /* \"#utility.yul\":4589:4701   */\n    tag_196:\n        /* \"#utility.yul\":4710:4764   */\n      tag_198\n        /* \"#utility.yul\":4757:4763   */\n      dup5\n        /* \"#utility.yul\":4752:4755   */\n      dup3\n        /* \"#utility.yul\":4747:4750   */\n      dup6\n        /* \"#utility.yul\":4710:4764   */\n      tag_108\n      jump\t// in\n    tag_198:\n        /* \"#utility.yul\":4429:4770   */\n      pop\n        /* \"#utility.yul\":4345:4770   */\n      swap4\n      swap3\n      pop\n      pop\n      pop\n      jump\t// out\n        /* \"#utility.yul\":4790:5130   */\n    tag_110:\n        /* \"#utility.yul\":4846:4851   */\n      0x00\n        /* \"#utility.yul\":4895:4898   */\n      dup3\n        /* \"#utility.yul\":4888:4892   */\n      0x1f\n        /* \"#utility.yul\":4880:4886   */\n      dup4\n        /* \"#utility.yul\":4876:4893   */\n      add\n        /* \"#utility.yul\":4872:4899   */\n      slt\n        /* \"#utility.yul\":4862:4984   */\n      tag_200\n      jumpi\n        /* \"#utility.yul\":4903:4982   */\n      tag_201\n      tag_102\n      jump\t// in\n    tag_201:\n        /* \"#utility.yul\":4862:4984   */\n    tag_200:\n        /* \"#utility.yul\":5020:5026   */\n      dup2\n        /* \"#utility.yul\":5007:5027   */\n      calldataload\n        /* \"#utility.yul\":5045:5124   */\n      tag_202\n        /* \"#utility.yul\":5120:5123   */\n      dup5\n        /* \"#utility.yul\":5112:5118   */\n      dup3\n        /* \"#utility.yul\":5105:5109   */\n      0x20\n        /* \"#utility.yul\":5097:5103   */\n      dup7\n        /* \"#utility.yul\":5093:5110   */\n      add\n        /* \"#utility.yul\":5045:5124   */\n      tag_109\n      jump\t// in\n    tag_202:\n        /* \"#utility.yul\":5036:5124   */\n      swap2\n      pop\n        /* \"#utility.yul\":4852:5130   */\n      pop\n        /* \"#utility.yul\":4790:5130   */\n      swap3\n      swap2\n      pop\n      pop\n      jump\t// out\n        /* \"#utility.yul\":5136:5790   */\n    tag_22:\n        /* \"#utility.yul\":5214:5220   */\n      0x00\n        /* \"#utility.yul\":5222:5228   */\n      dup1\n        /* \"#utility.yul\":5271:5273   */\n      0x40\n        /* \"#utility.yul\":5259:5268   */\n      dup4\n        /* \"#utility.yul\":5250:5257   */\n      dup6\n        /* \"#utility.yul\":5246:5269   */\n      sub\n        /* \"#utility.yul\":5242:5274   */\n      slt\n        /* \"#utility.yul\":5239:5358   */\n      iszero\n      tag_204\n      jumpi\n        /* \"#utility.yul\":5277:5356   */\n      tag_205\n      tag_89\n      jump\t// in\n    tag_205:\n        /* \"#utility.yul\":5239:5358   */\n    tag_204:\n        /* \"#utility.yul\":5425:5426   */\n      0x00\n        /* \"#utility.yul\":5414:5423   */\n      dup4\n        /* \"#utility.yul\":5410:5427   */\n      add\n        /* \"#utility.yul\":5397:5428   */\n      calldataload\n        /* \"#utility.yul\":5455:5473   */\n      0xffffffffffffffff\n        /* \"#utility.yul\":5447:5453   */\n      dup2\n        /* \"#utility.yul\":5444:5474   */\n      gt\n        /* \"#utility.yul\":5441:5558   */\n      iszero\n      tag_206\n      jumpi\n        /* \"#utility.yul\":5477:5556   */\n      tag_207\n      tag_90\n      jump\t// in\n    tag_207:\n        /* \"#utility.yul\":5441:5558   */\n    tag_206:\n        /* \"#utility.yul\":5582:5645   */\n      tag_208\n        /* \"#utility.yul\":5637:5644   */\n      dup6\n        /* \"#utility.yul\":5628:5634   */\n      dup3\n        /* \"#utility.yul\":5617:5626   */\n      dup7\n        /* \"#utility.yul\":5613:5635   */\n      add\n        /* \"#utility.yul\":5582:5645   */\n      tag_110\n      jump\t// in\n    tag_208:\n        /* \"#utility.yul\":5572:5645   */\n      swap3\n      pop\n        /* \"#utility.yul\":5368:5655   */\n      pop\n        /* \"#utility.yul\":5694:5696   */\n      0x20\n        /* \"#utility.yul\":5720:5773   */\n      tag_209\n        /* \"#utility.yul\":5765:5772   */\n      dup6\n        /* \"#utility.yul\":5756:5762   */\n      dup3\n        /* \"#utility.yul\":5745:5754   */\n      dup7\n        /* \"#utility.yul\":5741:5763   */\n      add\n        /* \"#utility.yul\":5720:5773   */\n      tag_93\n      jump\t// in\n    tag_209:\n        /* \"#utility.yul\":5710:5773   */\n      swap2\n      pop\n        /* \"#utility.yul\":5665:5783   */\n      pop\n        /* \"#utility.yul\":5136:5790   */\n      swap3\n      pop\n      swap3\n      swap1\n      pop\n      jump\t// out\n        /* \"#utility.yul\":5796:6018   */\n    tag_25:\n        /* \"#utility.yul\":5889:5893   */\n      0x00\n        /* \"#utility.yul\":5927:5929   */\n      0x20\n        /* \"#utility.yul\":5916:5925   */\n      dup3\n        /* \"#utility.yul\":5912:5930   */\n      add\n        /* \"#utility.yul\":5904:5930   */\n      swap1\n      pop\n        /* \"#utility.yul\":5940:6011   */\n      tag_211\n        /* \"#utility.yul\":6008:6009   */\n      0x00\n        /* \"#utility.yul\":5997:6006   */\n      dup4\n        /* \"#utility.yul\":5993:6010   */\n      add\n        /* \"#utility.yul\":5984:5990   */\n      dup5\n        /* \"#utility.yul\":5940:6011   */\n      tag_99\n      jump\t// in\n    tag_211:\n        /* \"#utility.yul\":5796:6018   */\n      swap3\n      swap2\n      pop\n      pop\n      jump\t// out\n        /* \"#utility.yul\":6024:6150   */\n    tag_111:\n        /* \"#utility.yul\":6061:6068   */\n      0x00\n        /* \"#utility.yul\":6101:6143   */\n      0xffffffffffffffffffffffffffffffffffffffff\n        /* \"#utility.yul\":6094:6099   */\n      dup3\n        /* \"#utility.yul\":6090:6144   */\n      and\n        /* \"#utility.yul\":6079:6144   */\n      swap1\n      pop\n        /* \"#utility.yul\":6024:6150   */\n      swap2\n      swap1\n      pop\n      jump\t// out\n        /* \"#utility.yul\":6156:6252   */\n    tag_112:\n        /* \"#utility.yul\":6193:6200   */\n      0x00\n        /* \"#utility.yul\":6222:6246   */\n      tag_214\n        /* \"#utility.yul\":6240:6245   */\n      dup3\n        /* \"#utility.yul\":6222:6246   */\n      tag_111\n      jump\t// in\n    tag_214:\n        /* \"#utility.yul\":6211:6246   */\n      swap1\n      pop\n        /* \"#utility.yul\":6156:6252   */\n      swap2\n      swap1\n      pop\n      jump\t// out\n        /* \"#utility.yul\":6258:6380   */\n    tag_113:\n        /* \"#utility.yul\":6331:6355   */\n      tag_216\n        /* \"#utility.yul\":6349:6354   */\n      dup2\n        /* \"#utility.yul\":6331:6355   */\n      tag_112\n      jump\t// in\n    tag_216:\n        /* \"#utility.yul\":6324:6329   */\n      dup2\n        /* \"#utility.yul\":6321:6356   */\n      eq\n        /* \"#utility.yul\":6311:6374   */\n      tag_217\n      jumpi\n        /* \"#utility.yul\":6370:6371   */\n      0x00\n        /* \"#utility.yul\":6367:6368   */\n      dup1\n        /* \"#utility.yul\":6360:6372   */\n      revert\n        /* \"#utility.yul\":6311:6374   */\n    tag_217:\n        /* \"#utility.yul\":6258:6380   */\n      pop\n      jump\t// out\n        /* \"#utility.yul\":6386:6525   */\n    tag_114:\n        /* \"#utility.yul\":6432:6437   */\n      0x00\n        /* \"#utility.yul\":6470:6476   */\n      dup2\n        /* \"#utility.yul\":6457:6477   */\n      calldataload\n        /* \"#utility.yul\":6448:6477   */\n      swap1\n      pop\n        /* \"#utility.yul\":6486:6519   */\n      tag_219\n        /* \"#utility.yul\":6513:6518   */\n      dup2\n        /* \"#utility.yul\":6486:6519   */\n      tag_113\n      jump\t// in\n    tag_219:\n        /* \"#utility.yul\":6386:6525   */\n      swap3\n      swap2\n      pop\n      pop\n      jump\t// out\n        /* \"#utility.yul\":6531:7005   */\n    tag_28:\n        /* \"#utility.yul\":6599:6605   */\n      0x00\n        /* \"#utility.yul\":6607:6613   */\n      dup1\n        /* \"#utility.yul\":6656:6658   */\n      0x40\n        /* \"#utility.yul\":6644:6653   */\n      dup4\n        /* \"#utility.yul\":6635:6642   */\n      dup6\n        /* \"#utility.yul\":6631:6654   */\n      sub\n        /* \"#utility.yul\":6627:6659   */\n      slt\n        /* \"#utility.yul\":6624:6743   */\n      iszero\n      tag_221\n      jumpi\n        /* \"#utility.yul\":6662:6741   */\n      tag_222\n      tag_89\n      jump\t// in\n    tag_222:\n        /* \"#utility.yul\":6624:6743   */\n    tag_221:\n        /* \"#utility.yul\":6782:6783   */\n      0x00\n        /* \"#utility.yul\":6807:6860   */\n      tag_223\n        /* \"#utility.yul\":6852:6859   */\n      dup6\n        /* \"#utility.yul\":6843:6849   */\n      dup3\n        /* \"#utility.yul\":6832:6841   */\n      dup7\n        /* \"#utility.yul\":6828:6850   */\n      add\n        /* \"#utility.yul\":6807:6860   */\n      tag_93\n      jump\t// in\n    tag_223:\n        /* \"#utility.yul\":6797:6860   */\n      swap3\n      pop\n        /* \"#utility.yul\":6753:6870   */\n      pop\n        /* \"#utility.yul\":6909:6911   */\n      0x20\n        /* \"#utility.yul\":6935:6988   */\n      tag_224\n        /* \"#utility.yul\":6980:6987   */\n      dup6\n        /* \"#utility.yul\":6971:6977   */\n      dup3\n        /* \"#utility.yul\":6960:6969   */\n      dup7\n        /* \"#utility.yul\":6956:6978   */\n      add\n        /* \"#utility.yul\":6935:6988   */\n      tag_114\n      jump\t// in\n    tag_224:\n        /* \"#utility.yul\":6925:6988   */\n      swap2\n      pop\n        /* \"#utility.yul\":6880:6998   */\n      pop\n        /* \"#utility.yul\":6531:7005   */\n      swap3\n      pop\n      swap3\n      swap1\n      pop\n      jump\t// out\n        /* \"#utility.yul\":7011:7221   */\n    tag_31:\n        /* \"#utility.yul\":7098:7102   */\n      0x00\n        /* \"#utility.yul\":7136:7138   */\n      0x20\n        /* \"#utility.yul\":7125:7134   */\n      dup3\n        /* \"#utility.yul\":7121:7139   */\n      add\n        /* \"#utility.yul\":7113:7139   */\n      swap1\n      pop\n        /* \"#utility.yul\":7149:7214   */\n      tag_226\n        /* \"#utility.yul\":7211:7212   */\n      0x00\n        /* \"#utility.yul\":7200:7209   */\n      dup4\n        /* \"#utility.yul\":7196:7213   */\n      add\n        /* \"#utility.yul\":7187:7193   */\n      dup5\n        /* \"#utility.yul\":7149:7214   */\n      tag_101\n      jump\t// in\n    tag_226:\n        /* \"#utility.yul\":7011:7221   */\n      swap3\n      swap2\n      pop\n      pop\n      jump\t// out\n        /* \"#utility.yul\":7227:7400   */\n    tag_115:\n        /* \"#utility.yul\":7367:7392   */\n      0x50726f706f73616c20646f6573206e6f74206578697374000000000000000000\n        /* \"#utility.yul\":7363:7364   */\n      0x00\n        /* \"#utility.yul\":7355:7361   */\n      dup3\n        /* \"#utility.yul\":7351:7365   */\n      add\n        /* \"#utility.yul\":7344:7393   */\n      mstore\n        /* \"#utility.yul\":7227:7400   */\n      pop\n      jump\t// out\n        /* \"#utility.yul\":7406:7772   */\n    tag_116:\n        /* \"#utility.yul\":7548:7551   */\n      0x00\n        /* \"#utility.yul\":7569:7636   */\n      tag_229\n        /* \"#utility.yul\":7633:7635   */\n      0x17\n        /* \"#utility.yul\":7628:7631   */\n      dup4\n        /* \"#utility.yul\":7569:7636   */\n      tag_95\n      jump\t// in\n    tag_229:\n        /* \"#utility.yul\":7562:7636   */\n      swap2\n      pop\n        /* \"#utility.yul\":7645:7738   */\n      tag_230\n        /* \"#utility.yul\":7734:7737   */\n      dup3\n        /* \"#utility.yul\":7645:7738   */\n      tag_115\n      jump\t// in\n    tag_230:\n        /* \"#utility.yul\":7763:7765   */\n      0x20\n        /* \"#utility.yul\":7758:7761   */\n      dup3\n        /* \"#utility.yul\":7754:7766   */\n      add\n        /* \"#utility.yul\":7747:7766   */\n      swap1\n      pop\n        /* \"#utility.yul\":7406:7772   */\n      swap2\n      swap1\n      pop\n      jump\t// out\n        /* \"#utility.yul\":7778:8197   */\n    tag_45:\n        /* \"#utility.yul\":7944:7948   */\n      0x00\n        /* \"#utility.yul\":7982:7984   */\n      0x20\n        /* \"#utility.yul\":7971:7980   */\n      dup3\n        /* \"#utility.yul\":7967:7985   */\n      add\n        /* \"#utility.yul\":7959:7985   */\n      swap1\n      pop\n        /* \"#utility.yul\":8031:8040   */\n      dup2\n        /* \"#utility.yul\":8025:8029   */\n      dup2\n        /* \"#utility.yul\":8021:8041   */\n      sub\n        /* \"#utility.yul\":8017:8018   */\n      0x00\n        /* \"#utility.yul\":8006:8015   */\n      dup4\n        /* \"#utility.yul\":8002:8019   */\n      add\n        /* \"#utility.yul\":7995:8042   */\n      mstore\n        /* \"#utility.yul\":8059:8190   */\n      tag_232\n        /* \"#utility.yul\":8185:8189   */\n      dup2\n        /* \"#utility.yul\":8059:8190   */\n      tag_116\n      jump\t// in\n    tag_232:\n        /* \"#utility.yul\":8051:8190   */\n      swap1\n      pop\n        /* \"#utility.yul\":7778:8197   */\n      swap2\n      swap1\n      pop\n      jump\t// out\n        /* \"#utility.yul\":8203:8369   */\n    tag_117:\n        /* \"#utility.yul\":8343:8361   */\n      0x566f74696e672068617320656e64656400000000000000000000000000000000\n        /* \"#utility.yul\":8339:8340   */\n      0x00\n        /* \"#utility.yul\":8331:8337   */\n      dup3\n        /* \"#utility.yul\":8327:8341   */\n      add\n        /* \"#utility.yul\":8320:8362   */\n      mstore\n        /* \"#utility.yul\":8203:8369   */\n      pop\n      jump\t// out\n        /* \"#utility.yul\":8375:8741   */\n    tag_118:\n        /* \"#utility.yul\":8517:8520   */\n      0x00\n        /* \"#utility.yul\":8538:8605   */\n      tag_235\n        /* \"#utility.yul\":8602:8604   */\n      0x10\n        /* \"#utility.yul\":8597:8600   */\n      dup4\n        /* \"#utility.yul\":8538:8605   */\n      tag_95\n      jump\t// in\n    tag_235:\n        /* \"#utility.yul\":8531:8605   */\n      swap2\n      pop\n        /* \"#utility.yul\":8614:8707   */\n      tag_236\n        /* \"#utility.yul\":8703:8706   */\n      dup3\n        /* \"#utility.yul\":8614:8707   */\n      tag_117\n      jump\t// in\n    tag_236:\n        /* \"#utility.yul\":8732:8734   */\n      0x20\n        /* \"#utility.yul\":8727:8730   */\n      dup3\n        /* \"#utility.yul\":8723:8735   */\n      add\n        /* \"#utility.yul\":8716:8735   */\n      swap1\n      pop\n        /* \"#utility.yul\":8375:8741   */\n      swap2\n      swap1\n      pop\n      jump\t// out\n        /* \"#utility.yul\":8747:9166   */\n    tag_48:\n        /* \"#utility.yul\":8913:8917   */\n      0x00\n        /* \"#utility.yul\":8951:8953   */\n      0x20\n        /* \"#utility.yul\":8940:8949   */\n      dup3\n        /* \"#utility.yul\":8936:8954   */\n      add\n        /* \"#utility.yul\":8928:8954   */\n      swap1\n      pop\n        /* \"#utility.yul\":9000:9009   */\n      dup2\n        /* \"#utility.yul\":8994:8998   */\n      dup2\n        /* \"#utility.yul\":8990:9010   */\n      sub\n        /* \"#utility.yul\":8986:8987   */\n      0x00\n        /* \"#utility.yul\":8975:8984   */\n      dup4\n        /* \"#utility.yul\":8971:8988   */\n      add\n        /* \"#utility.yul\":8964:9011   */\n      mstore\n        /* \"#utility.yul\":9028:9159   */\n      tag_238\n        /* \"#utility.yul\":9154:9158   */\n      dup2\n        /* \"#utility.yul\":9028:9159   */\n      tag_118\n      jump\t// in\n    tag_238:\n        /* \"#utility.yul\":9020:9159   */\n      swap1\n      pop\n        /* \"#utility.yul\":8747:9166   */\n      swap2\n      swap1\n      pop\n      jump\t// out\n        /* \"#utility.yul\":9172:9335   */\n    tag_119:\n        /* \"#utility.yul\":9312:9327   */\n      0x416c726561647920766f74656400000000000000000000000000000000000000\n        /* \"#utility.yul\":9308:9309   */\n      0x00\n        /* \"#utility.yul\":9300:9306   */\n      dup3\n        /* \"#utility.yul\":9296:9310   */\n      add\n        /* \"#utility.yul\":9289:9328   */\n      mstore\n        /* \"#utility.yul\":9172:9335   */\n      pop\n      jump\t// out\n        /* \"#utility.yul\":9341:9707   */\n    tag_120:\n        /* \"#utility.yul\":9483:9486   */\n      0x00\n        /* \"#utility.yul\":9504:9571   */\n      tag_241\n        /* \"#utility.yul\":9568:9570   */\n      0x0d\n        /* \"#utility.yul\":9563:9566   */\n      dup4\n        /* \"#utility.yul\":9504:9571   */\n      tag_95\n      jump\t// in\n    tag_241:\n        /* \"#utility.yul\":9497:9571   */\n      swap2\n      pop\n        /* \"#utility.yul\":9580:9673   */\n      tag_242\n        /* \"#utility.yul\":9669:9672   */\n      dup3\n        /* \"#utility.yul\":9580:9673   */\n      tag_119\n      jump\t// in\n    tag_242:\n        /* \"#utility.yul\":9698:9700   */\n      0x20\n        /* \"#utility.yul\":9693:9696   */\n      dup3\n        /* \"#utility.yul\":9689:9701   */\n      add\n        /* \"#utility.yul\":9682:9701   */\n      swap1\n      pop\n        /* \"#utility.yul\":9341:9707   */\n      swap2\n      swap1\n      pop\n      jump\t// out\n        /* \"#utility.yul\":9713:10132   */\n    tag_51:\n        /* \"#utility.yul\":9879:9883   */\n      0x00\n        /* \"#utility.yul\":9917:9919   */\n      0x20\n        /* \"#utility.yul\":9906:9915   */\n      dup3\n        /* \"#utility.yul\":9902:9920   */\n      add\n        /* \"#utility.yul\":9894:9920   */\n      swap1\n      pop\n        /* \"#utility.yul\":9966:9975   */\n      dup2\n        /* \"#utility.yul\":9960:9964   */\n      dup2\n        /* \"#utility.yul\":9956:9976   */\n      sub\n        /* \"#utility.yul\":9952:9953   */\n      0x00\n        /* \"#utility.yul\":9941:9950   */\n      dup4\n        /* \"#utility.yul\":9937:9954   */\n      add\n        /* \"#utility.yul\":9930:9977   */\n      mstore\n        /* \"#utility.yul\":9994:10125   */\n      tag_244\n        /* \"#utility.yul\":10120:10124   */\n      dup2\n        /* \"#utility.yul\":9994:10125   */\n      tag_120\n      jump\t// in\n    tag_244:\n        /* \"#utility.yul\":9986:10125   */\n      swap1\n      pop\n        /* \"#utility.yul\":9713:10132   */\n      swap2\n      swap1\n      pop\n      jump\t// out\n        /* \"#utility.yul\":10138:10318   */\n    tag_121:\n        /* \"#utility.yul\":10186:10263   */\n      0x4e487b7100000000000000000000000000000000000000000000000000000000\n        /* \"#utility.yul\":10183:10184   */\n      0x00\n        /* \"#utility.yul\":10176:10264   */\n      mstore\n        /* \"#utility.yul\":10283:10287   */\n      0x11\n        /* \"#utility.yul\":10280:10281   */\n      0x04\n        /* \"#utility.yul\":10273:10288   */\n      mstore\n        /* \"#utility.yul\":10307:10311   */\n      0x24\n        /* \"#utility.yul\":10304:10305   */\n      0x00\n        /* \"#utility.yul\":10297:10312   */\n      revert\n        /* \"#utility.yul\":10324:10557   */\n    tag_53:\n        /* \"#utility.yul\":10363:10366   */\n      0x00\n        /* \"#utility.yul\":10386:10410   */\n      tag_247\n        /* \"#utility.yul\":10404:10409   */\n      dup3\n        /* \"#utility.yul\":10386:10410   */\n      tag_91\n      jump\t// in\n    tag_247:\n        /* \"#utility.yul\":10377:10410   */\n      swap2\n      pop\n        /* \"#utility.yul\":10432:10498   */\n      0xffffffffffffffffffffffffffffffffffffffffffffffffffffffffffffffff\n        /* \"#utility.yul\":10425:10430   */\n      dup3\n        /* \"#utility.yul\":10422:10499   */\n      sub\n        /* \"#utility.yul\":10419:10522   */\n      tag_248\n      jumpi\n        /* \"#utility.yul\":10502:10520   */\n      tag_249\n      tag_121\n      jump\t// in\n    tag_249:\n        /* \"#utility.yul\":10419:10522   */\n    tag_248:\n        /* \"#utility.yul\":10549:10550   */\n      0x01\n        /* \"#utility.yul\":10542:10547   */\n      dup3\n        /* \"#utility.yul\":10538:10551   */\n      add\n        /* \"#utility.yul\":10531:10551   */\n      swap1\n      pop\n        /* \"#utility.yul\":10324:10557   */\n      swap2\n      swap1\n      pop\n      jump\t// out\n        /* \"#utility.yul\":10563:10743   */\n    tag_122:\n        /* \"#utility.yul\":10611:10688   */\n      0x4e487b7100000000000000000000000000000000000000000000000000000000\n        /* \"#utility.yul\":10608:10609   */\n      0x00\n        /* \"#utility.yul\":10601:10689   */\n      mstore\n        /* \"#utility.yul\":10708:10712   */\n      0x22\n        /* \"#utility.yul\":10705:10706   */\n      0x04\n        /* \"#utility.yul\":10698:10713   */\n      mstore\n        /* \"#utility.yul\":10732:10736   */\n      0x24\n        /* \"#utility.yul\":10729:10730   */\n      0x00\n        /* \"#utility.yul\":10722:10737   */\n      revert\n        /* \"#utility.yul\":10749:11069   */\n    tag_55:\n        /* \"#utility.yul\":10793:10799   */\n      0x00\n        /* \"#utility.yul\":10830:10831   */\n      0x02\n        /* \"#utility.yul\":10824:10828   */\n      dup3\n        /* \"#utility.yul\":10820:10832   */\n      div\n        /* \"#utility.yul\":10810:10832   */\n      swap1\n      pop\n        /* \"#utility.yul\":10877:10878   */\n      0x01\n        /* \"#utility.yul\":10871:10875   */\n      dup3\n        /* \"#utility.yul\":10867:10879   */\n      and\n        /* \"#utility.yul\":10898:10916   */\n      dup1\n        /* \"#utility.yul\":10888:10969   */\n      tag_252\n      jumpi\n        /* \"#utility.yul\":10954:10958   */\n      0x7f\n        /* \"#utility.yul\":10946:10952   */\n      dup3\n        /* \"#utility.yul\":10942:10959   */\n      and\n        /* \"#utility.yul\":10932:10959   */\n      swap2\n      pop\n        /* \"#utility.yul\":10888:10969   */\n    tag_252:\n        /* \"#utility.yul\":11016:11018   */\n      0x20\n        /* \"#utility.yul\":11008:11014   */\n      dup3\n        /* \"#utility.yul\":11005:11019   */\n      lt\n        /* \"#utility.yul\":10985:11003   */\n      dup2\n        /* \"#utility.yul\":10982:11020   */\n      sub\n        /* \"#utility.yul\":10979:11063   */\n      tag_253\n      jumpi\n        /* \"#utility.yul\":11035:11053   */\n      tag_254\n      tag_122\n      jump\t// in\n    tag_254:\n        /* \"#utility.yul\":10979:11063   */\n    tag_253:\n        /* \"#utility.yul\":10800:11069   */\n      pop\n        /* \"#utility.yul\":10749:11069   */\n      swap2\n      swap1\n      pop\n      jump\t// out\n        /* \"#utility.yul\":11075:11245   */\n    tag_123:\n        /* \"#utility.yul\":11215:11237   */\n      0x4465736372697074696f6e207265717569726564000000000000000000000000\n        /* \"#utility.yul\":11211:11212   */\n      0x00\n        /* \"#utility.yul\":11203:11209   */\n      dup3\n        /* \"#utility.yul\":11199:11213   */\n      add\n        /* \"#utility.yul\":11192:11238   */\n      mstore\n        /* \"#utility.yul\":11075:11245   */\n      pop\n      jump\t// out\n        /* \"#utility.yul\":11251:11617   */\n    tag_124:\n        /* \"#utility.yul\":11393:11396   */\n      0x00\n        /* \"#utility.yul\":11414:11481   */\n      tag_257\n        /* \"#utility.yul\":11478:11480   */\n      0x14\n        /* \"#utility.yul\":11473:11476   */\n      dup4\n        /* \"#utility.yul\":11414:11481   */\n      tag_95\n      jump\t// in\n    tag_257:\n        /* \"#utility.yul\":11407:11481   */\n      swap2\n      pop\n        /* \"#utility.yul\":11490:11583   */\n      tag_258\n        /* \"#utility.yul\":11579:11582   */\n      dup3\n        /* \"#utility.yul\":11490:11583   */\n      tag_123\n      jump\t// in\n    tag_258:\n        /* \"#utility.yul\":11608:11610   */\n      0x20\n        /* \"#utility.yul\":11603:11606   */\n      dup3\n        /* \"#utility.yul\":11599:11611   */\n      add\n        /* \"#utility.yul\":11592:11611   */\n      swap1\n      pop\n        /* \"#utility.yul\":11251:11617   */\n      swap2\n      swap1\n      pop\n      jump\t// out\n        /* \"#utility.yul\":11623:12042   */\n    tag_63:\n        /* \"#utility.yul\":11789:11793   */\n      0x00\n        /* \"#utility.yul\":11827:11829   */\n      0x20\n        /* \"#utility.yul\":11816:11825   */\n      dup3\n        /* \"#utility.yul\":11812:11830   */\n      add\n        /* \"#utility.yul\":11804:11830   */\n      swap1\n      pop\n        /* \"#utility.yul\":11876:11885   */\n      dup2\n        /* \"#utility.yul\":11870:11874   */\n      dup2\n        /* \"#utility.yul\":11866:11886   */\n      sub\n        /* \"#utility.yul\":11862:11863   */\n      0x00\n        /* \"#utility.yul\":11851:11860   */\n      dup4\n        /* \"#utility.yul\":11847:11864   */\n      add\n        /* \"#utility.yul\":11840:11887   */\n      mstore\n        /* \"#utility.yul\":11904:12035   */\n      tag_260\n        /* \"#utility.yul\":12030:12034   */\n      dup2\n        /* \"#utility.yul\":11904:12035   */\n      tag_124\n      jump\t// in\n    tag_260:\n        /* \"#utility.yul\":11896:12035   */\n      swap1\n      pop\n        /* \"#utility.yul\":11623:12042   */\n      swap2\n      swap1\n      pop\n      jump\t// out\n        /* \"#utility.yul\":12048:12223   */\n    tag_125:\n        /* \"#utility.yul\":12188:12215   */\n      0x4475726174696f6e206d75737420626520706f73697469766500000000000000\n        /* \"#utility.yul\":12184:12185   */\n      0x00\n        /* \"#utility.yul\":12176:12182   */\n      dup3\n        /* \"#utility.yul\":12172:12186   */\n      add\n        /* \"#utility.yul\":12165:12216   */\n      mstore\n        /* \"#utility.yul\":12048:12223   */\n      pop\n      jump\t// out\n        /* \"#utility.yul\":12229:12595   */\n    tag_126:\n        /* \"#utility.yul\":12371:12374   */\n      0x00\n        /* \"#utility.yul\":12392:12459   */\n      tag_263\n        /* \"#utility.yul\":12456:12458   */\n      0x19\n        /* \"#utility.yul\":12451:12454   */\n      dup4\n        /* \"#utility.yul\":12392:12459   */\n      tag_95\n      jump\t// in\n    tag_263:\n        /* \"#utility.yul\":12385:12459   */\n      swap2\n      pop\n        /* \"#utility.yul\":12468:12561   */\n      tag_264\n        /* \"#utility.yul\":12557:12560   */\n      dup3\n        /* \"#utility.yul\":12468:12561   */\n      tag_125\n      jump\t// in\n    tag_264:\n        /* \"#utility.yul\":12586:12588   */\n      0x20\n        /* \"#utility.yul\":12581:12584   */\n      dup3\n        /* \"#utility.yul\":12577:12589   */\n      add\n        /* \"#utility.yul\":12570:12589   */\n      swap1\n      pop\n        /* \"#utility.yul\":12229:12595   */\n      swap2\n      swap1\n      pop\n      jump\t// out\n        /* \"#utility.yul\":12601:13020   */\n    tag_66:\n        /* \"#utility.yul\":12767:12771   */\n      0x00\n        /* \"#utility.yul\":12805:12807   */\n      0x20\n        /* \"#utility.yul\":12794:12803   */\n      dup3\n        /* \"#utility.yul\":12790:12808   */\n      add\n        /* \"#utility.yul\":12782:12808   */\n      swap1\n      pop\n        /* \"#utility.yul\":12854:12863   */\n      dup2\n        /* \"#utility.yul\":12848:12852   */\n      dup2\n        /* \"#utility.yul\":12844:12864   */\n      sub\n        /* \"#utility.yul\":12840:12841   */\n      0x00\n        /* \"#utility.yul\":12829:12838   */\n      dup4\n        /* \"#utility.yul\":12825:12842   */\n      add\n        /* \"#utility.yul\":12818:12865   */\n      mstore\n        /* \"#utility.yul\":12882:13013   */\n      tag_266\n        /* \"#utility.yul\":13008:13012   */\n      dup2\n        /* \"#utility.yul\":12882:13013   */\n      tag_126\n      jump\t// in\n    tag_266:\n        /* \"#utility.yul\":12874:13013   */\n      swap1\n      pop\n        /* \"#utility.yul\":12601:13020   */\n      swap2\n      swap1\n      pop\n      jump\t// out\n        /* \"#utility.yul\":13026:13167   */\n    tag_127:\n        /* \"#utility.yul\":13075:13079   */\n      0x00\n        /* \"#utility.yul\":13098:13101   */\n      dup2\n        /* \"#utility.yul\":13090:13101   */\n      swap1\n      pop\n        /* \"#utility.yul\":13121:13124   */\n      dup2\n        /* \"#utility.yul\":13118:13119   */\n      0x00\n        /* \"#utility.yul\":13111:13125   */\n      mstore\n        /* \"#utility.yul\":13155:13159   */\n      0x20\n        /* \"#utility.yul\":13152:13153   */\n      0x00\n        /* \"#utility.yul\":13142:13160   */\n      keccak256\n        /* \"#utility.yul\":13134:13160   */\n      swap1\n      pop\n        /* \"#utility.yul\":13026:13167   */\n      swap2\n      swap1\n      pop\n      jump\t// out\n        /* \"#utility.yul\":13173:13266   */\n    tag_128:\n        /* \"#utility.yul\":13210:13216   */\n      0x00\n        /* \"#utility.yul\":13257:13259   */\n      0x20\n        /* \"#utility.yul\":13252:13254   */\n      0x1f\n        /* \"#utility.yul\":13245:13250   */\n      dup4\n        /* \"#utility.yul\":13241:13255   */\n      add\n        /* \"#utility.yul\":13237:13260   */\n      div\n        /* \"#utility.yul\":13227:13260   */\n      swap1\n      pop\n        /* \"#utility.yul\":13173:13266   */\n      swap2\n      swap1\n      pop\n      jump\t// out\n        /* \"#utility.yul\":13272:13379   */\n    tag_129:\n        /* \"#utility.yul\":13316:13324   */\n      0x00\n        /* \"#utility.yul\":13366:13371   */\n      dup3\n        /* \"#utility.yul\":13360:13364   */\n      dup3\n        /* \"#utility.yul\":13356:13372   */\n      shl\n        /* \"#utility.yul\":13335:13372   */\n      swap1\n      pop\n        /* \"#utility.yul\":13272:13379   */\n      swap3\n      swap2\n      pop\n      pop\n      jump\t// out\n        /* \"#utility.yul\":13385:13778   */\n    tag_130:\n        /* \"#utility.yul\":13454:13460   */\n      0x00\n        /* \"#utility.yul\":13504:13505   */\n      0x08\n        /* \"#utility.yul\":13492:13502   */\n      dup4\n        /* \"#utility.yul\":13488:13506   */\n      mul\n        /* \"#utility.yul\":13527:13624   */\n      tag_271\n        /* \"#utility.yul\":13557:13623   */\n      0xffffffffffffffffffffffffffffffffffffffffffffffffffffffffffffffff\n        /* \"#utility.yul\":13546:13555   */\n      dup3\n        /* \"#utility.yul\":13527:13624   */\n      tag_129\n      jump\t// in\n    tag_271:\n        /* \"#utility.yul\":13645:13684   */\n      tag_272\n        /* \"#utility.yul\":13675:13683   */\n      dup7\n        /* \"#utility.yul\":13664:13673   */\n      dup4\n        /* \"#utility.yul\":13645:13684   */\n      tag_129\n      jump\t// in\n    tag_272:\n        /* \"#utility.yul\":13633:13684   */\n      swap6\n      pop\n        /* \"#utility.yul\":13717:13721   */\n      dup1\n        /* \"#utility.yul\":13713:13722   */\n      not\n        /* \"#utility.yul\":13706:13711   */\n      dup5\n        /* \"#utility.yul\":13702:13723   */\n      and\n        /* \"#utility.yul\":13693:13723   */\n      swap4\n      pop\n        /* \"#utility.yul\":13766:13770   */\n      dup1\n        /* \"#utility.yul\":13756:13764   */\n      dup7\n        /* \"#utility.yul\":13752:13771   */\n      and\n        /* \"#utility.yul\":13745:13750   */\n      dup5\n        /* \"#utility.yul\":13742:13772   */\n      or\n        /* \"#utility.yul\":13732:13772   */\n      swap3\n      pop\n        /* \"#utility.yul\":13461:13778   */\n      pop\n      pop\n        /* \"#utility.yul\":13385:13778   */\n      swap4\n      swap3\n      pop\n      pop\n      pop\n      jump\t// out\n        /* \"#utility.yul\":13784:13844   */\n    tag_131:\n        /* \"#utility.yul\":13812:13815   */\n      0x00\n        /* \"#utility.yul\":13833:13838   */\n      dup2\n        /* \"#utility.yul\":13826:13838   */\n      swap1\n      pop\n        /* \"#utility.yul\":13784:13844   */\n      swap2\n      swap1\n      pop\n      jump\t// out\n        /* \"#utility.yul\":13850:13992   */\n    tag_132:\n        /* \"#utility.yul\":13900:13909   */\n      0x00\n        /* \"#utility.yul\":13933:13986   */\n      tag_275\n        /* \"#utility.yul\":13951:13985   */\n      tag_276\n        /* \"#utility.yul\":13960:13984   */\n      tag_277\n        /* \"#utility.yul\":13978:13983   */\n      dup5\n        /* \"#utility.yul\":13960:13984   */\n      tag_91\n      jump\t// in\n    tag_277:\n        /* \"#utility.yul\":13951:13985   */\n      tag_131\n      jump\t// in\n    tag_276:\n        /* \"#utility.yul\":13933:13986   */\n      tag_91\n      jump\t// in\n    tag_275:\n        /* \"#utility.yul\":13920:13986   */\n      swap1\n      pop\n        /* \"#utility.yul\":13850:13992   */\n      swap2\n      swap1\n      pop\n      jump\t// out\n        /* \"#utility.yul\":13998:14073   */\n    tag_133:\n        /* \"#utility.yul\":14041:14044   */\n      0x00\n        /* \"#utility.yul\":14062:14067   */\n      dup2\n        /* \"#utility.yul\":14055:14067   */\n      swap1\n      pop\n        /* \"#utility.yul\":13998:14073   */\n      swap2\n      swap1\n      pop\n      jump\t// out\n        /* \"#utility.yul\":14079:14348   */\n    tag_134:\n        /* \"#utility.yul\":14189:14228   */\n      tag_280\n        /* \"#utility.yul\":14220:14227   */\n      dup4\n        /* \"#utility.yul\":14189:14228   */\n      tag_132\n      jump\t// in\n    tag_280:\n        /* \"#utility.yul\":14250:14341   */\n      tag_281\n        /* \"#utility.yul\":14299:14340   */\n      tag_282\n        /* \"#utility.yul\":14323:14339   */\n      dup3\n        /* \"#utility.yul\":14299:14340   */\n      tag_133\n      jump\t// in\n    tag_282:\n        /* \"#utility.yul\":14291:14297   */\n      dup5\n        /* \"#utility.yul\":14284:14288   */\n      dup5\n        /* \"#utility.yul\":14278:14289   */\n      sload\n        /* \"#utility.yul\":14250:14341   */\n      tag_130\n      jump\t// in\n    tag_281:\n        /* \"#utility.yul\":14244:14248   */\n      dup3\n        /* \"#utility.yul\":14237:14342   */\n      sstore\n        /* \"#utility.yul\":14155:14348   */\n      pop\n        /* \"#utility.yul\":14079:14348   */\n      pop\n      pop\n      pop\n      jump\t// out\n        /* \"#utility.yul\":14354:14427   */\n    tag_135:\n        /* \"#utility.yul\":14399:14402   */\n      0x00\n        /* \"#utility.yul\":14354:14427   */\n      swap1\n      jump\t// out\n        /* \"#utility.yul\":14433:14622   */\n    tag_136:\n        /* \"#utility.yul\":14510:14542   */\n      tag_285\n      tag_135\n      jump\t// in\n    tag_285:\n        /* \"#utility.yul\":14551:14616   */\n      tag_286\n        /* \"#utility.yul\":14609:14615   */\n      dup2\n        /* \"#utility.yul\":14601:14607   */\n      dup5\n        /* \"#utility.yul\":14595:14599   */\n      dup5\n        /* \"#utility.yul\":14551:14616   */\n      tag_134\n      jump\t// in\n    tag_286:\n        /* \"#utility.yul\":14486:14622   */\n      pop\n        /* \"#utility.yul\":14433:14622   */\n      pop\n      pop\n      jump\t// out\n        /* \"#utility.yul\":14628:14814   */\n    tag_137:\n        /* \"#utility.yul\":14688:14808   */\n    tag_288:\n        /* \"#utility.yul\":14705:14708   */\n      dup2\n        /* \"#utility.yul\":14698:14703   */\n      dup2\n        /* \"#utility.yul\":14695:14709   */\n      lt\n        /* \"#utility.yul\":14688:14808   */\n      iszero\n      tag_290\n      jumpi\n        /* \"#utility.yul\":14759:14798   */\n      tag_291\n        /* \"#utility.yul\":14796:14797   */\n      0x00\n        /* \"#utility.yul\":14789:14794   */\n      dup3\n        /* \"#utility.yul\":14759:14798   */\n      tag_136\n      jump\t// in\n    tag_291:\n        /* \"#utility.yul\":14732:14733   */\n      0x01\n        /* \"#utility.yul\":14725:14730   */\n      dup2\n        /* \"#utility.yul\":14721:14734   */\n      add\n        /* \"#utility.yul\":14712:14734   */\n      swap1\n      pop\n        /* \"#utility.yul\":14688:14808   */\n      jump(tag_288)\n    tag_290:\n        /* \"#utility.yul\":14628:14814   */\n      pop\n      pop\n      jump\t// out\n        /* \"#utility.yul\":14820:15363   */\n    tag_138:\n        /* \"#utility.yul\":14921:14923   */\n      0x1f\n        /* \"#utility.yul\":14916:14919   */\n      dup3\n        /* \"#utility.yul\":14913:14924   */\n      gt\n        /* \"#utility.yul\":14910:15356   */\n      iszero\n      tag_293\n      jumpi\n        /* \"#utility.yul\":14955:14993   */\n      tag_294\n        /* \"#utility.yul\":14987:14992   */\n      dup2\n        /* \"#utility.yul\":14955:14993   */\n      tag_127\n      jump\t// in\n    tag_294:\n        /* \"#utility.yul\":15039:15068   */\n      tag_295\n        /* \"#utility.yul\":15057:15067   */\n      dup5\n        /* \"#utility.yul\":15039:15068   */\n      tag_128\n      jump\t// in\n    tag_295:\n        /* \"#utility.yul\":15029:15037   */\n      dup2\n        /* \"#utility.yul\":15025:15069   */\n      add\n        /* \"#utility.yul\":15222:15224   */\n      0x20\n        /* \"#utility.yul\":15210:15220   */\n      dup6\n        /* \"#utility.yul\":15207:15225   */\n      lt\n        /* \"#utility.yul\":15204:15253   */\n      iszero\n      tag_296\n      jumpi\n        /* \"#utility.yul\":15243:15251   */\n      dup2\n        /* \"#utility.yul\":15228:15251   */\n      swap1\n      pop\n        /* \"#utility.yul\":15204:15253   */\n    tag_296:\n        /* \"#utility.yul\":15266:15346   */\n      tag_297\n        /* \"#utility.yul\":15322:15344   */\n      tag_298\n        /* \"#utility.yul\":15340:15343   */\n      dup6\n        /* \"#utility.yul\":15322:15344   */\n      tag_128\n      jump\t// in\n    tag_298:\n        /* \"#utility.yul\":15312:15320   */\n      dup4\n        /* \"#utility.yul\":15308:15345   */\n      add\n        /* \"#utility.yul\":15295:15306   */\n      dup3\n        /* \"#utility.yul\":15266:15346   */\n      tag_137\n      jump\t// in\n    tag_297:\n        /* \"#utility.yul\":14925:15356   */\n      pop\n      pop\n        /* \"#utility.yul\":14910:15356   */\n    tag_293:\n        /* \"#utility.yul\":14820:15363   */\n      pop\n      pop\n      pop\n      jump\t// out\n        /* \"#utility.yul\":15369:15486   */\n    tag_139:\n        /* \"#utility.yul\":15423:15431   */\n      0x00\n        /* \"#utility.yul\":15473:15478   */\n      dup3\n        /* \"#utility.yul\":15467:15471   */\n      dup3\n        /* \"#utility.yul\":15463:15479   */\n      shr\n        /* \"#utility.yul\":15442:15479   */\n      swap1\n      pop\n        /* \"#utility.yul\":15369:15486   */\n      swap3\n      swap2\n      pop\n      pop\n      jump\t// out\n        /* \"#utility.yul\":15492:15661   */\n    tag_140:\n        /* \"#utility.yul\":15536:15542   */\n      0x00\n        /* \"#utility.yul\":15569:15620   */\n      tag_301\n        /* \"#utility.yul\":15617:15618   */\n      0x00\n        /* \"#utility.yul\":15613:15619   */\n      not\n        /* \"#utility.yul\":15605:15610   */\n      dup5\n        /* \"#utility.yul\":15602:15603   */\n      0x08\n        /* \"#utility.yul\":15598:15611   */\n      mul\n        /* \"#utility.yul\":15569:15620   */\n      tag_139\n      jump\t// in\n    tag_301:\n        /* \"#utility.yul\":15565:15621   */\n      not\n        /* \"#utility.yul\":15650:15654   */\n      dup1\n        /* \"#utility.yul\":15644:15648   */\n      dup4\n        /* \"#utility.yul\":15640:15655   */\n      and\n        /* \"#utility.yul\":15630:15655   */\n      swap2\n      pop\n        /* \"#utility.yul\":15543:15661   */\n      pop\n        /* \"#utility.yul\":15492:15661   */\n      swap3\n      swap2\n      pop\n      pop\n      jump\t// out\n        /* \"#utility.yul\":15666:15961   */\n    tag_141:\n        /* \"#utility.yul\":15742:15746   */\n      0x00\n        /* \"#utility.yul\":15888:15917   */\n      tag_303\n        /* \"#utility.yul\":15913:15916   */\n      dup4\n        /* \"#utility.yul\":15907:15911   */\n      dup4\n        /* \"#utility.yul\":15888:15917   */\n      tag_140\n      jump\t// in\n    tag_303:\n        /* \"#utility.yul\":15880:15917   */\n      swap2\n      pop\n        /* \"#utility.yul\":15950:15953   */\n      dup3\n        /* \"#utility.yul\":15947:15948   */\n      0x02\n        /* \"#utility.yul\":15943:15954   */\n      mul\n        /* \"#utility.yul\":15937:15941   */\n      dup3\n        /* \"#utility.yul\":15934:15955   */\n      or\n        /* \"#utility.yul\":15926:15955   */\n      swap1\n      pop\n        /* \"#utility.yul\":15666:15961   */\n      swap3\n      swap2\n      pop\n      pop\n      jump\t// out\n        /* \"#utility.yul\":15966:17361   */\n    tag_69:\n        /* \"#utility.yul\":16083:16120   */\n      tag_305\n        /* \"#utility.yul\":16116:16119   */\n      dup3\n        /* \"#utility.yul\":16083:16120   */\n      tag_94\n      jump\t// in\n    tag_305:\n        /* \"#utility.yul\":16185:16203   */\n      0xffffffffffffffff\n        /* \"#utility.yul\":16177:16183   */\n      dup2\n        /* \"#utility.yul\":16174:16204   */\n      gt\n        /* \"#utility.yul\":16171:16227   */\n      iszero\n      tag_306\n      jumpi\n        /* \"#utility.yul\":16207:16225   */\n      tag_307\n      tag_104\n      jump\t// in\n    tag_307:\n        /* \"#utility.yul\":16171:16227   */\n    tag_306:\n        /* \"#utility.yul\":16251:16289   */\n      tag_308\n        /* \"#utility.yul\":16283:16287   */\n      dup3\n        /* \"#utility.yul\":16277:16288   */\n      sload\n        /* \"#utility.yul\":16251:16289   */\n      tag_55\n      jump\t// in\n    tag_308:\n        /* \"#utility.yul\":16336:16403   */\n      tag_309\n        /* \"#utility.yul\":16396:16402   */\n      dup3\n        /* \"#utility.yul\":16388:16394   */\n      dup3\n        /* \"#utility.yul\":16382:16386   */\n      dup6\n        /* \"#utility.yul\":16336:16403   */\n      tag_138\n      jump\t// in\n    tag_309:\n        /* \"#utility.yul\":16430:16431   */\n      0x00\n        /* \"#utility.yul\":16454:16458   */\n      0x20\n        /* \"#utility.yul\":16441:16458   */\n      swap1\n      pop\n        /* \"#utility.yul\":16486:16488   */\n      0x1f\n        /* \"#utility.yul\":16478:16484   */\n      dup4\n        /* \"#utility.yul\":16475:16489   */\n      gt\n        /* \"#utility.yul\":16503:16504   */\n      0x01\n        /* \"#utility.yul\":16498:17116   */\n      dup2\n      eq\n      tag_311\n      jumpi\n        /* \"#utility.yul\":17160:17161   */\n      0x00\n        /* \"#utility.yul\":17177:17183   */\n      dup5\n        /* \"#utility.yul\":17174:17251   */\n      iszero\n      tag_312\n      jumpi\n        /* \"#utility.yul\":17226:17235   */\n      dup3\n        /* \"#utility.yul\":17221:17224   */\n      dup8\n        /* \"#utility.yul\":17217:17236   */\n      add\n        /* \"#utility.yul\":17211:17237   */\n      mload\n        /* \"#utility.yul\":17202:17237   */\n      swap1\n      pop\n        /* \"#utility.yul\":17174:17251   */\n    tag_312:\n        /* \"#utility.yul\":17277:17344   */\n      tag_313\n        /* \"#utility.yul\":17337:17343   */\n      dup6\n        /* \"#utility.yul\":17330:17335   */\n      dup3\n        /* \"#utility.yul\":17277:17344   */\n      tag_141\n      jump\t// in\n    tag_313:\n        /* \"#utility.yul\":17271:17275   */\n      dup7\n        /* \"#utility.yul\":17264:17345   */\n      sstore\n        /* \"#utility.yul\":17133:17355   */\n      pop\n        /* \"#utility.yul\":16468:17355   */\n      jump(tag_310)\n        /* \"#utility.yul\":16498:17116   */\n    tag_311:\n        /* \"#utility.yul\":16550:16554   */\n      0x1f\n        /* \"#utility.yul\":16546:16555   */\n      not\n        /* \"#utility.yul\":16538:16544   */\n      dup5\n        /* \"#utility.yul\":16534:16556   */\n      and\n        /* \"#utility.yul\":16584:16621   */\n      tag_314\n        /* \"#utility.yul\":16616:16620   */\n      dup7\n        /* \"#utility.yul\":16584:16621   */\n      tag_127\n      jump\t// in\n    tag_314:\n        /* \"#utility.yul\":16643:16644   */\n      0x00\n        /* \"#utility.yul\":16657:16865   */\n    tag_315:\n        /* \"#utility.yul\":16671:16678   */\n      dup3\n        /* \"#utility.yul\":16668:16669   */\n      dup2\n        /* \"#utility.yul\":16665:16679   */\n      lt\n        /* \"#utility.yul\":16657:16865   */\n      iszero\n      tag_317\n      jumpi\n        /* \"#utility.yul\":16750:16759   */\n      dup5\n        /* \"#utility.yul\":16745:16748   */\n      dup10\n        /* \"#utility.yul\":16741:16760   */\n      add\n        /* \"#utility.yul\":16735:16761   */\n      mload\n        /* \"#utility.yul\":16727:16733   */\n      dup3\n        /* \"#utility.yul\":16720:16762   */\n      sstore\n        /* \"#utility.yul\":16801:16802   */\n      0x01\n        /* \"#utility.yul\":16793:16799   */\n      dup3\n        /* \"#utility.yul\":16789:16803   */\n      add\n        /* \"#utility.yul\":16779:16803   */\n      swap2\n      pop\n        /* \"#utility.yul\":16848:16850   */\n      0x20\n        /* \"#utility.yul\":16837:16846   */\n      dup6\n        /* \"#utility.yul\":16833:16851   */\n      add\n        /* \"#utility.yul\":16820:16851   */\n      swap5\n      pop\n        /* \"#utility.yul\":16694:16698   */\n      0x20\n        /* \"#utility.yul\":16691:16692   */\n      dup2\n        /* \"#utility.yul\":16687:16699   */\n      add\n        /* \"#utility.yul\":16682:16699   */\n      swap1\n      pop\n        /* \"#utility.yul\":16657:16865   */\n      jump(tag_315)\n    tag_317:\n        /* \"#utility.yul\":16893:16899   */\n      dup7\n        /* \"#utility.yul\":16884:16891   */\n      dup4\n        /* \"#utility.yul\":16881:16900   */\n      lt\n        /* \"#utility.yul\":16878:17057   */\n      iszero\n      tag_318\n      jumpi\n        /* \"#utility.yul\":16951:16960   */\n      dup5\n        /* \"#utility.yul\":16946:16949   */\n      dup10\n        /* \"#utility.yul\":16942:16961   */\n      add\n        /* \"#utility.yul\":16936:16962   */\n      mload\n        /* \"#utility.yul\":16994:17042   */\n      tag_319\n        /* \"#utility.yul\":17036:17040   */\n      0x1f\n        /* \"#utility.yul\":17028:17034   */\n      dup10\n        /* \"#utility.yul\":17024:17041   */\n      and\n        /* \"#utility.yul\":17013:17022   */\n      dup3\n        /* \"#utility.yul\":16994:17042   */\n      tag_140\n      jump\t// in\n    tag_319:\n        /* \"#utility.yul\":16986:16992   */\n      dup4\n        /* \"#utility.yul\":16979:17043   */\n      sstore\n        /* \"#utility.yul\":16901:17057   */\n      pop\n        /* \"#utility.yul\":16878:17057   */\n    tag_318:\n        /* \"#utility.yul\":17103:17104   */\n      0x01\n        /* \"#utility.yul\":17099:17100   */\n      0x02\n        /* \"#utility.yul\":17091:17097   */\n      dup9\n        /* \"#utility.yul\":17087:17101   */\n      mul\n        /* \"#utility.yul\":17083:17105   */\n      add\n        /* \"#utility.yul\":17077:17081   */\n      dup9\n        /* \"#utility.yul\":17070:17106   */\n      sstore\n        /* \"#utility.yul\":16505:17116   */\n      pop\n      pop\n      pop\n        /* \"#utility.yul\":16468:17355   */\n    tag_310:\n      pop\n        /* \"#utility.yul\":16058:17361   */\n      pop\n      pop\n      pop\n        /* \"#utility.yul\":15966:17361   */\n      pop\n      pop\n      jump\t// out\n        /* \"#utility.yul\":17367:17558   */\n    tag_71:\n        /* \"#utility.yul\":17407:17410   */\n      0x00\n        /* \"#utility.yul\":17426:17446   */\n      tag_321\n        /* \"#utility.yul\":17444:17445   */\n      dup3\n        /* \"#utility.yul\":17426:17446   */\n      tag_91\n      jump\t// in\n    tag_321:\n        /* \"#utility.yul\":17421:17446   */\n      swap2\n      pop\n        /* \"#utility.yul\":17460:17480   */\n      tag_322\n        /* \"#utility.yul\":17478:17479   */\n      dup4\n        /* \"#utility.yul\":17460:17480   */\n      tag_91\n      jump\t// in\n    tag_322:\n        /* \"#utility.yul\":17455:17480   */\n      swap3\n      pop\n        /* \"#utility.yul\":17503:17504   */\n      dup3\n        /* \"#utility.yul\":17500:17501   */\n      dup3\n        /* \"#utility.yul\":17496:17505   */\n      add\n        /* \"#utility.yul\":17489:17505   */\n      swap1\n      pop\n        /* \"#utility.yul\":17524:17527   */\n      dup1\n        /* \"#utility.yul\":17521:17522   */\n      dup3\n        /* \"#utility.yul\":17518:17528   */\n      gt\n        /* \"#utility.yul\":17515:17551   */\n      iszero\n      tag_323\n      jumpi\n        /* \"#utility.yul\":17531:17549   */\n      tag_324\n      tag_121\n      jump\t// in\n    tag_324:\n        /* \"#utility.yul\":17515:17551   */\n    tag_323:\n        /* \"#utility.yul\":17367:17558   */\n      swap3\n      swap2\n      pop\n      pop\n      jump\t// out\n\n    auxdata: 0xa2646970667358221220df1c00a114962f8408e9610b1a3ba285614635ba8f6de7b1175e1a445eaf540b64736f6c634300081e0033\n}\n",
				"bytecode": {
					"linkReferences": {},
					"object": "6080604052348015600f57600080fd5b5061110a8061001f6000396000f3fe608060405234801561001057600080fd5b506004361061007d5760003560e01c8063438596321161005b5780634385963214610101578063a513462014610131578063bc903cb81461014f578063da35c664146101825761007d565b80630121b93f14610082578063013cf08b1461009e57806335facf78146100d1575b600080fd5b61009c60048036038101906100979190610797565b6101a0565b005b6100b860048036038101906100b39190610797565b610347565b6040516100c8949392919061087e565b60405180910390f35b6100eb60048036038101906100e691906109ff565b61040c565b6040516100f89190610a5b565b60405180910390f35b61011b60048036038101906101169190610ad4565b61051d565b6040516101289190610b14565b60405180910390f35b6101396105cb565b6040516101469190610a5b565b60405180910390f35b61016960048036038101906101649190610797565b61062a565b604051610179949392919061087e565b60405180910390f35b61018a610747565b6040516101979190610a5b565b60405180910390f35b60015481106101e4576040517f08c379a00000000000000000000000000000000000000000000000000000000081526004016101db90610b7b565b60405180910390fd5b6000806000838152602001908152602001600020905080600201544210610240576040517f08c379a000000000000000000000000000000000000000000000000000000000815260040161023790610be7565b60405180910390fd5b8060040160003373ffffffffffffffffffffffffffffffffffffffff1673ffffffffffffffffffffffffffffffffffffffff16815260200190815260200160002060009054906101000a900460ff16156102cf576040517f08c379a00000000000000000000000000000000000000000000000000000000081526004016102c690610c53565b60405180910390fd5b60018160040160003373ffffffffffffffffffffffffffffffffffffffff1673ffffffffffffffffffffffffffffffffffffffff16815260200190815260200160002060006101000a81548160ff02191690831515021790555080600101600081548092919061033e90610ca2565b91905055505050565b600060205280600052604060002060009150905080600001805461036a90610d19565b80601f016020809104026020016040519081016040528092919081815260200182805461039690610d19565b80156103e35780601f106103b8576101008083540402835291602001916103e3565b820191906000526020600020905b8154815290600101906020018083116103c657829003601f168201915b5050505050908060010154908060020154908060030160009054906101000a900460ff16905084565b600080835111610451576040517f08c379a000000000000000000000000000000000000000000000000000000000815260040161044890610d96565b60405180910390fd5b60008211610494576040517f08c379a000000000000000000000000000000000000000000000000000000000815260040161048b90610e02565b60405180910390fd5b6000600160008154809291906104a990610ca2565b91905055905060008060008381526020019081526020016000209050848160000190816104d69190610fce565b506000816001018190555083426104ed91906110a0565b816002018190555060008160030160006101000a81548160ff021916908315150217905550819250505092915050565b60006001548310610563576040517f08c379a000000000000000000000000000000000000000000000000000000000815260040161055a90610b7b565b60405180910390fd5b60008084815260200190815260200160002060040160008373ffffffffffffffffffffffffffffffffffffffff1673ffffffffffffffffffffffffffffffffffffffff16815260200190815260200160002060009054906101000a900460ff16905092915050565b6000806000905060005b6001548110156106255781600080838152602001908152602001600020600101541115610618576000808281526020019081526020016000206001015491508092505b80806001019150506105d5565b505090565b606060008060006001548510610675576040517f08c379a000000000000000000000000000000000000000000000000000000000815260040161066c90610b7b565b60405180910390fd5b6000806000878152602001908152602001600020905080600001816001015482600201548360030160009054906101000a900460ff168380546106b790610d19565b80601f01602080910402602001604051908101604052809291908181526020018280546106e390610d19565b80156107305780601f1061070557610100808354040283529160200191610730565b820191906000526020600020905b81548152906001019060200180831161071357829003601f168201915b505050505093509450945094509450509193509193565b60015481565b6000604051905090565b600080fd5b600080fd5b6000819050919050565b61077481610761565b811461077f57600080fd5b50565b6000813590506107918161076b565b92915050565b6000602082840312156107ad576107ac610757565b5b60006107bb84828501610782565b91505092915050565b600081519050919050565b600082825260208201905092915050565b60005b838110156107fe5780820151818401526020810190506107e3565b60008484015250505050565b6000601f19601f8301169050919050565b6000610826826107c4565b61083081856107cf565b93506108408185602086016107e0565b6108498161080a565b840191505092915050565b61085d81610761565b82525050565b60008115159050919050565b61087881610863565b82525050565b60006080820190508181036000830152610898818761081b565b90506108a76020830186610854565b6108b46040830185610854565b6108c1606083018461086f565b95945050505050565b600080fd5b600080fd5b7f4e487b7100000000000000000000000000000000000000000000000000000000600052604160045260246000fd5b61090c8261080a565b810181811067ffffffffffffffff8211171561092b5761092a6108d4565b5b80604052505050565b600061093e61074d565b905061094a8282610903565b919050565b600067ffffffffffffffff82111561096a576109696108d4565b5b6109738261080a565b9050602081019050919050565b82818337600083830152505050565b60006109a261099d8461094f565b610934565b9050828152602081018484840111156109be576109bd6108cf565b5b6109c9848285610980565b509392505050565b600082601f8301126109e6576109e56108ca565b5b81356109f684826020860161098f565b91505092915050565b60008060408385031215610a1657610a15610757565b5b600083013567ffffffffffffffff811115610a3457610a3361075c565b5b610a40858286016109d1565b9250506020610a5185828601610782565b9150509250929050565b6000602082019050610a706000830184610854565b92915050565b600073ffffffffffffffffffffffffffffffffffffffff82169050919050565b6000610aa182610a76565b9050919050565b610ab181610a96565b8114610abc57600080fd5b50565b600081359050610ace81610aa8565b92915050565b60008060408385031215610aeb57610aea610757565b5b6000610af985828601610782565b9250506020610b0a85828601610abf565b9150509250929050565b6000602082019050610b29600083018461086f565b92915050565b7f50726f706f73616c20646f6573206e6f74206578697374000000000000000000600082015250565b6000610b656017836107cf565b9150610b7082610b2f565b602082019050919050565b60006020820190508181036000830152610b9481610b58565b9050919050565b7f566f74696e672068617320656e64656400000000000000000000000000000000600082015250565b6000610bd16010836107cf565b9150610bdc82610b9b565b602082019050919050565b60006020820190508181036000830152610c0081610bc4565b9050919050565b7f416c726561647920766f74656400000000000000000000000000000000000000600082015250565b6000610c3d600d836107cf565b9150610c4882610c07565b602082019050919050565b60006020820190508181036000830152610c6c81610c30565b9050919050565b7f4e487b7100000000000000000000000000000000000000000000000000000000600052601160045260246000fd5b6000610cad82610761565b91507fffffffffffffffffffffffffffffffffffffffffffffffffffffffffffffffff8203610cdf57610cde610c73565b5b600182019050919050565b7f4e487b7100000000000000000000000000000000000000000000000000000000600052602260045260246000fd5b60006002820490506001821680610d3157607f821691505b602082108103610d4457610d43610cea565b5b50919050565b7f4465736372697074696f6e207265717569726564000000000000000000000000600082015250565b6000610d806014836107cf565b9150610d8b82610d4a565b602082019050919050565b60006020820190508181036000830152610daf81610d73565b9050919050565b7f4475726174696f6e206d75737420626520706f73697469766500000000000000600082015250565b6000610dec6019836107cf565b9150610df782610db6565b602082019050919050565b60006020820190508181036000830152610e1b81610ddf565b9050919050565b60008190508160005260206000209050919050565b60006020601f8301049050919050565b600082821b905092915050565b600060088302610e847fffffffffffffffffffffffffffffffffffffffffffffffffffffffffffffffff82610e47565b610e8e8683610e47565b95508019841693508086168417925050509392505050565b6000819050919050565b6000610ecb610ec6610ec184610761565b610ea6565b610761565b9050919050565b6000819050919050565b610ee583610eb0565b610ef9610ef182610ed2565b848454610e54565b825550505050565b600090565b610f0e610f01565b610f19818484610edc565b505050565b5b81811015610f3d57610f32600082610f06565b600181019050610f1f565b5050565b601f821115610f8257610f5381610e22565b610f5c84610e37565b81016020851015610f6b578190505b610f7f610f7785610e37565b830182610f1e565b50505b505050565b600082821c905092915050565b6000610fa560001984600802610f87565b1980831691505092915050565b6000610fbe8383610f94565b9150826002028217905092915050565b610fd7826107c4565b67ffffffffffffffff811115610ff057610fef6108d4565b5b610ffa8254610d19565b611005828285610f41565b600060209050601f8311600181146110385760008415611026578287015190505b6110308582610fb2565b865550611098565b601f19841661104686610e22565b60005b8281101561106e57848901518255600182019150602085019450602081019050611049565b8683101561108b5784890151611087601f891682610f94565b8355505b6001600288020188555050505b505050505050565b60006110ab82610761565b91506110b683610761565b92508282019050808211156110ce576110cd610c73565b5b9291505056fea2646970667358221220df1c00a114962f8408e9610b1a3ba285614635ba8f6de7b1175e1a445eaf540b64736f6c634300081e0033",
					"opcodes": "PUSH1 0x80 PUSH1 0x40 MSTORE CALLVALUE DUP1 ISZERO PUSH1 0xF JUMPI PUSH1 0x0 DUP1 REVERT JUMPDEST POP PUSH2 0x110A DUP1 PUSH2 0x1F PUSH1 0x0 CODECOPY PUSH1 0x0 RETURN INVALID PUSH1 0x80 PUSH1 0x40 MSTORE CALLVALUE DUP1 ISZERO PUSH2 0x10 JUMPI PUSH1 0x0 DUP1 REVERT JUMPDEST POP PUSH1 0x4 CALLDATASIZE LT PUSH2 0x7D JUMPI PUSH1 0x0 CALLDATALOAD PUSH1 0xE0 SHR DUP1 PUSH4 0x43859632 GT PUSH2 0x5B JUMPI DUP1 PUSH4 0x43859632 EQ PUSH2 0x101 JUMPI DUP1 PUSH4 0xA5134620 EQ PUSH2 0x131 JUMPI DUP1 PUSH4 0xBC903CB8 EQ PUSH2 0x14F JUMPI DUP1 PUSH4 0xDA35C664 EQ PUSH2 0x182 JUMPI PUSH2 0x7D JUMP JUMPDEST DUP1 PUSH4 0x121B93F EQ PUSH2 0x82 JUMPI DUP1 PUSH4 0x13CF08B EQ PUSH2 0x9E JUMPI DUP1 PUSH4 0x35FACF78 EQ PUSH2 0xD1 JUMPI JUMPDEST PUSH1 0x0 DUP1 REVERT JUMPDEST PUSH2 0x9C PUSH1 0x4 DUP1 CALLDATASIZE SUB DUP2 ADD SWAP1 PUSH2 0x97 SWAP2 SWAP1 PUSH2 0x797 JUMP JUMPDEST PUSH2 0x1A0 JUMP JUMPDEST STOP JUMPDEST PUSH2 0xB8 PUSH1 0x4 DUP1 CALLDATASIZE SUB DUP2 ADD SWAP1 PUSH2 0xB3 SWAP2 SWAP1 PUSH2 0x797 JUMP JUMPDEST PUSH2 0x347 JUMP JUMPDEST PUSH1 0x40 MLOAD PUSH2 0xC8 SWAP5 SWAP4 SWAP3 SWAP2 SWAP1 PUSH2 0x87E JUMP JUMPDEST PUSH1 0x40 MLOAD DUP1 SWAP2 SUB SWAP1 RETURN JUMPDEST PUSH2 0xEB PUSH1 0x4 DUP1 CALLDATASIZE SUB DUP2 ADD SWAP1 PUSH2 0xE6 SWAP2 SWAP1 PUSH2 0x9FF JUMP JUMPDEST PUSH2 0x40C JUMP JUMPDEST PUSH1 0x40 MLOAD PUSH2 0xF8 SWAP2 SWAP1 PUSH2 0xA5B JUMP JUMPDEST PUSH1 0x40 MLOAD DUP1 SWAP2 SUB SWAP1 RETURN JUMPDEST PUSH2 0x11B PUSH1 0x4 DUP1 CALLDATASIZE SUB DUP2 ADD SWAP1 PUSH2 0x116 SWAP2 SWAP1 PUSH2 0xAD4 JUMP JUMPDEST PUSH2 0x51D JUMP JUMPDEST PUSH1 0x40 MLOAD PUSH2 0x128 SWAP2 SWAP1 PUSH2 0xB14 JUMP JUMPDEST PUSH1 0x40 MLOAD DUP1 SWAP2 SUB SWAP1 RETURN JUMPDEST PUSH2 0x139 PUSH2 0x5CB JUMP JUMPDEST PUSH1 0x40 MLOAD PUSH2 0x146 SWAP2 SWAP1 PUSH2 0xA5B JUMP JUMPDEST PUSH1 0x40 MLOAD DUP1 SWAP2 SUB SWAP1 RETURN JUMPDEST PUSH2 0x169 PUSH1 0x4 DUP1 CALLDATASIZE SUB DUP2 ADD SWAP1 PUSH2 0x164 SWAP2 SWAP1 PUSH2 0x797 JUMP JUMPDEST PUSH2 0x62A JUMP JUMPDEST PUSH1 0x40 MLOAD PUSH2 0x179 SWAP5 SWAP4 SWAP3 SWAP2 SWAP1 PUSH2 0x87E JUMP JUMPDEST PUSH1 0x40 MLOAD DUP1 SWAP2 SUB SWAP1 RETURN JUMPDEST PUSH2 0x18A PUSH2 0x747 JUMP JUMPDEST PUSH1 0x40 MLOAD PUSH2 0x197 SWAP2 SWAP1 PUSH2 0xA5B JUMP JUMPDEST PUSH1 0x40 MLOAD DUP1 SWAP2 SUB SWAP1 RETURN JUMPDEST PUSH1 0x1 SLOAD DUP2 LT PUSH2 0x1E4 JUMPI PUSH1 0x40 MLOAD PUSH32 0x8C379A000000000000000000000000000000000000000000000000000000000 DUP2 MSTORE PUSH1 0x4 ADD PUSH2 0x1DB SWAP1 PUSH2 0xB7B JUMP JUMPDEST PUSH1 0x40 MLOAD DUP1 SWAP2 SUB SWAP1 REVERT JUMPDEST PUSH1 0x0 DUP1 PUSH1 0x0 DUP4 DUP2 MSTORE PUSH1 0x20 ADD SWAP1 DUP2 MSTORE PUSH1 0x20 ADD PUSH1 0x0 KECCAK256 SWAP1 POP DUP1 PUSH1 0x2 ADD SLOAD TIMESTAMP LT PUSH2 0x240 JUMPI PUSH1 0x40 MLOAD PUSH32 0x8C379A000000000000000000000000000000000000000000000000000000000 DUP2 MSTORE PUSH1 0x4 ADD PUSH2 0x237 SWAP1 PUSH2 0xBE7 JUMP JUMPDEST PUSH1 0x40 MLOAD DUP1 SWAP2 SUB SWAP1 REVERT JUMPDEST DUP1 PUSH1 0x4 ADD PUSH1 0x0 CALLER PUSH20 0xFFFFFFFFFFFFFFFFFFFFFFFFFFFFFFFFFFFFFFFF AND PUSH20 0xFFFFFFFFFFFFFFFFFFFFFFFFFFFFFFFFFFFFFFFF AND DUP2 MSTORE PUSH1 0x20 ADD SWAP1 DUP2 MSTORE PUSH1 0x20 ADD PUSH1 0x0 KECCAK256 PUSH1 0x0 SWAP1 SLOAD SWAP1 PUSH2 0x100 EXP SWAP1 DIV PUSH1 0xFF AND ISZERO PUSH2 0x2CF JUMPI PUSH1 0x40 MLOAD PUSH32 0x8C379A000000000000000000000000000000000000000000000000000000000 DUP2 MSTORE PUSH1 0x4 ADD PUSH2 0x2C6 SWAP1 PUSH2 0xC53 JUMP JUMPDEST PUSH1 0x40 MLOAD DUP1 SWAP2 SUB SWAP1 REVERT JUMPDEST PUSH1 0x1 DUP2 PUSH1 0x4 ADD PUSH1 0x0 CALLER PUSH20 0xFFFFFFFFFFFFFFFFFFFFFFFFFFFFFFFFFFFFFFFF AND PUSH20 0xFFFFFFFFFFFFFFFFFFFFFFFFFFFFFFFFFFFFFFFF AND DUP2 MSTORE PUSH1 0x20 ADD SWAP1 DUP2 MSTORE PUSH1 0x20 ADD PUSH1 0x0 KECCAK256 PUSH1 0x0 PUSH2 0x100 EXP DUP2 SLOAD DUP2 PUSH1 0xFF MUL NOT AND SWAP1 DUP4 ISZERO ISZERO MUL OR SWAP1 SSTORE POP DUP1 PUSH1 0x1 ADD PUSH1 0x0 DUP2 SLOAD DUP1 SWAP3 SWAP2 SWAP1 PUSH2 0x33E SWAP1 PUSH2 0xCA2 JUMP JUMPDEST SWAP2 SWAP1 POP SSTORE POP POP POP JUMP JUMPDEST PUSH1 0x0 PUSH1 0x20 MSTORE DUP1 PUSH1 0x0 MSTORE PUSH1 0x40 PUSH1 0x0 KECCAK256 PUSH1 0x0 SWAP2 POP SWAP1 POP DUP1 PUSH1 0x0 ADD DUP1 SLOAD PUSH2 0x36A SWAP1 PUSH2 0xD19 JUMP JUMPDEST DUP1 PUSH1 0x1F ADD PUSH1 0x20 DUP1 SWAP2 DIV MUL PUSH1 0x20 ADD PUSH1 0x40 MLOAD SWAP1 DUP2 ADD PUSH1 0x40 MSTORE DUP1 SWAP3 SWAP2 SWAP1 DUP2 DUP2 MSTORE PUSH1 0x20 ADD DUP3 DUP1 SLOAD PUSH2 0x396 SWAP1 PUSH2 0xD19 JUMP JUMPDEST DUP1 ISZERO PUSH2 0x3E3 JUMPI DUP1 PUSH1 0x1F LT PUSH2 0x3B8 JUMPI PUSH2 0x100 DUP1 DUP4 SLOAD DIV MUL DUP4 MSTORE SWAP2 PUSH1 0x20 ADD SWAP2 PUSH2 0x3E3 JUMP JUMPDEST DUP3 ADD SWAP2 SWAP1 PUSH1 0x0 MSTORE PUSH1 0x20 PUSH1 0x0 KECCAK256 SWAP1 JUMPDEST DUP2 SLOAD DUP2 MSTORE SWAP1 PUSH1 0x1 ADD SWAP1 PUSH1 0x20 ADD DUP1 DUP4 GT PUSH2 0x3C6 JUMPI DUP3 SWAP1 SUB PUSH1 0x1F AND DUP3 ADD SWAP2 JUMPDEST POP POP POP POP POP SWAP1 DUP1 PUSH1 0x1 ADD SLOAD SWAP1 DUP1 PUSH1 0x2 ADD SLOAD SWAP1 DUP1 PUSH1 0x3 ADD PUSH1 0x0 SWAP1 SLOAD SWAP1 PUSH2 0x100 EXP SWAP1 DIV PUSH1 0xFF AND SWAP1 POP DUP5 JUMP JUMPDEST PUSH1 0x0 DUP1 DUP4 MLOAD GT PUSH2 0x451 JUMPI PUSH1 0x40 MLOAD PUSH32 0x8C379A000000000000000000000000000000000000000000000000000000000 DUP2 MSTORE PUSH1 0x4 ADD PUSH2 0x448 SWAP1 PUSH2 0xD96 JUMP JUMPDEST PUSH1 0x40 MLOAD DUP1 SWAP2 SUB SWAP1 REVERT JUMPDEST PUSH1 0x0 DUP3 GT PUSH2 0x494 JUMPI PUSH1 0x40 MLOAD PUSH32 0x8C379A000000000000000000000000000000000000000000000000000000000 DUP2 MSTORE PUSH1 0x4 ADD PUSH2 0x48B SWAP1 PUSH2 0xE02 JUMP JUMPDEST PUSH1 0x40 MLOAD DUP1 SWAP2 SUB SWAP1 REVERT JUMPDEST PUSH1 0x0 PUSH1 0x1 PUSH1 0x0 DUP2 SLOAD DUP1 SWAP3 SWAP2 SWAP1 PUSH2 0x4A9 SWAP1 PUSH2 0xCA2 JUMP JUMPDEST SWAP2 SWAP1 POP SSTORE SWAP1 POP PUSH1 0x0 DUP1 PUSH1 0x0 DUP4 DUP2 MSTORE PUSH1 0x20 ADD SWAP1 DUP2 MSTORE PUSH1 0x20 ADD PUSH1 0x0 KECCAK256 SWAP1 POP DUP5 DUP2 PUSH1 0x0 ADD SWAP1 DUP2 PUSH2 0x4D6 SWAP2 SWAP1 PUSH2 0xFCE JUMP JUMPDEST POP PUSH1 0x0 DUP2 PUSH1 0x1 ADD DUP2 SWAP1 SSTORE POP DUP4 TIMESTAMP PUSH2 0x4ED SWAP2 SWAP1 PUSH2 0x10A0 JUMP JUMPDEST DUP2 PUSH1 0x2 ADD DUP2 SWAP1 SSTORE POP PUSH1 0x0 DUP2 PUSH1 0x3 ADD PUSH1 0x0 PUSH2 0x100 EXP DUP2 SLOAD DUP2 PUSH1 0xFF MUL NOT AND SWAP1 DUP4 ISZERO ISZERO MUL OR SWAP1 SSTORE POP DUP2 SWAP3 POP POP POP SWAP3 SWAP2 POP POP JUMP JUMPDEST PUSH1 0x0 PUSH1 0x1 SLOAD DUP4 LT PUSH2 0x563 JUMPI PUSH1 0x40 MLOAD PUSH32 0x8C379A000000000000000000000000000000000000000000000000000000000 DUP2 MSTORE PUSH1 0x4 ADD PUSH2 0x55A SWAP1 PUSH2 0xB7B JUMP JUMPDEST PUSH1 0x40 MLOAD DUP1 SWAP2 SUB SWAP1 REVERT JUMPDEST PUSH1 0x0 DUP1 DUP5 DUP2 MSTORE PUSH1 0x20 ADD SWAP1 DUP2 MSTORE PUSH1 0x20 ADD PUSH1 0x0 KECCAK256 PUSH1 0x4 ADD PUSH1 0x0 DUP4 PUSH20 0xFFFFFFFFFFFFFFFFFFFFFFFFFFFFFFFFFFFFFFFF AND PUSH20 0xFFFFFFFFFFFFFFFFFFFFFFFFFFFFFFFFFFFFFFFF AND DUP2 MSTORE PUSH1 0x20 ADD SWAP1 DUP2 MSTORE PUSH1 0x20 ADD PUSH1 0x0 KECCAK256 PUSH1 0x0 SWAP1 SLOAD SWAP1 PUSH2 0x100 EXP SWAP1 DIV PUSH1 0xFF AND SWAP1 POP SWAP3 SWAP2 POP POP JUMP JUMPDEST PUSH1 0x0 DUP1 PUSH1 0x0 SWAP1 POP PUSH1 0x0 JUMPDEST PUSH1 0x1 SLOAD DUP2 LT ISZERO PUSH2 0x625 JUMPI DUP2 PUSH1 0x0 DUP1 DUP4 DUP2 MSTORE PUSH1 0x20 ADD SWAP1 DUP2 MSTORE PUSH1 0x20 ADD PUSH1 0x0 KECCAK256 PUSH1 0x1 ADD SLOAD GT ISZERO PUSH2 0x618 JUMPI PUSH1 0x0 DUP1 DUP3 DUP2 MSTORE PUSH1 0x20 ADD SWAP1 DUP2 MSTORE PUSH1 0x20 ADD PUSH1 0x0 KECCAK256 PUSH1 0x1 ADD SLOAD SWAP2 POP DUP1 SWAP3 POP JUMPDEST DUP1 DUP1 PUSH1 0x1 ADD SWAP2 POP POP PUSH2 0x5D5 JUMP JUMPDEST POP POP SWAP1 JUMP JUMPDEST PUSH1 0x60 PUSH1 0x0 DUP1 PUSH1 0x0 PUSH1 0x1 SLOAD DUP6 LT PUSH2 0x675 JUMPI PUSH1 0x40 MLOAD PUSH32 0x8C379A000000000000000000000000000000000000000000000000000000000 DUP2 MSTORE PUSH1 0x4 ADD PUSH2 0x66C SWAP1 PUSH2 0xB7B JUMP JUMPDEST PUSH1 0x40 MLOAD DUP1 SWAP2 SUB SWAP1 REVERT JUMPDEST PUSH1 0x0 DUP1 PUSH1 0x0 DUP8 DUP2 MSTORE PUSH1 0x20 ADD SWAP1 DUP2 MSTORE PUSH1 0x20 ADD PUSH1 0x0 KECCAK256 SWAP1 POP DUP1 PUSH1 0x0 ADD DUP2 PUSH1 0x1 ADD SLOAD DUP3 PUSH1 0x2 ADD SLOAD DUP4 PUSH1 0x3 ADD PUSH1 0x0 SWAP1 SLOAD SWAP1 PUSH2 0x100 EXP SWAP1 DIV PUSH1 0xFF AND DUP4 DUP1 SLOAD PUSH2 0x6B7 SWAP1 PUSH2 0xD19 JUMP JUMPDEST DUP1 PUSH1 0x1F ADD PUSH1 0x20 DUP1 SWAP2 DIV MUL PUSH1 0x20 ADD PUSH1 0x40 MLOAD SWAP1 DUP2 ADD PUSH1 0x40 MSTORE DUP1 SWAP3 SWAP2 SWAP1 DUP2 DUP2 MSTORE PUSH1 0x20 ADD DUP3 DUP1 SLOAD PUSH2 0x6E3 SWAP1 PUSH2 0xD19 JUMP JUMPDEST DUP1 ISZERO PUSH2 0x730 JUMPI DUP1 PUSH1 0x1F LT PUSH2 0x705 JUMPI PUSH2 0x100 DUP1 DUP4 SLOAD DIV MUL DUP4 MSTORE SWAP2 PUSH1 0x20 ADD SWAP2 PUSH2 0x730 JUMP JUMPDEST DUP3 ADD SWAP2 SWAP1 PUSH1 0x0 MSTORE PUSH1 0x20 PUSH1 0x0 KECCAK256 SWAP1 JUMPDEST DUP2 SLOAD DUP2 MSTORE SWAP1 PUSH1 0x1 ADD SWAP1 PUSH1 0x20 ADD DUP1 DUP4 GT PUSH2 0x713 JUMPI DUP3 SWAP1 SUB PUSH1 0x1F AND DUP3 ADD SWAP2 JUMPDEST POP POP POP POP POP SWAP4 POP SWAP5 POP SWAP5 POP SWAP5 POP SWAP5 POP POP SWAP2 SWAP4 POP SWAP2 SWAP4 JUMP JUMPDEST PUSH1 0x1 SLOAD DUP2 JUMP JUMPDEST PUSH1 0x0 PUSH1 0x40 MLOAD SWAP1 POP SWAP1 JUMP JUMPDEST PUSH1 0x0 DUP1 REVERT JUMPDEST PUSH1 0x0 DUP1 REVERT JUMPDEST PUSH1 0x0 DUP2 SWAP1 POP SWAP2 SWAP1 POP JUMP JUMPDEST PUSH2 0x774 DUP2 PUSH2 0x761 JUMP JUMPDEST DUP2 EQ PUSH2 0x77F JUMPI PUSH1 0x0 DUP1 REVERT JUMPDEST POP JUMP JUMPDEST PUSH1 0x0 DUP2 CALLDATALOAD SWAP1 POP PUSH2 0x791 DUP2 PUSH2 0x76B JUMP JUMPDEST SWAP3 SWAP2 POP POP JUMP JUMPDEST PUSH1 0x0 PUSH1 0x20 DUP3 DUP5 SUB SLT ISZERO PUSH2 0x7AD JUMPI PUSH2 0x7AC PUSH2 0x757 JUMP JUMPDEST JUMPDEST PUSH1 0x0 PUSH2 0x7BB DUP5 DUP3 DUP6 ADD PUSH2 0x782 JUMP JUMPDEST SWAP2 POP POP SWAP3 SWAP2 POP POP JUMP JUMPDEST PUSH1 0x0 DUP2 MLOAD SWAP1 POP SWAP2 SWAP1 POP JUMP JUMPDEST PUSH1 0x0 DUP3 DUP3 MSTORE PUSH1 0x20 DUP3 ADD SWAP1 POP SWAP3 SWAP2 POP POP JUMP JUMPDEST PUSH1 0x0 JUMPDEST DUP4 DUP2 LT ISZERO PUSH2 0x7FE JUMPI DUP1 DUP3 ADD MLOAD DUP2 DUP5 ADD MSTORE PUSH1 0x20 DUP2 ADD SWAP1 POP PUSH2 0x7E3 JUMP JUMPDEST PUSH1 0x0 DUP5 DUP5 ADD MSTORE POP POP POP POP JUMP JUMPDEST PUSH1 0x0 PUSH1 0x1F NOT PUSH1 0x1F DUP4 ADD AND SWAP1 POP SWAP2 SWAP1 POP JUMP JUMPDEST PUSH1 0x0 PUSH2 0x826 DUP3 PUSH2 0x7C4 JUMP JUMPDEST PUSH2 0x830 DUP2 DUP6 PUSH2 0x7CF JUMP JUMPDEST SWAP4 POP PUSH2 0x840 DUP2 DUP6 PUSH1 0x20 DUP7 ADD PUSH2 0x7E0 JUMP JUMPDEST PUSH2 0x849 DUP2 PUSH2 0x80A JUMP JUMPDEST DUP5 ADD SWAP2 POP POP SWAP3 SWAP2 POP POP JUMP JUMPDEST PUSH2 0x85D DUP2 PUSH2 0x761 JUMP JUMPDEST DUP3 MSTORE POP POP JUMP JUMPDEST PUSH1 0x0 DUP2 ISZERO ISZERO SWAP1 POP SWAP2 SWAP1 POP JUMP JUMPDEST PUSH2 0x878 DUP2 PUSH2 0x863 JUMP JUMPDEST DUP3 MSTORE POP POP JUMP JUMPDEST PUSH1 0x0 PUSH1 0x80 DUP3 ADD SWAP1 POP DUP2 DUP2 SUB PUSH1 0x0 DUP4 ADD MSTORE PUSH2 0x898 DUP2 DUP8 PUSH2 0x81B JUMP JUMPDEST SWAP1 POP PUSH2 0x8A7 PUSH1 0x20 DUP4 ADD DUP7 PUSH2 0x854 JUMP JUMPDEST PUSH2 0x8B4 PUSH1 0x40 DUP4 ADD DUP6 PUSH2 0x854 JUMP JUMPDEST PUSH2 0x8C1 PUSH1 0x60 DUP4 ADD DUP5 PUSH2 0x86F JUMP JUMPDEST SWAP6 SWAP5 POP POP POP POP POP JUMP JUMPDEST PUSH1 0x0 DUP1 REVERT JUMPDEST PUSH1 0x0 DUP1 REVERT JUMPDEST PUSH32 0x4E487B7100000000000000000000000000000000000000000000000000000000 PUSH1 0x0 MSTORE PUSH1 0x41 PUSH1 0x4 MSTORE PUSH1 0x24 PUSH1 0x0 REVERT JUMPDEST PUSH2 0x90C DUP3 PUSH2 0x80A JUMP JUMPDEST DUP2 ADD DUP2 DUP2 LT PUSH8 0xFFFFFFFFFFFFFFFF DUP3 GT OR ISZERO PUSH2 0x92B JUMPI PUSH2 0x92A PUSH2 0x8D4 JUMP JUMPDEST JUMPDEST DUP1 PUSH1 0x40 MSTORE POP POP POP JUMP JUMPDEST PUSH1 0x0 PUSH2 0x93E PUSH2 0x74D JUMP JUMPDEST SWAP1 POP PUSH2 0x94A DUP3 DUP3 PUSH2 0x903 JUMP JUMPDEST SWAP2 SWAP1 POP JUMP JUMPDEST PUSH1 0x0 PUSH8 0xFFFFFFFFFFFFFFFF DUP3 GT ISZERO PUSH2 0x96A JUMPI PUSH2 0x969 PUSH2 0x8D4 JUMP JUMPDEST JUMPDEST PUSH2 0x973 DUP3 PUSH2 0x80A JUMP JUMPDEST SWAP1 POP PUSH1 0x20 DUP2 ADD SWAP1 POP SWAP2 SWAP1 POP JUMP JUMPDEST DUP3 DUP2 DUP4 CALLDATACOPY PUSH1 0x0 DUP4 DUP4 ADD MSTORE POP POP POP JUMP JUMPDEST PUSH1 0x0 PUSH2 0x9A2 PUSH2 0x99D DUP5 PUSH2 0x94F JUMP JUMPDEST PUSH2 0x934 JUMP JUMPDEST SWAP1 POP DUP3 DUP2 MSTORE PUSH1 0x20 DUP2 ADD DUP5 DUP5 DUP5 ADD GT ISZERO PUSH2 0x9BE JUMPI PUSH2 0x9BD PUSH2 0x8CF JUMP JUMPDEST JUMPDEST PUSH2 0x9C9 DUP5 DUP3 DUP6 PUSH2 0x980 JUMP JUMPDEST POP SWAP4 SWAP3 POP POP POP JUMP JUMPDEST PUSH1 0x0 DUP3 PUSH1 0x1F DUP4 ADD SLT PUSH2 0x9E6 JUMPI PUSH2 0x9E5 PUSH2 0x8CA JUMP JUMPDEST JUMPDEST DUP2 CALLDATALOAD PUSH2 0x9F6 DUP5 DUP3 PUSH1 0x20 DUP7 ADD PUSH2 0x98F JUMP JUMPDEST SWAP2 POP POP SWAP3 SWAP2 POP POP JUMP JUMPDEST PUSH1 0x0 DUP1 PUSH1 0x40 DUP4 DUP6 SUB SLT ISZERO PUSH2 0xA16 JUMPI PUSH2 0xA15 PUSH2 0x757 JUMP JUMPDEST JUMPDEST PUSH1 0x0 DUP4 ADD CALLDATALOAD PUSH8 0xFFFFFFFFFFFFFFFF DUP2 GT ISZERO PUSH2 0xA34 JUMPI PUSH2 0xA33 PUSH2 0x75C JUMP JUMPDEST JUMPDEST PUSH2 0xA40 DUP6 DUP3 DUP7 ADD PUSH2 0x9D1 JUMP JUMPDEST SWAP3 POP POP PUSH1 0x20 PUSH2 0xA51 DUP6 DUP3 DUP7 ADD PUSH2 0x782 JUMP JUMPDEST SWAP2 POP POP SWAP3 POP SWAP3 SWAP1 POP JUMP JUMPDEST PUSH1 0x0 PUSH1 0x20 DUP3 ADD SWAP1 POP PUSH2 0xA70 PUSH1 0x0 DUP4 ADD DUP5 PUSH2 0x854 JUMP JUMPDEST SWAP3 SWAP2 POP POP JUMP JUMPDEST PUSH1 0x0 PUSH20 0xFFFFFFFFFFFFFFFFFFFFFFFFFFFFFFFFFFFFFFFF DUP3 AND SWAP1 POP SWAP2 SWAP1 POP JUMP JUMPDEST PUSH1 0x0 PUSH2 0xAA1 DUP3 PUSH2 0xA76 JUMP JUMPDEST SWAP1 POP SWAP2 SWAP1 POP JUMP JUMPDEST PUSH2 0xAB1 DUP2 PUSH2 0xA96 JUMP JUMPDEST DUP2 EQ PUSH2 0xABC JUMPI PUSH1 0x0 DUP1 REVERT JUMPDEST POP JUMP JUMPDEST PUSH1 0x0 DUP2 CALLDATALOAD SWAP1 POP PUSH2 0xACE DUP2 PUSH2 0xAA8 JUMP JUMPDEST SWAP3 SWAP2 POP POP JUMP JUMPDEST PUSH1 0x0 DUP1 PUSH1 0x40 DUP4 DUP6 SUB SLT ISZERO PUSH2 0xAEB JUMPI PUSH2 0xAEA PUSH2 0x757 JUMP JUMPDEST JUMPDEST PUSH1 0x0 PUSH2 0xAF9 DUP6 DUP3 DUP7 ADD PUSH2 0x782 JUMP JUMPDEST SWAP3 POP POP PUSH1 0x20 PUSH2 0xB0A DUP6 DUP3 DUP7 ADD PUSH2 0xABF JUMP JUMPDEST SWAP2 POP POP SWAP3 POP SWAP3 SWAP1 POP JUMP JUMPDEST PUSH1 0x0 PUSH1 0x20 DUP3 ADD SWAP1 POP PUSH2 0xB29 PUSH1 0x0 DUP4 ADD DUP5 PUSH2 0x86F JUMP JUMPDEST SWAP3 SWAP2 POP POP JUMP JUMPDEST PUSH32 0x50726F706F73616C20646F6573206E6F74206578697374000000000000000000 PUSH1 0x0 DUP3 ADD MSTORE POP JUMP JUMPDEST PUSH1 0x0 PUSH2 0xB65 PUSH1 0x17 DUP4 PUSH2 0x7CF JUMP JUMPDEST SWAP2 POP PUSH2 0xB70 DUP3 PUSH2 0xB2F JUMP JUMPDEST PUSH1 0x20 DUP3 ADD SWAP1 POP SWAP2 SWAP1 POP JUMP JUMPDEST PUSH1 0x0 PUSH1 0x20 DUP3 ADD SWAP1 POP DUP2 DUP2 SUB PUSH1 0x0 DUP4 ADD MSTORE PUSH2 0xB94 DUP2 PUSH2 0xB58 JUMP JUMPDEST SWAP1 POP SWAP2 SWAP1 POP JUMP JUMPDEST PUSH32 0x566F74696E672068617320656E64656400000000000000000000000000000000 PUSH1 0x0 DUP3 ADD MSTORE POP JUMP JUMPDEST PUSH1 0x0 PUSH2 0xBD1 PUSH1 0x10 DUP4 PUSH2 0x7CF JUMP JUMPDEST SWAP2 POP PUSH2 0xBDC DUP3 PUSH2 0xB9B JUMP JUMPDEST PUSH1 0x20 DUP3 ADD SWAP1 POP SWAP2 SWAP1 POP JUMP JUMPDEST PUSH1 0x0 PUSH1 0x20 DUP3 ADD SWAP1 POP DUP2 DUP2 SUB PUSH1 0x0 DUP4 ADD MSTORE PUSH2 0xC00 DUP2 PUSH2 0xBC4 JUMP JUMPDEST SWAP1 POP SWAP2 SWAP1 POP JUMP JUMPDEST PUSH32 0x416C726561647920766F74656400000000000000000000000000000000000000 PUSH1 0x0 DUP3 ADD MSTORE POP JUMP JUMPDEST PUSH1 0x0 PUSH2 0xC3D PUSH1 0xD DUP4 PUSH2 0x7CF JUMP JUMPDEST SWAP2 POP PUSH2 0xC48 DUP3 PUSH2 0xC07 JUMP JUMPDEST PUSH1 0x20 DUP3 ADD SWAP1 POP SWAP2 SWAP1 POP JUMP JUMPDEST PUSH1 0x0 PUSH1 0x20 DUP3 ADD SWAP1 POP DUP2 DUP2 SUB PUSH1 0x0 DUP4 ADD MSTORE PUSH2 0xC6C DUP2 PUSH2 0xC30 JUMP JUMPDEST SWAP1 POP SWAP2 SWAP1 POP JUMP JUMPDEST PUSH32 0x4E487B7100000000000000000000000000000000000000000000000000000000 PUSH1 0x0 MSTORE PUSH1 0x11 PUSH1 0x4 MSTORE PUSH1 0x24 PUSH1 0x0 REVERT JUMPDEST PUSH1 0x0 PUSH2 0xCAD DUP3 PUSH2 0x761 JUMP JUMPDEST SWAP2 POP PUSH32 0xFFFFFFFFFFFFFFFFFFFFFFFFFFFFFFFFFFFFFFFFFFFFFFFFFFFFFFFFFFFFFFFF DUP3 SUB PUSH2 0xCDF JUMPI PUSH2 0xCDE PUSH2 0xC73 JUMP JUMPDEST JUMPDEST PUSH1 0x1 DUP3 ADD SWAP1 POP SWAP2 SWAP1 POP JUMP JUMPDEST PUSH32 0x4E487B7100000000000000000000000000000000000000000000000000000000 PUSH1 0x0 MSTORE PUSH1 0x22 PUSH1 0x4 MSTORE PUSH1 0x24 PUSH1 0x0 REVERT JUMPDEST PUSH1 0x0 PUSH1 0x2 DUP3 DIV SWAP1 POP PUSH1 0x1 DUP3 AND DUP1 PUSH2 0xD31 JUMPI PUSH1 0x7F DUP3 AND SWAP2 POP JUMPDEST PUSH1 0x20 DUP3 LT DUP2 SUB PUSH2 0xD44 JUMPI PUSH2 0xD43 PUSH2 0xCEA JUMP JUMPDEST JUMPDEST POP SWAP2 SWAP1 POP JUMP JUMPDEST PUSH32 0x4465736372697074696F6E207265717569726564000000000000000000000000 PUSH1 0x0 DUP3 ADD MSTORE POP JUMP JUMPDEST PUSH1 0x0 PUSH2 0xD80 PUSH1 0x14 DUP4 PUSH2 0x7CF JUMP JUMPDEST SWAP2 POP PUSH2 0xD8B DUP3 PUSH2 0xD4A JUMP JUMPDEST PUSH1 0x20 DUP3 ADD SWAP1 POP SWAP2 SWAP1 POP JUMP JUMPDEST PUSH1 0x0 PUSH1 0x20 DUP3 ADD SWAP1 POP DUP2 DUP2 SUB PUSH1 0x0 DUP4 ADD MSTORE PUSH2 0xDAF DUP2 PUSH2 0xD73 JUMP JUMPDEST SWAP1 POP SWAP2 SWAP1 POP JUMP JUMPDEST PUSH32 0x4475726174696F6E206D75737420626520706F73697469766500000000000000 PUSH1 0x0 DUP3 ADD MSTORE POP JUMP JUMPDEST PUSH1 0x0 PUSH2 0xDEC PUSH1 0x19 DUP4 PUSH2 0x7CF JUMP JUMPDEST SWAP2 POP PUSH2 0xDF7 DUP3 PUSH2 0xDB6 JUMP JUMPDEST PUSH1 0x20 DUP3 ADD SWAP1 POP SWAP2 SWAP1 POP JUMP JUMPDEST PUSH1 0x0 PUSH1 0x20 DUP3 ADD SWAP1 POP DUP2 DUP2 SUB PUSH1 0x0 DUP4 ADD MSTORE PUSH2 0xE1B DUP2 PUSH2 0xDDF JUMP JUMPDEST SWAP1 POP SWAP2 SWAP1 POP JUMP JUMPDEST PUSH1 0x0 DUP2 SWAP1 POP DUP2 PUSH1 0x0 MSTORE PUSH1 0x20 PUSH1 0x0 KECCAK256 SWAP1 POP SWAP2 SWAP1 POP JUMP JUMPDEST PUSH1 0x0 PUSH1 0x20 PUSH1 0x1F DUP4 ADD DIV SWAP1 POP SWAP2 SWAP1 POP JUMP JUMPDEST PUSH1 0x0 DUP3 DUP3 SHL SWAP1 POP SWAP3 SWAP2 POP POP JUMP JUMPDEST PUSH1 0x0 PUSH1 0x8 DUP4 MUL PUSH2 0xE84 PUSH32 0xFFFFFFFFFFFFFFFFFFFFFFFFFFFFFFFFFFFFFFFFFFFFFFFFFFFFFFFFFFFFFFFF DUP3 PUSH2 0xE47 JUMP JUMPDEST PUSH2 0xE8E DUP7 DUP4 PUSH2 0xE47 JUMP JUMPDEST SWAP6 POP DUP1 NOT DUP5 AND SWAP4 POP DUP1 DUP7 AND DUP5 OR SWAP3 POP POP POP SWAP4 SWAP3 POP POP POP JUMP JUMPDEST PUSH1 0x0 DUP2 SWAP1 POP SWAP2 SWAP1 POP JUMP JUMPDEST PUSH1 0x0 PUSH2 0xECB PUSH2 0xEC6 PUSH2 0xEC1 DUP5 PUSH2 0x761 JUMP JUMPDEST PUSH2 0xEA6 JUMP JUMPDEST PUSH2 0x761 JUMP JUMPDEST SWAP1 POP SWAP2 SWAP1 POP JUMP JUMPDEST PUSH1 0x0 DUP2 SWAP1 POP SWAP2 SWAP1 POP JUMP JUMPDEST PUSH2 0xEE5 DUP4 PUSH2 0xEB0 JUMP JUMPDEST PUSH2 0xEF9 PUSH2 0xEF1 DUP3 PUSH2 0xED2 JUMP JUMPDEST DUP5 DUP5 SLOAD PUSH2 0xE54 JUMP JUMPDEST DUP3 SSTORE POP POP POP POP JUMP JUMPDEST PUSH1 0x0 SWAP1 JUMP JUMPDEST PUSH2 0xF0E PUSH2 0xF01 JUMP JUMPDEST PUSH2 0xF19 DUP2 DUP5 DUP5 PUSH2 0xEDC JUMP JUMPDEST POP POP POP JUMP JUMPDEST JUMPDEST DUP2 DUP2 LT ISZERO PUSH2 0xF3D JUMPI PUSH2 0xF32 PUSH1 0x0 DUP3 PUSH2 0xF06 JUMP JUMPDEST PUSH1 0x1 DUP2 ADD SWAP1 POP PUSH2 0xF1F JUMP JUMPDEST POP POP JUMP JUMPDEST PUSH1 0x1F DUP3 GT ISZERO PUSH2 0xF82 JUMPI PUSH2 0xF53 DUP2 PUSH2 0xE22 JUMP JUMPDEST PUSH2 0xF5C DUP5 PUSH2 0xE37 JUMP JUMPDEST DUP2 ADD PUSH1 0x20 DUP6 LT ISZERO PUSH2 0xF6B JUMPI DUP2 SWAP1 POP JUMPDEST PUSH2 0xF7F PUSH2 0xF77 DUP6 PUSH2 0xE37 JUMP JUMPDEST DUP4 ADD DUP3 PUSH2 0xF1E JUMP JUMPDEST POP POP JUMPDEST POP POP POP JUMP JUMPDEST PUSH1 0x0 DUP3 DUP3 SHR SWAP1 POP SWAP3 SWAP2 POP POP JUMP JUMPDEST PUSH1 0x0 PUSH2 0xFA5 PUSH1 0x0 NOT DUP5 PUSH1 0x8 MUL PUSH2 0xF87 JUMP JUMPDEST NOT DUP1 DUP4 AND SWAP2 POP POP SWAP3 SWAP2 POP POP JUMP JUMPDEST PUSH1 0x0 PUSH2 0xFBE DUP4 DUP4 PUSH2 0xF94 JUMP JUMPDEST SWAP2 POP DUP3 PUSH1 0x2 MUL DUP3 OR SWAP1 POP SWAP3 SWAP2 POP POP JUMP JUMPDEST PUSH2 0xFD7 DUP3 PUSH2 0x7C4 JUMP JUMPDEST PUSH8 0xFFFFFFFFFFFFFFFF DUP2 GT ISZERO PUSH2 0xFF0 JUMPI PUSH2 0xFEF PUSH2 0x8D4 JUMP JUMPDEST JUMPDEST PUSH2 0xFFA DUP3 SLOAD PUSH2 0xD19 JUMP JUMPDEST PUSH2 0x1005 DUP3 DUP3 DUP6 PUSH2 0xF41 JUMP JUMPDEST PUSH1 0x0 PUSH1 0x20 SWAP1 POP PUSH1 0x1F DUP4 GT PUSH1 0x1 DUP2 EQ PUSH2 0x1038 JUMPI PUSH1 0x0 DUP5 ISZERO PUSH2 0x1026 JUMPI DUP3 DUP8 ADD MLOAD SWAP1 POP JUMPDEST PUSH2 0x1030 DUP6 DUP3 PUSH2 0xFB2 JUMP JUMPDEST DUP7 SSTORE POP PUSH2 0x1098 JUMP JUMPDEST PUSH1 0x1F NOT DUP5 AND PUSH2 0x1046 DUP7 PUSH2 0xE22 JUMP JUMPDEST PUSH1 0x0 JUMPDEST DUP3 DUP2 LT ISZERO PUSH2 0x106E JUMPI DUP5 DUP10 ADD MLOAD DUP3 SSTORE PUSH1 0x1 DUP3 ADD SWAP2 POP PUSH1 0x20 DUP6 ADD SWAP5 POP PUSH1 0x20 DUP2 ADD SWAP1 POP PUSH2 0x1049 JUMP JUMPDEST DUP7 DUP4 LT ISZERO PUSH2 0x108B JUMPI DUP5 DUP10 ADD MLOAD PUSH2 0x1087 PUSH1 0x1F DUP10 AND DUP3 PUSH2 0xF94 JUMP JUMPDEST DUP4 SSTORE POP JUMPDEST PUSH1 0x1 PUSH1 0x2 DUP9 MUL ADD DUP9 SSTORE POP POP POP JUMPDEST POP POP POP POP POP POP JUMP JUMPDEST PUSH1 0x0 PUSH2 0x10AB DUP3 PUSH2 0x761 JUMP JUMPDEST SWAP2 POP PUSH2 0x10B6 DUP4 PUSH2 0x761 JUMP JUMPDEST SWAP3 POP DUP3 DUP3 ADD SWAP1 POP DUP1 DUP3 GT ISZERO PUSH2 0x10CE JUMPI PUSH2 0x10CD PUSH2 0xC73 JUMP JUMPDEST JUMPDEST SWAP3 SWAP2 POP POP JUMP INVALID LOG2 PUSH5 0x6970667358 0x22 SLT KECCAK256 0xDF SHR STOP LOG1 EQ SWAP7 0x2F DUP5 ADDMOD 0xE9 PUSH2 0xB1A EXTCODESIZE LOG2 DUP6 PUSH2 0x4635 0xBA DUP16 PUSH14 0xE7B1175E1A445EAF540B64736F6C PUSH4 0x4300081E STOP CALLER "
				},
				"gasEstimates": {
					"creation": {
						"codeDepositCost": "872400",
						"executionCost": "909",
						"totalCost": "873309"
					},
					"external": {
						"createProposal(string,uint256)": "infinite",
						"getProposalInfo(uint256)": "infinite",
						"getWinningProposal()": "infinite",
						"hasVoted(uint256,address)": "5263",
						"proposalCount()": "2495",
						"proposals(uint256)": "infinite",
						"vote(uint256)": "infinite"
					}
				},
				"methodIdentifiers": {
					"createProposal(string,uint256)": "35facf78",
					"getProposalInfo(uint256)": "bc903cb8",
					"getWinningProposal()": "a5134620",
					"hasVoted(uint256,address)": "43859632",
					"proposalCount()": "da35c664",
					"proposals(uint256)": "013cf08b",
					"vote(uint256)": "0121b93f"
				}
			},
			"storageLayout": {
				"storage": [
					{
						"astId": 19,
						"contract": "practise3.2/VotingSystem.sol:VotingSystem",
						"label": "proposals",
						"offset": 0,
						"slot": "0",
						"type": "t_mapping(t_uint256,t_struct(Proposal)14_storage)"
					},
					{
						"astId": 21,
						"contract": "practise3.2/VotingSystem.sol:VotingSystem",
						"label": "proposalCount",
						"offset": 0,
						"slot": "1",
						"type": "t_uint256"
					}
				],
				"types": {
					"t_address": {
						"encoding": "inplace",
						"label": "address",
						"numberOfBytes": "20"
					},
					"t_bool": {
						"encoding": "inplace",
						"label": "bool",
						"numberOfBytes": "1"
					},
					"t_mapping(t_address,t_bool)": {
						"encoding": "mapping",
						"key": "t_address",
						"label": "mapping(address => bool)",
						"numberOfBytes": "32",
						"value": "t_bool"
					},
					"t_mapping(t_uint256,t_struct(Proposal)14_storage)": {
						"encoding": "mapping",
						"key": "t_uint256",
						"label": "mapping(uint256 => struct VotingSystem.Proposal)",
						"numberOfBytes": "32",
						"value": "t_struct(Proposal)14_storage"
					},
					"t_string_storage": {
						"encoding": "bytes",
						"label": "string",
						"numberOfBytes": "32"
					},
					"t_struct(Proposal)14_storage": {
						"encoding": "inplace",
						"label": "struct VotingSystem.Proposal",
						"members": [
							{
								"astId": 3,
								"contract": "practise3.2/VotingSystem.sol:VotingSystem",
								"label": "description",
								"offset": 0,
								"slot": "0",
								"type": "t_string_storage"
							},
							{
								"astId": 5,
								"contract": "practise3.2/VotingSystem.sol:VotingSystem",
								"label": "voteCount",
								"offset": 0,
								"slot": "1",
								"type": "t_uint256"
							},
							{
								"astId": 7,
								"contract": "practise3.2/VotingSystem.sol:VotingSystem",
								"label": "deadline",
								"offset": 0,
								"slot": "2",
								"type": "t_uint256"
							},
							{
								"astId": 9,
								"contract": "practise3.2/VotingSystem.sol:VotingSystem",
								"label": "executed",
								"offset": 0,
								"slot": "3",
								"type": "t_bool"
							},
							{
								"astId": 13,
								"contract": "practise3.2/VotingSystem.sol:VotingSystem",
								"label": "voters",
								"offset": 0,
								"slot": "4",
								"type": "t_mapping(t_address,t_bool)"
							}
						],
						"numberOfBytes": "160"
					},
					"t_uint256": {
						"encoding": "inplace",
						"label": "uint256",
						"numberOfBytes": "32"
					}
				}
			},
			"userdoc": {
				"kind": "user",
				"methods": {},
				"version": 1
			}
		}
	}
}