{
	"task1/Tiltles.sol": {
		"Titles": {
			"abi": [
				{
					"inputs": [],
					"stateMutability": "nonpayable",
					"type": "constructor"
				},
				{
					"inputs": [
						{
							"internalType": "uint256[]",
							"name": "arr",
							"type": "uint256[]"
						},
						{
							"internalType": "uint256",
							"name": "num",
							"type": "uint256"
						}
					],
					"name": "BinarySearch",
					"outputs": [
						{
							"internalType": "int256",
							"name": "",
							"type": "int256"
						}
					],
					"stateMutability": "pure",
					"type": "function"
				},
				{
					"inputs": [
						{
							"internalType": "uint256[]",
							"name": "arr1",
							"type": "uint256[]"
						},
						{
							"internalType": "uint256[]",
							"name": "arr2",
							"type": "uint256[]"
						}
					],
					"name": "megerSortArray",
					"outputs": [
						{
							"internalType": "uint256[]",
							"name": "",
							"type": "uint256[]"
						}
					],
					"stateMutability": "pure",
					"type": "function"
				},
				{
					"inputs": [
						{
							"internalType": "string",
							"name": "s",
							"type": "string"
						}
					],
					"name": "reverseString",
					"outputs": [
						{
							"internalType": "string",
							"name": "",
							"type": "string"
						}
					],
					"stateMutability": "pure",
					"type": "function"
				},
				{
					"inputs": [
						{
							"internalType": "string",
							"name": "s",
							"type": "string"
						}
					],
					"name": "romanToInt",
					"outputs": [
						{
							"internalType": "int256",
							"name": "",
							"type": "int256"
						}
					],
					"stateMutability": "view",
					"type": "function"
				},
				{
					"inputs": [
						{
							"internalType": "uint256",
							"name": "num",
							"type": "uint256"
						}
					],
					"name": "uintToRoman",
					"outputs": [
						{
							"internalType": "string",
							"name": "",
							"type": "string"
						}
					],
					"stateMutability": "pure",
					"type": "function"
				}
			],
			"devdoc": {
				"kind": "dev",
				"methods": {},
				"version": 1
			},
			"evm": {
				"assembly": "    /* \"task1/Tiltles.sol\":56:3236  contract Titles {... */\n  mstore(0x40, 0x80)\n    /* \"task1/Tiltles.sol\":163:645  constructor (){... */\n  callvalue\n  dup1\n  iszero\n  tag_1\n  jumpi\n  0x00\n  dup1\n  revert\ntag_1:\n  pop\n    /* \"task1/Tiltles.sol\":210:211  1 */\n  0x01\n    /* \"task1/Tiltles.sol\":191:202  romanToInts */\n  0x00\n    /* \"task1/Tiltles.sol\":191:207  romanToInts['I'] */\n  dup1\n  and(not(0xffffffffffffffffffffffffffffffffffffffffffffffffffffffffffffff), 0x4900000000000000000000000000000000000000000000000000000000000000)\n  dup2\n  mstore\n  0x20\n  add\n  swap1\n  dup2\n  mstore\n  0x20\n  add\n  0x00\n  keccak256\n    /* \"task1/Tiltles.sol\":191:211  romanToInts['I'] = 1 */\n  dup2\n  swap1\n  sstore\n  pop\n    /* \"task1/Tiltles.sol\":244:245  5 */\n  0x05\n    /* \"task1/Tiltles.sol\":225:236  romanToInts */\n  0x00\n    /* \"task1/Tiltles.sol\":225:241  romanToInts['V'] */\n  dup1\n  and(not(0xffffffffffffffffffffffffffffffffffffffffffffffffffffffffffffff), 0x5600000000000000000000000000000000000000000000000000000000000000)\n  dup2\n  mstore\n  0x20\n  add\n  swap1\n  dup2\n  mstore\n  0x20\n  add\n  0x00\n  keccak256\n    /* \"task1/Tiltles.sol\":225:245  romanToInts['V'] = 5 */\n  dup2\n  swap1\n  sstore\n  pop\n    /* \"task1/Tiltles.sol\":278:280  10 */\n  0x0a\n    /* \"task1/Tiltles.sol\":259:270  romanToInts */\n  0x00\n    /* \"task1/Tiltles.sol\":259:275  romanToInts['X'] */\n  dup1\n  and(not(0xffffffffffffffffffffffffffffffffffffffffffffffffffffffffffffff), 0x5800000000000000000000000000000000000000000000000000000000000000)\n  dup2\n  mstore\n  0x20\n  add\n  swap1\n  dup2\n  mstore\n  0x20\n  add\n  0x00\n  keccak256\n    /* \"task1/Tiltles.sol\":259:280  romanToInts['X'] = 10 */\n  dup2\n  swap1\n  sstore\n  pop\n    /* \"task1/Tiltles.sol\":313:315  50 */\n  0x32\n    /* \"task1/Tiltles.sol\":294:305  romanToInts */\n  0x00\n    /* \"task1/Tiltles.sol\":294:310  romanToInts['L'] */\n  dup1\n  and(not(0xffffffffffffffffffffffffffffffffffffffffffffffffffffffffffffff), 0x4c00000000000000000000000000000000000000000000000000000000000000)\n  dup2\n  mstore\n  0x20\n  add\n  swap1\n  dup2\n  mstore\n  0x20\n  add\n  0x00\n  keccak256\n    /* \"task1/Tiltles.sol\":294:315  romanToInts['L'] = 50 */\n  dup2\n  swap1\n  sstore\n  pop\n    /* \"task1/Tiltles.sol\":348:351  100 */\n  0x64\n    /* \"task1/Tiltles.sol\":329:340  romanToInts */\n  0x00\n    /* \"task1/Tiltles.sol\":329:345  romanToInts['C'] */\n  dup1\n  and(not(0xffffffffffffffffffffffffffffffffffffffffffffffffffffffffffffff), 0x4300000000000000000000000000000000000000000000000000000000000000)\n  dup2\n  mstore\n  0x20\n  add\n  swap1\n  dup2\n  mstore\n  0x20\n  add\n  0x00\n  keccak256\n    /* \"task1/Tiltles.sol\":329:351  romanToInts['C'] = 100 */\n  dup2\n  swap1\n  sstore\n  pop\n    /* \"task1/Tiltles.sol\":384:387  500 */\n  0x01f4\n    /* \"task1/Tiltles.sol\":365:376  romanToInts */\n  0x00\n    /* \"task1/Tiltles.sol\":365:381  romanToInts['D'] */\n  dup1\n  and(not(0xffffffffffffffffffffffffffffffffffffffffffffffffffffffffffffff), 0x4400000000000000000000000000000000000000000000000000000000000000)\n  dup2\n  mstore\n  0x20\n  add\n  swap1\n  dup2\n  mstore\n  0x20\n  add\n  0x00\n  keccak256\n    /* \"task1/Tiltles.sol\":365:387  romanToInts['D'] = 500 */\n  dup2\n  swap1\n  sstore\n  pop\n    /* \"task1/Tiltles.sol\":420:424  1000 */\n  0x03e8\n    /* \"task1/Tiltles.sol\":401:412  romanToInts */\n  0x00\n    /* \"task1/Tiltles.sol\":401:417  romanToInts['M'] */\n  dup1\n  and(not(0xffffffffffffffffffffffffffffffffffffffffffffffffffffffffffffff), 0x4d00000000000000000000000000000000000000000000000000000000000000)\n  dup2\n  mstore\n  0x20\n  add\n  swap1\n  dup2\n  mstore\n  0x20\n  add\n  0x00\n  keccak256\n    /* \"task1/Tiltles.sol\":401:424  romanToInts['M'] = 1000 */\n  dup2\n  swap1\n  sstore\n  pop\n    /* \"task1/Tiltles.sol\":438:453  romans[1] = 'I' */\n  0x4900000000000000000000000000000000000000000000000000000000000000\n    /* \"task1/Tiltles.sol\":438:444  romans */\n  0x01\n    /* \"task1/Tiltles.sol\":438:447  romans[1] */\n  0x00\n    /* \"task1/Tiltles.sol\":445:446  1 */\n  0x01\n    /* \"task1/Tiltles.sol\":438:447  romans[1] */\n  dup2\n  mstore\n  0x20\n  add\n  swap1\n  dup2\n  mstore\n  0x20\n  add\n  0x00\n  keccak256\n  0x00\n    /* \"task1/Tiltles.sol\":438:453  romans[1] = 'I' */\n  0x0100\n  exp\n  dup2\n  sload\n  dup2\n  0xff\n  mul\n  not\n  and\n  swap1\n  dup4\n  0xf8\n  shr\n  mul\n  or\n  swap1\n  sstore\n  pop\n    /* \"task1/Tiltles.sol\":467:482  romans[5] = 'V' */\n  0x5600000000000000000000000000000000000000000000000000000000000000\n    /* \"task1/Tiltles.sol\":467:473  romans */\n  0x01\n    /* \"task1/Tiltles.sol\":467:476  romans[5] */\n  0x00\n    /* \"task1/Tiltles.sol\":474:475  5 */\n  0x05\n    /* \"task1/Tiltles.sol\":467:476  romans[5] */\n  dup2\n  mstore\n  0x20\n  add\n  swap1\n  dup2\n  mstore\n  0x20\n  add\n  0x00\n  keccak256\n  0x00\n    /* \"task1/Tiltles.sol\":467:482  romans[5] = 'V' */\n  0x0100\n  exp\n  dup2\n  sload\n  dup2\n  0xff\n  mul\n  not\n  and\n  swap1\n  dup4\n  0xf8\n  shr\n  mul\n  or\n  swap1\n  sstore\n  pop\n    /* \"task1/Tiltles.sol\":496:512  romans[10] = 'X' */\n  0x5800000000000000000000000000000000000000000000000000000000000000\n    /* \"task1/Tiltles.sol\":496:502  romans */\n  0x01\n    /* \"task1/Tiltles.sol\":496:506  romans[10] */\n  0x00\n    /* \"task1/Tiltles.sol\":503:505  10 */\n  0x0a\n    /* \"task1/Tiltles.sol\":496:506  romans[10] */\n  dup2\n  mstore\n  0x20\n  add\n  swap1\n  dup2\n  mstore\n  0x20\n  add\n  0x00\n  keccak256\n  0x00\n    /* \"task1/Tiltles.sol\":496:512  romans[10] = 'X' */\n  0x0100\n  exp\n  dup2\n  sload\n  dup2\n  0xff\n  mul\n  not\n  and\n  swap1\n  dup4\n  0xf8\n  shr\n  mul\n  or\n  swap1\n  sstore\n  pop\n    /* \"task1/Tiltles.sol\":526:542  romans[50] = 'L' */\n  0x4c00000000000000000000000000000000000000000000000000000000000000\n    /* \"task1/Tiltles.sol\":526:532  romans */\n  0x01\n    /* \"task1/Tiltles.sol\":526:536  romans[50] */\n  0x00\n    /* \"task1/Tiltles.sol\":533:535  50 */\n  0x32\n    /* \"task1/Tiltles.sol\":526:536  romans[50] */\n  dup2\n  mstore\n  0x20\n  add\n  swap1\n  dup2\n  mstore\n  0x20\n  add\n  0x00\n  keccak256\n  0x00\n    /* \"task1/Tiltles.sol\":526:542  romans[50] = 'L' */\n  0x0100\n  exp\n  dup2\n  sload\n  dup2\n  0xff\n  mul\n  not\n  and\n  swap1\n  dup4\n  0xf8\n  shr\n  mul\n  or\n  swap1\n  sstore\n  pop\n    /* \"task1/Tiltles.sol\":556:573  romans[100] = 'C' */\n  0x4300000000000000000000000000000000000000000000000000000000000000\n    /* \"task1/Tiltles.sol\":556:562  romans */\n  0x01\n    /* \"task1/Tiltles.sol\":556:567  romans[100] */\n  0x00\n    /* \"task1/Tiltles.sol\":563:566  100 */\n  0x64\n    /* \"task1/Tiltles.sol\":556:567  romans[100] */\n  dup2\n  mstore\n  0x20\n  add\n  swap1\n  dup2\n  mstore\n  0x20\n  add\n  0x00\n  keccak256\n  0x00\n    /* \"task1/Tiltles.sol\":556:573  romans[100] = 'C' */\n  0x0100\n  exp\n  dup2\n  sload\n  dup2\n  0xff\n  mul\n  not\n  and\n  swap1\n  dup4\n  0xf8\n  shr\n  mul\n  or\n  swap1\n  sstore\n  pop\n    /* \"task1/Tiltles.sol\":587:604  romans[500] = 'D' */\n  0x4400000000000000000000000000000000000000000000000000000000000000\n    /* \"task1/Tiltles.sol\":587:593  romans */\n  0x01\n    /* \"task1/Tiltles.sol\":587:598  romans[500] */\n  0x00\n    /* \"task1/Tiltles.sol\":594:597  500 */\n  0x01f4\n    /* \"task1/Tiltles.sol\":587:598  romans[500] */\n  dup2\n  mstore\n  0x20\n  add\n  swap1\n  dup2\n  mstore\n  0x20\n  add\n  0x00\n  keccak256\n  0x00\n    /* \"task1/Tiltles.sol\":587:604  romans[500] = 'D' */\n  0x0100\n  exp\n  dup2\n  sload\n  dup2\n  0xff\n  mul\n  not\n  and\n  swap1\n  dup4\n  0xf8\n  shr\n  mul\n  or\n  swap1\n  sstore\n  pop\n    /* \"task1/Tiltles.sol\":618:636  romans[1000] = 'M' */\n  0x4d00000000000000000000000000000000000000000000000000000000000000\n    /* \"task1/Tiltles.sol\":618:624  romans */\n  0x01\n    /* \"task1/Tiltles.sol\":618:630  romans[1000] */\n  0x00\n    /* \"task1/Tiltles.sol\":625:629  1000 */\n  0x03e8\n    /* \"task1/Tiltles.sol\":618:630  romans[1000] */\n  dup2\n  mstore\n  0x20\n  add\n  swap1\n  dup2\n  mstore\n  0x20\n  add\n  0x00\n  keccak256\n  0x00\n    /* \"task1/Tiltles.sol\":618:636  romans[1000] = 'M' */\n  0x0100\n  exp\n  dup2\n  sload\n  dup2\n  0xff\n  mul\n  not\n  and\n  swap1\n  dup4\n  0xf8\n  shr\n  mul\n  or\n  swap1\n  sstore\n  pop\n    /* \"task1/Tiltles.sol\":56:3236  contract Titles {... */\n  dataSize(sub_0)\n  dup1\n  dataOffset(sub_0)\n  0x00\n  codecopy\n  0x00\n  return\nstop\n\nsub_0: assembly {\n        /* \"task1/Tiltles.sol\":56:3236  contract Titles {... */\n      mstore(0x40, 0x80)\n      callvalue\n      dup1\n      iszero\n      tag_1\n      jumpi\n      0x00\n      dup1\n      revert\n    tag_1:\n      pop\n      jumpi(tag_2, lt(calldatasize, 0x04))\n      shr(0xe0, calldataload(0x00))\n      dup1\n      0x5729c211\n      eq\n      tag_3\n      jumpi\n      dup1\n      0xbf5021e3\n      eq\n      tag_4\n      jumpi\n      dup1\n      0xcb159dfe\n      eq\n      tag_5\n      jumpi\n      dup1\n      0xe35d0f99\n      eq\n      tag_6\n      jumpi\n      dup1\n      0xfa08d35f\n      eq\n      tag_7\n      jumpi\n    tag_2:\n      0x00\n      dup1\n      revert\n        /* \"task1/Tiltles.sol\":652:998  function reverseString(string memory s)public  pure   returns (string memory){... */\n    tag_3:\n      tag_8\n      0x04\n      dup1\n      calldatasize\n      sub\n      dup2\n      add\n      swap1\n      tag_9\n      swap2\n      swap1\n      tag_10\n      jump\t// in\n    tag_9:\n      tag_11\n      jump\t// in\n    tag_8:\n      mload(0x40)\n      tag_12\n      swap2\n      swap1\n      tag_13\n      jump\t// in\n    tag_12:\n      mload(0x40)\n      dup1\n      swap2\n      sub\n      swap1\n      return\n        /* \"task1/Tiltles.sol\":1480:2012  function uintToRoman(uint num) public  pure   returns  (string memory){... */\n    tag_4:\n      tag_14\n      0x04\n      dup1\n      calldatasize\n      sub\n      dup2\n      add\n      swap1\n      tag_15\n      swap2\n      swap1\n      tag_16\n      jump\t// in\n    tag_15:\n      tag_17\n      jump\t// in\n    tag_14:\n      mload(0x40)\n      tag_18\n      swap2\n      swap1\n      tag_13\n      jump\t// in\n    tag_18:\n      mload(0x40)\n      dup1\n      swap2\n      sub\n      swap1\n      return\n        /* \"task1/Tiltles.sol\":1004:1476  function  romanToInt(string memory s) public view  returns  (int) {... */\n    tag_5:\n      tag_19\n      0x04\n      dup1\n      calldatasize\n      sub\n      dup2\n      add\n      swap1\n      tag_20\n      swap2\n      swap1\n      tag_10\n      jump\t// in\n    tag_20:\n      tag_21\n      jump\t// in\n    tag_19:\n      mload(0x40)\n      tag_22\n      swap2\n      swap1\n      tag_23\n      jump\t// in\n    tag_22:\n      mload(0x40)\n      dup1\n      swap2\n      sub\n      swap1\n      return\n        /* \"task1/Tiltles.sol\":2671:3234  function BinarySearch(uint[] calldata arr,uint num) public  pure  returns (int){... */\n    tag_6:\n      tag_24\n      0x04\n      dup1\n      calldatasize\n      sub\n      dup2\n      add\n      swap1\n      tag_25\n      swap2\n      swap1\n      tag_26\n      jump\t// in\n    tag_25:\n      tag_27\n      jump\t// in\n    tag_24:\n      mload(0x40)\n      tag_28\n      swap2\n      swap1\n      tag_23\n      jump\t// in\n    tag_28:\n      mload(0x40)\n      dup1\n      swap2\n      sub\n      swap1\n      return\n        /* \"task1/Tiltles.sol\":2083:2617  function megerSortArray(uint[] calldata arr1,uint[] calldata arr2) public  pure   returns (uint[] memory){... */\n    tag_7:\n      tag_29\n      0x04\n      dup1\n      calldatasize\n      sub\n      dup2\n      add\n      swap1\n      tag_30\n      swap2\n      swap1\n      tag_31\n      jump\t// in\n    tag_30:\n      tag_32\n      jump\t// in\n    tag_29:\n      mload(0x40)\n      tag_33\n      swap2\n      swap1\n      tag_34\n      jump\t// in\n    tag_33:\n      mload(0x40)\n      dup1\n      swap2\n      sub\n      swap1\n      return\n        /* \"task1/Tiltles.sol\":652:998  function reverseString(string memory s)public  pure   returns (string memory){... */\n    tag_11:\n        /* \"task1/Tiltles.sol\":715:728  string memory */\n      0x60\n        /* \"task1/Tiltles.sol\":739:760  bytes memory bytesStr */\n      0x00\n        /* \"task1/Tiltles.sol\":769:770  s */\n      dup3\n        /* \"task1/Tiltles.sol\":739:771  bytes memory bytesStr = bytes(s) */\n      swap1\n      pop\n        /* \"task1/Tiltles.sol\":781:789  uint len */\n      0x00\n        /* \"task1/Tiltles.sol\":792:800  bytesStr */\n      dup2\n        /* \"task1/Tiltles.sol\":792:807  bytesStr.length */\n      mload\n        /* \"task1/Tiltles.sol\":781:807  uint len = bytesStr.length */\n      swap1\n      pop\n        /* \"task1/Tiltles.sol\":817:839  bytes memory resultStr */\n      0x00\n        /* \"task1/Tiltles.sol\":852:855  len */\n      dup2\n        /* \"task1/Tiltles.sol\":842:856  new bytes(len) */\n      0xffffffffffffffff\n      dup2\n      gt\n      iszero\n      tag_36\n      jumpi\n      tag_37\n      tag_38\n      jump\t// in\n    tag_37:\n    tag_36:\n      mload(0x40)\n      swap1\n      dup1\n      dup3\n      mstore\n      dup1\n      0x1f\n      add\n      not(0x1f)\n      and\n      0x20\n      add\n      dup3\n      add\n      0x40\n      mstore\n      dup1\n      iszero\n      tag_39\n      jumpi\n      dup2\n      0x20\n      add\n      0x01\n      dup3\n      mul\n      dup1\n      calldatasize\n      dup4\n      calldatacopy\n      dup1\n      dup3\n      add\n      swap2\n      pop\n      pop\n      swap1\n      pop\n    tag_39:\n      pop\n        /* \"task1/Tiltles.sol\":817:856  bytes memory resultStr = new bytes(len) */\n      swap1\n      pop\n        /* \"task1/Tiltles.sol\":871:877  uint i */\n      0x00\n        /* \"task1/Tiltles.sol\":866:956  for (uint i = 0; i< len; i ++){... */\n    tag_40:\n        /* \"task1/Tiltles.sol\":886:889  len */\n      dup3\n        /* \"task1/Tiltles.sol\":883:884  i */\n      dup2\n        /* \"task1/Tiltles.sol\":883:889  i< len */\n      lt\n        /* \"task1/Tiltles.sol\":866:956  for (uint i = 0; i< len; i ++){... */\n      iszero\n      tag_41\n      jumpi\n        /* \"task1/Tiltles.sol\":927:935  bytesStr */\n      dup4\n        /* \"task1/Tiltles.sol\":943:944  1 */\n      0x01\n        /* \"task1/Tiltles.sol\":941:942  i */\n      dup3\n        /* \"task1/Tiltles.sol\":936:939  len */\n      dup6\n        /* \"task1/Tiltles.sol\":936:942  len -i */\n      tag_43\n      swap2\n      swap1\n      tag_44\n      jump\t// in\n    tag_43:\n        /* \"task1/Tiltles.sol\":936:944  len -i-1 */\n      tag_45\n      swap2\n      swap1\n      tag_44\n      jump\t// in\n    tag_45:\n        /* \"task1/Tiltles.sol\":927:945  bytesStr[len -i-1] */\n      dup2\n      mload\n      dup2\n      lt\n      tag_46\n      jumpi\n      tag_47\n      tag_48\n      jump\t// in\n    tag_47:\n    tag_46:\n      0x20\n      add\n      add\n      mload\n      0xf8\n      shr\n      0xf8\n      shl\n        /* \"task1/Tiltles.sol\":912:921  resultStr */\n      dup3\n        /* \"task1/Tiltles.sol\":922:923  i */\n      dup3\n        /* \"task1/Tiltles.sol\":912:924  resultStr[i] */\n      dup2\n      mload\n      dup2\n      lt\n      tag_49\n      jumpi\n      tag_50\n      tag_48\n      jump\t// in\n    tag_50:\n    tag_49:\n      0x20\n      add\n      add\n        /* \"task1/Tiltles.sol\":912:945  resultStr[i] = bytesStr[len -i-1] */\n      swap1\n      not(0xffffffffffffffffffffffffffffffffffffffffffffffffffffffffffffff)\n      and\n      swap1\n      dup2\n      0x00\n      byte\n      swap1\n      mstore8\n      pop\n        /* \"task1/Tiltles.sol\":891:895  i ++ */\n      dup1\n      dup1\n      0x01\n      add\n      swap2\n      pop\n      pop\n        /* \"task1/Tiltles.sol\":866:956  for (uint i = 0; i< len; i ++){... */\n      jump(tag_40)\n    tag_41:\n      pop\n        /* \"task1/Tiltles.sol\":980:989  resultStr */\n      dup1\n        /* \"task1/Tiltles.sol\":965:990  return  string(resultStr) */\n      swap4\n      pop\n      pop\n      pop\n      pop\n        /* \"task1/Tiltles.sol\":652:998  function reverseString(string memory s)public  pure   returns (string memory){... */\n      swap2\n      swap1\n      pop\n      jump\t// out\n        /* \"task1/Tiltles.sol\":1480:2012  function uintToRoman(uint num) public  pure   returns  (string memory){... */\n    tag_17:\n        /* \"task1/Tiltles.sol\":1536:1549  string memory */\n      0x60\n        /* \"task1/Tiltles.sol\":1558:1581  uint256[13] memory keys */\n      0x00\n        /* \"task1/Tiltles.sol\":1558:1647  uint256[13] memory keys = [uint256(1000), 900, 500, 400, 100, 90, 50, 40, 10, 9, 5, 4, 1] */\n      mload(0x40)\n      dup1\n      0x01a0\n      add\n      0x40\n      mstore\n      dup1\n        /* \"task1/Tiltles.sol\":1593:1597  1000 */\n      0x03e8\n        /* \"task1/Tiltles.sol\":1558:1647  uint256[13] memory keys = [uint256(1000), 900, 500, 400, 100, 90, 50, 40, 10, 9, 5, 4, 1] */\n      dup2\n      mstore\n      0x20\n      add\n        /* \"task1/Tiltles.sol\":1600:1603  900 */\n      0x0384\n        /* \"task1/Tiltles.sol\":1558:1647  uint256[13] memory keys = [uint256(1000), 900, 500, 400, 100, 90, 50, 40, 10, 9, 5, 4, 1] */\n      dup2\n      mstore\n      0x20\n      add\n        /* \"task1/Tiltles.sol\":1605:1608  500 */\n      0x01f4\n        /* \"task1/Tiltles.sol\":1558:1647  uint256[13] memory keys = [uint256(1000), 900, 500, 400, 100, 90, 50, 40, 10, 9, 5, 4, 1] */\n      dup2\n      mstore\n      0x20\n      add\n        /* \"task1/Tiltles.sol\":1610:1613  400 */\n      0x0190\n        /* \"task1/Tiltles.sol\":1558:1647  uint256[13] memory keys = [uint256(1000), 900, 500, 400, 100, 90, 50, 40, 10, 9, 5, 4, 1] */\n      dup2\n      mstore\n      0x20\n      add\n        /* \"task1/Tiltles.sol\":1615:1618  100 */\n      0x64\n        /* \"task1/Tiltles.sol\":1558:1647  uint256[13] memory keys = [uint256(1000), 900, 500, 400, 100, 90, 50, 40, 10, 9, 5, 4, 1] */\n      dup2\n      mstore\n      0x20\n      add\n        /* \"task1/Tiltles.sol\":1620:1622  90 */\n      0x5a\n        /* \"task1/Tiltles.sol\":1558:1647  uint256[13] memory keys = [uint256(1000), 900, 500, 400, 100, 90, 50, 40, 10, 9, 5, 4, 1] */\n      dup2\n      mstore\n      0x20\n      add\n        /* \"task1/Tiltles.sol\":1624:1626  50 */\n      0x32\n        /* \"task1/Tiltles.sol\":1558:1647  uint256[13] memory keys = [uint256(1000), 900, 500, 400, 100, 90, 50, 40, 10, 9, 5, 4, 1] */\n      dup2\n      mstore\n      0x20\n      add\n        /* \"task1/Tiltles.sol\":1628:1630  40 */\n      0x28\n        /* \"task1/Tiltles.sol\":1558:1647  uint256[13] memory keys = [uint256(1000), 900, 500, 400, 100, 90, 50, 40, 10, 9, 5, 4, 1] */\n      dup2\n      mstore\n      0x20\n      add\n        /* \"task1/Tiltles.sol\":1632:1634  10 */\n      0x0a\n        /* \"task1/Tiltles.sol\":1558:1647  uint256[13] memory keys = [uint256(1000), 900, 500, 400, 100, 90, 50, 40, 10, 9, 5, 4, 1] */\n      dup2\n      mstore\n      0x20\n      add\n        /* \"task1/Tiltles.sol\":1636:1637  9 */\n      0x09\n        /* \"task1/Tiltles.sol\":1558:1647  uint256[13] memory keys = [uint256(1000), 900, 500, 400, 100, 90, 50, 40, 10, 9, 5, 4, 1] */\n      dup2\n      mstore\n      0x20\n      add\n        /* \"task1/Tiltles.sol\":1639:1640  5 */\n      0x05\n        /* \"task1/Tiltles.sol\":1558:1647  uint256[13] memory keys = [uint256(1000), 900, 500, 400, 100, 90, 50, 40, 10, 9, 5, 4, 1] */\n      dup2\n      mstore\n      0x20\n      add\n        /* \"task1/Tiltles.sol\":1642:1643  4 */\n      0x04\n        /* \"task1/Tiltles.sol\":1558:1647  uint256[13] memory keys = [uint256(1000), 900, 500, 400, 100, 90, 50, 40, 10, 9, 5, 4, 1] */\n      dup2\n      mstore\n      0x20\n      add\n        /* \"task1/Tiltles.sol\":1645:1646  1 */\n      0x01\n        /* \"task1/Tiltles.sol\":1558:1647  uint256[13] memory keys = [uint256(1000), 900, 500, 400, 100, 90, 50, 40, 10, 9, 5, 4, 1] */\n      dup2\n      mstore\n      pop\n      swap1\n      pop\n        /* \"task1/Tiltles.sol\":1656:1680  string[13] memory values */\n      0x00\n        /* \"task1/Tiltles.sol\":1656:1754  string[13] memory values = [\"M\", \"CM\", \"D\", \"CD\", \"C\", \"XC\", \"L\", \"XL\", \"X\", \"IX\", \"V\", \"IV\", \"I\"] */\n      mload(0x40)\n      dup1\n      0x01a0\n      add\n      0x40\n      mstore\n      dup1\n      mload(0x40)\n      dup1\n      0x40\n      add\n      0x40\n      mstore\n      dup1\n      0x01\n      dup2\n      mstore\n      0x20\n      add\n      0x4d00000000000000000000000000000000000000000000000000000000000000\n      dup2\n      mstore\n      pop\n      dup2\n      mstore\n      0x20\n      add\n      mload(0x40)\n      dup1\n      0x40\n      add\n      0x40\n      mstore\n      dup1\n      0x02\n      dup2\n      mstore\n      0x20\n      add\n      0x434d000000000000000000000000000000000000000000000000000000000000\n      dup2\n      mstore\n      pop\n      dup2\n      mstore\n      0x20\n      add\n      mload(0x40)\n      dup1\n      0x40\n      add\n      0x40\n      mstore\n      dup1\n      0x01\n      dup2\n      mstore\n      0x20\n      add\n      0x4400000000000000000000000000000000000000000000000000000000000000\n      dup2\n      mstore\n      pop\n      dup2\n      mstore\n      0x20\n      add\n      mload(0x40)\n      dup1\n      0x40\n      add\n      0x40\n      mstore\n      dup1\n      0x02\n      dup2\n      mstore\n      0x20\n      add\n      0x4344000000000000000000000000000000000000000000000000000000000000\n      dup2\n      mstore\n      pop\n      dup2\n      mstore\n      0x20\n      add\n      mload(0x40)\n      dup1\n      0x40\n      add\n      0x40\n      mstore\n      dup1\n      0x01\n      dup2\n      mstore\n      0x20\n      add\n      0x4300000000000000000000000000000000000000000000000000000000000000\n      dup2\n      mstore\n      pop\n      dup2\n      mstore\n      0x20\n      add\n      mload(0x40)\n      dup1\n      0x40\n      add\n      0x40\n      mstore\n      dup1\n      0x02\n      dup2\n      mstore\n      0x20\n      add\n      0x5843000000000000000000000000000000000000000000000000000000000000\n      dup2\n      mstore\n      pop\n      dup2\n      mstore\n      0x20\n      add\n      mload(0x40)\n      dup1\n      0x40\n      add\n      0x40\n      mstore\n      dup1\n      0x01\n      dup2\n      mstore\n      0x20\n      add\n      0x4c00000000000000000000000000000000000000000000000000000000000000\n      dup2\n      mstore\n      pop\n      dup2\n      mstore\n      0x20\n      add\n      mload(0x40)\n      dup1\n      0x40\n      add\n      0x40\n      mstore\n      dup1\n      0x02\n      dup2\n      mstore\n      0x20\n      add\n      0x584c000000000000000000000000000000000000000000000000000000000000\n      dup2\n      mstore\n      pop\n      dup2\n      mstore\n      0x20\n      add\n      mload(0x40)\n      dup1\n      0x40\n      add\n      0x40\n      mstore\n      dup1\n      0x01\n      dup2\n      mstore\n      0x20\n      add\n      0x5800000000000000000000000000000000000000000000000000000000000000\n      dup2\n      mstore\n      pop\n      dup2\n      mstore\n      0x20\n      add\n      mload(0x40)\n      dup1\n      0x40\n      add\n      0x40\n      mstore\n      dup1\n      0x02\n      dup2\n      mstore\n      0x20\n      add\n      0x4958000000000000000000000000000000000000000000000000000000000000\n      dup2\n      mstore\n      pop\n      dup2\n      mstore\n      0x20\n      add\n      mload(0x40)\n      dup1\n      0x40\n      add\n      0x40\n      mstore\n      dup1\n      0x01\n      dup2\n      mstore\n      0x20\n      add\n      0x5600000000000000000000000000000000000000000000000000000000000000\n      dup2\n      mstore\n      pop\n      dup2\n      mstore\n      0x20\n      add\n      mload(0x40)\n      dup1\n      0x40\n      add\n      0x40\n      mstore\n      dup1\n      0x02\n      dup2\n      mstore\n      0x20\n      add\n      0x4956000000000000000000000000000000000000000000000000000000000000\n      dup2\n      mstore\n      pop\n      dup2\n      mstore\n      0x20\n      add\n      mload(0x40)\n      dup1\n      0x40\n      add\n      0x40\n      mstore\n      dup1\n      0x01\n      dup2\n      mstore\n      0x20\n      add\n      0x4900000000000000000000000000000000000000000000000000000000000000\n      dup2\n      mstore\n      pop\n      dup2\n      mstore\n      pop\n      swap1\n      pop\n        /* \"task1/Tiltles.sol\":1763:1782  bytes memory result */\n      0x00\n        /* \"task1/Tiltles.sol\":1763:1787  bytes memory result = \"\" */\n      mload(0x40)\n      dup1\n      0x20\n      add\n      0x40\n      mstore\n      dup1\n      0x00\n      dup2\n      mstore\n      pop\n      swap1\n      pop\n        /* \"task1/Tiltles.sol\":1801:1807  uint i */\n      0x00\n        /* \"task1/Tiltles.sol\":1797:1977  for(uint i = 0;i<13 ;i++){... */\n    tag_52:\n        /* \"task1/Tiltles.sol\":1814:1816  13 */\n      0x0d\n        /* \"task1/Tiltles.sol\":1812:1813  i */\n      dup2\n        /* \"task1/Tiltles.sol\":1812:1816  i<13 */\n      lt\n        /* \"task1/Tiltles.sol\":1797:1977  for(uint i = 0;i<13 ;i++){... */\n      iszero\n      tag_53\n      jumpi\n        /* \"task1/Tiltles.sol\":1836:1969  while (num >= keys[i]){... */\n    tag_55:\n        /* \"task1/Tiltles.sol\":1850:1854  keys */\n      dup4\n        /* \"task1/Tiltles.sol\":1855:1856  i */\n      dup2\n        /* \"task1/Tiltles.sol\":1850:1857  keys[i] */\n      0x0d\n      dup2\n      lt\n      tag_57\n      jumpi\n      tag_58\n      tag_48\n      jump\t// in\n    tag_58:\n    tag_57:\n      0x20\n      mul\n      add\n      mload\n        /* \"task1/Tiltles.sol\":1843:1846  num */\n      dup7\n        /* \"task1/Tiltles.sol\":1843:1857  num >= keys[i] */\n      lt\n        /* \"task1/Tiltles.sol\":1836:1969  while (num >= keys[i]){... */\n      tag_56\n      jumpi\n        /* \"task1/Tiltles.sol\":1884:1888  keys */\n      dup4\n        /* \"task1/Tiltles.sol\":1889:1890  i */\n      dup2\n        /* \"task1/Tiltles.sol\":1884:1891  keys[i] */\n      0x0d\n      dup2\n      lt\n      tag_59\n      jumpi\n      tag_60\n      tag_48\n      jump\t// in\n    tag_60:\n    tag_59:\n      0x20\n      mul\n      add\n      mload\n        /* \"task1/Tiltles.sol\":1878:1891  num -=keys[i] */\n      dup7\n      tag_61\n      swap2\n      swap1\n      tag_44\n      jump\t// in\n    tag_61:\n      swap6\n      pop\n        /* \"task1/Tiltles.sol\":1937:1943  result */\n      dup2\n        /* \"task1/Tiltles.sol\":1944:1950  values */\n      dup4\n        /* \"task1/Tiltles.sol\":1951:1952  i */\n      dup3\n        /* \"task1/Tiltles.sol\":1944:1953  values[i] */\n      0x0d\n      dup2\n      lt\n      tag_62\n      jumpi\n      tag_63\n      tag_48\n      jump\t// in\n    tag_63:\n    tag_62:\n      0x20\n      mul\n      add\n      mload\n        /* \"task1/Tiltles.sol\":1920:1954  abi.encodePacked(result,values[i]) */\n      add(0x20, mload(0x40))\n      tag_64\n      swap3\n      swap2\n      swap1\n      tag_65\n      jump\t// in\n    tag_64:\n      mload(0x40)\n      0x20\n      dup2\n      dup4\n      sub\n      sub\n      dup2\n      mstore\n      swap1\n      0x40\n      mstore\n        /* \"task1/Tiltles.sol\":1911:1954  result = abi.encodePacked(result,values[i]) */\n      swap2\n      pop\n        /* \"task1/Tiltles.sol\":1836:1969  while (num >= keys[i]){... */\n      jump(tag_55)\n    tag_56:\n        /* \"task1/Tiltles.sol\":1818:1821  i++ */\n      dup1\n      dup1\n      0x01\n      add\n      swap2\n      pop\n      pop\n        /* \"task1/Tiltles.sol\":1797:1977  for(uint i = 0;i<13 ;i++){... */\n      jump(tag_52)\n    tag_53:\n      pop\n        /* \"task1/Tiltles.sol\":1999:2005  result */\n      dup1\n        /* \"task1/Tiltles.sol\":1984:2006  return  string(result) */\n      swap4\n      pop\n      pop\n      pop\n      pop\n        /* \"task1/Tiltles.sol\":1480:2012  function uintToRoman(uint num) public  pure   returns  (string memory){... */\n      swap2\n      swap1\n      pop\n      jump\t// out\n        /* \"task1/Tiltles.sol\":1004:1476  function  romanToInt(string memory s) public view  returns  (int) {... */\n    tag_21:\n        /* \"task1/Tiltles.sol\":1065:1068  int */\n      0x00\n        /* \"task1/Tiltles.sol\":1083:1099  bytes memory str */\n      dup1\n        /* \"task1/Tiltles.sol\":1108:1109  s */\n      dup3\n        /* \"task1/Tiltles.sol\":1083:1110  bytes memory str = bytes(s) */\n      swap1\n      pop\n        /* \"task1/Tiltles.sol\":1123:1131  uint len */\n      0x00\n        /* \"task1/Tiltles.sol\":1134:1137  str */\n      dup2\n        /* \"task1/Tiltles.sol\":1134:1144  str.length */\n      mload\n        /* \"task1/Tiltles.sol\":1123:1144  uint len = str.length */\n      swap1\n      pop\n        /* \"task1/Tiltles.sol\":1157:1164  int ans */\n      0x00\n        /* \"task1/Tiltles.sol\":1186:1192  uint i */\n      dup1\n        /* \"task1/Tiltles.sol\":1181:1449  for (uint i= 0 ;i< len; i++){... */\n    tag_67:\n        /* \"task1/Tiltles.sol\":1200:1203  len */\n      dup3\n        /* \"task1/Tiltles.sol\":1197:1198  i */\n      dup2\n        /* \"task1/Tiltles.sol\":1197:1203  i< len */\n      lt\n        /* \"task1/Tiltles.sol\":1181:1449  for (uint i= 0 ;i< len; i++){... */\n      iszero\n      tag_68\n      jumpi\n        /* \"task1/Tiltles.sol\":1224:1234  uint value */\n      0x00\n        /* \"task1/Tiltles.sol\":1239:1250  romanToInts */\n      dup1\n        /* \"task1/Tiltles.sol\":1239:1258  romanToInts[str[i]] */\n      0x00\n        /* \"task1/Tiltles.sol\":1251:1254  str */\n      dup7\n        /* \"task1/Tiltles.sol\":1255:1256  i */\n      dup5\n        /* \"task1/Tiltles.sol\":1251:1257  str[i] */\n      dup2\n      mload\n      dup2\n      lt\n      tag_70\n      jumpi\n      tag_71\n      tag_48\n      jump\t// in\n    tag_71:\n    tag_70:\n      0x20\n      add\n      add\n      mload\n      0xf8\n      shr\n      0xf8\n      shl\n        /* \"task1/Tiltles.sol\":1239:1258  romanToInts[str[i]] */\n      not(0xffffffffffffffffffffffffffffffffffffffffffffffffffffffffffffff)\n      and\n      not(0xffffffffffffffffffffffffffffffffffffffffffffffffffffffffffffff)\n      and\n      dup2\n      mstore\n      0x20\n      add\n      swap1\n      dup2\n      mstore\n      0x20\n      add\n      0x00\n      keccak256\n      sload\n        /* \"task1/Tiltles.sol\":1224:1258  uint value  =  romanToInts[str[i]] */\n      swap1\n      pop\n        /* \"task1/Tiltles.sol\":1286:1287  1 */\n      0x01\n        /* \"task1/Tiltles.sol\":1281:1284  len */\n      dup5\n        /* \"task1/Tiltles.sol\":1281:1287  len -1 */\n      tag_72\n      swap2\n      swap1\n      tag_44\n      jump\t// in\n    tag_72:\n        /* \"task1/Tiltles.sol\":1277:1278  i */\n      dup3\n        /* \"task1/Tiltles.sol\":1277:1287  i < len -1 */\n      lt\n        /* \"task1/Tiltles.sol\":1277:1321  i < len -1 && value < romanToInts[str[i +1]] */\n      dup1\n      iszero\n      tag_73\n      jumpi\n      pop\n        /* \"task1/Tiltles.sol\":1299:1310  romanToInts */\n      0x00\n        /* \"task1/Tiltles.sol\":1299:1321  romanToInts[str[i +1]] */\n      dup1\n        /* \"task1/Tiltles.sol\":1311:1314  str */\n      dup7\n        /* \"task1/Tiltles.sol\":1318:1319  1 */\n      0x01\n        /* \"task1/Tiltles.sol\":1315:1316  i */\n      dup6\n        /* \"task1/Tiltles.sol\":1315:1319  i +1 */\n      tag_74\n      swap2\n      swap1\n      tag_75\n      jump\t// in\n    tag_74:\n        /* \"task1/Tiltles.sol\":1311:1320  str[i +1] */\n      dup2\n      mload\n      dup2\n      lt\n      tag_76\n      jumpi\n      tag_77\n      tag_48\n      jump\t// in\n    tag_77:\n    tag_76:\n      0x20\n      add\n      add\n      mload\n      0xf8\n      shr\n      0xf8\n      shl\n        /* \"task1/Tiltles.sol\":1299:1321  romanToInts[str[i +1]] */\n      not(0xffffffffffffffffffffffffffffffffffffffffffffffffffffffffffffff)\n      and\n      not(0xffffffffffffffffffffffffffffffffffffffffffffffffffffffffffffff)\n      and\n      dup2\n      mstore\n      0x20\n      add\n      swap1\n      dup2\n      mstore\n      0x20\n      add\n      0x00\n      keccak256\n      sload\n        /* \"task1/Tiltles.sol\":1291:1296  value */\n      dup2\n        /* \"task1/Tiltles.sol\":1291:1321  value < romanToInts[str[i +1]] */\n      lt\n        /* \"task1/Tiltles.sol\":1277:1321  i < len -1 && value < romanToInts[str[i +1]] */\n    tag_73:\n        /* \"task1/Tiltles.sol\":1273:1436  if (i < len -1 && value < romanToInts[str[i +1]]){... */\n      iszero\n      tag_78\n      jumpi\n        /* \"task1/Tiltles.sol\":1357:1362  value */\n      dup1\n        /* \"task1/Tiltles.sol\":1346:1363  ans -= int(value) */\n      dup4\n      tag_79\n      swap2\n      swap1\n      tag_80\n      jump\t// in\n    tag_79:\n      swap3\n      pop\n        /* \"task1/Tiltles.sol\":1273:1436  if (i < len -1 && value < romanToInts[str[i +1]]){... */\n      jump(tag_81)\n    tag_78:\n        /* \"task1/Tiltles.sol\":1414:1419  value */\n      dup1\n        /* \"task1/Tiltles.sol\":1403:1420  ans += int(value) */\n      dup4\n      tag_82\n      swap2\n      swap1\n      tag_83\n      jump\t// in\n    tag_82:\n      swap3\n      pop\n        /* \"task1/Tiltles.sol\":1273:1436  if (i < len -1 && value < romanToInts[str[i +1]]){... */\n    tag_81:\n        /* \"task1/Tiltles.sol\":1209:1449  {... */\n      pop\n        /* \"task1/Tiltles.sol\":1205:1208  i++ */\n      dup1\n      dup1\n      0x01\n      add\n      swap2\n      pop\n      pop\n        /* \"task1/Tiltles.sol\":1181:1449  for (uint i= 0 ;i< len; i++){... */\n      jump(tag_67)\n    tag_68:\n      pop\n        /* \"task1/Tiltles.sol\":1469:1472  ans */\n      dup1\n        /* \"task1/Tiltles.sol\":1461:1472  return  ans */\n      swap4\n      pop\n      pop\n      pop\n      pop\n        /* \"task1/Tiltles.sol\":1004:1476  function  romanToInt(string memory s) public view  returns  (int) {... */\n      swap2\n      swap1\n      pop\n      jump\t// out\n        /* \"task1/Tiltles.sol\":2671:3234  function BinarySearch(uint[] calldata arr,uint num) public  pure  returns (int){... */\n    tag_27:\n        /* \"task1/Tiltles.sol\":2746:2749  int */\n      0x00\n        /* \"task1/Tiltles.sol\":2764:2772  uint len */\n      dup1\n        /* \"task1/Tiltles.sol\":2774:2777  arr */\n      dup5\n      dup5\n        /* \"task1/Tiltles.sol\":2774:2784  arr.length */\n      swap1\n      pop\n        /* \"task1/Tiltles.sol\":2764:2784  uint len =arr.length */\n      swap1\n      pop\n        /* \"task1/Tiltles.sol\":2798:2807  uint left */\n      0x00\n        /* \"task1/Tiltles.sol\":2825:2835  uint right */\n      dup1\n        /* \"task1/Tiltles.sol\":2842:2843  1 */\n      0x01\n        /* \"task1/Tiltles.sol\":2838:2841  len */\n      dup4\n        /* \"task1/Tiltles.sol\":2838:2843  len-1 */\n      tag_85\n      swap2\n      swap1\n      tag_44\n      jump\t// in\n    tag_85:\n        /* \"task1/Tiltles.sol\":2825:2843  uint right = len-1 */\n      swap1\n      pop\n        /* \"task1/Tiltles.sol\":2857:3205  while (left <= right){... */\n    tag_86:\n        /* \"task1/Tiltles.sol\":2872:2877  right */\n      dup1\n        /* \"task1/Tiltles.sol\":2864:2868  left */\n      dup3\n        /* \"task1/Tiltles.sol\":2864:2877  left <= right */\n      gt\n        /* \"task1/Tiltles.sol\":2857:3205  while (left <= right){... */\n      tag_87\n      jumpi\n        /* \"task1/Tiltles.sol\":2898:2906  uint mid */\n      0x00\n        /* \"task1/Tiltles.sol\":2931:2932  2 */\n      0x02\n        /* \"task1/Tiltles.sol\":2925:2929  left */\n      dup4\n        /* \"task1/Tiltles.sol\":2917:2922  right */\n      dup4\n        /* \"task1/Tiltles.sol\":2917:2929  right - left */\n      tag_88\n      swap2\n      swap1\n      tag_44\n      jump\t// in\n    tag_88:\n        /* \"task1/Tiltles.sol\":2916:2932  (right - left)/2 */\n      tag_89\n      swap2\n      swap1\n      tag_90\n      jump\t// in\n    tag_89:\n        /* \"task1/Tiltles.sol\":2909:2913  left */\n      dup4\n        /* \"task1/Tiltles.sol\":2909:2932  left + (right - left)/2 */\n      tag_91\n      swap2\n      swap1\n      tag_75\n      jump\t// in\n    tag_91:\n        /* \"task1/Tiltles.sol\":2898:2932  uint mid = left + (right - left)/2 */\n      swap1\n      pop\n        /* \"task1/Tiltles.sol\":2970:2973  num */\n      dup6\n        /* \"task1/Tiltles.sol\":2958:2961  arr */\n      dup9\n      dup9\n        /* \"task1/Tiltles.sol\":2962:2965  mid */\n      dup4\n        /* \"task1/Tiltles.sol\":2958:2966  arr[mid] */\n      dup2\n      dup2\n      lt\n      tag_92\n      jumpi\n      tag_93\n      tag_48\n      jump\t// in\n    tag_93:\n    tag_92:\n      swap1\n      pop\n      0x20\n      mul\n      add\n      calldataload\n        /* \"task1/Tiltles.sol\":2958:2973  arr[mid] == num */\n      sub\n        /* \"task1/Tiltles.sol\":2953:2993  if  (arr[mid] == num) {return int(mid);} */\n      tag_94\n      jumpi\n        /* \"task1/Tiltles.sol\":2987:2990  mid */\n      dup1\n        /* \"task1/Tiltles.sol\":2976:2991  return int(mid) */\n      swap5\n      pop\n      pop\n      pop\n      pop\n      pop\n      jump(tag_84)\n        /* \"task1/Tiltles.sol\":2953:2993  if  (arr[mid] == num) {return int(mid);} */\n    tag_94:\n        /* \"task1/Tiltles.sol\":3027:3030  num */\n      dup6\n        /* \"task1/Tiltles.sol\":3017:3020  arr */\n      dup9\n      dup9\n        /* \"task1/Tiltles.sol\":3021:3024  mid */\n      dup4\n        /* \"task1/Tiltles.sol\":3017:3025  arr[mid] */\n      dup2\n      dup2\n      lt\n      tag_95\n      jumpi\n      tag_96\n      tag_48\n      jump\t// in\n    tag_96:\n    tag_95:\n      swap1\n      pop\n      0x20\n      mul\n      add\n      calldataload\n        /* \"task1/Tiltles.sol\":3017:3030  arr[mid] >num */\n      gt\n        /* \"task1/Tiltles.sol\":3013:3093  if (arr[mid] >num){... */\n      iszero\n      tag_97\n      jumpi\n        /* \"task1/Tiltles.sol\":3070:3071  1 */\n      0x01\n        /* \"task1/Tiltles.sol\":3065:3068  mid */\n      dup2\n        /* \"task1/Tiltles.sol\":3065:3071  mid -1 */\n      tag_98\n      swap2\n      swap1\n      tag_44\n      jump\t// in\n    tag_98:\n        /* \"task1/Tiltles.sol\":3057:3071  right = mid -1 */\n      swap2\n      pop\n        /* \"task1/Tiltles.sol\":3013:3093  if (arr[mid] >num){... */\n    tag_97:\n        /* \"task1/Tiltles.sol\":3126:3129  num */\n      dup6\n        /* \"task1/Tiltles.sol\":3116:3119  arr */\n      dup9\n      dup9\n        /* \"task1/Tiltles.sol\":3120:3123  mid */\n      dup4\n        /* \"task1/Tiltles.sol\":3116:3124  arr[mid] */\n      dup2\n      dup2\n      lt\n      tag_99\n      jumpi\n      tag_100\n      tag_48\n      jump\t// in\n    tag_100:\n    tag_99:\n      swap1\n      pop\n      0x20\n      mul\n      add\n      calldataload\n        /* \"task1/Tiltles.sol\":3116:3129  arr[mid] <num */\n      lt\n        /* \"task1/Tiltles.sol\":3112:3191  if (arr[mid] <num){... */\n      iszero\n      tag_101\n      jumpi\n        /* \"task1/Tiltles.sol\":3168:3169  1 */\n      0x01\n        /* \"task1/Tiltles.sol\":3163:3166  mid */\n      dup2\n        /* \"task1/Tiltles.sol\":3163:3169  mid +1 */\n      tag_102\n      swap2\n      swap1\n      tag_75\n      jump\t// in\n    tag_102:\n        /* \"task1/Tiltles.sol\":3156:3169  left = mid +1 */\n      swap3\n      pop\n        /* \"task1/Tiltles.sol\":3112:3191  if (arr[mid] <num){... */\n    tag_101:\n        /* \"task1/Tiltles.sol\":2878:3205  {... */\n      pop\n        /* \"task1/Tiltles.sol\":2857:3205  while (left <= right){... */\n      jump(tag_86)\n    tag_87:\n        /* \"task1/Tiltles.sol\":3225:3227  -1 */\n      0xffffffffffffffffffffffffffffffffffffffffffffffffffffffffffffffff\n        /* \"task1/Tiltles.sol\":3218:3227  return -1 */\n      swap4\n      pop\n      pop\n      pop\n      pop\n        /* \"task1/Tiltles.sol\":2671:3234  function BinarySearch(uint[] calldata arr,uint num) public  pure  returns (int){... */\n    tag_84:\n      swap4\n      swap3\n      pop\n      pop\n      pop\n      jump\t// out\n        /* \"task1/Tiltles.sol\":2083:2617  function megerSortArray(uint[] calldata arr1,uint[] calldata arr2) public  pure   returns (uint[] memory){... */\n    tag_32:\n        /* \"task1/Tiltles.sol\":2174:2187  uint[] memory */\n      0x60\n        /* \"task1/Tiltles.sol\":2201:2210  uint len1 */\n      0x00\n        /* \"task1/Tiltles.sol\":2212:2216  arr1 */\n      dup6\n      dup6\n        /* \"task1/Tiltles.sol\":2212:2223  arr1.length */\n      swap1\n      pop\n        /* \"task1/Tiltles.sol\":2201:2223  uint len1 =arr1.length */\n      swap1\n      pop\n        /* \"task1/Tiltles.sol\":2236:2245  uint len2 */\n      0x00\n        /* \"task1/Tiltles.sol\":2247:2251  arr2 */\n      dup5\n      dup5\n        /* \"task1/Tiltles.sol\":2247:2258  arr2.length */\n      swap1\n      pop\n        /* \"task1/Tiltles.sol\":2236:2258  uint len2 =arr2.length */\n      swap1\n      pop\n        /* \"task1/Tiltles.sol\":2271:2288  uint[] memory arr */\n      0x00\n        /* \"task1/Tiltles.sol\":2307:2311  len2 */\n      dup2\n        /* \"task1/Tiltles.sol\":2302:2306  len1 */\n      dup4\n        /* \"task1/Tiltles.sol\":2302:2311  len1+len2 */\n      tag_104\n      swap2\n      swap1\n      tag_75\n      jump\t// in\n    tag_104:\n        /* \"task1/Tiltles.sol\":2291:2312  new uint[](len1+len2) */\n      0xffffffffffffffff\n      dup2\n      gt\n      iszero\n      tag_105\n      jumpi\n      tag_106\n      tag_38\n      jump\t// in\n    tag_106:\n    tag_105:\n      mload(0x40)\n      swap1\n      dup1\n      dup3\n      mstore\n      dup1\n      0x20\n      mul\n      0x20\n      add\n      dup3\n      add\n      0x40\n      mstore\n      dup1\n      iszero\n      tag_107\n      jumpi\n      dup2\n      0x20\n      add\n      0x20\n      dup3\n      mul\n      dup1\n      calldatasize\n      dup4\n      calldatacopy\n      dup1\n      dup3\n      add\n      swap2\n      pop\n      pop\n      swap1\n      pop\n    tag_107:\n      pop\n        /* \"task1/Tiltles.sol\":2271:2312  uint[] memory arr = new uint[](len1+len2) */\n      swap1\n      pop\n        /* \"task1/Tiltles.sol\":2325:2331  uint i */\n      0x00\n        /* \"task1/Tiltles.sol\":2346:2352  uint j */\n      dup1\n        /* \"task1/Tiltles.sol\":2367:2373  uint k */\n      0x00\n        /* \"task1/Tiltles.sol\":2388:2494  while (i < len1 && j < len2){... */\n    tag_108:\n        /* \"task1/Tiltles.sol\":2399:2403  len1 */\n      dup6\n        /* \"task1/Tiltles.sol\":2395:2396  i */\n      dup4\n        /* \"task1/Tiltles.sol\":2395:2403  i < len1 */\n      lt\n        /* \"task1/Tiltles.sol\":2395:2415  i < len1 && j < len2 */\n      dup1\n      iszero\n      tag_110\n      jumpi\n      pop\n        /* \"task1/Tiltles.sol\":2411:2415  len2 */\n      dup5\n        /* \"task1/Tiltles.sol\":2407:2408  j */\n      dup3\n        /* \"task1/Tiltles.sol\":2407:2415  j < len2 */\n      lt\n        /* \"task1/Tiltles.sol\":2395:2415  i < len1 && j < len2 */\n    tag_110:\n        /* \"task1/Tiltles.sol\":2388:2494  while (i < len1 && j < len2){... */\n      iszero\n      tag_109\n      jumpi\n        /* \"task1/Tiltles.sol\":2452:2456  arr2 */\n      dup9\n      dup9\n        /* \"task1/Tiltles.sol\":2457:2458  j */\n      dup4\n        /* \"task1/Tiltles.sol\":2452:2459  arr2[j] */\n      dup2\n      dup2\n      lt\n      tag_111\n      jumpi\n      tag_112\n      tag_48\n      jump\t// in\n    tag_112:\n    tag_111:\n      swap1\n      pop\n      0x20\n      mul\n      add\n      calldataload\n        /* \"task1/Tiltles.sol\":2441:2445  arr1 */\n      dup12\n      dup12\n        /* \"task1/Tiltles.sol\":2446:2447  i */\n      dup6\n        /* \"task1/Tiltles.sol\":2441:2448  arr1[i] */\n      dup2\n      dup2\n      lt\n      tag_113\n      jumpi\n      tag_114\n      tag_48\n      jump\t// in\n    tag_114:\n    tag_113:\n      swap1\n      pop\n      0x20\n      mul\n      add\n      calldataload\n        /* \"task1/Tiltles.sol\":2441:2459  arr1[i] <= arr2[j] */\n      gt\n      iszero\n        /* \"task1/Tiltles.sol\":2441:2480  arr1[i] <= arr2[j]? arr1[i++]:arr2[j++] */\n      tag_115\n      jumpi\n        /* \"task1/Tiltles.sol\":2471:2475  arr2 */\n      dup9\n      dup9\n        /* \"task1/Tiltles.sol\":2476:2479  j++ */\n      dup4\n      dup1\n      tag_116\n      swap1\n      tag_117\n      jump\t// in\n    tag_116:\n      swap5\n      pop\n        /* \"task1/Tiltles.sol\":2471:2480  arr2[j++] */\n      dup2\n      dup2\n      lt\n      tag_118\n      jumpi\n      tag_119\n      tag_48\n      jump\t// in\n    tag_119:\n    tag_118:\n      swap1\n      pop\n      0x20\n      mul\n      add\n      calldataload\n        /* \"task1/Tiltles.sol\":2441:2480  arr1[i] <= arr2[j]? arr1[i++]:arr2[j++] */\n      jump(tag_120)\n    tag_115:\n        /* \"task1/Tiltles.sol\":2461:2465  arr1 */\n      dup11\n      dup11\n        /* \"task1/Tiltles.sol\":2466:2469  i++ */\n      dup5\n      dup1\n      tag_121\n      swap1\n      tag_117\n      jump\t// in\n    tag_121:\n      swap6\n      pop\n        /* \"task1/Tiltles.sol\":2461:2470  arr1[i++] */\n      dup2\n      dup2\n      lt\n      tag_122\n      jumpi\n      tag_123\n      tag_48\n      jump\t// in\n    tag_123:\n    tag_122:\n      swap1\n      pop\n      0x20\n      mul\n      add\n      calldataload\n        /* \"task1/Tiltles.sol\":2441:2480  arr1[i] <= arr2[j]? arr1[i++]:arr2[j++] */\n    tag_120:\n        /* \"task1/Tiltles.sol\":2430:2433  arr */\n      dup5\n        /* \"task1/Tiltles.sol\":2434:2437  k++ */\n      dup3\n      dup1\n      tag_124\n      swap1\n      tag_117\n      jump\t// in\n    tag_124:\n      swap4\n      pop\n        /* \"task1/Tiltles.sol\":2430:2438  arr[k++] */\n      dup2\n      mload\n      dup2\n      lt\n      tag_125\n      jumpi\n      tag_126\n      tag_48\n      jump\t// in\n    tag_126:\n    tag_125:\n      0x20\n      mul\n      0x20\n      add\n      add\n        /* \"task1/Tiltles.sol\":2430:2480  arr[k++] = arr1[i] <= arr2[j]? arr1[i++]:arr2[j++] */\n      dup2\n      dup2\n      mstore\n      pop\n      pop\n        /* \"task1/Tiltles.sol\":2388:2494  while (i < len1 && j < len2){... */\n      jump(tag_108)\n    tag_109:\n        /* \"task1/Tiltles.sol\":2506:2540  while (i<len1) arr[k++] =arr1[i++] */\n    tag_127:\n        /* \"task1/Tiltles.sol\":2515:2519  len1 */\n      dup6\n        /* \"task1/Tiltles.sol\":2513:2514  i */\n      dup4\n        /* \"task1/Tiltles.sol\":2513:2519  i<len1 */\n      lt\n        /* \"task1/Tiltles.sol\":2506:2540  while (i<len1) arr[k++] =arr1[i++] */\n      iszero\n      tag_128\n      jumpi\n        /* \"task1/Tiltles.sol\":2531:2535  arr1 */\n      dup11\n      dup11\n        /* \"task1/Tiltles.sol\":2536:2539  i++ */\n      dup5\n      dup1\n      tag_129\n      swap1\n      tag_117\n      jump\t// in\n    tag_129:\n      swap6\n      pop\n        /* \"task1/Tiltles.sol\":2531:2540  arr1[i++] */\n      dup2\n      dup2\n      lt\n      tag_130\n      jumpi\n      tag_131\n      tag_48\n      jump\t// in\n    tag_131:\n    tag_130:\n      swap1\n      pop\n      0x20\n      mul\n      add\n      calldataload\n        /* \"task1/Tiltles.sol\":2521:2524  arr */\n      dup5\n        /* \"task1/Tiltles.sol\":2525:2528  k++ */\n      dup3\n      dup1\n      tag_132\n      swap1\n      tag_117\n      jump\t// in\n    tag_132:\n      swap4\n      pop\n        /* \"task1/Tiltles.sol\":2521:2529  arr[k++] */\n      dup2\n      mload\n      dup2\n      lt\n      tag_133\n      jumpi\n      tag_134\n      tag_48\n      jump\t// in\n    tag_134:\n    tag_133:\n      0x20\n      mul\n      0x20\n      add\n      add\n        /* \"task1/Tiltles.sol\":2521:2540  arr[k++] =arr1[i++] */\n      dup2\n      dup2\n      mstore\n      pop\n      pop\n        /* \"task1/Tiltles.sol\":2506:2540  while (i<len1) arr[k++] =arr1[i++] */\n      jump(tag_127)\n    tag_128:\n        /* \"task1/Tiltles.sol\":2553:2587  while (j<len2) arr[k++] =arr2[j++] */\n    tag_135:\n        /* \"task1/Tiltles.sol\":2562:2566  len2 */\n      dup5\n        /* \"task1/Tiltles.sol\":2560:2561  j */\n      dup3\n        /* \"task1/Tiltles.sol\":2560:2566  j<len2 */\n      lt\n        /* \"task1/Tiltles.sol\":2553:2587  while (j<len2) arr[k++] =arr2[j++] */\n      iszero\n      tag_136\n      jumpi\n        /* \"task1/Tiltles.sol\":2578:2582  arr2 */\n      dup9\n      dup9\n        /* \"task1/Tiltles.sol\":2583:2586  j++ */\n      dup4\n      dup1\n      tag_137\n      swap1\n      tag_117\n      jump\t// in\n    tag_137:\n      swap5\n      pop\n        /* \"task1/Tiltles.sol\":2578:2587  arr2[j++] */\n      dup2\n      dup2\n      lt\n      tag_138\n      jumpi\n      tag_139\n      tag_48\n      jump\t// in\n    tag_139:\n    tag_138:\n      swap1\n      pop\n      0x20\n      mul\n      add\n      calldataload\n        /* \"task1/Tiltles.sol\":2568:2571  arr */\n      dup5\n        /* \"task1/Tiltles.sol\":2572:2575  k++ */\n      dup3\n      dup1\n      tag_140\n      swap1\n      tag_117\n      jump\t// in\n    tag_140:\n      swap4\n      pop\n        /* \"task1/Tiltles.sol\":2568:2576  arr[k++] */\n      dup2\n      mload\n      dup2\n      lt\n      tag_141\n      jumpi\n      tag_142\n      tag_48\n      jump\t// in\n    tag_142:\n    tag_141:\n      0x20\n      mul\n      0x20\n      add\n      add\n        /* \"task1/Tiltles.sol\":2568:2587  arr[k++] =arr2[j++] */\n      dup2\n      dup2\n      mstore\n      pop\n      pop\n        /* \"task1/Tiltles.sol\":2553:2587  while (j<len2) arr[k++] =arr2[j++] */\n      jump(tag_135)\n    tag_136:\n        /* \"task1/Tiltles.sol\":2607:2610  arr */\n      dup4\n        /* \"task1/Tiltles.sol\":2600:2610  return arr */\n      swap7\n      pop\n      pop\n      pop\n      pop\n      pop\n      pop\n      pop\n        /* \"task1/Tiltles.sol\":2083:2617  function megerSortArray(uint[] calldata arr1,uint[] calldata arr2) public  pure   returns (uint[] memory){... */\n      swap5\n      swap4\n      pop\n      pop\n      pop\n      pop\n      jump\t// out\n        /* \"#utility.yul\":7:82   */\n    tag_143:\n        /* \"#utility.yul\":40:46   */\n      0x00\n        /* \"#utility.yul\":73:75   */\n      0x40\n        /* \"#utility.yul\":67:76   */\n      mload\n        /* \"#utility.yul\":57:76   */\n      swap1\n      pop\n        /* \"#utility.yul\":7:82   */\n      swap1\n      jump\t// out\n        /* \"#utility.yul\":88:205   */\n    tag_144:\n        /* \"#utility.yul\":197:198   */\n      0x00\n        /* \"#utility.yul\":194:195   */\n      dup1\n        /* \"#utility.yul\":187:199   */\n      revert\n        /* \"#utility.yul\":211:328   */\n    tag_145:\n        /* \"#utility.yul\":320:321   */\n      0x00\n        /* \"#utility.yul\":317:318   */\n      dup1\n        /* \"#utility.yul\":310:322   */\n      revert\n        /* \"#utility.yul\":334:451   */\n    tag_146:\n        /* \"#utility.yul\":443:444   */\n      0x00\n        /* \"#utility.yul\":440:441   */\n      dup1\n        /* \"#utility.yul\":433:445   */\n      revert\n        /* \"#utility.yul\":457:574   */\n    tag_147:\n        /* \"#utility.yul\":566:567   */\n      0x00\n        /* \"#utility.yul\":563:564   */\n      dup1\n        /* \"#utility.yul\":556:568   */\n      revert\n        /* \"#utility.yul\":580:682   */\n    tag_148:\n        /* \"#utility.yul\":621:627   */\n      0x00\n        /* \"#utility.yul\":672:674   */\n      0x1f\n        /* \"#utility.yul\":668:675   */\n      not\n        /* \"#utility.yul\":663:665   */\n      0x1f\n        /* \"#utility.yul\":656:661   */\n      dup4\n        /* \"#utility.yul\":652:666   */\n      add\n        /* \"#utility.yul\":648:676   */\n      and\n        /* \"#utility.yul\":638:676   */\n      swap1\n      pop\n        /* \"#utility.yul\":580:682   */\n      swap2\n      swap1\n      pop\n      jump\t// out\n        /* \"#utility.yul\":688:868   */\n    tag_38:\n        /* \"#utility.yul\":736:813   */\n      0x4e487b7100000000000000000000000000000000000000000000000000000000\n        /* \"#utility.yul\":733:734   */\n      0x00\n        /* \"#utility.yul\":726:814   */\n      mstore\n        /* \"#utility.yul\":833:837   */\n      0x41\n        /* \"#utility.yul\":830:831   */\n      0x04\n        /* \"#utility.yul\":823:838   */\n      mstore\n        /* \"#utility.yul\":857:861   */\n      0x24\n        /* \"#utility.yul\":854:855   */\n      0x00\n        /* \"#utility.yul\":847:862   */\n      revert\n        /* \"#utility.yul\":874:1155   */\n    tag_149:\n        /* \"#utility.yul\":957:984   */\n      tag_190\n        /* \"#utility.yul\":979:983   */\n      dup3\n        /* \"#utility.yul\":957:984   */\n      tag_148\n      jump\t// in\n    tag_190:\n        /* \"#utility.yul\":949:955   */\n      dup2\n        /* \"#utility.yul\":945:985   */\n      add\n        /* \"#utility.yul\":1087:1093   */\n      dup2\n        /* \"#utility.yul\":1075:1085   */\n      dup2\n        /* \"#utility.yul\":1072:1094   */\n      lt\n        /* \"#utility.yul\":1051:1069   */\n      0xffffffffffffffff\n        /* \"#utility.yul\":1039:1049   */\n      dup3\n        /* \"#utility.yul\":1036:1070   */\n      gt\n        /* \"#utility.yul\":1033:1095   */\n      or\n        /* \"#utility.yul\":1030:1118   */\n      iszero\n      tag_191\n      jumpi\n        /* \"#utility.yul\":1098:1116   */\n      tag_192\n      tag_38\n      jump\t// in\n    tag_192:\n        /* \"#utility.yul\":1030:1118   */\n    tag_191:\n        /* \"#utility.yul\":1138:1148   */\n      dup1\n        /* \"#utility.yul\":1134:1136   */\n      0x40\n        /* \"#utility.yul\":1127:1149   */\n      mstore\n        /* \"#utility.yul\":917:1155   */\n      pop\n        /* \"#utility.yul\":874:1155   */\n      pop\n      pop\n      jump\t// out\n        /* \"#utility.yul\":1161:1290   */\n    tag_150:\n        /* \"#utility.yul\":1195:1201   */\n      0x00\n        /* \"#utility.yul\":1222:1242   */\n      tag_194\n      tag_143\n      jump\t// in\n    tag_194:\n        /* \"#utility.yul\":1212:1242   */\n      swap1\n      pop\n        /* \"#utility.yul\":1251:1284   */\n      tag_195\n        /* \"#utility.yul\":1279:1283   */\n      dup3\n        /* \"#utility.yul\":1271:1277   */\n      dup3\n        /* \"#utility.yul\":1251:1284   */\n      tag_149\n      jump\t// in\n    tag_195:\n        /* \"#utility.yul\":1161:1290   */\n      swap2\n      swap1\n      pop\n      jump\t// out\n        /* \"#utility.yul\":1296:1604   */\n    tag_151:\n        /* \"#utility.yul\":1358:1362   */\n      0x00\n        /* \"#utility.yul\":1448:1466   */\n      0xffffffffffffffff\n        /* \"#utility.yul\":1440:1446   */\n      dup3\n        /* \"#utility.yul\":1437:1467   */\n      gt\n        /* \"#utility.yul\":1434:1490   */\n      iszero\n      tag_197\n      jumpi\n        /* \"#utility.yul\":1470:1488   */\n      tag_198\n      tag_38\n      jump\t// in\n    tag_198:\n        /* \"#utility.yul\":1434:1490   */\n    tag_197:\n        /* \"#utility.yul\":1508:1537   */\n      tag_199\n        /* \"#utility.yul\":1530:1536   */\n      dup3\n        /* \"#utility.yul\":1508:1537   */\n      tag_148\n      jump\t// in\n    tag_199:\n        /* \"#utility.yul\":1500:1537   */\n      swap1\n      pop\n        /* \"#utility.yul\":1592:1596   */\n      0x20\n        /* \"#utility.yul\":1586:1590   */\n      dup2\n        /* \"#utility.yul\":1582:1597   */\n      add\n        /* \"#utility.yul\":1574:1597   */\n      swap1\n      pop\n        /* \"#utility.yul\":1296:1604   */\n      swap2\n      swap1\n      pop\n      jump\t// out\n        /* \"#utility.yul\":1610:1756   */\n    tag_152:\n        /* \"#utility.yul\":1707:1713   */\n      dup3\n        /* \"#utility.yul\":1702:1705   */\n      dup2\n        /* \"#utility.yul\":1697:1700   */\n      dup4\n        /* \"#utility.yul\":1684:1714   */\n      calldatacopy\n        /* \"#utility.yul\":1748:1749   */\n      0x00\n        /* \"#utility.yul\":1739:1745   */\n      dup4\n        /* \"#utility.yul\":1734:1737   */\n      dup4\n        /* \"#utility.yul\":1730:1746   */\n      add\n        /* \"#utility.yul\":1723:1750   */\n      mstore\n        /* \"#utility.yul\":1610:1756   */\n      pop\n      pop\n      pop\n      jump\t// out\n        /* \"#utility.yul\":1762:2187   */\n    tag_153:\n        /* \"#utility.yul\":1840:1845   */\n      0x00\n        /* \"#utility.yul\":1865:1931   */\n      tag_202\n        /* \"#utility.yul\":1881:1930   */\n      tag_203\n        /* \"#utility.yul\":1923:1929   */\n      dup5\n        /* \"#utility.yul\":1881:1930   */\n      tag_151\n      jump\t// in\n    tag_203:\n        /* \"#utility.yul\":1865:1931   */\n      tag_150\n      jump\t// in\n    tag_202:\n        /* \"#utility.yul\":1856:1931   */\n      swap1\n      pop\n        /* \"#utility.yul\":1954:1960   */\n      dup3\n        /* \"#utility.yul\":1947:1952   */\n      dup2\n        /* \"#utility.yul\":1940:1961   */\n      mstore\n        /* \"#utility.yul\":1992:1996   */\n      0x20\n        /* \"#utility.yul\":1985:1990   */\n      dup2\n        /* \"#utility.yul\":1981:1997   */\n      add\n        /* \"#utility.yul\":2030:2033   */\n      dup5\n        /* \"#utility.yul\":2021:2027   */\n      dup5\n        /* \"#utility.yul\":2016:2019   */\n      dup5\n        /* \"#utility.yul\":2012:2028   */\n      add\n        /* \"#utility.yul\":2009:2034   */\n      gt\n        /* \"#utility.yul\":2006:2118   */\n      iszero\n      tag_204\n      jumpi\n        /* \"#utility.yul\":2037:2116   */\n      tag_205\n      tag_147\n      jump\t// in\n    tag_205:\n        /* \"#utility.yul\":2006:2118   */\n    tag_204:\n        /* \"#utility.yul\":2127:2181   */\n      tag_206\n        /* \"#utility.yul\":2174:2180   */\n      dup5\n        /* \"#utility.yul\":2169:2172   */\n      dup3\n        /* \"#utility.yul\":2164:2167   */\n      dup6\n        /* \"#utility.yul\":2127:2181   */\n      tag_152\n      jump\t// in\n    tag_206:\n        /* \"#utility.yul\":1846:2187   */\n      pop\n        /* \"#utility.yul\":1762:2187   */\n      swap4\n      swap3\n      pop\n      pop\n      pop\n      jump\t// out\n        /* \"#utility.yul\":2207:2547   */\n    tag_154:\n        /* \"#utility.yul\":2263:2268   */\n      0x00\n        /* \"#utility.yul\":2312:2315   */\n      dup3\n        /* \"#utility.yul\":2305:2309   */\n      0x1f\n        /* \"#utility.yul\":2297:2303   */\n      dup4\n        /* \"#utility.yul\":2293:2310   */\n      add\n        /* \"#utility.yul\":2289:2316   */\n      slt\n        /* \"#utility.yul\":2279:2401   */\n      tag_208\n      jumpi\n        /* \"#utility.yul\":2320:2399   */\n      tag_209\n      tag_146\n      jump\t// in\n    tag_209:\n        /* \"#utility.yul\":2279:2401   */\n    tag_208:\n        /* \"#utility.yul\":2437:2443   */\n      dup2\n        /* \"#utility.yul\":2424:2444   */\n      calldataload\n        /* \"#utility.yul\":2462:2541   */\n      tag_210\n        /* \"#utility.yul\":2537:2540   */\n      dup5\n        /* \"#utility.yul\":2529:2535   */\n      dup3\n        /* \"#utility.yul\":2522:2526   */\n      0x20\n        /* \"#utility.yul\":2514:2520   */\n      dup7\n        /* \"#utility.yul\":2510:2527   */\n      add\n        /* \"#utility.yul\":2462:2541   */\n      tag_153\n      jump\t// in\n    tag_210:\n        /* \"#utility.yul\":2453:2541   */\n      swap2\n      pop\n        /* \"#utility.yul\":2269:2547   */\n      pop\n        /* \"#utility.yul\":2207:2547   */\n      swap3\n      swap2\n      pop\n      pop\n      jump\t// out\n        /* \"#utility.yul\":2553:3062   */\n    tag_10:\n        /* \"#utility.yul\":2622:2628   */\n      0x00\n        /* \"#utility.yul\":2671:2673   */\n      0x20\n        /* \"#utility.yul\":2659:2668   */\n      dup3\n        /* \"#utility.yul\":2650:2657   */\n      dup5\n        /* \"#utility.yul\":2646:2669   */\n      sub\n        /* \"#utility.yul\":2642:2674   */\n      slt\n        /* \"#utility.yul\":2639:2758   */\n      iszero\n      tag_212\n      jumpi\n        /* \"#utility.yul\":2677:2756   */\n      tag_213\n      tag_144\n      jump\t// in\n    tag_213:\n        /* \"#utility.yul\":2639:2758   */\n    tag_212:\n        /* \"#utility.yul\":2825:2826   */\n      0x00\n        /* \"#utility.yul\":2814:2823   */\n      dup3\n        /* \"#utility.yul\":2810:2827   */\n      add\n        /* \"#utility.yul\":2797:2828   */\n      calldataload\n        /* \"#utility.yul\":2855:2873   */\n      0xffffffffffffffff\n        /* \"#utility.yul\":2847:2853   */\n      dup2\n        /* \"#utility.yul\":2844:2874   */\n      gt\n        /* \"#utility.yul\":2841:2958   */\n      iszero\n      tag_214\n      jumpi\n        /* \"#utility.yul\":2877:2956   */\n      tag_215\n      tag_145\n      jump\t// in\n    tag_215:\n        /* \"#utility.yul\":2841:2958   */\n    tag_214:\n        /* \"#utility.yul\":2982:3045   */\n      tag_216\n        /* \"#utility.yul\":3037:3044   */\n      dup5\n        /* \"#utility.yul\":3028:3034   */\n      dup3\n        /* \"#utility.yul\":3017:3026   */\n      dup6\n        /* \"#utility.yul\":3013:3035   */\n      add\n        /* \"#utility.yul\":2982:3045   */\n      tag_154\n      jump\t// in\n    tag_216:\n        /* \"#utility.yul\":2972:3045   */\n      swap2\n      pop\n        /* \"#utility.yul\":2768:3055   */\n      pop\n        /* \"#utility.yul\":2553:3062   */\n      swap3\n      swap2\n      pop\n      pop\n      jump\t// out\n        /* \"#utility.yul\":3068:3167   */\n    tag_155:\n        /* \"#utility.yul\":3120:3126   */\n      0x00\n        /* \"#utility.yul\":3154:3159   */\n      dup2\n        /* \"#utility.yul\":3148:3160   */\n      mload\n        /* \"#utility.yul\":3138:3160   */\n      swap1\n      pop\n        /* \"#utility.yul\":3068:3167   */\n      swap2\n      swap1\n      pop\n      jump\t// out\n        /* \"#utility.yul\":3173:3342   */\n    tag_156:\n        /* \"#utility.yul\":3257:3268   */\n      0x00\n        /* \"#utility.yul\":3291:3297   */\n      dup3\n        /* \"#utility.yul\":3286:3289   */\n      dup3\n        /* \"#utility.yul\":3279:3298   */\n      mstore\n        /* \"#utility.yul\":3331:3335   */\n      0x20\n        /* \"#utility.yul\":3326:3329   */\n      dup3\n        /* \"#utility.yul\":3322:3336   */\n      add\n        /* \"#utility.yul\":3307:3336   */\n      swap1\n      pop\n        /* \"#utility.yul\":3173:3342   */\n      swap3\n      swap2\n      pop\n      pop\n      jump\t// out\n        /* \"#utility.yul\":3348:3594   */\n    tag_157:\n        /* \"#utility.yul\":3429:3430   */\n      0x00\n        /* \"#utility.yul\":3439:3552   */\n    tag_220:\n        /* \"#utility.yul\":3453:3459   */\n      dup4\n        /* \"#utility.yul\":3450:3451   */\n      dup2\n        /* \"#utility.yul\":3447:3460   */\n      lt\n        /* \"#utility.yul\":3439:3552   */\n      iszero\n      tag_222\n      jumpi\n        /* \"#utility.yul\":3538:3539   */\n      dup1\n        /* \"#utility.yul\":3533:3536   */\n      dup3\n        /* \"#utility.yul\":3529:3540   */\n      add\n        /* \"#utility.yul\":3523:3541   */\n      mload\n        /* \"#utility.yul\":3519:3520   */\n      dup2\n        /* \"#utility.yul\":3514:3517   */\n      dup5\n        /* \"#utility.yul\":3510:3521   */\n      add\n        /* \"#utility.yul\":3503:3542   */\n      mstore\n        /* \"#utility.yul\":3475:3477   */\n      0x20\n        /* \"#utility.yul\":3472:3473   */\n      dup2\n        /* \"#utility.yul\":3468:3478   */\n      add\n        /* \"#utility.yul\":3463:3478   */\n      swap1\n      pop\n        /* \"#utility.yul\":3439:3552   */\n      jump(tag_220)\n    tag_222:\n        /* \"#utility.yul\":3586:3587   */\n      0x00\n        /* \"#utility.yul\":3577:3583   */\n      dup5\n        /* \"#utility.yul\":3572:3575   */\n      dup5\n        /* \"#utility.yul\":3568:3584   */\n      add\n        /* \"#utility.yul\":3561:3588   */\n      mstore\n        /* \"#utility.yul\":3410:3594   */\n      pop\n        /* \"#utility.yul\":3348:3594   */\n      pop\n      pop\n      pop\n      jump\t// out\n        /* \"#utility.yul\":3600:3977   */\n    tag_158:\n        /* \"#utility.yul\":3688:3691   */\n      0x00\n        /* \"#utility.yul\":3716:3755   */\n      tag_224\n        /* \"#utility.yul\":3749:3754   */\n      dup3\n        /* \"#utility.yul\":3716:3755   */\n      tag_155\n      jump\t// in\n    tag_224:\n        /* \"#utility.yul\":3771:3842   */\n      tag_225\n        /* \"#utility.yul\":3835:3841   */\n      dup2\n        /* \"#utility.yul\":3830:3833   */\n      dup6\n        /* \"#utility.yul\":3771:3842   */\n      tag_156\n      jump\t// in\n    tag_225:\n        /* \"#utility.yul\":3764:3842   */\n      swap4\n      pop\n        /* \"#utility.yul\":3851:3916   */\n      tag_226\n        /* \"#utility.yul\":3909:3915   */\n      dup2\n        /* \"#utility.yul\":3904:3907   */\n      dup6\n        /* \"#utility.yul\":3897:3901   */\n      0x20\n        /* \"#utility.yul\":3890:3895   */\n      dup7\n        /* \"#utility.yul\":3886:3902   */\n      add\n        /* \"#utility.yul\":3851:3916   */\n      tag_157\n      jump\t// in\n    tag_226:\n        /* \"#utility.yul\":3941:3970   */\n      tag_227\n        /* \"#utility.yul\":3963:3969   */\n      dup2\n        /* \"#utility.yul\":3941:3970   */\n      tag_148\n      jump\t// in\n    tag_227:\n        /* \"#utility.yul\":3936:3939   */\n      dup5\n        /* \"#utility.yul\":3932:3971   */\n      add\n        /* \"#utility.yul\":3925:3971   */\n      swap2\n      pop\n        /* \"#utility.yul\":3692:3977   */\n      pop\n        /* \"#utility.yul\":3600:3977   */\n      swap3\n      swap2\n      pop\n      pop\n      jump\t// out\n        /* \"#utility.yul\":3983:4296   */\n    tag_13:\n        /* \"#utility.yul\":4096:4100   */\n      0x00\n        /* \"#utility.yul\":4134:4136   */\n      0x20\n        /* \"#utility.yul\":4123:4132   */\n      dup3\n        /* \"#utility.yul\":4119:4137   */\n      add\n        /* \"#utility.yul\":4111:4137   */\n      swap1\n      pop\n        /* \"#utility.yul\":4183:4192   */\n      dup2\n        /* \"#utility.yul\":4177:4181   */\n      dup2\n        /* \"#utility.yul\":4173:4193   */\n      sub\n        /* \"#utility.yul\":4169:4170   */\n      0x00\n        /* \"#utility.yul\":4158:4167   */\n      dup4\n        /* \"#utility.yul\":4154:4171   */\n      add\n        /* \"#utility.yul\":4147:4194   */\n      mstore\n        /* \"#utility.yul\":4211:4289   */\n      tag_229\n        /* \"#utility.yul\":4284:4288   */\n      dup2\n        /* \"#utility.yul\":4275:4281   */\n      dup5\n        /* \"#utility.yul\":4211:4289   */\n      tag_158\n      jump\t// in\n    tag_229:\n        /* \"#utility.yul\":4203:4289   */\n      swap1\n      pop\n        /* \"#utility.yul\":3983:4296   */\n      swap3\n      swap2\n      pop\n      pop\n      jump\t// out\n        /* \"#utility.yul\":4302:4379   */\n    tag_159:\n        /* \"#utility.yul\":4339:4346   */\n      0x00\n        /* \"#utility.yul\":4368:4373   */\n      dup2\n        /* \"#utility.yul\":4357:4373   */\n      swap1\n      pop\n        /* \"#utility.yul\":4302:4379   */\n      swap2\n      swap1\n      pop\n      jump\t// out\n        /* \"#utility.yul\":4385:4507   */\n    tag_160:\n        /* \"#utility.yul\":4458:4482   */\n      tag_232\n        /* \"#utility.yul\":4476:4481   */\n      dup2\n        /* \"#utility.yul\":4458:4482   */\n      tag_159\n      jump\t// in\n    tag_232:\n        /* \"#utility.yul\":4451:4456   */\n      dup2\n        /* \"#utility.yul\":4448:4483   */\n      eq\n        /* \"#utility.yul\":4438:4501   */\n      tag_233\n      jumpi\n        /* \"#utility.yul\":4497:4498   */\n      0x00\n        /* \"#utility.yul\":4494:4495   */\n      dup1\n        /* \"#utility.yul\":4487:4499   */\n      revert\n        /* \"#utility.yul\":4438:4501   */\n    tag_233:\n        /* \"#utility.yul\":4385:4507   */\n      pop\n      jump\t// out\n        /* \"#utility.yul\":4513:4652   */\n    tag_161:\n        /* \"#utility.yul\":4559:4564   */\n      0x00\n        /* \"#utility.yul\":4597:4603   */\n      dup2\n        /* \"#utility.yul\":4584:4604   */\n      calldataload\n        /* \"#utility.yul\":4575:4604   */\n      swap1\n      pop\n        /* \"#utility.yul\":4613:4646   */\n      tag_235\n        /* \"#utility.yul\":4640:4645   */\n      dup2\n        /* \"#utility.yul\":4613:4646   */\n      tag_160\n      jump\t// in\n    tag_235:\n        /* \"#utility.yul\":4513:4652   */\n      swap3\n      swap2\n      pop\n      pop\n      jump\t// out\n        /* \"#utility.yul\":4658:4987   */\n    tag_16:\n        /* \"#utility.yul\":4717:4723   */\n      0x00\n        /* \"#utility.yul\":4766:4768   */\n      0x20\n        /* \"#utility.yul\":4754:4763   */\n      dup3\n        /* \"#utility.yul\":4745:4752   */\n      dup5\n        /* \"#utility.yul\":4741:4764   */\n      sub\n        /* \"#utility.yul\":4737:4769   */\n      slt\n        /* \"#utility.yul\":4734:4853   */\n      iszero\n      tag_237\n      jumpi\n        /* \"#utility.yul\":4772:4851   */\n      tag_238\n      tag_144\n      jump\t// in\n    tag_238:\n        /* \"#utility.yul\":4734:4853   */\n    tag_237:\n        /* \"#utility.yul\":4892:4893   */\n      0x00\n        /* \"#utility.yul\":4917:4970   */\n      tag_239\n        /* \"#utility.yul\":4962:4969   */\n      dup5\n        /* \"#utility.yul\":4953:4959   */\n      dup3\n        /* \"#utility.yul\":4942:4951   */\n      dup6\n        /* \"#utility.yul\":4938:4960   */\n      add\n        /* \"#utility.yul\":4917:4970   */\n      tag_161\n      jump\t// in\n    tag_239:\n        /* \"#utility.yul\":4907:4970   */\n      swap2\n      pop\n        /* \"#utility.yul\":4863:4980   */\n      pop\n        /* \"#utility.yul\":4658:4987   */\n      swap3\n      swap2\n      pop\n      pop\n      jump\t// out\n        /* \"#utility.yul\":4993:5069   */\n    tag_162:\n        /* \"#utility.yul\":5029:5036   */\n      0x00\n        /* \"#utility.yul\":5058:5063   */\n      dup2\n        /* \"#utility.yul\":5047:5063   */\n      swap1\n      pop\n        /* \"#utility.yul\":4993:5069   */\n      swap2\n      swap1\n      pop\n      jump\t// out\n        /* \"#utility.yul\":5075:5190   */\n    tag_163:\n        /* \"#utility.yul\":5160:5183   */\n      tag_242\n        /* \"#utility.yul\":5177:5182   */\n      dup2\n        /* \"#utility.yul\":5160:5183   */\n      tag_162\n      jump\t// in\n    tag_242:\n        /* \"#utility.yul\":5155:5158   */\n      dup3\n        /* \"#utility.yul\":5148:5184   */\n      mstore\n        /* \"#utility.yul\":5075:5190   */\n      pop\n      pop\n      jump\t// out\n        /* \"#utility.yul\":5196:5414   */\n    tag_23:\n        /* \"#utility.yul\":5287:5291   */\n      0x00\n        /* \"#utility.yul\":5325:5327   */\n      0x20\n        /* \"#utility.yul\":5314:5323   */\n      dup3\n        /* \"#utility.yul\":5310:5328   */\n      add\n        /* \"#utility.yul\":5302:5328   */\n      swap1\n      pop\n        /* \"#utility.yul\":5338:5407   */\n      tag_244\n        /* \"#utility.yul\":5404:5405   */\n      0x00\n        /* \"#utility.yul\":5393:5402   */\n      dup4\n        /* \"#utility.yul\":5389:5406   */\n      add\n        /* \"#utility.yul\":5380:5386   */\n      dup5\n        /* \"#utility.yul\":5338:5407   */\n      tag_163\n      jump\t// in\n    tag_244:\n        /* \"#utility.yul\":5196:5414   */\n      swap3\n      swap2\n      pop\n      pop\n      jump\t// out\n        /* \"#utility.yul\":5420:5537   */\n    tag_164:\n        /* \"#utility.yul\":5529:5530   */\n      0x00\n        /* \"#utility.yul\":5526:5527   */\n      dup1\n        /* \"#utility.yul\":5519:5531   */\n      revert\n        /* \"#utility.yul\":5543:5660   */\n    tag_165:\n        /* \"#utility.yul\":5652:5653   */\n      0x00\n        /* \"#utility.yul\":5649:5650   */\n      dup1\n        /* \"#utility.yul\":5642:5654   */\n      revert\n        /* \"#utility.yul\":5683:6251   */\n    tag_166:\n        /* \"#utility.yul\":5756:5764   */\n      0x00\n        /* \"#utility.yul\":5766:5772   */\n      dup1\n        /* \"#utility.yul\":5816:5819   */\n      dup4\n        /* \"#utility.yul\":5809:5813   */\n      0x1f\n        /* \"#utility.yul\":5801:5807   */\n      dup5\n        /* \"#utility.yul\":5797:5814   */\n      add\n        /* \"#utility.yul\":5793:5820   */\n      slt\n        /* \"#utility.yul\":5783:5905   */\n      tag_248\n      jumpi\n        /* \"#utility.yul\":5824:5903   */\n      tag_249\n      tag_146\n      jump\t// in\n    tag_249:\n        /* \"#utility.yul\":5783:5905   */\n    tag_248:\n        /* \"#utility.yul\":5937:5943   */\n      dup3\n        /* \"#utility.yul\":5924:5944   */\n      calldataload\n        /* \"#utility.yul\":5914:5944   */\n      swap1\n      pop\n        /* \"#utility.yul\":5967:5985   */\n      0xffffffffffffffff\n        /* \"#utility.yul\":5959:5965   */\n      dup2\n        /* \"#utility.yul\":5956:5986   */\n      gt\n        /* \"#utility.yul\":5953:6070   */\n      iszero\n      tag_250\n      jumpi\n        /* \"#utility.yul\":5989:6068   */\n      tag_251\n      tag_164\n      jump\t// in\n    tag_251:\n        /* \"#utility.yul\":5953:6070   */\n    tag_250:\n        /* \"#utility.yul\":6103:6107   */\n      0x20\n        /* \"#utility.yul\":6095:6101   */\n      dup4\n        /* \"#utility.yul\":6091:6108   */\n      add\n        /* \"#utility.yul\":6079:6108   */\n      swap2\n      pop\n        /* \"#utility.yul\":6157:6160   */\n      dup4\n        /* \"#utility.yul\":6149:6153   */\n      0x20\n        /* \"#utility.yul\":6141:6147   */\n      dup3\n        /* \"#utility.yul\":6137:6154   */\n      mul\n        /* \"#utility.yul\":6127:6135   */\n      dup4\n        /* \"#utility.yul\":6123:6155   */\n      add\n        /* \"#utility.yul\":6120:6161   */\n      gt\n        /* \"#utility.yul\":6117:6245   */\n      iszero\n      tag_252\n      jumpi\n        /* \"#utility.yul\":6164:6243   */\n      tag_253\n      tag_165\n      jump\t// in\n    tag_253:\n        /* \"#utility.yul\":6117:6245   */\n    tag_252:\n        /* \"#utility.yul\":5683:6251   */\n      swap3\n      pop\n      swap3\n      swap1\n      pop\n      jump\t// out\n        /* \"#utility.yul\":6257:6961   */\n    tag_26:\n        /* \"#utility.yul\":6352:6358   */\n      0x00\n        /* \"#utility.yul\":6360:6366   */\n      dup1\n        /* \"#utility.yul\":6368:6374   */\n      0x00\n        /* \"#utility.yul\":6417:6419   */\n      0x40\n        /* \"#utility.yul\":6405:6414   */\n      dup5\n        /* \"#utility.yul\":6396:6403   */\n      dup7\n        /* \"#utility.yul\":6392:6415   */\n      sub\n        /* \"#utility.yul\":6388:6420   */\n      slt\n        /* \"#utility.yul\":6385:6504   */\n      iszero\n      tag_255\n      jumpi\n        /* \"#utility.yul\":6423:6502   */\n      tag_256\n      tag_144\n      jump\t// in\n    tag_256:\n        /* \"#utility.yul\":6385:6504   */\n    tag_255:\n        /* \"#utility.yul\":6571:6572   */\n      0x00\n        /* \"#utility.yul\":6560:6569   */\n      dup5\n        /* \"#utility.yul\":6556:6573   */\n      add\n        /* \"#utility.yul\":6543:6574   */\n      calldataload\n        /* \"#utility.yul\":6601:6619   */\n      0xffffffffffffffff\n        /* \"#utility.yul\":6593:6599   */\n      dup2\n        /* \"#utility.yul\":6590:6620   */\n      gt\n        /* \"#utility.yul\":6587:6704   */\n      iszero\n      tag_257\n      jumpi\n        /* \"#utility.yul\":6623:6702   */\n      tag_258\n      tag_145\n      jump\t// in\n    tag_258:\n        /* \"#utility.yul\":6587:6704   */\n    tag_257:\n        /* \"#utility.yul\":6736:6816   */\n      tag_259\n        /* \"#utility.yul\":6808:6815   */\n      dup7\n        /* \"#utility.yul\":6799:6805   */\n      dup3\n        /* \"#utility.yul\":6788:6797   */\n      dup8\n        /* \"#utility.yul\":6784:6806   */\n      add\n        /* \"#utility.yul\":6736:6816   */\n      tag_166\n      jump\t// in\n    tag_259:\n        /* \"#utility.yul\":6718:6816   */\n      swap4\n      pop\n      swap4\n      pop\n        /* \"#utility.yul\":6514:6826   */\n      pop\n        /* \"#utility.yul\":6865:6867   */\n      0x20\n        /* \"#utility.yul\":6891:6944   */\n      tag_260\n        /* \"#utility.yul\":6936:6943   */\n      dup7\n        /* \"#utility.yul\":6927:6933   */\n      dup3\n        /* \"#utility.yul\":6916:6925   */\n      dup8\n        /* \"#utility.yul\":6912:6934   */\n      add\n        /* \"#utility.yul\":6891:6944   */\n      tag_161\n      jump\t// in\n    tag_260:\n        /* \"#utility.yul\":6881:6944   */\n      swap2\n      pop\n        /* \"#utility.yul\":6836:6954   */\n      pop\n        /* \"#utility.yul\":6257:6961   */\n      swap3\n      pop\n      swap3\n      pop\n      swap3\n      jump\t// out\n        /* \"#utility.yul\":6967:7901   */\n    tag_31:\n        /* \"#utility.yul\":7089:7095   */\n      0x00\n        /* \"#utility.yul\":7097:7103   */\n      dup1\n        /* \"#utility.yul\":7105:7111   */\n      0x00\n        /* \"#utility.yul\":7113:7119   */\n      dup1\n        /* \"#utility.yul\":7162:7164   */\n      0x40\n        /* \"#utility.yul\":7150:7159   */\n      dup6\n        /* \"#utility.yul\":7141:7148   */\n      dup8\n        /* \"#utility.yul\":7137:7160   */\n      sub\n        /* \"#utility.yul\":7133:7165   */\n      slt\n        /* \"#utility.yul\":7130:7249   */\n      iszero\n      tag_262\n      jumpi\n        /* \"#utility.yul\":7168:7247   */\n      tag_263\n      tag_144\n      jump\t// in\n    tag_263:\n        /* \"#utility.yul\":7130:7249   */\n    tag_262:\n        /* \"#utility.yul\":7316:7317   */\n      0x00\n        /* \"#utility.yul\":7305:7314   */\n      dup6\n        /* \"#utility.yul\":7301:7318   */\n      add\n        /* \"#utility.yul\":7288:7319   */\n      calldataload\n        /* \"#utility.yul\":7346:7364   */\n      0xffffffffffffffff\n        /* \"#utility.yul\":7338:7344   */\n      dup2\n        /* \"#utility.yul\":7335:7365   */\n      gt\n        /* \"#utility.yul\":7332:7449   */\n      iszero\n      tag_264\n      jumpi\n        /* \"#utility.yul\":7368:7447   */\n      tag_265\n      tag_145\n      jump\t// in\n    tag_265:\n        /* \"#utility.yul\":7332:7449   */\n    tag_264:\n        /* \"#utility.yul\":7481:7561   */\n      tag_266\n        /* \"#utility.yul\":7553:7560   */\n      dup8\n        /* \"#utility.yul\":7544:7550   */\n      dup3\n        /* \"#utility.yul\":7533:7542   */\n      dup9\n        /* \"#utility.yul\":7529:7551   */\n      add\n        /* \"#utility.yul\":7481:7561   */\n      tag_166\n      jump\t// in\n    tag_266:\n        /* \"#utility.yul\":7463:7561   */\n      swap5\n      pop\n      swap5\n      pop\n        /* \"#utility.yul\":7259:7571   */\n      pop\n        /* \"#utility.yul\":7638:7640   */\n      0x20\n        /* \"#utility.yul\":7627:7636   */\n      dup6\n        /* \"#utility.yul\":7623:7641   */\n      add\n        /* \"#utility.yul\":7610:7642   */\n      calldataload\n        /* \"#utility.yul\":7669:7687   */\n      0xffffffffffffffff\n        /* \"#utility.yul\":7661:7667   */\n      dup2\n        /* \"#utility.yul\":7658:7688   */\n      gt\n        /* \"#utility.yul\":7655:7772   */\n      iszero\n      tag_267\n      jumpi\n        /* \"#utility.yul\":7691:7770   */\n      tag_268\n      tag_145\n      jump\t// in\n    tag_268:\n        /* \"#utility.yul\":7655:7772   */\n    tag_267:\n        /* \"#utility.yul\":7804:7884   */\n      tag_269\n        /* \"#utility.yul\":7876:7883   */\n      dup8\n        /* \"#utility.yul\":7867:7873   */\n      dup3\n        /* \"#utility.yul\":7856:7865   */\n      dup9\n        /* \"#utility.yul\":7852:7874   */\n      add\n        /* \"#utility.yul\":7804:7884   */\n      tag_166\n      jump\t// in\n    tag_269:\n        /* \"#utility.yul\":7786:7884   */\n      swap3\n      pop\n      swap3\n      pop\n        /* \"#utility.yul\":7581:7894   */\n      pop\n        /* \"#utility.yul\":6967:7901   */\n      swap3\n      swap6\n      swap2\n      swap5\n      pop\n      swap3\n      pop\n      jump\t// out\n        /* \"#utility.yul\":7907:8021   */\n    tag_167:\n        /* \"#utility.yul\":7974:7980   */\n      0x00\n        /* \"#utility.yul\":8008:8013   */\n      dup2\n        /* \"#utility.yul\":8002:8014   */\n      mload\n        /* \"#utility.yul\":7992:8014   */\n      swap1\n      pop\n        /* \"#utility.yul\":7907:8021   */\n      swap2\n      swap1\n      pop\n      jump\t// out\n        /* \"#utility.yul\":8027:8211   */\n    tag_168:\n        /* \"#utility.yul\":8126:8137   */\n      0x00\n        /* \"#utility.yul\":8160:8166   */\n      dup3\n        /* \"#utility.yul\":8155:8158   */\n      dup3\n        /* \"#utility.yul\":8148:8167   */\n      mstore\n        /* \"#utility.yul\":8200:8204   */\n      0x20\n        /* \"#utility.yul\":8195:8198   */\n      dup3\n        /* \"#utility.yul\":8191:8205   */\n      add\n        /* \"#utility.yul\":8176:8205   */\n      swap1\n      pop\n        /* \"#utility.yul\":8027:8211   */\n      swap3\n      swap2\n      pop\n      pop\n      jump\t// out\n        /* \"#utility.yul\":8217:8349   */\n    tag_169:\n        /* \"#utility.yul\":8284:8288   */\n      0x00\n        /* \"#utility.yul\":8307:8310   */\n      dup2\n        /* \"#utility.yul\":8299:8310   */\n      swap1\n      pop\n        /* \"#utility.yul\":8337:8341   */\n      0x20\n        /* \"#utility.yul\":8332:8335   */\n      dup3\n        /* \"#utility.yul\":8328:8342   */\n      add\n        /* \"#utility.yul\":8320:8342   */\n      swap1\n      pop\n        /* \"#utility.yul\":8217:8349   */\n      swap2\n      swap1\n      pop\n      jump\t// out\n        /* \"#utility.yul\":8355:8463   */\n    tag_170:\n        /* \"#utility.yul\":8432:8456   */\n      tag_274\n        /* \"#utility.yul\":8450:8455   */\n      dup2\n        /* \"#utility.yul\":8432:8456   */\n      tag_159\n      jump\t// in\n    tag_274:\n        /* \"#utility.yul\":8427:8430   */\n      dup3\n        /* \"#utility.yul\":8420:8457   */\n      mstore\n        /* \"#utility.yul\":8355:8463   */\n      pop\n      pop\n      jump\t// out\n        /* \"#utility.yul\":8469:8648   */\n    tag_171:\n        /* \"#utility.yul\":8538:8548   */\n      0x00\n        /* \"#utility.yul\":8559:8605   */\n      tag_276\n        /* \"#utility.yul\":8601:8604   */\n      dup4\n        /* \"#utility.yul\":8593:8599   */\n      dup4\n        /* \"#utility.yul\":8559:8605   */\n      tag_170\n      jump\t// in\n    tag_276:\n        /* \"#utility.yul\":8637:8641   */\n      0x20\n        /* \"#utility.yul\":8632:8635   */\n      dup4\n        /* \"#utility.yul\":8628:8642   */\n      add\n        /* \"#utility.yul\":8614:8642   */\n      swap1\n      pop\n        /* \"#utility.yul\":8469:8648   */\n      swap3\n      swap2\n      pop\n      pop\n      jump\t// out\n        /* \"#utility.yul\":8654:8767   */\n    tag_172:\n        /* \"#utility.yul\":8724:8728   */\n      0x00\n        /* \"#utility.yul\":8756:8760   */\n      0x20\n        /* \"#utility.yul\":8751:8754   */\n      dup3\n        /* \"#utility.yul\":8747:8761   */\n      add\n        /* \"#utility.yul\":8739:8761   */\n      swap1\n      pop\n        /* \"#utility.yul\":8654:8767   */\n      swap2\n      swap1\n      pop\n      jump\t// out\n        /* \"#utility.yul\":8803:9535   */\n    tag_173:\n        /* \"#utility.yul\":8922:8925   */\n      0x00\n        /* \"#utility.yul\":8951:9005   */\n      tag_279\n        /* \"#utility.yul\":8999:9004   */\n      dup3\n        /* \"#utility.yul\":8951:9005   */\n      tag_167\n      jump\t// in\n    tag_279:\n        /* \"#utility.yul\":9021:9107   */\n      tag_280\n        /* \"#utility.yul\":9100:9106   */\n      dup2\n        /* \"#utility.yul\":9095:9098   */\n      dup6\n        /* \"#utility.yul\":9021:9107   */\n      tag_168\n      jump\t// in\n    tag_280:\n        /* \"#utility.yul\":9014:9107   */\n      swap4\n      pop\n        /* \"#utility.yul\":9131:9187   */\n      tag_281\n        /* \"#utility.yul\":9181:9186   */\n      dup4\n        /* \"#utility.yul\":9131:9187   */\n      tag_169\n      jump\t// in\n    tag_281:\n        /* \"#utility.yul\":9210:9217   */\n      dup1\n        /* \"#utility.yul\":9241:9242   */\n      0x00\n        /* \"#utility.yul\":9226:9510   */\n    tag_282:\n        /* \"#utility.yul\":9251:9257   */\n      dup4\n        /* \"#utility.yul\":9248:9249   */\n      dup2\n        /* \"#utility.yul\":9245:9258   */\n      lt\n        /* \"#utility.yul\":9226:9510   */\n      iszero\n      tag_284\n      jumpi\n        /* \"#utility.yul\":9327:9333   */\n      dup2\n        /* \"#utility.yul\":9321:9334   */\n      mload\n        /* \"#utility.yul\":9354:9417   */\n      tag_285\n        /* \"#utility.yul\":9413:9416   */\n      dup9\n        /* \"#utility.yul\":9398:9411   */\n      dup3\n        /* \"#utility.yul\":9354:9417   */\n      tag_171\n      jump\t// in\n    tag_285:\n        /* \"#utility.yul\":9347:9417   */\n      swap8\n      pop\n        /* \"#utility.yul\":9440:9500   */\n      tag_286\n        /* \"#utility.yul\":9493:9499   */\n      dup4\n        /* \"#utility.yul\":9440:9500   */\n      tag_172\n      jump\t// in\n    tag_286:\n        /* \"#utility.yul\":9430:9500   */\n      swap3\n      pop\n        /* \"#utility.yul\":9286:9510   */\n      pop\n        /* \"#utility.yul\":9273:9274   */\n      0x01\n        /* \"#utility.yul\":9270:9271   */\n      dup2\n        /* \"#utility.yul\":9266:9275   */\n      add\n        /* \"#utility.yul\":9261:9275   */\n      swap1\n      pop\n        /* \"#utility.yul\":9226:9510   */\n      jump(tag_282)\n    tag_284:\n        /* \"#utility.yul\":9230:9244   */\n      pop\n        /* \"#utility.yul\":9526:9529   */\n      dup6\n        /* \"#utility.yul\":9519:9529   */\n      swap4\n      pop\n        /* \"#utility.yul\":8927:9535   */\n      pop\n      pop\n      pop\n        /* \"#utility.yul\":8803:9535   */\n      swap3\n      swap2\n      pop\n      pop\n      jump\t// out\n        /* \"#utility.yul\":9541:9914   */\n    tag_34:\n        /* \"#utility.yul\":9684:9688   */\n      0x00\n        /* \"#utility.yul\":9722:9724   */\n      0x20\n        /* \"#utility.yul\":9711:9720   */\n      dup3\n        /* \"#utility.yul\":9707:9725   */\n      add\n        /* \"#utility.yul\":9699:9725   */\n      swap1\n      pop\n        /* \"#utility.yul\":9771:9780   */\n      dup2\n        /* \"#utility.yul\":9765:9769   */\n      dup2\n        /* \"#utility.yul\":9761:9781   */\n      sub\n        /* \"#utility.yul\":9757:9758   */\n      0x00\n        /* \"#utility.yul\":9746:9755   */\n      dup4\n        /* \"#utility.yul\":9742:9759   */\n      add\n        /* \"#utility.yul\":9735:9782   */\n      mstore\n        /* \"#utility.yul\":9799:9907   */\n      tag_288\n        /* \"#utility.yul\":9902:9906   */\n      dup2\n        /* \"#utility.yul\":9893:9899   */\n      dup5\n        /* \"#utility.yul\":9799:9907   */\n      tag_173\n      jump\t// in\n    tag_288:\n        /* \"#utility.yul\":9791:9907   */\n      swap1\n      pop\n        /* \"#utility.yul\":9541:9914   */\n      swap3\n      swap2\n      pop\n      pop\n      jump\t// out\n        /* \"#utility.yul\":9920:10100   */\n    tag_174:\n        /* \"#utility.yul\":9968:10045   */\n      0x4e487b7100000000000000000000000000000000000000000000000000000000\n        /* \"#utility.yul\":9965:9966   */\n      0x00\n        /* \"#utility.yul\":9958:10046   */\n      mstore\n        /* \"#utility.yul\":10065:10069   */\n      0x11\n        /* \"#utility.yul\":10062:10063   */\n      0x04\n        /* \"#utility.yul\":10055:10070   */\n      mstore\n        /* \"#utility.yul\":10089:10093   */\n      0x24\n        /* \"#utility.yul\":10086:10087   */\n      0x00\n        /* \"#utility.yul\":10079:10094   */\n      revert\n        /* \"#utility.yul\":10106:10300   */\n    tag_44:\n        /* \"#utility.yul\":10146:10150   */\n      0x00\n        /* \"#utility.yul\":10166:10186   */\n      tag_291\n        /* \"#utility.yul\":10184:10185   */\n      dup3\n        /* \"#utility.yul\":10166:10186   */\n      tag_159\n      jump\t// in\n    tag_291:\n        /* \"#utility.yul\":10161:10186   */\n      swap2\n      pop\n        /* \"#utility.yul\":10200:10220   */\n      tag_292\n        /* \"#utility.yul\":10218:10219   */\n      dup4\n        /* \"#utility.yul\":10200:10220   */\n      tag_159\n      jump\t// in\n    tag_292:\n        /* \"#utility.yul\":10195:10220   */\n      swap3\n      pop\n        /* \"#utility.yul\":10244:10245   */\n      dup3\n        /* \"#utility.yul\":10241:10242   */\n      dup3\n        /* \"#utility.yul\":10237:10246   */\n      sub\n        /* \"#utility.yul\":10229:10246   */\n      swap1\n      pop\n        /* \"#utility.yul\":10268:10269   */\n      dup2\n        /* \"#utility.yul\":10262:10266   */\n      dup2\n        /* \"#utility.yul\":10259:10270   */\n      gt\n        /* \"#utility.yul\":10256:10293   */\n      iszero\n      tag_293\n      jumpi\n        /* \"#utility.yul\":10273:10291   */\n      tag_294\n      tag_174\n      jump\t// in\n    tag_294:\n        /* \"#utility.yul\":10256:10293   */\n    tag_293:\n        /* \"#utility.yul\":10106:10300   */\n      swap3\n      swap2\n      pop\n      pop\n      jump\t// out\n        /* \"#utility.yul\":10306:10486   */\n    tag_48:\n        /* \"#utility.yul\":10354:10431   */\n      0x4e487b7100000000000000000000000000000000000000000000000000000000\n        /* \"#utility.yul\":10351:10352   */\n      0x00\n        /* \"#utility.yul\":10344:10432   */\n      mstore\n        /* \"#utility.yul\":10451:10455   */\n      0x32\n        /* \"#utility.yul\":10448:10449   */\n      0x04\n        /* \"#utility.yul\":10441:10456   */\n      mstore\n        /* \"#utility.yul\":10475:10479   */\n      0x24\n        /* \"#utility.yul\":10472:10473   */\n      0x00\n        /* \"#utility.yul\":10465:10480   */\n      revert\n        /* \"#utility.yul\":10492:10590   */\n    tag_175:\n        /* \"#utility.yul\":10543:10549   */\n      0x00\n        /* \"#utility.yul\":10577:10582   */\n      dup2\n        /* \"#utility.yul\":10571:10583   */\n      mload\n        /* \"#utility.yul\":10561:10583   */\n      swap1\n      pop\n        /* \"#utility.yul\":10492:10590   */\n      swap2\n      swap1\n      pop\n      jump\t// out\n        /* \"#utility.yul\":10596:10743   */\n    tag_176:\n        /* \"#utility.yul\":10697:10708   */\n      0x00\n        /* \"#utility.yul\":10734:10737   */\n      dup2\n        /* \"#utility.yul\":10719:10737   */\n      swap1\n      pop\n        /* \"#utility.yul\":10596:10743   */\n      swap3\n      swap2\n      pop\n      pop\n      jump\t// out\n        /* \"#utility.yul\":10749:11135   */\n    tag_177:\n        /* \"#utility.yul\":10853:10856   */\n      0x00\n        /* \"#utility.yul\":10881:10919   */\n      tag_299\n        /* \"#utility.yul\":10913:10918   */\n      dup3\n        /* \"#utility.yul\":10881:10919   */\n      tag_175\n      jump\t// in\n    tag_299:\n        /* \"#utility.yul\":10935:11023   */\n      tag_300\n        /* \"#utility.yul\":11016:11022   */\n      dup2\n        /* \"#utility.yul\":11011:11014   */\n      dup6\n        /* \"#utility.yul\":10935:11023   */\n      tag_176\n      jump\t// in\n    tag_300:\n        /* \"#utility.yul\":10928:11023   */\n      swap4\n      pop\n        /* \"#utility.yul\":11032:11097   */\n      tag_301\n        /* \"#utility.yul\":11090:11096   */\n      dup2\n        /* \"#utility.yul\":11085:11088   */\n      dup6\n        /* \"#utility.yul\":11078:11082   */\n      0x20\n        /* \"#utility.yul\":11071:11076   */\n      dup7\n        /* \"#utility.yul\":11067:11083   */\n      add\n        /* \"#utility.yul\":11032:11097   */\n      tag_157\n      jump\t// in\n    tag_301:\n        /* \"#utility.yul\":11122:11128   */\n      dup1\n        /* \"#utility.yul\":11117:11120   */\n      dup5\n        /* \"#utility.yul\":11113:11129   */\n      add\n        /* \"#utility.yul\":11106:11129   */\n      swap2\n      pop\n        /* \"#utility.yul\":10857:11135   */\n      pop\n        /* \"#utility.yul\":10749:11135   */\n      swap3\n      swap2\n      pop\n      pop\n      jump\t// out\n        /* \"#utility.yul\":11141:11289   */\n    tag_178:\n        /* \"#utility.yul\":11243:11254   */\n      0x00\n        /* \"#utility.yul\":11280:11283   */\n      dup2\n        /* \"#utility.yul\":11265:11283   */\n      swap1\n      pop\n        /* \"#utility.yul\":11141:11289   */\n      swap3\n      swap2\n      pop\n      pop\n      jump\t// out\n        /* \"#utility.yul\":11295:11685   */\n    tag_179:\n        /* \"#utility.yul\":11401:11404   */\n      0x00\n        /* \"#utility.yul\":11429:11468   */\n      tag_304\n        /* \"#utility.yul\":11462:11467   */\n      dup3\n        /* \"#utility.yul\":11429:11468   */\n      tag_155\n      jump\t// in\n    tag_304:\n        /* \"#utility.yul\":11484:11573   */\n      tag_305\n        /* \"#utility.yul\":11566:11572   */\n      dup2\n        /* \"#utility.yul\":11561:11564   */\n      dup6\n        /* \"#utility.yul\":11484:11573   */\n      tag_178\n      jump\t// in\n    tag_305:\n        /* \"#utility.yul\":11477:11573   */\n      swap4\n      pop\n        /* \"#utility.yul\":11582:11647   */\n      tag_306\n        /* \"#utility.yul\":11640:11646   */\n      dup2\n        /* \"#utility.yul\":11635:11638   */\n      dup6\n        /* \"#utility.yul\":11628:11632   */\n      0x20\n        /* \"#utility.yul\":11621:11626   */\n      dup7\n        /* \"#utility.yul\":11617:11633   */\n      add\n        /* \"#utility.yul\":11582:11647   */\n      tag_157\n      jump\t// in\n    tag_306:\n        /* \"#utility.yul\":11672:11678   */\n      dup1\n        /* \"#utility.yul\":11667:11670   */\n      dup5\n        /* \"#utility.yul\":11663:11679   */\n      add\n        /* \"#utility.yul\":11656:11679   */\n      swap2\n      pop\n        /* \"#utility.yul\":11405:11685   */\n      pop\n        /* \"#utility.yul\":11295:11685   */\n      swap3\n      swap2\n      pop\n      pop\n      jump\t// out\n        /* \"#utility.yul\":11691:12122   */\n    tag_65:\n        /* \"#utility.yul\":11869:11872   */\n      0x00\n        /* \"#utility.yul\":11891:11984   */\n      tag_308\n        /* \"#utility.yul\":11980:11983   */\n      dup3\n        /* \"#utility.yul\":11971:11977   */\n      dup6\n        /* \"#utility.yul\":11891:11984   */\n      tag_177\n      jump\t// in\n    tag_308:\n        /* \"#utility.yul\":11884:11984   */\n      swap2\n      pop\n        /* \"#utility.yul\":12001:12096   */\n      tag_309\n        /* \"#utility.yul\":12092:12095   */\n      dup3\n        /* \"#utility.yul\":12083:12089   */\n      dup5\n        /* \"#utility.yul\":12001:12096   */\n      tag_179\n      jump\t// in\n    tag_309:\n        /* \"#utility.yul\":11994:12096   */\n      swap2\n      pop\n        /* \"#utility.yul\":12113:12116   */\n      dup2\n        /* \"#utility.yul\":12106:12116   */\n      swap1\n      pop\n        /* \"#utility.yul\":11691:12122   */\n      swap4\n      swap3\n      pop\n      pop\n      pop\n      jump\t// out\n        /* \"#utility.yul\":12128:12319   */\n    tag_75:\n        /* \"#utility.yul\":12168:12171   */\n      0x00\n        /* \"#utility.yul\":12187:12207   */\n      tag_311\n        /* \"#utility.yul\":12205:12206   */\n      dup3\n        /* \"#utility.yul\":12187:12207   */\n      tag_159\n      jump\t// in\n    tag_311:\n        /* \"#utility.yul\":12182:12207   */\n      swap2\n      pop\n        /* \"#utility.yul\":12221:12241   */\n      tag_312\n        /* \"#utility.yul\":12239:12240   */\n      dup4\n        /* \"#utility.yul\":12221:12241   */\n      tag_159\n      jump\t// in\n    tag_312:\n        /* \"#utility.yul\":12216:12241   */\n      swap3\n      pop\n        /* \"#utility.yul\":12264:12265   */\n      dup3\n        /* \"#utility.yul\":12261:12262   */\n      dup3\n        /* \"#utility.yul\":12257:12266   */\n      add\n        /* \"#utility.yul\":12250:12266   */\n      swap1\n      pop\n        /* \"#utility.yul\":12285:12288   */\n      dup1\n        /* \"#utility.yul\":12282:12283   */\n      dup3\n        /* \"#utility.yul\":12279:12289   */\n      gt\n        /* \"#utility.yul\":12276:12312   */\n      iszero\n      tag_313\n      jumpi\n        /* \"#utility.yul\":12292:12310   */\n      tag_314\n      tag_174\n      jump\t// in\n    tag_314:\n        /* \"#utility.yul\":12276:12312   */\n    tag_313:\n        /* \"#utility.yul\":12128:12319   */\n      swap3\n      swap2\n      pop\n      pop\n      jump\t// out\n        /* \"#utility.yul\":12325:12697   */\n    tag_80:\n        /* \"#utility.yul\":12364:12368   */\n      0x00\n        /* \"#utility.yul\":12384:12403   */\n      tag_316\n        /* \"#utility.yul\":12401:12402   */\n      dup3\n        /* \"#utility.yul\":12384:12403   */\n      tag_162\n      jump\t// in\n    tag_316:\n        /* \"#utility.yul\":12379:12403   */\n      swap2\n      pop\n        /* \"#utility.yul\":12417:12436   */\n      tag_317\n        /* \"#utility.yul\":12434:12435   */\n      dup4\n        /* \"#utility.yul\":12417:12436   */\n      tag_162\n      jump\t// in\n    tag_317:\n        /* \"#utility.yul\":12412:12436   */\n      swap3\n      pop\n        /* \"#utility.yul\":12460:12461   */\n      dup3\n        /* \"#utility.yul\":12457:12458   */\n      dup3\n        /* \"#utility.yul\":12453:12462   */\n      sub\n        /* \"#utility.yul\":12445:12462   */\n      swap1\n      pop\n        /* \"#utility.yul\":12654:12655   */\n      dup2\n        /* \"#utility.yul\":12648:12652   */\n      dup2\n        /* \"#utility.yul\":12644:12656   */\n      slt\n        /* \"#utility.yul\":12640:12641   */\n      0x00\n        /* \"#utility.yul\":12637:12638   */\n      dup5\n        /* \"#utility.yul\":12633:12642   */\n      slt\n        /* \"#utility.yul\":12629:12657   */\n      and\n        /* \"#utility.yul\":12612:12613   */\n      dup3\n        /* \"#utility.yul\":12606:12610   */\n      dup3\n        /* \"#utility.yul\":12602:12614   */\n      sgt\n        /* \"#utility.yul\":12597:12598   */\n      0x00\n        /* \"#utility.yul\":12594:12595   */\n      dup6\n        /* \"#utility.yul\":12590:12599   */\n      slt\n        /* \"#utility.yul\":12583:12600   */\n      iszero\n        /* \"#utility.yul\":12579:12615   */\n      and\n        /* \"#utility.yul\":12563:12667   */\n      or\n        /* \"#utility.yul\":12560:12690   */\n      iszero\n      tag_318\n      jumpi\n        /* \"#utility.yul\":12670:12688   */\n      tag_319\n      tag_174\n      jump\t// in\n    tag_319:\n        /* \"#utility.yul\":12560:12690   */\n    tag_318:\n        /* \"#utility.yul\":12325:12697   */\n      swap3\n      swap2\n      pop\n      pop\n      jump\t// out\n        /* \"#utility.yul\":12703:13078   */\n    tag_83:\n        /* \"#utility.yul\":12742:12745   */\n      0x00\n        /* \"#utility.yul\":12761:12780   */\n      tag_321\n        /* \"#utility.yul\":12778:12779   */\n      dup3\n        /* \"#utility.yul\":12761:12780   */\n      tag_162\n      jump\t// in\n    tag_321:\n        /* \"#utility.yul\":12756:12780   */\n      swap2\n      pop\n        /* \"#utility.yul\":12794:12813   */\n      tag_322\n        /* \"#utility.yul\":12811:12812   */\n      dup4\n        /* \"#utility.yul\":12794:12813   */\n      tag_162\n      jump\t// in\n    tag_322:\n        /* \"#utility.yul\":12789:12813   */\n      swap3\n      pop\n        /* \"#utility.yul\":12836:12837   */\n      dup3\n        /* \"#utility.yul\":12833:12834   */\n      dup3\n        /* \"#utility.yul\":12829:12838   */\n      add\n        /* \"#utility.yul\":12822:12838   */\n      swap1\n      pop\n        /* \"#utility.yul\":13034:13035   */\n      dup3\n        /* \"#utility.yul\":13029:13032   */\n      dup2\n        /* \"#utility.yul\":13025:13036   */\n      slt\n        /* \"#utility.yul\":13018:13037   */\n      iszero\n        /* \"#utility.yul\":13014:13015   */\n      0x00\n        /* \"#utility.yul\":13011:13012   */\n      dup4\n        /* \"#utility.yul\":13007:13016   */\n      slt\n        /* \"#utility.yul\":13003:13038   */\n      and\n        /* \"#utility.yul\":12986:12987   */\n      dup4\n        /* \"#utility.yul\":12981:12984   */\n      dup3\n        /* \"#utility.yul\":12977:12988   */\n      slt\n        /* \"#utility.yul\":12972:12973   */\n      0x00\n        /* \"#utility.yul\":12969:12970   */\n      dup5\n        /* \"#utility.yul\":12965:12974   */\n      slt\n        /* \"#utility.yul\":12958:12975   */\n      iszero\n        /* \"#utility.yul\":12954:12989   */\n      and\n        /* \"#utility.yul\":12938:13048   */\n      or\n        /* \"#utility.yul\":12935:13071   */\n      iszero\n      tag_323\n      jumpi\n        /* \"#utility.yul\":13051:13069   */\n      tag_324\n      tag_174\n      jump\t// in\n    tag_324:\n        /* \"#utility.yul\":12935:13071   */\n    tag_323:\n        /* \"#utility.yul\":12703:13078   */\n      swap3\n      swap2\n      pop\n      pop\n      jump\t// out\n        /* \"#utility.yul\":13084:13264   */\n    tag_180:\n        /* \"#utility.yul\":13132:13209   */\n      0x4e487b7100000000000000000000000000000000000000000000000000000000\n        /* \"#utility.yul\":13129:13130   */\n      0x00\n        /* \"#utility.yul\":13122:13210   */\n      mstore\n        /* \"#utility.yul\":13229:13233   */\n      0x12\n        /* \"#utility.yul\":13226:13227   */\n      0x04\n        /* \"#utility.yul\":13219:13234   */\n      mstore\n        /* \"#utility.yul\":13253:13257   */\n      0x24\n        /* \"#utility.yul\":13250:13251   */\n      0x00\n        /* \"#utility.yul\":13243:13258   */\n      revert\n        /* \"#utility.yul\":13270:13455   */\n    tag_90:\n        /* \"#utility.yul\":13310:13311   */\n      0x00\n        /* \"#utility.yul\":13327:13347   */\n      tag_327\n        /* \"#utility.yul\":13345:13346   */\n      dup3\n        /* \"#utility.yul\":13327:13347   */\n      tag_159\n      jump\t// in\n    tag_327:\n        /* \"#utility.yul\":13322:13347   */\n      swap2\n      pop\n        /* \"#utility.yul\":13361:13381   */\n      tag_328\n        /* \"#utility.yul\":13379:13380   */\n      dup4\n        /* \"#utility.yul\":13361:13381   */\n      tag_159\n      jump\t// in\n    tag_328:\n        /* \"#utility.yul\":13356:13381   */\n      swap3\n      pop\n        /* \"#utility.yul\":13400:13401   */\n      dup3\n        /* \"#utility.yul\":13390:13425   */\n      tag_329\n      jumpi\n        /* \"#utility.yul\":13405:13423   */\n      tag_330\n      tag_180\n      jump\t// in\n    tag_330:\n        /* \"#utility.yul\":13390:13425   */\n    tag_329:\n        /* \"#utility.yul\":13447:13448   */\n      dup3\n        /* \"#utility.yul\":13444:13445   */\n      dup3\n        /* \"#utility.yul\":13440:13449   */\n      div\n        /* \"#utility.yul\":13435:13449   */\n      swap1\n      pop\n        /* \"#utility.yul\":13270:13455   */\n      swap3\n      swap2\n      pop\n      pop\n      jump\t// out\n        /* \"#utility.yul\":13461:13694   */\n    tag_117:\n        /* \"#utility.yul\":13500:13503   */\n      0x00\n        /* \"#utility.yul\":13523:13547   */\n      tag_332\n        /* \"#utility.yul\":13541:13546   */\n      dup3\n        /* \"#utility.yul\":13523:13547   */\n      tag_159\n      jump\t// in\n    tag_332:\n        /* \"#utility.yul\":13514:13547   */\n      swap2\n      pop\n        /* \"#utility.yul\":13569:13635   */\n      0xffffffffffffffffffffffffffffffffffffffffffffffffffffffffffffffff\n        /* \"#utility.yul\":13562:13567   */\n      dup3\n        /* \"#utility.yul\":13559:13636   */\n      sub\n        /* \"#utility.yul\":13556:13659   */\n      tag_333\n      jumpi\n        /* \"#utility.yul\":13639:13657   */\n      tag_334\n      tag_174\n      jump\t// in\n    tag_334:\n        /* \"#utility.yul\":13556:13659   */\n    tag_333:\n        /* \"#utility.yul\":13686:13687   */\n      0x01\n        /* \"#utility.yul\":13679:13684   */\n      dup3\n        /* \"#utility.yul\":13675:13688   */\n      add\n        /* \"#utility.yul\":13668:13688   */\n      swap1\n      pop\n        /* \"#utility.yul\":13461:13694   */\n      swap2\n      swap1\n      pop\n      jump\t// out\n\n    auxdata: 0xa2646970667358221220d2f9f968c6ba4047865c530c5a4f65b2a55d6b0fb7d257dac2535a769a51456764736f6c63430008160033\n}\n",
				"bytecode": {
					"linkReferences": {},
					"object": "608060405234801561001057600080fd5b5060016000807f49000000000000000000000000000000000000000000000000000000000000007effffffffffffffffffffffffffffffffffffffffffffffffffffffffffffff191681526020019081526020016000208190555060056000807f56000000000000000000000000000000000000000000000000000000000000007effffffffffffffffffffffffffffffffffffffffffffffffffffffffffffff1916815260200190815260200160002081905550600a6000807f58000000000000000000000000000000000000000000000000000000000000007effffffffffffffffffffffffffffffffffffffffffffffffffffffffffffff191681526020019081526020016000208190555060326000807f4c000000000000000000000000000000000000000000000000000000000000007effffffffffffffffffffffffffffffffffffffffffffffffffffffffffffff191681526020019081526020016000208190555060646000807f43000000000000000000000000000000000000000000000000000000000000007effffffffffffffffffffffffffffffffffffffffffffffffffffffffffffff19168152602001908152602001600020819055506101f46000807f44000000000000000000000000000000000000000000000000000000000000007effffffffffffffffffffffffffffffffffffffffffffffffffffffffffffff19168152602001908152602001600020819055506103e86000807f4d000000000000000000000000000000000000000000000000000000000000007effffffffffffffffffffffffffffffffffffffffffffffffffffffffffffff19168152602001908152602001600020819055507f4900000000000000000000000000000000000000000000000000000000000000600160006001815260200190815260200160002060006101000a81548160ff021916908360f81c02179055507f5600000000000000000000000000000000000000000000000000000000000000600160006005815260200190815260200160002060006101000a81548160ff021916908360f81c02179055507f580000000000000000000000000000000000000000000000000000000000000060016000600a815260200190815260200160002060006101000a81548160ff021916908360f81c02179055507f4c00000000000000000000000000000000000000000000000000000000000000600160006032815260200190815260200160002060006101000a81548160ff021916908360f81c02179055507f4300000000000000000000000000000000000000000000000000000000000000600160006064815260200190815260200160002060006101000a81548160ff021916908360f81c02179055507f4400000000000000000000000000000000000000000000000000000000000000600160006101f4815260200190815260200160002060006101000a81548160ff021916908360f81c02179055507f4d00000000000000000000000000000000000000000000000000000000000000600160006103e8815260200190815260200160002060006101000a81548160ff021916908360f81c02179055506112d0806104b56000396000f3fe608060405234801561001057600080fd5b50600436106100575760003560e01c80635729c2111461005c578063bf5021e31461008c578063cb159dfe146100bc578063e35d0f99146100ec578063fa08d35f1461011c575b600080fd5b61007660048036038101906100719190610c5c565b61014c565b6040516100839190610d24565b60405180910390f35b6100a660048036038101906100a19190610d7c565b610245565b6040516100b39190610d24565b60405180910390f35b6100d660048036038101906100d19190610c5c565b61067e565b6040516100e39190610dc2565b60405180910390f35b61010660048036038101906101019190610e3d565b6107e8565b6040516101139190610dc2565b60405180910390f35b61013660048036038101906101319190610e9d565b6108f4565b6040516101439190610fdc565b60405180910390f35b6060600082905060008151905060008167ffffffffffffffff81111561017557610174610b31565b5b6040519080825280601f01601f1916602001820160405280156101a75781602001600182028036833780820191505090505b50905060005b828110156102395783600182856101c4919061102d565b6101ce919061102d565b815181106101df576101de611061565b5b602001015160f81c60f81b8282815181106101fd576101fc611061565b5b60200101907effffffffffffffffffffffffffffffffffffffffffffffffffffffffffffff1916908160001a90535080806001019150506101ad565b50809350505050919050565b60606000604051806101a001604052806103e8815260200161038481526020016101f48152602001610190815260200160648152602001605a81526020016032815260200160288152602001600a8152602001600981526020016005815260200160048152602001600181525090506000604051806101a001604052806040518060400160405280600181526020017f4d0000000000000000000000000000000000000000000000000000000000000081525081526020016040518060400160405280600281526020017f434d00000000000000000000000000000000000000000000000000000000000081525081526020016040518060400160405280600181526020017f440000000000000000000000000000000000000000000000000000000000000081525081526020016040518060400160405280600281526020017f434400000000000000000000000000000000000000000000000000000000000081525081526020016040518060400160405280600181526020017f430000000000000000000000000000000000000000000000000000000000000081525081526020016040518060400160405280600281526020017f584300000000000000000000000000000000000000000000000000000000000081525081526020016040518060400160405280600181526020017f4c0000000000000000000000000000000000000000000000000000000000000081525081526020016040518060400160405280600281526020017f584c00000000000000000000000000000000000000000000000000000000000081525081526020016040518060400160405280600181526020017f580000000000000000000000000000000000000000000000000000000000000081525081526020016040518060400160405280600281526020017f495800000000000000000000000000000000000000000000000000000000000081525081526020016040518060400160405280600181526020017f560000000000000000000000000000000000000000000000000000000000000081525081526020016040518060400160405280600281526020017f495600000000000000000000000000000000000000000000000000000000000081525081526020016040518060400160405280600181526020017f49000000000000000000000000000000000000000000000000000000000000008152508152509050600060405180602001604052806000815250905060005b600d811015610672575b8381600d81106105f5576105f4611061565b5b60200201518610610665578381600d811061061357610612611061565b5b602002015186610623919061102d565b9550818382600d811061063957610638611061565b5b602002015160405160200161064f929190611113565b60405160208183030381529060405291506105e2565b80806001019150506105d8565b50809350505050919050565b6000808290506000815190506000805b828110156107dc5760008060008684815181106106ae576106ad611061565b5b602001015160f81c60f81b7effffffffffffffffffffffffffffffffffffffffffffffffffffffffffffff19167effffffffffffffffffffffffffffffffffffffffffffffffffffffffffffff1916815260200190815260200160002054905060018461071b919061102d565b821080156107a75750600080866001856107359190611137565b8151811061074657610745611061565b5b602001015160f81c60f81b7effffffffffffffffffffffffffffffffffffffffffffffffffffffffffffff19167effffffffffffffffffffffffffffffffffffffffffffffffffffffffffffff191681526020019081526020016000205481105b156107bf5780836107b8919061116b565b92506107ce565b80836107cb91906111ae565b92505b50808060010191505061068e565b50809350505050919050565b600080848490509050600080600183610801919061102d565b90505b8082116108c65760006002838361081b919061102d565b6108259190611221565b836108309190611137565b90508588888381811061084657610845611061565b5b905060200201350361085e57809450505050506108ed565b8588888381811061087257610871611061565b5b90506020020135111561088f5760018161088c919061102d565b91505b858888838181106108a3576108a2611061565b5b9050602002013510156108c0576001816108bd9190611137565b92505b50610804565b7fffffffffffffffffffffffffffffffffffffffffffffffffffffffffffffffff93505050505b9392505050565b606060008585905090506000848490509050600081836109149190611137565b67ffffffffffffffff81111561092d5761092c610b31565b5b60405190808252806020026020018201604052801561095b5781602001602082028036833780820191505090505b50905060008060005b858310801561097257508482105b15610a335788888381811061098a57610989611061565b5b905060200201358b8b858181106109a4576109a3611061565b5b9050602002013511156109dc57888883806109be90611252565b94508181106109d0576109cf611061565b5b90506020020135610a03565b8a8a84806109e990611252565b95508181106109fb576109fa611061565b5b905060200201355b848280610a0f90611252565b935081518110610a2257610a21611061565b5b602002602001018181525050610964565b5b85831015610a92578a8a8480610a4990611252565b9550818110610a5b57610a5a611061565b5b90506020020135848280610a6e90611252565b935081518110610a8157610a80611061565b5b602002602001018181525050610a34565b5b84821015610af15788888380610aa890611252565b9450818110610aba57610ab9611061565b5b90506020020135848280610acd90611252565b935081518110610ae057610adf611061565b5b602002602001018181525050610a93565b839650505050505050949350505050565b6000604051905090565b600080fd5b600080fd5b600080fd5b600080fd5b6000601f19601f8301169050919050565b7f4e487b7100000000000000000000000000000000000000000000000000000000600052604160045260246000fd5b610b6982610b20565b810181811067ffffffffffffffff82111715610b8857610b87610b31565b5b80604052505050565b6000610b9b610b02565b9050610ba78282610b60565b919050565b600067ffffffffffffffff821115610bc757610bc6610b31565b5b610bd082610b20565b9050602081019050919050565b82818337600083830152505050565b6000610bff610bfa84610bac565b610b91565b905082815260208101848484011115610c1b57610c1a610b1b565b5b610c26848285610bdd565b509392505050565b600082601f830112610c4357610c42610b16565b5b8135610c53848260208601610bec565b91505092915050565b600060208284031215610c7257610c71610b0c565b5b600082013567ffffffffffffffff811115610c9057610c8f610b11565b5b610c9c84828501610c2e565b91505092915050565b600081519050919050565b600082825260208201905092915050565b60005b83811015610cdf578082015181840152602081019050610cc4565b60008484015250505050565b6000610cf682610ca5565b610d008185610cb0565b9350610d10818560208601610cc1565b610d1981610b20565b840191505092915050565b60006020820190508181036000830152610d3e8184610ceb565b905092915050565b6000819050919050565b610d5981610d46565b8114610d6457600080fd5b50565b600081359050610d7681610d50565b92915050565b600060208284031215610d9257610d91610b0c565b5b6000610da084828501610d67565b91505092915050565b6000819050919050565b610dbc81610da9565b82525050565b6000602082019050610dd76000830184610db3565b92915050565b600080fd5b600080fd5b60008083601f840112610dfd57610dfc610b16565b5b8235905067ffffffffffffffff811115610e1a57610e19610ddd565b5b602083019150836020820283011115610e3657610e35610de2565b5b9250929050565b600080600060408486031215610e5657610e55610b0c565b5b600084013567ffffffffffffffff811115610e7457610e73610b11565b5b610e8086828701610de7565b93509350506020610e9386828701610d67565b9150509250925092565b60008060008060408587031215610eb757610eb6610b0c565b5b600085013567ffffffffffffffff811115610ed557610ed4610b11565b5b610ee187828801610de7565b9450945050602085013567ffffffffffffffff811115610f0457610f03610b11565b5b610f1087828801610de7565b925092505092959194509250565b600081519050919050565b600082825260208201905092915050565b6000819050602082019050919050565b610f5381610d46565b82525050565b6000610f658383610f4a565b60208301905092915050565b6000602082019050919050565b6000610f8982610f1e565b610f938185610f29565b9350610f9e83610f3a565b8060005b83811015610fcf578151610fb68882610f59565b9750610fc183610f71565b925050600181019050610fa2565b5085935050505092915050565b60006020820190508181036000830152610ff68184610f7e565b905092915050565b7f4e487b7100000000000000000000000000000000000000000000000000000000600052601160045260246000fd5b600061103882610d46565b915061104383610d46565b925082820390508181111561105b5761105a610ffe565b5b92915050565b7f4e487b7100000000000000000000000000000000000000000000000000000000600052603260045260246000fd5b600081519050919050565b600081905092915050565b60006110b182611090565b6110bb818561109b565b93506110cb818560208601610cc1565b80840191505092915050565b600081905092915050565b60006110ed82610ca5565b6110f781856110d7565b9350611107818560208601610cc1565b80840191505092915050565b600061111f82856110a6565b915061112b82846110e2565b91508190509392505050565b600061114282610d46565b915061114d83610d46565b925082820190508082111561116557611164610ffe565b5b92915050565b600061117682610da9565b915061118183610da9565b92508282039050818112600084121682821360008512151617156111a8576111a7610ffe565b5b92915050565b60006111b982610da9565b91506111c483610da9565b9250828201905082811215600083121683821260008412151617156111ec576111eb610ffe565b5b92915050565b7f4e487b7100000000000000000000000000000000000000000000000000000000600052601260045260246000fd5b600061122c82610d46565b915061123783610d46565b925082611247576112466111f2565b5b828204905092915050565b600061125d82610d46565b91507fffffffffffffffffffffffffffffffffffffffffffffffffffffffffffffffff820361128f5761128e610ffe565b5b60018201905091905056fea2646970667358221220d2f9f968c6ba4047865c530c5a4f65b2a55d6b0fb7d257dac2535a769a51456764736f6c63430008160033",
					"opcodes": "PUSH1 0x80 PUSH1 0x40 MSTORE CALLVALUE DUP1 ISZERO PUSH2 0x10 JUMPI PUSH1 0x0 DUP1 REVERT JUMPDEST POP PUSH1 0x1 PUSH1 0x0 DUP1 PUSH32 0x4900000000000000000000000000000000000000000000000000000000000000 PUSH31 0xFFFFFFFFFFFFFFFFFFFFFFFFFFFFFFFFFFFFFFFFFFFFFFFFFFFFFFFFFFFFFF NOT AND DUP2 MSTORE PUSH1 0x20 ADD SWAP1 DUP2 MSTORE PUSH1 0x20 ADD PUSH1 0x0 KECCAK256 DUP2 SWAP1 SSTORE POP PUSH1 0x5 PUSH1 0x0 DUP1 PUSH32 0x5600000000000000000000000000000000000000000000000000000000000000 PUSH31 0xFFFFFFFFFFFFFFFFFFFFFFFFFFFFFFFFFFFFFFFFFFFFFFFFFFFFFFFFFFFFFF NOT AND DUP2 MSTORE PUSH1 0x20 ADD SWAP1 DUP2 MSTORE PUSH1 0x20 ADD PUSH1 0x0 KECCAK256 DUP2 SWAP1 SSTORE POP PUSH1 0xA PUSH1 0x0 DUP1 PUSH32 0x5800000000000000000000000000000000000000000000000000000000000000 PUSH31 0xFFFFFFFFFFFFFFFFFFFFFFFFFFFFFFFFFFFFFFFFFFFFFFFFFFFFFFFFFFFFFF NOT AND DUP2 MSTORE PUSH1 0x20 ADD SWAP1 DUP2 MSTORE PUSH1 0x20 ADD PUSH1 0x0 KECCAK256 DUP2 SWAP1 SSTORE POP PUSH1 0x32 PUSH1 0x0 DUP1 PUSH32 0x4C00000000000000000000000000000000000000000000000000000000000000 PUSH31 0xFFFFFFFFFFFFFFFFFFFFFFFFFFFFFFFFFFFFFFFFFFFFFFFFFFFFFFFFFFFFFF NOT AND DUP2 MSTORE PUSH1 0x20 ADD SWAP1 DUP2 MSTORE PUSH1 0x20 ADD PUSH1 0x0 KECCAK256 DUP2 SWAP1 SSTORE POP PUSH1 0x64 PUSH1 0x0 DUP1 PUSH32 0x4300000000000000000000000000000000000000000000000000000000000000 PUSH31 0xFFFFFFFFFFFFFFFFFFFFFFFFFFFFFFFFFFFFFFFFFFFFFFFFFFFFFFFFFFFFFF NOT AND DUP2 MSTORE PUSH1 0x20 ADD SWAP1 DUP2 MSTORE PUSH1 0x20 ADD PUSH1 0x0 KECCAK256 DUP2 SWAP1 SSTORE POP PUSH2 0x1F4 PUSH1 0x0 DUP1 PUSH32 0x4400000000000000000000000000000000000000000000000000000000000000 PUSH31 0xFFFFFFFFFFFFFFFFFFFFFFFFFFFFFFFFFFFFFFFFFFFFFFFFFFFFFFFFFFFFFF NOT AND DUP2 MSTORE PUSH1 0x20 ADD SWAP1 DUP2 MSTORE PUSH1 0x20 ADD PUSH1 0x0 KECCAK256 DUP2 SWAP1 SSTORE POP PUSH2 0x3E8 PUSH1 0x0 DUP1 PUSH32 0x4D00000000000000000000000000000000000000000000000000000000000000 PUSH31 0xFFFFFFFFFFFFFFFFFFFFFFFFFFFFFFFFFFFFFFFFFFFFFFFFFFFFFFFFFFFFFF NOT AND DUP2 MSTORE PUSH1 0x20 ADD SWAP1 DUP2 MSTORE PUSH1 0x20 ADD PUSH1 0x0 KECCAK256 DUP2 SWAP1 SSTORE POP PUSH32 0x4900000000000000000000000000000000000000000000000000000000000000 PUSH1 0x1 PUSH1 0x0 PUSH1 0x1 DUP2 MSTORE PUSH1 0x20 ADD SWAP1 DUP2 MSTORE PUSH1 0x20 ADD PUSH1 0x0 KECCAK256 PUSH1 0x0 PUSH2 0x100 EXP DUP2 SLOAD DUP2 PUSH1 0xFF MUL NOT AND SWAP1 DUP4 PUSH1 0xF8 SHR MUL OR SWAP1 SSTORE POP PUSH32 0x5600000000000000000000000000000000000000000000000000000000000000 PUSH1 0x1 PUSH1 0x0 PUSH1 0x5 DUP2 MSTORE PUSH1 0x20 ADD SWAP1 DUP2 MSTORE PUSH1 0x20 ADD PUSH1 0x0 KECCAK256 PUSH1 0x0 PUSH2 0x100 EXP DUP2 SLOAD DUP2 PUSH1 0xFF MUL NOT AND SWAP1 DUP4 PUSH1 0xF8 SHR MUL OR SWAP1 SSTORE POP PUSH32 0x5800000000000000000000000000000000000000000000000000000000000000 PUSH1 0x1 PUSH1 0x0 PUSH1 0xA DUP2 MSTORE PUSH1 0x20 ADD SWAP1 DUP2 MSTORE PUSH1 0x20 ADD PUSH1 0x0 KECCAK256 PUSH1 0x0 PUSH2 0x100 EXP DUP2 SLOAD DUP2 PUSH1 0xFF MUL NOT AND SWAP1 DUP4 PUSH1 0xF8 SHR MUL OR SWAP1 SSTORE POP PUSH32 0x4C00000000000000000000000000000000000000000000000000000000000000 PUSH1 0x1 PUSH1 0x0 PUSH1 0x32 DUP2 MSTORE PUSH1 0x20 ADD SWAP1 DUP2 MSTORE PUSH1 0x20 ADD PUSH1 0x0 KECCAK256 PUSH1 0x0 PUSH2 0x100 EXP DUP2 SLOAD DUP2 PUSH1 0xFF MUL NOT AND SWAP1 DUP4 PUSH1 0xF8 SHR MUL OR SWAP1 SSTORE POP PUSH32 0x4300000000000000000000000000000000000000000000000000000000000000 PUSH1 0x1 PUSH1 0x0 PUSH1 0x64 DUP2 MSTORE PUSH1 0x20 ADD SWAP1 DUP2 MSTORE PUSH1 0x20 ADD PUSH1 0x0 KECCAK256 PUSH1 0x0 PUSH2 0x100 EXP DUP2 SLOAD DUP2 PUSH1 0xFF MUL NOT AND SWAP1 DUP4 PUSH1 0xF8 SHR MUL OR SWAP1 SSTORE POP PUSH32 0x4400000000000000000000000000000000000000000000000000000000000000 PUSH1 0x1 PUSH1 0x0 PUSH2 0x1F4 DUP2 MSTORE PUSH1 0x20 ADD SWAP1 DUP2 MSTORE PUSH1 0x20 ADD PUSH1 0x0 KECCAK256 PUSH1 0x0 PUSH2 0x100 EXP DUP2 SLOAD DUP2 PUSH1 0xFF MUL NOT AND SWAP1 DUP4 PUSH1 0xF8 SHR MUL OR SWAP1 SSTORE POP PUSH32 0x4D00000000000000000000000000000000000000000000000000000000000000 PUSH1 0x1 PUSH1 0x0 PUSH2 0x3E8 DUP2 MSTORE PUSH1 0x20 ADD SWAP1 DUP2 MSTORE PUSH1 0x20 ADD PUSH1 0x0 KECCAK256 PUSH1 0x0 PUSH2 0x100 EXP DUP2 SLOAD DUP2 PUSH1 0xFF MUL NOT AND SWAP1 DUP4 PUSH1 0xF8 SHR MUL OR SWAP1 SSTORE POP PUSH2 0x12D0 DUP1 PUSH2 0x4B5 PUSH1 0x0 CODECOPY PUSH1 0x0 RETURN INVALID PUSH1 0x80 PUSH1 0x40 MSTORE CALLVALUE DUP1 ISZERO PUSH2 0x10 JUMPI PUSH1 0x0 DUP1 REVERT JUMPDEST POP PUSH1 0x4 CALLDATASIZE LT PUSH2 0x57 JUMPI PUSH1 0x0 CALLDATALOAD PUSH1 0xE0 SHR DUP1 PUSH4 0x5729C211 EQ PUSH2 0x5C JUMPI DUP1 PUSH4 0xBF5021E3 EQ PUSH2 0x8C JUMPI DUP1 PUSH4 0xCB159DFE EQ PUSH2 0xBC JUMPI DUP1 PUSH4 0xE35D0F99 EQ PUSH2 0xEC JUMPI DUP1 PUSH4 0xFA08D35F EQ PUSH2 0x11C JUMPI JUMPDEST PUSH1 0x0 DUP1 REVERT JUMPDEST PUSH2 0x76 PUSH1 0x4 DUP1 CALLDATASIZE SUB DUP2 ADD SWAP1 PUSH2 0x71 SWAP2 SWAP1 PUSH2 0xC5C JUMP JUMPDEST PUSH2 0x14C JUMP JUMPDEST PUSH1 0x40 MLOAD PUSH2 0x83 SWAP2 SWAP1 PUSH2 0xD24 JUMP JUMPDEST PUSH1 0x40 MLOAD DUP1 SWAP2 SUB SWAP1 RETURN JUMPDEST PUSH2 0xA6 PUSH1 0x4 DUP1 CALLDATASIZE SUB DUP2 ADD SWAP1 PUSH2 0xA1 SWAP2 SWAP1 PUSH2 0xD7C JUMP JUMPDEST PUSH2 0x245 JUMP JUMPDEST PUSH1 0x40 MLOAD PUSH2 0xB3 SWAP2 SWAP1 PUSH2 0xD24 JUMP JUMPDEST PUSH1 0x40 MLOAD DUP1 SWAP2 SUB SWAP1 RETURN JUMPDEST PUSH2 0xD6 PUSH1 0x4 DUP1 CALLDATASIZE SUB DUP2 ADD SWAP1 PUSH2 0xD1 SWAP2 SWAP1 PUSH2 0xC5C JUMP JUMPDEST PUSH2 0x67E JUMP JUMPDEST PUSH1 0x40 MLOAD PUSH2 0xE3 SWAP2 SWAP1 PUSH2 0xDC2 JUMP JUMPDEST PUSH1 0x40 MLOAD DUP1 SWAP2 SUB SWAP1 RETURN JUMPDEST PUSH2 0x106 PUSH1 0x4 DUP1 CALLDATASIZE SUB DUP2 ADD SWAP1 PUSH2 0x101 SWAP2 SWAP1 PUSH2 0xE3D JUMP JUMPDEST PUSH2 0x7E8 JUMP JUMPDEST PUSH1 0x40 MLOAD PUSH2 0x113 SWAP2 SWAP1 PUSH2 0xDC2 JUMP JUMPDEST PUSH1 0x40 MLOAD DUP1 SWAP2 SUB SWAP1 RETURN JUMPDEST PUSH2 0x136 PUSH1 0x4 DUP1 CALLDATASIZE SUB DUP2 ADD SWAP1 PUSH2 0x131 SWAP2 SWAP1 PUSH2 0xE9D JUMP JUMPDEST PUSH2 0x8F4 JUMP JUMPDEST PUSH1 0x40 MLOAD PUSH2 0x143 SWAP2 SWAP1 PUSH2 0xFDC JUMP JUMPDEST PUSH1 0x40 MLOAD DUP1 SWAP2 SUB SWAP1 RETURN JUMPDEST PUSH1 0x60 PUSH1 0x0 DUP3 SWAP1 POP PUSH1 0x0 DUP2 MLOAD SWAP1 POP PUSH1 0x0 DUP2 PUSH8 0xFFFFFFFFFFFFFFFF DUP2 GT ISZERO PUSH2 0x175 JUMPI PUSH2 0x174 PUSH2 0xB31 JUMP JUMPDEST JUMPDEST PUSH1 0x40 MLOAD SWAP1 DUP1 DUP3 MSTORE DUP1 PUSH1 0x1F ADD PUSH1 0x1F NOT AND PUSH1 0x20 ADD DUP3 ADD PUSH1 0x40 MSTORE DUP1 ISZERO PUSH2 0x1A7 JUMPI DUP2 PUSH1 0x20 ADD PUSH1 0x1 DUP3 MUL DUP1 CALLDATASIZE DUP4 CALLDATACOPY DUP1 DUP3 ADD SWAP2 POP POP SWAP1 POP JUMPDEST POP SWAP1 POP PUSH1 0x0 JUMPDEST DUP3 DUP2 LT ISZERO PUSH2 0x239 JUMPI DUP4 PUSH1 0x1 DUP3 DUP6 PUSH2 0x1C4 SWAP2 SWAP1 PUSH2 0x102D JUMP JUMPDEST PUSH2 0x1CE SWAP2 SWAP1 PUSH2 0x102D JUMP JUMPDEST DUP2 MLOAD DUP2 LT PUSH2 0x1DF JUMPI PUSH2 0x1DE PUSH2 0x1061 JUMP JUMPDEST JUMPDEST PUSH1 0x20 ADD ADD MLOAD PUSH1 0xF8 SHR PUSH1 0xF8 SHL DUP3 DUP3 DUP2 MLOAD DUP2 LT PUSH2 0x1FD JUMPI PUSH2 0x1FC PUSH2 0x1061 JUMP JUMPDEST JUMPDEST PUSH1 0x20 ADD ADD SWAP1 PUSH31 0xFFFFFFFFFFFFFFFFFFFFFFFFFFFFFFFFFFFFFFFFFFFFFFFFFFFFFFFFFFFFFF NOT AND SWAP1 DUP2 PUSH1 0x0 BYTE SWAP1 MSTORE8 POP DUP1 DUP1 PUSH1 0x1 ADD SWAP2 POP POP PUSH2 0x1AD JUMP JUMPDEST POP DUP1 SWAP4 POP POP POP POP SWAP2 SWAP1 POP JUMP JUMPDEST PUSH1 0x60 PUSH1 0x0 PUSH1 0x40 MLOAD DUP1 PUSH2 0x1A0 ADD PUSH1 0x40 MSTORE DUP1 PUSH2 0x3E8 DUP2 MSTORE PUSH1 0x20 ADD PUSH2 0x384 DUP2 MSTORE PUSH1 0x20 ADD PUSH2 0x1F4 DUP2 MSTORE PUSH1 0x20 ADD PUSH2 0x190 DUP2 MSTORE PUSH1 0x20 ADD PUSH1 0x64 DUP2 MSTORE PUSH1 0x20 ADD PUSH1 0x5A DUP2 MSTORE PUSH1 0x20 ADD PUSH1 0x32 DUP2 MSTORE PUSH1 0x20 ADD PUSH1 0x28 DUP2 MSTORE PUSH1 0x20 ADD PUSH1 0xA DUP2 MSTORE PUSH1 0x20 ADD PUSH1 0x9 DUP2 MSTORE PUSH1 0x20 ADD PUSH1 0x5 DUP2 MSTORE PUSH1 0x20 ADD PUSH1 0x4 DUP2 MSTORE PUSH1 0x20 ADD PUSH1 0x1 DUP2 MSTORE POP SWAP1 POP PUSH1 0x0 PUSH1 0x40 MLOAD DUP1 PUSH2 0x1A0 ADD PUSH1 0x40 MSTORE DUP1 PUSH1 0x40 MLOAD DUP1 PUSH1 0x40 ADD PUSH1 0x40 MSTORE DUP1 PUSH1 0x1 DUP2 MSTORE PUSH1 0x20 ADD PUSH32 0x4D00000000000000000000000000000000000000000000000000000000000000 DUP2 MSTORE POP DUP2 MSTORE PUSH1 0x20 ADD PUSH1 0x40 MLOAD DUP1 PUSH1 0x40 ADD PUSH1 0x40 MSTORE DUP1 PUSH1 0x2 DUP2 MSTORE PUSH1 0x20 ADD PUSH32 0x434D000000000000000000000000000000000000000000000000000000000000 DUP2 MSTORE POP DUP2 MSTORE PUSH1 0x20 ADD PUSH1 0x40 MLOAD DUP1 PUSH1 0x40 ADD PUSH1 0x40 MSTORE DUP1 PUSH1 0x1 DUP2 MSTORE PUSH1 0x20 ADD PUSH32 0x4400000000000000000000000000000000000000000000000000000000000000 DUP2 MSTORE POP DUP2 MSTORE PUSH1 0x20 ADD PUSH1 0x40 MLOAD DUP1 PUSH1 0x40 ADD PUSH1 0x40 MSTORE DUP1 PUSH1 0x2 DUP2 MSTORE PUSH1 0x20 ADD PUSH32 0x4344000000000000000000000000000000000000000000000000000000000000 DUP2 MSTORE POP DUP2 MSTORE PUSH1 0x20 ADD PUSH1 0x40 MLOAD DUP1 PUSH1 0x40 ADD PUSH1 0x40 MSTORE DUP1 PUSH1 0x1 DUP2 MSTORE PUSH1 0x20 ADD PUSH32 0x4300000000000000000000000000000000000000000000000000000000000000 DUP2 MSTORE POP DUP2 MSTORE PUSH1 0x20 ADD PUSH1 0x40 MLOAD DUP1 PUSH1 0x40 ADD PUSH1 0x40 MSTORE DUP1 PUSH1 0x2 DUP2 MSTORE PUSH1 0x20 ADD PUSH32 0x5843000000000000000000000000000000000000000000000000000000000000 DUP2 MSTORE POP DUP2 MSTORE PUSH1 0x20 ADD PUSH1 0x40 MLOAD DUP1 PUSH1 0x40 ADD PUSH1 0x40 MSTORE DUP1 PUSH1 0x1 DUP2 MSTORE PUSH1 0x20 ADD PUSH32 0x4C00000000000000000000000000000000000000000000000000000000000000 DUP2 MSTORE POP DUP2 MSTORE PUSH1 0x20 ADD PUSH1 0x40 MLOAD DUP1 PUSH1 0x40 ADD PUSH1 0x40 MSTORE DUP1 PUSH1 0x2 DUP2 MSTORE PUSH1 0x20 ADD PUSH32 0x584C000000000000000000000000000000000000000000000000000000000000 DUP2 MSTORE POP DUP2 MSTORE PUSH1 0x20 ADD PUSH1 0x40 MLOAD DUP1 PUSH1 0x40 ADD PUSH1 0x40 MSTORE DUP1 PUSH1 0x1 DUP2 MSTORE PUSH1 0x20 ADD PUSH32 0x5800000000000000000000000000000000000000000000000000000000000000 DUP2 MSTORE POP DUP2 MSTORE PUSH1 0x20 ADD PUSH1 0x40 MLOAD DUP1 PUSH1 0x40 ADD PUSH1 0x40 MSTORE DUP1 PUSH1 0x2 DUP2 MSTORE PUSH1 0x20 ADD PUSH32 0x4958000000000000000000000000000000000000000000000000000000000000 DUP2 MSTORE POP DUP2 MSTORE PUSH1 0x20 ADD PUSH1 0x40 MLOAD DUP1 PUSH1 0x40 ADD PUSH1 0x40 MSTORE DUP1 PUSH1 0x1 DUP2 MSTORE PUSH1 0x20 ADD PUSH32 0x5600000000000000000000000000000000000000000000000000000000000000 DUP2 MSTORE POP DUP2 MSTORE PUSH1 0x20 ADD PUSH1 0x40 MLOAD DUP1 PUSH1 0x40 ADD PUSH1 0x40 MSTORE DUP1 PUSH1 0x2 DUP2 MSTORE PUSH1 0x20 ADD PUSH32 0x4956000000000000000000000000000000000000000000000000000000000000 DUP2 MSTORE POP DUP2 MSTORE PUSH1 0x20 ADD PUSH1 0x40 MLOAD DUP1 PUSH1 0x40 ADD PUSH1 0x40 MSTORE DUP1 PUSH1 0x1 DUP2 MSTORE PUSH1 0x20 ADD PUSH32 0x4900000000000000000000000000000000000000000000000000000000000000 DUP2 MSTORE POP DUP2 MSTORE POP SWAP1 POP PUSH1 0x0 PUSH1 0x40 MLOAD DUP1 PUSH1 0x20 ADD PUSH1 0x40 MSTORE DUP1 PUSH1 0x0 DUP2 MSTORE POP SWAP1 POP PUSH1 0x0 JUMPDEST PUSH1 0xD DUP2 LT ISZERO PUSH2 0x672 JUMPI JUMPDEST DUP4 DUP2 PUSH1 0xD DUP2 LT PUSH2 0x5F5 JUMPI PUSH2 0x5F4 PUSH2 0x1061 JUMP JUMPDEST JUMPDEST PUSH1 0x20 MUL ADD MLOAD DUP7 LT PUSH2 0x665 JUMPI DUP4 DUP2 PUSH1 0xD DUP2 LT PUSH2 0x613 JUMPI PUSH2 0x612 PUSH2 0x1061 JUMP JUMPDEST JUMPDEST PUSH1 0x20 MUL ADD MLOAD DUP7 PUSH2 0x623 SWAP2 SWAP1 PUSH2 0x102D JUMP JUMPDEST SWAP6 POP DUP2 DUP4 DUP3 PUSH1 0xD DUP2 LT PUSH2 0x639 JUMPI PUSH2 0x638 PUSH2 0x1061 JUMP JUMPDEST JUMPDEST PUSH1 0x20 MUL ADD MLOAD PUSH1 0x40 MLOAD PUSH1 0x20 ADD PUSH2 0x64F SWAP3 SWAP2 SWAP1 PUSH2 0x1113 JUMP JUMPDEST PUSH1 0x40 MLOAD PUSH1 0x20 DUP2 DUP4 SUB SUB DUP2 MSTORE SWAP1 PUSH1 0x40 MSTORE SWAP2 POP PUSH2 0x5E2 JUMP JUMPDEST DUP1 DUP1 PUSH1 0x1 ADD SWAP2 POP POP PUSH2 0x5D8 JUMP JUMPDEST POP DUP1 SWAP4 POP POP POP POP SWAP2 SWAP1 POP JUMP JUMPDEST PUSH1 0x0 DUP1 DUP3 SWAP1 POP PUSH1 0x0 DUP2 MLOAD SWAP1 POP PUSH1 0x0 DUP1 JUMPDEST DUP3 DUP2 LT ISZERO PUSH2 0x7DC JUMPI PUSH1 0x0 DUP1 PUSH1 0x0 DUP7 DUP5 DUP2 MLOAD DUP2 LT PUSH2 0x6AE JUMPI PUSH2 0x6AD PUSH2 0x1061 JUMP JUMPDEST JUMPDEST PUSH1 0x20 ADD ADD MLOAD PUSH1 0xF8 SHR PUSH1 0xF8 SHL PUSH31 0xFFFFFFFFFFFFFFFFFFFFFFFFFFFFFFFFFFFFFFFFFFFFFFFFFFFFFFFFFFFFFF NOT AND PUSH31 0xFFFFFFFFFFFFFFFFFFFFFFFFFFFFFFFFFFFFFFFFFFFFFFFFFFFFFFFFFFFFFF NOT AND DUP2 MSTORE PUSH1 0x20 ADD SWAP1 DUP2 MSTORE PUSH1 0x20 ADD PUSH1 0x0 KECCAK256 SLOAD SWAP1 POP PUSH1 0x1 DUP5 PUSH2 0x71B SWAP2 SWAP1 PUSH2 0x102D JUMP JUMPDEST DUP3 LT DUP1 ISZERO PUSH2 0x7A7 JUMPI POP PUSH1 0x0 DUP1 DUP7 PUSH1 0x1 DUP6 PUSH2 0x735 SWAP2 SWAP1 PUSH2 0x1137 JUMP JUMPDEST DUP2 MLOAD DUP2 LT PUSH2 0x746 JUMPI PUSH2 0x745 PUSH2 0x1061 JUMP JUMPDEST JUMPDEST PUSH1 0x20 ADD ADD MLOAD PUSH1 0xF8 SHR PUSH1 0xF8 SHL PUSH31 0xFFFFFFFFFFFFFFFFFFFFFFFFFFFFFFFFFFFFFFFFFFFFFFFFFFFFFFFFFFFFFF NOT AND PUSH31 0xFFFFFFFFFFFFFFFFFFFFFFFFFFFFFFFFFFFFFFFFFFFFFFFFFFFFFFFFFFFFFF NOT AND DUP2 MSTORE PUSH1 0x20 ADD SWAP1 DUP2 MSTORE PUSH1 0x20 ADD PUSH1 0x0 KECCAK256 SLOAD DUP2 LT JUMPDEST ISZERO PUSH2 0x7BF JUMPI DUP1 DUP4 PUSH2 0x7B8 SWAP2 SWAP1 PUSH2 0x116B JUMP JUMPDEST SWAP3 POP PUSH2 0x7CE JUMP JUMPDEST DUP1 DUP4 PUSH2 0x7CB SWAP2 SWAP1 PUSH2 0x11AE JUMP JUMPDEST SWAP3 POP JUMPDEST POP DUP1 DUP1 PUSH1 0x1 ADD SWAP2 POP POP PUSH2 0x68E JUMP JUMPDEST POP DUP1 SWAP4 POP POP POP POP SWAP2 SWAP1 POP JUMP JUMPDEST PUSH1 0x0 DUP1 DUP5 DUP5 SWAP1 POP SWAP1 POP PUSH1 0x0 DUP1 PUSH1 0x1 DUP4 PUSH2 0x801 SWAP2 SWAP1 PUSH2 0x102D JUMP JUMPDEST SWAP1 POP JUMPDEST DUP1 DUP3 GT PUSH2 0x8C6 JUMPI PUSH1 0x0 PUSH1 0x2 DUP4 DUP4 PUSH2 0x81B SWAP2 SWAP1 PUSH2 0x102D JUMP JUMPDEST PUSH2 0x825 SWAP2 SWAP1 PUSH2 0x1221 JUMP JUMPDEST DUP4 PUSH2 0x830 SWAP2 SWAP1 PUSH2 0x1137 JUMP JUMPDEST SWAP1 POP DUP6 DUP9 DUP9 DUP4 DUP2 DUP2 LT PUSH2 0x846 JUMPI PUSH2 0x845 PUSH2 0x1061 JUMP JUMPDEST JUMPDEST SWAP1 POP PUSH1 0x20 MUL ADD CALLDATALOAD SUB PUSH2 0x85E JUMPI DUP1 SWAP5 POP POP POP POP POP PUSH2 0x8ED JUMP JUMPDEST DUP6 DUP9 DUP9 DUP4 DUP2 DUP2 LT PUSH2 0x872 JUMPI PUSH2 0x871 PUSH2 0x1061 JUMP JUMPDEST JUMPDEST SWAP1 POP PUSH1 0x20 MUL ADD CALLDATALOAD GT ISZERO PUSH2 0x88F JUMPI PUSH1 0x1 DUP2 PUSH2 0x88C SWAP2 SWAP1 PUSH2 0x102D JUMP JUMPDEST SWAP2 POP JUMPDEST DUP6 DUP9 DUP9 DUP4 DUP2 DUP2 LT PUSH2 0x8A3 JUMPI PUSH2 0x8A2 PUSH2 0x1061 JUMP JUMPDEST JUMPDEST SWAP1 POP PUSH1 0x20 MUL ADD CALLDATALOAD LT ISZERO PUSH2 0x8C0 JUMPI PUSH1 0x1 DUP2 PUSH2 0x8BD SWAP2 SWAP1 PUSH2 0x1137 JUMP JUMPDEST SWAP3 POP JUMPDEST POP PUSH2 0x804 JUMP JUMPDEST PUSH32 0xFFFFFFFFFFFFFFFFFFFFFFFFFFFFFFFFFFFFFFFFFFFFFFFFFFFFFFFFFFFFFFFF SWAP4 POP POP POP POP JUMPDEST SWAP4 SWAP3 POP POP POP JUMP JUMPDEST PUSH1 0x60 PUSH1 0x0 DUP6 DUP6 SWAP1 POP SWAP1 POP PUSH1 0x0 DUP5 DUP5 SWAP1 POP SWAP1 POP PUSH1 0x0 DUP2 DUP4 PUSH2 0x914 SWAP2 SWAP1 PUSH2 0x1137 JUMP JUMPDEST PUSH8 0xFFFFFFFFFFFFFFFF DUP2 GT ISZERO PUSH2 0x92D JUMPI PUSH2 0x92C PUSH2 0xB31 JUMP JUMPDEST JUMPDEST PUSH1 0x40 MLOAD SWAP1 DUP1 DUP3 MSTORE DUP1 PUSH1 0x20 MUL PUSH1 0x20 ADD DUP3 ADD PUSH1 0x40 MSTORE DUP1 ISZERO PUSH2 0x95B JUMPI DUP2 PUSH1 0x20 ADD PUSH1 0x20 DUP3 MUL DUP1 CALLDATASIZE DUP4 CALLDATACOPY DUP1 DUP3 ADD SWAP2 POP POP SWAP1 POP JUMPDEST POP SWAP1 POP PUSH1 0x0 DUP1 PUSH1 0x0 JUMPDEST DUP6 DUP4 LT DUP1 ISZERO PUSH2 0x972 JUMPI POP DUP5 DUP3 LT JUMPDEST ISZERO PUSH2 0xA33 JUMPI DUP9 DUP9 DUP4 DUP2 DUP2 LT PUSH2 0x98A JUMPI PUSH2 0x989 PUSH2 0x1061 JUMP JUMPDEST JUMPDEST SWAP1 POP PUSH1 0x20 MUL ADD CALLDATALOAD DUP12 DUP12 DUP6 DUP2 DUP2 LT PUSH2 0x9A4 JUMPI PUSH2 0x9A3 PUSH2 0x1061 JUMP JUMPDEST JUMPDEST SWAP1 POP PUSH1 0x20 MUL ADD CALLDATALOAD GT ISZERO PUSH2 0x9DC JUMPI DUP9 DUP9 DUP4 DUP1 PUSH2 0x9BE SWAP1 PUSH2 0x1252 JUMP JUMPDEST SWAP5 POP DUP2 DUP2 LT PUSH2 0x9D0 JUMPI PUSH2 0x9CF PUSH2 0x1061 JUMP JUMPDEST JUMPDEST SWAP1 POP PUSH1 0x20 MUL ADD CALLDATALOAD PUSH2 0xA03 JUMP JUMPDEST DUP11 DUP11 DUP5 DUP1 PUSH2 0x9E9 SWAP1 PUSH2 0x1252 JUMP JUMPDEST SWAP6 POP DUP2 DUP2 LT PUSH2 0x9FB JUMPI PUSH2 0x9FA PUSH2 0x1061 JUMP JUMPDEST JUMPDEST SWAP1 POP PUSH1 0x20 MUL ADD CALLDATALOAD JUMPDEST DUP5 DUP3 DUP1 PUSH2 0xA0F SWAP1 PUSH2 0x1252 JUMP JUMPDEST SWAP4 POP DUP2 MLOAD DUP2 LT PUSH2 0xA22 JUMPI PUSH2 0xA21 PUSH2 0x1061 JUMP JUMPDEST JUMPDEST PUSH1 0x20 MUL PUSH1 0x20 ADD ADD DUP2 DUP2 MSTORE POP POP PUSH2 0x964 JUMP JUMPDEST JUMPDEST DUP6 DUP4 LT ISZERO PUSH2 0xA92 JUMPI DUP11 DUP11 DUP5 DUP1 PUSH2 0xA49 SWAP1 PUSH2 0x1252 JUMP JUMPDEST SWAP6 POP DUP2 DUP2 LT PUSH2 0xA5B JUMPI PUSH2 0xA5A PUSH2 0x1061 JUMP JUMPDEST JUMPDEST SWAP1 POP PUSH1 0x20 MUL ADD CALLDATALOAD DUP5 DUP3 DUP1 PUSH2 0xA6E SWAP1 PUSH2 0x1252 JUMP JUMPDEST SWAP4 POP DUP2 MLOAD DUP2 LT PUSH2 0xA81 JUMPI PUSH2 0xA80 PUSH2 0x1061 JUMP JUMPDEST JUMPDEST PUSH1 0x20 MUL PUSH1 0x20 ADD ADD DUP2 DUP2 MSTORE POP POP PUSH2 0xA34 JUMP JUMPDEST JUMPDEST DUP5 DUP3 LT ISZERO PUSH2 0xAF1 JUMPI DUP9 DUP9 DUP4 DUP1 PUSH2 0xAA8 SWAP1 PUSH2 0x1252 JUMP JUMPDEST SWAP5 POP DUP2 DUP2 LT PUSH2 0xABA JUMPI PUSH2 0xAB9 PUSH2 0x1061 JUMP JUMPDEST JUMPDEST SWAP1 POP PUSH1 0x20 MUL ADD CALLDATALOAD DUP5 DUP3 DUP1 PUSH2 0xACD SWAP1 PUSH2 0x1252 JUMP JUMPDEST SWAP4 POP DUP2 MLOAD DUP2 LT PUSH2 0xAE0 JUMPI PUSH2 0xADF PUSH2 0x1061 JUMP JUMPDEST JUMPDEST PUSH1 0x20 MUL PUSH1 0x20 ADD ADD DUP2 DUP2 MSTORE POP POP PUSH2 0xA93 JUMP JUMPDEST DUP4 SWAP7 POP POP POP POP POP POP POP SWAP5 SWAP4 POP POP POP POP JUMP JUMPDEST PUSH1 0x0 PUSH1 0x40 MLOAD SWAP1 POP SWAP1 JUMP JUMPDEST PUSH1 0x0 DUP1 REVERT JUMPDEST PUSH1 0x0 DUP1 REVERT JUMPDEST PUSH1 0x0 DUP1 REVERT JUMPDEST PUSH1 0x0 DUP1 REVERT JUMPDEST PUSH1 0x0 PUSH1 0x1F NOT PUSH1 0x1F DUP4 ADD AND SWAP1 POP SWAP2 SWAP1 POP JUMP JUMPDEST PUSH32 0x4E487B7100000000000000000000000000000000000000000000000000000000 PUSH1 0x0 MSTORE PUSH1 0x41 PUSH1 0x4 MSTORE PUSH1 0x24 PUSH1 0x0 REVERT JUMPDEST PUSH2 0xB69 DUP3 PUSH2 0xB20 JUMP JUMPDEST DUP2 ADD DUP2 DUP2 LT PUSH8 0xFFFFFFFFFFFFFFFF DUP3 GT OR ISZERO PUSH2 0xB88 JUMPI PUSH2 0xB87 PUSH2 0xB31 JUMP JUMPDEST JUMPDEST DUP1 PUSH1 0x40 MSTORE POP POP POP JUMP JUMPDEST PUSH1 0x0 PUSH2 0xB9B PUSH2 0xB02 JUMP JUMPDEST SWAP1 POP PUSH2 0xBA7 DUP3 DUP3 PUSH2 0xB60 JUMP JUMPDEST SWAP2 SWAP1 POP JUMP JUMPDEST PUSH1 0x0 PUSH8 0xFFFFFFFFFFFFFFFF DUP3 GT ISZERO PUSH2 0xBC7 JUMPI PUSH2 0xBC6 PUSH2 0xB31 JUMP JUMPDEST JUMPDEST PUSH2 0xBD0 DUP3 PUSH2 0xB20 JUMP JUMPDEST SWAP1 POP PUSH1 0x20 DUP2 ADD SWAP1 POP SWAP2 SWAP1 POP JUMP JUMPDEST DUP3 DUP2 DUP4 CALLDATACOPY PUSH1 0x0 DUP4 DUP4 ADD MSTORE POP POP POP JUMP JUMPDEST PUSH1 0x0 PUSH2 0xBFF PUSH2 0xBFA DUP5 PUSH2 0xBAC JUMP JUMPDEST PUSH2 0xB91 JUMP JUMPDEST SWAP1 POP DUP3 DUP2 MSTORE PUSH1 0x20 DUP2 ADD DUP5 DUP5 DUP5 ADD GT ISZERO PUSH2 0xC1B JUMPI PUSH2 0xC1A PUSH2 0xB1B JUMP JUMPDEST JUMPDEST PUSH2 0xC26 DUP5 DUP3 DUP6 PUSH2 0xBDD JUMP JUMPDEST POP SWAP4 SWAP3 POP POP POP JUMP JUMPDEST PUSH1 0x0 DUP3 PUSH1 0x1F DUP4 ADD SLT PUSH2 0xC43 JUMPI PUSH2 0xC42 PUSH2 0xB16 JUMP JUMPDEST JUMPDEST DUP2 CALLDATALOAD PUSH2 0xC53 DUP5 DUP3 PUSH1 0x20 DUP7 ADD PUSH2 0xBEC JUMP JUMPDEST SWAP2 POP POP SWAP3 SWAP2 POP POP JUMP JUMPDEST PUSH1 0x0 PUSH1 0x20 DUP3 DUP5 SUB SLT ISZERO PUSH2 0xC72 JUMPI PUSH2 0xC71 PUSH2 0xB0C JUMP JUMPDEST JUMPDEST PUSH1 0x0 DUP3 ADD CALLDATALOAD PUSH8 0xFFFFFFFFFFFFFFFF DUP2 GT ISZERO PUSH2 0xC90 JUMPI PUSH2 0xC8F PUSH2 0xB11 JUMP JUMPDEST JUMPDEST PUSH2 0xC9C DUP5 DUP3 DUP6 ADD PUSH2 0xC2E JUMP JUMPDEST SWAP2 POP POP SWAP3 SWAP2 POP POP JUMP JUMPDEST PUSH1 0x0 DUP2 MLOAD SWAP1 POP SWAP2 SWAP1 POP JUMP JUMPDEST PUSH1 0x0 DUP3 DUP3 MSTORE PUSH1 0x20 DUP3 ADD SWAP1 POP SWAP3 SWAP2 POP POP JUMP JUMPDEST PUSH1 0x0 JUMPDEST DUP4 DUP2 LT ISZERO PUSH2 0xCDF JUMPI DUP1 DUP3 ADD MLOAD DUP2 DUP5 ADD MSTORE PUSH1 0x20 DUP2 ADD SWAP1 POP PUSH2 0xCC4 JUMP JUMPDEST PUSH1 0x0 DUP5 DUP5 ADD MSTORE POP POP POP POP JUMP JUMPDEST PUSH1 0x0 PUSH2 0xCF6 DUP3 PUSH2 0xCA5 JUMP JUMPDEST PUSH2 0xD00 DUP2 DUP6 PUSH2 0xCB0 JUMP JUMPDEST SWAP4 POP PUSH2 0xD10 DUP2 DUP6 PUSH1 0x20 DUP7 ADD PUSH2 0xCC1 JUMP JUMPDEST PUSH2 0xD19 DUP2 PUSH2 0xB20 JUMP JUMPDEST DUP5 ADD SWAP2 POP POP SWAP3 SWAP2 POP POP JUMP JUMPDEST PUSH1 0x0 PUSH1 0x20 DUP3 ADD SWAP1 POP DUP2 DUP2 SUB PUSH1 0x0 DUP4 ADD MSTORE PUSH2 0xD3E DUP2 DUP5 PUSH2 0xCEB JUMP JUMPDEST SWAP1 POP SWAP3 SWAP2 POP POP JUMP JUMPDEST PUSH1 0x0 DUP2 SWAP1 POP SWAP2 SWAP1 POP JUMP JUMPDEST PUSH2 0xD59 DUP2 PUSH2 0xD46 JUMP JUMPDEST DUP2 EQ PUSH2 0xD64 JUMPI PUSH1 0x0 DUP1 REVERT JUMPDEST POP JUMP JUMPDEST PUSH1 0x0 DUP2 CALLDATALOAD SWAP1 POP PUSH2 0xD76 DUP2 PUSH2 0xD50 JUMP JUMPDEST SWAP3 SWAP2 POP POP JUMP JUMPDEST PUSH1 0x0 PUSH1 0x20 DUP3 DUP5 SUB SLT ISZERO PUSH2 0xD92 JUMPI PUSH2 0xD91 PUSH2 0xB0C JUMP JUMPDEST JUMPDEST PUSH1 0x0 PUSH2 0xDA0 DUP5 DUP3 DUP6 ADD PUSH2 0xD67 JUMP JUMPDEST SWAP2 POP POP SWAP3 SWAP2 POP POP JUMP JUMPDEST PUSH1 0x0 DUP2 SWAP1 POP SWAP2 SWAP1 POP JUMP JUMPDEST PUSH2 0xDBC DUP2 PUSH2 0xDA9 JUMP JUMPDEST DUP3 MSTORE POP POP JUMP JUMPDEST PUSH1 0x0 PUSH1 0x20 DUP3 ADD SWAP1 POP PUSH2 0xDD7 PUSH1 0x0 DUP4 ADD DUP5 PUSH2 0xDB3 JUMP JUMPDEST SWAP3 SWAP2 POP POP JUMP JUMPDEST PUSH1 0x0 DUP1 REVERT JUMPDEST PUSH1 0x0 DUP1 REVERT JUMPDEST PUSH1 0x0 DUP1 DUP4 PUSH1 0x1F DUP5 ADD SLT PUSH2 0xDFD JUMPI PUSH2 0xDFC PUSH2 0xB16 JUMP JUMPDEST JUMPDEST DUP3 CALLDATALOAD SWAP1 POP PUSH8 0xFFFFFFFFFFFFFFFF DUP2 GT ISZERO PUSH2 0xE1A JUMPI PUSH2 0xE19 PUSH2 0xDDD JUMP JUMPDEST JUMPDEST PUSH1 0x20 DUP4 ADD SWAP2 POP DUP4 PUSH1 0x20 DUP3 MUL DUP4 ADD GT ISZERO PUSH2 0xE36 JUMPI PUSH2 0xE35 PUSH2 0xDE2 JUMP JUMPDEST JUMPDEST SWAP3 POP SWAP3 SWAP1 POP JUMP JUMPDEST PUSH1 0x0 DUP1 PUSH1 0x0 PUSH1 0x40 DUP5 DUP7 SUB SLT ISZERO PUSH2 0xE56 JUMPI PUSH2 0xE55 PUSH2 0xB0C JUMP JUMPDEST JUMPDEST PUSH1 0x0 DUP5 ADD CALLDATALOAD PUSH8 0xFFFFFFFFFFFFFFFF DUP2 GT ISZERO PUSH2 0xE74 JUMPI PUSH2 0xE73 PUSH2 0xB11 JUMP JUMPDEST JUMPDEST PUSH2 0xE80 DUP7 DUP3 DUP8 ADD PUSH2 0xDE7 JUMP JUMPDEST SWAP4 POP SWAP4 POP POP PUSH1 0x20 PUSH2 0xE93 DUP7 DUP3 DUP8 ADD PUSH2 0xD67 JUMP JUMPDEST SWAP2 POP POP SWAP3 POP SWAP3 POP SWAP3 JUMP JUMPDEST PUSH1 0x0 DUP1 PUSH1 0x0 DUP1 PUSH1 0x40 DUP6 DUP8 SUB SLT ISZERO PUSH2 0xEB7 JUMPI PUSH2 0xEB6 PUSH2 0xB0C JUMP JUMPDEST JUMPDEST PUSH1 0x0 DUP6 ADD CALLDATALOAD PUSH8 0xFFFFFFFFFFFFFFFF DUP2 GT ISZERO PUSH2 0xED5 JUMPI PUSH2 0xED4 PUSH2 0xB11 JUMP JUMPDEST JUMPDEST PUSH2 0xEE1 DUP8 DUP3 DUP9 ADD PUSH2 0xDE7 JUMP JUMPDEST SWAP5 POP SWAP5 POP POP PUSH1 0x20 DUP6 ADD CALLDATALOAD PUSH8 0xFFFFFFFFFFFFFFFF DUP2 GT ISZERO PUSH2 0xF04 JUMPI PUSH2 0xF03 PUSH2 0xB11 JUMP JUMPDEST JUMPDEST PUSH2 0xF10 DUP8 DUP3 DUP9 ADD PUSH2 0xDE7 JUMP JUMPDEST SWAP3 POP SWAP3 POP POP SWAP3 SWAP6 SWAP2 SWAP5 POP SWAP3 POP JUMP JUMPDEST PUSH1 0x0 DUP2 MLOAD SWAP1 POP SWAP2 SWAP1 POP JUMP JUMPDEST PUSH1 0x0 DUP3 DUP3 MSTORE PUSH1 0x20 DUP3 ADD SWAP1 POP SWAP3 SWAP2 POP POP JUMP JUMPDEST PUSH1 0x0 DUP2 SWAP1 POP PUSH1 0x20 DUP3 ADD SWAP1 POP SWAP2 SWAP1 POP JUMP JUMPDEST PUSH2 0xF53 DUP2 PUSH2 0xD46 JUMP JUMPDEST DUP3 MSTORE POP POP JUMP JUMPDEST PUSH1 0x0 PUSH2 0xF65 DUP4 DUP4 PUSH2 0xF4A JUMP JUMPDEST PUSH1 0x20 DUP4 ADD SWAP1 POP SWAP3 SWAP2 POP POP JUMP JUMPDEST PUSH1 0x0 PUSH1 0x20 DUP3 ADD SWAP1 POP SWAP2 SWAP1 POP JUMP JUMPDEST PUSH1 0x0 PUSH2 0xF89 DUP3 PUSH2 0xF1E JUMP JUMPDEST PUSH2 0xF93 DUP2 DUP6 PUSH2 0xF29 JUMP JUMPDEST SWAP4 POP PUSH2 0xF9E DUP4 PUSH2 0xF3A JUMP JUMPDEST DUP1 PUSH1 0x0 JUMPDEST DUP4 DUP2 LT ISZERO PUSH2 0xFCF JUMPI DUP2 MLOAD PUSH2 0xFB6 DUP9 DUP3 PUSH2 0xF59 JUMP JUMPDEST SWAP8 POP PUSH2 0xFC1 DUP4 PUSH2 0xF71 JUMP JUMPDEST SWAP3 POP POP PUSH1 0x1 DUP2 ADD SWAP1 POP PUSH2 0xFA2 JUMP JUMPDEST POP DUP6 SWAP4 POP POP POP POP SWAP3 SWAP2 POP POP JUMP JUMPDEST PUSH1 0x0 PUSH1 0x20 DUP3 ADD SWAP1 POP DUP2 DUP2 SUB PUSH1 0x0 DUP4 ADD MSTORE PUSH2 0xFF6 DUP2 DUP5 PUSH2 0xF7E JUMP JUMPDEST SWAP1 POP SWAP3 SWAP2 POP POP JUMP JUMPDEST PUSH32 0x4E487B7100000000000000000000000000000000000000000000000000000000 PUSH1 0x0 MSTORE PUSH1 0x11 PUSH1 0x4 MSTORE PUSH1 0x24 PUSH1 0x0 REVERT JUMPDEST PUSH1 0x0 PUSH2 0x1038 DUP3 PUSH2 0xD46 JUMP JUMPDEST SWAP2 POP PUSH2 0x1043 DUP4 PUSH2 0xD46 JUMP JUMPDEST SWAP3 POP DUP3 DUP3 SUB SWAP1 POP DUP2 DUP2 GT ISZERO PUSH2 0x105B JUMPI PUSH2 0x105A PUSH2 0xFFE JUMP JUMPDEST JUMPDEST SWAP3 SWAP2 POP POP JUMP JUMPDEST PUSH32 0x4E487B7100000000000000000000000000000000000000000000000000000000 PUSH1 0x0 MSTORE PUSH1 0x32 PUSH1 0x4 MSTORE PUSH1 0x24 PUSH1 0x0 REVERT JUMPDEST PUSH1 0x0 DUP2 MLOAD SWAP1 POP SWAP2 SWAP1 POP JUMP JUMPDEST PUSH1 0x0 DUP2 SWAP1 POP SWAP3 SWAP2 POP POP JUMP JUMPDEST PUSH1 0x0 PUSH2 0x10B1 DUP3 PUSH2 0x1090 JUMP JUMPDEST PUSH2 0x10BB DUP2 DUP6 PUSH2 0x109B JUMP JUMPDEST SWAP4 POP PUSH2 0x10CB DUP2 DUP6 PUSH1 0x20 DUP7 ADD PUSH2 0xCC1 JUMP JUMPDEST DUP1 DUP5 ADD SWAP2 POP POP SWAP3 SWAP2 POP POP JUMP JUMPDEST PUSH1 0x0 DUP2 SWAP1 POP SWAP3 SWAP2 POP POP JUMP JUMPDEST PUSH1 0x0 PUSH2 0x10ED DUP3 PUSH2 0xCA5 JUMP JUMPDEST PUSH2 0x10F7 DUP2 DUP6 PUSH2 0x10D7 JUMP JUMPDEST SWAP4 POP PUSH2 0x1107 DUP2 DUP6 PUSH1 0x20 DUP7 ADD PUSH2 0xCC1 JUMP JUMPDEST DUP1 DUP5 ADD SWAP2 POP POP SWAP3 SWAP2 POP POP JUMP JUMPDEST PUSH1 0x0 PUSH2 0x111F DUP3 DUP6 PUSH2 0x10A6 JUMP JUMPDEST SWAP2 POP PUSH2 0x112B DUP3 DUP5 PUSH2 0x10E2 JUMP JUMPDEST SWAP2 POP DUP2 SWAP1 POP SWAP4 SWAP3 POP POP POP JUMP JUMPDEST PUSH1 0x0 PUSH2 0x1142 DUP3 PUSH2 0xD46 JUMP JUMPDEST SWAP2 POP PUSH2 0x114D DUP4 PUSH2 0xD46 JUMP JUMPDEST SWAP3 POP DUP3 DUP3 ADD SWAP1 POP DUP1 DUP3 GT ISZERO PUSH2 0x1165 JUMPI PUSH2 0x1164 PUSH2 0xFFE JUMP JUMPDEST JUMPDEST SWAP3 SWAP2 POP POP JUMP JUMPDEST PUSH1 0x0 PUSH2 0x1176 DUP3 PUSH2 0xDA9 JUMP JUMPDEST SWAP2 POP PUSH2 0x1181 DUP4 PUSH2 0xDA9 JUMP JUMPDEST SWAP3 POP DUP3 DUP3 SUB SWAP1 POP DUP2 DUP2 SLT PUSH1 0x0 DUP5 SLT AND DUP3 DUP3 SGT PUSH1 0x0 DUP6 SLT ISZERO AND OR ISZERO PUSH2 0x11A8 JUMPI PUSH2 0x11A7 PUSH2 0xFFE JUMP JUMPDEST JUMPDEST SWAP3 SWAP2 POP POP JUMP JUMPDEST PUSH1 0x0 PUSH2 0x11B9 DUP3 PUSH2 0xDA9 JUMP JUMPDEST SWAP2 POP PUSH2 0x11C4 DUP4 PUSH2 0xDA9 JUMP JUMPDEST SWAP3 POP DUP3 DUP3 ADD SWAP1 POP DUP3 DUP2 SLT ISZERO PUSH1 0x0 DUP4 SLT AND DUP4 DUP3 SLT PUSH1 0x0 DUP5 SLT ISZERO AND OR ISZERO PUSH2 0x11EC JUMPI PUSH2 0x11EB PUSH2 0xFFE JUMP JUMPDEST JUMPDEST SWAP3 SWAP2 POP POP JUMP JUMPDEST PUSH32 0x4E487B7100000000000000000000000000000000000000000000000000000000 PUSH1 0x0 MSTORE PUSH1 0x12 PUSH1 0x4 MSTORE PUSH1 0x24 PUSH1 0x0 REVERT JUMPDEST PUSH1 0x0 PUSH2 0x122C DUP3 PUSH2 0xD46 JUMP JUMPDEST SWAP2 POP PUSH2 0x1237 DUP4 PUSH2 0xD46 JUMP JUMPDEST SWAP3 POP DUP3 PUSH2 0x1247 JUMPI PUSH2 0x1246 PUSH2 0x11F2 JUMP JUMPDEST JUMPDEST DUP3 DUP3 DIV SWAP1 POP SWAP3 SWAP2 POP POP JUMP JUMPDEST PUSH1 0x0 PUSH2 0x125D DUP3 PUSH2 0xD46 JUMP JUMPDEST SWAP2 POP PUSH32 0xFFFFFFFFFFFFFFFFFFFFFFFFFFFFFFFFFFFFFFFFFFFFFFFFFFFFFFFFFFFFFFFF DUP3 SUB PUSH2 0x128F JUMPI PUSH2 0x128E PUSH2 0xFFE JUMP JUMPDEST JUMPDEST PUSH1 0x1 DUP3 ADD SWAP1 POP SWAP2 SWAP1 POP JUMP INVALID LOG2 PUSH5 0x6970667358 0x22 SLT KECCAK256 0xD2 0xF9 0xF9 PUSH9 0xC6BA4047865C530C5A 0x4F PUSH6 0xB2A55D6B0FB7 0xD2 JUMPI 0xDA 0xC2 MSTORE8 GAS PUSH23 0x9A51456764736F6C634300081600330000000000000000 "
				},
				"gasEstimates": {
					"creation": {
						"codeDepositCost": "963200",
						"executionCost": "326823",
						"totalCost": "1290023"
					},
					"external": {
						"BinarySearch(uint256[],uint256)": "infinite",
						"megerSortArray(uint256[],uint256[])": "infinite",
						"reverseString(string)": "infinite",
						"romanToInt(string)": "infinite",
						"uintToRoman(uint256)": "infinite"
					}
				},
				"methodIdentifiers": {
					"BinarySearch(uint256[],uint256)": "e35d0f99",
					"megerSortArray(uint256[],uint256[])": "fa08d35f",
					"reverseString(string)": "5729c211",
					"romanToInt(string)": "cb159dfe",
					"uintToRoman(uint256)": "bf5021e3"
				}
			},
			"storageLayout": {
				"storage": [
					{
						"astId": 5,
						"contract": "task1/Tiltles.sol:Titles",
						"label": "romanToInts",
						"offset": 0,
						"slot": "0",
						"type": "t_mapping(t_bytes1,t_uint256)"
					},
					{
						"astId": 9,
						"contract": "task1/Tiltles.sol:Titles",
						"label": "romans",
						"offset": 0,
						"slot": "1",
						"type": "t_mapping(t_uint256,t_bytes1)"
					}
				],
				"types": {
					"t_bytes1": {
						"encoding": "inplace",
						"label": "bytes1",
						"numberOfBytes": "1"
					},
					"t_mapping(t_bytes1,t_uint256)": {
						"encoding": "mapping",
						"key": "t_bytes1",
						"label": "mapping(bytes1 => uint256)",
						"numberOfBytes": "32",
						"value": "t_uint256"
					},
					"t_mapping(t_uint256,t_bytes1)": {
						"encoding": "mapping",
						"key": "t_uint256",
						"label": "mapping(uint256 => bytes1)",
						"numberOfBytes": "32",
						"value": "t_bytes1"
					},
					"t_uint256": {
						"encoding": "inplace",
						"label": "uint256",
						"numberOfBytes": "32"
					}
				}
			},
			"userdoc": {
				"kind": "user",
				"methods": {},
				"version": 1
			}
		}
	}
}