{
	"practise3.2/NFTMarket.sol": {
		"NFTmarket": {
			"abi": [
				{
					"anonymous": false,
					"inputs": [
						{
							"indexed": true,
							"internalType": "uint256",
							"name": "id",
							"type": "uint256"
						},
						{
							"indexed": false,
							"internalType": "address",
							"name": "owner",
							"type": "address"
						}
					],
					"name": "NFTCreated",
					"type": "event"
				},
				{
					"anonymous": false,
					"inputs": [
						{
							"indexed": true,
							"internalType": "uint256",
							"name": "id",
							"type": "uint256"
						}
					],
					"name": "NFTDowned",
					"type": "event"
				},
				{
					"anonymous": false,
					"inputs": [
						{
							"indexed": true,
							"internalType": "uint256",
							"name": "id",
							"type": "uint256"
						},
						{
							"indexed": false,
							"internalType": "uint256",
							"name": "price",
							"type": "uint256"
						}
					],
					"name": "NFTListed",
					"type": "event"
				},
				{
					"anonymous": false,
					"inputs": [
						{
							"indexed": false,
							"internalType": "uint256",
							"name": "id",
							"type": "uint256"
						},
						{
							"indexed": false,
							"internalType": "address",
							"name": "to",
							"type": "address"
						},
						{
							"indexed": false,
							"internalType": "address",
							"name": "from",
							"type": "address"
						},
						{
							"indexed": false,
							"internalType": "uint256",
							"name": "price",
							"type": "uint256"
						}
					],
					"name": "NFTSaled",
					"type": "event"
				},
				{
					"inputs": [
						{
							"internalType": "uint256",
							"name": "",
							"type": "uint256"
						}
					],
					"name": "NFTList",
					"outputs": [
						{
							"internalType": "uint256",
							"name": "",
							"type": "uint256"
						}
					],
					"stateMutability": "view",
					"type": "function"
				},
				{
					"inputs": [
						{
							"internalType": "uint256",
							"name": "_id",
							"type": "uint256"
						}
					],
					"name": "buyNTF",
					"outputs": [],
					"stateMutability": "payable",
					"type": "function"
				},
				{
					"inputs": [],
					"name": "createNFT",
					"outputs": [
						{
							"internalType": "uint256",
							"name": "",
							"type": "uint256"
						}
					],
					"stateMutability": "nonpayable",
					"type": "function"
				},
				{
					"inputs": [
						{
							"internalType": "uint256",
							"name": "_id",
							"type": "uint256"
						}
					],
					"name": "downNFT",
					"outputs": [
						{
							"internalType": "bool",
							"name": "",
							"type": "bool"
						}
					],
					"stateMutability": "nonpayable",
					"type": "function"
				},
				{
					"inputs": [],
					"name": "getNTFs",
					"outputs": [
						{
							"internalType": "uint256[]",
							"name": "",
							"type": "uint256[]"
						}
					],
					"stateMutability": "view",
					"type": "function"
				},
				{
					"inputs": [
						{
							"internalType": "uint256",
							"name": "_id",
							"type": "uint256"
						},
						{
							"internalType": "uint256",
							"name": "_price",
							"type": "uint256"
						}
					],
					"name": "listNFT",
					"outputs": [
						{
							"internalType": "bool",
							"name": "",
							"type": "bool"
						}
					],
					"stateMutability": "nonpayable",
					"type": "function"
				},
				{
					"inputs": [
						{
							"internalType": "uint256",
							"name": "",
							"type": "uint256"
						}
					],
					"name": "onSaleList",
					"outputs": [
						{
							"internalType": "uint256",
							"name": "",
							"type": "uint256"
						}
					],
					"stateMutability": "view",
					"type": "function"
				},
				{
					"inputs": [],
					"name": "selectNFTsOnsale",
					"outputs": [
						{
							"internalType": "uint256[]",
							"name": "",
							"type": "uint256[]"
						}
					],
					"stateMutability": "view",
					"type": "function"
				}
			],
			"devdoc": {
				"kind": "dev",
				"methods": {},
				"version": 1
			},
			"evm": {
				"assembly": "    /* \"practise3.2/NFTMarket.sol\":56:3182  contract NFTmarket{... */\n  mstore(0x40, 0x80)\n    /* \"practise3.2/NFTMarket.sol\":212:213  0 */\n  0x00\n    /* \"practise3.2/NFTMarket.sol\":187:213  uint256 idIncrementCount=0 */\n  dup1\n  sstore\n    /* \"practise3.2/NFTMarket.sol\":56:3182  contract NFTmarket{... */\n  callvalue\n  dup1\n  iszero\n  tag_1\n  jumpi\n  0x00\n  dup1\n  revert\ntag_1:\n  pop\n  dataSize(sub_0)\n  dup1\n  dataOffset(sub_0)\n  0x00\n  codecopy\n  0x00\n  return\nstop\n\nsub_0: assembly {\n        /* \"practise3.2/NFTMarket.sol\":56:3182  contract NFTmarket{... */\n      mstore(0x40, 0x80)\n      jumpi(tag_1, lt(calldatasize, 0x04))\n      shr(0xe0, calldataload(0x00))\n      dup1\n      0x8a97ec2a\n      gt\n      tag_10\n      jumpi\n      dup1\n      0x8a97ec2a\n      eq\n      tag_6\n      jumpi\n      dup1\n      0x94383f14\n      eq\n      tag_7\n      jumpi\n      dup1\n      0xa7d18a49\n      eq\n      tag_8\n      jumpi\n      dup1\n      0xd58955fe\n      eq\n      tag_9\n      jumpi\n      jump(tag_1)\n    tag_10:\n      dup1\n      0x11429b38\n      eq\n      tag_2\n      jumpi\n      dup1\n      0x1ad905d0\n      eq\n      tag_3\n      jumpi\n      dup1\n      0x549dcd48\n      eq\n      tag_4\n      jumpi\n      dup1\n      0x686b4185\n      eq\n      tag_5\n      jumpi\n    tag_1:\n      0x00\n      dup1\n      revert\n        /* \"practise3.2/NFTMarket.sol\":2440:2527  function getNTFs() public  view  returns (uint[] memory){... */\n    tag_2:\n      callvalue\n      dup1\n      iszero\n      tag_11\n      jumpi\n      0x00\n      dup1\n      revert\n    tag_11:\n      pop\n      tag_12\n      tag_13\n      jump\t// in\n    tag_12:\n      mload(0x40)\n      tag_14\n      swap2\n      swap1\n      tag_15\n      jump\t// in\n    tag_14:\n      mload(0x40)\n      dup1\n      swap2\n      sub\n      swap1\n      return\n        /* \"practise3.2/NFTMarket.sol\":2337:2435  function selectNFTsOnsale() public  view returns (uint[] memory){... */\n    tag_3:\n      callvalue\n      dup1\n      iszero\n      tag_16\n      jumpi\n      0x00\n      dup1\n      revert\n    tag_16:\n      pop\n      tag_17\n      tag_18\n      jump\t// in\n    tag_17:\n      mload(0x40)\n      tag_19\n      swap2\n      swap1\n      tag_15\n      jump\t// in\n    tag_19:\n      mload(0x40)\n      dup1\n      swap2\n      sub\n      swap1\n      return\n        /* \"practise3.2/NFTMarket.sol\":253:281  uint256[] public  onSaleList */\n    tag_4:\n      callvalue\n      dup1\n      iszero\n      tag_20\n      jumpi\n      0x00\n      dup1\n      revert\n    tag_20:\n      pop\n      tag_21\n      0x04\n      dup1\n      calldatasize\n      sub\n      dup2\n      add\n      swap1\n      tag_22\n      swap2\n      swap1\n      tag_23\n      jump\t// in\n    tag_22:\n      tag_24\n      jump\t// in\n    tag_21:\n      mload(0x40)\n      tag_25\n      swap2\n      swap1\n      tag_26\n      jump\t// in\n    tag_25:\n      mload(0x40)\n      dup1\n      swap2\n      sub\n      swap1\n      return\n        /* \"practise3.2/NFTMarket.sol\":1275:1640  function  downNFT(uint256 _id) public  returns (bool){... */\n    tag_5:\n      callvalue\n      dup1\n      iszero\n      tag_27\n      jumpi\n      0x00\n      dup1\n      revert\n    tag_27:\n      pop\n      tag_28\n      0x04\n      dup1\n      calldatasize\n      sub\n      dup2\n      add\n      swap1\n      tag_29\n      swap2\n      swap1\n      tag_23\n      jump\t// in\n    tag_29:\n      tag_30\n      jump\t// in\n    tag_28:\n      mload(0x40)\n      tag_31\n      swap2\n      swap1\n      tag_32\n      jump\t// in\n    tag_31:\n      mload(0x40)\n      dup1\n      swap2\n      sub\n      swap1\n      return\n        /* \"practise3.2/NFTMarket.sol\":534:834  function createNFT() public  returns (uint){... */\n    tag_6:\n      callvalue\n      dup1\n      iszero\n      tag_33\n      jumpi\n      0x00\n      dup1\n      revert\n    tag_33:\n      pop\n      tag_34\n      tag_35\n      jump\t// in\n    tag_34:\n      mload(0x40)\n      tag_36\n      swap2\n      swap1\n      tag_26\n      jump\t// in\n    tag_36:\n      mload(0x40)\n      dup1\n      swap2\n      sub\n      swap1\n      return\n        /* \"practise3.2/NFTMarket.sol\":839:1270  function listNFT(uint256 _id,uint256 _price) public returns (bool){... */\n    tag_7:\n      callvalue\n      dup1\n      iszero\n      tag_37\n      jumpi\n      0x00\n      dup1\n      revert\n    tag_37:\n      pop\n      tag_38\n      0x04\n      dup1\n      calldatasize\n      sub\n      dup2\n      add\n      swap1\n      tag_39\n      swap2\n      swap1\n      tag_40\n      jump\t// in\n    tag_39:\n      tag_41\n      jump\t// in\n    tag_38:\n      mload(0x40)\n      tag_42\n      swap2\n      swap1\n      tag_32\n      jump\t// in\n    tag_42:\n      mload(0x40)\n      dup1\n      swap2\n      sub\n      swap1\n      return\n        /* \"practise3.2/NFTMarket.sol\":287:312  uint256[] public  NFTList */\n    tag_8:\n      callvalue\n      dup1\n      iszero\n      tag_43\n      jumpi\n      0x00\n      dup1\n      revert\n    tag_43:\n      pop\n      tag_44\n      0x04\n      dup1\n      calldatasize\n      sub\n      dup2\n      add\n      swap1\n      tag_45\n      swap2\n      swap1\n      tag_23\n      jump\t// in\n    tag_45:\n      tag_46\n      jump\t// in\n    tag_44:\n      mload(0x40)\n      tag_47\n      swap2\n      swap1\n      tag_26\n      jump\t// in\n    tag_47:\n      mload(0x40)\n      dup1\n      swap2\n      sub\n      swap1\n      return\n        /* \"practise3.2/NFTMarket.sol\":1645:2332  function buyNTF(uint256 _id) public payable  {... */\n    tag_9:\n      tag_48\n      0x04\n      dup1\n      calldatasize\n      sub\n      dup2\n      add\n      swap1\n      tag_49\n      swap2\n      swap1\n      tag_23\n      jump\t// in\n    tag_49:\n      tag_50\n      jump\t// in\n    tag_48:\n      stop\n        /* \"practise3.2/NFTMarket.sol\":2440:2527  function getNTFs() public  view  returns (uint[] memory){... */\n    tag_13:\n        /* \"practise3.2/NFTMarket.sol\":2482:2495  uint[] memory */\n      0x60\n        /* \"practise3.2/NFTMarket.sol\":2513:2520  NFTList */\n      0x03\n        /* \"practise3.2/NFTMarket.sol\":2506:2520  return NFTList */\n      dup1\n      sload\n      dup1\n      0x20\n      mul\n      0x20\n      add\n      mload(0x40)\n      swap1\n      dup2\n      add\n      0x40\n      mstore\n      dup1\n      swap3\n      swap2\n      swap1\n      dup2\n      dup2\n      mstore\n      0x20\n      add\n      dup3\n      dup1\n      sload\n      dup1\n      iszero\n      tag_52\n      jumpi\n      0x20\n      mul\n      dup3\n      add\n      swap2\n      swap1\n      0x00\n      mstore\n      keccak256(0x00, 0x20)\n      swap1\n    tag_53:\n      dup2\n      sload\n      dup2\n      mstore\n      0x20\n      add\n      swap1\n      0x01\n      add\n      swap1\n      dup1\n      dup4\n      gt\n      tag_53\n      jumpi\n    tag_52:\n      pop\n      pop\n      pop\n      pop\n      pop\n      swap1\n      pop\n        /* \"practise3.2/NFTMarket.sol\":2440:2527  function getNTFs() public  view  returns (uint[] memory){... */\n      swap1\n      jump\t// out\n        /* \"practise3.2/NFTMarket.sol\":2337:2435  function selectNFTsOnsale() public  view returns (uint[] memory){... */\n    tag_18:\n        /* \"practise3.2/NFTMarket.sol\":2387:2400  uint[] memory */\n      0x60\n        /* \"practise3.2/NFTMarket.sol\":2418:2428  onSaleList */\n      0x02\n        /* \"practise3.2/NFTMarket.sol\":2411:2428  return onSaleList */\n      dup1\n      sload\n      dup1\n      0x20\n      mul\n      0x20\n      add\n      mload(0x40)\n      swap1\n      dup2\n      add\n      0x40\n      mstore\n      dup1\n      swap3\n      swap2\n      swap1\n      dup2\n      dup2\n      mstore\n      0x20\n      add\n      dup3\n      dup1\n      sload\n      dup1\n      iszero\n      tag_55\n      jumpi\n      0x20\n      mul\n      dup3\n      add\n      swap2\n      swap1\n      0x00\n      mstore\n      keccak256(0x00, 0x20)\n      swap1\n    tag_56:\n      dup2\n      sload\n      dup2\n      mstore\n      0x20\n      add\n      swap1\n      0x01\n      add\n      swap1\n      dup1\n      dup4\n      gt\n      tag_56\n      jumpi\n    tag_55:\n      pop\n      pop\n      pop\n      pop\n      pop\n      swap1\n      pop\n        /* \"practise3.2/NFTMarket.sol\":2337:2435  function selectNFTsOnsale() public  view returns (uint[] memory){... */\n      swap1\n      jump\t// out\n        /* \"practise3.2/NFTMarket.sol\":253:281  uint256[] public  onSaleList */\n    tag_24:\n      0x02\n      dup2\n      dup2\n      sload\n      dup2\n      lt\n      tag_57\n      jumpi\n      0x00\n      dup1\n      revert\n    tag_57:\n      swap1\n      0x00\n      mstore\n      keccak256(0x00, 0x20)\n      add\n      0x00\n      swap2\n      pop\n      swap1\n      pop\n      sload\n      dup2\n      jump\t// out\n        /* \"practise3.2/NFTMarket.sol\":1275:1640  function  downNFT(uint256 _id) public  returns (bool){... */\n    tag_30:\n        /* \"practise3.2/NFTMarket.sol\":1323:1327  bool */\n      0x00\n        /* \"practise3.2/NFTMarket.sol\":1365:1375  msg.sender */\n      caller\n        /* \"practise3.2/NFTMarket.sol\":1346:1375  nfts[_id].owner == msg.sender */\n      0xffffffffffffffffffffffffffffffffffffffff\n      and\n        /* \"practise3.2/NFTMarket.sol\":1346:1350  nfts */\n      0x01\n        /* \"practise3.2/NFTMarket.sol\":1346:1355  nfts[_id] */\n      0x00\n        /* \"practise3.2/NFTMarket.sol\":1351:1354  _id */\n      dup5\n        /* \"practise3.2/NFTMarket.sol\":1346:1355  nfts[_id] */\n      dup2\n      mstore\n      0x20\n      add\n      swap1\n      dup2\n      mstore\n      0x20\n      add\n      0x00\n      keccak256\n        /* \"practise3.2/NFTMarket.sol\":1346:1361  nfts[_id].owner */\n      0x01\n      add\n      0x00\n      swap1\n      sload\n      swap1\n      0x0100\n      exp\n      swap1\n      div\n      0xffffffffffffffffffffffffffffffffffffffff\n      and\n        /* \"practise3.2/NFTMarket.sol\":1346:1375  nfts[_id].owner == msg.sender */\n      0xffffffffffffffffffffffffffffffffffffffff\n      and\n      eq\n        /* \"practise3.2/NFTMarket.sol\":1338:1393  require(nfts[_id].owner == msg.sender, \"Not the owner\") */\n      tag_60\n      jumpi\n      mload(0x40)\n      0x08c379a000000000000000000000000000000000000000000000000000000000\n      dup2\n      mstore\n      0x04\n      add\n      tag_61\n      swap1\n      tag_62\n      jump\t// in\n    tag_61:\n      mload(0x40)\n      dup1\n      swap2\n      sub\n      swap1\n      revert\n    tag_60:\n        /* \"practise3.2/NFTMarket.sol\":1430:1434  true */\n      0x01\n        /* \"practise3.2/NFTMarket.sol\":1412:1416  nfts */\n      dup1\n        /* \"practise3.2/NFTMarket.sol\":1412:1421  nfts[_id] */\n      0x00\n        /* \"practise3.2/NFTMarket.sol\":1417:1420  _id */\n      dup5\n        /* \"practise3.2/NFTMarket.sol\":1412:1421  nfts[_id] */\n      dup2\n      mstore\n      0x20\n      add\n      swap1\n      dup2\n      mstore\n      0x20\n      add\n      0x00\n      keccak256\n        /* \"practise3.2/NFTMarket.sol\":1412:1429  nfts[_id].forSale */\n      0x03\n      add\n      0x00\n        /* \"practise3.2/NFTMarket.sol\":1412:1434  nfts[_id].forSale=true */\n      0x0100\n      exp\n      dup2\n      sload\n      dup2\n      0xff\n      mul\n      not\n      and\n      swap1\n      dup4\n      iszero\n      iszero\n      mul\n      or\n      swap1\n      sstore\n        /* \"practise3.2/NFTMarket.sol\":1403:1469  require( nfts[_id].forSale=true ,\"The NFT is already out of sale\") */\n      tag_63\n      jumpi\n      mload(0x40)\n      0x08c379a000000000000000000000000000000000000000000000000000000000\n      dup2\n      mstore\n      0x04\n      add\n      tag_64\n      swap1\n      tag_65\n      jump\t// in\n    tag_64:\n      mload(0x40)\n      dup1\n      swap2\n      sub\n      swap1\n      revert\n    tag_63:\n        /* \"practise3.2/NFTMarket.sol\":1497:1498  0 */\n      0x00\n        /* \"practise3.2/NFTMarket.sol\":1479:1483  nfts */\n      0x01\n        /* \"practise3.2/NFTMarket.sol\":1479:1488  nfts[_id] */\n      0x00\n        /* \"practise3.2/NFTMarket.sol\":1484:1487  _id */\n      dup5\n        /* \"practise3.2/NFTMarket.sol\":1479:1488  nfts[_id] */\n      dup2\n      mstore\n      0x20\n      add\n      swap1\n      dup2\n      mstore\n      0x20\n      add\n      0x00\n      keccak256\n        /* \"practise3.2/NFTMarket.sol\":1479:1494  nfts[_id].price */\n      0x02\n      add\n        /* \"practise3.2/NFTMarket.sol\":1479:1498  nfts[_id].price = 0 */\n      dup2\n      swap1\n      sstore\n      pop\n        /* \"practise3.2/NFTMarket.sol\":1526:1531  false */\n      0x00\n        /* \"practise3.2/NFTMarket.sol\":1508:1512  nfts */\n      0x01\n        /* \"practise3.2/NFTMarket.sol\":1508:1517  nfts[_id] */\n      0x00\n        /* \"practise3.2/NFTMarket.sol\":1513:1516  _id */\n      dup5\n        /* \"practise3.2/NFTMarket.sol\":1508:1517  nfts[_id] */\n      dup2\n      mstore\n      0x20\n      add\n      swap1\n      dup2\n      mstore\n      0x20\n      add\n      0x00\n      keccak256\n        /* \"practise3.2/NFTMarket.sol\":1508:1525  nfts[_id].forSale */\n      0x03\n      add\n      0x00\n        /* \"practise3.2/NFTMarket.sol\":1508:1531  nfts[_id].forSale=false */\n      0x0100\n      exp\n      dup2\n      sload\n      dup2\n      0xff\n      mul\n      not\n      and\n      swap1\n      dup4\n      iszero\n      iszero\n      mul\n      or\n      swap1\n      sstore\n      pop\n        /* \"practise3.2/NFTMarket.sol\":1549:1569  removeNFTOnSale(_id) */\n      tag_66\n        /* \"practise3.2/NFTMarket.sol\":1565:1568  _id */\n      dup3\n        /* \"practise3.2/NFTMarket.sol\":1549:1564  removeNFTOnSale */\n      tag_67\n        /* \"practise3.2/NFTMarket.sol\":1549:1569  removeNFTOnSale(_id) */\n      jump\t// in\n    tag_66:\n        /* \"practise3.2/NFTMarket.sol\":1595:1598  _id */\n      dup2\n        /* \"practise3.2/NFTMarket.sol\":1585:1599  NFTDowned(_id) */\n      0x285464ff9aa8af359d45dbd9e10f177f43ac65c59fc330536d63d04128cfbea9\n      mload(0x40)\n      mload(0x40)\n      dup1\n      swap2\n      sub\n      swap1\n      log2\n        /* \"practise3.2/NFTMarket.sol\":1616:1620  nfts */\n      0x01\n        /* \"practise3.2/NFTMarket.sol\":1616:1625  nfts[_id] */\n      0x00\n        /* \"practise3.2/NFTMarket.sol\":1621:1624  _id */\n      dup4\n        /* \"practise3.2/NFTMarket.sol\":1616:1625  nfts[_id] */\n      dup2\n      mstore\n      0x20\n      add\n      swap1\n      dup2\n      mstore\n      0x20\n      add\n      0x00\n      keccak256\n        /* \"practise3.2/NFTMarket.sol\":1616:1633  nfts[_id].forSale */\n      0x03\n      add\n      0x00\n      swap1\n      sload\n      swap1\n      0x0100\n      exp\n      swap1\n      div\n      0xff\n      and\n        /* \"practise3.2/NFTMarket.sol\":1609:1633  return nfts[_id].forSale */\n      swap1\n      pop\n        /* \"practise3.2/NFTMarket.sol\":1275:1640  function  downNFT(uint256 _id) public  returns (bool){... */\n      swap2\n      swap1\n      pop\n      jump\t// out\n        /* \"practise3.2/NFTMarket.sol\":534:834  function createNFT() public  returns (uint){... */\n    tag_35:\n        /* \"practise3.2/NFTMarket.sol\":572:576  uint */\n      0x00\n        /* \"practise3.2/NFTMarket.sol\":585:596  uint256  id */\n      dup1\n        /* \"practise3.2/NFTMarket.sol\":599:615  idIncrementCount */\n      sload(0x00)\n        /* \"practise3.2/NFTMarket.sol\":585:615  uint256  id = idIncrementCount */\n      swap1\n      pop\n        /* \"practise3.2/NFTMarket.sol\":638:752  NFT({... */\n      mload(0x40)\n      dup1\n      0x80\n      add\n      0x40\n      mstore\n      dup1\n        /* \"practise3.2/NFTMarket.sol\":659:661  id */\n      dup3\n        /* \"practise3.2/NFTMarket.sol\":638:752  NFT({... */\n      dup2\n      mstore\n      0x20\n      add\n        /* \"practise3.2/NFTMarket.sol\":681:691  msg.sender */\n      caller\n        /* \"practise3.2/NFTMarket.sol\":638:752  NFT({... */\n      0xffffffffffffffffffffffffffffffffffffffff\n      and\n      dup2\n      mstore\n      0x20\n      add\n        /* \"practise3.2/NFTMarket.sol\":711:712  0 */\n      0x00\n        /* \"practise3.2/NFTMarket.sol\":638:752  NFT({... */\n      dup2\n      mstore\n      0x20\n      add\n        /* \"practise3.2/NFTMarket.sol\":734:739  false */\n      0x00\n        /* \"practise3.2/NFTMarket.sol\":638:752  NFT({... */\n      iszero\n      iszero\n      dup2\n      mstore\n      pop\n        /* \"practise3.2/NFTMarket.sol\":627:631  nfts */\n      0x01\n        /* \"practise3.2/NFTMarket.sol\":627:635  nfts[id] */\n      0x00\n        /* \"practise3.2/NFTMarket.sol\":632:634  id */\n      dup4\n        /* \"practise3.2/NFTMarket.sol\":627:635  nfts[id] */\n      dup2\n      mstore\n      0x20\n      add\n      swap1\n      dup2\n      mstore\n      0x20\n      add\n      0x00\n      keccak256\n        /* \"practise3.2/NFTMarket.sol\":627:752  nfts[id] = NFT({... */\n      0x00\n      dup3\n      add\n      mload\n      dup2\n      0x00\n      add\n      sstore\n      0x20\n      dup3\n      add\n      mload\n      dup2\n      0x01\n      add\n      exp(0x0100, 0x00)\n      dup2\n      sload\n      dup2\n      0xffffffffffffffffffffffffffffffffffffffff\n      mul\n      not\n      and\n      swap1\n      dup4\n      0xffffffffffffffffffffffffffffffffffffffff\n      and\n      mul\n      or\n      swap1\n      sstore\n      pop\n      0x40\n      dup3\n      add\n      mload\n      dup2\n      0x02\n      add\n      sstore\n      0x60\n      dup3\n      add\n      mload\n      dup2\n      0x03\n      add\n      exp(0x0100, 0x00)\n      dup2\n      sload\n      dup2\n      0xff\n      mul\n      not\n      and\n      swap1\n      dup4\n      iszero\n      iszero\n      mul\n      or\n      swap1\n      sstore\n      pop\n      swap1\n      pop\n      pop\n        /* \"practise3.2/NFTMarket.sol\":764:771  NFTList */\n      0x03\n        /* \"practise3.2/NFTMarket.sol\":777:779  id */\n      dup2\n        /* \"practise3.2/NFTMarket.sol\":764:780  NFTList.push(id) */\n      swap1\n      dup1\n      0x01\n      dup2\n      sload\n      add\n      dup1\n      dup3\n      sstore\n      dup1\n      swap2\n      pop\n      pop\n      0x01\n      swap1\n      sub\n      swap1\n      0x00\n      mstore\n      keccak256(0x00, 0x20)\n      add\n      0x00\n      swap1\n      swap2\n      swap1\n      swap2\n      swap1\n      swap2\n      pop\n      sstore\n        /* \"practise3.2/NFTMarket.sol\":792:808  idIncrementCount */\n      0x00\n      dup1\n        /* \"practise3.2/NFTMarket.sol\":792:810  idIncrementCount++ */\n      dup2\n      sload\n      dup1\n      swap3\n      swap2\n      swap1\n      tag_70\n      swap1\n      tag_71\n      jump\t// in\n    tag_70:\n      swap2\n      swap1\n      pop\n      sstore\n      pop\n        /* \"practise3.2/NFTMarket.sol\":825:827  id */\n      dup1\n        /* \"practise3.2/NFTMarket.sol\":818:827  return id */\n      swap2\n      pop\n      pop\n        /* \"practise3.2/NFTMarket.sol\":534:834  function createNFT() public  returns (uint){... */\n      swap1\n      jump\t// out\n        /* \"practise3.2/NFTMarket.sol\":839:1270  function listNFT(uint256 _id,uint256 _price) public returns (bool){... */\n    tag_41:\n        /* \"practise3.2/NFTMarket.sol\":900:904  bool */\n      0x00\n        /* \"practise3.2/NFTMarket.sol\":942:952  msg.sender */\n      caller\n        /* \"practise3.2/NFTMarket.sol\":923:952  nfts[_id].owner == msg.sender */\n      0xffffffffffffffffffffffffffffffffffffffff\n      and\n        /* \"practise3.2/NFTMarket.sol\":923:927  nfts */\n      0x01\n        /* \"practise3.2/NFTMarket.sol\":923:932  nfts[_id] */\n      0x00\n        /* \"practise3.2/NFTMarket.sol\":928:931  _id */\n      dup6\n        /* \"practise3.2/NFTMarket.sol\":923:932  nfts[_id] */\n      dup2\n      mstore\n      0x20\n      add\n      swap1\n      dup2\n      mstore\n      0x20\n      add\n      0x00\n      keccak256\n        /* \"practise3.2/NFTMarket.sol\":923:938  nfts[_id].owner */\n      0x01\n      add\n      0x00\n      swap1\n      sload\n      swap1\n      0x0100\n      exp\n      swap1\n      div\n      0xffffffffffffffffffffffffffffffffffffffff\n      and\n        /* \"practise3.2/NFTMarket.sol\":923:952  nfts[_id].owner == msg.sender */\n      0xffffffffffffffffffffffffffffffffffffffff\n      and\n      eq\n        /* \"practise3.2/NFTMarket.sol\":915:970  require(nfts[_id].owner == msg.sender, \"Not the owner\") */\n      tag_73\n      jumpi\n      mload(0x40)\n      0x08c379a000000000000000000000000000000000000000000000000000000000\n      dup2\n      mstore\n      0x04\n      add\n      tag_74\n      swap1\n      tag_62\n      jump\t// in\n    tag_74:\n      mload(0x40)\n      dup1\n      swap2\n      sub\n      swap1\n      revert\n    tag_73:\n        /* \"practise3.2/NFTMarket.sol\":1008:1013  false */\n      0x00\n        /* \"practise3.2/NFTMarket.sol\":989:1013  nfts[_id].forSale==false */\n      iszero\n      iszero\n        /* \"practise3.2/NFTMarket.sol\":989:993  nfts */\n      0x01\n        /* \"practise3.2/NFTMarket.sol\":989:998  nfts[_id] */\n      0x00\n        /* \"practise3.2/NFTMarket.sol\":994:997  _id */\n      dup6\n        /* \"practise3.2/NFTMarket.sol\":989:998  nfts[_id] */\n      dup2\n      mstore\n      0x20\n      add\n      swap1\n      dup2\n      mstore\n      0x20\n      add\n      0x00\n      keccak256\n        /* \"practise3.2/NFTMarket.sol\":989:1006  nfts[_id].forSale */\n      0x03\n      add\n      0x00\n      swap1\n      sload\n      swap1\n      0x0100\n      exp\n      swap1\n      div\n      0xff\n      and\n        /* \"practise3.2/NFTMarket.sol\":989:1013  nfts[_id].forSale==false */\n      iszero\n      iszero\n      eq\n        /* \"practise3.2/NFTMarket.sol\":980:1044  require( nfts[_id].forSale==false ,\"The NFT is already on sale\") */\n      tag_75\n      jumpi\n      mload(0x40)\n      0x08c379a000000000000000000000000000000000000000000000000000000000\n      dup2\n      mstore\n      0x04\n      add\n      tag_76\n      swap1\n      tag_77\n      jump\t// in\n    tag_76:\n      mload(0x40)\n      dup1\n      swap2\n      sub\n      swap1\n      revert\n    tag_75:\n        /* \"practise3.2/NFTMarket.sol\":1069:1070  0 */\n      0x00\n        /* \"practise3.2/NFTMarket.sol\":1062:1068  _price */\n      dup3\n        /* \"practise3.2/NFTMarket.sol\":1062:1070  _price>0 */\n      gt\n        /* \"practise3.2/NFTMarket.sol\":1054:1099  require(_price>0,\"price must Greater than 0\") */\n      tag_78\n      jumpi\n      mload(0x40)\n      0x08c379a000000000000000000000000000000000000000000000000000000000\n      dup2\n      mstore\n      0x04\n      add\n      tag_79\n      swap1\n      tag_80\n      jump\t// in\n    tag_79:\n      mload(0x40)\n      dup1\n      swap2\n      sub\n      swap1\n      revert\n    tag_78:\n        /* \"practise3.2/NFTMarket.sol\":1128:1134  _price */\n      dup2\n        /* \"practise3.2/NFTMarket.sol\":1110:1114  nfts */\n      0x01\n        /* \"practise3.2/NFTMarket.sol\":1110:1119  nfts[_id] */\n      0x00\n        /* \"practise3.2/NFTMarket.sol\":1115:1118  _id */\n      dup6\n        /* \"practise3.2/NFTMarket.sol\":1110:1119  nfts[_id] */\n      dup2\n      mstore\n      0x20\n      add\n      swap1\n      dup2\n      mstore\n      0x20\n      add\n      0x00\n      keccak256\n        /* \"practise3.2/NFTMarket.sol\":1110:1125  nfts[_id].price */\n      0x02\n      add\n        /* \"practise3.2/NFTMarket.sol\":1110:1134  nfts[_id].price = _price */\n      dup2\n      swap1\n      sstore\n      pop\n        /* \"practise3.2/NFTMarket.sol\":1164:1168  true */\n      0x01\n        /* \"practise3.2/NFTMarket.sol\":1144:1148  nfts */\n      dup1\n        /* \"practise3.2/NFTMarket.sol\":1144:1153  nfts[_id] */\n      0x00\n        /* \"practise3.2/NFTMarket.sol\":1149:1152  _id */\n      dup6\n        /* \"practise3.2/NFTMarket.sol\":1144:1153  nfts[_id] */\n      dup2\n      mstore\n      0x20\n      add\n      swap1\n      dup2\n      mstore\n      0x20\n      add\n      0x00\n      keccak256\n        /* \"practise3.2/NFTMarket.sol\":1144:1161  nfts[_id].forSale */\n      0x03\n      add\n      0x00\n        /* \"practise3.2/NFTMarket.sol\":1144:1168  nfts[_id].forSale = true */\n      0x0100\n      exp\n      dup2\n      sload\n      dup2\n      0xff\n      mul\n      not\n      and\n      swap1\n      dup4\n      iszero\n      iszero\n      mul\n      or\n      swap1\n      sstore\n      pop\n        /* \"practise3.2/NFTMarket.sol\":1178:1188  onSaleList */\n      0x02\n        /* \"practise3.2/NFTMarket.sol\":1194:1197  _id */\n      dup4\n        /* \"practise3.2/NFTMarket.sol\":1178:1198  onSaleList.push(_id) */\n      swap1\n      dup1\n      0x01\n      dup2\n      sload\n      add\n      dup1\n      dup3\n      sstore\n      dup1\n      swap2\n      pop\n      pop\n      0x01\n      swap1\n      sub\n      swap1\n      0x00\n      mstore\n      keccak256(0x00, 0x20)\n      add\n      0x00\n      swap1\n      swap2\n      swap1\n      swap2\n      swap1\n      swap2\n      pop\n      sstore\n        /* \"practise3.2/NFTMarket.sol\":1223:1226  _id */\n      dup3\n        /* \"practise3.2/NFTMarket.sol\":1213:1227  NFTDowned(_id) */\n      0x285464ff9aa8af359d45dbd9e10f177f43ac65c59fc330536d63d04128cfbea9\n      mload(0x40)\n      mload(0x40)\n      dup1\n      swap2\n      sub\n      swap1\n      log2\n        /* \"practise3.2/NFTMarket.sol\":1245:1249  nfts */\n      0x01\n        /* \"practise3.2/NFTMarket.sol\":1245:1254  nfts[_id] */\n      0x00\n        /* \"practise3.2/NFTMarket.sol\":1250:1253  _id */\n      dup5\n        /* \"practise3.2/NFTMarket.sol\":1245:1254  nfts[_id] */\n      dup2\n      mstore\n      0x20\n      add\n      swap1\n      dup2\n      mstore\n      0x20\n      add\n      0x00\n      keccak256\n        /* \"practise3.2/NFTMarket.sol\":1245:1262  nfts[_id].forSale */\n      0x03\n      add\n      0x00\n      swap1\n      sload\n      swap1\n      0x0100\n      exp\n      swap1\n      div\n      0xff\n      and\n        /* \"practise3.2/NFTMarket.sol\":1237:1262  return  nfts[_id].forSale */\n      swap1\n      pop\n        /* \"practise3.2/NFTMarket.sol\":839:1270  function listNFT(uint256 _id,uint256 _price) public returns (bool){... */\n      swap3\n      swap2\n      pop\n      pop\n      jump\t// out\n        /* \"practise3.2/NFTMarket.sol\":287:312  uint256[] public  NFTList */\n    tag_46:\n      0x03\n      dup2\n      dup2\n      sload\n      dup2\n      lt\n      tag_82\n      jumpi\n      0x00\n      dup1\n      revert\n    tag_82:\n      swap1\n      0x00\n      mstore\n      keccak256(0x00, 0x20)\n      add\n      0x00\n      swap2\n      pop\n      swap1\n      pop\n      sload\n      dup2\n      jump\t// out\n        /* \"practise3.2/NFTMarket.sol\":1645:2332  function buyNTF(uint256 _id) public payable  {... */\n    tag_50:\n        /* \"practise3.2/NFTMarket.sol\":1700:1715  NFT storage nft */\n      0x00\n        /* \"practise3.2/NFTMarket.sol\":1718:1722  nfts */\n      0x01\n        /* \"practise3.2/NFTMarket.sol\":1718:1727  nfts[_id] */\n      0x00\n        /* \"practise3.2/NFTMarket.sol\":1723:1726  _id */\n      dup4\n        /* \"practise3.2/NFTMarket.sol\":1718:1727  nfts[_id] */\n      dup2\n      mstore\n      0x20\n      add\n      swap1\n      dup2\n      mstore\n      0x20\n      add\n      0x00\n      keccak256\n        /* \"practise3.2/NFTMarket.sol\":1700:1727  NFT storage nft = nfts[_id] */\n      swap1\n      pop\n        /* \"practise3.2/NFTMarket.sol\":1793:1794  0 */\n      0x00\n        /* \"practise3.2/NFTMarket.sol\":1772:1795  nft.owner != address(0) */\n      0xffffffffffffffffffffffffffffffffffffffff\n      and\n        /* \"practise3.2/NFTMarket.sol\":1772:1775  nft */\n      dup2\n        /* \"practise3.2/NFTMarket.sol\":1772:1781  nft.owner */\n      0x01\n      add\n      0x00\n      swap1\n      sload\n      swap1\n      0x0100\n      exp\n      swap1\n      div\n      0xffffffffffffffffffffffffffffffffffffffff\n      and\n        /* \"practise3.2/NFTMarket.sol\":1772:1795  nft.owner != address(0) */\n      0xffffffffffffffffffffffffffffffffffffffff\n      and\n      sub\n        /* \"practise3.2/NFTMarket.sol\":1764:1818  require(nft.owner != address(0), \"NFT does not exist\") */\n      tag_85\n      jumpi\n      mload(0x40)\n      0x08c379a000000000000000000000000000000000000000000000000000000000\n      dup2\n      mstore\n      0x04\n      add\n      tag_86\n      swap1\n      tag_87\n      jump\t// in\n    tag_86:\n      mload(0x40)\n      dup1\n      swap2\n      sub\n      swap1\n      revert\n    tag_85:\n        /* \"practise3.2/NFTMarket.sol\":1836:1839  nft */\n      dup1\n        /* \"practise3.2/NFTMarket.sol\":1836:1847  nft.forSale */\n      0x03\n      add\n      0x00\n      swap1\n      sload\n      swap1\n      0x0100\n      exp\n      swap1\n      div\n      0xff\n      and\n        /* \"practise3.2/NFTMarket.sol\":1828:1871  require(nft.forSale, \"NFT is not for sale\") */\n      tag_88\n      jumpi\n      mload(0x40)\n      0x08c379a000000000000000000000000000000000000000000000000000000000\n      dup2\n      mstore\n      0x04\n      add\n      tag_89\n      swap1\n      tag_90\n      jump\t// in\n    tag_89:\n      mload(0x40)\n      dup1\n      swap2\n      sub\n      swap1\n      revert\n    tag_88:\n        /* \"practise3.2/NFTMarket.sol\":1903:1906  nft */\n      dup1\n        /* \"practise3.2/NFTMarket.sol\":1903:1912  nft.owner */\n      0x01\n      add\n      0x00\n      swap1\n      sload\n      swap1\n      0x0100\n      exp\n      swap1\n      div\n      0xffffffffffffffffffffffffffffffffffffffff\n      and\n        /* \"practise3.2/NFTMarket.sol\":1889:1912  msg.sender != nft.owner */\n      0xffffffffffffffffffffffffffffffffffffffff\n      and\n        /* \"practise3.2/NFTMarket.sol\":1889:1899  msg.sender */\n      caller\n        /* \"practise3.2/NFTMarket.sol\":1889:1912  msg.sender != nft.owner */\n      0xffffffffffffffffffffffffffffffffffffffff\n      and\n      sub\n        /* \"practise3.2/NFTMarket.sol\":1881:1940  require(msg.sender != nft.owner, \"Cannot buy your own NFT\") */\n      tag_91\n      jumpi\n      mload(0x40)\n      0x08c379a000000000000000000000000000000000000000000000000000000000\n      dup2\n      mstore\n      0x04\n      add\n      tag_92\n      swap1\n      tag_93\n      jump\t// in\n    tag_92:\n      mload(0x40)\n      dup1\n      swap2\n      sub\n      swap1\n      revert\n    tag_91:\n        /* \"practise3.2/NFTMarket.sol\":1971:1974  nft */\n      dup1\n        /* \"practise3.2/NFTMarket.sol\":1971:1980  nft.price */\n      0x02\n      add\n      sload\n        /* \"practise3.2/NFTMarket.sol\":1958:1967  msg.value */\n      callvalue\n        /* \"practise3.2/NFTMarket.sol\":1958:1980  msg.value == nft.price */\n      eq\n        /* \"practise3.2/NFTMarket.sol\":1950:2009  require(msg.value == nft.price, \"Incorrect payment amount\") */\n      tag_94\n      jumpi\n      mload(0x40)\n      0x08c379a000000000000000000000000000000000000000000000000000000000\n      dup2\n      mstore\n      0x04\n      add\n      tag_95\n      swap1\n      tag_96\n      jump\t// in\n    tag_95:\n      mload(0x40)\n      dup1\n      swap2\n      sub\n      swap1\n      revert\n    tag_94:\n        /* \"practise3.2/NFTMarket.sol\":2039:2040  0 */\n      0x00\n        /* \"practise3.2/NFTMarket.sol\":2027:2036  msg.value */\n      callvalue\n        /* \"practise3.2/NFTMarket.sol\":2027:2040  msg.value > 0 */\n      gt\n        /* \"practise3.2/NFTMarket.sol\":2019:2061  require(msg.value > 0, \"Payment required\") */\n      tag_97\n      jumpi\n      mload(0x40)\n      0x08c379a000000000000000000000000000000000000000000000000000000000\n      dup2\n      mstore\n      0x04\n      add\n      tag_98\n      swap1\n      tag_99\n      jump\t// in\n    tag_98:\n      mload(0x40)\n      dup1\n      swap2\n      sub\n      swap1\n      revert\n    tag_97:\n        /* \"practise3.2/NFTMarket.sol\":2083:2093  msg.sender */\n      caller\n        /* \"practise3.2/NFTMarket.sol\":2071:2074  nft */\n      dup2\n        /* \"practise3.2/NFTMarket.sol\":2071:2080  nft.owner */\n      0x01\n      add\n      0x00\n        /* \"practise3.2/NFTMarket.sol\":2071:2093  nft.owner = msg.sender */\n      0x0100\n      exp\n      dup2\n      sload\n      dup2\n      0xffffffffffffffffffffffffffffffffffffffff\n      mul\n      not\n      and\n      swap1\n      dup4\n      0xffffffffffffffffffffffffffffffffffffffff\n      and\n      mul\n      or\n      swap1\n      sstore\n      pop\n        /* \"practise3.2/NFTMarket.sol\":2115:2116  0 */\n      0x00\n        /* \"practise3.2/NFTMarket.sol\":2103:2106  nft */\n      dup2\n        /* \"practise3.2/NFTMarket.sol\":2103:2112  nft.price */\n      0x02\n      add\n        /* \"practise3.2/NFTMarket.sol\":2103:2116  nft.price = 0 */\n      dup2\n      swap1\n      sstore\n      pop\n        /* \"practise3.2/NFTMarket.sol\":2140:2145  false */\n      0x00\n        /* \"practise3.2/NFTMarket.sol\":2126:2129  nft */\n      dup2\n        /* \"practise3.2/NFTMarket.sol\":2126:2137  nft.forSale */\n      0x03\n      add\n      0x00\n        /* \"practise3.2/NFTMarket.sol\":2126:2145  nft.forSale = false */\n      0x0100\n      exp\n      dup2\n      sload\n      dup2\n      0xff\n      mul\n      not\n      and\n      swap1\n      dup4\n      iszero\n      iszero\n      mul\n      or\n      swap1\n      sstore\n      pop\n        /* \"practise3.2/NFTMarket.sol\":2163:2186  removeNFTOnSale(nft.id) */\n      tag_100\n        /* \"practise3.2/NFTMarket.sol\":2179:2182  nft */\n      dup2\n        /* \"practise3.2/NFTMarket.sol\":2179:2185  nft.id */\n      0x00\n      add\n      sload\n        /* \"practise3.2/NFTMarket.sol\":2163:2178  removeNFTOnSale */\n      tag_67\n        /* \"practise3.2/NFTMarket.sol\":2163:2186  removeNFTOnSale(nft.id) */\n      jump\t// in\n    tag_100:\n        /* \"practise3.2/NFTMarket.sol\":2196:2213  removeNFT(nft.id) */\n      tag_101\n        /* \"practise3.2/NFTMarket.sol\":2206:2209  nft */\n      dup2\n        /* \"practise3.2/NFTMarket.sol\":2206:2212  nft.id */\n      0x00\n      add\n      sload\n        /* \"practise3.2/NFTMarket.sol\":2196:2205  removeNFT */\n      tag_102\n        /* \"practise3.2/NFTMarket.sol\":2196:2213  removeNFT(nft.id) */\n      jump\t// in\n    tag_101:\n        /* \"practise3.2/NFTMarket.sol\":2231:2234  nft */\n      dup1\n        /* \"practise3.2/NFTMarket.sol\":2231:2240  nft.owner */\n      0x01\n      add\n      0x00\n      swap1\n      sload\n      swap1\n      0x0100\n      exp\n      swap1\n      div\n      0xffffffffffffffffffffffffffffffffffffffff\n      and\n        /* \"practise3.2/NFTMarket.sol\":2223:2250  payable(nft.owner).transfer */\n      0xffffffffffffffffffffffffffffffffffffffff\n      and\n        /* \"practise3.2/NFTMarket.sol\":2223:2261  payable(nft.owner).transfer(msg.value) */\n      0x08fc\n        /* \"practise3.2/NFTMarket.sol\":2251:2260  msg.value */\n      callvalue\n        /* \"practise3.2/NFTMarket.sol\":2223:2261  payable(nft.owner).transfer(msg.value) */\n      swap1\n      dup2\n      iszero\n      mul\n      swap1\n      mload(0x40)\n      0x00\n      mload(0x40)\n      dup1\n      dup4\n      sub\n      dup2\n      dup6\n      dup9\n      dup9\n      call\n      swap4\n      pop\n      pop\n      pop\n      pop\n      iszero\n      dup1\n      iszero\n      tag_104\n      jumpi\n      returndatasize\n      0x00\n      dup1\n      returndatacopy\n      revert(0x00, returndatasize)\n    tag_104:\n      pop\n        /* \"practise3.2/NFTMarket.sol\":2276:2323  NFTSaled(_id, msg.sender, nft.owner, nft.price) */\n      0x0cfcb43c3d7c1f005485a76a4a0ac731c77dc9a3e3cf386c02cf4dd9e10ec9d6\n        /* \"practise3.2/NFTMarket.sol\":2285:2288  _id */\n      dup3\n        /* \"practise3.2/NFTMarket.sol\":2290:2300  msg.sender */\n      caller\n        /* \"practise3.2/NFTMarket.sol\":2302:2305  nft */\n      dup4\n        /* \"practise3.2/NFTMarket.sol\":2302:2311  nft.owner */\n      0x01\n      add\n      0x00\n      swap1\n      sload\n      swap1\n      0x0100\n      exp\n      swap1\n      div\n      0xffffffffffffffffffffffffffffffffffffffff\n      and\n        /* \"practise3.2/NFTMarket.sol\":2313:2316  nft */\n      dup5\n        /* \"practise3.2/NFTMarket.sol\":2313:2322  nft.price */\n      0x02\n      add\n      sload\n        /* \"practise3.2/NFTMarket.sol\":2276:2323  NFTSaled(_id, msg.sender, nft.owner, nft.price) */\n      mload(0x40)\n      tag_105\n      swap5\n      swap4\n      swap3\n      swap2\n      swap1\n      tag_106\n      jump\t// in\n    tag_105:\n      mload(0x40)\n      dup1\n      swap2\n      sub\n      swap1\n      log1\n        /* \"practise3.2/NFTMarket.sol\":1690:2332  {... */\n      pop\n        /* \"practise3.2/NFTMarket.sol\":1645:2332  function buyNTF(uint256 _id) public payable  {... */\n      pop\n      jump\t// out\n        /* \"practise3.2/NFTMarket.sol\":2532:2863  function removeNFTOnSale(uint _id) private {... */\n    tag_67:\n        /* \"practise3.2/NFTMarket.sol\":2585:2593  uint len */\n      0x00\n        /* \"practise3.2/NFTMarket.sol\":2595:2605  onSaleList */\n      0x02\n        /* \"practise3.2/NFTMarket.sol\":2595:2612  onSaleList.length */\n      dup1\n      sload\n      swap1\n      pop\n        /* \"practise3.2/NFTMarket.sol\":2585:2612  uint len =onSaleList.length */\n      swap1\n      pop\n        /* \"practise3.2/NFTMarket.sol\":2627:2633  uint i */\n      0x00\n        /* \"practise3.2/NFTMarket.sol\":2622:2857  for (uint i = 0;i<len;i++){... */\n    tag_108:\n        /* \"practise3.2/NFTMarket.sol\":2640:2643  len */\n      dup2\n        /* \"practise3.2/NFTMarket.sol\":2638:2639  i */\n      dup2\n        /* \"practise3.2/NFTMarket.sol\":2638:2643  i<len */\n      lt\n        /* \"practise3.2/NFTMarket.sol\":2622:2857  for (uint i = 0;i<len;i++){... */\n      iszero\n      tag_109\n      jumpi\n        /* \"practise3.2/NFTMarket.sol\":2663:2674  uint  nftId */\n      0x00\n        /* \"practise3.2/NFTMarket.sol\":2676:2686  onSaleList */\n      0x02\n        /* \"practise3.2/NFTMarket.sol\":2687:2688  i */\n      dup3\n        /* \"practise3.2/NFTMarket.sol\":2676:2689  onSaleList[i] */\n      dup2\n      sload\n      dup2\n      lt\n      tag_111\n      jumpi\n      tag_112\n      tag_113\n      jump\t// in\n    tag_112:\n    tag_111:\n      swap1\n      0x00\n      mstore\n      keccak256(0x00, 0x20)\n      add\n      sload\n        /* \"practise3.2/NFTMarket.sol\":2663:2689  uint  nftId =onSaleList[i] */\n      swap1\n      pop\n        /* \"practise3.2/NFTMarket.sol\":2717:2720  _id */\n      dup4\n        /* \"practise3.2/NFTMarket.sol\":2708:2713  nftId */\n      dup2\n        /* \"practise3.2/NFTMarket.sol\":2708:2720  nftId == _id */\n      sub\n        /* \"practise3.2/NFTMarket.sol\":2704:2846  if (nftId == _id){... */\n      tag_115\n      jumpi\n        /* \"practise3.2/NFTMarket.sol\":2755:2765  onSaleList */\n      0x02\n        /* \"practise3.2/NFTMarket.sol\":2770:2771  1 */\n      0x01\n        /* \"practise3.2/NFTMarket.sol\":2766:2769  len */\n      dup5\n        /* \"practise3.2/NFTMarket.sol\":2766:2771  len-1 */\n      tag_116\n      swap2\n      swap1\n      tag_117\n      jump\t// in\n    tag_116:\n        /* \"practise3.2/NFTMarket.sol\":2755:2772  onSaleList[len-1] */\n      dup2\n      sload\n      dup2\n      lt\n      tag_118\n      jumpi\n      tag_119\n      tag_113\n      jump\t// in\n    tag_119:\n    tag_118:\n      swap1\n      0x00\n      mstore\n      keccak256(0x00, 0x20)\n      add\n      sload\n        /* \"practise3.2/NFTMarket.sol\":2739:2749  onSaleList */\n      0x02\n        /* \"practise3.2/NFTMarket.sol\":2750:2751  i */\n      dup4\n        /* \"practise3.2/NFTMarket.sol\":2739:2752  onSaleList[i] */\n      dup2\n      sload\n      dup2\n      lt\n      tag_121\n      jumpi\n      tag_122\n      tag_113\n      jump\t// in\n    tag_122:\n    tag_121:\n      swap1\n      0x00\n      mstore\n      keccak256(0x00, 0x20)\n      add\n        /* \"practise3.2/NFTMarket.sol\":2739:2772  onSaleList[i] = onSaleList[len-1] */\n      dup2\n      swap1\n      sstore\n      pop\n        /* \"practise3.2/NFTMarket.sol\":2790:2800  onSaleList */\n      0x02\n        /* \"practise3.2/NFTMarket.sol\":2790:2806  onSaleList.pop() */\n      dup1\n      sload\n      dup1\n      tag_124\n      jumpi\n      tag_125\n      tag_126\n      jump\t// in\n    tag_125:\n    tag_124:\n      0x01\n      swap1\n      sub\n      dup2\n      dup2\n      swap1\n      0x00\n      mstore\n      keccak256(0x00, 0x20)\n      add\n      0x00\n      swap1\n      sstore\n      swap1\n      sstore\n        /* \"practise3.2/NFTMarket.sol\":2824:2829  break */\n      pop\n      jump(tag_109)\n        /* \"practise3.2/NFTMarket.sol\":2704:2846  if (nftId == _id){... */\n    tag_115:\n        /* \"practise3.2/NFTMarket.sol\":2648:2857  {... */\n      pop\n        /* \"practise3.2/NFTMarket.sol\":2644:2647  i++ */\n      dup1\n      dup1\n      0x01\n      add\n      swap2\n      pop\n      pop\n        /* \"practise3.2/NFTMarket.sol\":2622:2857  for (uint i = 0;i<len;i++){... */\n      jump(tag_108)\n    tag_109:\n      pop\n        /* \"practise3.2/NFTMarket.sol\":2575:2863  {... */\n      pop\n        /* \"practise3.2/NFTMarket.sol\":2532:2863  function removeNFTOnSale(uint _id) private {... */\n      pop\n      jump\t// out\n        /* \"practise3.2/NFTMarket.sol\":2870:3180  function removeNFT(uint _id) private {... */\n    tag_102:\n        /* \"practise3.2/NFTMarket.sol\":2917:2925  uint len */\n      0x00\n        /* \"practise3.2/NFTMarket.sol\":2927:2934  NFTList */\n      0x03\n        /* \"practise3.2/NFTMarket.sol\":2927:2941  NFTList.length */\n      dup1\n      sload\n      swap1\n      pop\n        /* \"practise3.2/NFTMarket.sol\":2917:2941  uint len =NFTList.length */\n      swap1\n      pop\n        /* \"practise3.2/NFTMarket.sol\":2956:2962  uint i */\n      0x00\n        /* \"practise3.2/NFTMarket.sol\":2951:3174  for (uint i = 0;i<len;i++){... */\n    tag_129:\n        /* \"practise3.2/NFTMarket.sol\":2969:2972  len */\n      dup2\n        /* \"practise3.2/NFTMarket.sol\":2967:2968  i */\n      dup2\n        /* \"practise3.2/NFTMarket.sol\":2967:2972  i<len */\n      lt\n        /* \"practise3.2/NFTMarket.sol\":2951:3174  for (uint i = 0;i<len;i++){... */\n      iszero\n      tag_130\n      jumpi\n        /* \"practise3.2/NFTMarket.sol\":2992:3003  uint  nftId */\n      0x00\n        /* \"practise3.2/NFTMarket.sol\":3005:3012  NFTList */\n      0x03\n        /* \"practise3.2/NFTMarket.sol\":3013:3014  i */\n      dup3\n        /* \"practise3.2/NFTMarket.sol\":3005:3015  NFTList[i] */\n      dup2\n      sload\n      dup2\n      lt\n      tag_132\n      jumpi\n      tag_133\n      tag_113\n      jump\t// in\n    tag_133:\n    tag_132:\n      swap1\n      0x00\n      mstore\n      keccak256(0x00, 0x20)\n      add\n      sload\n        /* \"practise3.2/NFTMarket.sol\":2992:3015  uint  nftId =NFTList[i] */\n      swap1\n      pop\n        /* \"practise3.2/NFTMarket.sol\":3043:3046  _id */\n      dup4\n        /* \"practise3.2/NFTMarket.sol\":3034:3039  nftId */\n      dup2\n        /* \"practise3.2/NFTMarket.sol\":3034:3046  nftId == _id */\n      sub\n        /* \"practise3.2/NFTMarket.sol\":3030:3163  if (nftId == _id){... */\n      tag_135\n      jumpi\n        /* \"practise3.2/NFTMarket.sol\":3078:3085  NFTList */\n      0x03\n        /* \"practise3.2/NFTMarket.sol\":3090:3091  1 */\n      0x01\n        /* \"practise3.2/NFTMarket.sol\":3086:3089  len */\n      dup5\n        /* \"practise3.2/NFTMarket.sol\":3086:3091  len-1 */\n      tag_136\n      swap2\n      swap1\n      tag_117\n      jump\t// in\n    tag_136:\n        /* \"practise3.2/NFTMarket.sol\":3078:3092  NFTList[len-1] */\n      dup2\n      sload\n      dup2\n      lt\n      tag_137\n      jumpi\n      tag_138\n      tag_113\n      jump\t// in\n    tag_138:\n    tag_137:\n      swap1\n      0x00\n      mstore\n      keccak256(0x00, 0x20)\n      add\n      sload\n        /* \"practise3.2/NFTMarket.sol\":3065:3072  NFTList */\n      0x03\n        /* \"practise3.2/NFTMarket.sol\":3073:3074  i */\n      dup4\n        /* \"practise3.2/NFTMarket.sol\":3065:3075  NFTList[i] */\n      dup2\n      sload\n      dup2\n      lt\n      tag_140\n      jumpi\n      tag_141\n      tag_113\n      jump\t// in\n    tag_141:\n    tag_140:\n      swap1\n      0x00\n      mstore\n      keccak256(0x00, 0x20)\n      add\n        /* \"practise3.2/NFTMarket.sol\":3065:3092  NFTList[i] = NFTList[len-1] */\n      dup2\n      swap1\n      sstore\n      pop\n        /* \"practise3.2/NFTMarket.sol\":3110:3117  NFTList */\n      0x03\n        /* \"practise3.2/NFTMarket.sol\":3110:3123  NFTList.pop() */\n      dup1\n      sload\n      dup1\n      tag_143\n      jumpi\n      tag_144\n      tag_126\n      jump\t// in\n    tag_144:\n    tag_143:\n      0x01\n      swap1\n      sub\n      dup2\n      dup2\n      swap1\n      0x00\n      mstore\n      keccak256(0x00, 0x20)\n      add\n      0x00\n      swap1\n      sstore\n      swap1\n      sstore\n        /* \"practise3.2/NFTMarket.sol\":3141:3146  break */\n      pop\n      jump(tag_130)\n        /* \"practise3.2/NFTMarket.sol\":3030:3163  if (nftId == _id){... */\n    tag_135:\n        /* \"practise3.2/NFTMarket.sol\":2977:3174  {... */\n      pop\n        /* \"practise3.2/NFTMarket.sol\":2973:2976  i++ */\n      dup1\n      dup1\n      0x01\n      add\n      swap2\n      pop\n      pop\n        /* \"practise3.2/NFTMarket.sol\":2951:3174  for (uint i = 0;i<len;i++){... */\n      jump(tag_129)\n    tag_130:\n      pop\n        /* \"practise3.2/NFTMarket.sol\":2907:3180  {... */\n      pop\n        /* \"practise3.2/NFTMarket.sol\":2870:3180  function removeNFT(uint _id) private {... */\n      pop\n      jump\t// out\n        /* \"#utility.yul\":7:121   */\n    tag_146:\n        /* \"#utility.yul\":74:80   */\n      0x00\n        /* \"#utility.yul\":108:113   */\n      dup2\n        /* \"#utility.yul\":102:114   */\n      mload\n        /* \"#utility.yul\":92:114   */\n      swap1\n      pop\n        /* \"#utility.yul\":7:121   */\n      swap2\n      swap1\n      pop\n      jump\t// out\n        /* \"#utility.yul\":127:311   */\n    tag_147:\n        /* \"#utility.yul\":226:237   */\n      0x00\n        /* \"#utility.yul\":260:266   */\n      dup3\n        /* \"#utility.yul\":255:258   */\n      dup3\n        /* \"#utility.yul\":248:267   */\n      mstore\n        /* \"#utility.yul\":300:304   */\n      0x20\n        /* \"#utility.yul\":295:298   */\n      dup3\n        /* \"#utility.yul\":291:305   */\n      add\n        /* \"#utility.yul\":276:305   */\n      swap1\n      pop\n        /* \"#utility.yul\":127:311   */\n      swap3\n      swap2\n      pop\n      pop\n      jump\t// out\n        /* \"#utility.yul\":317:449   */\n    tag_148:\n        /* \"#utility.yul\":384:388   */\n      0x00\n        /* \"#utility.yul\":407:410   */\n      dup2\n        /* \"#utility.yul\":399:410   */\n      swap1\n      pop\n        /* \"#utility.yul\":437:441   */\n      0x20\n        /* \"#utility.yul\":432:435   */\n      dup3\n        /* \"#utility.yul\":428:442   */\n      add\n        /* \"#utility.yul\":420:442   */\n      swap1\n      pop\n        /* \"#utility.yul\":317:449   */\n      swap2\n      swap1\n      pop\n      jump\t// out\n        /* \"#utility.yul\":455:532   */\n    tag_149:\n        /* \"#utility.yul\":492:499   */\n      0x00\n        /* \"#utility.yul\":521:526   */\n      dup2\n        /* \"#utility.yul\":510:526   */\n      swap1\n      pop\n        /* \"#utility.yul\":455:532   */\n      swap2\n      swap1\n      pop\n      jump\t// out\n        /* \"#utility.yul\":538:646   */\n    tag_150:\n        /* \"#utility.yul\":615:639   */\n      tag_191\n        /* \"#utility.yul\":633:638   */\n      dup2\n        /* \"#utility.yul\":615:639   */\n      tag_149\n      jump\t// in\n    tag_191:\n        /* \"#utility.yul\":610:613   */\n      dup3\n        /* \"#utility.yul\":603:640   */\n      mstore\n        /* \"#utility.yul\":538:646   */\n      pop\n      pop\n      jump\t// out\n        /* \"#utility.yul\":652:831   */\n    tag_151:\n        /* \"#utility.yul\":721:731   */\n      0x00\n        /* \"#utility.yul\":742:788   */\n      tag_193\n        /* \"#utility.yul\":784:787   */\n      dup4\n        /* \"#utility.yul\":776:782   */\n      dup4\n        /* \"#utility.yul\":742:788   */\n      tag_150\n      jump\t// in\n    tag_193:\n        /* \"#utility.yul\":820:824   */\n      0x20\n        /* \"#utility.yul\":815:818   */\n      dup4\n        /* \"#utility.yul\":811:825   */\n      add\n        /* \"#utility.yul\":797:825   */\n      swap1\n      pop\n        /* \"#utility.yul\":652:831   */\n      swap3\n      swap2\n      pop\n      pop\n      jump\t// out\n        /* \"#utility.yul\":837:950   */\n    tag_152:\n        /* \"#utility.yul\":907:911   */\n      0x00\n        /* \"#utility.yul\":939:943   */\n      0x20\n        /* \"#utility.yul\":934:937   */\n      dup3\n        /* \"#utility.yul\":930:944   */\n      add\n        /* \"#utility.yul\":922:944   */\n      swap1\n      pop\n        /* \"#utility.yul\":837:950   */\n      swap2\n      swap1\n      pop\n      jump\t// out\n        /* \"#utility.yul\":986:1718   */\n    tag_153:\n        /* \"#utility.yul\":1105:1108   */\n      0x00\n        /* \"#utility.yul\":1134:1188   */\n      tag_196\n        /* \"#utility.yul\":1182:1187   */\n      dup3\n        /* \"#utility.yul\":1134:1188   */\n      tag_146\n      jump\t// in\n    tag_196:\n        /* \"#utility.yul\":1204:1290   */\n      tag_197\n        /* \"#utility.yul\":1283:1289   */\n      dup2\n        /* \"#utility.yul\":1278:1281   */\n      dup6\n        /* \"#utility.yul\":1204:1290   */\n      tag_147\n      jump\t// in\n    tag_197:\n        /* \"#utility.yul\":1197:1290   */\n      swap4\n      pop\n        /* \"#utility.yul\":1314:1370   */\n      tag_198\n        /* \"#utility.yul\":1364:1369   */\n      dup4\n        /* \"#utility.yul\":1314:1370   */\n      tag_148\n      jump\t// in\n    tag_198:\n        /* \"#utility.yul\":1393:1400   */\n      dup1\n        /* \"#utility.yul\":1424:1425   */\n      0x00\n        /* \"#utility.yul\":1409:1693   */\n    tag_199:\n        /* \"#utility.yul\":1434:1440   */\n      dup4\n        /* \"#utility.yul\":1431:1432   */\n      dup2\n        /* \"#utility.yul\":1428:1441   */\n      lt\n        /* \"#utility.yul\":1409:1693   */\n      iszero\n      tag_201\n      jumpi\n        /* \"#utility.yul\":1510:1516   */\n      dup2\n        /* \"#utility.yul\":1504:1517   */\n      mload\n        /* \"#utility.yul\":1537:1600   */\n      tag_202\n        /* \"#utility.yul\":1596:1599   */\n      dup9\n        /* \"#utility.yul\":1581:1594   */\n      dup3\n        /* \"#utility.yul\":1537:1600   */\n      tag_151\n      jump\t// in\n    tag_202:\n        /* \"#utility.yul\":1530:1600   */\n      swap8\n      pop\n        /* \"#utility.yul\":1623:1683   */\n      tag_203\n        /* \"#utility.yul\":1676:1682   */\n      dup4\n        /* \"#utility.yul\":1623:1683   */\n      tag_152\n      jump\t// in\n    tag_203:\n        /* \"#utility.yul\":1613:1683   */\n      swap3\n      pop\n        /* \"#utility.yul\":1469:1693   */\n      pop\n        /* \"#utility.yul\":1456:1457   */\n      0x01\n        /* \"#utility.yul\":1453:1454   */\n      dup2\n        /* \"#utility.yul\":1449:1458   */\n      add\n        /* \"#utility.yul\":1444:1458   */\n      swap1\n      pop\n        /* \"#utility.yul\":1409:1693   */\n      jump(tag_199)\n    tag_201:\n        /* \"#utility.yul\":1413:1427   */\n      pop\n        /* \"#utility.yul\":1709:1712   */\n      dup6\n        /* \"#utility.yul\":1702:1712   */\n      swap4\n      pop\n        /* \"#utility.yul\":1110:1718   */\n      pop\n      pop\n      pop\n        /* \"#utility.yul\":986:1718   */\n      swap3\n      swap2\n      pop\n      pop\n      jump\t// out\n        /* \"#utility.yul\":1724:2097   */\n    tag_15:\n        /* \"#utility.yul\":1867:1871   */\n      0x00\n        /* \"#utility.yul\":1905:1907   */\n      0x20\n        /* \"#utility.yul\":1894:1903   */\n      dup3\n        /* \"#utility.yul\":1890:1908   */\n      add\n        /* \"#utility.yul\":1882:1908   */\n      swap1\n      pop\n        /* \"#utility.yul\":1954:1963   */\n      dup2\n        /* \"#utility.yul\":1948:1952   */\n      dup2\n        /* \"#utility.yul\":1944:1964   */\n      sub\n        /* \"#utility.yul\":1940:1941   */\n      0x00\n        /* \"#utility.yul\":1929:1938   */\n      dup4\n        /* \"#utility.yul\":1925:1942   */\n      add\n        /* \"#utility.yul\":1918:1965   */\n      mstore\n        /* \"#utility.yul\":1982:2090   */\n      tag_205\n        /* \"#utility.yul\":2085:2089   */\n      dup2\n        /* \"#utility.yul\":2076:2082   */\n      dup5\n        /* \"#utility.yul\":1982:2090   */\n      tag_153\n      jump\t// in\n    tag_205:\n        /* \"#utility.yul\":1974:2090   */\n      swap1\n      pop\n        /* \"#utility.yul\":1724:2097   */\n      swap3\n      swap2\n      pop\n      pop\n      jump\t// out\n        /* \"#utility.yul\":2184:2301   */\n    tag_155:\n        /* \"#utility.yul\":2293:2294   */\n      0x00\n        /* \"#utility.yul\":2290:2291   */\n      dup1\n        /* \"#utility.yul\":2283:2295   */\n      revert\n        /* \"#utility.yul\":2430:2552   */\n    tag_157:\n        /* \"#utility.yul\":2503:2527   */\n      tag_210\n        /* \"#utility.yul\":2521:2526   */\n      dup2\n        /* \"#utility.yul\":2503:2527   */\n      tag_149\n      jump\t// in\n    tag_210:\n        /* \"#utility.yul\":2496:2501   */\n      dup2\n        /* \"#utility.yul\":2493:2528   */\n      eq\n        /* \"#utility.yul\":2483:2546   */\n      tag_211\n      jumpi\n        /* \"#utility.yul\":2542:2543   */\n      0x00\n        /* \"#utility.yul\":2539:2540   */\n      dup1\n        /* \"#utility.yul\":2532:2544   */\n      revert\n        /* \"#utility.yul\":2483:2546   */\n    tag_211:\n        /* \"#utility.yul\":2430:2552   */\n      pop\n      jump\t// out\n        /* \"#utility.yul\":2558:2697   */\n    tag_158:\n        /* \"#utility.yul\":2604:2609   */\n      0x00\n        /* \"#utility.yul\":2642:2648   */\n      dup2\n        /* \"#utility.yul\":2629:2649   */\n      calldataload\n        /* \"#utility.yul\":2620:2649   */\n      swap1\n      pop\n        /* \"#utility.yul\":2658:2691   */\n      tag_213\n        /* \"#utility.yul\":2685:2690   */\n      dup2\n        /* \"#utility.yul\":2658:2691   */\n      tag_157\n      jump\t// in\n    tag_213:\n        /* \"#utility.yul\":2558:2697   */\n      swap3\n      swap2\n      pop\n      pop\n      jump\t// out\n        /* \"#utility.yul\":2703:3032   */\n    tag_23:\n        /* \"#utility.yul\":2762:2768   */\n      0x00\n        /* \"#utility.yul\":2811:2813   */\n      0x20\n        /* \"#utility.yul\":2799:2808   */\n      dup3\n        /* \"#utility.yul\":2790:2797   */\n      dup5\n        /* \"#utility.yul\":2786:2809   */\n      sub\n        /* \"#utility.yul\":2782:2814   */\n      slt\n        /* \"#utility.yul\":2779:2898   */\n      iszero\n      tag_215\n      jumpi\n        /* \"#utility.yul\":2817:2896   */\n      tag_216\n      tag_155\n      jump\t// in\n    tag_216:\n        /* \"#utility.yul\":2779:2898   */\n    tag_215:\n        /* \"#utility.yul\":2937:2938   */\n      0x00\n        /* \"#utility.yul\":2962:3015   */\n      tag_217\n        /* \"#utility.yul\":3007:3014   */\n      dup5\n        /* \"#utility.yul\":2998:3004   */\n      dup3\n        /* \"#utility.yul\":2987:2996   */\n      dup6\n        /* \"#utility.yul\":2983:3005   */\n      add\n        /* \"#utility.yul\":2962:3015   */\n      tag_158\n      jump\t// in\n    tag_217:\n        /* \"#utility.yul\":2952:3015   */\n      swap2\n      pop\n        /* \"#utility.yul\":2908:3025   */\n      pop\n        /* \"#utility.yul\":2703:3032   */\n      swap3\n      swap2\n      pop\n      pop\n      jump\t// out\n        /* \"#utility.yul\":3038:3156   */\n    tag_159:\n        /* \"#utility.yul\":3125:3149   */\n      tag_219\n        /* \"#utility.yul\":3143:3148   */\n      dup2\n        /* \"#utility.yul\":3125:3149   */\n      tag_149\n      jump\t// in\n    tag_219:\n        /* \"#utility.yul\":3120:3123   */\n      dup3\n        /* \"#utility.yul\":3113:3150   */\n      mstore\n        /* \"#utility.yul\":3038:3156   */\n      pop\n      pop\n      jump\t// out\n        /* \"#utility.yul\":3162:3384   */\n    tag_26:\n        /* \"#utility.yul\":3255:3259   */\n      0x00\n        /* \"#utility.yul\":3293:3295   */\n      0x20\n        /* \"#utility.yul\":3282:3291   */\n      dup3\n        /* \"#utility.yul\":3278:3296   */\n      add\n        /* \"#utility.yul\":3270:3296   */\n      swap1\n      pop\n        /* \"#utility.yul\":3306:3377   */\n      tag_221\n        /* \"#utility.yul\":3374:3375   */\n      0x00\n        /* \"#utility.yul\":3363:3372   */\n      dup4\n        /* \"#utility.yul\":3359:3376   */\n      add\n        /* \"#utility.yul\":3350:3356   */\n      dup5\n        /* \"#utility.yul\":3306:3377   */\n      tag_159\n      jump\t// in\n    tag_221:\n        /* \"#utility.yul\":3162:3384   */\n      swap3\n      swap2\n      pop\n      pop\n      jump\t// out\n        /* \"#utility.yul\":3390:3480   */\n    tag_160:\n        /* \"#utility.yul\":3424:3431   */\n      0x00\n        /* \"#utility.yul\":3467:3472   */\n      dup2\n        /* \"#utility.yul\":3460:3473   */\n      iszero\n        /* \"#utility.yul\":3453:3474   */\n      iszero\n        /* \"#utility.yul\":3442:3474   */\n      swap1\n      pop\n        /* \"#utility.yul\":3390:3480   */\n      swap2\n      swap1\n      pop\n      jump\t// out\n        /* \"#utility.yul\":3486:3595   */\n    tag_161:\n        /* \"#utility.yul\":3567:3588   */\n      tag_224\n        /* \"#utility.yul\":3582:3587   */\n      dup2\n        /* \"#utility.yul\":3567:3588   */\n      tag_160\n      jump\t// in\n    tag_224:\n        /* \"#utility.yul\":3562:3565   */\n      dup3\n        /* \"#utility.yul\":3555:3589   */\n      mstore\n        /* \"#utility.yul\":3486:3595   */\n      pop\n      pop\n      jump\t// out\n        /* \"#utility.yul\":3601:3811   */\n    tag_32:\n        /* \"#utility.yul\":3688:3692   */\n      0x00\n        /* \"#utility.yul\":3726:3728   */\n      0x20\n        /* \"#utility.yul\":3715:3724   */\n      dup3\n        /* \"#utility.yul\":3711:3729   */\n      add\n        /* \"#utility.yul\":3703:3729   */\n      swap1\n      pop\n        /* \"#utility.yul\":3739:3804   */\n      tag_226\n        /* \"#utility.yul\":3801:3802   */\n      0x00\n        /* \"#utility.yul\":3790:3799   */\n      dup4\n        /* \"#utility.yul\":3786:3803   */\n      add\n        /* \"#utility.yul\":3777:3783   */\n      dup5\n        /* \"#utility.yul\":3739:3804   */\n      tag_161\n      jump\t// in\n    tag_226:\n        /* \"#utility.yul\":3601:3811   */\n      swap3\n      swap2\n      pop\n      pop\n      jump\t// out\n        /* \"#utility.yul\":3817:4291   */\n    tag_40:\n        /* \"#utility.yul\":3885:3891   */\n      0x00\n        /* \"#utility.yul\":3893:3899   */\n      dup1\n        /* \"#utility.yul\":3942:3944   */\n      0x40\n        /* \"#utility.yul\":3930:3939   */\n      dup4\n        /* \"#utility.yul\":3921:3928   */\n      dup6\n        /* \"#utility.yul\":3917:3940   */\n      sub\n        /* \"#utility.yul\":3913:3945   */\n      slt\n        /* \"#utility.yul\":3910:4029   */\n      iszero\n      tag_228\n      jumpi\n        /* \"#utility.yul\":3948:4027   */\n      tag_229\n      tag_155\n      jump\t// in\n    tag_229:\n        /* \"#utility.yul\":3910:4029   */\n    tag_228:\n        /* \"#utility.yul\":4068:4069   */\n      0x00\n        /* \"#utility.yul\":4093:4146   */\n      tag_230\n        /* \"#utility.yul\":4138:4145   */\n      dup6\n        /* \"#utility.yul\":4129:4135   */\n      dup3\n        /* \"#utility.yul\":4118:4127   */\n      dup7\n        /* \"#utility.yul\":4114:4136   */\n      add\n        /* \"#utility.yul\":4093:4146   */\n      tag_158\n      jump\t// in\n    tag_230:\n        /* \"#utility.yul\":4083:4146   */\n      swap3\n      pop\n        /* \"#utility.yul\":4039:4156   */\n      pop\n        /* \"#utility.yul\":4195:4197   */\n      0x20\n        /* \"#utility.yul\":4221:4274   */\n      tag_231\n        /* \"#utility.yul\":4266:4273   */\n      dup6\n        /* \"#utility.yul\":4257:4263   */\n      dup3\n        /* \"#utility.yul\":4246:4255   */\n      dup7\n        /* \"#utility.yul\":4242:4264   */\n      add\n        /* \"#utility.yul\":4221:4274   */\n      tag_158\n      jump\t// in\n    tag_231:\n        /* \"#utility.yul\":4211:4274   */\n      swap2\n      pop\n        /* \"#utility.yul\":4166:4284   */\n      pop\n        /* \"#utility.yul\":3817:4291   */\n      swap3\n      pop\n      swap3\n      swap1\n      pop\n      jump\t// out\n        /* \"#utility.yul\":4297:4466   */\n    tag_162:\n        /* \"#utility.yul\":4381:4392   */\n      0x00\n        /* \"#utility.yul\":4415:4421   */\n      dup3\n        /* \"#utility.yul\":4410:4413   */\n      dup3\n        /* \"#utility.yul\":4403:4422   */\n      mstore\n        /* \"#utility.yul\":4455:4459   */\n      0x20\n        /* \"#utility.yul\":4450:4453   */\n      dup3\n        /* \"#utility.yul\":4446:4460   */\n      add\n        /* \"#utility.yul\":4431:4460   */\n      swap1\n      pop\n        /* \"#utility.yul\":4297:4466   */\n      swap3\n      swap2\n      pop\n      pop\n      jump\t// out\n        /* \"#utility.yul\":4472:4635   */\n    tag_163:\n        /* \"#utility.yul\":4612:4627   */\n      0x4e6f7420746865206f776e657200000000000000000000000000000000000000\n        /* \"#utility.yul\":4608:4609   */\n      0x00\n        /* \"#utility.yul\":4600:4606   */\n      dup3\n        /* \"#utility.yul\":4596:4610   */\n      add\n        /* \"#utility.yul\":4589:4628   */\n      mstore\n        /* \"#utility.yul\":4472:4635   */\n      pop\n      jump\t// out\n        /* \"#utility.yul\":4641:5007   */\n    tag_164:\n        /* \"#utility.yul\":4783:4786   */\n      0x00\n        /* \"#utility.yul\":4804:4871   */\n      tag_235\n        /* \"#utility.yul\":4868:4870   */\n      0x0d\n        /* \"#utility.yul\":4863:4866   */\n      dup4\n        /* \"#utility.yul\":4804:4871   */\n      tag_162\n      jump\t// in\n    tag_235:\n        /* \"#utility.yul\":4797:4871   */\n      swap2\n      pop\n        /* \"#utility.yul\":4880:4973   */\n      tag_236\n        /* \"#utility.yul\":4969:4972   */\n      dup3\n        /* \"#utility.yul\":4880:4973   */\n      tag_163\n      jump\t// in\n    tag_236:\n        /* \"#utility.yul\":4998:5000   */\n      0x20\n        /* \"#utility.yul\":4993:4996   */\n      dup3\n        /* \"#utility.yul\":4989:5001   */\n      add\n        /* \"#utility.yul\":4982:5001   */\n      swap1\n      pop\n        /* \"#utility.yul\":4641:5007   */\n      swap2\n      swap1\n      pop\n      jump\t// out\n        /* \"#utility.yul\":5013:5432   */\n    tag_62:\n        /* \"#utility.yul\":5179:5183   */\n      0x00\n        /* \"#utility.yul\":5217:5219   */\n      0x20\n        /* \"#utility.yul\":5206:5215   */\n      dup3\n        /* \"#utility.yul\":5202:5220   */\n      add\n        /* \"#utility.yul\":5194:5220   */\n      swap1\n      pop\n        /* \"#utility.yul\":5266:5275   */\n      dup2\n        /* \"#utility.yul\":5260:5264   */\n      dup2\n        /* \"#utility.yul\":5256:5276   */\n      sub\n        /* \"#utility.yul\":5252:5253   */\n      0x00\n        /* \"#utility.yul\":5241:5250   */\n      dup4\n        /* \"#utility.yul\":5237:5254   */\n      add\n        /* \"#utility.yul\":5230:5277   */\n      mstore\n        /* \"#utility.yul\":5294:5425   */\n      tag_238\n        /* \"#utility.yul\":5420:5424   */\n      dup2\n        /* \"#utility.yul\":5294:5425   */\n      tag_164\n      jump\t// in\n    tag_238:\n        /* \"#utility.yul\":5286:5425   */\n      swap1\n      pop\n        /* \"#utility.yul\":5013:5432   */\n      swap2\n      swap1\n      pop\n      jump\t// out\n        /* \"#utility.yul\":5438:5618   */\n    tag_165:\n        /* \"#utility.yul\":5578:5610   */\n      0x546865204e465420697320616c7265616479206f7574206f662073616c650000\n        /* \"#utility.yul\":5574:5575   */\n      0x00\n        /* \"#utility.yul\":5566:5572   */\n      dup3\n        /* \"#utility.yul\":5562:5576   */\n      add\n        /* \"#utility.yul\":5555:5611   */\n      mstore\n        /* \"#utility.yul\":5438:5618   */\n      pop\n      jump\t// out\n        /* \"#utility.yul\":5624:5990   */\n    tag_166:\n        /* \"#utility.yul\":5766:5769   */\n      0x00\n        /* \"#utility.yul\":5787:5854   */\n      tag_241\n        /* \"#utility.yul\":5851:5853   */\n      0x1e\n        /* \"#utility.yul\":5846:5849   */\n      dup4\n        /* \"#utility.yul\":5787:5854   */\n      tag_162\n      jump\t// in\n    tag_241:\n        /* \"#utility.yul\":5780:5854   */\n      swap2\n      pop\n        /* \"#utility.yul\":5863:5956   */\n      tag_242\n        /* \"#utility.yul\":5952:5955   */\n      dup3\n        /* \"#utility.yul\":5863:5956   */\n      tag_165\n      jump\t// in\n    tag_242:\n        /* \"#utility.yul\":5981:5983   */\n      0x20\n        /* \"#utility.yul\":5976:5979   */\n      dup3\n        /* \"#utility.yul\":5972:5984   */\n      add\n        /* \"#utility.yul\":5965:5984   */\n      swap1\n      pop\n        /* \"#utility.yul\":5624:5990   */\n      swap2\n      swap1\n      pop\n      jump\t// out\n        /* \"#utility.yul\":5996:6415   */\n    tag_65:\n        /* \"#utility.yul\":6162:6166   */\n      0x00\n        /* \"#utility.yul\":6200:6202   */\n      0x20\n        /* \"#utility.yul\":6189:6198   */\n      dup3\n        /* \"#utility.yul\":6185:6203   */\n      add\n        /* \"#utility.yul\":6177:6203   */\n      swap1\n      pop\n        /* \"#utility.yul\":6249:6258   */\n      dup2\n        /* \"#utility.yul\":6243:6247   */\n      dup2\n        /* \"#utility.yul\":6239:6259   */\n      sub\n        /* \"#utility.yul\":6235:6236   */\n      0x00\n        /* \"#utility.yul\":6224:6233   */\n      dup4\n        /* \"#utility.yul\":6220:6237   */\n      add\n        /* \"#utility.yul\":6213:6260   */\n      mstore\n        /* \"#utility.yul\":6277:6408   */\n      tag_244\n        /* \"#utility.yul\":6403:6407   */\n      dup2\n        /* \"#utility.yul\":6277:6408   */\n      tag_166\n      jump\t// in\n    tag_244:\n        /* \"#utility.yul\":6269:6408   */\n      swap1\n      pop\n        /* \"#utility.yul\":5996:6415   */\n      swap2\n      swap1\n      pop\n      jump\t// out\n        /* \"#utility.yul\":6421:6601   */\n    tag_167:\n        /* \"#utility.yul\":6469:6546   */\n      0x4e487b7100000000000000000000000000000000000000000000000000000000\n        /* \"#utility.yul\":6466:6467   */\n      0x00\n        /* \"#utility.yul\":6459:6547   */\n      mstore\n        /* \"#utility.yul\":6566:6570   */\n      0x11\n        /* \"#utility.yul\":6563:6564   */\n      0x04\n        /* \"#utility.yul\":6556:6571   */\n      mstore\n        /* \"#utility.yul\":6590:6594   */\n      0x24\n        /* \"#utility.yul\":6587:6588   */\n      0x00\n        /* \"#utility.yul\":6580:6595   */\n      revert\n        /* \"#utility.yul\":6607:6840   */\n    tag_71:\n        /* \"#utility.yul\":6646:6649   */\n      0x00\n        /* \"#utility.yul\":6669:6693   */\n      tag_247\n        /* \"#utility.yul\":6687:6692   */\n      dup3\n        /* \"#utility.yul\":6669:6693   */\n      tag_149\n      jump\t// in\n    tag_247:\n        /* \"#utility.yul\":6660:6693   */\n      swap2\n      pop\n        /* \"#utility.yul\":6715:6781   */\n      0xffffffffffffffffffffffffffffffffffffffffffffffffffffffffffffffff\n        /* \"#utility.yul\":6708:6713   */\n      dup3\n        /* \"#utility.yul\":6705:6782   */\n      sub\n        /* \"#utility.yul\":6702:6805   */\n      tag_248\n      jumpi\n        /* \"#utility.yul\":6785:6803   */\n      tag_249\n      tag_167\n      jump\t// in\n    tag_249:\n        /* \"#utility.yul\":6702:6805   */\n    tag_248:\n        /* \"#utility.yul\":6832:6833   */\n      0x01\n        /* \"#utility.yul\":6825:6830   */\n      dup3\n        /* \"#utility.yul\":6821:6834   */\n      add\n        /* \"#utility.yul\":6814:6834   */\n      swap1\n      pop\n        /* \"#utility.yul\":6607:6840   */\n      swap2\n      swap1\n      pop\n      jump\t// out\n        /* \"#utility.yul\":6846:7022   */\n    tag_168:\n        /* \"#utility.yul\":6986:7014   */\n      0x546865204e465420697320616c7265616479206f6e2073616c65000000000000\n        /* \"#utility.yul\":6982:6983   */\n      0x00\n        /* \"#utility.yul\":6974:6980   */\n      dup3\n        /* \"#utility.yul\":6970:6984   */\n      add\n        /* \"#utility.yul\":6963:7015   */\n      mstore\n        /* \"#utility.yul\":6846:7022   */\n      pop\n      jump\t// out\n        /* \"#utility.yul\":7028:7394   */\n    tag_169:\n        /* \"#utility.yul\":7170:7173   */\n      0x00\n        /* \"#utility.yul\":7191:7258   */\n      tag_252\n        /* \"#utility.yul\":7255:7257   */\n      0x1a\n        /* \"#utility.yul\":7250:7253   */\n      dup4\n        /* \"#utility.yul\":7191:7258   */\n      tag_162\n      jump\t// in\n    tag_252:\n        /* \"#utility.yul\":7184:7258   */\n      swap2\n      pop\n        /* \"#utility.yul\":7267:7360   */\n      tag_253\n        /* \"#utility.yul\":7356:7359   */\n      dup3\n        /* \"#utility.yul\":7267:7360   */\n      tag_168\n      jump\t// in\n    tag_253:\n        /* \"#utility.yul\":7385:7387   */\n      0x20\n        /* \"#utility.yul\":7380:7383   */\n      dup3\n        /* \"#utility.yul\":7376:7388   */\n      add\n        /* \"#utility.yul\":7369:7388   */\n      swap1\n      pop\n        /* \"#utility.yul\":7028:7394   */\n      swap2\n      swap1\n      pop\n      jump\t// out\n        /* \"#utility.yul\":7400:7819   */\n    tag_77:\n        /* \"#utility.yul\":7566:7570   */\n      0x00\n        /* \"#utility.yul\":7604:7606   */\n      0x20\n        /* \"#utility.yul\":7593:7602   */\n      dup3\n        /* \"#utility.yul\":7589:7607   */\n      add\n        /* \"#utility.yul\":7581:7607   */\n      swap1\n      pop\n        /* \"#utility.yul\":7653:7662   */\n      dup2\n        /* \"#utility.yul\":7647:7651   */\n      dup2\n        /* \"#utility.yul\":7643:7663   */\n      sub\n        /* \"#utility.yul\":7639:7640   */\n      0x00\n        /* \"#utility.yul\":7628:7637   */\n      dup4\n        /* \"#utility.yul\":7624:7641   */\n      add\n        /* \"#utility.yul\":7617:7664   */\n      mstore\n        /* \"#utility.yul\":7681:7812   */\n      tag_255\n        /* \"#utility.yul\":7807:7811   */\n      dup2\n        /* \"#utility.yul\":7681:7812   */\n      tag_169\n      jump\t// in\n    tag_255:\n        /* \"#utility.yul\":7673:7812   */\n      swap1\n      pop\n        /* \"#utility.yul\":7400:7819   */\n      swap2\n      swap1\n      pop\n      jump\t// out\n        /* \"#utility.yul\":7825:8000   */\n    tag_170:\n        /* \"#utility.yul\":7965:7992   */\n      0x7072696365206d7573742047726561746572207468616e203000000000000000\n        /* \"#utility.yul\":7961:7962   */\n      0x00\n        /* \"#utility.yul\":7953:7959   */\n      dup3\n        /* \"#utility.yul\":7949:7963   */\n      add\n        /* \"#utility.yul\":7942:7993   */\n      mstore\n        /* \"#utility.yul\":7825:8000   */\n      pop\n      jump\t// out\n        /* \"#utility.yul\":8006:8372   */\n    tag_171:\n        /* \"#utility.yul\":8148:8151   */\n      0x00\n        /* \"#utility.yul\":8169:8236   */\n      tag_258\n        /* \"#utility.yul\":8233:8235   */\n      0x19\n        /* \"#utility.yul\":8228:8231   */\n      dup4\n        /* \"#utility.yul\":8169:8236   */\n      tag_162\n      jump\t// in\n    tag_258:\n        /* \"#utility.yul\":8162:8236   */\n      swap2\n      pop\n        /* \"#utility.yul\":8245:8338   */\n      tag_259\n        /* \"#utility.yul\":8334:8337   */\n      dup3\n        /* \"#utility.yul\":8245:8338   */\n      tag_170\n      jump\t// in\n    tag_259:\n        /* \"#utility.yul\":8363:8365   */\n      0x20\n        /* \"#utility.yul\":8358:8361   */\n      dup3\n        /* \"#utility.yul\":8354:8366   */\n      add\n        /* \"#utility.yul\":8347:8366   */\n      swap1\n      pop\n        /* \"#utility.yul\":8006:8372   */\n      swap2\n      swap1\n      pop\n      jump\t// out\n        /* \"#utility.yul\":8378:8797   */\n    tag_80:\n        /* \"#utility.yul\":8544:8548   */\n      0x00\n        /* \"#utility.yul\":8582:8584   */\n      0x20\n        /* \"#utility.yul\":8571:8580   */\n      dup3\n        /* \"#utility.yul\":8567:8585   */\n      add\n        /* \"#utility.yul\":8559:8585   */\n      swap1\n      pop\n        /* \"#utility.yul\":8631:8640   */\n      dup2\n        /* \"#utility.yul\":8625:8629   */\n      dup2\n        /* \"#utility.yul\":8621:8641   */\n      sub\n        /* \"#utility.yul\":8617:8618   */\n      0x00\n        /* \"#utility.yul\":8606:8615   */\n      dup4\n        /* \"#utility.yul\":8602:8619   */\n      add\n        /* \"#utility.yul\":8595:8642   */\n      mstore\n        /* \"#utility.yul\":8659:8790   */\n      tag_261\n        /* \"#utility.yul\":8785:8789   */\n      dup2\n        /* \"#utility.yul\":8659:8790   */\n      tag_171\n      jump\t// in\n    tag_261:\n        /* \"#utility.yul\":8651:8790   */\n      swap1\n      pop\n        /* \"#utility.yul\":8378:8797   */\n      swap2\n      swap1\n      pop\n      jump\t// out\n        /* \"#utility.yul\":8803:8971   */\n    tag_172:\n        /* \"#utility.yul\":8943:8963   */\n      0x4e465420646f6573206e6f742065786973740000000000000000000000000000\n        /* \"#utility.yul\":8939:8940   */\n      0x00\n        /* \"#utility.yul\":8931:8937   */\n      dup3\n        /* \"#utility.yul\":8927:8941   */\n      add\n        /* \"#utility.yul\":8920:8964   */\n      mstore\n        /* \"#utility.yul\":8803:8971   */\n      pop\n      jump\t// out\n        /* \"#utility.yul\":8977:9343   */\n    tag_173:\n        /* \"#utility.yul\":9119:9122   */\n      0x00\n        /* \"#utility.yul\":9140:9207   */\n      tag_264\n        /* \"#utility.yul\":9204:9206   */\n      0x12\n        /* \"#utility.yul\":9199:9202   */\n      dup4\n        /* \"#utility.yul\":9140:9207   */\n      tag_162\n      jump\t// in\n    tag_264:\n        /* \"#utility.yul\":9133:9207   */\n      swap2\n      pop\n        /* \"#utility.yul\":9216:9309   */\n      tag_265\n        /* \"#utility.yul\":9305:9308   */\n      dup3\n        /* \"#utility.yul\":9216:9309   */\n      tag_172\n      jump\t// in\n    tag_265:\n        /* \"#utility.yul\":9334:9336   */\n      0x20\n        /* \"#utility.yul\":9329:9332   */\n      dup3\n        /* \"#utility.yul\":9325:9337   */\n      add\n        /* \"#utility.yul\":9318:9337   */\n      swap1\n      pop\n        /* \"#utility.yul\":8977:9343   */\n      swap2\n      swap1\n      pop\n      jump\t// out\n        /* \"#utility.yul\":9349:9768   */\n    tag_87:\n        /* \"#utility.yul\":9515:9519   */\n      0x00\n        /* \"#utility.yul\":9553:9555   */\n      0x20\n        /* \"#utility.yul\":9542:9551   */\n      dup3\n        /* \"#utility.yul\":9538:9556   */\n      add\n        /* \"#utility.yul\":9530:9556   */\n      swap1\n      pop\n        /* \"#utility.yul\":9602:9611   */\n      dup2\n        /* \"#utility.yul\":9596:9600   */\n      dup2\n        /* \"#utility.yul\":9592:9612   */\n      sub\n        /* \"#utility.yul\":9588:9589   */\n      0x00\n        /* \"#utility.yul\":9577:9586   */\n      dup4\n        /* \"#utility.yul\":9573:9590   */\n      add\n        /* \"#utility.yul\":9566:9613   */\n      mstore\n        /* \"#utility.yul\":9630:9761   */\n      tag_267\n        /* \"#utility.yul\":9756:9760   */\n      dup2\n        /* \"#utility.yul\":9630:9761   */\n      tag_173\n      jump\t// in\n    tag_267:\n        /* \"#utility.yul\":9622:9761   */\n      swap1\n      pop\n        /* \"#utility.yul\":9349:9768   */\n      swap2\n      swap1\n      pop\n      jump\t// out\n        /* \"#utility.yul\":9774:9943   */\n    tag_174:\n        /* \"#utility.yul\":9914:9935   */\n      0x4e4654206973206e6f7420666f722073616c6500000000000000000000000000\n        /* \"#utility.yul\":9910:9911   */\n      0x00\n        /* \"#utility.yul\":9902:9908   */\n      dup3\n        /* \"#utility.yul\":9898:9912   */\n      add\n        /* \"#utility.yul\":9891:9936   */\n      mstore\n        /* \"#utility.yul\":9774:9943   */\n      pop\n      jump\t// out\n        /* \"#utility.yul\":9949:10315   */\n    tag_175:\n        /* \"#utility.yul\":10091:10094   */\n      0x00\n        /* \"#utility.yul\":10112:10179   */\n      tag_270\n        /* \"#utility.yul\":10176:10178   */\n      0x13\n        /* \"#utility.yul\":10171:10174   */\n      dup4\n        /* \"#utility.yul\":10112:10179   */\n      tag_162\n      jump\t// in\n    tag_270:\n        /* \"#utility.yul\":10105:10179   */\n      swap2\n      pop\n        /* \"#utility.yul\":10188:10281   */\n      tag_271\n        /* \"#utility.yul\":10277:10280   */\n      dup3\n        /* \"#utility.yul\":10188:10281   */\n      tag_174\n      jump\t// in\n    tag_271:\n        /* \"#utility.yul\":10306:10308   */\n      0x20\n        /* \"#utility.yul\":10301:10304   */\n      dup3\n        /* \"#utility.yul\":10297:10309   */\n      add\n        /* \"#utility.yul\":10290:10309   */\n      swap1\n      pop\n        /* \"#utility.yul\":9949:10315   */\n      swap2\n      swap1\n      pop\n      jump\t// out\n        /* \"#utility.yul\":10321:10740   */\n    tag_90:\n        /* \"#utility.yul\":10487:10491   */\n      0x00\n        /* \"#utility.yul\":10525:10527   */\n      0x20\n        /* \"#utility.yul\":10514:10523   */\n      dup3\n        /* \"#utility.yul\":10510:10528   */\n      add\n        /* \"#utility.yul\":10502:10528   */\n      swap1\n      pop\n        /* \"#utility.yul\":10574:10583   */\n      dup2\n        /* \"#utility.yul\":10568:10572   */\n      dup2\n        /* \"#utility.yul\":10564:10584   */\n      sub\n        /* \"#utility.yul\":10560:10561   */\n      0x00\n        /* \"#utility.yul\":10549:10558   */\n      dup4\n        /* \"#utility.yul\":10545:10562   */\n      add\n        /* \"#utility.yul\":10538:10585   */\n      mstore\n        /* \"#utility.yul\":10602:10733   */\n      tag_273\n        /* \"#utility.yul\":10728:10732   */\n      dup2\n        /* \"#utility.yul\":10602:10733   */\n      tag_175\n      jump\t// in\n    tag_273:\n        /* \"#utility.yul\":10594:10733   */\n      swap1\n      pop\n        /* \"#utility.yul\":10321:10740   */\n      swap2\n      swap1\n      pop\n      jump\t// out\n        /* \"#utility.yul\":10746:10919   */\n    tag_176:\n        /* \"#utility.yul\":10886:10911   */\n      0x43616e6e6f742062757920796f7572206f776e204e4654000000000000000000\n        /* \"#utility.yul\":10882:10883   */\n      0x00\n        /* \"#utility.yul\":10874:10880   */\n      dup3\n        /* \"#utility.yul\":10870:10884   */\n      add\n        /* \"#utility.yul\":10863:10912   */\n      mstore\n        /* \"#utility.yul\":10746:10919   */\n      pop\n      jump\t// out\n        /* \"#utility.yul\":10925:11291   */\n    tag_177:\n        /* \"#utility.yul\":11067:11070   */\n      0x00\n        /* \"#utility.yul\":11088:11155   */\n      tag_276\n        /* \"#utility.yul\":11152:11154   */\n      0x17\n        /* \"#utility.yul\":11147:11150   */\n      dup4\n        /* \"#utility.yul\":11088:11155   */\n      tag_162\n      jump\t// in\n    tag_276:\n        /* \"#utility.yul\":11081:11155   */\n      swap2\n      pop\n        /* \"#utility.yul\":11164:11257   */\n      tag_277\n        /* \"#utility.yul\":11253:11256   */\n      dup3\n        /* \"#utility.yul\":11164:11257   */\n      tag_176\n      jump\t// in\n    tag_277:\n        /* \"#utility.yul\":11282:11284   */\n      0x20\n        /* \"#utility.yul\":11277:11280   */\n      dup3\n        /* \"#utility.yul\":11273:11285   */\n      add\n        /* \"#utility.yul\":11266:11285   */\n      swap1\n      pop\n        /* \"#utility.yul\":10925:11291   */\n      swap2\n      swap1\n      pop\n      jump\t// out\n        /* \"#utility.yul\":11297:11716   */\n    tag_93:\n        /* \"#utility.yul\":11463:11467   */\n      0x00\n        /* \"#utility.yul\":11501:11503   */\n      0x20\n        /* \"#utility.yul\":11490:11499   */\n      dup3\n        /* \"#utility.yul\":11486:11504   */\n      add\n        /* \"#utility.yul\":11478:11504   */\n      swap1\n      pop\n        /* \"#utility.yul\":11550:11559   */\n      dup2\n        /* \"#utility.yul\":11544:11548   */\n      dup2\n        /* \"#utility.yul\":11540:11560   */\n      sub\n        /* \"#utility.yul\":11536:11537   */\n      0x00\n        /* \"#utility.yul\":11525:11534   */\n      dup4\n        /* \"#utility.yul\":11521:11538   */\n      add\n        /* \"#utility.yul\":11514:11561   */\n      mstore\n        /* \"#utility.yul\":11578:11709   */\n      tag_279\n        /* \"#utility.yul\":11704:11708   */\n      dup2\n        /* \"#utility.yul\":11578:11709   */\n      tag_177\n      jump\t// in\n    tag_279:\n        /* \"#utility.yul\":11570:11709   */\n      swap1\n      pop\n        /* \"#utility.yul\":11297:11716   */\n      swap2\n      swap1\n      pop\n      jump\t// out\n        /* \"#utility.yul\":11722:11896   */\n    tag_178:\n        /* \"#utility.yul\":11862:11888   */\n      0x496e636f7272656374207061796d656e7420616d6f756e740000000000000000\n        /* \"#utility.yul\":11858:11859   */\n      0x00\n        /* \"#utility.yul\":11850:11856   */\n      dup3\n        /* \"#utility.yul\":11846:11860   */\n      add\n        /* \"#utility.yul\":11839:11889   */\n      mstore\n        /* \"#utility.yul\":11722:11896   */\n      pop\n      jump\t// out\n        /* \"#utility.yul\":11902:12268   */\n    tag_179:\n        /* \"#utility.yul\":12044:12047   */\n      0x00\n        /* \"#utility.yul\":12065:12132   */\n      tag_282\n        /* \"#utility.yul\":12129:12131   */\n      0x18\n        /* \"#utility.yul\":12124:12127   */\n      dup4\n        /* \"#utility.yul\":12065:12132   */\n      tag_162\n      jump\t// in\n    tag_282:\n        /* \"#utility.yul\":12058:12132   */\n      swap2\n      pop\n        /* \"#utility.yul\":12141:12234   */\n      tag_283\n        /* \"#utility.yul\":12230:12233   */\n      dup3\n        /* \"#utility.yul\":12141:12234   */\n      tag_178\n      jump\t// in\n    tag_283:\n        /* \"#utility.yul\":12259:12261   */\n      0x20\n        /* \"#utility.yul\":12254:12257   */\n      dup3\n        /* \"#utility.yul\":12250:12262   */\n      add\n        /* \"#utility.yul\":12243:12262   */\n      swap1\n      pop\n        /* \"#utility.yul\":11902:12268   */\n      swap2\n      swap1\n      pop\n      jump\t// out\n        /* \"#utility.yul\":12274:12693   */\n    tag_96:\n        /* \"#utility.yul\":12440:12444   */\n      0x00\n        /* \"#utility.yul\":12478:12480   */\n      0x20\n        /* \"#utility.yul\":12467:12476   */\n      dup3\n        /* \"#utility.yul\":12463:12481   */\n      add\n        /* \"#utility.yul\":12455:12481   */\n      swap1\n      pop\n        /* \"#utility.yul\":12527:12536   */\n      dup2\n        /* \"#utility.yul\":12521:12525   */\n      dup2\n        /* \"#utility.yul\":12517:12537   */\n      sub\n        /* \"#utility.yul\":12513:12514   */\n      0x00\n        /* \"#utility.yul\":12502:12511   */\n      dup4\n        /* \"#utility.yul\":12498:12515   */\n      add\n        /* \"#utility.yul\":12491:12538   */\n      mstore\n        /* \"#utility.yul\":12555:12686   */\n      tag_285\n        /* \"#utility.yul\":12681:12685   */\n      dup2\n        /* \"#utility.yul\":12555:12686   */\n      tag_179\n      jump\t// in\n    tag_285:\n        /* \"#utility.yul\":12547:12686   */\n      swap1\n      pop\n        /* \"#utility.yul\":12274:12693   */\n      swap2\n      swap1\n      pop\n      jump\t// out\n        /* \"#utility.yul\":12699:12865   */\n    tag_180:\n        /* \"#utility.yul\":12839:12857   */\n      0x5061796d656e7420726571756972656400000000000000000000000000000000\n        /* \"#utility.yul\":12835:12836   */\n      0x00\n        /* \"#utility.yul\":12827:12833   */\n      dup3\n        /* \"#utility.yul\":12823:12837   */\n      add\n        /* \"#utility.yul\":12816:12858   */\n      mstore\n        /* \"#utility.yul\":12699:12865   */\n      pop\n      jump\t// out\n        /* \"#utility.yul\":12871:13237   */\n    tag_181:\n        /* \"#utility.yul\":13013:13016   */\n      0x00\n        /* \"#utility.yul\":13034:13101   */\n      tag_288\n        /* \"#utility.yul\":13098:13100   */\n      0x10\n        /* \"#utility.yul\":13093:13096   */\n      dup4\n        /* \"#utility.yul\":13034:13101   */\n      tag_162\n      jump\t// in\n    tag_288:\n        /* \"#utility.yul\":13027:13101   */\n      swap2\n      pop\n        /* \"#utility.yul\":13110:13203   */\n      tag_289\n        /* \"#utility.yul\":13199:13202   */\n      dup3\n        /* \"#utility.yul\":13110:13203   */\n      tag_180\n      jump\t// in\n    tag_289:\n        /* \"#utility.yul\":13228:13230   */\n      0x20\n        /* \"#utility.yul\":13223:13226   */\n      dup3\n        /* \"#utility.yul\":13219:13231   */\n      add\n        /* \"#utility.yul\":13212:13231   */\n      swap1\n      pop\n        /* \"#utility.yul\":12871:13237   */\n      swap2\n      swap1\n      pop\n      jump\t// out\n        /* \"#utility.yul\":13243:13662   */\n    tag_99:\n        /* \"#utility.yul\":13409:13413   */\n      0x00\n        /* \"#utility.yul\":13447:13449   */\n      0x20\n        /* \"#utility.yul\":13436:13445   */\n      dup3\n        /* \"#utility.yul\":13432:13450   */\n      add\n        /* \"#utility.yul\":13424:13450   */\n      swap1\n      pop\n        /* \"#utility.yul\":13496:13505   */\n      dup2\n        /* \"#utility.yul\":13490:13494   */\n      dup2\n        /* \"#utility.yul\":13486:13506   */\n      sub\n        /* \"#utility.yul\":13482:13483   */\n      0x00\n        /* \"#utility.yul\":13471:13480   */\n      dup4\n        /* \"#utility.yul\":13467:13484   */\n      add\n        /* \"#utility.yul\":13460:13507   */\n      mstore\n        /* \"#utility.yul\":13524:13655   */\n      tag_291\n        /* \"#utility.yul\":13650:13654   */\n      dup2\n        /* \"#utility.yul\":13524:13655   */\n      tag_181\n      jump\t// in\n    tag_291:\n        /* \"#utility.yul\":13516:13655   */\n      swap1\n      pop\n        /* \"#utility.yul\":13243:13662   */\n      swap2\n      swap1\n      pop\n      jump\t// out\n        /* \"#utility.yul\":13668:13794   */\n    tag_182:\n        /* \"#utility.yul\":13705:13712   */\n      0x00\n        /* \"#utility.yul\":13745:13787   */\n      0xffffffffffffffffffffffffffffffffffffffff\n        /* \"#utility.yul\":13738:13743   */\n      dup3\n        /* \"#utility.yul\":13734:13788   */\n      and\n        /* \"#utility.yul\":13723:13788   */\n      swap1\n      pop\n        /* \"#utility.yul\":13668:13794   */\n      swap2\n      swap1\n      pop\n      jump\t// out\n        /* \"#utility.yul\":13800:13896   */\n    tag_183:\n        /* \"#utility.yul\":13837:13844   */\n      0x00\n        /* \"#utility.yul\":13866:13890   */\n      tag_294\n        /* \"#utility.yul\":13884:13889   */\n      dup3\n        /* \"#utility.yul\":13866:13890   */\n      tag_182\n      jump\t// in\n    tag_294:\n        /* \"#utility.yul\":13855:13890   */\n      swap1\n      pop\n        /* \"#utility.yul\":13800:13896   */\n      swap2\n      swap1\n      pop\n      jump\t// out\n        /* \"#utility.yul\":13902:14020   */\n    tag_184:\n        /* \"#utility.yul\":13989:14013   */\n      tag_296\n        /* \"#utility.yul\":14007:14012   */\n      dup2\n        /* \"#utility.yul\":13989:14013   */\n      tag_183\n      jump\t// in\n    tag_296:\n        /* \"#utility.yul\":13984:13987   */\n      dup3\n        /* \"#utility.yul\":13977:14014   */\n      mstore\n        /* \"#utility.yul\":13902:14020   */\n      pop\n      pop\n      jump\t// out\n        /* \"#utility.yul\":14026:14579   */\n    tag_106:\n        /* \"#utility.yul\":14203:14207   */\n      0x00\n        /* \"#utility.yul\":14241:14244   */\n      0x80\n        /* \"#utility.yul\":14230:14239   */\n      dup3\n        /* \"#utility.yul\":14226:14245   */\n      add\n        /* \"#utility.yul\":14218:14245   */\n      swap1\n      pop\n        /* \"#utility.yul\":14255:14326   */\n      tag_298\n        /* \"#utility.yul\":14323:14324   */\n      0x00\n        /* \"#utility.yul\":14312:14321   */\n      dup4\n        /* \"#utility.yul\":14308:14325   */\n      add\n        /* \"#utility.yul\":14299:14305   */\n      dup8\n        /* \"#utility.yul\":14255:14326   */\n      tag_159\n      jump\t// in\n    tag_298:\n        /* \"#utility.yul\":14336:14408   */\n      tag_299\n        /* \"#utility.yul\":14404:14406   */\n      0x20\n        /* \"#utility.yul\":14393:14402   */\n      dup4\n        /* \"#utility.yul\":14389:14407   */\n      add\n        /* \"#utility.yul\":14380:14386   */\n      dup7\n        /* \"#utility.yul\":14336:14408   */\n      tag_184\n      jump\t// in\n    tag_299:\n        /* \"#utility.yul\":14418:14490   */\n      tag_300\n        /* \"#utility.yul\":14486:14488   */\n      0x40\n        /* \"#utility.yul\":14475:14484   */\n      dup4\n        /* \"#utility.yul\":14471:14489   */\n      add\n        /* \"#utility.yul\":14462:14468   */\n      dup6\n        /* \"#utility.yul\":14418:14490   */\n      tag_184\n      jump\t// in\n    tag_300:\n        /* \"#utility.yul\":14500:14572   */\n      tag_301\n        /* \"#utility.yul\":14568:14570   */\n      0x60\n        /* \"#utility.yul\":14557:14566   */\n      dup4\n        /* \"#utility.yul\":14553:14571   */\n      add\n        /* \"#utility.yul\":14544:14550   */\n      dup5\n        /* \"#utility.yul\":14500:14572   */\n      tag_159\n      jump\t// in\n    tag_301:\n        /* \"#utility.yul\":14026:14579   */\n      swap6\n      swap5\n      pop\n      pop\n      pop\n      pop\n      pop\n      jump\t// out\n        /* \"#utility.yul\":14585:14765   */\n    tag_113:\n        /* \"#utility.yul\":14633:14710   */\n      0x4e487b7100000000000000000000000000000000000000000000000000000000\n        /* \"#utility.yul\":14630:14631   */\n      0x00\n        /* \"#utility.yul\":14623:14711   */\n      mstore\n        /* \"#utility.yul\":14730:14734   */\n      0x32\n        /* \"#utility.yul\":14727:14728   */\n      0x04\n        /* \"#utility.yul\":14720:14735   */\n      mstore\n        /* \"#utility.yul\":14754:14758   */\n      0x24\n        /* \"#utility.yul\":14751:14752   */\n      0x00\n        /* \"#utility.yul\":14744:14759   */\n      revert\n        /* \"#utility.yul\":14771:14965   */\n    tag_117:\n        /* \"#utility.yul\":14811:14815   */\n      0x00\n        /* \"#utility.yul\":14831:14851   */\n      tag_304\n        /* \"#utility.yul\":14849:14850   */\n      dup3\n        /* \"#utility.yul\":14831:14851   */\n      tag_149\n      jump\t// in\n    tag_304:\n        /* \"#utility.yul\":14826:14851   */\n      swap2\n      pop\n        /* \"#utility.yul\":14865:14885   */\n      tag_305\n        /* \"#utility.yul\":14883:14884   */\n      dup4\n        /* \"#utility.yul\":14865:14885   */\n      tag_149\n      jump\t// in\n    tag_305:\n        /* \"#utility.yul\":14860:14885   */\n      swap3\n      pop\n        /* \"#utility.yul\":14909:14910   */\n      dup3\n        /* \"#utility.yul\":14906:14907   */\n      dup3\n        /* \"#utility.yul\":14902:14911   */\n      sub\n        /* \"#utility.yul\":14894:14911   */\n      swap1\n      pop\n        /* \"#utility.yul\":14933:14934   */\n      dup2\n        /* \"#utility.yul\":14927:14931   */\n      dup2\n        /* \"#utility.yul\":14924:14935   */\n      gt\n        /* \"#utility.yul\":14921:14958   */\n      iszero\n      tag_306\n      jumpi\n        /* \"#utility.yul\":14938:14956   */\n      tag_307\n      tag_167\n      jump\t// in\n    tag_307:\n        /* \"#utility.yul\":14921:14958   */\n    tag_306:\n        /* \"#utility.yul\":14771:14965   */\n      swap3\n      swap2\n      pop\n      pop\n      jump\t// out\n        /* \"#utility.yul\":14971:15151   */\n    tag_126:\n        /* \"#utility.yul\":15019:15096   */\n      0x4e487b7100000000000000000000000000000000000000000000000000000000\n        /* \"#utility.yul\":15016:15017   */\n      0x00\n        /* \"#utility.yul\":15009:15097   */\n      mstore\n        /* \"#utility.yul\":15116:15120   */\n      0x31\n        /* \"#utility.yul\":15113:15114   */\n      0x04\n        /* \"#utility.yul\":15106:15121   */\n      mstore\n        /* \"#utility.yul\":15140:15144   */\n      0x24\n        /* \"#utility.yul\":15137:15138   */\n      0x00\n        /* \"#utility.yul\":15130:15145   */\n      revert\n\n    auxdata: 0xa26469706673582212206a6cf63220c07198f09e8fc7a37c531e6dd55ee25bf4af200031b83ae18f8dd464736f6c634300081e0033\n}\n",
				"bytecode": {
					"linkReferences": {},
					"object": "608060405260008055348015601357600080fd5b50611492806100236000396000f3fe60806040526004361061007b5760003560e01c80638a97ec2a1161004e5780638a97ec2a1461015057806394383f141461017b578063a7d18a49146101b8578063d58955fe146101f55761007b565b806311429b38146100805780631ad905d0146100ab578063549dcd48146100d6578063686b418514610113575b600080fd5b34801561008c57600080fd5b50610095610211565b6040516100a29190610dd0565b60405180910390f35b3480156100b757600080fd5b506100c0610269565b6040516100cd9190610dd0565b60405180910390f35b3480156100e257600080fd5b506100fd60048036038101906100f89190610e23565b6102c1565b60405161010a9190610e5f565b60405180910390f35b34801561011f57600080fd5b5061013a60048036038101906101359190610e23565b6102e5565b6040516101479190610e95565b60405180910390f35b34801561015c57600080fd5b506101656104a3565b6040516101729190610e5f565b60405180910390f35b34801561018757600080fd5b506101a2600480360381019061019d9190610eb0565b6105be565b6040516101af9190610e95565b60405180910390f35b3480156101c457600080fd5b506101df60048036038101906101da9190610e23565b6107dc565b6040516101ec9190610e5f565b60405180910390f35b61020f600480360381019061020a9190610e23565b610800565b005b6060600380548060200260200160405190810160405280929190818152602001828054801561025f57602002820191906000526020600020905b81548152602001906001019080831161024b575b5050505050905090565b606060028054806020026020016040519081016040528092919081815260200182805480156102b757602002820191906000526020600020905b8154815260200190600101908083116102a3575b5050505050905090565b600281815481106102d157600080fd5b906000526020600020016000915090505481565b60003373ffffffffffffffffffffffffffffffffffffffff166001600084815260200190815260200160002060010160009054906101000a900473ffffffffffffffffffffffffffffffffffffffff1673ffffffffffffffffffffffffffffffffffffffff161461038b576040517f08c379a000000000000000000000000000000000000000000000000000000000815260040161038290610f4d565b60405180910390fd5b600180600084815260200190815260200160002060030160006101000a81548160ff02191690831515021790556103f7576040517f08c379a00000000000000000000000000000000000000000000000000000000081526004016103ee90610fb9565b60405180910390fd5b6000600160008481526020019081526020016000206002018190555060006001600084815260200190815260200160002060030160006101000a81548160ff02191690831515021790555061044b82610b6e565b817f285464ff9aa8af359d45dbd9e10f177f43ac65c59fc330536d63d04128cfbea960405160405180910390a26001600083815260200190815260200160002060030160009054906101000a900460ff169050919050565b600080600054905060405180608001604052808281526020013373ffffffffffffffffffffffffffffffffffffffff1681526020016000815260200160001515815250600160008381526020019081526020016000206000820151816000015560208201518160010160006101000a81548173ffffffffffffffffffffffffffffffffffffffff021916908373ffffffffffffffffffffffffffffffffffffffff1602179055506040820151816002015560608201518160030160006101000a81548160ff02191690831515021790555090505060038190806001815401808255809150506001900390600052602060002001600090919091909150556000808154809291906105b290611008565b91905055508091505090565b60003373ffffffffffffffffffffffffffffffffffffffff166001600085815260200190815260200160002060010160009054906101000a900473ffffffffffffffffffffffffffffffffffffffff1673ffffffffffffffffffffffffffffffffffffffff1614610664576040517f08c379a000000000000000000000000000000000000000000000000000000000815260040161065b90610f4d565b60405180910390fd5b600015156001600085815260200190815260200160002060030160009054906101000a900460ff161515146106ce576040517f08c379a00000000000000000000000000000000000000000000000000000000081526004016106c59061109c565b60405180910390fd5b60008211610711576040517f08c379a000000000000000000000000000000000000000000000000000000000815260040161070890611108565b60405180910390fd5b816001600085815260200190815260200160002060020181905550600180600085815260200190815260200160002060030160006101000a81548160ff0219169083151502179055506002839080600181540180825580915050600190039060005260206000200160009091909190915055827f285464ff9aa8af359d45dbd9e10f177f43ac65c59fc330536d63d04128cfbea960405160405180910390a26001600084815260200190815260200160002060030160009054906101000a900460ff16905092915050565b600381815481106107ec57600080fd5b906000526020600020016000915090505481565b6000600160008381526020019081526020016000209050600073ffffffffffffffffffffffffffffffffffffffff168160010160009054906101000a900473ffffffffffffffffffffffffffffffffffffffff1673ffffffffffffffffffffffffffffffffffffffff16036108aa576040517f08c379a00000000000000000000000000000000000000000000000000000000081526004016108a190611174565b60405180910390fd5b8060030160009054906101000a900460ff166108fb576040517f08c379a00000000000000000000000000000000000000000000000000000000081526004016108f2906111e0565b60405180910390fd5b8060010160009054906101000a900473ffffffffffffffffffffffffffffffffffffffff1673ffffffffffffffffffffffffffffffffffffffff163373ffffffffffffffffffffffffffffffffffffffff160361098d576040517f08c379a00000000000000000000000000000000000000000000000000000000081526004016109849061124c565b60405180910390fd5b806002015434146109d3576040517f08c379a00000000000000000000000000000000000000000000000000000000081526004016109ca906112b8565b60405180910390fd5b60003411610a16576040517f08c379a0000000000000000000000000000000000000000000000000000000008152600401610a0d90611324565b60405180910390fd5b338160010160006101000a81548173ffffffffffffffffffffffffffffffffffffffff021916908373ffffffffffffffffffffffffffffffffffffffff1602179055506000816002018190555060008160030160006101000a81548160ff021916908315150217905550610a8d8160000154610b6e565b610a9a8160000154610c3b565b8060010160009054906101000a900473ffffffffffffffffffffffffffffffffffffffff1673ffffffffffffffffffffffffffffffffffffffff166108fc349081150290604051600060405180830381858888f19350505050158015610b04573d6000803e3d6000fd5b507f0cfcb43c3d7c1f005485a76a4a0ac731c77dc9a3e3cf386c02cf4dd9e10ec9d682338360010160009054906101000a900473ffffffffffffffffffffffffffffffffffffffff168460020154604051610b629493929190611385565b60405180910390a15050565b6000600280549050905060005b81811015610c3657600060028281548110610b9957610b986113ca565b5b90600052602060002001549050838103610c28576002600184610bbc91906113f9565b81548110610bcd57610bcc6113ca565b5b906000526020600020015460028381548110610bec57610beb6113ca565b5b90600052602060002001819055506002805480610c0c57610c0b61142d565b5b6001900381819060005260206000200160009055905550610c36565b508080600101915050610b7b565b505050565b6000600380549050905060005b81811015610d0357600060038281548110610c6657610c656113ca565b5b90600052602060002001549050838103610cf5576003600184610c8991906113f9565b81548110610c9a57610c996113ca565b5b906000526020600020015460038381548110610cb957610cb86113ca565b5b90600052602060002001819055506003805480610cd957610cd861142d565b5b6001900381819060005260206000200160009055905550610d03565b508080600101915050610c48565b505050565b600081519050919050565b600082825260208201905092915050565b6000819050602082019050919050565b6000819050919050565b610d4781610d34565b82525050565b6000610d598383610d3e565b60208301905092915050565b6000602082019050919050565b6000610d7d82610d08565b610d878185610d13565b9350610d9283610d24565b8060005b83811015610dc3578151610daa8882610d4d565b9750610db583610d65565b925050600181019050610d96565b5085935050505092915050565b60006020820190508181036000830152610dea8184610d72565b905092915050565b600080fd5b610e0081610d34565b8114610e0b57600080fd5b50565b600081359050610e1d81610df7565b92915050565b600060208284031215610e3957610e38610df2565b5b6000610e4784828501610e0e565b91505092915050565b610e5981610d34565b82525050565b6000602082019050610e746000830184610e50565b92915050565b60008115159050919050565b610e8f81610e7a565b82525050565b6000602082019050610eaa6000830184610e86565b92915050565b60008060408385031215610ec757610ec6610df2565b5b6000610ed585828601610e0e565b9250506020610ee685828601610e0e565b9150509250929050565b600082825260208201905092915050565b7f4e6f7420746865206f776e657200000000000000000000000000000000000000600082015250565b6000610f37600d83610ef0565b9150610f4282610f01565b602082019050919050565b60006020820190508181036000830152610f6681610f2a565b9050919050565b7f546865204e465420697320616c7265616479206f7574206f662073616c650000600082015250565b6000610fa3601e83610ef0565b9150610fae82610f6d565b602082019050919050565b60006020820190508181036000830152610fd281610f96565b9050919050565b7f4e487b7100000000000000000000000000000000000000000000000000000000600052601160045260246000fd5b600061101382610d34565b91507fffffffffffffffffffffffffffffffffffffffffffffffffffffffffffffffff820361104557611044610fd9565b5b600182019050919050565b7f546865204e465420697320616c7265616479206f6e2073616c65000000000000600082015250565b6000611086601a83610ef0565b915061109182611050565b602082019050919050565b600060208201905081810360008301526110b581611079565b9050919050565b7f7072696365206d7573742047726561746572207468616e203000000000000000600082015250565b60006110f2601983610ef0565b91506110fd826110bc565b602082019050919050565b60006020820190508181036000830152611121816110e5565b9050919050565b7f4e465420646f6573206e6f742065786973740000000000000000000000000000600082015250565b600061115e601283610ef0565b915061116982611128565b602082019050919050565b6000602082019050818103600083015261118d81611151565b9050919050565b7f4e4654206973206e6f7420666f722073616c6500000000000000000000000000600082015250565b60006111ca601383610ef0565b91506111d582611194565b602082019050919050565b600060208201905081810360008301526111f9816111bd565b9050919050565b7f43616e6e6f742062757920796f7572206f776e204e4654000000000000000000600082015250565b6000611236601783610ef0565b915061124182611200565b602082019050919050565b6000602082019050818103600083015261126581611229565b9050919050565b7f496e636f7272656374207061796d656e7420616d6f756e740000000000000000600082015250565b60006112a2601883610ef0565b91506112ad8261126c565b602082019050919050565b600060208201905081810360008301526112d181611295565b9050919050565b7f5061796d656e7420726571756972656400000000000000000000000000000000600082015250565b600061130e601083610ef0565b9150611319826112d8565b602082019050919050565b6000602082019050818103600083015261133d81611301565b9050919050565b600073ffffffffffffffffffffffffffffffffffffffff82169050919050565b600061136f82611344565b9050919050565b61137f81611364565b82525050565b600060808201905061139a6000830187610e50565b6113a76020830186611376565b6113b46040830185611376565b6113c16060830184610e50565b95945050505050565b7f4e487b7100000000000000000000000000000000000000000000000000000000600052603260045260246000fd5b600061140482610d34565b915061140f83610d34565b925082820390508181111561142757611426610fd9565b5b92915050565b7f4e487b7100000000000000000000000000000000000000000000000000000000600052603160045260246000fdfea26469706673582212206a6cf63220c07198f09e8fc7a37c531e6dd55ee25bf4af200031b83ae18f8dd464736f6c634300081e0033",
					"opcodes": "PUSH1 0x80 PUSH1 0x40 MSTORE PUSH1 0x0 DUP1 SSTORE CALLVALUE DUP1 ISZERO PUSH1 0x13 JUMPI PUSH1 0x0 DUP1 REVERT JUMPDEST POP PUSH2 0x1492 DUP1 PUSH2 0x23 PUSH1 0x0 CODECOPY PUSH1 0x0 RETURN INVALID PUSH1 0x80 PUSH1 0x40 MSTORE PUSH1 0x4 CALLDATASIZE LT PUSH2 0x7B JUMPI PUSH1 0x0 CALLDATALOAD PUSH1 0xE0 SHR DUP1 PUSH4 0x8A97EC2A GT PUSH2 0x4E JUMPI DUP1 PUSH4 0x8A97EC2A EQ PUSH2 0x150 JUMPI DUP1 PUSH4 0x94383F14 EQ PUSH2 0x17B JUMPI DUP1 PUSH4 0xA7D18A49 EQ PUSH2 0x1B8 JUMPI DUP1 PUSH4 0xD58955FE EQ PUSH2 0x1F5 JUMPI PUSH2 0x7B JUMP JUMPDEST DUP1 PUSH4 0x11429B38 EQ PUSH2 0x80 JUMPI DUP1 PUSH4 0x1AD905D0 EQ PUSH2 0xAB JUMPI DUP1 PUSH4 0x549DCD48 EQ PUSH2 0xD6 JUMPI DUP1 PUSH4 0x686B4185 EQ PUSH2 0x113 JUMPI JUMPDEST PUSH1 0x0 DUP1 REVERT JUMPDEST CALLVALUE DUP1 ISZERO PUSH2 0x8C JUMPI PUSH1 0x0 DUP1 REVERT JUMPDEST POP PUSH2 0x95 PUSH2 0x211 JUMP JUMPDEST PUSH1 0x40 MLOAD PUSH2 0xA2 SWAP2 SWAP1 PUSH2 0xDD0 JUMP JUMPDEST PUSH1 0x40 MLOAD DUP1 SWAP2 SUB SWAP1 RETURN JUMPDEST CALLVALUE DUP1 ISZERO PUSH2 0xB7 JUMPI PUSH1 0x0 DUP1 REVERT JUMPDEST POP PUSH2 0xC0 PUSH2 0x269 JUMP JUMPDEST PUSH1 0x40 MLOAD PUSH2 0xCD SWAP2 SWAP1 PUSH2 0xDD0 JUMP JUMPDEST PUSH1 0x40 MLOAD DUP1 SWAP2 SUB SWAP1 RETURN JUMPDEST CALLVALUE DUP1 ISZERO PUSH2 0xE2 JUMPI PUSH1 0x0 DUP1 REVERT JUMPDEST POP PUSH2 0xFD PUSH1 0x4 DUP1 CALLDATASIZE SUB DUP2 ADD SWAP1 PUSH2 0xF8 SWAP2 SWAP1 PUSH2 0xE23 JUMP JUMPDEST PUSH2 0x2C1 JUMP JUMPDEST PUSH1 0x40 MLOAD PUSH2 0x10A SWAP2 SWAP1 PUSH2 0xE5F JUMP JUMPDEST PUSH1 0x40 MLOAD DUP1 SWAP2 SUB SWAP1 RETURN JUMPDEST CALLVALUE DUP1 ISZERO PUSH2 0x11F JUMPI PUSH1 0x0 DUP1 REVERT JUMPDEST POP PUSH2 0x13A PUSH1 0x4 DUP1 CALLDATASIZE SUB DUP2 ADD SWAP1 PUSH2 0x135 SWAP2 SWAP1 PUSH2 0xE23 JUMP JUMPDEST PUSH2 0x2E5 JUMP JUMPDEST PUSH1 0x40 MLOAD PUSH2 0x147 SWAP2 SWAP1 PUSH2 0xE95 JUMP JUMPDEST PUSH1 0x40 MLOAD DUP1 SWAP2 SUB SWAP1 RETURN JUMPDEST CALLVALUE DUP1 ISZERO PUSH2 0x15C JUMPI PUSH1 0x0 DUP1 REVERT JUMPDEST POP PUSH2 0x165 PUSH2 0x4A3 JUMP JUMPDEST PUSH1 0x40 MLOAD PUSH2 0x172 SWAP2 SWAP1 PUSH2 0xE5F JUMP JUMPDEST PUSH1 0x40 MLOAD DUP1 SWAP2 SUB SWAP1 RETURN JUMPDEST CALLVALUE DUP1 ISZERO PUSH2 0x187 JUMPI PUSH1 0x0 DUP1 REVERT JUMPDEST POP PUSH2 0x1A2 PUSH1 0x4 DUP1 CALLDATASIZE SUB DUP2 ADD SWAP1 PUSH2 0x19D SWAP2 SWAP1 PUSH2 0xEB0 JUMP JUMPDEST PUSH2 0x5BE JUMP JUMPDEST PUSH1 0x40 MLOAD PUSH2 0x1AF SWAP2 SWAP1 PUSH2 0xE95 JUMP JUMPDEST PUSH1 0x40 MLOAD DUP1 SWAP2 SUB SWAP1 RETURN JUMPDEST CALLVALUE DUP1 ISZERO PUSH2 0x1C4 JUMPI PUSH1 0x0 DUP1 REVERT JUMPDEST POP PUSH2 0x1DF PUSH1 0x4 DUP1 CALLDATASIZE SUB DUP2 ADD SWAP1 PUSH2 0x1DA SWAP2 SWAP1 PUSH2 0xE23 JUMP JUMPDEST PUSH2 0x7DC JUMP JUMPDEST PUSH1 0x40 MLOAD PUSH2 0x1EC SWAP2 SWAP1 PUSH2 0xE5F JUMP JUMPDEST PUSH1 0x40 MLOAD DUP1 SWAP2 SUB SWAP1 RETURN JUMPDEST PUSH2 0x20F PUSH1 0x4 DUP1 CALLDATASIZE SUB DUP2 ADD SWAP1 PUSH2 0x20A SWAP2 SWAP1 PUSH2 0xE23 JUMP JUMPDEST PUSH2 0x800 JUMP JUMPDEST STOP JUMPDEST PUSH1 0x60 PUSH1 0x3 DUP1 SLOAD DUP1 PUSH1 0x20 MUL PUSH1 0x20 ADD PUSH1 0x40 MLOAD SWAP1 DUP2 ADD PUSH1 0x40 MSTORE DUP1 SWAP3 SWAP2 SWAP1 DUP2 DUP2 MSTORE PUSH1 0x20 ADD DUP3 DUP1 SLOAD DUP1 ISZERO PUSH2 0x25F JUMPI PUSH1 0x20 MUL DUP3 ADD SWAP2 SWAP1 PUSH1 0x0 MSTORE PUSH1 0x20 PUSH1 0x0 KECCAK256 SWAP1 JUMPDEST DUP2 SLOAD DUP2 MSTORE PUSH1 0x20 ADD SWAP1 PUSH1 0x1 ADD SWAP1 DUP1 DUP4 GT PUSH2 0x24B JUMPI JUMPDEST POP POP POP POP POP SWAP1 POP SWAP1 JUMP JUMPDEST PUSH1 0x60 PUSH1 0x2 DUP1 SLOAD DUP1 PUSH1 0x20 MUL PUSH1 0x20 ADD PUSH1 0x40 MLOAD SWAP1 DUP2 ADD PUSH1 0x40 MSTORE DUP1 SWAP3 SWAP2 SWAP1 DUP2 DUP2 MSTORE PUSH1 0x20 ADD DUP3 DUP1 SLOAD DUP1 ISZERO PUSH2 0x2B7 JUMPI PUSH1 0x20 MUL DUP3 ADD SWAP2 SWAP1 PUSH1 0x0 MSTORE PUSH1 0x20 PUSH1 0x0 KECCAK256 SWAP1 JUMPDEST DUP2 SLOAD DUP2 MSTORE PUSH1 0x20 ADD SWAP1 PUSH1 0x1 ADD SWAP1 DUP1 DUP4 GT PUSH2 0x2A3 JUMPI JUMPDEST POP POP POP POP POP SWAP1 POP SWAP1 JUMP JUMPDEST PUSH1 0x2 DUP2 DUP2 SLOAD DUP2 LT PUSH2 0x2D1 JUMPI PUSH1 0x0 DUP1 REVERT JUMPDEST SWAP1 PUSH1 0x0 MSTORE PUSH1 0x20 PUSH1 0x0 KECCAK256 ADD PUSH1 0x0 SWAP2 POP SWAP1 POP SLOAD DUP2 JUMP JUMPDEST PUSH1 0x0 CALLER PUSH20 0xFFFFFFFFFFFFFFFFFFFFFFFFFFFFFFFFFFFFFFFF AND PUSH1 0x1 PUSH1 0x0 DUP5 DUP2 MSTORE PUSH1 0x20 ADD SWAP1 DUP2 MSTORE PUSH1 0x20 ADD PUSH1 0x0 KECCAK256 PUSH1 0x1 ADD PUSH1 0x0 SWAP1 SLOAD SWAP1 PUSH2 0x100 EXP SWAP1 DIV PUSH20 0xFFFFFFFFFFFFFFFFFFFFFFFFFFFFFFFFFFFFFFFF AND PUSH20 0xFFFFFFFFFFFFFFFFFFFFFFFFFFFFFFFFFFFFFFFF AND EQ PUSH2 0x38B JUMPI PUSH1 0x40 MLOAD PUSH32 0x8C379A000000000000000000000000000000000000000000000000000000000 DUP2 MSTORE PUSH1 0x4 ADD PUSH2 0x382 SWAP1 PUSH2 0xF4D JUMP JUMPDEST PUSH1 0x40 MLOAD DUP1 SWAP2 SUB SWAP1 REVERT JUMPDEST PUSH1 0x1 DUP1 PUSH1 0x0 DUP5 DUP2 MSTORE PUSH1 0x20 ADD SWAP1 DUP2 MSTORE PUSH1 0x20 ADD PUSH1 0x0 KECCAK256 PUSH1 0x3 ADD PUSH1 0x0 PUSH2 0x100 EXP DUP2 SLOAD DUP2 PUSH1 0xFF MUL NOT AND SWAP1 DUP4 ISZERO ISZERO MUL OR SWAP1 SSTORE PUSH2 0x3F7 JUMPI PUSH1 0x40 MLOAD PUSH32 0x8C379A000000000000000000000000000000000000000000000000000000000 DUP2 MSTORE PUSH1 0x4 ADD PUSH2 0x3EE SWAP1 PUSH2 0xFB9 JUMP JUMPDEST PUSH1 0x40 MLOAD DUP1 SWAP2 SUB SWAP1 REVERT JUMPDEST PUSH1 0x0 PUSH1 0x1 PUSH1 0x0 DUP5 DUP2 MSTORE PUSH1 0x20 ADD SWAP1 DUP2 MSTORE PUSH1 0x20 ADD PUSH1 0x0 KECCAK256 PUSH1 0x2 ADD DUP2 SWAP1 SSTORE POP PUSH1 0x0 PUSH1 0x1 PUSH1 0x0 DUP5 DUP2 MSTORE PUSH1 0x20 ADD SWAP1 DUP2 MSTORE PUSH1 0x20 ADD PUSH1 0x0 KECCAK256 PUSH1 0x3 ADD PUSH1 0x0 PUSH2 0x100 EXP DUP2 SLOAD DUP2 PUSH1 0xFF MUL NOT AND SWAP1 DUP4 ISZERO ISZERO MUL OR SWAP1 SSTORE POP PUSH2 0x44B DUP3 PUSH2 0xB6E JUMP JUMPDEST DUP2 PUSH32 0x285464FF9AA8AF359D45DBD9E10F177F43AC65C59FC330536D63D04128CFBEA9 PUSH1 0x40 MLOAD PUSH1 0x40 MLOAD DUP1 SWAP2 SUB SWAP1 LOG2 PUSH1 0x1 PUSH1 0x0 DUP4 DUP2 MSTORE PUSH1 0x20 ADD SWAP1 DUP2 MSTORE PUSH1 0x20 ADD PUSH1 0x0 KECCAK256 PUSH1 0x3 ADD PUSH1 0x0 SWAP1 SLOAD SWAP1 PUSH2 0x100 EXP SWAP1 DIV PUSH1 0xFF AND SWAP1 POP SWAP2 SWAP1 POP JUMP JUMPDEST PUSH1 0x0 DUP1 PUSH1 0x0 SLOAD SWAP1 POP PUSH1 0x40 MLOAD DUP1 PUSH1 0x80 ADD PUSH1 0x40 MSTORE DUP1 DUP3 DUP2 MSTORE PUSH1 0x20 ADD CALLER PUSH20 0xFFFFFFFFFFFFFFFFFFFFFFFFFFFFFFFFFFFFFFFF AND DUP2 MSTORE PUSH1 0x20 ADD PUSH1 0x0 DUP2 MSTORE PUSH1 0x20 ADD PUSH1 0x0 ISZERO ISZERO DUP2 MSTORE POP PUSH1 0x1 PUSH1 0x0 DUP4 DUP2 MSTORE PUSH1 0x20 ADD SWAP1 DUP2 MSTORE PUSH1 0x20 ADD PUSH1 0x0 KECCAK256 PUSH1 0x0 DUP3 ADD MLOAD DUP2 PUSH1 0x0 ADD SSTORE PUSH1 0x20 DUP3 ADD MLOAD DUP2 PUSH1 0x1 ADD PUSH1 0x0 PUSH2 0x100 EXP DUP2 SLOAD DUP2 PUSH20 0xFFFFFFFFFFFFFFFFFFFFFFFFFFFFFFFFFFFFFFFF MUL NOT AND SWAP1 DUP4 PUSH20 0xFFFFFFFFFFFFFFFFFFFFFFFFFFFFFFFFFFFFFFFF AND MUL OR SWAP1 SSTORE POP PUSH1 0x40 DUP3 ADD MLOAD DUP2 PUSH1 0x2 ADD SSTORE PUSH1 0x60 DUP3 ADD MLOAD DUP2 PUSH1 0x3 ADD PUSH1 0x0 PUSH2 0x100 EXP DUP2 SLOAD DUP2 PUSH1 0xFF MUL NOT AND SWAP1 DUP4 ISZERO ISZERO MUL OR SWAP1 SSTORE POP SWAP1 POP POP PUSH1 0x3 DUP2 SWAP1 DUP1 PUSH1 0x1 DUP2 SLOAD ADD DUP1 DUP3 SSTORE DUP1 SWAP2 POP POP PUSH1 0x1 SWAP1 SUB SWAP1 PUSH1 0x0 MSTORE PUSH1 0x20 PUSH1 0x0 KECCAK256 ADD PUSH1 0x0 SWAP1 SWAP2 SWAP1 SWAP2 SWAP1 SWAP2 POP SSTORE PUSH1 0x0 DUP1 DUP2 SLOAD DUP1 SWAP3 SWAP2 SWAP1 PUSH2 0x5B2 SWAP1 PUSH2 0x1008 JUMP JUMPDEST SWAP2 SWAP1 POP SSTORE POP DUP1 SWAP2 POP POP SWAP1 JUMP JUMPDEST PUSH1 0x0 CALLER PUSH20 0xFFFFFFFFFFFFFFFFFFFFFFFFFFFFFFFFFFFFFFFF AND PUSH1 0x1 PUSH1 0x0 DUP6 DUP2 MSTORE PUSH1 0x20 ADD SWAP1 DUP2 MSTORE PUSH1 0x20 ADD PUSH1 0x0 KECCAK256 PUSH1 0x1 ADD PUSH1 0x0 SWAP1 SLOAD SWAP1 PUSH2 0x100 EXP SWAP1 DIV PUSH20 0xFFFFFFFFFFFFFFFFFFFFFFFFFFFFFFFFFFFFFFFF AND PUSH20 0xFFFFFFFFFFFFFFFFFFFFFFFFFFFFFFFFFFFFFFFF AND EQ PUSH2 0x664 JUMPI PUSH1 0x40 MLOAD PUSH32 0x8C379A000000000000000000000000000000000000000000000000000000000 DUP2 MSTORE PUSH1 0x4 ADD PUSH2 0x65B SWAP1 PUSH2 0xF4D JUMP JUMPDEST PUSH1 0x40 MLOAD DUP1 SWAP2 SUB SWAP1 REVERT JUMPDEST PUSH1 0x0 ISZERO ISZERO PUSH1 0x1 PUSH1 0x0 DUP6 DUP2 MSTORE PUSH1 0x20 ADD SWAP1 DUP2 MSTORE PUSH1 0x20 ADD PUSH1 0x0 KECCAK256 PUSH1 0x3 ADD PUSH1 0x0 SWAP1 SLOAD SWAP1 PUSH2 0x100 EXP SWAP1 DIV PUSH1 0xFF AND ISZERO ISZERO EQ PUSH2 0x6CE JUMPI PUSH1 0x40 MLOAD PUSH32 0x8C379A000000000000000000000000000000000000000000000000000000000 DUP2 MSTORE PUSH1 0x4 ADD PUSH2 0x6C5 SWAP1 PUSH2 0x109C JUMP JUMPDEST PUSH1 0x40 MLOAD DUP1 SWAP2 SUB SWAP1 REVERT JUMPDEST PUSH1 0x0 DUP3 GT PUSH2 0x711 JUMPI PUSH1 0x40 MLOAD PUSH32 0x8C379A000000000000000000000000000000000000000000000000000000000 DUP2 MSTORE PUSH1 0x4 ADD PUSH2 0x708 SWAP1 PUSH2 0x1108 JUMP JUMPDEST PUSH1 0x40 MLOAD DUP1 SWAP2 SUB SWAP1 REVERT JUMPDEST DUP2 PUSH1 0x1 PUSH1 0x0 DUP6 DUP2 MSTORE PUSH1 0x20 ADD SWAP1 DUP2 MSTORE PUSH1 0x20 ADD PUSH1 0x0 KECCAK256 PUSH1 0x2 ADD DUP2 SWAP1 SSTORE POP PUSH1 0x1 DUP1 PUSH1 0x0 DUP6 DUP2 MSTORE PUSH1 0x20 ADD SWAP1 DUP2 MSTORE PUSH1 0x20 ADD PUSH1 0x0 KECCAK256 PUSH1 0x3 ADD PUSH1 0x0 PUSH2 0x100 EXP DUP2 SLOAD DUP2 PUSH1 0xFF MUL NOT AND SWAP1 DUP4 ISZERO ISZERO MUL OR SWAP1 SSTORE POP PUSH1 0x2 DUP4 SWAP1 DUP1 PUSH1 0x1 DUP2 SLOAD ADD DUP1 DUP3 SSTORE DUP1 SWAP2 POP POP PUSH1 0x1 SWAP1 SUB SWAP1 PUSH1 0x0 MSTORE PUSH1 0x20 PUSH1 0x0 KECCAK256 ADD PUSH1 0x0 SWAP1 SWAP2 SWAP1 SWAP2 SWAP1 SWAP2 POP SSTORE DUP3 PUSH32 0x285464FF9AA8AF359D45DBD9E10F177F43AC65C59FC330536D63D04128CFBEA9 PUSH1 0x40 MLOAD PUSH1 0x40 MLOAD DUP1 SWAP2 SUB SWAP1 LOG2 PUSH1 0x1 PUSH1 0x0 DUP5 DUP2 MSTORE PUSH1 0x20 ADD SWAP1 DUP2 MSTORE PUSH1 0x20 ADD PUSH1 0x0 KECCAK256 PUSH1 0x3 ADD PUSH1 0x0 SWAP1 SLOAD SWAP1 PUSH2 0x100 EXP SWAP1 DIV PUSH1 0xFF AND SWAP1 POP SWAP3 SWAP2 POP POP JUMP JUMPDEST PUSH1 0x3 DUP2 DUP2 SLOAD DUP2 LT PUSH2 0x7EC JUMPI PUSH1 0x0 DUP1 REVERT JUMPDEST SWAP1 PUSH1 0x0 MSTORE PUSH1 0x20 PUSH1 0x0 KECCAK256 ADD PUSH1 0x0 SWAP2 POP SWAP1 POP SLOAD DUP2 JUMP JUMPDEST PUSH1 0x0 PUSH1 0x1 PUSH1 0x0 DUP4 DUP2 MSTORE PUSH1 0x20 ADD SWAP1 DUP2 MSTORE PUSH1 0x20 ADD PUSH1 0x0 KECCAK256 SWAP1 POP PUSH1 0x0 PUSH20 0xFFFFFFFFFFFFFFFFFFFFFFFFFFFFFFFFFFFFFFFF AND DUP2 PUSH1 0x1 ADD PUSH1 0x0 SWAP1 SLOAD SWAP1 PUSH2 0x100 EXP SWAP1 DIV PUSH20 0xFFFFFFFFFFFFFFFFFFFFFFFFFFFFFFFFFFFFFFFF AND PUSH20 0xFFFFFFFFFFFFFFFFFFFFFFFFFFFFFFFFFFFFFFFF AND SUB PUSH2 0x8AA JUMPI PUSH1 0x40 MLOAD PUSH32 0x8C379A000000000000000000000000000000000000000000000000000000000 DUP2 MSTORE PUSH1 0x4 ADD PUSH2 0x8A1 SWAP1 PUSH2 0x1174 JUMP JUMPDEST PUSH1 0x40 MLOAD DUP1 SWAP2 SUB SWAP1 REVERT JUMPDEST DUP1 PUSH1 0x3 ADD PUSH1 0x0 SWAP1 SLOAD SWAP1 PUSH2 0x100 EXP SWAP1 DIV PUSH1 0xFF AND PUSH2 0x8FB JUMPI PUSH1 0x40 MLOAD PUSH32 0x8C379A000000000000000000000000000000000000000000000000000000000 DUP2 MSTORE PUSH1 0x4 ADD PUSH2 0x8F2 SWAP1 PUSH2 0x11E0 JUMP JUMPDEST PUSH1 0x40 MLOAD DUP1 SWAP2 SUB SWAP1 REVERT JUMPDEST DUP1 PUSH1 0x1 ADD PUSH1 0x0 SWAP1 SLOAD SWAP1 PUSH2 0x100 EXP SWAP1 DIV PUSH20 0xFFFFFFFFFFFFFFFFFFFFFFFFFFFFFFFFFFFFFFFF AND PUSH20 0xFFFFFFFFFFFFFFFFFFFFFFFFFFFFFFFFFFFFFFFF AND CALLER PUSH20 0xFFFFFFFFFFFFFFFFFFFFFFFFFFFFFFFFFFFFFFFF AND SUB PUSH2 0x98D JUMPI PUSH1 0x40 MLOAD PUSH32 0x8C379A000000000000000000000000000000000000000000000000000000000 DUP2 MSTORE PUSH1 0x4 ADD PUSH2 0x984 SWAP1 PUSH2 0x124C JUMP JUMPDEST PUSH1 0x40 MLOAD DUP1 SWAP2 SUB SWAP1 REVERT JUMPDEST DUP1 PUSH1 0x2 ADD SLOAD CALLVALUE EQ PUSH2 0x9D3 JUMPI PUSH1 0x40 MLOAD PUSH32 0x8C379A000000000000000000000000000000000000000000000000000000000 DUP2 MSTORE PUSH1 0x4 ADD PUSH2 0x9CA SWAP1 PUSH2 0x12B8 JUMP JUMPDEST PUSH1 0x40 MLOAD DUP1 SWAP2 SUB SWAP1 REVERT JUMPDEST PUSH1 0x0 CALLVALUE GT PUSH2 0xA16 JUMPI PUSH1 0x40 MLOAD PUSH32 0x8C379A000000000000000000000000000000000000000000000000000000000 DUP2 MSTORE PUSH1 0x4 ADD PUSH2 0xA0D SWAP1 PUSH2 0x1324 JUMP JUMPDEST PUSH1 0x40 MLOAD DUP1 SWAP2 SUB SWAP1 REVERT JUMPDEST CALLER DUP2 PUSH1 0x1 ADD PUSH1 0x0 PUSH2 0x100 EXP DUP2 SLOAD DUP2 PUSH20 0xFFFFFFFFFFFFFFFFFFFFFFFFFFFFFFFFFFFFFFFF MUL NOT AND SWAP1 DUP4 PUSH20 0xFFFFFFFFFFFFFFFFFFFFFFFFFFFFFFFFFFFFFFFF AND MUL OR SWAP1 SSTORE POP PUSH1 0x0 DUP2 PUSH1 0x2 ADD DUP2 SWAP1 SSTORE POP PUSH1 0x0 DUP2 PUSH1 0x3 ADD PUSH1 0x0 PUSH2 0x100 EXP DUP2 SLOAD DUP2 PUSH1 0xFF MUL NOT AND SWAP1 DUP4 ISZERO ISZERO MUL OR SWAP1 SSTORE POP PUSH2 0xA8D DUP2 PUSH1 0x0 ADD SLOAD PUSH2 0xB6E JUMP JUMPDEST PUSH2 0xA9A DUP2 PUSH1 0x0 ADD SLOAD PUSH2 0xC3B JUMP JUMPDEST DUP1 PUSH1 0x1 ADD PUSH1 0x0 SWAP1 SLOAD SWAP1 PUSH2 0x100 EXP SWAP1 DIV PUSH20 0xFFFFFFFFFFFFFFFFFFFFFFFFFFFFFFFFFFFFFFFF AND PUSH20 0xFFFFFFFFFFFFFFFFFFFFFFFFFFFFFFFFFFFFFFFF AND PUSH2 0x8FC CALLVALUE SWAP1 DUP2 ISZERO MUL SWAP1 PUSH1 0x40 MLOAD PUSH1 0x0 PUSH1 0x40 MLOAD DUP1 DUP4 SUB DUP2 DUP6 DUP9 DUP9 CALL SWAP4 POP POP POP POP ISZERO DUP1 ISZERO PUSH2 0xB04 JUMPI RETURNDATASIZE PUSH1 0x0 DUP1 RETURNDATACOPY RETURNDATASIZE PUSH1 0x0 REVERT JUMPDEST POP PUSH32 0xCFCB43C3D7C1F005485A76A4A0AC731C77DC9A3E3CF386C02CF4DD9E10EC9D6 DUP3 CALLER DUP4 PUSH1 0x1 ADD PUSH1 0x0 SWAP1 SLOAD SWAP1 PUSH2 0x100 EXP SWAP1 DIV PUSH20 0xFFFFFFFFFFFFFFFFFFFFFFFFFFFFFFFFFFFFFFFF AND DUP5 PUSH1 0x2 ADD SLOAD PUSH1 0x40 MLOAD PUSH2 0xB62 SWAP5 SWAP4 SWAP3 SWAP2 SWAP1 PUSH2 0x1385 JUMP JUMPDEST PUSH1 0x40 MLOAD DUP1 SWAP2 SUB SWAP1 LOG1 POP POP JUMP JUMPDEST PUSH1 0x0 PUSH1 0x2 DUP1 SLOAD SWAP1 POP SWAP1 POP PUSH1 0x0 JUMPDEST DUP2 DUP2 LT ISZERO PUSH2 0xC36 JUMPI PUSH1 0x0 PUSH1 0x2 DUP3 DUP2 SLOAD DUP2 LT PUSH2 0xB99 JUMPI PUSH2 0xB98 PUSH2 0x13CA JUMP JUMPDEST JUMPDEST SWAP1 PUSH1 0x0 MSTORE PUSH1 0x20 PUSH1 0x0 KECCAK256 ADD SLOAD SWAP1 POP DUP4 DUP2 SUB PUSH2 0xC28 JUMPI PUSH1 0x2 PUSH1 0x1 DUP5 PUSH2 0xBBC SWAP2 SWAP1 PUSH2 0x13F9 JUMP JUMPDEST DUP2 SLOAD DUP2 LT PUSH2 0xBCD JUMPI PUSH2 0xBCC PUSH2 0x13CA JUMP JUMPDEST JUMPDEST SWAP1 PUSH1 0x0 MSTORE PUSH1 0x20 PUSH1 0x0 KECCAK256 ADD SLOAD PUSH1 0x2 DUP4 DUP2 SLOAD DUP2 LT PUSH2 0xBEC JUMPI PUSH2 0xBEB PUSH2 0x13CA JUMP JUMPDEST JUMPDEST SWAP1 PUSH1 0x0 MSTORE PUSH1 0x20 PUSH1 0x0 KECCAK256 ADD DUP2 SWAP1 SSTORE POP PUSH1 0x2 DUP1 SLOAD DUP1 PUSH2 0xC0C JUMPI PUSH2 0xC0B PUSH2 0x142D JUMP JUMPDEST JUMPDEST PUSH1 0x1 SWAP1 SUB DUP2 DUP2 SWAP1 PUSH1 0x0 MSTORE PUSH1 0x20 PUSH1 0x0 KECCAK256 ADD PUSH1 0x0 SWAP1 SSTORE SWAP1 SSTORE POP PUSH2 0xC36 JUMP JUMPDEST POP DUP1 DUP1 PUSH1 0x1 ADD SWAP2 POP POP PUSH2 0xB7B JUMP JUMPDEST POP POP POP JUMP JUMPDEST PUSH1 0x0 PUSH1 0x3 DUP1 SLOAD SWAP1 POP SWAP1 POP PUSH1 0x0 JUMPDEST DUP2 DUP2 LT ISZERO PUSH2 0xD03 JUMPI PUSH1 0x0 PUSH1 0x3 DUP3 DUP2 SLOAD DUP2 LT PUSH2 0xC66 JUMPI PUSH2 0xC65 PUSH2 0x13CA JUMP JUMPDEST JUMPDEST SWAP1 PUSH1 0x0 MSTORE PUSH1 0x20 PUSH1 0x0 KECCAK256 ADD SLOAD SWAP1 POP DUP4 DUP2 SUB PUSH2 0xCF5 JUMPI PUSH1 0x3 PUSH1 0x1 DUP5 PUSH2 0xC89 SWAP2 SWAP1 PUSH2 0x13F9 JUMP JUMPDEST DUP2 SLOAD DUP2 LT PUSH2 0xC9A JUMPI PUSH2 0xC99 PUSH2 0x13CA JUMP JUMPDEST JUMPDEST SWAP1 PUSH1 0x0 MSTORE PUSH1 0x20 PUSH1 0x0 KECCAK256 ADD SLOAD PUSH1 0x3 DUP4 DUP2 SLOAD DUP2 LT PUSH2 0xCB9 JUMPI PUSH2 0xCB8 PUSH2 0x13CA JUMP JUMPDEST JUMPDEST SWAP1 PUSH1 0x0 MSTORE PUSH1 0x20 PUSH1 0x0 KECCAK256 ADD DUP2 SWAP1 SSTORE POP PUSH1 0x3 DUP1 SLOAD DUP1 PUSH2 0xCD9 JUMPI PUSH2 0xCD8 PUSH2 0x142D JUMP JUMPDEST JUMPDEST PUSH1 0x1 SWAP1 SUB DUP2 DUP2 SWAP1 PUSH1 0x0 MSTORE PUSH1 0x20 PUSH1 0x0 KECCAK256 ADD PUSH1 0x0 SWAP1 SSTORE SWAP1 SSTORE POP PUSH2 0xD03 JUMP JUMPDEST POP DUP1 DUP1 PUSH1 0x1 ADD SWAP2 POP POP PUSH2 0xC48 JUMP JUMPDEST POP POP POP JUMP JUMPDEST PUSH1 0x0 DUP2 MLOAD SWAP1 POP SWAP2 SWAP1 POP JUMP JUMPDEST PUSH1 0x0 DUP3 DUP3 MSTORE PUSH1 0x20 DUP3 ADD SWAP1 POP SWAP3 SWAP2 POP POP JUMP JUMPDEST PUSH1 0x0 DUP2 SWAP1 POP PUSH1 0x20 DUP3 ADD SWAP1 POP SWAP2 SWAP1 POP JUMP JUMPDEST PUSH1 0x0 DUP2 SWAP1 POP SWAP2 SWAP1 POP JUMP JUMPDEST PUSH2 0xD47 DUP2 PUSH2 0xD34 JUMP JUMPDEST DUP3 MSTORE POP POP JUMP JUMPDEST PUSH1 0x0 PUSH2 0xD59 DUP4 DUP4 PUSH2 0xD3E JUMP JUMPDEST PUSH1 0x20 DUP4 ADD SWAP1 POP SWAP3 SWAP2 POP POP JUMP JUMPDEST PUSH1 0x0 PUSH1 0x20 DUP3 ADD SWAP1 POP SWAP2 SWAP1 POP JUMP JUMPDEST PUSH1 0x0 PUSH2 0xD7D DUP3 PUSH2 0xD08 JUMP JUMPDEST PUSH2 0xD87 DUP2 DUP6 PUSH2 0xD13 JUMP JUMPDEST SWAP4 POP PUSH2 0xD92 DUP4 PUSH2 0xD24 JUMP JUMPDEST DUP1 PUSH1 0x0 JUMPDEST DUP4 DUP2 LT ISZERO PUSH2 0xDC3 JUMPI DUP2 MLOAD PUSH2 0xDAA DUP9 DUP3 PUSH2 0xD4D JUMP JUMPDEST SWAP8 POP PUSH2 0xDB5 DUP4 PUSH2 0xD65 JUMP JUMPDEST SWAP3 POP POP PUSH1 0x1 DUP2 ADD SWAP1 POP PUSH2 0xD96 JUMP JUMPDEST POP DUP6 SWAP4 POP POP POP POP SWAP3 SWAP2 POP POP JUMP JUMPDEST PUSH1 0x0 PUSH1 0x20 DUP3 ADD SWAP1 POP DUP2 DUP2 SUB PUSH1 0x0 DUP4 ADD MSTORE PUSH2 0xDEA DUP2 DUP5 PUSH2 0xD72 JUMP JUMPDEST SWAP1 POP SWAP3 SWAP2 POP POP JUMP JUMPDEST PUSH1 0x0 DUP1 REVERT JUMPDEST PUSH2 0xE00 DUP2 PUSH2 0xD34 JUMP JUMPDEST DUP2 EQ PUSH2 0xE0B JUMPI PUSH1 0x0 DUP1 REVERT JUMPDEST POP JUMP JUMPDEST PUSH1 0x0 DUP2 CALLDATALOAD SWAP1 POP PUSH2 0xE1D DUP2 PUSH2 0xDF7 JUMP JUMPDEST SWAP3 SWAP2 POP POP JUMP JUMPDEST PUSH1 0x0 PUSH1 0x20 DUP3 DUP5 SUB SLT ISZERO PUSH2 0xE39 JUMPI PUSH2 0xE38 PUSH2 0xDF2 JUMP JUMPDEST JUMPDEST PUSH1 0x0 PUSH2 0xE47 DUP5 DUP3 DUP6 ADD PUSH2 0xE0E JUMP JUMPDEST SWAP2 POP POP SWAP3 SWAP2 POP POP JUMP JUMPDEST PUSH2 0xE59 DUP2 PUSH2 0xD34 JUMP JUMPDEST DUP3 MSTORE POP POP JUMP JUMPDEST PUSH1 0x0 PUSH1 0x20 DUP3 ADD SWAP1 POP PUSH2 0xE74 PUSH1 0x0 DUP4 ADD DUP5 PUSH2 0xE50 JUMP JUMPDEST SWAP3 SWAP2 POP POP JUMP JUMPDEST PUSH1 0x0 DUP2 ISZERO ISZERO SWAP1 POP SWAP2 SWAP1 POP JUMP JUMPDEST PUSH2 0xE8F DUP2 PUSH2 0xE7A JUMP JUMPDEST DUP3 MSTORE POP POP JUMP JUMPDEST PUSH1 0x0 PUSH1 0x20 DUP3 ADD SWAP1 POP PUSH2 0xEAA PUSH1 0x0 DUP4 ADD DUP5 PUSH2 0xE86 JUMP JUMPDEST SWAP3 SWAP2 POP POP JUMP JUMPDEST PUSH1 0x0 DUP1 PUSH1 0x40 DUP4 DUP6 SUB SLT ISZERO PUSH2 0xEC7 JUMPI PUSH2 0xEC6 PUSH2 0xDF2 JUMP JUMPDEST JUMPDEST PUSH1 0x0 PUSH2 0xED5 DUP6 DUP3 DUP7 ADD PUSH2 0xE0E JUMP JUMPDEST SWAP3 POP POP PUSH1 0x20 PUSH2 0xEE6 DUP6 DUP3 DUP7 ADD PUSH2 0xE0E JUMP JUMPDEST SWAP2 POP POP SWAP3 POP SWAP3 SWAP1 POP JUMP JUMPDEST PUSH1 0x0 DUP3 DUP3 MSTORE PUSH1 0x20 DUP3 ADD SWAP1 POP SWAP3 SWAP2 POP POP JUMP JUMPDEST PUSH32 0x4E6F7420746865206F776E657200000000000000000000000000000000000000 PUSH1 0x0 DUP3 ADD MSTORE POP JUMP JUMPDEST PUSH1 0x0 PUSH2 0xF37 PUSH1 0xD DUP4 PUSH2 0xEF0 JUMP JUMPDEST SWAP2 POP PUSH2 0xF42 DUP3 PUSH2 0xF01 JUMP JUMPDEST PUSH1 0x20 DUP3 ADD SWAP1 POP SWAP2 SWAP1 POP JUMP JUMPDEST PUSH1 0x0 PUSH1 0x20 DUP3 ADD SWAP1 POP DUP2 DUP2 SUB PUSH1 0x0 DUP4 ADD MSTORE PUSH2 0xF66 DUP2 PUSH2 0xF2A JUMP JUMPDEST SWAP1 POP SWAP2 SWAP1 POP JUMP JUMPDEST PUSH32 0x546865204E465420697320616C7265616479206F7574206F662073616C650000 PUSH1 0x0 DUP3 ADD MSTORE POP JUMP JUMPDEST PUSH1 0x0 PUSH2 0xFA3 PUSH1 0x1E DUP4 PUSH2 0xEF0 JUMP JUMPDEST SWAP2 POP PUSH2 0xFAE DUP3 PUSH2 0xF6D JUMP JUMPDEST PUSH1 0x20 DUP3 ADD SWAP1 POP SWAP2 SWAP1 POP JUMP JUMPDEST PUSH1 0x0 PUSH1 0x20 DUP3 ADD SWAP1 POP DUP2 DUP2 SUB PUSH1 0x0 DUP4 ADD MSTORE PUSH2 0xFD2 DUP2 PUSH2 0xF96 JUMP JUMPDEST SWAP1 POP SWAP2 SWAP1 POP JUMP JUMPDEST PUSH32 0x4E487B7100000000000000000000000000000000000000000000000000000000 PUSH1 0x0 MSTORE PUSH1 0x11 PUSH1 0x4 MSTORE PUSH1 0x24 PUSH1 0x0 REVERT JUMPDEST PUSH1 0x0 PUSH2 0x1013 DUP3 PUSH2 0xD34 JUMP JUMPDEST SWAP2 POP PUSH32 0xFFFFFFFFFFFFFFFFFFFFFFFFFFFFFFFFFFFFFFFFFFFFFFFFFFFFFFFFFFFFFFFF DUP3 SUB PUSH2 0x1045 JUMPI PUSH2 0x1044 PUSH2 0xFD9 JUMP JUMPDEST JUMPDEST PUSH1 0x1 DUP3 ADD SWAP1 POP SWAP2 SWAP1 POP JUMP JUMPDEST PUSH32 0x546865204E465420697320616C7265616479206F6E2073616C65000000000000 PUSH1 0x0 DUP3 ADD MSTORE POP JUMP JUMPDEST PUSH1 0x0 PUSH2 0x1086 PUSH1 0x1A DUP4 PUSH2 0xEF0 JUMP JUMPDEST SWAP2 POP PUSH2 0x1091 DUP3 PUSH2 0x1050 JUMP JUMPDEST PUSH1 0x20 DUP3 ADD SWAP1 POP SWAP2 SWAP1 POP JUMP JUMPDEST PUSH1 0x0 PUSH1 0x20 DUP3 ADD SWAP1 POP DUP2 DUP2 SUB PUSH1 0x0 DUP4 ADD MSTORE PUSH2 0x10B5 DUP2 PUSH2 0x1079 JUMP JUMPDEST SWAP1 POP SWAP2 SWAP1 POP JUMP JUMPDEST PUSH32 0x7072696365206D7573742047726561746572207468616E203000000000000000 PUSH1 0x0 DUP3 ADD MSTORE POP JUMP JUMPDEST PUSH1 0x0 PUSH2 0x10F2 PUSH1 0x19 DUP4 PUSH2 0xEF0 JUMP JUMPDEST SWAP2 POP PUSH2 0x10FD DUP3 PUSH2 0x10BC JUMP JUMPDEST PUSH1 0x20 DUP3 ADD SWAP1 POP SWAP2 SWAP1 POP JUMP JUMPDEST PUSH1 0x0 PUSH1 0x20 DUP3 ADD SWAP1 POP DUP2 DUP2 SUB PUSH1 0x0 DUP4 ADD MSTORE PUSH2 0x1121 DUP2 PUSH2 0x10E5 JUMP JUMPDEST SWAP1 POP SWAP2 SWAP1 POP JUMP JUMPDEST PUSH32 0x4E465420646F6573206E6F742065786973740000000000000000000000000000 PUSH1 0x0 DUP3 ADD MSTORE POP JUMP JUMPDEST PUSH1 0x0 PUSH2 0x115E PUSH1 0x12 DUP4 PUSH2 0xEF0 JUMP JUMPDEST SWAP2 POP PUSH2 0x1169 DUP3 PUSH2 0x1128 JUMP JUMPDEST PUSH1 0x20 DUP3 ADD SWAP1 POP SWAP2 SWAP1 POP JUMP JUMPDEST PUSH1 0x0 PUSH1 0x20 DUP3 ADD SWAP1 POP DUP2 DUP2 SUB PUSH1 0x0 DUP4 ADD MSTORE PUSH2 0x118D DUP2 PUSH2 0x1151 JUMP JUMPDEST SWAP1 POP SWAP2 SWAP1 POP JUMP JUMPDEST PUSH32 0x4E4654206973206E6F7420666F722073616C6500000000000000000000000000 PUSH1 0x0 DUP3 ADD MSTORE POP JUMP JUMPDEST PUSH1 0x0 PUSH2 0x11CA PUSH1 0x13 DUP4 PUSH2 0xEF0 JUMP JUMPDEST SWAP2 POP PUSH2 0x11D5 DUP3 PUSH2 0x1194 JUMP JUMPDEST PUSH1 0x20 DUP3 ADD SWAP1 POP SWAP2 SWAP1 POP JUMP JUMPDEST PUSH1 0x0 PUSH1 0x20 DUP3 ADD SWAP1 POP DUP2 DUP2 SUB PUSH1 0x0 DUP4 ADD MSTORE PUSH2 0x11F9 DUP2 PUSH2 0x11BD JUMP JUMPDEST SWAP1 POP SWAP2 SWAP1 POP JUMP JUMPDEST PUSH32 0x43616E6E6F742062757920796F7572206F776E204E4654000000000000000000 PUSH1 0x0 DUP3 ADD MSTORE POP JUMP JUMPDEST PUSH1 0x0 PUSH2 0x1236 PUSH1 0x17 DUP4 PUSH2 0xEF0 JUMP JUMPDEST SWAP2 POP PUSH2 0x1241 DUP3 PUSH2 0x1200 JUMP JUMPDEST PUSH1 0x20 DUP3 ADD SWAP1 POP SWAP2 SWAP1 POP JUMP JUMPDEST PUSH1 0x0 PUSH1 0x20 DUP3 ADD SWAP1 POP DUP2 DUP2 SUB PUSH1 0x0 DUP4 ADD MSTORE PUSH2 0x1265 DUP2 PUSH2 0x1229 JUMP JUMPDEST SWAP1 POP SWAP2 SWAP1 POP JUMP JUMPDEST PUSH32 0x496E636F7272656374207061796D656E7420616D6F756E740000000000000000 PUSH1 0x0 DUP3 ADD MSTORE POP JUMP JUMPDEST PUSH1 0x0 PUSH2 0x12A2 PUSH1 0x18 DUP4 PUSH2 0xEF0 JUMP JUMPDEST SWAP2 POP PUSH2 0x12AD DUP3 PUSH2 0x126C JUMP JUMPDEST PUSH1 0x20 DUP3 ADD SWAP1 POP SWAP2 SWAP1 POP JUMP JUMPDEST PUSH1 0x0 PUSH1 0x20 DUP3 ADD SWAP1 POP DUP2 DUP2 SUB PUSH1 0x0 DUP4 ADD MSTORE PUSH2 0x12D1 DUP2 PUSH2 0x1295 JUMP JUMPDEST SWAP1 POP SWAP2 SWAP1 POP JUMP JUMPDEST PUSH32 0x5061796D656E7420726571756972656400000000000000000000000000000000 PUSH1 0x0 DUP3 ADD MSTORE POP JUMP JUMPDEST PUSH1 0x0 PUSH2 0x130E PUSH1 0x10 DUP4 PUSH2 0xEF0 JUMP JUMPDEST SWAP2 POP PUSH2 0x1319 DUP3 PUSH2 0x12D8 JUMP JUMPDEST PUSH1 0x20 DUP3 ADD SWAP1 POP SWAP2 SWAP1 POP JUMP JUMPDEST PUSH1 0x0 PUSH1 0x20 DUP3 ADD SWAP1 POP DUP2 DUP2 SUB PUSH1 0x0 DUP4 ADD MSTORE PUSH2 0x133D DUP2 PUSH2 0x1301 JUMP JUMPDEST SWAP1 POP SWAP2 SWAP1 POP JUMP JUMPDEST PUSH1 0x0 PUSH20 0xFFFFFFFFFFFFFFFFFFFFFFFFFFFFFFFFFFFFFFFF DUP3 AND SWAP1 POP SWAP2 SWAP1 POP JUMP JUMPDEST PUSH1 0x0 PUSH2 0x136F DUP3 PUSH2 0x1344 JUMP JUMPDEST SWAP1 POP SWAP2 SWAP1 POP JUMP JUMPDEST PUSH2 0x137F DUP2 PUSH2 0x1364 JUMP JUMPDEST DUP3 MSTORE POP POP JUMP JUMPDEST PUSH1 0x0 PUSH1 0x80 DUP3 ADD SWAP1 POP PUSH2 0x139A PUSH1 0x0 DUP4 ADD DUP8 PUSH2 0xE50 JUMP JUMPDEST PUSH2 0x13A7 PUSH1 0x20 DUP4 ADD DUP7 PUSH2 0x1376 JUMP JUMPDEST PUSH2 0x13B4 PUSH1 0x40 DUP4 ADD DUP6 PUSH2 0x1376 JUMP JUMPDEST PUSH2 0x13C1 PUSH1 0x60 DUP4 ADD DUP5 PUSH2 0xE50 JUMP JUMPDEST SWAP6 SWAP5 POP POP POP POP POP JUMP JUMPDEST PUSH32 0x4E487B7100000000000000000000000000000000000000000000000000000000 PUSH1 0x0 MSTORE PUSH1 0x32 PUSH1 0x4 MSTORE PUSH1 0x24 PUSH1 0x0 REVERT JUMPDEST PUSH1 0x0 PUSH2 0x1404 DUP3 PUSH2 0xD34 JUMP JUMPDEST SWAP2 POP PUSH2 0x140F DUP4 PUSH2 0xD34 JUMP JUMPDEST SWAP3 POP DUP3 DUP3 SUB SWAP1 POP DUP2 DUP2 GT ISZERO PUSH2 0x1427 JUMPI PUSH2 0x1426 PUSH2 0xFD9 JUMP JUMPDEST JUMPDEST SWAP3 SWAP2 POP POP JUMP JUMPDEST PUSH32 0x4E487B7100000000000000000000000000000000000000000000000000000000 PUSH1 0x0 MSTORE PUSH1 0x31 PUSH1 0x4 MSTORE PUSH1 0x24 PUSH1 0x0 REVERT INVALID LOG2 PUSH5 0x6970667358 0x22 SLT KECCAK256 PUSH11 0x6CF63220C07198F09E8FC7 LOG3 PUSH29 0x531E6DD55EE25BF4AF200031B83AE18F8DD464736F6C634300081E0033 "
				},
				"gasEstimates": {
					"creation": {
						"codeDepositCost": "1053200",
						"executionCost": "6100",
						"totalCost": "1059300"
					},
					"external": {
						"NFTList(uint256)": "infinite",
						"buyNTF(uint256)": "infinite",
						"createNFT()": "infinite",
						"downNFT(uint256)": "infinite",
						"getNTFs()": "infinite",
						"listNFT(uint256,uint256)": "infinite",
						"onSaleList(uint256)": "infinite",
						"selectNFTsOnsale()": "infinite"
					},
					"internal": {
						"removeNFT(uint256)": "infinite",
						"removeNFTOnSale(uint256)": "infinite"
					}
				},
				"methodIdentifiers": {
					"NFTList(uint256)": "a7d18a49",
					"buyNTF(uint256)": "d58955fe",
					"createNFT()": "8a97ec2a",
					"downNFT(uint256)": "686b4185",
					"getNTFs()": "11429b38",
					"listNFT(uint256,uint256)": "94383f14",
					"onSaleList(uint256)": "549dcd48",
					"selectNFTsOnsale()": "1ad905d0"
				}
			},
			"storageLayout": {
				"storage": [
					{
						"astId": 13,
						"contract": "practise3.2/NFTMarket.sol:NFTmarket",
						"label": "idIncrementCount",
						"offset": 0,
						"slot": "0",
						"type": "t_uint256"
					},
					{
						"astId": 18,
						"contract": "practise3.2/NFTMarket.sol:NFTmarket",
						"label": "nfts",
						"offset": 0,
						"slot": "1",
						"type": "t_mapping(t_uint256,t_struct(NFT)10_storage)"
					},
					{
						"astId": 21,
						"contract": "practise3.2/NFTMarket.sol:NFTmarket",
						"label": "onSaleList",
						"offset": 0,
						"slot": "2",
						"type": "t_array(t_uint256)dyn_storage"
					},
					{
						"astId": 24,
						"contract": "practise3.2/NFTMarket.sol:NFTmarket",
						"label": "NFTList",
						"offset": 0,
						"slot": "3",
						"type": "t_array(t_uint256)dyn_storage"
					}
				],
				"types": {
					"t_address": {
						"encoding": "inplace",
						"label": "address",
						"numberOfBytes": "20"
					},
					"t_array(t_uint256)dyn_storage": {
						"base": "t_uint256",
						"encoding": "dynamic_array",
						"label": "uint256[]",
						"numberOfBytes": "32"
					},
					"t_bool": {
						"encoding": "inplace",
						"label": "bool",
						"numberOfBytes": "1"
					},
					"t_mapping(t_uint256,t_struct(NFT)10_storage)": {
						"encoding": "mapping",
						"key": "t_uint256",
						"label": "mapping(uint256 => struct NFTmarket.NFT)",
						"numberOfBytes": "32",
						"value": "t_struct(NFT)10_storage"
					},
					"t_struct(NFT)10_storage": {
						"encoding": "inplace",
						"label": "struct NFTmarket.NFT",
						"members": [
							{
								"astId": 3,
								"contract": "practise3.2/NFTMarket.sol:NFTmarket",
								"label": "id",
								"offset": 0,
								"slot": "0",
								"type": "t_uint256"
							},
							{
								"astId": 5,
								"contract": "practise3.2/NFTMarket.sol:NFTmarket",
								"label": "owner",
								"offset": 0,
								"slot": "1",
								"type": "t_address"
							},
							{
								"astId": 7,
								"contract": "practise3.2/NFTMarket.sol:NFTmarket",
								"label": "price",
								"offset": 0,
								"slot": "2",
								"type": "t_uint256"
							},
							{
								"astId": 9,
								"contract": "practise3.2/NFTMarket.sol:NFTmarket",
								"label": "forSale",
								"offset": 0,
								"slot": "3",
								"type": "t_bool"
							}
						],
						"numberOfBytes": "128"
					},
					"t_uint256": {
						"encoding": "inplace",
						"label": "uint256",
						"numberOfBytes": "32"
					}
				}
			},
			"userdoc": {
				"kind": "user",
				"methods": {},
				"version": 1
			}
		}
	}
}