{
	"practise3.3/MultiSignatureWallet.sol": {
		"MultiSigWallet": {
			"abi": [
				{
					"inputs": [
						{
							"internalType": "address[]",
							"name": "initialSigners",
							"type": "address[]"
						},
						{
							"internalType": "uint256",
							"name": "initialThreshold",
							"type": "uint256"
						}
					],
					"stateMutability": "nonpayable",
					"type": "constructor"
				},
				{
					"anonymous": false,
					"inputs": [
						{
							"indexed": true,
							"internalType": "address",
							"name": "signer",
							"type": "address"
						}
					],
					"name": "SignerAdded",
					"type": "event"
				},
				{
					"anonymous": false,
					"inputs": [
						{
							"indexed": false,
							"internalType": "uint256",
							"name": "newThreshold",
							"type": "uint256"
						}
					],
					"name": "ThresholdUpdated",
					"type": "event"
				},
				{
					"anonymous": false,
					"inputs": [
						{
							"indexed": true,
							"internalType": "uint256",
							"name": "txId",
							"type": "uint256"
						},
						{
							"indexed": true,
							"internalType": "address",
							"name": "signer",
							"type": "address"
						}
					],
					"name": "TransactionConfirmed",
					"type": "event"
				},
				{
					"anonymous": false,
					"inputs": [
						{
							"indexed": true,
							"internalType": "uint256",
							"name": "txId",
							"type": "uint256"
						}
					],
					"name": "TransactionExecuted",
					"type": "event"
				},
				{
					"anonymous": false,
					"inputs": [
						{
							"indexed": true,
							"internalType": "uint256",
							"name": "txId",
							"type": "uint256"
						},
						{
							"indexed": true,
							"internalType": "address",
							"name": "proposer",
							"type": "address"
						},
						{
							"indexed": true,
							"internalType": "address",
							"name": "to",
							"type": "address"
						},
						{
							"indexed": false,
							"internalType": "uint256",
							"name": "value",
							"type": "uint256"
						},
						{
							"indexed": false,
							"internalType": "bytes",
							"name": "data",
							"type": "bytes"
						}
					],
					"name": "TransactionProposed",
					"type": "event"
				},
				{
					"inputs": [
						{
							"internalType": "address",
							"name": "newSigner",
							"type": "address"
						}
					],
					"name": "addSigner",
					"outputs": [],
					"stateMutability": "nonpayable",
					"type": "function"
				},
				{
					"inputs": [
						{
							"internalType": "uint256",
							"name": "txId",
							"type": "uint256"
						}
					],
					"name": "confirmTransaction",
					"outputs": [],
					"stateMutability": "nonpayable",
					"type": "function"
				},
				{
					"inputs": [],
					"name": "getSigners",
					"outputs": [
						{
							"internalType": "address[]",
							"name": "",
							"type": "address[]"
						}
					],
					"stateMutability": "view",
					"type": "function"
				},
				{
					"inputs": [
						{
							"internalType": "uint256",
							"name": "txId",
							"type": "uint256"
						}
					],
					"name": "getTransactionDetails",
					"outputs": [
						{
							"internalType": "address",
							"name": "to",
							"type": "address"
						},
						{
							"internalType": "uint256",
							"name": "value",
							"type": "uint256"
						},
						{
							"internalType": "bytes",
							"name": "data",
							"type": "bytes"
						},
						{
							"internalType": "bool",
							"name": "executed",
							"type": "bool"
						},
						{
							"internalType": "uint256",
							"name": "confirmations",
							"type": "uint256"
						}
					],
					"stateMutability": "view",
					"type": "function"
				},
				{
					"inputs": [
						{
							"internalType": "uint256",
							"name": "txId",
							"type": "uint256"
						},
						{
							"internalType": "address",
							"name": "signer",
							"type": "address"
						}
					],
					"name": "hasConfirmed",
					"outputs": [
						{
							"internalType": "bool",
							"name": "",
							"type": "bool"
						}
					],
					"stateMutability": "view",
					"type": "function"
				},
				{
					"inputs": [
						{
							"internalType": "address",
							"name": "account",
							"type": "address"
						}
					],
					"name": "isSigner",
					"outputs": [
						{
							"internalType": "bool",
							"name": "",
							"type": "bool"
						}
					],
					"stateMutability": "view",
					"type": "function"
				},
				{
					"inputs": [
						{
							"internalType": "address",
							"name": "to",
							"type": "address"
						},
						{
							"internalType": "uint256",
							"name": "value",
							"type": "uint256"
						},
						{
							"internalType": "bytes",
							"name": "data",
							"type": "bytes"
						}
					],
					"name": "proposeTransaction",
					"outputs": [
						{
							"internalType": "uint256",
							"name": "txId",
							"type": "uint256"
						}
					],
					"stateMutability": "nonpayable",
					"type": "function"
				},
				{
					"inputs": [
						{
							"internalType": "uint256",
							"name": "",
							"type": "uint256"
						}
					],
					"name": "signers",
					"outputs": [
						{
							"internalType": "address",
							"name": "",
							"type": "address"
						}
					],
					"stateMutability": "view",
					"type": "function"
				},
				{
					"inputs": [],
					"name": "threshold",
					"outputs": [
						{
							"internalType": "uint256",
							"name": "",
							"type": "uint256"
						}
					],
					"stateMutability": "view",
					"type": "function"
				},
				{
					"inputs": [],
					"name": "transactionCount",
					"outputs": [
						{
							"internalType": "uint256",
							"name": "",
							"type": "uint256"
						}
					],
					"stateMutability": "view",
					"type": "function"
				},
				{
					"inputs": [
						{
							"internalType": "uint256",
							"name": "",
							"type": "uint256"
						}
					],
					"name": "transactions",
					"outputs": [
						{
							"internalType": "address",
							"name": "to",
							"type": "address"
						},
						{
							"internalType": "uint256",
							"name": "value",
							"type": "uint256"
						},
						{
							"internalType": "bytes",
							"name": "data",
							"type": "bytes"
						},
						{
							"internalType": "bool",
							"name": "executed",
							"type": "bool"
						},
						{
							"internalType": "uint256",
							"name": "confirmations",
							"type": "uint256"
						}
					],
					"stateMutability": "view",
					"type": "function"
				},
				{
					"inputs": [
						{
							"internalType": "uint256",
							"name": "newThreshold",
							"type": "uint256"
						}
					],
					"name": "updateThreshold",
					"outputs": [],
					"stateMutability": "nonpayable",
					"type": "function"
				},
				{
					"stateMutability": "payable",
					"type": "receive"
				}
			],
			"devdoc": {
				"kind": "dev",
				"methods": {},
				"version": 1
			},
			"evm": {
				"assembly": "    /* \"practise3.3/MultiSignatureWallet.sol\":61:6329  contract MultiSigWallet {... */\n  mstore(0x40, 0x80)\n    /* \"practise3.3/MultiSignatureWallet.sol\":1703:2376  constructor(address[] memory initialSigners, uint256 initialThreshold) {... */\n  callvalue\n  dup1\n  iszero\n  tag_1\n  jumpi\n  0x00\n  dup1\n  revert\ntag_1:\n  pop\n  mload(0x40)\n  sub(codesize, bytecodeSize)\n  dup1\n  bytecodeSize\n  dup4\n  codecopy\n  dup2\n  dup2\n  add\n  0x40\n  mstore\n  dup2\n  add\n  swap1\n  tag_2\n  swap2\n  swap1\n  tag_3\n  jump\t// in\ntag_2:\n    /* \"practise3.3/MultiSignatureWallet.sol\":1817:1818  0 */\n  0x00\n    /* \"practise3.3/MultiSignatureWallet.sol\":1793:1807  initialSigners */\n  dup3\n    /* \"practise3.3/MultiSignatureWallet.sol\":1793:1814  initialSigners.length */\n  mload\n    /* \"practise3.3/MultiSignatureWallet.sol\":1793:1818  initialSigners.length > 0 */\n  gt\n    /* \"practise3.3/MultiSignatureWallet.sol\":1785:1851  require(initialSigners.length > 0, \"At least one signer required\") */\n  tag_6\n  jumpi\n  mload(0x40)\n  0x08c379a000000000000000000000000000000000000000000000000000000000\n  dup2\n  mstore\n  0x04\n  add\n  tag_7\n  swap1\n  tag_8\n  jump\t// in\ntag_7:\n  mload(0x40)\n  dup1\n  swap2\n  sub\n  swap1\n  revert\ntag_6:\n    /* \"practise3.3/MultiSignatureWallet.sol\":1903:1904  0 */\n  0x00\n    /* \"practise3.3/MultiSignatureWallet.sol\":1884:1900  initialThreshold */\n  dup2\n    /* \"practise3.3/MultiSignatureWallet.sol\":1884:1904  initialThreshold > 0 */\n  gt\n    /* \"practise3.3/MultiSignatureWallet.sol\":1884:1949  initialThreshold > 0 && initialThreshold <= initialSigners.length */\n  dup1\n  iszero\n  tag_9\n  jumpi\n  pop\n    /* \"practise3.3/MultiSignatureWallet.sol\":1928:1942  initialSigners */\n  dup2\n    /* \"practise3.3/MultiSignatureWallet.sol\":1928:1949  initialSigners.length */\n  mload\n    /* \"practise3.3/MultiSignatureWallet.sol\":1908:1924  initialThreshold */\n  dup2\n    /* \"practise3.3/MultiSignatureWallet.sol\":1908:1949  initialThreshold <= initialSigners.length */\n  gt\n  iszero\n    /* \"practise3.3/MultiSignatureWallet.sol\":1884:1949  initialThreshold > 0 && initialThreshold <= initialSigners.length */\ntag_9:\n    /* \"practise3.3/MultiSignatureWallet.sol\":1862:1994  require(... */\n  tag_10\n  jumpi\n  mload(0x40)\n  0x08c379a000000000000000000000000000000000000000000000000000000000\n  dup2\n  mstore\n  0x04\n  add\n  tag_11\n  swap1\n  tag_12\n  jump\t// in\ntag_11:\n  mload(0x40)\n  dup1\n  swap2\n  sub\n  swap1\n  revert\ntag_10:\n    /* \"practise3.3/MultiSignatureWallet.sol\":2058:2067  uint256 i */\n  0x00\n    /* \"practise3.3/MultiSignatureWallet.sol\":2053:2328  for (uint256 i = 0; i < initialSigners.length; i++) {... */\ntag_13:\n    /* \"practise3.3/MultiSignatureWallet.sol\":2077:2091  initialSigners */\n  dup3\n    /* \"practise3.3/MultiSignatureWallet.sol\":2077:2098  initialSigners.length */\n  mload\n    /* \"practise3.3/MultiSignatureWallet.sol\":2073:2074  i */\n  dup2\n    /* \"practise3.3/MultiSignatureWallet.sol\":2073:2098  i < initialSigners.length */\n  lt\n    /* \"practise3.3/MultiSignatureWallet.sol\":2053:2328  for (uint256 i = 0; i < initialSigners.length; i++) {... */\n  iszero\n  tag_14\n  jumpi\n    /* \"practise3.3/MultiSignatureWallet.sol\":2120:2134  address signer */\n  0x00\n    /* \"practise3.3/MultiSignatureWallet.sol\":2137:2151  initialSigners */\n  dup4\n    /* \"practise3.3/MultiSignatureWallet.sol\":2152:2153  i */\n  dup3\n    /* \"practise3.3/MultiSignatureWallet.sol\":2137:2154  initialSigners[i] */\n  dup2\n  mload\n  dup2\n  lt\n  tag_16\n  jumpi\n  tag_17\n  tag_18\n  jump\t// in\ntag_17:\ntag_16:\n  0x20\n  mul\n  0x20\n  add\n  add\n  mload\n    /* \"practise3.3/MultiSignatureWallet.sol\":2120:2154  address signer = initialSigners[i] */\n  swap1\n  pop\n    /* \"practise3.3/MultiSignatureWallet.sol\":2195:2196  0 */\n  0x00\n    /* \"practise3.3/MultiSignatureWallet.sol\":2177:2197  signer != address(0) */\n  0xffffffffffffffffffffffffffffffffffffffff\n  and\n    /* \"practise3.3/MultiSignatureWallet.sol\":2177:2183  signer */\n  dup2\n    /* \"practise3.3/MultiSignatureWallet.sol\":2177:2197  signer != address(0) */\n  0xffffffffffffffffffffffffffffffffffffffff\n  and\n  sub\n    /* \"practise3.3/MultiSignatureWallet.sol\":2169:2224  require(signer != address(0), \"Invalid signer address\") */\n  tag_19\n  jumpi\n  mload(0x40)\n  0x08c379a000000000000000000000000000000000000000000000000000000000\n  dup2\n  mstore\n  0x04\n  add\n  tag_20\n  swap1\n  tag_21\n  jump\t// in\ntag_20:\n  mload(0x40)\n  dup1\n  swap2\n  sub\n  swap1\n  revert\ntag_19:\n    /* \"practise3.3/MultiSignatureWallet.sol\":2244:2260  isSigner(signer) */\n  tag_22\n    /* \"practise3.3/MultiSignatureWallet.sol\":2253:2259  signer */\n  dup2\n    /* \"practise3.3/MultiSignatureWallet.sol\":2244:2252  isSigner */\n  shl(0x20, tag_23)\n    /* \"practise3.3/MultiSignatureWallet.sol\":2244:2260  isSigner(signer) */\n  0x20\n  shr\n  jump\t// in\ntag_22:\n    /* \"practise3.3/MultiSignatureWallet.sol\":2239:2317  if (!isSigner(signer)) {... */\n  tag_24\n  jumpi\n    /* \"practise3.3/MultiSignatureWallet.sol\":2281:2288  signers */\n  0x00\n    /* \"practise3.3/MultiSignatureWallet.sol\":2294:2300  signer */\n  dup2\n    /* \"practise3.3/MultiSignatureWallet.sol\":2281:2301  signers.push(signer) */\n  swap1\n  dup1\n  0x01\n  dup2\n  sload\n  add\n  dup1\n  dup3\n  sstore\n  dup1\n  swap2\n  pop\n  pop\n  0x01\n  swap1\n  sub\n  swap1\n  0x00\n  mstore\n  keccak256(0x00, 0x20)\n  add\n  0x00\n  swap1\n  swap2\n  swap1\n  swap2\n  swap1\n  swap2\n  0x0100\n  exp\n  dup2\n  sload\n  dup2\n  0xffffffffffffffffffffffffffffffffffffffff\n  mul\n  not\n  and\n  swap1\n  dup4\n  0xffffffffffffffffffffffffffffffffffffffff\n  and\n  mul\n  or\n  swap1\n  sstore\n  pop\n    /* \"practise3.3/MultiSignatureWallet.sol\":2239:2317  if (!isSigner(signer)) {... */\ntag_24:\n    /* \"practise3.3/MultiSignatureWallet.sol\":2105:2328  {... */\n  pop\n    /* \"practise3.3/MultiSignatureWallet.sol\":2100:2103  i++ */\n  dup1\n  dup1\n  tag_26\n  swap1\n  tag_27\n  jump\t// in\ntag_26:\n  swap2\n  pop\n  pop\n    /* \"practise3.3/MultiSignatureWallet.sol\":2053:2328  for (uint256 i = 0; i < initialSigners.length; i++) {... */\n  jump(tag_13)\ntag_14:\n  pop\n    /* \"practise3.3/MultiSignatureWallet.sol\":2352:2368  initialThreshold */\n  dup1\n    /* \"practise3.3/MultiSignatureWallet.sol\":2340:2349  threshold */\n  0x01\n    /* \"practise3.3/MultiSignatureWallet.sol\":2340:2368  threshold = initialThreshold */\n  dup2\n  swap1\n  sstore\n  pop\n    /* \"practise3.3/MultiSignatureWallet.sol\":1703:2376  constructor(address[] memory initialSigners, uint256 initialThreshold) {... */\n  pop\n  pop\n    /* \"practise3.3/MultiSignatureWallet.sol\":61:6329  contract MultiSigWallet {... */\n  jump(tag_28)\n    /* \"practise3.3/MultiSignatureWallet.sol\":2423:2670  function isSigner(address account) public view returns (bool) {... */\ntag_23:\n    /* \"practise3.3/MultiSignatureWallet.sol\":2479:2483  bool */\n  0x00\n    /* \"practise3.3/MultiSignatureWallet.sol\":2501:2510  uint256 i */\n  dup1\n    /* \"practise3.3/MultiSignatureWallet.sol\":2513:2514  0 */\n  0x00\n    /* \"practise3.3/MultiSignatureWallet.sol\":2501:2514  uint256 i = 0 */\n  swap1\n  pop\n    /* \"practise3.3/MultiSignatureWallet.sol\":2496:2640  for (uint256 i = 0; i < signers.length; i++) {... */\ntag_30:\n    /* \"practise3.3/MultiSignatureWallet.sol\":2520:2527  signers */\n  0x00\n    /* \"practise3.3/MultiSignatureWallet.sol\":2520:2534  signers.length */\n  dup1\n  sload\n  swap1\n  pop\n    /* \"practise3.3/MultiSignatureWallet.sol\":2516:2517  i */\n  dup2\n    /* \"practise3.3/MultiSignatureWallet.sol\":2516:2534  i < signers.length */\n  lt\n    /* \"practise3.3/MultiSignatureWallet.sol\":2496:2640  for (uint256 i = 0; i < signers.length; i++) {... */\n  iszero\n  tag_31\n  jumpi\n    /* \"practise3.3/MultiSignatureWallet.sol\":2574:2581  account */\n  dup3\n    /* \"practise3.3/MultiSignatureWallet.sol\":2560:2581  signers[i] == account */\n  0xffffffffffffffffffffffffffffffffffffffff\n  and\n    /* \"practise3.3/MultiSignatureWallet.sol\":2560:2567  signers */\n  0x00\n    /* \"practise3.3/MultiSignatureWallet.sol\":2568:2569  i */\n  dup3\n    /* \"practise3.3/MultiSignatureWallet.sol\":2560:2570  signers[i] */\n  dup2\n  sload\n  dup2\n  lt\n  tag_33\n  jumpi\n  tag_34\n  tag_18\n  jump\t// in\ntag_34:\ntag_33:\n  swap1\n  0x00\n  mstore\n  keccak256(0x00, 0x20)\n  add\n  0x00\n  swap1\n  sload\n  swap1\n  0x0100\n  exp\n  swap1\n  div\n  0xffffffffffffffffffffffffffffffffffffffff\n  and\n    /* \"practise3.3/MultiSignatureWallet.sol\":2560:2581  signers[i] == account */\n  0xffffffffffffffffffffffffffffffffffffffff\n  and\n  sub\n    /* \"practise3.3/MultiSignatureWallet.sol\":2556:2629  if (signers[i] == account) {... */\n  tag_36\n  jumpi\n    /* \"practise3.3/MultiSignatureWallet.sol\":2609:2613  true */\n  0x01\n    /* \"practise3.3/MultiSignatureWallet.sol\":2602:2613  return true */\n  swap2\n  pop\n  pop\n  jump(tag_29)\n    /* \"practise3.3/MultiSignatureWallet.sol\":2556:2629  if (signers[i] == account) {... */\ntag_36:\n    /* \"practise3.3/MultiSignatureWallet.sol\":2536:2539  i++ */\n  dup1\n  dup1\n  tag_37\n  swap1\n  tag_27\n  jump\t// in\ntag_37:\n  swap2\n  pop\n  pop\n    /* \"practise3.3/MultiSignatureWallet.sol\":2496:2640  for (uint256 i = 0; i < signers.length; i++) {... */\n  jump(tag_30)\ntag_31:\n  pop\n    /* \"practise3.3/MultiSignatureWallet.sol\":2657:2662  false */\n  0x00\n    /* \"practise3.3/MultiSignatureWallet.sol\":2650:2662  return false */\n  swap1\n  pop\n    /* \"practise3.3/MultiSignatureWallet.sol\":2423:2670  function isSigner(address account) public view returns (bool) {... */\ntag_29:\n  swap2\n  swap1\n  pop\n  jump\t// out\n    /* \"#utility.yul\":7:82   */\ntag_38:\n    /* \"#utility.yul\":40:46   */\n  0x00\n    /* \"#utility.yul\":73:75   */\n  0x40\n    /* \"#utility.yul\":67:76   */\n  mload\n    /* \"#utility.yul\":57:76   */\n  swap1\n  pop\n    /* \"#utility.yul\":7:82   */\n  swap1\n  jump\t// out\n    /* \"#utility.yul\":88:205   */\ntag_39:\n    /* \"#utility.yul\":197:198   */\n  0x00\n    /* \"#utility.yul\":194:195   */\n  dup1\n    /* \"#utility.yul\":187:199   */\n  revert\n    /* \"#utility.yul\":211:328   */\ntag_40:\n    /* \"#utility.yul\":320:321   */\n  0x00\n    /* \"#utility.yul\":317:318   */\n  dup1\n    /* \"#utility.yul\":310:322   */\n  revert\n    /* \"#utility.yul\":334:451   */\ntag_41:\n    /* \"#utility.yul\":443:444   */\n  0x00\n    /* \"#utility.yul\":440:441   */\n  dup1\n    /* \"#utility.yul\":433:445   */\n  revert\n    /* \"#utility.yul\":457:559   */\ntag_42:\n    /* \"#utility.yul\":498:504   */\n  0x00\n    /* \"#utility.yul\":549:551   */\n  0x1f\n    /* \"#utility.yul\":545:552   */\n  not\n    /* \"#utility.yul\":540:542   */\n  0x1f\n    /* \"#utility.yul\":533:538   */\n  dup4\n    /* \"#utility.yul\":529:543   */\n  add\n    /* \"#utility.yul\":525:553   */\n  and\n    /* \"#utility.yul\":515:553   */\n  swap1\n  pop\n    /* \"#utility.yul\":457:559   */\n  swap2\n  swap1\n  pop\n  jump\t// out\n    /* \"#utility.yul\":565:745   */\ntag_43:\n    /* \"#utility.yul\":613:690   */\n  0x4e487b7100000000000000000000000000000000000000000000000000000000\n    /* \"#utility.yul\":610:611   */\n  0x00\n    /* \"#utility.yul\":603:691   */\n  mstore\n    /* \"#utility.yul\":710:714   */\n  0x41\n    /* \"#utility.yul\":707:708   */\n  0x04\n    /* \"#utility.yul\":700:715   */\n  mstore\n    /* \"#utility.yul\":734:738   */\n  0x24\n    /* \"#utility.yul\":731:732   */\n  0x00\n    /* \"#utility.yul\":724:739   */\n  revert\n    /* \"#utility.yul\":751:1032   */\ntag_44:\n    /* \"#utility.yul\":834:861   */\n  tag_73\n    /* \"#utility.yul\":856:860   */\n  dup3\n    /* \"#utility.yul\":834:861   */\n  tag_42\n  jump\t// in\ntag_73:\n    /* \"#utility.yul\":826:832   */\n  dup2\n    /* \"#utility.yul\":822:862   */\n  add\n    /* \"#utility.yul\":964:970   */\n  dup2\n    /* \"#utility.yul\":952:962   */\n  dup2\n    /* \"#utility.yul\":949:971   */\n  lt\n    /* \"#utility.yul\":928:946   */\n  0xffffffffffffffff\n    /* \"#utility.yul\":916:926   */\n  dup3\n    /* \"#utility.yul\":913:947   */\n  gt\n    /* \"#utility.yul\":910:972   */\n  or\n    /* \"#utility.yul\":907:995   */\n  iszero\n  tag_74\n  jumpi\n    /* \"#utility.yul\":975:993   */\n  tag_75\n  tag_43\n  jump\t// in\ntag_75:\n    /* \"#utility.yul\":907:995   */\ntag_74:\n    /* \"#utility.yul\":1015:1025   */\n  dup1\n    /* \"#utility.yul\":1011:1013   */\n  0x40\n    /* \"#utility.yul\":1004:1026   */\n  mstore\n    /* \"#utility.yul\":794:1032   */\n  pop\n    /* \"#utility.yul\":751:1032   */\n  pop\n  pop\n  jump\t// out\n    /* \"#utility.yul\":1038:1167   */\ntag_45:\n    /* \"#utility.yul\":1072:1078   */\n  0x00\n    /* \"#utility.yul\":1099:1119   */\n  tag_77\n  tag_38\n  jump\t// in\ntag_77:\n    /* \"#utility.yul\":1089:1119   */\n  swap1\n  pop\n    /* \"#utility.yul\":1128:1161   */\n  tag_78\n    /* \"#utility.yul\":1156:1160   */\n  dup3\n    /* \"#utility.yul\":1148:1154   */\n  dup3\n    /* \"#utility.yul\":1128:1161   */\n  tag_44\n  jump\t// in\ntag_78:\n    /* \"#utility.yul\":1038:1167   */\n  swap2\n  swap1\n  pop\n  jump\t// out\n    /* \"#utility.yul\":1173:1484   */\ntag_46:\n    /* \"#utility.yul\":1250:1254   */\n  0x00\n    /* \"#utility.yul\":1340:1358   */\n  0xffffffffffffffff\n    /* \"#utility.yul\":1332:1338   */\n  dup3\n    /* \"#utility.yul\":1329:1359   */\n  gt\n    /* \"#utility.yul\":1326:1382   */\n  iszero\n  tag_80\n  jumpi\n    /* \"#utility.yul\":1362:1380   */\n  tag_81\n  tag_43\n  jump\t// in\ntag_81:\n    /* \"#utility.yul\":1326:1382   */\ntag_80:\n    /* \"#utility.yul\":1412:1416   */\n  0x20\n    /* \"#utility.yul\":1404:1410   */\n  dup3\n    /* \"#utility.yul\":1400:1417   */\n  mul\n    /* \"#utility.yul\":1392:1417   */\n  swap1\n  pop\n    /* \"#utility.yul\":1472:1476   */\n  0x20\n    /* \"#utility.yul\":1466:1470   */\n  dup2\n    /* \"#utility.yul\":1462:1477   */\n  add\n    /* \"#utility.yul\":1454:1477   */\n  swap1\n  pop\n    /* \"#utility.yul\":1173:1484   */\n  swap2\n  swap1\n  pop\n  jump\t// out\n    /* \"#utility.yul\":1490:1607   */\ntag_47:\n    /* \"#utility.yul\":1599:1600   */\n  0x00\n    /* \"#utility.yul\":1596:1597   */\n  dup1\n    /* \"#utility.yul\":1589:1601   */\n  revert\n    /* \"#utility.yul\":1613:1739   */\ntag_48:\n    /* \"#utility.yul\":1650:1657   */\n  0x00\n    /* \"#utility.yul\":1690:1732   */\n  0xffffffffffffffffffffffffffffffffffffffff\n    /* \"#utility.yul\":1683:1688   */\n  dup3\n    /* \"#utility.yul\":1679:1733   */\n  and\n    /* \"#utility.yul\":1668:1733   */\n  swap1\n  pop\n    /* \"#utility.yul\":1613:1739   */\n  swap2\n  swap1\n  pop\n  jump\t// out\n    /* \"#utility.yul\":1745:1841   */\ntag_49:\n    /* \"#utility.yul\":1782:1789   */\n  0x00\n    /* \"#utility.yul\":1811:1835   */\n  tag_85\n    /* \"#utility.yul\":1829:1834   */\n  dup3\n    /* \"#utility.yul\":1811:1835   */\n  tag_48\n  jump\t// in\ntag_85:\n    /* \"#utility.yul\":1800:1835   */\n  swap1\n  pop\n    /* \"#utility.yul\":1745:1841   */\n  swap2\n  swap1\n  pop\n  jump\t// out\n    /* \"#utility.yul\":1847:1969   */\ntag_50:\n    /* \"#utility.yul\":1920:1944   */\n  tag_87\n    /* \"#utility.yul\":1938:1943   */\n  dup2\n    /* \"#utility.yul\":1920:1944   */\n  tag_49\n  jump\t// in\ntag_87:\n    /* \"#utility.yul\":1913:1918   */\n  dup2\n    /* \"#utility.yul\":1910:1945   */\n  eq\n    /* \"#utility.yul\":1900:1963   */\n  tag_88\n  jumpi\n    /* \"#utility.yul\":1959:1960   */\n  0x00\n    /* \"#utility.yul\":1956:1957   */\n  dup1\n    /* \"#utility.yul\":1949:1961   */\n  revert\n    /* \"#utility.yul\":1900:1963   */\ntag_88:\n    /* \"#utility.yul\":1847:1969   */\n  pop\n  jump\t// out\n    /* \"#utility.yul\":1975:2118   */\ntag_51:\n    /* \"#utility.yul\":2032:2037   */\n  0x00\n    /* \"#utility.yul\":2063:2069   */\n  dup2\n    /* \"#utility.yul\":2057:2070   */\n  mload\n    /* \"#utility.yul\":2048:2070   */\n  swap1\n  pop\n    /* \"#utility.yul\":2079:2112   */\n  tag_90\n    /* \"#utility.yul\":2106:2111   */\n  dup2\n    /* \"#utility.yul\":2079:2112   */\n  tag_50\n  jump\t// in\ntag_90:\n    /* \"#utility.yul\":1975:2118   */\n  swap3\n  swap2\n  pop\n  pop\n  jump\t// out\n    /* \"#utility.yul\":2141:2873   */\ntag_52:\n    /* \"#utility.yul\":2248:2253   */\n  0x00\n    /* \"#utility.yul\":2273:2354   */\n  tag_92\n    /* \"#utility.yul\":2289:2353   */\n  tag_93\n    /* \"#utility.yul\":2346:2352   */\n  dup5\n    /* \"#utility.yul\":2289:2353   */\n  tag_46\n  jump\t// in\ntag_93:\n    /* \"#utility.yul\":2273:2354   */\n  tag_45\n  jump\t// in\ntag_92:\n    /* \"#utility.yul\":2264:2354   */\n  swap1\n  pop\n    /* \"#utility.yul\":2374:2379   */\n  dup1\n    /* \"#utility.yul\":2403:2409   */\n  dup4\n    /* \"#utility.yul\":2396:2401   */\n  dup3\n    /* \"#utility.yul\":2389:2410   */\n  mstore\n    /* \"#utility.yul\":2437:2441   */\n  0x20\n    /* \"#utility.yul\":2430:2435   */\n  dup3\n    /* \"#utility.yul\":2426:2442   */\n  add\n    /* \"#utility.yul\":2419:2442   */\n  swap1\n  pop\n    /* \"#utility.yul\":2490:2494   */\n  0x20\n    /* \"#utility.yul\":2482:2488   */\n  dup5\n    /* \"#utility.yul\":2478:2495   */\n  mul\n    /* \"#utility.yul\":2470:2476   */\n  dup4\n    /* \"#utility.yul\":2466:2496   */\n  add\n    /* \"#utility.yul\":2519:2522   */\n  dup6\n    /* \"#utility.yul\":2511:2517   */\n  dup2\n    /* \"#utility.yul\":2508:2523   */\n  gt\n    /* \"#utility.yul\":2505:2627   */\n  iszero\n  tag_94\n  jumpi\n    /* \"#utility.yul\":2538:2617   */\n  tag_95\n  tag_47\n  jump\t// in\ntag_95:\n    /* \"#utility.yul\":2505:2627   */\ntag_94:\n    /* \"#utility.yul\":2653:2659   */\n  dup4\n    /* \"#utility.yul\":2636:2867   */\ntag_96:\n    /* \"#utility.yul\":2670:2676   */\n  dup2\n    /* \"#utility.yul\":2665:2668   */\n  dup2\n    /* \"#utility.yul\":2662:2677   */\n  lt\n    /* \"#utility.yul\":2636:2867   */\n  iszero\n  tag_98\n  jumpi\n    /* \"#utility.yul\":2745:2748   */\n  dup1\n    /* \"#utility.yul\":2774:2822   */\n  tag_99\n    /* \"#utility.yul\":2818:2821   */\n  dup9\n    /* \"#utility.yul\":2806:2816   */\n  dup3\n    /* \"#utility.yul\":2774:2822   */\n  tag_51\n  jump\t// in\ntag_99:\n    /* \"#utility.yul\":2769:2772   */\n  dup5\n    /* \"#utility.yul\":2762:2823   */\n  mstore\n    /* \"#utility.yul\":2852:2856   */\n  0x20\n    /* \"#utility.yul\":2847:2850   */\n  dup5\n    /* \"#utility.yul\":2843:2857   */\n  add\n    /* \"#utility.yul\":2836:2857   */\n  swap4\n  pop\n    /* \"#utility.yul\":2712:2867   */\n  pop\n    /* \"#utility.yul\":2696:2700   */\n  0x20\n    /* \"#utility.yul\":2691:2694   */\n  dup2\n    /* \"#utility.yul\":2687:2701   */\n  add\n    /* \"#utility.yul\":2680:2701   */\n  swap1\n  pop\n    /* \"#utility.yul\":2636:2867   */\n  jump(tag_96)\ntag_98:\n    /* \"#utility.yul\":2640:2661   */\n  pop\n    /* \"#utility.yul\":2254:2873   */\n  pop\n  pop\n    /* \"#utility.yul\":2141:2873   */\n  swap4\n  swap3\n  pop\n  pop\n  pop\n  jump\t// out\n    /* \"#utility.yul\":2896:3281   */\ntag_53:\n    /* \"#utility.yul\":2978:2983   */\n  0x00\n    /* \"#utility.yul\":3027:3030   */\n  dup3\n    /* \"#utility.yul\":3020:3024   */\n  0x1f\n    /* \"#utility.yul\":3012:3018   */\n  dup4\n    /* \"#utility.yul\":3008:3025   */\n  add\n    /* \"#utility.yul\":3004:3031   */\n  slt\n    /* \"#utility.yul\":2994:3116   */\n  tag_101\n  jumpi\n    /* \"#utility.yul\":3035:3114   */\n  tag_102\n  tag_41\n  jump\t// in\ntag_102:\n    /* \"#utility.yul\":2994:3116   */\ntag_101:\n    /* \"#utility.yul\":3145:3151   */\n  dup2\n    /* \"#utility.yul\":3139:3152   */\n  mload\n    /* \"#utility.yul\":3170:3275   */\n  tag_103\n    /* \"#utility.yul\":3271:3274   */\n  dup5\n    /* \"#utility.yul\":3263:3269   */\n  dup3\n    /* \"#utility.yul\":3256:3260   */\n  0x20\n    /* \"#utility.yul\":3248:3254   */\n  dup7\n    /* \"#utility.yul\":3244:3261   */\n  add\n    /* \"#utility.yul\":3170:3275   */\n  tag_52\n  jump\t// in\ntag_103:\n    /* \"#utility.yul\":3161:3275   */\n  swap2\n  pop\n    /* \"#utility.yul\":2984:3281   */\n  pop\n    /* \"#utility.yul\":2896:3281   */\n  swap3\n  swap2\n  pop\n  pop\n  jump\t// out\n    /* \"#utility.yul\":3287:3364   */\ntag_54:\n    /* \"#utility.yul\":3324:3331   */\n  0x00\n    /* \"#utility.yul\":3353:3358   */\n  dup2\n    /* \"#utility.yul\":3342:3358   */\n  swap1\n  pop\n    /* \"#utility.yul\":3287:3364   */\n  swap2\n  swap1\n  pop\n  jump\t// out\n    /* \"#utility.yul\":3370:3492   */\ntag_55:\n    /* \"#utility.yul\":3443:3467   */\n  tag_106\n    /* \"#utility.yul\":3461:3466   */\n  dup2\n    /* \"#utility.yul\":3443:3467   */\n  tag_54\n  jump\t// in\ntag_106:\n    /* \"#utility.yul\":3436:3441   */\n  dup2\n    /* \"#utility.yul\":3433:3468   */\n  eq\n    /* \"#utility.yul\":3423:3486   */\n  tag_107\n  jumpi\n    /* \"#utility.yul\":3482:3483   */\n  0x00\n    /* \"#utility.yul\":3479:3480   */\n  dup1\n    /* \"#utility.yul\":3472:3484   */\n  revert\n    /* \"#utility.yul\":3423:3486   */\ntag_107:\n    /* \"#utility.yul\":3370:3492   */\n  pop\n  jump\t// out\n    /* \"#utility.yul\":3498:3641   */\ntag_56:\n    /* \"#utility.yul\":3555:3560   */\n  0x00\n    /* \"#utility.yul\":3586:3592   */\n  dup2\n    /* \"#utility.yul\":3580:3593   */\n  mload\n    /* \"#utility.yul\":3571:3593   */\n  swap1\n  pop\n    /* \"#utility.yul\":3602:3635   */\n  tag_109\n    /* \"#utility.yul\":3629:3634   */\n  dup2\n    /* \"#utility.yul\":3602:3635   */\n  tag_55\n  jump\t// in\ntag_109:\n    /* \"#utility.yul\":3498:3641   */\n  swap3\n  swap2\n  pop\n  pop\n  jump\t// out\n    /* \"#utility.yul\":3647:4357   */\ntag_3:\n    /* \"#utility.yul\":3751:3757   */\n  0x00\n    /* \"#utility.yul\":3759:3765   */\n  dup1\n    /* \"#utility.yul\":3808:3810   */\n  0x40\n    /* \"#utility.yul\":3796:3805   */\n  dup4\n    /* \"#utility.yul\":3787:3794   */\n  dup6\n    /* \"#utility.yul\":3783:3806   */\n  sub\n    /* \"#utility.yul\":3779:3811   */\n  slt\n    /* \"#utility.yul\":3776:3895   */\n  iszero\n  tag_111\n  jumpi\n    /* \"#utility.yul\":3814:3893   */\n  tag_112\n  tag_39\n  jump\t// in\ntag_112:\n    /* \"#utility.yul\":3776:3895   */\ntag_111:\n    /* \"#utility.yul\":3955:3956   */\n  0x00\n    /* \"#utility.yul\":3944:3953   */\n  dup4\n    /* \"#utility.yul\":3940:3957   */\n  add\n    /* \"#utility.yul\":3934:3958   */\n  mload\n    /* \"#utility.yul\":3985:4003   */\n  0xffffffffffffffff\n    /* \"#utility.yul\":3977:3983   */\n  dup2\n    /* \"#utility.yul\":3974:4004   */\n  gt\n    /* \"#utility.yul\":3971:4088   */\n  iszero\n  tag_113\n  jumpi\n    /* \"#utility.yul\":4007:4086   */\n  tag_114\n  tag_40\n  jump\t// in\ntag_114:\n    /* \"#utility.yul\":3971:4088   */\ntag_113:\n    /* \"#utility.yul\":4112:4201   */\n  tag_115\n    /* \"#utility.yul\":4193:4200   */\n  dup6\n    /* \"#utility.yul\":4184:4190   */\n  dup3\n    /* \"#utility.yul\":4173:4182   */\n  dup7\n    /* \"#utility.yul\":4169:4191   */\n  add\n    /* \"#utility.yul\":4112:4201   */\n  tag_53\n  jump\t// in\ntag_115:\n    /* \"#utility.yul\":4102:4201   */\n  swap3\n  pop\n    /* \"#utility.yul\":3905:4211   */\n  pop\n    /* \"#utility.yul\":4250:4252   */\n  0x20\n    /* \"#utility.yul\":4276:4340   */\n  tag_116\n    /* \"#utility.yul\":4332:4339   */\n  dup6\n    /* \"#utility.yul\":4323:4329   */\n  dup3\n    /* \"#utility.yul\":4312:4321   */\n  dup7\n    /* \"#utility.yul\":4308:4330   */\n  add\n    /* \"#utility.yul\":4276:4340   */\n  tag_56\n  jump\t// in\ntag_116:\n    /* \"#utility.yul\":4266:4340   */\n  swap2\n  pop\n    /* \"#utility.yul\":4221:4350   */\n  pop\n    /* \"#utility.yul\":3647:4357   */\n  swap3\n  pop\n  swap3\n  swap1\n  pop\n  jump\t// out\n    /* \"#utility.yul\":4363:4532   */\ntag_57:\n    /* \"#utility.yul\":4447:4458   */\n  0x00\n    /* \"#utility.yul\":4481:4487   */\n  dup3\n    /* \"#utility.yul\":4476:4479   */\n  dup3\n    /* \"#utility.yul\":4469:4488   */\n  mstore\n    /* \"#utility.yul\":4521:4525   */\n  0x20\n    /* \"#utility.yul\":4516:4519   */\n  dup3\n    /* \"#utility.yul\":4512:4526   */\n  add\n    /* \"#utility.yul\":4497:4526   */\n  swap1\n  pop\n    /* \"#utility.yul\":4363:4532   */\n  swap3\n  swap2\n  pop\n  pop\n  jump\t// out\n    /* \"#utility.yul\":4538:4716   */\ntag_58:\n    /* \"#utility.yul\":4678:4708   */\n  0x4174206c65617374206f6e65207369676e657220726571756972656400000000\n    /* \"#utility.yul\":4674:4675   */\n  0x00\n    /* \"#utility.yul\":4666:4672   */\n  dup3\n    /* \"#utility.yul\":4662:4676   */\n  add\n    /* \"#utility.yul\":4655:4709   */\n  mstore\n    /* \"#utility.yul\":4538:4716   */\n  pop\n  jump\t// out\n    /* \"#utility.yul\":4722:5088   */\ntag_59:\n    /* \"#utility.yul\":4864:4867   */\n  0x00\n    /* \"#utility.yul\":4885:4952   */\n  tag_120\n    /* \"#utility.yul\":4949:4951   */\n  0x1c\n    /* \"#utility.yul\":4944:4947   */\n  dup4\n    /* \"#utility.yul\":4885:4952   */\n  tag_57\n  jump\t// in\ntag_120:\n    /* \"#utility.yul\":4878:4952   */\n  swap2\n  pop\n    /* \"#utility.yul\":4961:5054   */\n  tag_121\n    /* \"#utility.yul\":5050:5053   */\n  dup3\n    /* \"#utility.yul\":4961:5054   */\n  tag_58\n  jump\t// in\ntag_121:\n    /* \"#utility.yul\":5079:5081   */\n  0x20\n    /* \"#utility.yul\":5074:5077   */\n  dup3\n    /* \"#utility.yul\":5070:5082   */\n  add\n    /* \"#utility.yul\":5063:5082   */\n  swap1\n  pop\n    /* \"#utility.yul\":4722:5088   */\n  swap2\n  swap1\n  pop\n  jump\t// out\n    /* \"#utility.yul\":5094:5513   */\ntag_8:\n    /* \"#utility.yul\":5260:5264   */\n  0x00\n    /* \"#utility.yul\":5298:5300   */\n  0x20\n    /* \"#utility.yul\":5287:5296   */\n  dup3\n    /* \"#utility.yul\":5283:5301   */\n  add\n    /* \"#utility.yul\":5275:5301   */\n  swap1\n  pop\n    /* \"#utility.yul\":5347:5356   */\n  dup2\n    /* \"#utility.yul\":5341:5345   */\n  dup2\n    /* \"#utility.yul\":5337:5357   */\n  sub\n    /* \"#utility.yul\":5333:5334   */\n  0x00\n    /* \"#utility.yul\":5322:5331   */\n  dup4\n    /* \"#utility.yul\":5318:5335   */\n  add\n    /* \"#utility.yul\":5311:5358   */\n  mstore\n    /* \"#utility.yul\":5375:5506   */\n  tag_123\n    /* \"#utility.yul\":5501:5505   */\n  dup2\n    /* \"#utility.yul\":5375:5506   */\n  tag_59\n  jump\t// in\ntag_123:\n    /* \"#utility.yul\":5367:5506   */\n  swap1\n  pop\n    /* \"#utility.yul\":5094:5513   */\n  swap2\n  swap1\n  pop\n  jump\t// out\n    /* \"#utility.yul\":5519:5686   */\ntag_60:\n    /* \"#utility.yul\":5659:5678   */\n  0x496e76616c6964207468726573686f6c64000000000000000000000000000000\n    /* \"#utility.yul\":5655:5656   */\n  0x00\n    /* \"#utility.yul\":5647:5653   */\n  dup3\n    /* \"#utility.yul\":5643:5657   */\n  add\n    /* \"#utility.yul\":5636:5679   */\n  mstore\n    /* \"#utility.yul\":5519:5686   */\n  pop\n  jump\t// out\n    /* \"#utility.yul\":5692:6058   */\ntag_61:\n    /* \"#utility.yul\":5834:5837   */\n  0x00\n    /* \"#utility.yul\":5855:5922   */\n  tag_126\n    /* \"#utility.yul\":5919:5921   */\n  0x11\n    /* \"#utility.yul\":5914:5917   */\n  dup4\n    /* \"#utility.yul\":5855:5922   */\n  tag_57\n  jump\t// in\ntag_126:\n    /* \"#utility.yul\":5848:5922   */\n  swap2\n  pop\n    /* \"#utility.yul\":5931:6024   */\n  tag_127\n    /* \"#utility.yul\":6020:6023   */\n  dup3\n    /* \"#utility.yul\":5931:6024   */\n  tag_60\n  jump\t// in\ntag_127:\n    /* \"#utility.yul\":6049:6051   */\n  0x20\n    /* \"#utility.yul\":6044:6047   */\n  dup3\n    /* \"#utility.yul\":6040:6052   */\n  add\n    /* \"#utility.yul\":6033:6052   */\n  swap1\n  pop\n    /* \"#utility.yul\":5692:6058   */\n  swap2\n  swap1\n  pop\n  jump\t// out\n    /* \"#utility.yul\":6064:6483   */\ntag_12:\n    /* \"#utility.yul\":6230:6234   */\n  0x00\n    /* \"#utility.yul\":6268:6270   */\n  0x20\n    /* \"#utility.yul\":6257:6266   */\n  dup3\n    /* \"#utility.yul\":6253:6271   */\n  add\n    /* \"#utility.yul\":6245:6271   */\n  swap1\n  pop\n    /* \"#utility.yul\":6317:6326   */\n  dup2\n    /* \"#utility.yul\":6311:6315   */\n  dup2\n    /* \"#utility.yul\":6307:6327   */\n  sub\n    /* \"#utility.yul\":6303:6304   */\n  0x00\n    /* \"#utility.yul\":6292:6301   */\n  dup4\n    /* \"#utility.yul\":6288:6305   */\n  add\n    /* \"#utility.yul\":6281:6328   */\n  mstore\n    /* \"#utility.yul\":6345:6476   */\n  tag_129\n    /* \"#utility.yul\":6471:6475   */\n  dup2\n    /* \"#utility.yul\":6345:6476   */\n  tag_61\n  jump\t// in\ntag_129:\n    /* \"#utility.yul\":6337:6476   */\n  swap1\n  pop\n    /* \"#utility.yul\":6064:6483   */\n  swap2\n  swap1\n  pop\n  jump\t// out\n    /* \"#utility.yul\":6489:6669   */\ntag_18:\n    /* \"#utility.yul\":6537:6614   */\n  0x4e487b7100000000000000000000000000000000000000000000000000000000\n    /* \"#utility.yul\":6534:6535   */\n  0x00\n    /* \"#utility.yul\":6527:6615   */\n  mstore\n    /* \"#utility.yul\":6634:6638   */\n  0x32\n    /* \"#utility.yul\":6631:6632   */\n  0x04\n    /* \"#utility.yul\":6624:6639   */\n  mstore\n    /* \"#utility.yul\":6658:6662   */\n  0x24\n    /* \"#utility.yul\":6655:6656   */\n  0x00\n    /* \"#utility.yul\":6648:6663   */\n  revert\n    /* \"#utility.yul\":6675:6847   */\ntag_62:\n    /* \"#utility.yul\":6815:6839   */\n  0x496e76616c6964207369676e6572206164647265737300000000000000000000\n    /* \"#utility.yul\":6811:6812   */\n  0x00\n    /* \"#utility.yul\":6803:6809   */\n  dup3\n    /* \"#utility.yul\":6799:6813   */\n  add\n    /* \"#utility.yul\":6792:6840   */\n  mstore\n    /* \"#utility.yul\":6675:6847   */\n  pop\n  jump\t// out\n    /* \"#utility.yul\":6853:7219   */\ntag_63:\n    /* \"#utility.yul\":6995:6998   */\n  0x00\n    /* \"#utility.yul\":7016:7083   */\n  tag_133\n    /* \"#utility.yul\":7080:7082   */\n  0x16\n    /* \"#utility.yul\":7075:7078   */\n  dup4\n    /* \"#utility.yul\":7016:7083   */\n  tag_57\n  jump\t// in\ntag_133:\n    /* \"#utility.yul\":7009:7083   */\n  swap2\n  pop\n    /* \"#utility.yul\":7092:7185   */\n  tag_134\n    /* \"#utility.yul\":7181:7184   */\n  dup3\n    /* \"#utility.yul\":7092:7185   */\n  tag_62\n  jump\t// in\ntag_134:\n    /* \"#utility.yul\":7210:7212   */\n  0x20\n    /* \"#utility.yul\":7205:7208   */\n  dup3\n    /* \"#utility.yul\":7201:7213   */\n  add\n    /* \"#utility.yul\":7194:7213   */\n  swap1\n  pop\n    /* \"#utility.yul\":6853:7219   */\n  swap2\n  swap1\n  pop\n  jump\t// out\n    /* \"#utility.yul\":7225:7644   */\ntag_21:\n    /* \"#utility.yul\":7391:7395   */\n  0x00\n    /* \"#utility.yul\":7429:7431   */\n  0x20\n    /* \"#utility.yul\":7418:7427   */\n  dup3\n    /* \"#utility.yul\":7414:7432   */\n  add\n    /* \"#utility.yul\":7406:7432   */\n  swap1\n  pop\n    /* \"#utility.yul\":7478:7487   */\n  dup2\n    /* \"#utility.yul\":7472:7476   */\n  dup2\n    /* \"#utility.yul\":7468:7488   */\n  sub\n    /* \"#utility.yul\":7464:7465   */\n  0x00\n    /* \"#utility.yul\":7453:7462   */\n  dup4\n    /* \"#utility.yul\":7449:7466   */\n  add\n    /* \"#utility.yul\":7442:7489   */\n  mstore\n    /* \"#utility.yul\":7506:7637   */\n  tag_136\n    /* \"#utility.yul\":7632:7636   */\n  dup2\n    /* \"#utility.yul\":7506:7637   */\n  tag_63\n  jump\t// in\ntag_136:\n    /* \"#utility.yul\":7498:7637   */\n  swap1\n  pop\n    /* \"#utility.yul\":7225:7644   */\n  swap2\n  swap1\n  pop\n  jump\t// out\n    /* \"#utility.yul\":7650:7830   */\ntag_64:\n    /* \"#utility.yul\":7698:7775   */\n  0x4e487b7100000000000000000000000000000000000000000000000000000000\n    /* \"#utility.yul\":7695:7696   */\n  0x00\n    /* \"#utility.yul\":7688:7776   */\n  mstore\n    /* \"#utility.yul\":7795:7799   */\n  0x11\n    /* \"#utility.yul\":7792:7793   */\n  0x04\n    /* \"#utility.yul\":7785:7800   */\n  mstore\n    /* \"#utility.yul\":7819:7823   */\n  0x24\n    /* \"#utility.yul\":7816:7817   */\n  0x00\n    /* \"#utility.yul\":7809:7824   */\n  revert\n    /* \"#utility.yul\":7836:8069   */\ntag_27:\n    /* \"#utility.yul\":7875:7878   */\n  0x00\n    /* \"#utility.yul\":7898:7922   */\n  tag_139\n    /* \"#utility.yul\":7916:7921   */\n  dup3\n    /* \"#utility.yul\":7898:7922   */\n  tag_54\n  jump\t// in\ntag_139:\n    /* \"#utility.yul\":7889:7922   */\n  swap2\n  pop\n    /* \"#utility.yul\":7944:8010   */\n  0xffffffffffffffffffffffffffffffffffffffffffffffffffffffffffffffff\n    /* \"#utility.yul\":7937:7942   */\n  dup3\n    /* \"#utility.yul\":7934:8011   */\n  sub\n    /* \"#utility.yul\":7931:8034   */\n  tag_140\n  jumpi\n    /* \"#utility.yul\":8014:8032   */\n  tag_141\n  tag_64\n  jump\t// in\ntag_141:\n    /* \"#utility.yul\":7931:8034   */\ntag_140:\n    /* \"#utility.yul\":8061:8062   */\n  0x01\n    /* \"#utility.yul\":8054:8059   */\n  dup3\n    /* \"#utility.yul\":8050:8063   */\n  add\n    /* \"#utility.yul\":8043:8063   */\n  swap1\n  pop\n    /* \"#utility.yul\":7836:8069   */\n  swap2\n  swap1\n  pop\n  jump\t// out\n    /* \"practise3.3/MultiSignatureWallet.sol\":61:6329  contract MultiSigWallet {... */\ntag_28:\n  dataSize(sub_0)\n  dup1\n  dataOffset(sub_0)\n  0x00\n  codecopy\n  0x00\n  return\nstop\n\nsub_0: assembly {\n        /* \"practise3.3/MultiSignatureWallet.sol\":61:6329  contract MultiSigWallet {... */\n      mstore(0x40, 0x80)\n      jumpi(tag_1, lt(calldatasize, 0x04))\n      shr(0xe0, calldataload(0x00))\n      dup1\n      0x94cf795e\n      gt\n      tag_15\n      jumpi\n      dup1\n      0x94cf795e\n      eq\n      tag_9\n      jumpi\n      dup1\n      0x9ace38c2\n      eq\n      tag_10\n      jumpi\n      dup1\n      0xb77bf600\n      eq\n      tag_11\n      jumpi\n      dup1\n      0xc01a8c84\n      eq\n      tag_12\n      jumpi\n      dup1\n      0xd7d7442f\n      eq\n      tag_13\n      jumpi\n      dup1\n      0xeb12d61e\n      eq\n      tag_14\n      jumpi\n      jump(tag_2)\n    tag_15:\n      dup1\n      0x08aff933\n      eq\n      tag_3\n      jumpi\n      dup1\n      0x0fa683d3\n      eq\n      tag_4\n      jumpi\n      dup1\n      0x2079fb9a\n      eq\n      tag_5\n      jumpi\n      dup1\n      0x42cde4e8\n      eq\n      tag_6\n      jumpi\n      dup1\n      0x5e90852d\n      eq\n      tag_7\n      jumpi\n      dup1\n      0x7df73e27\n      eq\n      tag_8\n      jumpi\n      jump(tag_2)\n    tag_1:\n      jumpi(tag_2, calldatasize)\n      stop\n    tag_2:\n      0x00\n      dup1\n      revert\n        /* \"practise3.3/MultiSignatureWallet.sol\":5987:6235  function hasConfirmed(uint256 txId, address signer)... */\n    tag_3:\n      callvalue\n      dup1\n      iszero\n      tag_18\n      jumpi\n      0x00\n      dup1\n      revert\n    tag_18:\n      pop\n      tag_19\n      0x04\n      dup1\n      calldatasize\n      sub\n      dup2\n      add\n      swap1\n      tag_20\n      swap2\n      swap1\n      tag_21\n      jump\t// in\n    tag_20:\n      tag_22\n      jump\t// in\n    tag_19:\n      mload(0x40)\n      tag_23\n      swap2\n      swap1\n      tag_24\n      jump\t// in\n    tag_23:\n      mload(0x40)\n      dup1\n      swap2\n      sub\n      swap1\n      return\n        /* \"practise3.3/MultiSignatureWallet.sol\":5381:5931  function getTransactionDetails(uint256 txId)... */\n    tag_4:\n      callvalue\n      dup1\n      iszero\n      tag_25\n      jumpi\n      0x00\n      dup1\n      revert\n    tag_25:\n      pop\n      tag_26\n      0x04\n      dup1\n      calldatasize\n      sub\n      dup2\n      add\n      swap1\n      tag_27\n      swap2\n      swap1\n      tag_28\n      jump\t// in\n    tag_27:\n      tag_29\n      jump\t// in\n    tag_26:\n      mload(0x40)\n      tag_30\n      swap6\n      swap5\n      swap4\n      swap3\n      swap2\n      swap1\n      tag_31\n      jump\t// in\n    tag_30:\n      mload(0x40)\n      dup1\n      swap2\n      sub\n      swap1\n      return\n        /* \"practise3.3/MultiSignatureWallet.sol\":113:137  address[] public signers */\n    tag_5:\n      callvalue\n      dup1\n      iszero\n      tag_32\n      jumpi\n      0x00\n      dup1\n      revert\n    tag_32:\n      pop\n      tag_33\n      0x04\n      dup1\n      calldatasize\n      sub\n      dup2\n      add\n      swap1\n      tag_34\n      swap2\n      swap1\n      tag_28\n      jump\t// in\n    tag_34:\n      tag_35\n      jump\t// in\n    tag_33:\n      mload(0x40)\n      tag_36\n      swap2\n      swap1\n      tag_37\n      jump\t// in\n    tag_36:\n      mload(0x40)\n      dup1\n      swap2\n      sub\n      swap1\n      return\n        /* \"practise3.3/MultiSignatureWallet.sol\":163:187  uint256 public threshold */\n    tag_6:\n      callvalue\n      dup1\n      iszero\n      tag_38\n      jumpi\n      0x00\n      dup1\n      revert\n    tag_38:\n      pop\n      tag_39\n      tag_40\n      jump\t// in\n    tag_39:\n      mload(0x40)\n      tag_41\n      swap2\n      swap1\n      tag_42\n      jump\t// in\n    tag_41:\n      mload(0x40)\n      dup1\n      swap2\n      sub\n      swap1\n      return\n        /* \"practise3.3/MultiSignatureWallet.sol\":3547:4131  function proposeTransaction(... */\n    tag_7:\n      callvalue\n      dup1\n      iszero\n      tag_43\n      jumpi\n      0x00\n      dup1\n      revert\n    tag_43:\n      pop\n      tag_44\n      0x04\n      dup1\n      calldatasize\n      sub\n      dup2\n      add\n      swap1\n      tag_45\n      swap2\n      swap1\n      tag_46\n      jump\t// in\n    tag_45:\n      tag_47\n      jump\t// in\n    tag_44:\n      mload(0x40)\n      tag_48\n      swap2\n      swap1\n      tag_42\n      jump\t// in\n    tag_48:\n      mload(0x40)\n      dup1\n      swap2\n      sub\n      swap1\n      return\n        /* \"practise3.3/MultiSignatureWallet.sol\":2423:2670  function isSigner(address account) public view returns (bool) {... */\n    tag_8:\n      callvalue\n      dup1\n      iszero\n      tag_49\n      jumpi\n      0x00\n      dup1\n      revert\n    tag_49:\n      pop\n      tag_50\n      0x04\n      dup1\n      calldatasize\n      sub\n      dup2\n      add\n      swap1\n      tag_51\n      swap2\n      swap1\n      tag_52\n      jump\t// in\n    tag_51:\n      tag_53\n      jump\t// in\n    tag_50:\n      mload(0x40)\n      tag_54\n      swap2\n      swap1\n      tag_24\n      jump\t// in\n    tag_54:\n      mload(0x40)\n      dup1\n      swap2\n      sub\n      swap1\n      return\n        /* \"practise3.3/MultiSignatureWallet.sol\":2708:2802  function getSigners() public view returns (address[] memory) {... */\n    tag_9:\n      callvalue\n      dup1\n      iszero\n      tag_55\n      jumpi\n      0x00\n      dup1\n      revert\n    tag_55:\n      pop\n      tag_56\n      tag_57\n      jump\t// in\n    tag_56:\n      mload(0x40)\n      tag_58\n      swap2\n      swap1\n      tag_59\n      jump\t// in\n    tag_58:\n      mload(0x40)\n      dup1\n      swap2\n      sub\n      swap1\n      return\n        /* \"practise3.3/MultiSignatureWallet.sol\":744:795  mapping(uint256 => Transaction) public transactions */\n    tag_10:\n      callvalue\n      dup1\n      iszero\n      tag_60\n      jumpi\n      0x00\n      dup1\n      revert\n    tag_60:\n      pop\n      tag_61\n      0x04\n      dup1\n      calldatasize\n      sub\n      dup2\n      add\n      swap1\n      tag_62\n      swap2\n      swap1\n      tag_28\n      jump\t// in\n    tag_62:\n      tag_63\n      jump\t// in\n    tag_61:\n      mload(0x40)\n      tag_64\n      swap6\n      swap5\n      swap4\n      swap3\n      swap2\n      swap1\n      tag_31\n      jump\t// in\n    tag_64:\n      mload(0x40)\n      dup1\n      swap2\n      sub\n      swap1\n      return\n        /* \"practise3.3/MultiSignatureWallet.sol\":238:269  uint256 public transactionCount */\n    tag_11:\n      callvalue\n      dup1\n      iszero\n      tag_65\n      jumpi\n      0x00\n      dup1\n      revert\n    tag_65:\n      pop\n      tag_66\n      tag_67\n      jump\t// in\n    tag_66:\n      mload(0x40)\n      tag_68\n      swap2\n      swap1\n      tag_42\n      jump\t// in\n    tag_68:\n      mload(0x40)\n      dup1\n      swap2\n      sub\n      swap1\n      return\n        /* \"practise3.3/MultiSignatureWallet.sol\":4214:4730  function confirmTransaction(uint256 txId)... */\n    tag_12:\n      callvalue\n      dup1\n      iszero\n      tag_69\n      jumpi\n      0x00\n      dup1\n      revert\n    tag_69:\n      pop\n      tag_70\n      0x04\n      dup1\n      calldatasize\n      sub\n      dup2\n      add\n      swap1\n      tag_71\n      swap2\n      swap1\n      tag_28\n      jump\t// in\n    tag_71:\n      tag_72\n      jump\t// in\n    tag_70:\n      stop\n        /* \"practise3.3/MultiSignatureWallet.sol\":3203:3485  function updateThreshold(uint256 newThreshold) public onlySigner {... */\n    tag_13:\n      callvalue\n      dup1\n      iszero\n      tag_73\n      jumpi\n      0x00\n      dup1\n      revert\n    tag_73:\n      pop\n      tag_74\n      0x04\n      dup1\n      calldatasize\n      sub\n      dup2\n      add\n      swap1\n      tag_75\n      swap2\n      swap1\n      tag_28\n      jump\t// in\n    tag_75:\n      tag_76\n      jump\t// in\n    tag_74:\n      stop\n        /* \"practise3.3/MultiSignatureWallet.sol\":2870:3135  function addSigner(address newSigner) public onlySigner {... */\n    tag_14:\n      callvalue\n      dup1\n      iszero\n      tag_77\n      jumpi\n      0x00\n      dup1\n      revert\n    tag_77:\n      pop\n      tag_78\n      0x04\n      dup1\n      calldatasize\n      sub\n      dup2\n      add\n      swap1\n      tag_79\n      swap2\n      swap1\n      tag_52\n      jump\t// in\n    tag_79:\n      tag_80\n      jump\t// in\n    tag_78:\n      stop\n        /* \"practise3.3/MultiSignatureWallet.sol\":5987:6235  function hasConfirmed(uint256 txId, address signer)... */\n    tag_22:\n        /* \"practise3.3/MultiSignatureWallet.sol\":6087:6091  bool */\n      0x00\n        /* \"practise3.3/MultiSignatureWallet.sol\":6124:6140  transactionCount */\n      sload(0x02)\n        /* \"practise3.3/MultiSignatureWallet.sol\":6117:6121  txId */\n      dup4\n        /* \"practise3.3/MultiSignatureWallet.sol\":6117:6140  txId < transactionCount */\n      lt\n        /* \"practise3.3/MultiSignatureWallet.sol\":6109:6171  require(txId < transactionCount, \"Transaction does not exist\") */\n      tag_82\n      jumpi\n      mload(0x40)\n      0x08c379a000000000000000000000000000000000000000000000000000000000\n      dup2\n      mstore\n      0x04\n      add\n      tag_83\n      swap1\n      tag_84\n      jump\t// in\n    tag_83:\n      mload(0x40)\n      dup1\n      swap2\n      sub\n      swap1\n      revert\n    tag_82:\n        /* \"practise3.3/MultiSignatureWallet.sol\":6189:6201  transactions */\n      0x03\n        /* \"practise3.3/MultiSignatureWallet.sol\":6189:6207  transactions[txId] */\n      0x00\n        /* \"practise3.3/MultiSignatureWallet.sol\":6202:6206  txId */\n      dup5\n        /* \"practise3.3/MultiSignatureWallet.sol\":6189:6207  transactions[txId] */\n      dup2\n      mstore\n      0x20\n      add\n      swap1\n      dup2\n      mstore\n      0x20\n      add\n      0x00\n      keccak256\n        /* \"practise3.3/MultiSignatureWallet.sol\":6189:6219  transactions[txId].isConfirmed */\n      0x05\n      add\n        /* \"practise3.3/MultiSignatureWallet.sol\":6189:6227  transactions[txId].isConfirmed[signer] */\n      0x00\n        /* \"practise3.3/MultiSignatureWallet.sol\":6220:6226  signer */\n      dup4\n        /* \"practise3.3/MultiSignatureWallet.sol\":6189:6227  transactions[txId].isConfirmed[signer] */\n      0xffffffffffffffffffffffffffffffffffffffff\n      and\n      0xffffffffffffffffffffffffffffffffffffffff\n      and\n      dup2\n      mstore\n      0x20\n      add\n      swap1\n      dup2\n      mstore\n      0x20\n      add\n      0x00\n      keccak256\n      0x00\n      swap1\n      sload\n      swap1\n      0x0100\n      exp\n      swap1\n      div\n      0xff\n      and\n        /* \"practise3.3/MultiSignatureWallet.sol\":6182:6227  return transactions[txId].isConfirmed[signer] */\n      swap1\n      pop\n        /* \"practise3.3/MultiSignatureWallet.sol\":5987:6235  function hasConfirmed(uint256 txId, address signer)... */\n      swap3\n      swap2\n      pop\n      pop\n      jump\t// out\n        /* \"practise3.3/MultiSignatureWallet.sol\":5381:5931  function getTransactionDetails(uint256 txId)... */\n    tag_29:\n        /* \"practise3.3/MultiSignatureWallet.sol\":5488:5498  address to */\n      0x00\n        /* \"practise3.3/MultiSignatureWallet.sol\":5513:5526  uint256 value */\n      dup1\n        /* \"practise3.3/MultiSignatureWallet.sol\":5541:5558  bytes memory data */\n      0x60\n        /* \"practise3.3/MultiSignatureWallet.sol\":5573:5586  bool executed */\n      0x00\n        /* \"practise3.3/MultiSignatureWallet.sol\":5601:5622  uint256 confirmations */\n      dup1\n        /* \"practise3.3/MultiSignatureWallet.sol\":5665:5681  transactionCount */\n      sload(0x02)\n        /* \"practise3.3/MultiSignatureWallet.sol\":5658:5662  txId */\n      dup7\n        /* \"practise3.3/MultiSignatureWallet.sol\":5658:5681  txId < transactionCount */\n      lt\n        /* \"practise3.3/MultiSignatureWallet.sol\":5650:5712  require(txId < transactionCount, \"Transaction does not exist\") */\n      tag_86\n      jumpi\n      mload(0x40)\n      0x08c379a000000000000000000000000000000000000000000000000000000000\n      dup2\n      mstore\n      0x04\n      add\n      tag_87\n      swap1\n      tag_84\n      jump\t// in\n    tag_87:\n      mload(0x40)\n      dup1\n      swap2\n      sub\n      swap1\n      revert\n    tag_86:\n        /* \"practise3.3/MultiSignatureWallet.sol\":5723:5746  Transaction storage txn */\n      0x00\n        /* \"practise3.3/MultiSignatureWallet.sol\":5749:5761  transactions */\n      0x03\n        /* \"practise3.3/MultiSignatureWallet.sol\":5749:5767  transactions[txId] */\n      0x00\n        /* \"practise3.3/MultiSignatureWallet.sol\":5762:5766  txId */\n      dup9\n        /* \"practise3.3/MultiSignatureWallet.sol\":5749:5767  transactions[txId] */\n      dup2\n      mstore\n      0x20\n      add\n      swap1\n      dup2\n      mstore\n      0x20\n      add\n      0x00\n      keccak256\n        /* \"practise3.3/MultiSignatureWallet.sol\":5723:5767  Transaction storage txn = transactions[txId] */\n      swap1\n      pop\n        /* \"practise3.3/MultiSignatureWallet.sol\":5800:5803  txn */\n      dup1\n        /* \"practise3.3/MultiSignatureWallet.sol\":5800:5806  txn.to */\n      0x00\n      add\n      0x00\n      swap1\n      sload\n      swap1\n      0x0100\n      exp\n      swap1\n      div\n      0xffffffffffffffffffffffffffffffffffffffff\n      and\n        /* \"practise3.3/MultiSignatureWallet.sol\":5821:5824  txn */\n      dup2\n        /* \"practise3.3/MultiSignatureWallet.sol\":5821:5830  txn.value */\n      0x01\n      add\n      sload\n        /* \"practise3.3/MultiSignatureWallet.sol\":5845:5848  txn */\n      dup3\n        /* \"practise3.3/MultiSignatureWallet.sol\":5845:5853  txn.data */\n      0x02\n      add\n        /* \"practise3.3/MultiSignatureWallet.sol\":5868:5871  txn */\n      dup4\n        /* \"practise3.3/MultiSignatureWallet.sol\":5868:5880  txn.executed */\n      0x03\n      add\n      0x00\n      swap1\n      sload\n      swap1\n      0x0100\n      exp\n      swap1\n      div\n      0xff\n      and\n        /* \"practise3.3/MultiSignatureWallet.sol\":5895:5898  txn */\n      dup5\n        /* \"practise3.3/MultiSignatureWallet.sol\":5895:5912  txn.confirmations */\n      0x04\n      add\n      sload\n        /* \"practise3.3/MultiSignatureWallet.sol\":5778:5923  return (... */\n      dup3\n      dup1\n      sload\n      tag_88\n      swap1\n      tag_89\n      jump\t// in\n    tag_88:\n      dup1\n      0x1f\n      add\n      0x20\n      dup1\n      swap2\n      div\n      mul\n      0x20\n      add\n      mload(0x40)\n      swap1\n      dup2\n      add\n      0x40\n      mstore\n      dup1\n      swap3\n      swap2\n      swap1\n      dup2\n      dup2\n      mstore\n      0x20\n      add\n      dup3\n      dup1\n      sload\n      tag_90\n      swap1\n      tag_89\n      jump\t// in\n    tag_90:\n      dup1\n      iszero\n      tag_91\n      jumpi\n      dup1\n      0x1f\n      lt\n      tag_92\n      jumpi\n      0x0100\n      dup1\n      dup4\n      sload\n      div\n      mul\n      dup4\n      mstore\n      swap2\n      0x20\n      add\n      swap2\n      jump(tag_91)\n    tag_92:\n      dup3\n      add\n      swap2\n      swap1\n      0x00\n      mstore\n      keccak256(0x00, 0x20)\n      swap1\n    tag_93:\n      dup2\n      sload\n      dup2\n      mstore\n      swap1\n      0x01\n      add\n      swap1\n      0x20\n      add\n      dup1\n      dup4\n      gt\n      tag_93\n      jumpi\n      dup3\n      swap1\n      sub\n      0x1f\n      and\n      dup3\n      add\n      swap2\n    tag_91:\n      pop\n      pop\n      pop\n      pop\n      pop\n      swap3\n      pop\n      swap6\n      pop\n      swap6\n      pop\n      swap6\n      pop\n      swap6\n      pop\n      swap6\n      pop\n      pop\n        /* \"practise3.3/MultiSignatureWallet.sol\":5381:5931  function getTransactionDetails(uint256 txId)... */\n      swap2\n      swap4\n      swap6\n      swap1\n      swap3\n      swap5\n      pop\n      jump\t// out\n        /* \"practise3.3/MultiSignatureWallet.sol\":113:137  address[] public signers */\n    tag_35:\n      0x00\n      dup2\n      dup2\n      sload\n      dup2\n      lt\n      tag_94\n      jumpi\n      0x00\n      dup1\n      revert\n    tag_94:\n      swap1\n      0x00\n      mstore\n      keccak256(0x00, 0x20)\n      add\n      0x00\n      swap2\n      pop\n      sload\n      swap1\n      0x0100\n      exp\n      swap1\n      div\n      0xffffffffffffffffffffffffffffffffffffffff\n      and\n      dup2\n      jump\t// out\n        /* \"practise3.3/MultiSignatureWallet.sol\":163:187  uint256 public threshold */\n    tag_40:\n      sload(0x01)\n      dup2\n      jump\t// out\n        /* \"practise3.3/MultiSignatureWallet.sol\":3547:4131  function proposeTransaction(... */\n    tag_47:\n        /* \"practise3.3/MultiSignatureWallet.sol\":3682:3694  uint256 txId */\n      0x00\n        /* \"practise3.3/MultiSignatureWallet.sol\":1321:1341  isSigner(msg.sender) */\n      tag_97\n        /* \"practise3.3/MultiSignatureWallet.sol\":1330:1340  msg.sender */\n      caller\n        /* \"practise3.3/MultiSignatureWallet.sol\":1321:1329  isSigner */\n      tag_53\n        /* \"practise3.3/MultiSignatureWallet.sol\":1321:1341  isSigner(msg.sender) */\n      jump\t// in\n    tag_97:\n        /* \"practise3.3/MultiSignatureWallet.sol\":1313:1358  require(isSigner(msg.sender), \"Not a signer\") */\n      tag_98\n      jumpi\n      mload(0x40)\n      0x08c379a000000000000000000000000000000000000000000000000000000000\n      dup2\n      mstore\n      0x04\n      add\n      tag_99\n      swap1\n      tag_100\n      jump\t// in\n    tag_99:\n      mload(0x40)\n      dup1\n      swap2\n      sub\n      swap1\n      revert\n    tag_98:\n        /* \"practise3.3/MultiSignatureWallet.sol\":3729:3730  0 */\n      0x00\n        /* \"practise3.3/MultiSignatureWallet.sol\":3715:3731  to != address(0) */\n      0xffffffffffffffffffffffffffffffffffffffff\n      and\n        /* \"practise3.3/MultiSignatureWallet.sol\":3715:3717  to */\n      dup5\n        /* \"practise3.3/MultiSignatureWallet.sol\":3715:3731  to != address(0) */\n      0xffffffffffffffffffffffffffffffffffffffff\n      and\n      sub\n        /* \"practise3.3/MultiSignatureWallet.sol\":3707:3758  require(to != address(0), \"Invalid target address\") */\n      tag_102\n      jumpi\n      mload(0x40)\n      0x08c379a000000000000000000000000000000000000000000000000000000000\n      dup2\n      mstore\n      0x04\n      add\n      tag_103\n      swap1\n      tag_104\n      jump\t// in\n    tag_103:\n      mload(0x40)\n      dup1\n      swap2\n      sub\n      swap1\n      revert\n    tag_102:\n        /* \"practise3.3/MultiSignatureWallet.sol\":3776:3792  transactionCount */\n      sload(0x02)\n        /* \"practise3.3/MultiSignatureWallet.sol\":3769:3792  txId = transactionCount */\n      swap1\n      pop\n        /* \"practise3.3/MultiSignatureWallet.sol\":3839:3862  Transaction storage txn */\n      0x00\n        /* \"practise3.3/MultiSignatureWallet.sol\":3865:3877  transactions */\n      0x03\n        /* \"practise3.3/MultiSignatureWallet.sol\":3865:3883  transactions[txId] */\n      0x00\n        /* \"practise3.3/MultiSignatureWallet.sol\":3878:3882  txId */\n      dup4\n        /* \"practise3.3/MultiSignatureWallet.sol\":3865:3883  transactions[txId] */\n      dup2\n      mstore\n      0x20\n      add\n      swap1\n      dup2\n      mstore\n      0x20\n      add\n      0x00\n      keccak256\n        /* \"practise3.3/MultiSignatureWallet.sol\":3839:3883  Transaction storage txn = transactions[txId] */\n      swap1\n      pop\n        /* \"practise3.3/MultiSignatureWallet.sol\":3903:3905  to */\n      dup5\n        /* \"practise3.3/MultiSignatureWallet.sol\":3894:3897  txn */\n      dup2\n        /* \"practise3.3/MultiSignatureWallet.sol\":3894:3900  txn.to */\n      0x00\n      add\n      0x00\n        /* \"practise3.3/MultiSignatureWallet.sol\":3894:3905  txn.to = to */\n      0x0100\n      exp\n      dup2\n      sload\n      dup2\n      0xffffffffffffffffffffffffffffffffffffffff\n      mul\n      not\n      and\n      swap1\n      dup4\n      0xffffffffffffffffffffffffffffffffffffffff\n      and\n      mul\n      or\n      swap1\n      sstore\n      pop\n        /* \"practise3.3/MultiSignatureWallet.sol\":3928:3933  value */\n      dup4\n        /* \"practise3.3/MultiSignatureWallet.sol\":3916:3919  txn */\n      dup2\n        /* \"practise3.3/MultiSignatureWallet.sol\":3916:3925  txn.value */\n      0x01\n      add\n        /* \"practise3.3/MultiSignatureWallet.sol\":3916:3933  txn.value = value */\n      dup2\n      swap1\n      sstore\n      pop\n        /* \"practise3.3/MultiSignatureWallet.sol\":3955:3959  data */\n      dup3\n        /* \"practise3.3/MultiSignatureWallet.sol\":3944:3947  txn */\n      dup2\n        /* \"practise3.3/MultiSignatureWallet.sol\":3944:3952  txn.data */\n      0x02\n      add\n        /* \"practise3.3/MultiSignatureWallet.sol\":3944:3959  txn.data = data */\n      swap1\n      dup2\n      tag_105\n      swap2\n      swap1\n      tag_106\n      jump\t// in\n    tag_105:\n      pop\n        /* \"practise3.3/MultiSignatureWallet.sol\":3985:3990  false */\n      0x00\n        /* \"practise3.3/MultiSignatureWallet.sol\":3970:3973  txn */\n      dup2\n        /* \"practise3.3/MultiSignatureWallet.sol\":3970:3982  txn.executed */\n      0x03\n      add\n      0x00\n        /* \"practise3.3/MultiSignatureWallet.sol\":3970:3990  txn.executed = false */\n      0x0100\n      exp\n      dup2\n      sload\n      dup2\n      0xff\n      mul\n      not\n      and\n      swap1\n      dup4\n      iszero\n      iszero\n      mul\n      or\n      swap1\n      sstore\n      pop\n        /* \"practise3.3/MultiSignatureWallet.sol\":4021:4022  0 */\n      0x00\n        /* \"practise3.3/MultiSignatureWallet.sol\":4001:4004  txn */\n      dup2\n        /* \"practise3.3/MultiSignatureWallet.sol\":4001:4018  txn.confirmations */\n      0x04\n      add\n        /* \"practise3.3/MultiSignatureWallet.sol\":4001:4022  txn.confirmations = 0 */\n      dup2\n      swap1\n      sstore\n      pop\n        /* \"practise3.3/MultiSignatureWallet.sol\":4035:4051  transactionCount */\n      0x02\n      0x00\n        /* \"practise3.3/MultiSignatureWallet.sol\":4035:4053  transactionCount++ */\n      dup2\n      sload\n      dup1\n      swap3\n      swap2\n      swap1\n      tag_107\n      swap1\n      tag_108\n      jump\t// in\n    tag_107:\n      swap2\n      swap1\n      pop\n      sstore\n      pop\n        /* \"practise3.3/MultiSignatureWallet.sol\":4107:4109  to */\n      dup5\n        /* \"practise3.3/MultiSignatureWallet.sol\":4069:4123  TransactionProposed(txId, msg.sender, to, value, data) */\n      0xffffffffffffffffffffffffffffffffffffffff\n      and\n        /* \"practise3.3/MultiSignatureWallet.sol\":4095:4105  msg.sender */\n      caller\n        /* \"practise3.3/MultiSignatureWallet.sol\":4069:4123  TransactionProposed(txId, msg.sender, to, value, data) */\n      0xffffffffffffffffffffffffffffffffffffffff\n      and\n        /* \"practise3.3/MultiSignatureWallet.sol\":4089:4093  txId */\n      dup4\n        /* \"practise3.3/MultiSignatureWallet.sol\":4069:4123  TransactionProposed(txId, msg.sender, to, value, data) */\n      0xf13a7a4144a3232fd093fca16be52a8223bad74cee86d5fa8966c7061e75bfd3\n        /* \"practise3.3/MultiSignatureWallet.sol\":4111:4116  value */\n      dup8\n        /* \"practise3.3/MultiSignatureWallet.sol\":4118:4122  data */\n      dup8\n        /* \"practise3.3/MultiSignatureWallet.sol\":4069:4123  TransactionProposed(txId, msg.sender, to, value, data) */\n      mload(0x40)\n      tag_109\n      swap3\n      swap2\n      swap1\n      tag_110\n      jump\t// in\n    tag_109:\n      mload(0x40)\n      dup1\n      swap2\n      sub\n      swap1\n      log4\n        /* \"practise3.3/MultiSignatureWallet.sol\":3696:4131  {... */\n      pop\n        /* \"practise3.3/MultiSignatureWallet.sol\":3547:4131  function proposeTransaction(... */\n      swap4\n      swap3\n      pop\n      pop\n      pop\n      jump\t// out\n        /* \"practise3.3/MultiSignatureWallet.sol\":2423:2670  function isSigner(address account) public view returns (bool) {... */\n    tag_53:\n        /* \"practise3.3/MultiSignatureWallet.sol\":2479:2483  bool */\n      0x00\n        /* \"practise3.3/MultiSignatureWallet.sol\":2501:2510  uint256 i */\n      dup1\n        /* \"practise3.3/MultiSignatureWallet.sol\":2513:2514  0 */\n      0x00\n        /* \"practise3.3/MultiSignatureWallet.sol\":2501:2514  uint256 i = 0 */\n      swap1\n      pop\n        /* \"practise3.3/MultiSignatureWallet.sol\":2496:2640  for (uint256 i = 0; i < signers.length; i++) {... */\n    tag_112:\n        /* \"practise3.3/MultiSignatureWallet.sol\":2520:2527  signers */\n      0x00\n        /* \"practise3.3/MultiSignatureWallet.sol\":2520:2534  signers.length */\n      dup1\n      sload\n      swap1\n      pop\n        /* \"practise3.3/MultiSignatureWallet.sol\":2516:2517  i */\n      dup2\n        /* \"practise3.3/MultiSignatureWallet.sol\":2516:2534  i < signers.length */\n      lt\n        /* \"practise3.3/MultiSignatureWallet.sol\":2496:2640  for (uint256 i = 0; i < signers.length; i++) {... */\n      iszero\n      tag_113\n      jumpi\n        /* \"practise3.3/MultiSignatureWallet.sol\":2574:2581  account */\n      dup3\n        /* \"practise3.3/MultiSignatureWallet.sol\":2560:2581  signers[i] == account */\n      0xffffffffffffffffffffffffffffffffffffffff\n      and\n        /* \"practise3.3/MultiSignatureWallet.sol\":2560:2567  signers */\n      0x00\n        /* \"practise3.3/MultiSignatureWallet.sol\":2568:2569  i */\n      dup3\n        /* \"practise3.3/MultiSignatureWallet.sol\":2560:2570  signers[i] */\n      dup2\n      sload\n      dup2\n      lt\n      tag_115\n      jumpi\n      tag_116\n      tag_117\n      jump\t// in\n    tag_116:\n    tag_115:\n      swap1\n      0x00\n      mstore\n      keccak256(0x00, 0x20)\n      add\n      0x00\n      swap1\n      sload\n      swap1\n      0x0100\n      exp\n      swap1\n      div\n      0xffffffffffffffffffffffffffffffffffffffff\n      and\n        /* \"practise3.3/MultiSignatureWallet.sol\":2560:2581  signers[i] == account */\n      0xffffffffffffffffffffffffffffffffffffffff\n      and\n      sub\n        /* \"practise3.3/MultiSignatureWallet.sol\":2556:2629  if (signers[i] == account) {... */\n      tag_119\n      jumpi\n        /* \"practise3.3/MultiSignatureWallet.sol\":2609:2613  true */\n      0x01\n        /* \"practise3.3/MultiSignatureWallet.sol\":2602:2613  return true */\n      swap2\n      pop\n      pop\n      jump(tag_111)\n        /* \"practise3.3/MultiSignatureWallet.sol\":2556:2629  if (signers[i] == account) {... */\n    tag_119:\n        /* \"practise3.3/MultiSignatureWallet.sol\":2536:2539  i++ */\n      dup1\n      dup1\n      tag_120\n      swap1\n      tag_108\n      jump\t// in\n    tag_120:\n      swap2\n      pop\n      pop\n        /* \"practise3.3/MultiSignatureWallet.sol\":2496:2640  for (uint256 i = 0; i < signers.length; i++) {... */\n      jump(tag_112)\n    tag_113:\n      pop\n        /* \"practise3.3/MultiSignatureWallet.sol\":2657:2662  false */\n      0x00\n        /* \"practise3.3/MultiSignatureWallet.sol\":2650:2662  return false */\n      swap1\n      pop\n        /* \"practise3.3/MultiSignatureWallet.sol\":2423:2670  function isSigner(address account) public view returns (bool) {... */\n    tag_111:\n      swap2\n      swap1\n      pop\n      jump\t// out\n        /* \"practise3.3/MultiSignatureWallet.sol\":2708:2802  function getSigners() public view returns (address[] memory) {... */\n    tag_57:\n        /* \"practise3.3/MultiSignatureWallet.sol\":2751:2767  address[] memory */\n      0x60\n        /* \"practise3.3/MultiSignatureWallet.sol\":2787:2794  signers */\n      0x00\n        /* \"practise3.3/MultiSignatureWallet.sol\":2780:2794  return signers */\n      dup1\n      sload\n      dup1\n      0x20\n      mul\n      0x20\n      add\n      mload(0x40)\n      swap1\n      dup2\n      add\n      0x40\n      mstore\n      dup1\n      swap3\n      swap2\n      swap1\n      dup2\n      dup2\n      mstore\n      0x20\n      add\n      dup3\n      dup1\n      sload\n      dup1\n      iszero\n      tag_122\n      jumpi\n      0x20\n      mul\n      dup3\n      add\n      swap2\n      swap1\n      0x00\n      mstore\n      keccak256(0x00, 0x20)\n      swap1\n    tag_123:\n      dup2\n      0x00\n      swap1\n      sload\n      swap1\n      0x0100\n      exp\n      swap1\n      div\n      0xffffffffffffffffffffffffffffffffffffffff\n      and\n      0xffffffffffffffffffffffffffffffffffffffff\n      and\n      dup2\n      mstore\n      0x20\n      add\n      swap1\n      0x01\n      add\n      swap1\n      dup1\n      dup4\n      gt\n      tag_123\n      jumpi\n    tag_122:\n      pop\n      pop\n      pop\n      pop\n      pop\n      swap1\n      pop\n        /* \"practise3.3/MultiSignatureWallet.sol\":2708:2802  function getSigners() public view returns (address[] memory) {... */\n      swap1\n      jump\t// out\n        /* \"practise3.3/MultiSignatureWallet.sol\":744:795  mapping(uint256 => Transaction) public transactions */\n    tag_63:\n      mstore(0x20, 0x03)\n      dup1\n      0x00\n      mstore\n      keccak256(0x00, 0x40)\n      0x00\n      swap2\n      pop\n      swap1\n      pop\n      dup1\n      0x00\n      add\n      0x00\n      swap1\n      sload\n      swap1\n      0x0100\n      exp\n      swap1\n      div\n      0xffffffffffffffffffffffffffffffffffffffff\n      and\n      swap1\n      dup1\n      0x01\n      add\n      sload\n      swap1\n      dup1\n      0x02\n      add\n      dup1\n      sload\n      tag_124\n      swap1\n      tag_89\n      jump\t// in\n    tag_124:\n      dup1\n      0x1f\n      add\n      0x20\n      dup1\n      swap2\n      div\n      mul\n      0x20\n      add\n      mload(0x40)\n      swap1\n      dup2\n      add\n      0x40\n      mstore\n      dup1\n      swap3\n      swap2\n      swap1\n      dup2\n      dup2\n      mstore\n      0x20\n      add\n      dup3\n      dup1\n      sload\n      tag_125\n      swap1\n      tag_89\n      jump\t// in\n    tag_125:\n      dup1\n      iszero\n      tag_126\n      jumpi\n      dup1\n      0x1f\n      lt\n      tag_127\n      jumpi\n      0x0100\n      dup1\n      dup4\n      sload\n      div\n      mul\n      dup4\n      mstore\n      swap2\n      0x20\n      add\n      swap2\n      jump(tag_126)\n    tag_127:\n      dup3\n      add\n      swap2\n      swap1\n      0x00\n      mstore\n      keccak256(0x00, 0x20)\n      swap1\n    tag_128:\n      dup2\n      sload\n      dup2\n      mstore\n      swap1\n      0x01\n      add\n      swap1\n      0x20\n      add\n      dup1\n      dup4\n      gt\n      tag_128\n      jumpi\n      dup3\n      swap1\n      sub\n      0x1f\n      and\n      dup3\n      add\n      swap2\n    tag_126:\n      pop\n      pop\n      pop\n      pop\n      pop\n      swap1\n      dup1\n      0x03\n      add\n      0x00\n      swap1\n      sload\n      swap1\n      0x0100\n      exp\n      swap1\n      div\n      0xff\n      and\n      swap1\n      dup1\n      0x04\n      add\n      sload\n      swap1\n      pop\n      dup6\n      jump\t// out\n        /* \"practise3.3/MultiSignatureWallet.sol\":238:269  uint256 public transactionCount */\n    tag_67:\n      sload(0x02)\n      dup2\n      jump\t// out\n        /* \"practise3.3/MultiSignatureWallet.sol\":4214:4730  function confirmTransaction(uint256 txId)... */\n    tag_72:\n        /* \"practise3.3/MultiSignatureWallet.sol\":1321:1341  isSigner(msg.sender) */\n      tag_130\n        /* \"practise3.3/MultiSignatureWallet.sol\":1330:1340  msg.sender */\n      caller\n        /* \"practise3.3/MultiSignatureWallet.sol\":1321:1329  isSigner */\n      tag_53\n        /* \"practise3.3/MultiSignatureWallet.sol\":1321:1341  isSigner(msg.sender) */\n      jump\t// in\n    tag_130:\n        /* \"practise3.3/MultiSignatureWallet.sol\":1313:1358  require(isSigner(msg.sender), \"Not a signer\") */\n      tag_131\n      jumpi\n      mload(0x40)\n      0x08c379a000000000000000000000000000000000000000000000000000000000\n      dup2\n      mstore\n      0x04\n      add\n      tag_132\n      swap1\n      tag_100\n      jump\t// in\n    tag_132:\n      mload(0x40)\n      dup1\n      swap2\n      sub\n      swap1\n      revert\n    tag_131:\n        /* \"practise3.3/MultiSignatureWallet.sol\":4318:4322  txId */\n      dup1\n        /* \"practise3.3/MultiSignatureWallet.sol\":1497:1513  transactionCount */\n      sload(0x02)\n        /* \"practise3.3/MultiSignatureWallet.sol\":1490:1494  txId */\n      dup2\n        /* \"practise3.3/MultiSignatureWallet.sol\":1490:1513  txId < transactionCount */\n      lt\n        /* \"practise3.3/MultiSignatureWallet.sol\":1482:1544  require(txId < transactionCount, \"Transaction does not exist\") */\n      tag_134\n      jumpi\n      mload(0x40)\n      0x08c379a000000000000000000000000000000000000000000000000000000000\n      dup2\n      mstore\n      0x04\n      add\n      tag_135\n      swap1\n      tag_84\n      jump\t// in\n    tag_135:\n      mload(0x40)\n      dup1\n      swap2\n      sub\n      swap1\n      revert\n    tag_134:\n        /* \"practise3.3/MultiSignatureWallet.sol\":1564:1576  transactions */\n      0x03\n        /* \"practise3.3/MultiSignatureWallet.sol\":1564:1582  transactions[txId] */\n      0x00\n        /* \"practise3.3/MultiSignatureWallet.sol\":1577:1581  txId */\n      dup3\n        /* \"practise3.3/MultiSignatureWallet.sol\":1564:1582  transactions[txId] */\n      dup2\n      mstore\n      0x20\n      add\n      swap1\n      dup2\n      mstore\n      0x20\n      add\n      0x00\n      keccak256\n        /* \"practise3.3/MultiSignatureWallet.sol\":1564:1591  transactions[txId].executed */\n      0x03\n      add\n      0x00\n      swap1\n      sload\n      swap1\n      0x0100\n      exp\n      swap1\n      div\n      0xff\n      and\n        /* \"practise3.3/MultiSignatureWallet.sol\":1563:1591  !transactions[txId].executed */\n      iszero\n        /* \"practise3.3/MultiSignatureWallet.sol\":1555:1624  require(!transactions[txId].executed, \"Transaction already executed\") */\n      tag_136\n      jumpi\n      mload(0x40)\n      0x08c379a000000000000000000000000000000000000000000000000000000000\n      dup2\n      mstore\n      0x04\n      add\n      tag_137\n      swap1\n      tag_138\n      jump\t// in\n    tag_137:\n      mload(0x40)\n      dup1\n      swap2\n      sub\n      swap1\n      revert\n    tag_136:\n        /* \"practise3.3/MultiSignatureWallet.sol\":4340:4363  Transaction storage txn */\n      0x00\n        /* \"practise3.3/MultiSignatureWallet.sol\":4366:4378  transactions */\n      0x03\n        /* \"practise3.3/MultiSignatureWallet.sol\":4366:4384  transactions[txId] */\n      0x00\n        /* \"practise3.3/MultiSignatureWallet.sol\":4379:4383  txId */\n      dup5\n        /* \"practise3.3/MultiSignatureWallet.sol\":4366:4384  transactions[txId] */\n      dup2\n      mstore\n      0x20\n      add\n      swap1\n      dup2\n      mstore\n      0x20\n      add\n      0x00\n      keccak256\n        /* \"practise3.3/MultiSignatureWallet.sol\":4340:4384  Transaction storage txn = transactions[txId] */\n      swap1\n      pop\n        /* \"practise3.3/MultiSignatureWallet.sol\":4404:4407  txn */\n      dup1\n        /* \"practise3.3/MultiSignatureWallet.sol\":4404:4419  txn.isConfirmed */\n      0x05\n      add\n        /* \"practise3.3/MultiSignatureWallet.sol\":4404:4431  txn.isConfirmed[msg.sender] */\n      0x00\n        /* \"practise3.3/MultiSignatureWallet.sol\":4420:4430  msg.sender */\n      caller\n        /* \"practise3.3/MultiSignatureWallet.sol\":4404:4431  txn.isConfirmed[msg.sender] */\n      0xffffffffffffffffffffffffffffffffffffffff\n      and\n      0xffffffffffffffffffffffffffffffffffffffff\n      and\n      dup2\n      mstore\n      0x20\n      add\n      swap1\n      dup2\n      mstore\n      0x20\n      add\n      0x00\n      keccak256\n      0x00\n      swap1\n      sload\n      swap1\n      0x0100\n      exp\n      swap1\n      div\n      0xff\n      and\n        /* \"practise3.3/MultiSignatureWallet.sol\":4403:4431  !txn.isConfirmed[msg.sender] */\n      iszero\n        /* \"practise3.3/MultiSignatureWallet.sol\":4395:4453  require(!txn.isConfirmed[msg.sender], \"Already confirmed\") */\n      tag_140\n      jumpi\n      mload(0x40)\n      0x08c379a000000000000000000000000000000000000000000000000000000000\n      dup2\n      mstore\n      0x04\n      add\n      tag_141\n      swap1\n      tag_142\n      jump\t// in\n    tag_141:\n      mload(0x40)\n      dup1\n      swap2\n      sub\n      swap1\n      revert\n    tag_140:\n        /* \"practise3.3/MultiSignatureWallet.sol\":4496:4500  true */\n      0x01\n        /* \"practise3.3/MultiSignatureWallet.sol\":4466:4469  txn */\n      dup2\n        /* \"practise3.3/MultiSignatureWallet.sol\":4466:4481  txn.isConfirmed */\n      0x05\n      add\n        /* \"practise3.3/MultiSignatureWallet.sol\":4466:4493  txn.isConfirmed[msg.sender] */\n      0x00\n        /* \"practise3.3/MultiSignatureWallet.sol\":4482:4492  msg.sender */\n      caller\n        /* \"practise3.3/MultiSignatureWallet.sol\":4466:4493  txn.isConfirmed[msg.sender] */\n      0xffffffffffffffffffffffffffffffffffffffff\n      and\n      0xffffffffffffffffffffffffffffffffffffffff\n      and\n      dup2\n      mstore\n      0x20\n      add\n      swap1\n      dup2\n      mstore\n      0x20\n      add\n      0x00\n      keccak256\n      0x00\n        /* \"practise3.3/MultiSignatureWallet.sol\":4466:4500  txn.isConfirmed[msg.sender] = true */\n      0x0100\n      exp\n      dup2\n      sload\n      dup2\n      0xff\n      mul\n      not\n      and\n      swap1\n      dup4\n      iszero\n      iszero\n      mul\n      or\n      swap1\n      sstore\n      pop\n        /* \"practise3.3/MultiSignatureWallet.sol\":4511:4514  txn */\n      dup1\n        /* \"practise3.3/MultiSignatureWallet.sol\":4511:4528  txn.confirmations */\n      0x04\n      add\n      0x00\n        /* \"practise3.3/MultiSignatureWallet.sol\":4511:4530  txn.confirmations++ */\n      dup2\n      sload\n      dup1\n      swap3\n      swap2\n      swap1\n      tag_143\n      swap1\n      tag_108\n      jump\t// in\n    tag_143:\n      swap2\n      swap1\n      pop\n      sstore\n      pop\n        /* \"practise3.3/MultiSignatureWallet.sol\":4575:4585  msg.sender */\n      caller\n        /* \"practise3.3/MultiSignatureWallet.sol\":4548:4586  TransactionConfirmed(txId, msg.sender) */\n      0xffffffffffffffffffffffffffffffffffffffff\n      and\n        /* \"practise3.3/MultiSignatureWallet.sol\":4569:4573  txId */\n      dup4\n        /* \"practise3.3/MultiSignatureWallet.sol\":4548:4586  TransactionConfirmed(txId, msg.sender) */\n      0x15c2f311c9e0f53b50388279894aeff029a3457884a6601e924fca879e12adcc\n      mload(0x40)\n      mload(0x40)\n      dup1\n      swap2\n      sub\n      swap1\n      log3\n        /* \"practise3.3/MultiSignatureWallet.sol\":4661:4670  threshold */\n      sload(0x01)\n        /* \"practise3.3/MultiSignatureWallet.sol\":4640:4643  txn */\n      dup2\n        /* \"practise3.3/MultiSignatureWallet.sol\":4640:4657  txn.confirmations */\n      0x04\n      add\n      sload\n        /* \"practise3.3/MultiSignatureWallet.sol\":4640:4670  txn.confirmations >= threshold */\n      lt\n        /* \"practise3.3/MultiSignatureWallet.sol\":4636:4723  if (txn.confirmations >= threshold) {... */\n      tag_144\n      jumpi\n        /* \"practise3.3/MultiSignatureWallet.sol\":4687:4711  executeTransaction(txId) */\n      tag_145\n        /* \"practise3.3/MultiSignatureWallet.sol\":4706:4710  txId */\n      dup4\n        /* \"practise3.3/MultiSignatureWallet.sol\":4687:4705  executeTransaction */\n      tag_146\n        /* \"practise3.3/MultiSignatureWallet.sol\":4687:4711  executeTransaction(txId) */\n      jump\t// in\n    tag_145:\n        /* \"practise3.3/MultiSignatureWallet.sol\":4636:4723  if (txn.confirmations >= threshold) {... */\n    tag_144:\n        /* \"practise3.3/MultiSignatureWallet.sol\":4329:4730  {... */\n      pop\n        /* \"practise3.3/MultiSignatureWallet.sol\":1369:1370  _ */\n      pop\n        /* \"practise3.3/MultiSignatureWallet.sol\":4214:4730  function confirmTransaction(uint256 txId)... */\n      pop\n      jump\t// out\n        /* \"practise3.3/MultiSignatureWallet.sol\":3203:3485  function updateThreshold(uint256 newThreshold) public onlySigner {... */\n    tag_76:\n        /* \"practise3.3/MultiSignatureWallet.sol\":1321:1341  isSigner(msg.sender) */\n      tag_148\n        /* \"practise3.3/MultiSignatureWallet.sol\":1330:1340  msg.sender */\n      caller\n        /* \"practise3.3/MultiSignatureWallet.sol\":1321:1329  isSigner */\n      tag_53\n        /* \"practise3.3/MultiSignatureWallet.sol\":1321:1341  isSigner(msg.sender) */\n      jump\t// in\n    tag_148:\n        /* \"practise3.3/MultiSignatureWallet.sol\":1313:1358  require(isSigner(msg.sender), \"Not a signer\") */\n      tag_149\n      jumpi\n      mload(0x40)\n      0x08c379a000000000000000000000000000000000000000000000000000000000\n      dup2\n      mstore\n      0x04\n      add\n      tag_150\n      swap1\n      tag_100\n      jump\t// in\n    tag_150:\n      mload(0x40)\n      dup1\n      swap2\n      sub\n      swap1\n      revert\n    tag_149:\n        /* \"practise3.3/MultiSignatureWallet.sol\":3316:3317  0 */\n      0x00\n        /* \"practise3.3/MultiSignatureWallet.sol\":3301:3313  newThreshold */\n      dup2\n        /* \"practise3.3/MultiSignatureWallet.sol\":3301:3317  newThreshold > 0 */\n      gt\n        /* \"practise3.3/MultiSignatureWallet.sol\":3301:3351  newThreshold > 0 && newThreshold <= signers.length */\n      dup1\n      iszero\n      tag_152\n      jumpi\n      pop\n        /* \"practise3.3/MultiSignatureWallet.sol\":3337:3344  signers */\n      0x00\n        /* \"practise3.3/MultiSignatureWallet.sol\":3337:3351  signers.length */\n      dup1\n      sload\n      swap1\n      pop\n        /* \"practise3.3/MultiSignatureWallet.sol\":3321:3333  newThreshold */\n      dup2\n        /* \"practise3.3/MultiSignatureWallet.sol\":3321:3351  newThreshold <= signers.length */\n      gt\n      iszero\n        /* \"practise3.3/MultiSignatureWallet.sol\":3301:3351  newThreshold > 0 && newThreshold <= signers.length */\n    tag_152:\n        /* \"practise3.3/MultiSignatureWallet.sol\":3279:3396  require(... */\n      tag_153\n      jumpi\n      mload(0x40)\n      0x08c379a000000000000000000000000000000000000000000000000000000000\n      dup2\n      mstore\n      0x04\n      add\n      tag_154\n      swap1\n      tag_155\n      jump\t// in\n    tag_154:\n      mload(0x40)\n      dup1\n      swap2\n      sub\n      swap1\n      revert\n    tag_153:\n        /* \"practise3.3/MultiSignatureWallet.sol\":3419:3431  newThreshold */\n      dup1\n        /* \"practise3.3/MultiSignatureWallet.sol\":3407:3416  threshold */\n      0x01\n        /* \"practise3.3/MultiSignatureWallet.sol\":3407:3431  threshold = newThreshold */\n      dup2\n      swap1\n      sstore\n      pop\n        /* \"practise3.3/MultiSignatureWallet.sol\":3447:3477  ThresholdUpdated(newThreshold) */\n      0xadfa8ecb21b6962ebcd0adbd9ab985b7b4c5b5eb3b0dead683171565c7bfe171\n        /* \"practise3.3/MultiSignatureWallet.sol\":3464:3476  newThreshold */\n      dup2\n        /* \"practise3.3/MultiSignatureWallet.sol\":3447:3477  ThresholdUpdated(newThreshold) */\n      mload(0x40)\n      tag_156\n      swap2\n      swap1\n      tag_42\n      jump\t// in\n    tag_156:\n      mload(0x40)\n      dup1\n      swap2\n      sub\n      swap1\n      log1\n        /* \"practise3.3/MultiSignatureWallet.sol\":3203:3485  function updateThreshold(uint256 newThreshold) public onlySigner {... */\n      pop\n      jump\t// out\n        /* \"practise3.3/MultiSignatureWallet.sol\":2870:3135  function addSigner(address newSigner) public onlySigner {... */\n    tag_80:\n        /* \"practise3.3/MultiSignatureWallet.sol\":1321:1341  isSigner(msg.sender) */\n      tag_158\n        /* \"practise3.3/MultiSignatureWallet.sol\":1330:1340  msg.sender */\n      caller\n        /* \"practise3.3/MultiSignatureWallet.sol\":1321:1329  isSigner */\n      tag_53\n        /* \"practise3.3/MultiSignatureWallet.sol\":1321:1341  isSigner(msg.sender) */\n      jump\t// in\n    tag_158:\n        /* \"practise3.3/MultiSignatureWallet.sol\":1313:1358  require(isSigner(msg.sender), \"Not a signer\") */\n      tag_159\n      jumpi\n      mload(0x40)\n      0x08c379a000000000000000000000000000000000000000000000000000000000\n      dup2\n      mstore\n      0x04\n      add\n      tag_160\n      swap1\n      tag_100\n      jump\t// in\n    tag_160:\n      mload(0x40)\n      dup1\n      swap2\n      sub\n      swap1\n      revert\n    tag_159:\n        /* \"practise3.3/MultiSignatureWallet.sol\":2966:2967  0 */\n      0x00\n        /* \"practise3.3/MultiSignatureWallet.sol\":2945:2968  newSigner != address(0) */\n      0xffffffffffffffffffffffffffffffffffffffff\n      and\n        /* \"practise3.3/MultiSignatureWallet.sol\":2945:2954  newSigner */\n      dup2\n        /* \"practise3.3/MultiSignatureWallet.sol\":2945:2968  newSigner != address(0) */\n      0xffffffffffffffffffffffffffffffffffffffff\n      and\n      sub\n        /* \"practise3.3/MultiSignatureWallet.sol\":2937:2995  require(newSigner != address(0), \"Invalid signer address\") */\n      tag_162\n      jumpi\n      mload(0x40)\n      0x08c379a000000000000000000000000000000000000000000000000000000000\n      dup2\n      mstore\n      0x04\n      add\n      tag_163\n      swap1\n      tag_164\n      jump\t// in\n    tag_163:\n      mload(0x40)\n      dup1\n      swap2\n      sub\n      swap1\n      revert\n    tag_162:\n        /* \"practise3.3/MultiSignatureWallet.sol\":3015:3034  isSigner(newSigner) */\n      tag_165\n        /* \"practise3.3/MultiSignatureWallet.sol\":3024:3033  newSigner */\n      dup2\n        /* \"practise3.3/MultiSignatureWallet.sol\":3015:3023  isSigner */\n      tag_53\n        /* \"practise3.3/MultiSignatureWallet.sol\":3015:3034  isSigner(newSigner) */\n      jump\t// in\n    tag_165:\n        /* \"practise3.3/MultiSignatureWallet.sol\":3014:3034  !isSigner(newSigner) */\n      iszero\n        /* \"practise3.3/MultiSignatureWallet.sol\":3006:3055  require(!isSigner(newSigner), \"Already a signer\") */\n      tag_166\n      jumpi\n      mload(0x40)\n      0x08c379a000000000000000000000000000000000000000000000000000000000\n      dup2\n      mstore\n      0x04\n      add\n      tag_167\n      swap1\n      tag_168\n      jump\t// in\n    tag_167:\n      mload(0x40)\n      dup1\n      swap2\n      sub\n      swap1\n      revert\n    tag_166:\n        /* \"practise3.3/MultiSignatureWallet.sol\":3066:3073  signers */\n      0x00\n        /* \"practise3.3/MultiSignatureWallet.sol\":3079:3088  newSigner */\n      dup2\n        /* \"practise3.3/MultiSignatureWallet.sol\":3066:3089  signers.push(newSigner) */\n      swap1\n      dup1\n      0x01\n      dup2\n      sload\n      add\n      dup1\n      dup3\n      sstore\n      dup1\n      swap2\n      pop\n      pop\n      0x01\n      swap1\n      sub\n      swap1\n      0x00\n      mstore\n      keccak256(0x00, 0x20)\n      add\n      0x00\n      swap1\n      swap2\n      swap1\n      swap2\n      swap1\n      swap2\n      0x0100\n      exp\n      dup2\n      sload\n      dup2\n      0xffffffffffffffffffffffffffffffffffffffff\n      mul\n      not\n      and\n      swap1\n      dup4\n      0xffffffffffffffffffffffffffffffffffffffff\n      and\n      mul\n      or\n      swap1\n      sstore\n      pop\n        /* \"practise3.3/MultiSignatureWallet.sol\":3117:3126  newSigner */\n      dup1\n        /* \"practise3.3/MultiSignatureWallet.sol\":3105:3127  SignerAdded(newSigner) */\n      0xffffffffffffffffffffffffffffffffffffffff\n      and\n      0x47d1c22a25bb3a5d4e481b9b1e6944c2eade3181a0a20b495ed61d35b5323f24\n      mload(0x40)\n      mload(0x40)\n      dup1\n      swap2\n      sub\n      swap1\n      log2\n        /* \"practise3.3/MultiSignatureWallet.sol\":2870:3135  function addSigner(address newSigner) public onlySigner {... */\n      pop\n      jump\t// out\n        /* \"practise3.3/MultiSignatureWallet.sol\":4813:5322  function executeTransaction(uint256 txId) internal validTransaction(txId) {... */\n    tag_146:\n        /* \"practise3.3/MultiSignatureWallet.sol\":4881:4885  txId */\n      dup1\n        /* \"practise3.3/MultiSignatureWallet.sol\":1497:1513  transactionCount */\n      sload(0x02)\n        /* \"practise3.3/MultiSignatureWallet.sol\":1490:1494  txId */\n      dup2\n        /* \"practise3.3/MultiSignatureWallet.sol\":1490:1513  txId < transactionCount */\n      lt\n        /* \"practise3.3/MultiSignatureWallet.sol\":1482:1544  require(txId < transactionCount, \"Transaction does not exist\") */\n      tag_171\n      jumpi\n      mload(0x40)\n      0x08c379a000000000000000000000000000000000000000000000000000000000\n      dup2\n      mstore\n      0x04\n      add\n      tag_172\n      swap1\n      tag_84\n      jump\t// in\n    tag_172:\n      mload(0x40)\n      dup1\n      swap2\n      sub\n      swap1\n      revert\n    tag_171:\n        /* \"practise3.3/MultiSignatureWallet.sol\":1564:1576  transactions */\n      0x03\n        /* \"practise3.3/MultiSignatureWallet.sol\":1564:1582  transactions[txId] */\n      0x00\n        /* \"practise3.3/MultiSignatureWallet.sol\":1577:1581  txId */\n      dup3\n        /* \"practise3.3/MultiSignatureWallet.sol\":1564:1582  transactions[txId] */\n      dup2\n      mstore\n      0x20\n      add\n      swap1\n      dup2\n      mstore\n      0x20\n      add\n      0x00\n      keccak256\n        /* \"practise3.3/MultiSignatureWallet.sol\":1564:1591  transactions[txId].executed */\n      0x03\n      add\n      0x00\n      swap1\n      sload\n      swap1\n      0x0100\n      exp\n      swap1\n      div\n      0xff\n      and\n        /* \"practise3.3/MultiSignatureWallet.sol\":1563:1591  !transactions[txId].executed */\n      iszero\n        /* \"practise3.3/MultiSignatureWallet.sol\":1555:1624  require(!transactions[txId].executed, \"Transaction already executed\") */\n      tag_173\n      jumpi\n      mload(0x40)\n      0x08c379a000000000000000000000000000000000000000000000000000000000\n      dup2\n      mstore\n      0x04\n      add\n      tag_174\n      swap1\n      tag_138\n      jump\t// in\n    tag_174:\n      mload(0x40)\n      dup1\n      swap2\n      sub\n      swap1\n      revert\n    tag_173:\n        /* \"practise3.3/MultiSignatureWallet.sol\":4898:4921  Transaction storage txn */\n      0x00\n        /* \"practise3.3/MultiSignatureWallet.sol\":4924:4936  transactions */\n      0x03\n        /* \"practise3.3/MultiSignatureWallet.sol\":4924:4942  transactions[txId] */\n      0x00\n        /* \"practise3.3/MultiSignatureWallet.sol\":4937:4941  txId */\n      dup5\n        /* \"practise3.3/MultiSignatureWallet.sol\":4924:4942  transactions[txId] */\n      dup2\n      mstore\n      0x20\n      add\n      swap1\n      dup2\n      mstore\n      0x20\n      add\n      0x00\n      keccak256\n        /* \"practise3.3/MultiSignatureWallet.sol\":4898:4942  Transaction storage txn = transactions[txId] */\n      swap1\n      pop\n        /* \"practise3.3/MultiSignatureWallet.sol\":4982:4991  threshold */\n      sload(0x01)\n        /* \"practise3.3/MultiSignatureWallet.sol\":4961:4964  txn */\n      dup2\n        /* \"practise3.3/MultiSignatureWallet.sol\":4961:4978  txn.confirmations */\n      0x04\n      add\n      sload\n        /* \"practise3.3/MultiSignatureWallet.sol\":4961:4991  txn.confirmations >= threshold */\n      lt\n      iszero\n        /* \"practise3.3/MultiSignatureWallet.sol\":4953:5022  require(txn.confirmations >= threshold, \"Insufficient confirmations\") */\n      tag_176\n      jumpi\n      mload(0x40)\n      0x08c379a000000000000000000000000000000000000000000000000000000000\n      dup2\n      mstore\n      0x04\n      add\n      tag_177\n      swap1\n      tag_178\n      jump\t// in\n    tag_177:\n      mload(0x40)\n      dup1\n      swap2\n      sub\n      swap1\n      revert\n    tag_176:\n        /* \"practise3.3/MultiSignatureWallet.sol\":5099:5103  true */\n      0x01\n        /* \"practise3.3/MultiSignatureWallet.sol\":5084:5087  txn */\n      dup2\n        /* \"practise3.3/MultiSignatureWallet.sol\":5084:5096  txn.executed */\n      0x03\n      add\n      0x00\n        /* \"practise3.3/MultiSignatureWallet.sol\":5084:5103  txn.executed = true */\n      0x0100\n      exp\n      dup2\n      sload\n      dup2\n      0xff\n      mul\n      not\n      and\n      swap1\n      dup4\n      iszero\n      iszero\n      mul\n      or\n      swap1\n      sstore\n      pop\n        /* \"practise3.3/MultiSignatureWallet.sol\":5155:5167  bool success */\n      0x00\n        /* \"practise3.3/MultiSignatureWallet.sol\":5173:5176  txn */\n      dup2\n        /* \"practise3.3/MultiSignatureWallet.sol\":5173:5179  txn.to */\n      0x00\n      add\n      0x00\n      swap1\n      sload\n      swap1\n      0x0100\n      exp\n      swap1\n      div\n      0xffffffffffffffffffffffffffffffffffffffff\n      and\n        /* \"practise3.3/MultiSignatureWallet.sol\":5173:5184  txn.to.call */\n      0xffffffffffffffffffffffffffffffffffffffff\n      and\n        /* \"practise3.3/MultiSignatureWallet.sol\":5192:5195  txn */\n      dup3\n        /* \"practise3.3/MultiSignatureWallet.sol\":5192:5201  txn.value */\n      0x01\n      add\n      sload\n        /* \"practise3.3/MultiSignatureWallet.sol\":5203:5206  txn */\n      dup4\n        /* \"practise3.3/MultiSignatureWallet.sol\":5203:5211  txn.data */\n      0x02\n      add\n        /* \"practise3.3/MultiSignatureWallet.sol\":5173:5212  txn.to.call{value: txn.value}(txn.data) */\n      mload(0x40)\n      tag_179\n      swap2\n      swap1\n      tag_180\n      jump\t// in\n    tag_179:\n      0x00\n      mload(0x40)\n      dup1\n      dup4\n      sub\n      dup2\n      dup6\n      dup8\n      gas\n      call\n      swap3\n      pop\n      pop\n      pop\n      returndatasize\n      dup1\n      0x00\n      dup2\n      eq\n      tag_183\n      jumpi\n      mload(0x40)\n      swap2\n      pop\n      and(add(returndatasize, 0x3f), not(0x1f))\n      dup3\n      add\n      0x40\n      mstore\n      returndatasize\n      dup3\n      mstore\n      returndatasize\n      0x00\n      0x20\n      dup5\n      add\n      returndatacopy\n      jump(tag_182)\n    tag_183:\n      0x60\n      swap2\n      pop\n    tag_182:\n      pop\n        /* \"practise3.3/MultiSignatureWallet.sol\":5154:5212  (bool success, ) = txn.to.call{value: txn.value}(txn.data) */\n      pop\n      swap1\n      pop\n        /* \"practise3.3/MultiSignatureWallet.sol\":5231:5238  success */\n      dup1\n        /* \"practise3.3/MultiSignatureWallet.sol\":5223:5271  require(success, \"Transaction execution failed\") */\n      tag_184\n      jumpi\n      mload(0x40)\n      0x08c379a000000000000000000000000000000000000000000000000000000000\n      dup2\n      mstore\n      0x04\n      add\n      tag_185\n      swap1\n      tag_186\n      jump\t// in\n    tag_185:\n      mload(0x40)\n      dup1\n      swap2\n      sub\n      swap1\n      revert\n    tag_184:\n        /* \"practise3.3/MultiSignatureWallet.sol\":5309:5313  txId */\n      dup4\n        /* \"practise3.3/MultiSignatureWallet.sol\":5289:5314  TransactionExecuted(txId) */\n      0x15ed165a284872ea7017f03df402a0cadfbfab588320ffaf83f160c2f82781c7\n      mload(0x40)\n      mload(0x40)\n      dup1\n      swap2\n      sub\n      swap1\n      log2\n        /* \"practise3.3/MultiSignatureWallet.sol\":4887:5322  {... */\n      pop\n      pop\n        /* \"practise3.3/MultiSignatureWallet.sol\":4813:5322  function executeTransaction(uint256 txId) internal validTransaction(txId) {... */\n      pop\n      pop\n      jump\t// out\n        /* \"#utility.yul\":7:82   */\n    tag_187:\n        /* \"#utility.yul\":40:46   */\n      0x00\n        /* \"#utility.yul\":73:75   */\n      0x40\n        /* \"#utility.yul\":67:76   */\n      mload\n        /* \"#utility.yul\":57:76   */\n      swap1\n      pop\n        /* \"#utility.yul\":7:82   */\n      swap1\n      jump\t// out\n        /* \"#utility.yul\":88:205   */\n    tag_188:\n        /* \"#utility.yul\":197:198   */\n      0x00\n        /* \"#utility.yul\":194:195   */\n      dup1\n        /* \"#utility.yul\":187:199   */\n      revert\n        /* \"#utility.yul\":211:328   */\n    tag_189:\n        /* \"#utility.yul\":320:321   */\n      0x00\n        /* \"#utility.yul\":317:318   */\n      dup1\n        /* \"#utility.yul\":310:322   */\n      revert\n        /* \"#utility.yul\":334:411   */\n    tag_190:\n        /* \"#utility.yul\":371:378   */\n      0x00\n        /* \"#utility.yul\":400:405   */\n      dup2\n        /* \"#utility.yul\":389:405   */\n      swap1\n      pop\n        /* \"#utility.yul\":334:411   */\n      swap2\n      swap1\n      pop\n      jump\t// out\n        /* \"#utility.yul\":417:539   */\n    tag_191:\n        /* \"#utility.yul\":490:514   */\n      tag_268\n        /* \"#utility.yul\":508:513   */\n      dup2\n        /* \"#utility.yul\":490:514   */\n      tag_190\n      jump\t// in\n    tag_268:\n        /* \"#utility.yul\":483:488   */\n      dup2\n        /* \"#utility.yul\":480:515   */\n      eq\n        /* \"#utility.yul\":470:533   */\n      tag_269\n      jumpi\n        /* \"#utility.yul\":529:530   */\n      0x00\n        /* \"#utility.yul\":526:527   */\n      dup1\n        /* \"#utility.yul\":519:531   */\n      revert\n        /* \"#utility.yul\":470:533   */\n    tag_269:\n        /* \"#utility.yul\":417:539   */\n      pop\n      jump\t// out\n        /* \"#utility.yul\":545:684   */\n    tag_192:\n        /* \"#utility.yul\":591:596   */\n      0x00\n        /* \"#utility.yul\":629:635   */\n      dup2\n        /* \"#utility.yul\":616:636   */\n      calldataload\n        /* \"#utility.yul\":607:636   */\n      swap1\n      pop\n        /* \"#utility.yul\":645:678   */\n      tag_271\n        /* \"#utility.yul\":672:677   */\n      dup2\n        /* \"#utility.yul\":645:678   */\n      tag_191\n      jump\t// in\n    tag_271:\n        /* \"#utility.yul\":545:684   */\n      swap3\n      swap2\n      pop\n      pop\n      jump\t// out\n        /* \"#utility.yul\":690:816   */\n    tag_193:\n        /* \"#utility.yul\":727:734   */\n      0x00\n        /* \"#utility.yul\":767:809   */\n      0xffffffffffffffffffffffffffffffffffffffff\n        /* \"#utility.yul\":760:765   */\n      dup3\n        /* \"#utility.yul\":756:810   */\n      and\n        /* \"#utility.yul\":745:810   */\n      swap1\n      pop\n        /* \"#utility.yul\":690:816   */\n      swap2\n      swap1\n      pop\n      jump\t// out\n        /* \"#utility.yul\":822:918   */\n    tag_194:\n        /* \"#utility.yul\":859:866   */\n      0x00\n        /* \"#utility.yul\":888:912   */\n      tag_274\n        /* \"#utility.yul\":906:911   */\n      dup3\n        /* \"#utility.yul\":888:912   */\n      tag_193\n      jump\t// in\n    tag_274:\n        /* \"#utility.yul\":877:912   */\n      swap1\n      pop\n        /* \"#utility.yul\":822:918   */\n      swap2\n      swap1\n      pop\n      jump\t// out\n        /* \"#utility.yul\":924:1046   */\n    tag_195:\n        /* \"#utility.yul\":997:1021   */\n      tag_276\n        /* \"#utility.yul\":1015:1020   */\n      dup2\n        /* \"#utility.yul\":997:1021   */\n      tag_194\n      jump\t// in\n    tag_276:\n        /* \"#utility.yul\":990:995   */\n      dup2\n        /* \"#utility.yul\":987:1022   */\n      eq\n        /* \"#utility.yul\":977:1040   */\n      tag_277\n      jumpi\n        /* \"#utility.yul\":1036:1037   */\n      0x00\n        /* \"#utility.yul\":1033:1034   */\n      dup1\n        /* \"#utility.yul\":1026:1038   */\n      revert\n        /* \"#utility.yul\":977:1040   */\n    tag_277:\n        /* \"#utility.yul\":924:1046   */\n      pop\n      jump\t// out\n        /* \"#utility.yul\":1052:1191   */\n    tag_196:\n        /* \"#utility.yul\":1098:1103   */\n      0x00\n        /* \"#utility.yul\":1136:1142   */\n      dup2\n        /* \"#utility.yul\":1123:1143   */\n      calldataload\n        /* \"#utility.yul\":1114:1143   */\n      swap1\n      pop\n        /* \"#utility.yul\":1152:1185   */\n      tag_279\n        /* \"#utility.yul\":1179:1184   */\n      dup2\n        /* \"#utility.yul\":1152:1185   */\n      tag_195\n      jump\t// in\n    tag_279:\n        /* \"#utility.yul\":1052:1191   */\n      swap3\n      swap2\n      pop\n      pop\n      jump\t// out\n        /* \"#utility.yul\":1197:1671   */\n    tag_21:\n        /* \"#utility.yul\":1265:1271   */\n      0x00\n        /* \"#utility.yul\":1273:1279   */\n      dup1\n        /* \"#utility.yul\":1322:1324   */\n      0x40\n        /* \"#utility.yul\":1310:1319   */\n      dup4\n        /* \"#utility.yul\":1301:1308   */\n      dup6\n        /* \"#utility.yul\":1297:1320   */\n      sub\n        /* \"#utility.yul\":1293:1325   */\n      slt\n        /* \"#utility.yul\":1290:1409   */\n      iszero\n      tag_281\n      jumpi\n        /* \"#utility.yul\":1328:1407   */\n      tag_282\n      tag_188\n      jump\t// in\n    tag_282:\n        /* \"#utility.yul\":1290:1409   */\n    tag_281:\n        /* \"#utility.yul\":1448:1449   */\n      0x00\n        /* \"#utility.yul\":1473:1526   */\n      tag_283\n        /* \"#utility.yul\":1518:1525   */\n      dup6\n        /* \"#utility.yul\":1509:1515   */\n      dup3\n        /* \"#utility.yul\":1498:1507   */\n      dup7\n        /* \"#utility.yul\":1494:1516   */\n      add\n        /* \"#utility.yul\":1473:1526   */\n      tag_192\n      jump\t// in\n    tag_283:\n        /* \"#utility.yul\":1463:1526   */\n      swap3\n      pop\n        /* \"#utility.yul\":1419:1536   */\n      pop\n        /* \"#utility.yul\":1575:1577   */\n      0x20\n        /* \"#utility.yul\":1601:1654   */\n      tag_284\n        /* \"#utility.yul\":1646:1653   */\n      dup6\n        /* \"#utility.yul\":1637:1643   */\n      dup3\n        /* \"#utility.yul\":1626:1635   */\n      dup7\n        /* \"#utility.yul\":1622:1644   */\n      add\n        /* \"#utility.yul\":1601:1654   */\n      tag_196\n      jump\t// in\n    tag_284:\n        /* \"#utility.yul\":1591:1654   */\n      swap2\n      pop\n        /* \"#utility.yul\":1546:1664   */\n      pop\n        /* \"#utility.yul\":1197:1671   */\n      swap3\n      pop\n      swap3\n      swap1\n      pop\n      jump\t// out\n        /* \"#utility.yul\":1677:1767   */\n    tag_197:\n        /* \"#utility.yul\":1711:1718   */\n      0x00\n        /* \"#utility.yul\":1754:1759   */\n      dup2\n        /* \"#utility.yul\":1747:1760   */\n      iszero\n        /* \"#utility.yul\":1740:1761   */\n      iszero\n        /* \"#utility.yul\":1729:1761   */\n      swap1\n      pop\n        /* \"#utility.yul\":1677:1767   */\n      swap2\n      swap1\n      pop\n      jump\t// out\n        /* \"#utility.yul\":1773:1882   */\n    tag_198:\n        /* \"#utility.yul\":1854:1875   */\n      tag_287\n        /* \"#utility.yul\":1869:1874   */\n      dup2\n        /* \"#utility.yul\":1854:1875   */\n      tag_197\n      jump\t// in\n    tag_287:\n        /* \"#utility.yul\":1849:1852   */\n      dup3\n        /* \"#utility.yul\":1842:1876   */\n      mstore\n        /* \"#utility.yul\":1773:1882   */\n      pop\n      pop\n      jump\t// out\n        /* \"#utility.yul\":1888:2098   */\n    tag_24:\n        /* \"#utility.yul\":1975:1979   */\n      0x00\n        /* \"#utility.yul\":2013:2015   */\n      0x20\n        /* \"#utility.yul\":2002:2011   */\n      dup3\n        /* \"#utility.yul\":1998:2016   */\n      add\n        /* \"#utility.yul\":1990:2016   */\n      swap1\n      pop\n        /* \"#utility.yul\":2026:2091   */\n      tag_289\n        /* \"#utility.yul\":2088:2089   */\n      0x00\n        /* \"#utility.yul\":2077:2086   */\n      dup4\n        /* \"#utility.yul\":2073:2090   */\n      add\n        /* \"#utility.yul\":2064:2070   */\n      dup5\n        /* \"#utility.yul\":2026:2091   */\n      tag_198\n      jump\t// in\n    tag_289:\n        /* \"#utility.yul\":1888:2098   */\n      swap3\n      swap2\n      pop\n      pop\n      jump\t// out\n        /* \"#utility.yul\":2104:2433   */\n    tag_28:\n        /* \"#utility.yul\":2163:2169   */\n      0x00\n        /* \"#utility.yul\":2212:2214   */\n      0x20\n        /* \"#utility.yul\":2200:2209   */\n      dup3\n        /* \"#utility.yul\":2191:2198   */\n      dup5\n        /* \"#utility.yul\":2187:2210   */\n      sub\n        /* \"#utility.yul\":2183:2215   */\n      slt\n        /* \"#utility.yul\":2180:2299   */\n      iszero\n      tag_291\n      jumpi\n        /* \"#utility.yul\":2218:2297   */\n      tag_292\n      tag_188\n      jump\t// in\n    tag_292:\n        /* \"#utility.yul\":2180:2299   */\n    tag_291:\n        /* \"#utility.yul\":2338:2339   */\n      0x00\n        /* \"#utility.yul\":2363:2416   */\n      tag_293\n        /* \"#utility.yul\":2408:2415   */\n      dup5\n        /* \"#utility.yul\":2399:2405   */\n      dup3\n        /* \"#utility.yul\":2388:2397   */\n      dup6\n        /* \"#utility.yul\":2384:2406   */\n      add\n        /* \"#utility.yul\":2363:2416   */\n      tag_192\n      jump\t// in\n    tag_293:\n        /* \"#utility.yul\":2353:2416   */\n      swap2\n      pop\n        /* \"#utility.yul\":2309:2426   */\n      pop\n        /* \"#utility.yul\":2104:2433   */\n      swap3\n      swap2\n      pop\n      pop\n      jump\t// out\n        /* \"#utility.yul\":2439:2557   */\n    tag_199:\n        /* \"#utility.yul\":2526:2550   */\n      tag_295\n        /* \"#utility.yul\":2544:2549   */\n      dup2\n        /* \"#utility.yul\":2526:2550   */\n      tag_194\n      jump\t// in\n    tag_295:\n        /* \"#utility.yul\":2521:2524   */\n      dup3\n        /* \"#utility.yul\":2514:2551   */\n      mstore\n        /* \"#utility.yul\":2439:2557   */\n      pop\n      pop\n      jump\t// out\n        /* \"#utility.yul\":2563:2681   */\n    tag_200:\n        /* \"#utility.yul\":2650:2674   */\n      tag_297\n        /* \"#utility.yul\":2668:2673   */\n      dup2\n        /* \"#utility.yul\":2650:2674   */\n      tag_190\n      jump\t// in\n    tag_297:\n        /* \"#utility.yul\":2645:2648   */\n      dup3\n        /* \"#utility.yul\":2638:2675   */\n      mstore\n        /* \"#utility.yul\":2563:2681   */\n      pop\n      pop\n      jump\t// out\n        /* \"#utility.yul\":2687:2785   */\n    tag_201:\n        /* \"#utility.yul\":2738:2744   */\n      0x00\n        /* \"#utility.yul\":2772:2777   */\n      dup2\n        /* \"#utility.yul\":2766:2778   */\n      mload\n        /* \"#utility.yul\":2756:2778   */\n      swap1\n      pop\n        /* \"#utility.yul\":2687:2785   */\n      swap2\n      swap1\n      pop\n      jump\t// out\n        /* \"#utility.yul\":2791:2959   */\n    tag_202:\n        /* \"#utility.yul\":2874:2885   */\n      0x00\n        /* \"#utility.yul\":2908:2914   */\n      dup3\n        /* \"#utility.yul\":2903:2906   */\n      dup3\n        /* \"#utility.yul\":2896:2915   */\n      mstore\n        /* \"#utility.yul\":2948:2952   */\n      0x20\n        /* \"#utility.yul\":2943:2946   */\n      dup3\n        /* \"#utility.yul\":2939:2953   */\n      add\n        /* \"#utility.yul\":2924:2953   */\n      swap1\n      pop\n        /* \"#utility.yul\":2791:2959   */\n      swap3\n      swap2\n      pop\n      pop\n      jump\t// out\n        /* \"#utility.yul\":2965:3211   */\n    tag_203:\n        /* \"#utility.yul\":3046:3047   */\n      0x00\n        /* \"#utility.yul\":3056:3169   */\n    tag_301:\n        /* \"#utility.yul\":3070:3076   */\n      dup4\n        /* \"#utility.yul\":3067:3068   */\n      dup2\n        /* \"#utility.yul\":3064:3077   */\n      lt\n        /* \"#utility.yul\":3056:3169   */\n      iszero\n      tag_303\n      jumpi\n        /* \"#utility.yul\":3155:3156   */\n      dup1\n        /* \"#utility.yul\":3150:3153   */\n      dup3\n        /* \"#utility.yul\":3146:3157   */\n      add\n        /* \"#utility.yul\":3140:3158   */\n      mload\n        /* \"#utility.yul\":3136:3137   */\n      dup2\n        /* \"#utility.yul\":3131:3134   */\n      dup5\n        /* \"#utility.yul\":3127:3138   */\n      add\n        /* \"#utility.yul\":3120:3159   */\n      mstore\n        /* \"#utility.yul\":3092:3094   */\n      0x20\n        /* \"#utility.yul\":3089:3090   */\n      dup2\n        /* \"#utility.yul\":3085:3095   */\n      add\n        /* \"#utility.yul\":3080:3095   */\n      swap1\n      pop\n        /* \"#utility.yul\":3056:3169   */\n      jump(tag_301)\n    tag_303:\n        /* \"#utility.yul\":3203:3204   */\n      0x00\n        /* \"#utility.yul\":3194:3200   */\n      dup5\n        /* \"#utility.yul\":3189:3192   */\n      dup5\n        /* \"#utility.yul\":3185:3201   */\n      add\n        /* \"#utility.yul\":3178:3205   */\n      mstore\n        /* \"#utility.yul\":3027:3211   */\n      pop\n        /* \"#utility.yul\":2965:3211   */\n      pop\n      pop\n      pop\n      jump\t// out\n        /* \"#utility.yul\":3217:3319   */\n    tag_204:\n        /* \"#utility.yul\":3258:3264   */\n      0x00\n        /* \"#utility.yul\":3309:3311   */\n      0x1f\n        /* \"#utility.yul\":3305:3312   */\n      not\n        /* \"#utility.yul\":3300:3302   */\n      0x1f\n        /* \"#utility.yul\":3293:3298   */\n      dup4\n        /* \"#utility.yul\":3289:3303   */\n      add\n        /* \"#utility.yul\":3285:3313   */\n      and\n        /* \"#utility.yul\":3275:3313   */\n      swap1\n      pop\n        /* \"#utility.yul\":3217:3319   */\n      swap2\n      swap1\n      pop\n      jump\t// out\n        /* \"#utility.yul\":3325:3698   */\n    tag_205:\n        /* \"#utility.yul\":3411:3414   */\n      0x00\n        /* \"#utility.yul\":3439:3477   */\n      tag_306\n        /* \"#utility.yul\":3471:3476   */\n      dup3\n        /* \"#utility.yul\":3439:3477   */\n      tag_201\n      jump\t// in\n    tag_306:\n        /* \"#utility.yul\":3493:3563   */\n      tag_307\n        /* \"#utility.yul\":3556:3562   */\n      dup2\n        /* \"#utility.yul\":3551:3554   */\n      dup6\n        /* \"#utility.yul\":3493:3563   */\n      tag_202\n      jump\t// in\n    tag_307:\n        /* \"#utility.yul\":3486:3563   */\n      swap4\n      pop\n        /* \"#utility.yul\":3572:3637   */\n      tag_308\n        /* \"#utility.yul\":3630:3636   */\n      dup2\n        /* \"#utility.yul\":3625:3628   */\n      dup6\n        /* \"#utility.yul\":3618:3622   */\n      0x20\n        /* \"#utility.yul\":3611:3616   */\n      dup7\n        /* \"#utility.yul\":3607:3623   */\n      add\n        /* \"#utility.yul\":3572:3637   */\n      tag_203\n      jump\t// in\n    tag_308:\n        /* \"#utility.yul\":3662:3691   */\n      tag_309\n        /* \"#utility.yul\":3684:3690   */\n      dup2\n        /* \"#utility.yul\":3662:3691   */\n      tag_204\n      jump\t// in\n    tag_309:\n        /* \"#utility.yul\":3657:3660   */\n      dup5\n        /* \"#utility.yul\":3653:3692   */\n      add\n        /* \"#utility.yul\":3646:3692   */\n      swap2\n      pop\n        /* \"#utility.yul\":3415:3698   */\n      pop\n        /* \"#utility.yul\":3325:3698   */\n      swap3\n      swap2\n      pop\n      pop\n      jump\t// out\n        /* \"#utility.yul\":3704:4443   */\n    tag_31:\n        /* \"#utility.yul\":3921:3925   */\n      0x00\n        /* \"#utility.yul\":3959:3962   */\n      0xa0\n        /* \"#utility.yul\":3948:3957   */\n      dup3\n        /* \"#utility.yul\":3944:3963   */\n      add\n        /* \"#utility.yul\":3936:3963   */\n      swap1\n      pop\n        /* \"#utility.yul\":3973:4044   */\n      tag_311\n        /* \"#utility.yul\":4041:4042   */\n      0x00\n        /* \"#utility.yul\":4030:4039   */\n      dup4\n        /* \"#utility.yul\":4026:4043   */\n      add\n        /* \"#utility.yul\":4017:4023   */\n      dup9\n        /* \"#utility.yul\":3973:4044   */\n      tag_199\n      jump\t// in\n    tag_311:\n        /* \"#utility.yul\":4054:4126   */\n      tag_312\n        /* \"#utility.yul\":4122:4124   */\n      0x20\n        /* \"#utility.yul\":4111:4120   */\n      dup4\n        /* \"#utility.yul\":4107:4125   */\n      add\n        /* \"#utility.yul\":4098:4104   */\n      dup8\n        /* \"#utility.yul\":4054:4126   */\n      tag_200\n      jump\t// in\n    tag_312:\n        /* \"#utility.yul\":4173:4182   */\n      dup2\n        /* \"#utility.yul\":4167:4171   */\n      dup2\n        /* \"#utility.yul\":4163:4183   */\n      sub\n        /* \"#utility.yul\":4158:4160   */\n      0x40\n        /* \"#utility.yul\":4147:4156   */\n      dup4\n        /* \"#utility.yul\":4143:4161   */\n      add\n        /* \"#utility.yul\":4136:4184   */\n      mstore\n        /* \"#utility.yul\":4201:4277   */\n      tag_313\n        /* \"#utility.yul\":4272:4276   */\n      dup2\n        /* \"#utility.yul\":4263:4269   */\n      dup7\n        /* \"#utility.yul\":4201:4277   */\n      tag_205\n      jump\t// in\n    tag_313:\n        /* \"#utility.yul\":4193:4277   */\n      swap1\n      pop\n        /* \"#utility.yul\":4287:4353   */\n      tag_314\n        /* \"#utility.yul\":4349:4351   */\n      0x60\n        /* \"#utility.yul\":4338:4347   */\n      dup4\n        /* \"#utility.yul\":4334:4352   */\n      add\n        /* \"#utility.yul\":4325:4331   */\n      dup6\n        /* \"#utility.yul\":4287:4353   */\n      tag_198\n      jump\t// in\n    tag_314:\n        /* \"#utility.yul\":4363:4436   */\n      tag_315\n        /* \"#utility.yul\":4431:4434   */\n      0x80\n        /* \"#utility.yul\":4420:4429   */\n      dup4\n        /* \"#utility.yul\":4416:4435   */\n      add\n        /* \"#utility.yul\":4407:4413   */\n      dup5\n        /* \"#utility.yul\":4363:4436   */\n      tag_200\n      jump\t// in\n    tag_315:\n        /* \"#utility.yul\":3704:4443   */\n      swap7\n      swap6\n      pop\n      pop\n      pop\n      pop\n      pop\n      pop\n      jump\t// out\n        /* \"#utility.yul\":4449:4671   */\n    tag_37:\n        /* \"#utility.yul\":4542:4546   */\n      0x00\n        /* \"#utility.yul\":4580:4582   */\n      0x20\n        /* \"#utility.yul\":4569:4578   */\n      dup3\n        /* \"#utility.yul\":4565:4583   */\n      add\n        /* \"#utility.yul\":4557:4583   */\n      swap1\n      pop\n        /* \"#utility.yul\":4593:4664   */\n      tag_317\n        /* \"#utility.yul\":4661:4662   */\n      0x00\n        /* \"#utility.yul\":4650:4659   */\n      dup4\n        /* \"#utility.yul\":4646:4663   */\n      add\n        /* \"#utility.yul\":4637:4643   */\n      dup5\n        /* \"#utility.yul\":4593:4664   */\n      tag_199\n      jump\t// in\n    tag_317:\n        /* \"#utility.yul\":4449:4671   */\n      swap3\n      swap2\n      pop\n      pop\n      jump\t// out\n        /* \"#utility.yul\":4677:4899   */\n    tag_42:\n        /* \"#utility.yul\":4770:4774   */\n      0x00\n        /* \"#utility.yul\":4808:4810   */\n      0x20\n        /* \"#utility.yul\":4797:4806   */\n      dup3\n        /* \"#utility.yul\":4793:4811   */\n      add\n        /* \"#utility.yul\":4785:4811   */\n      swap1\n      pop\n        /* \"#utility.yul\":4821:4892   */\n      tag_319\n        /* \"#utility.yul\":4889:4890   */\n      0x00\n        /* \"#utility.yul\":4878:4887   */\n      dup4\n        /* \"#utility.yul\":4874:4891   */\n      add\n        /* \"#utility.yul\":4865:4871   */\n      dup5\n        /* \"#utility.yul\":4821:4892   */\n      tag_200\n      jump\t// in\n    tag_319:\n        /* \"#utility.yul\":4677:4899   */\n      swap3\n      swap2\n      pop\n      pop\n      jump\t// out\n        /* \"#utility.yul\":4905:5022   */\n    tag_206:\n        /* \"#utility.yul\":5014:5015   */\n      0x00\n        /* \"#utility.yul\":5011:5012   */\n      dup1\n        /* \"#utility.yul\":5004:5016   */\n      revert\n        /* \"#utility.yul\":5028:5145   */\n    tag_207:\n        /* \"#utility.yul\":5137:5138   */\n      0x00\n        /* \"#utility.yul\":5134:5135   */\n      dup1\n        /* \"#utility.yul\":5127:5139   */\n      revert\n        /* \"#utility.yul\":5151:5331   */\n    tag_208:\n        /* \"#utility.yul\":5199:5276   */\n      0x4e487b7100000000000000000000000000000000000000000000000000000000\n        /* \"#utility.yul\":5196:5197   */\n      0x00\n        /* \"#utility.yul\":5189:5277   */\n      mstore\n        /* \"#utility.yul\":5296:5300   */\n      0x41\n        /* \"#utility.yul\":5293:5294   */\n      0x04\n        /* \"#utility.yul\":5286:5301   */\n      mstore\n        /* \"#utility.yul\":5320:5324   */\n      0x24\n        /* \"#utility.yul\":5317:5318   */\n      0x00\n        /* \"#utility.yul\":5310:5325   */\n      revert\n        /* \"#utility.yul\":5337:5618   */\n    tag_209:\n        /* \"#utility.yul\":5420:5447   */\n      tag_324\n        /* \"#utility.yul\":5442:5446   */\n      dup3\n        /* \"#utility.yul\":5420:5447   */\n      tag_204\n      jump\t// in\n    tag_324:\n        /* \"#utility.yul\":5412:5418   */\n      dup2\n        /* \"#utility.yul\":5408:5448   */\n      add\n        /* \"#utility.yul\":5550:5556   */\n      dup2\n        /* \"#utility.yul\":5538:5548   */\n      dup2\n        /* \"#utility.yul\":5535:5557   */\n      lt\n        /* \"#utility.yul\":5514:5532   */\n      0xffffffffffffffff\n        /* \"#utility.yul\":5502:5512   */\n      dup3\n        /* \"#utility.yul\":5499:5533   */\n      gt\n        /* \"#utility.yul\":5496:5558   */\n      or\n        /* \"#utility.yul\":5493:5581   */\n      iszero\n      tag_325\n      jumpi\n        /* \"#utility.yul\":5561:5579   */\n      tag_326\n      tag_208\n      jump\t// in\n    tag_326:\n        /* \"#utility.yul\":5493:5581   */\n    tag_325:\n        /* \"#utility.yul\":5601:5611   */\n      dup1\n        /* \"#utility.yul\":5597:5599   */\n      0x40\n        /* \"#utility.yul\":5590:5612   */\n      mstore\n        /* \"#utility.yul\":5380:5618   */\n      pop\n        /* \"#utility.yul\":5337:5618   */\n      pop\n      pop\n      jump\t// out\n        /* \"#utility.yul\":5624:5753   */\n    tag_210:\n        /* \"#utility.yul\":5658:5664   */\n      0x00\n        /* \"#utility.yul\":5685:5705   */\n      tag_328\n      tag_187\n      jump\t// in\n    tag_328:\n        /* \"#utility.yul\":5675:5705   */\n      swap1\n      pop\n        /* \"#utility.yul\":5714:5747   */\n      tag_329\n        /* \"#utility.yul\":5742:5746   */\n      dup3\n        /* \"#utility.yul\":5734:5740   */\n      dup3\n        /* \"#utility.yul\":5714:5747   */\n      tag_209\n      jump\t// in\n    tag_329:\n        /* \"#utility.yul\":5624:5753   */\n      swap2\n      swap1\n      pop\n      jump\t// out\n        /* \"#utility.yul\":5759:6066   */\n    tag_211:\n        /* \"#utility.yul\":5820:5824   */\n      0x00\n        /* \"#utility.yul\":5910:5928   */\n      0xffffffffffffffff\n        /* \"#utility.yul\":5902:5908   */\n      dup3\n        /* \"#utility.yul\":5899:5929   */\n      gt\n        /* \"#utility.yul\":5896:5952   */\n      iszero\n      tag_331\n      jumpi\n        /* \"#utility.yul\":5932:5950   */\n      tag_332\n      tag_208\n      jump\t// in\n    tag_332:\n        /* \"#utility.yul\":5896:5952   */\n    tag_331:\n        /* \"#utility.yul\":5970:5999   */\n      tag_333\n        /* \"#utility.yul\":5992:5998   */\n      dup3\n        /* \"#utility.yul\":5970:5999   */\n      tag_204\n      jump\t// in\n    tag_333:\n        /* \"#utility.yul\":5962:5999   */\n      swap1\n      pop\n        /* \"#utility.yul\":6054:6058   */\n      0x20\n        /* \"#utility.yul\":6048:6052   */\n      dup2\n        /* \"#utility.yul\":6044:6059   */\n      add\n        /* \"#utility.yul\":6036:6059   */\n      swap1\n      pop\n        /* \"#utility.yul\":5759:6066   */\n      swap2\n      swap1\n      pop\n      jump\t// out\n        /* \"#utility.yul\":6072:6218   */\n    tag_212:\n        /* \"#utility.yul\":6169:6175   */\n      dup3\n        /* \"#utility.yul\":6164:6167   */\n      dup2\n        /* \"#utility.yul\":6159:6162   */\n      dup4\n        /* \"#utility.yul\":6146:6176   */\n      calldatacopy\n        /* \"#utility.yul\":6210:6211   */\n      0x00\n        /* \"#utility.yul\":6201:6207   */\n      dup4\n        /* \"#utility.yul\":6196:6199   */\n      dup4\n        /* \"#utility.yul\":6192:6208   */\n      add\n        /* \"#utility.yul\":6185:6212   */\n      mstore\n        /* \"#utility.yul\":6072:6218   */\n      pop\n      pop\n      pop\n      jump\t// out\n        /* \"#utility.yul\":6224:6647   */\n    tag_213:\n        /* \"#utility.yul\":6301:6306   */\n      0x00\n        /* \"#utility.yul\":6326:6391   */\n      tag_336\n        /* \"#utility.yul\":6342:6390   */\n      tag_337\n        /* \"#utility.yul\":6383:6389   */\n      dup5\n        /* \"#utility.yul\":6342:6390   */\n      tag_211\n      jump\t// in\n    tag_337:\n        /* \"#utility.yul\":6326:6391   */\n      tag_210\n      jump\t// in\n    tag_336:\n        /* \"#utility.yul\":6317:6391   */\n      swap1\n      pop\n        /* \"#utility.yul\":6414:6420   */\n      dup3\n        /* \"#utility.yul\":6407:6412   */\n      dup2\n        /* \"#utility.yul\":6400:6421   */\n      mstore\n        /* \"#utility.yul\":6452:6456   */\n      0x20\n        /* \"#utility.yul\":6445:6450   */\n      dup2\n        /* \"#utility.yul\":6441:6457   */\n      add\n        /* \"#utility.yul\":6490:6493   */\n      dup5\n        /* \"#utility.yul\":6481:6487   */\n      dup5\n        /* \"#utility.yul\":6476:6479   */\n      dup5\n        /* \"#utility.yul\":6472:6488   */\n      add\n        /* \"#utility.yul\":6469:6494   */\n      gt\n        /* \"#utility.yul\":6466:6578   */\n      iszero\n      tag_338\n      jumpi\n        /* \"#utility.yul\":6497:6576   */\n      tag_339\n      tag_207\n      jump\t// in\n    tag_339:\n        /* \"#utility.yul\":6466:6578   */\n    tag_338:\n        /* \"#utility.yul\":6587:6641   */\n      tag_340\n        /* \"#utility.yul\":6634:6640   */\n      dup5\n        /* \"#utility.yul\":6629:6632   */\n      dup3\n        /* \"#utility.yul\":6624:6627   */\n      dup6\n        /* \"#utility.yul\":6587:6641   */\n      tag_212\n      jump\t// in\n    tag_340:\n        /* \"#utility.yul\":6307:6647   */\n      pop\n        /* \"#utility.yul\":6224:6647   */\n      swap4\n      swap3\n      pop\n      pop\n      pop\n      jump\t// out\n        /* \"#utility.yul\":6666:7004   */\n    tag_214:\n        /* \"#utility.yul\":6721:6726   */\n      0x00\n        /* \"#utility.yul\":6770:6773   */\n      dup3\n        /* \"#utility.yul\":6763:6767   */\n      0x1f\n        /* \"#utility.yul\":6755:6761   */\n      dup4\n        /* \"#utility.yul\":6751:6768   */\n      add\n        /* \"#utility.yul\":6747:6774   */\n      slt\n        /* \"#utility.yul\":6737:6859   */\n      tag_342\n      jumpi\n        /* \"#utility.yul\":6778:6857   */\n      tag_343\n      tag_206\n      jump\t// in\n    tag_343:\n        /* \"#utility.yul\":6737:6859   */\n    tag_342:\n        /* \"#utility.yul\":6895:6901   */\n      dup2\n        /* \"#utility.yul\":6882:6902   */\n      calldataload\n        /* \"#utility.yul\":6920:6998   */\n      tag_344\n        /* \"#utility.yul\":6994:6997   */\n      dup5\n        /* \"#utility.yul\":6986:6992   */\n      dup3\n        /* \"#utility.yul\":6979:6983   */\n      0x20\n        /* \"#utility.yul\":6971:6977   */\n      dup7\n        /* \"#utility.yul\":6967:6984   */\n      add\n        /* \"#utility.yul\":6920:6998   */\n      tag_213\n      jump\t// in\n    tag_344:\n        /* \"#utility.yul\":6911:6998   */\n      swap2\n      pop\n        /* \"#utility.yul\":6727:7004   */\n      pop\n        /* \"#utility.yul\":6666:7004   */\n      swap3\n      swap2\n      pop\n      pop\n      jump\t// out\n        /* \"#utility.yul\":7010:7807   */\n    tag_46:\n        /* \"#utility.yul\":7096:7102   */\n      0x00\n        /* \"#utility.yul\":7104:7110   */\n      dup1\n        /* \"#utility.yul\":7112:7118   */\n      0x00\n        /* \"#utility.yul\":7161:7163   */\n      0x60\n        /* \"#utility.yul\":7149:7158   */\n      dup5\n        /* \"#utility.yul\":7140:7147   */\n      dup7\n        /* \"#utility.yul\":7136:7159   */\n      sub\n        /* \"#utility.yul\":7132:7164   */\n      slt\n        /* \"#utility.yul\":7129:7248   */\n      iszero\n      tag_346\n      jumpi\n        /* \"#utility.yul\":7167:7246   */\n      tag_347\n      tag_188\n      jump\t// in\n    tag_347:\n        /* \"#utility.yul\":7129:7248   */\n    tag_346:\n        /* \"#utility.yul\":7287:7288   */\n      0x00\n        /* \"#utility.yul\":7312:7365   */\n      tag_348\n        /* \"#utility.yul\":7357:7364   */\n      dup7\n        /* \"#utility.yul\":7348:7354   */\n      dup3\n        /* \"#utility.yul\":7337:7346   */\n      dup8\n        /* \"#utility.yul\":7333:7355   */\n      add\n        /* \"#utility.yul\":7312:7365   */\n      tag_196\n      jump\t// in\n    tag_348:\n        /* \"#utility.yul\":7302:7365   */\n      swap4\n      pop\n        /* \"#utility.yul\":7258:7375   */\n      pop\n        /* \"#utility.yul\":7414:7416   */\n      0x20\n        /* \"#utility.yul\":7440:7493   */\n      tag_349\n        /* \"#utility.yul\":7485:7492   */\n      dup7\n        /* \"#utility.yul\":7476:7482   */\n      dup3\n        /* \"#utility.yul\":7465:7474   */\n      dup8\n        /* \"#utility.yul\":7461:7483   */\n      add\n        /* \"#utility.yul\":7440:7493   */\n      tag_192\n      jump\t// in\n    tag_349:\n        /* \"#utility.yul\":7430:7493   */\n      swap3\n      pop\n        /* \"#utility.yul\":7385:7503   */\n      pop\n        /* \"#utility.yul\":7570:7572   */\n      0x40\n        /* \"#utility.yul\":7559:7568   */\n      dup5\n        /* \"#utility.yul\":7555:7573   */\n      add\n        /* \"#utility.yul\":7542:7574   */\n      calldataload\n        /* \"#utility.yul\":7601:7619   */\n      0xffffffffffffffff\n        /* \"#utility.yul\":7593:7599   */\n      dup2\n        /* \"#utility.yul\":7590:7620   */\n      gt\n        /* \"#utility.yul\":7587:7704   */\n      iszero\n      tag_350\n      jumpi\n        /* \"#utility.yul\":7623:7702   */\n      tag_351\n      tag_189\n      jump\t// in\n    tag_351:\n        /* \"#utility.yul\":7587:7704   */\n    tag_350:\n        /* \"#utility.yul\":7728:7790   */\n      tag_352\n        /* \"#utility.yul\":7782:7789   */\n      dup7\n        /* \"#utility.yul\":7773:7779   */\n      dup3\n        /* \"#utility.yul\":7762:7771   */\n      dup8\n        /* \"#utility.yul\":7758:7780   */\n      add\n        /* \"#utility.yul\":7728:7790   */\n      tag_214\n      jump\t// in\n    tag_352:\n        /* \"#utility.yul\":7718:7790   */\n      swap2\n      pop\n        /* \"#utility.yul\":7513:7800   */\n      pop\n        /* \"#utility.yul\":7010:7807   */\n      swap3\n      pop\n      swap3\n      pop\n      swap3\n      jump\t// out\n        /* \"#utility.yul\":7813:8142   */\n    tag_52:\n        /* \"#utility.yul\":7872:7878   */\n      0x00\n        /* \"#utility.yul\":7921:7923   */\n      0x20\n        /* \"#utility.yul\":7909:7918   */\n      dup3\n        /* \"#utility.yul\":7900:7907   */\n      dup5\n        /* \"#utility.yul\":7896:7919   */\n      sub\n        /* \"#utility.yul\":7892:7924   */\n      slt\n        /* \"#utility.yul\":7889:8008   */\n      iszero\n      tag_354\n      jumpi\n        /* \"#utility.yul\":7927:8006   */\n      tag_355\n      tag_188\n      jump\t// in\n    tag_355:\n        /* \"#utility.yul\":7889:8008   */\n    tag_354:\n        /* \"#utility.yul\":8047:8048   */\n      0x00\n        /* \"#utility.yul\":8072:8125   */\n      tag_356\n        /* \"#utility.yul\":8117:8124   */\n      dup5\n        /* \"#utility.yul\":8108:8114   */\n      dup3\n        /* \"#utility.yul\":8097:8106   */\n      dup6\n        /* \"#utility.yul\":8093:8115   */\n      add\n        /* \"#utility.yul\":8072:8125   */\n      tag_196\n      jump\t// in\n    tag_356:\n        /* \"#utility.yul\":8062:8125   */\n      swap2\n      pop\n        /* \"#utility.yul\":8018:8135   */\n      pop\n        /* \"#utility.yul\":7813:8142   */\n      swap3\n      swap2\n      pop\n      pop\n      jump\t// out\n        /* \"#utility.yul\":8148:8262   */\n    tag_215:\n        /* \"#utility.yul\":8215:8221   */\n      0x00\n        /* \"#utility.yul\":8249:8254   */\n      dup2\n        /* \"#utility.yul\":8243:8255   */\n      mload\n        /* \"#utility.yul\":8233:8255   */\n      swap1\n      pop\n        /* \"#utility.yul\":8148:8262   */\n      swap2\n      swap1\n      pop\n      jump\t// out\n        /* \"#utility.yul\":8268:8452   */\n    tag_216:\n        /* \"#utility.yul\":8367:8378   */\n      0x00\n        /* \"#utility.yul\":8401:8407   */\n      dup3\n        /* \"#utility.yul\":8396:8399   */\n      dup3\n        /* \"#utility.yul\":8389:8408   */\n      mstore\n        /* \"#utility.yul\":8441:8445   */\n      0x20\n        /* \"#utility.yul\":8436:8439   */\n      dup3\n        /* \"#utility.yul\":8432:8446   */\n      add\n        /* \"#utility.yul\":8417:8446   */\n      swap1\n      pop\n        /* \"#utility.yul\":8268:8452   */\n      swap3\n      swap2\n      pop\n      pop\n      jump\t// out\n        /* \"#utility.yul\":8458:8590   */\n    tag_217:\n        /* \"#utility.yul\":8525:8529   */\n      0x00\n        /* \"#utility.yul\":8548:8551   */\n      dup2\n        /* \"#utility.yul\":8540:8551   */\n      swap1\n      pop\n        /* \"#utility.yul\":8578:8582   */\n      0x20\n        /* \"#utility.yul\":8573:8576   */\n      dup3\n        /* \"#utility.yul\":8569:8583   */\n      add\n        /* \"#utility.yul\":8561:8583   */\n      swap1\n      pop\n        /* \"#utility.yul\":8458:8590   */\n      swap2\n      swap1\n      pop\n      jump\t// out\n        /* \"#utility.yul\":8596:8704   */\n    tag_218:\n        /* \"#utility.yul\":8673:8697   */\n      tag_361\n        /* \"#utility.yul\":8691:8696   */\n      dup2\n        /* \"#utility.yul\":8673:8697   */\n      tag_194\n      jump\t// in\n    tag_361:\n        /* \"#utility.yul\":8668:8671   */\n      dup3\n        /* \"#utility.yul\":8661:8698   */\n      mstore\n        /* \"#utility.yul\":8596:8704   */\n      pop\n      pop\n      jump\t// out\n        /* \"#utility.yul\":8710:8889   */\n    tag_219:\n        /* \"#utility.yul\":8779:8789   */\n      0x00\n        /* \"#utility.yul\":8800:8846   */\n      tag_363\n        /* \"#utility.yul\":8842:8845   */\n      dup4\n        /* \"#utility.yul\":8834:8840   */\n      dup4\n        /* \"#utility.yul\":8800:8846   */\n      tag_218\n      jump\t// in\n    tag_363:\n        /* \"#utility.yul\":8878:8882   */\n      0x20\n        /* \"#utility.yul\":8873:8876   */\n      dup4\n        /* \"#utility.yul\":8869:8883   */\n      add\n        /* \"#utility.yul\":8855:8883   */\n      swap1\n      pop\n        /* \"#utility.yul\":8710:8889   */\n      swap3\n      swap2\n      pop\n      pop\n      jump\t// out\n        /* \"#utility.yul\":8895:9008   */\n    tag_220:\n        /* \"#utility.yul\":8965:8969   */\n      0x00\n        /* \"#utility.yul\":8997:9001   */\n      0x20\n        /* \"#utility.yul\":8992:8995   */\n      dup3\n        /* \"#utility.yul\":8988:9002   */\n      add\n        /* \"#utility.yul\":8980:9002   */\n      swap1\n      pop\n        /* \"#utility.yul\":8895:9008   */\n      swap2\n      swap1\n      pop\n      jump\t// out\n        /* \"#utility.yul\":9044:9776   */\n    tag_221:\n        /* \"#utility.yul\":9163:9166   */\n      0x00\n        /* \"#utility.yul\":9192:9246   */\n      tag_366\n        /* \"#utility.yul\":9240:9245   */\n      dup3\n        /* \"#utility.yul\":9192:9246   */\n      tag_215\n      jump\t// in\n    tag_366:\n        /* \"#utility.yul\":9262:9348   */\n      tag_367\n        /* \"#utility.yul\":9341:9347   */\n      dup2\n        /* \"#utility.yul\":9336:9339   */\n      dup6\n        /* \"#utility.yul\":9262:9348   */\n      tag_216\n      jump\t// in\n    tag_367:\n        /* \"#utility.yul\":9255:9348   */\n      swap4\n      pop\n        /* \"#utility.yul\":9372:9428   */\n      tag_368\n        /* \"#utility.yul\":9422:9427   */\n      dup4\n        /* \"#utility.yul\":9372:9428   */\n      tag_217\n      jump\t// in\n    tag_368:\n        /* \"#utility.yul\":9451:9458   */\n      dup1\n        /* \"#utility.yul\":9482:9483   */\n      0x00\n        /* \"#utility.yul\":9467:9751   */\n    tag_369:\n        /* \"#utility.yul\":9492:9498   */\n      dup4\n        /* \"#utility.yul\":9489:9490   */\n      dup2\n        /* \"#utility.yul\":9486:9499   */\n      lt\n        /* \"#utility.yul\":9467:9751   */\n      iszero\n      tag_371\n      jumpi\n        /* \"#utility.yul\":9568:9574   */\n      dup2\n        /* \"#utility.yul\":9562:9575   */\n      mload\n        /* \"#utility.yul\":9595:9658   */\n      tag_372\n        /* \"#utility.yul\":9654:9657   */\n      dup9\n        /* \"#utility.yul\":9639:9652   */\n      dup3\n        /* \"#utility.yul\":9595:9658   */\n      tag_219\n      jump\t// in\n    tag_372:\n        /* \"#utility.yul\":9588:9658   */\n      swap8\n      pop\n        /* \"#utility.yul\":9681:9741   */\n      tag_373\n        /* \"#utility.yul\":9734:9740   */\n      dup4\n        /* \"#utility.yul\":9681:9741   */\n      tag_220\n      jump\t// in\n    tag_373:\n        /* \"#utility.yul\":9671:9741   */\n      swap3\n      pop\n        /* \"#utility.yul\":9527:9751   */\n      pop\n        /* \"#utility.yul\":9514:9515   */\n      0x01\n        /* \"#utility.yul\":9511:9512   */\n      dup2\n        /* \"#utility.yul\":9507:9516   */\n      add\n        /* \"#utility.yul\":9502:9516   */\n      swap1\n      pop\n        /* \"#utility.yul\":9467:9751   */\n      jump(tag_369)\n    tag_371:\n        /* \"#utility.yul\":9471:9485   */\n      pop\n        /* \"#utility.yul\":9767:9770   */\n      dup6\n        /* \"#utility.yul\":9760:9770   */\n      swap4\n      pop\n        /* \"#utility.yul\":9168:9776   */\n      pop\n      pop\n      pop\n        /* \"#utility.yul\":9044:9776   */\n      swap3\n      swap2\n      pop\n      pop\n      jump\t// out\n        /* \"#utility.yul\":9782:10155   */\n    tag_59:\n        /* \"#utility.yul\":9925:9929   */\n      0x00\n        /* \"#utility.yul\":9963:9965   */\n      0x20\n        /* \"#utility.yul\":9952:9961   */\n      dup3\n        /* \"#utility.yul\":9948:9966   */\n      add\n        /* \"#utility.yul\":9940:9966   */\n      swap1\n      pop\n        /* \"#utility.yul\":10012:10021   */\n      dup2\n        /* \"#utility.yul\":10006:10010   */\n      dup2\n        /* \"#utility.yul\":10002:10022   */\n      sub\n        /* \"#utility.yul\":9998:9999   */\n      0x00\n        /* \"#utility.yul\":9987:9996   */\n      dup4\n        /* \"#utility.yul\":9983:10000   */\n      add\n        /* \"#utility.yul\":9976:10023   */\n      mstore\n        /* \"#utility.yul\":10040:10148   */\n      tag_375\n        /* \"#utility.yul\":10143:10147   */\n      dup2\n        /* \"#utility.yul\":10134:10140   */\n      dup5\n        /* \"#utility.yul\":10040:10148   */\n      tag_221\n      jump\t// in\n    tag_375:\n        /* \"#utility.yul\":10032:10148   */\n      swap1\n      pop\n        /* \"#utility.yul\":9782:10155   */\n      swap3\n      swap2\n      pop\n      pop\n      jump\t// out\n        /* \"#utility.yul\":10161:10330   */\n    tag_222:\n        /* \"#utility.yul\":10245:10256   */\n      0x00\n        /* \"#utility.yul\":10279:10285   */\n      dup3\n        /* \"#utility.yul\":10274:10277   */\n      dup3\n        /* \"#utility.yul\":10267:10286   */\n      mstore\n        /* \"#utility.yul\":10319:10323   */\n      0x20\n        /* \"#utility.yul\":10314:10317   */\n      dup3\n        /* \"#utility.yul\":10310:10324   */\n      add\n        /* \"#utility.yul\":10295:10324   */\n      swap1\n      pop\n        /* \"#utility.yul\":10161:10330   */\n      swap3\n      swap2\n      pop\n      pop\n      jump\t// out\n        /* \"#utility.yul\":10336:10512   */\n    tag_223:\n        /* \"#utility.yul\":10476:10504   */\n      0x5472616e73616374696f6e20646f6573206e6f74206578697374000000000000\n        /* \"#utility.yul\":10472:10473   */\n      0x00\n        /* \"#utility.yul\":10464:10470   */\n      dup3\n        /* \"#utility.yul\":10460:10474   */\n      add\n        /* \"#utility.yul\":10453:10505   */\n      mstore\n        /* \"#utility.yul\":10336:10512   */\n      pop\n      jump\t// out\n        /* \"#utility.yul\":10518:10884   */\n    tag_224:\n        /* \"#utility.yul\":10660:10663   */\n      0x00\n        /* \"#utility.yul\":10681:10748   */\n      tag_379\n        /* \"#utility.yul\":10745:10747   */\n      0x1a\n        /* \"#utility.yul\":10740:10743   */\n      dup4\n        /* \"#utility.yul\":10681:10748   */\n      tag_222\n      jump\t// in\n    tag_379:\n        /* \"#utility.yul\":10674:10748   */\n      swap2\n      pop\n        /* \"#utility.yul\":10757:10850   */\n      tag_380\n        /* \"#utility.yul\":10846:10849   */\n      dup3\n        /* \"#utility.yul\":10757:10850   */\n      tag_223\n      jump\t// in\n    tag_380:\n        /* \"#utility.yul\":10875:10877   */\n      0x20\n        /* \"#utility.yul\":10870:10873   */\n      dup3\n        /* \"#utility.yul\":10866:10878   */\n      add\n        /* \"#utility.yul\":10859:10878   */\n      swap1\n      pop\n        /* \"#utility.yul\":10518:10884   */\n      swap2\n      swap1\n      pop\n      jump\t// out\n        /* \"#utility.yul\":10890:11309   */\n    tag_84:\n        /* \"#utility.yul\":11056:11060   */\n      0x00\n        /* \"#utility.yul\":11094:11096   */\n      0x20\n        /* \"#utility.yul\":11083:11092   */\n      dup3\n        /* \"#utility.yul\":11079:11097   */\n      add\n        /* \"#utility.yul\":11071:11097   */\n      swap1\n      pop\n        /* \"#utility.yul\":11143:11152   */\n      dup2\n        /* \"#utility.yul\":11137:11141   */\n      dup2\n        /* \"#utility.yul\":11133:11153   */\n      sub\n        /* \"#utility.yul\":11129:11130   */\n      0x00\n        /* \"#utility.yul\":11118:11127   */\n      dup4\n        /* \"#utility.yul\":11114:11131   */\n      add\n        /* \"#utility.yul\":11107:11154   */\n      mstore\n        /* \"#utility.yul\":11171:11302   */\n      tag_382\n        /* \"#utility.yul\":11297:11301   */\n      dup2\n        /* \"#utility.yul\":11171:11302   */\n      tag_224\n      jump\t// in\n    tag_382:\n        /* \"#utility.yul\":11163:11302   */\n      swap1\n      pop\n        /* \"#utility.yul\":10890:11309   */\n      swap2\n      swap1\n      pop\n      jump\t// out\n        /* \"#utility.yul\":11315:11495   */\n    tag_225:\n        /* \"#utility.yul\":11363:11440   */\n      0x4e487b7100000000000000000000000000000000000000000000000000000000\n        /* \"#utility.yul\":11360:11361   */\n      0x00\n        /* \"#utility.yul\":11353:11441   */\n      mstore\n        /* \"#utility.yul\":11460:11464   */\n      0x22\n        /* \"#utility.yul\":11457:11458   */\n      0x04\n        /* \"#utility.yul\":11450:11465   */\n      mstore\n        /* \"#utility.yul\":11484:11488   */\n      0x24\n        /* \"#utility.yul\":11481:11482   */\n      0x00\n        /* \"#utility.yul\":11474:11489   */\n      revert\n        /* \"#utility.yul\":11501:11821   */\n    tag_89:\n        /* \"#utility.yul\":11545:11551   */\n      0x00\n        /* \"#utility.yul\":11582:11583   */\n      0x02\n        /* \"#utility.yul\":11576:11580   */\n      dup3\n        /* \"#utility.yul\":11572:11584   */\n      div\n        /* \"#utility.yul\":11562:11584   */\n      swap1\n      pop\n        /* \"#utility.yul\":11629:11630   */\n      0x01\n        /* \"#utility.yul\":11623:11627   */\n      dup3\n        /* \"#utility.yul\":11619:11631   */\n      and\n        /* \"#utility.yul\":11650:11668   */\n      dup1\n        /* \"#utility.yul\":11640:11721   */\n      tag_385\n      jumpi\n        /* \"#utility.yul\":11706:11710   */\n      0x7f\n        /* \"#utility.yul\":11698:11704   */\n      dup3\n        /* \"#utility.yul\":11694:11711   */\n      and\n        /* \"#utility.yul\":11684:11711   */\n      swap2\n      pop\n        /* \"#utility.yul\":11640:11721   */\n    tag_385:\n        /* \"#utility.yul\":11768:11770   */\n      0x20\n        /* \"#utility.yul\":11760:11766   */\n      dup3\n        /* \"#utility.yul\":11757:11771   */\n      lt\n        /* \"#utility.yul\":11737:11755   */\n      dup2\n        /* \"#utility.yul\":11734:11772   */\n      sub\n        /* \"#utility.yul\":11731:11815   */\n      tag_386\n      jumpi\n        /* \"#utility.yul\":11787:11805   */\n      tag_387\n      tag_225\n      jump\t// in\n    tag_387:\n        /* \"#utility.yul\":11731:11815   */\n    tag_386:\n        /* \"#utility.yul\":11552:11821   */\n      pop\n        /* \"#utility.yul\":11501:11821   */\n      swap2\n      swap1\n      pop\n      jump\t// out\n        /* \"#utility.yul\":11827:11989   */\n    tag_226:\n        /* \"#utility.yul\":11967:11981   */\n      0x4e6f742061207369676e65720000000000000000000000000000000000000000\n        /* \"#utility.yul\":11963:11964   */\n      0x00\n        /* \"#utility.yul\":11955:11961   */\n      dup3\n        /* \"#utility.yul\":11951:11965   */\n      add\n        /* \"#utility.yul\":11944:11982   */\n      mstore\n        /* \"#utility.yul\":11827:11989   */\n      pop\n      jump\t// out\n        /* \"#utility.yul\":11995:12361   */\n    tag_227:\n        /* \"#utility.yul\":12137:12140   */\n      0x00\n        /* \"#utility.yul\":12158:12225   */\n      tag_390\n        /* \"#utility.yul\":12222:12224   */\n      0x0c\n        /* \"#utility.yul\":12217:12220   */\n      dup4\n        /* \"#utility.yul\":12158:12225   */\n      tag_222\n      jump\t// in\n    tag_390:\n        /* \"#utility.yul\":12151:12225   */\n      swap2\n      pop\n        /* \"#utility.yul\":12234:12327   */\n      tag_391\n        /* \"#utility.yul\":12323:12326   */\n      dup3\n        /* \"#utility.yul\":12234:12327   */\n      tag_226\n      jump\t// in\n    tag_391:\n        /* \"#utility.yul\":12352:12354   */\n      0x20\n        /* \"#utility.yul\":12347:12350   */\n      dup3\n        /* \"#utility.yul\":12343:12355   */\n      add\n        /* \"#utility.yul\":12336:12355   */\n      swap1\n      pop\n        /* \"#utility.yul\":11995:12361   */\n      swap2\n      swap1\n      pop\n      jump\t// out\n        /* \"#utility.yul\":12367:12786   */\n    tag_100:\n        /* \"#utility.yul\":12533:12537   */\n      0x00\n        /* \"#utility.yul\":12571:12573   */\n      0x20\n        /* \"#utility.yul\":12560:12569   */\n      dup3\n        /* \"#utility.yul\":12556:12574   */\n      add\n        /* \"#utility.yul\":12548:12574   */\n      swap1\n      pop\n        /* \"#utility.yul\":12620:12629   */\n      dup2\n        /* \"#utility.yul\":12614:12618   */\n      dup2\n        /* \"#utility.yul\":12610:12630   */\n      sub\n        /* \"#utility.yul\":12606:12607   */\n      0x00\n        /* \"#utility.yul\":12595:12604   */\n      dup4\n        /* \"#utility.yul\":12591:12608   */\n      add\n        /* \"#utility.yul\":12584:12631   */\n      mstore\n        /* \"#utility.yul\":12648:12779   */\n      tag_393\n        /* \"#utility.yul\":12774:12778   */\n      dup2\n        /* \"#utility.yul\":12648:12779   */\n      tag_227\n      jump\t// in\n    tag_393:\n        /* \"#utility.yul\":12640:12779   */\n      swap1\n      pop\n        /* \"#utility.yul\":12367:12786   */\n      swap2\n      swap1\n      pop\n      jump\t// out\n        /* \"#utility.yul\":12792:12964   */\n    tag_228:\n        /* \"#utility.yul\":12932:12956   */\n      0x496e76616c696420746172676574206164647265737300000000000000000000\n        /* \"#utility.yul\":12928:12929   */\n      0x00\n        /* \"#utility.yul\":12920:12926   */\n      dup3\n        /* \"#utility.yul\":12916:12930   */\n      add\n        /* \"#utility.yul\":12909:12957   */\n      mstore\n        /* \"#utility.yul\":12792:12964   */\n      pop\n      jump\t// out\n        /* \"#utility.yul\":12970:13336   */\n    tag_229:\n        /* \"#utility.yul\":13112:13115   */\n      0x00\n        /* \"#utility.yul\":13133:13200   */\n      tag_396\n        /* \"#utility.yul\":13197:13199   */\n      0x16\n        /* \"#utility.yul\":13192:13195   */\n      dup4\n        /* \"#utility.yul\":13133:13200   */\n      tag_222\n      jump\t// in\n    tag_396:\n        /* \"#utility.yul\":13126:13200   */\n      swap2\n      pop\n        /* \"#utility.yul\":13209:13302   */\n      tag_397\n        /* \"#utility.yul\":13298:13301   */\n      dup3\n        /* \"#utility.yul\":13209:13302   */\n      tag_228\n      jump\t// in\n    tag_397:\n        /* \"#utility.yul\":13327:13329   */\n      0x20\n        /* \"#utility.yul\":13322:13325   */\n      dup3\n        /* \"#utility.yul\":13318:13330   */\n      add\n        /* \"#utility.yul\":13311:13330   */\n      swap1\n      pop\n        /* \"#utility.yul\":12970:13336   */\n      swap2\n      swap1\n      pop\n      jump\t// out\n        /* \"#utility.yul\":13342:13761   */\n    tag_104:\n        /* \"#utility.yul\":13508:13512   */\n      0x00\n        /* \"#utility.yul\":13546:13548   */\n      0x20\n        /* \"#utility.yul\":13535:13544   */\n      dup3\n        /* \"#utility.yul\":13531:13549   */\n      add\n        /* \"#utility.yul\":13523:13549   */\n      swap1\n      pop\n        /* \"#utility.yul\":13595:13604   */\n      dup2\n        /* \"#utility.yul\":13589:13593   */\n      dup2\n        /* \"#utility.yul\":13585:13605   */\n      sub\n        /* \"#utility.yul\":13581:13582   */\n      0x00\n        /* \"#utility.yul\":13570:13579   */\n      dup4\n        /* \"#utility.yul\":13566:13583   */\n      add\n        /* \"#utility.yul\":13559:13606   */\n      mstore\n        /* \"#utility.yul\":13623:13754   */\n      tag_399\n        /* \"#utility.yul\":13749:13753   */\n      dup2\n        /* \"#utility.yul\":13623:13754   */\n      tag_229\n      jump\t// in\n    tag_399:\n        /* \"#utility.yul\":13615:13754   */\n      swap1\n      pop\n        /* \"#utility.yul\":13342:13761   */\n      swap2\n      swap1\n      pop\n      jump\t// out\n        /* \"#utility.yul\":13767:13907   */\n    tag_230:\n        /* \"#utility.yul\":13815:13819   */\n      0x00\n        /* \"#utility.yul\":13838:13841   */\n      dup2\n        /* \"#utility.yul\":13830:13841   */\n      swap1\n      pop\n        /* \"#utility.yul\":13861:13864   */\n      dup2\n        /* \"#utility.yul\":13858:13859   */\n      0x00\n        /* \"#utility.yul\":13851:13865   */\n      mstore\n        /* \"#utility.yul\":13895:13899   */\n      0x20\n        /* \"#utility.yul\":13892:13893   */\n      0x00\n        /* \"#utility.yul\":13882:13900   */\n      keccak256\n        /* \"#utility.yul\":13874:13900   */\n      swap1\n      pop\n        /* \"#utility.yul\":13767:13907   */\n      swap2\n      swap1\n      pop\n      jump\t// out\n        /* \"#utility.yul\":13913:14006   */\n    tag_231:\n        /* \"#utility.yul\":13950:13956   */\n      0x00\n        /* \"#utility.yul\":13997:13999   */\n      0x20\n        /* \"#utility.yul\":13992:13994   */\n      0x1f\n        /* \"#utility.yul\":13985:13990   */\n      dup4\n        /* \"#utility.yul\":13981:13995   */\n      add\n        /* \"#utility.yul\":13977:14000   */\n      div\n        /* \"#utility.yul\":13967:14000   */\n      swap1\n      pop\n        /* \"#utility.yul\":13913:14006   */\n      swap2\n      swap1\n      pop\n      jump\t// out\n        /* \"#utility.yul\":14012:14119   */\n    tag_232:\n        /* \"#utility.yul\":14056:14064   */\n      0x00\n        /* \"#utility.yul\":14106:14111   */\n      dup3\n        /* \"#utility.yul\":14100:14104   */\n      dup3\n        /* \"#utility.yul\":14096:14112   */\n      shl\n        /* \"#utility.yul\":14075:14112   */\n      swap1\n      pop\n        /* \"#utility.yul\":14012:14119   */\n      swap3\n      swap2\n      pop\n      pop\n      jump\t// out\n        /* \"#utility.yul\":14125:14518   */\n    tag_233:\n        /* \"#utility.yul\":14194:14200   */\n      0x00\n        /* \"#utility.yul\":14244:14245   */\n      0x08\n        /* \"#utility.yul\":14232:14242   */\n      dup4\n        /* \"#utility.yul\":14228:14246   */\n      mul\n        /* \"#utility.yul\":14267:14364   */\n      tag_404\n        /* \"#utility.yul\":14297:14363   */\n      0xffffffffffffffffffffffffffffffffffffffffffffffffffffffffffffffff\n        /* \"#utility.yul\":14286:14295   */\n      dup3\n        /* \"#utility.yul\":14267:14364   */\n      tag_232\n      jump\t// in\n    tag_404:\n        /* \"#utility.yul\":14385:14424   */\n      tag_405\n        /* \"#utility.yul\":14415:14423   */\n      dup7\n        /* \"#utility.yul\":14404:14413   */\n      dup4\n        /* \"#utility.yul\":14385:14424   */\n      tag_232\n      jump\t// in\n    tag_405:\n        /* \"#utility.yul\":14373:14424   */\n      swap6\n      pop\n        /* \"#utility.yul\":14457:14461   */\n      dup1\n        /* \"#utility.yul\":14453:14462   */\n      not\n        /* \"#utility.yul\":14446:14451   */\n      dup5\n        /* \"#utility.yul\":14442:14463   */\n      and\n        /* \"#utility.yul\":14433:14463   */\n      swap4\n      pop\n        /* \"#utility.yul\":14506:14510   */\n      dup1\n        /* \"#utility.yul\":14496:14504   */\n      dup7\n        /* \"#utility.yul\":14492:14511   */\n      and\n        /* \"#utility.yul\":14485:14490   */\n      dup5\n        /* \"#utility.yul\":14482:14512   */\n      or\n        /* \"#utility.yul\":14472:14512   */\n      swap3\n      pop\n        /* \"#utility.yul\":14201:14518   */\n      pop\n      pop\n        /* \"#utility.yul\":14125:14518   */\n      swap4\n      swap3\n      pop\n      pop\n      pop\n      jump\t// out\n        /* \"#utility.yul\":14524:14584   */\n    tag_234:\n        /* \"#utility.yul\":14552:14555   */\n      0x00\n        /* \"#utility.yul\":14573:14578   */\n      dup2\n        /* \"#utility.yul\":14566:14578   */\n      swap1\n      pop\n        /* \"#utility.yul\":14524:14584   */\n      swap2\n      swap1\n      pop\n      jump\t// out\n        /* \"#utility.yul\":14590:14732   */\n    tag_235:\n        /* \"#utility.yul\":14640:14649   */\n      0x00\n        /* \"#utility.yul\":14673:14726   */\n      tag_408\n        /* \"#utility.yul\":14691:14725   */\n      tag_409\n        /* \"#utility.yul\":14700:14724   */\n      tag_410\n        /* \"#utility.yul\":14718:14723   */\n      dup5\n        /* \"#utility.yul\":14700:14724   */\n      tag_190\n      jump\t// in\n    tag_410:\n        /* \"#utility.yul\":14691:14725   */\n      tag_234\n      jump\t// in\n    tag_409:\n        /* \"#utility.yul\":14673:14726   */\n      tag_190\n      jump\t// in\n    tag_408:\n        /* \"#utility.yul\":14660:14726   */\n      swap1\n      pop\n        /* \"#utility.yul\":14590:14732   */\n      swap2\n      swap1\n      pop\n      jump\t// out\n        /* \"#utility.yul\":14738:14813   */\n    tag_236:\n        /* \"#utility.yul\":14781:14784   */\n      0x00\n        /* \"#utility.yul\":14802:14807   */\n      dup2\n        /* \"#utility.yul\":14795:14807   */\n      swap1\n      pop\n        /* \"#utility.yul\":14738:14813   */\n      swap2\n      swap1\n      pop\n      jump\t// out\n        /* \"#utility.yul\":14819:15088   */\n    tag_237:\n        /* \"#utility.yul\":14929:14968   */\n      tag_413\n        /* \"#utility.yul\":14960:14967   */\n      dup4\n        /* \"#utility.yul\":14929:14968   */\n      tag_235\n      jump\t// in\n    tag_413:\n        /* \"#utility.yul\":14990:15081   */\n      tag_414\n        /* \"#utility.yul\":15039:15080   */\n      tag_415\n        /* \"#utility.yul\":15063:15079   */\n      dup3\n        /* \"#utility.yul\":15039:15080   */\n      tag_236\n      jump\t// in\n    tag_415:\n        /* \"#utility.yul\":15031:15037   */\n      dup5\n        /* \"#utility.yul\":15024:15028   */\n      dup5\n        /* \"#utility.yul\":15018:15029   */\n      sload\n        /* \"#utility.yul\":14990:15081   */\n      tag_233\n      jump\t// in\n    tag_414:\n        /* \"#utility.yul\":14984:14988   */\n      dup3\n        /* \"#utility.yul\":14977:15082   */\n      sstore\n        /* \"#utility.yul\":14895:15088   */\n      pop\n        /* \"#utility.yul\":14819:15088   */\n      pop\n      pop\n      pop\n      jump\t// out\n        /* \"#utility.yul\":15094:15167   */\n    tag_238:\n        /* \"#utility.yul\":15139:15142   */\n      0x00\n        /* \"#utility.yul\":15094:15167   */\n      swap1\n      jump\t// out\n        /* \"#utility.yul\":15173:15362   */\n    tag_239:\n        /* \"#utility.yul\":15250:15282   */\n      tag_418\n      tag_238\n      jump\t// in\n    tag_418:\n        /* \"#utility.yul\":15291:15356   */\n      tag_419\n        /* \"#utility.yul\":15349:15355   */\n      dup2\n        /* \"#utility.yul\":15341:15347   */\n      dup5\n        /* \"#utility.yul\":15335:15339   */\n      dup5\n        /* \"#utility.yul\":15291:15356   */\n      tag_237\n      jump\t// in\n    tag_419:\n        /* \"#utility.yul\":15226:15362   */\n      pop\n        /* \"#utility.yul\":15173:15362   */\n      pop\n      pop\n      jump\t// out\n        /* \"#utility.yul\":15368:15554   */\n    tag_240:\n        /* \"#utility.yul\":15428:15548   */\n    tag_421:\n        /* \"#utility.yul\":15445:15448   */\n      dup2\n        /* \"#utility.yul\":15438:15443   */\n      dup2\n        /* \"#utility.yul\":15435:15449   */\n      lt\n        /* \"#utility.yul\":15428:15548   */\n      iszero\n      tag_423\n      jumpi\n        /* \"#utility.yul\":15499:15538   */\n      tag_424\n        /* \"#utility.yul\":15536:15537   */\n      0x00\n        /* \"#utility.yul\":15529:15534   */\n      dup3\n        /* \"#utility.yul\":15499:15538   */\n      tag_239\n      jump\t// in\n    tag_424:\n        /* \"#utility.yul\":15472:15473   */\n      0x01\n        /* \"#utility.yul\":15465:15470   */\n      dup2\n        /* \"#utility.yul\":15461:15474   */\n      add\n        /* \"#utility.yul\":15452:15474   */\n      swap1\n      pop\n        /* \"#utility.yul\":15428:15548   */\n      jump(tag_421)\n    tag_423:\n        /* \"#utility.yul\":15368:15554   */\n      pop\n      pop\n      jump\t// out\n        /* \"#utility.yul\":15560:16101   */\n    tag_241:\n        /* \"#utility.yul\":15660:15662   */\n      0x1f\n        /* \"#utility.yul\":15655:15658   */\n      dup3\n        /* \"#utility.yul\":15652:15663   */\n      gt\n        /* \"#utility.yul\":15649:16094   */\n      iszero\n      tag_426\n      jumpi\n        /* \"#utility.yul\":15694:15731   */\n      tag_427\n        /* \"#utility.yul\":15725:15730   */\n      dup2\n        /* \"#utility.yul\":15694:15731   */\n      tag_230\n      jump\t// in\n    tag_427:\n        /* \"#utility.yul\":15777:15806   */\n      tag_428\n        /* \"#utility.yul\":15795:15805   */\n      dup5\n        /* \"#utility.yul\":15777:15806   */\n      tag_231\n      jump\t// in\n    tag_428:\n        /* \"#utility.yul\":15767:15775   */\n      dup2\n        /* \"#utility.yul\":15763:15807   */\n      add\n        /* \"#utility.yul\":15960:15962   */\n      0x20\n        /* \"#utility.yul\":15948:15958   */\n      dup6\n        /* \"#utility.yul\":15945:15963   */\n      lt\n        /* \"#utility.yul\":15942:15991   */\n      iszero\n      tag_429\n      jumpi\n        /* \"#utility.yul\":15981:15989   */\n      dup2\n        /* \"#utility.yul\":15966:15989   */\n      swap1\n      pop\n        /* \"#utility.yul\":15942:15991   */\n    tag_429:\n        /* \"#utility.yul\":16004:16084   */\n      tag_430\n        /* \"#utility.yul\":16060:16082   */\n      tag_431\n        /* \"#utility.yul\":16078:16081   */\n      dup6\n        /* \"#utility.yul\":16060:16082   */\n      tag_231\n      jump\t// in\n    tag_431:\n        /* \"#utility.yul\":16050:16058   */\n      dup4\n        /* \"#utility.yul\":16046:16083   */\n      add\n        /* \"#utility.yul\":16033:16044   */\n      dup3\n        /* \"#utility.yul\":16004:16084   */\n      tag_240\n      jump\t// in\n    tag_430:\n        /* \"#utility.yul\":15664:16094   */\n      pop\n      pop\n        /* \"#utility.yul\":15649:16094   */\n    tag_426:\n        /* \"#utility.yul\":15560:16101   */\n      pop\n      pop\n      pop\n      jump\t// out\n        /* \"#utility.yul\":16107:16224   */\n    tag_242:\n        /* \"#utility.yul\":16161:16169   */\n      0x00\n        /* \"#utility.yul\":16211:16216   */\n      dup3\n        /* \"#utility.yul\":16205:16209   */\n      dup3\n        /* \"#utility.yul\":16201:16217   */\n      shr\n        /* \"#utility.yul\":16180:16217   */\n      swap1\n      pop\n        /* \"#utility.yul\":16107:16224   */\n      swap3\n      swap2\n      pop\n      pop\n      jump\t// out\n        /* \"#utility.yul\":16230:16399   */\n    tag_243:\n        /* \"#utility.yul\":16274:16280   */\n      0x00\n        /* \"#utility.yul\":16307:16358   */\n      tag_434\n        /* \"#utility.yul\":16355:16356   */\n      0x00\n        /* \"#utility.yul\":16351:16357   */\n      not\n        /* \"#utility.yul\":16343:16348   */\n      dup5\n        /* \"#utility.yul\":16340:16341   */\n      0x08\n        /* \"#utility.yul\":16336:16349   */\n      mul\n        /* \"#utility.yul\":16307:16358   */\n      tag_242\n      jump\t// in\n    tag_434:\n        /* \"#utility.yul\":16303:16359   */\n      not\n        /* \"#utility.yul\":16388:16392   */\n      dup1\n        /* \"#utility.yul\":16382:16386   */\n      dup4\n        /* \"#utility.yul\":16378:16393   */\n      and\n        /* \"#utility.yul\":16368:16393   */\n      swap2\n      pop\n        /* \"#utility.yul\":16281:16399   */\n      pop\n        /* \"#utility.yul\":16230:16399   */\n      swap3\n      swap2\n      pop\n      pop\n      jump\t// out\n        /* \"#utility.yul\":16404:16699   */\n    tag_244:\n        /* \"#utility.yul\":16480:16484   */\n      0x00\n        /* \"#utility.yul\":16626:16655   */\n      tag_436\n        /* \"#utility.yul\":16651:16654   */\n      dup4\n        /* \"#utility.yul\":16645:16649   */\n      dup4\n        /* \"#utility.yul\":16626:16655   */\n      tag_243\n      jump\t// in\n    tag_436:\n        /* \"#utility.yul\":16618:16655   */\n      swap2\n      pop\n        /* \"#utility.yul\":16688:16691   */\n      dup3\n        /* \"#utility.yul\":16685:16686   */\n      0x02\n        /* \"#utility.yul\":16681:16692   */\n      mul\n        /* \"#utility.yul\":16675:16679   */\n      dup3\n        /* \"#utility.yul\":16672:16693   */\n      or\n        /* \"#utility.yul\":16664:16693   */\n      swap1\n      pop\n        /* \"#utility.yul\":16404:16699   */\n      swap3\n      swap2\n      pop\n      pop\n      jump\t// out\n        /* \"#utility.yul\":16704:18094   */\n    tag_106:\n        /* \"#utility.yul\":16819:16855   */\n      tag_438\n        /* \"#utility.yul\":16851:16854   */\n      dup3\n        /* \"#utility.yul\":16819:16855   */\n      tag_201\n      jump\t// in\n    tag_438:\n        /* \"#utility.yul\":16920:16938   */\n      0xffffffffffffffff\n        /* \"#utility.yul\":16912:16918   */\n      dup2\n        /* \"#utility.yul\":16909:16939   */\n      gt\n        /* \"#utility.yul\":16906:16962   */\n      iszero\n      tag_439\n      jumpi\n        /* \"#utility.yul\":16942:16960   */\n      tag_440\n      tag_208\n      jump\t// in\n    tag_440:\n        /* \"#utility.yul\":16906:16962   */\n    tag_439:\n        /* \"#utility.yul\":16986:17024   */\n      tag_441\n        /* \"#utility.yul\":17018:17022   */\n      dup3\n        /* \"#utility.yul\":17012:17023   */\n      sload\n        /* \"#utility.yul\":16986:17024   */\n      tag_89\n      jump\t// in\n    tag_441:\n        /* \"#utility.yul\":17071:17137   */\n      tag_442\n        /* \"#utility.yul\":17130:17136   */\n      dup3\n        /* \"#utility.yul\":17122:17128   */\n      dup3\n        /* \"#utility.yul\":17116:17120   */\n      dup6\n        /* \"#utility.yul\":17071:17137   */\n      tag_241\n      jump\t// in\n    tag_442:\n        /* \"#utility.yul\":17164:17165   */\n      0x00\n        /* \"#utility.yul\":17188:17192   */\n      0x20\n        /* \"#utility.yul\":17175:17192   */\n      swap1\n      pop\n        /* \"#utility.yul\":17220:17222   */\n      0x1f\n        /* \"#utility.yul\":17212:17218   */\n      dup4\n        /* \"#utility.yul\":17209:17223   */\n      gt\n        /* \"#utility.yul\":17237:17238   */\n      0x01\n        /* \"#utility.yul\":17232:17849   */\n      dup2\n      eq\n      tag_444\n      jumpi\n        /* \"#utility.yul\":17893:17894   */\n      0x00\n        /* \"#utility.yul\":17910:17916   */\n      dup5\n        /* \"#utility.yul\":17907:17984   */\n      iszero\n      tag_445\n      jumpi\n        /* \"#utility.yul\":17959:17968   */\n      dup3\n        /* \"#utility.yul\":17954:17957   */\n      dup8\n        /* \"#utility.yul\":17950:17969   */\n      add\n        /* \"#utility.yul\":17944:17970   */\n      mload\n        /* \"#utility.yul\":17935:17970   */\n      swap1\n      pop\n        /* \"#utility.yul\":17907:17984   */\n    tag_445:\n        /* \"#utility.yul\":18010:18077   */\n      tag_446\n        /* \"#utility.yul\":18070:18076   */\n      dup6\n        /* \"#utility.yul\":18063:18068   */\n      dup3\n        /* \"#utility.yul\":18010:18077   */\n      tag_244\n      jump\t// in\n    tag_446:\n        /* \"#utility.yul\":18004:18008   */\n      dup7\n        /* \"#utility.yul\":17997:18078   */\n      sstore\n        /* \"#utility.yul\":17866:18088   */\n      pop\n        /* \"#utility.yul\":17202:18088   */\n      jump(tag_443)\n        /* \"#utility.yul\":17232:17849   */\n    tag_444:\n        /* \"#utility.yul\":17284:17288   */\n      0x1f\n        /* \"#utility.yul\":17280:17289   */\n      not\n        /* \"#utility.yul\":17272:17278   */\n      dup5\n        /* \"#utility.yul\":17268:17290   */\n      and\n        /* \"#utility.yul\":17318:17354   */\n      tag_447\n        /* \"#utility.yul\":17349:17353   */\n      dup7\n        /* \"#utility.yul\":17318:17354   */\n      tag_230\n      jump\t// in\n    tag_447:\n        /* \"#utility.yul\":17376:17377   */\n      0x00\n        /* \"#utility.yul\":17390:17598   */\n    tag_448:\n        /* \"#utility.yul\":17404:17411   */\n      dup3\n        /* \"#utility.yul\":17401:17402   */\n      dup2\n        /* \"#utility.yul\":17398:17412   */\n      lt\n        /* \"#utility.yul\":17390:17598   */\n      iszero\n      tag_450\n      jumpi\n        /* \"#utility.yul\":17483:17492   */\n      dup5\n        /* \"#utility.yul\":17478:17481   */\n      dup10\n        /* \"#utility.yul\":17474:17493   */\n      add\n        /* \"#utility.yul\":17468:17494   */\n      mload\n        /* \"#utility.yul\":17460:17466   */\n      dup3\n        /* \"#utility.yul\":17453:17495   */\n      sstore\n        /* \"#utility.yul\":17534:17535   */\n      0x01\n        /* \"#utility.yul\":17526:17532   */\n      dup3\n        /* \"#utility.yul\":17522:17536   */\n      add\n        /* \"#utility.yul\":17512:17536   */\n      swap2\n      pop\n        /* \"#utility.yul\":17581:17583   */\n      0x20\n        /* \"#utility.yul\":17570:17579   */\n      dup6\n        /* \"#utility.yul\":17566:17584   */\n      add\n        /* \"#utility.yul\":17553:17584   */\n      swap5\n      pop\n        /* \"#utility.yul\":17427:17431   */\n      0x20\n        /* \"#utility.yul\":17424:17425   */\n      dup2\n        /* \"#utility.yul\":17420:17432   */\n      add\n        /* \"#utility.yul\":17415:17432   */\n      swap1\n      pop\n        /* \"#utility.yul\":17390:17598   */\n      jump(tag_448)\n    tag_450:\n        /* \"#utility.yul\":17626:17632   */\n      dup7\n        /* \"#utility.yul\":17617:17624   */\n      dup4\n        /* \"#utility.yul\":17614:17633   */\n      lt\n        /* \"#utility.yul\":17611:17790   */\n      iszero\n      tag_451\n      jumpi\n        /* \"#utility.yul\":17684:17693   */\n      dup5\n        /* \"#utility.yul\":17679:17682   */\n      dup10\n        /* \"#utility.yul\":17675:17694   */\n      add\n        /* \"#utility.yul\":17669:17695   */\n      mload\n        /* \"#utility.yul\":17727:17775   */\n      tag_452\n        /* \"#utility.yul\":17769:17773   */\n      0x1f\n        /* \"#utility.yul\":17761:17767   */\n      dup10\n        /* \"#utility.yul\":17757:17774   */\n      and\n        /* \"#utility.yul\":17746:17755   */\n      dup3\n        /* \"#utility.yul\":17727:17775   */\n      tag_243\n      jump\t// in\n    tag_452:\n        /* \"#utility.yul\":17719:17725   */\n      dup4\n        /* \"#utility.yul\":17712:17776   */\n      sstore\n        /* \"#utility.yul\":17634:17790   */\n      pop\n        /* \"#utility.yul\":17611:17790   */\n    tag_451:\n        /* \"#utility.yul\":17836:17837   */\n      0x01\n        /* \"#utility.yul\":17832:17833   */\n      0x02\n        /* \"#utility.yul\":17824:17830   */\n      dup9\n        /* \"#utility.yul\":17820:17834   */\n      mul\n        /* \"#utility.yul\":17816:17838   */\n      add\n        /* \"#utility.yul\":17810:17814   */\n      dup9\n        /* \"#utility.yul\":17803:17839   */\n      sstore\n        /* \"#utility.yul\":17239:17849   */\n      pop\n      pop\n      pop\n        /* \"#utility.yul\":17202:18088   */\n    tag_443:\n      pop\n        /* \"#utility.yul\":16794:18094   */\n      pop\n      pop\n      pop\n        /* \"#utility.yul\":16704:18094   */\n      pop\n      pop\n      jump\t// out\n        /* \"#utility.yul\":18100:18280   */\n    tag_245:\n        /* \"#utility.yul\":18148:18225   */\n      0x4e487b7100000000000000000000000000000000000000000000000000000000\n        /* \"#utility.yul\":18145:18146   */\n      0x00\n        /* \"#utility.yul\":18138:18226   */\n      mstore\n        /* \"#utility.yul\":18245:18249   */\n      0x11\n        /* \"#utility.yul\":18242:18243   */\n      0x04\n        /* \"#utility.yul\":18235:18250   */\n      mstore\n        /* \"#utility.yul\":18269:18273   */\n      0x24\n        /* \"#utility.yul\":18266:18267   */\n      0x00\n        /* \"#utility.yul\":18259:18274   */\n      revert\n        /* \"#utility.yul\":18286:18519   */\n    tag_108:\n        /* \"#utility.yul\":18325:18328   */\n      0x00\n        /* \"#utility.yul\":18348:18372   */\n      tag_455\n        /* \"#utility.yul\":18366:18371   */\n      dup3\n        /* \"#utility.yul\":18348:18372   */\n      tag_190\n      jump\t// in\n    tag_455:\n        /* \"#utility.yul\":18339:18372   */\n      swap2\n      pop\n        /* \"#utility.yul\":18394:18460   */\n      0xffffffffffffffffffffffffffffffffffffffffffffffffffffffffffffffff\n        /* \"#utility.yul\":18387:18392   */\n      dup3\n        /* \"#utility.yul\":18384:18461   */\n      sub\n        /* \"#utility.yul\":18381:18484   */\n      tag_456\n      jumpi\n        /* \"#utility.yul\":18464:18482   */\n      tag_457\n      tag_245\n      jump\t// in\n    tag_457:\n        /* \"#utility.yul\":18381:18484   */\n    tag_456:\n        /* \"#utility.yul\":18511:18512   */\n      0x01\n        /* \"#utility.yul\":18504:18509   */\n      dup3\n        /* \"#utility.yul\":18500:18513   */\n      add\n        /* \"#utility.yul\":18493:18513   */\n      swap1\n      pop\n        /* \"#utility.yul\":18286:18519   */\n      swap2\n      swap1\n      pop\n      jump\t// out\n        /* \"#utility.yul\":18525:18944   */\n    tag_110:\n        /* \"#utility.yul\":18664:18668   */\n      0x00\n        /* \"#utility.yul\":18702:18704   */\n      0x40\n        /* \"#utility.yul\":18691:18700   */\n      dup3\n        /* \"#utility.yul\":18687:18705   */\n      add\n        /* \"#utility.yul\":18679:18705   */\n      swap1\n      pop\n        /* \"#utility.yul\":18715:18786   */\n      tag_459\n        /* \"#utility.yul\":18783:18784   */\n      0x00\n        /* \"#utility.yul\":18772:18781   */\n      dup4\n        /* \"#utility.yul\":18768:18785   */\n      add\n        /* \"#utility.yul\":18759:18765   */\n      dup6\n        /* \"#utility.yul\":18715:18786   */\n      tag_200\n      jump\t// in\n    tag_459:\n        /* \"#utility.yul\":18833:18842   */\n      dup2\n        /* \"#utility.yul\":18827:18831   */\n      dup2\n        /* \"#utility.yul\":18823:18843   */\n      sub\n        /* \"#utility.yul\":18818:18820   */\n      0x20\n        /* \"#utility.yul\":18807:18816   */\n      dup4\n        /* \"#utility.yul\":18803:18821   */\n      add\n        /* \"#utility.yul\":18796:18844   */\n      mstore\n        /* \"#utility.yul\":18861:18937   */\n      tag_460\n        /* \"#utility.yul\":18932:18936   */\n      dup2\n        /* \"#utility.yul\":18923:18929   */\n      dup5\n        /* \"#utility.yul\":18861:18937   */\n      tag_205\n      jump\t// in\n    tag_460:\n        /* \"#utility.yul\":18853:18937   */\n      swap1\n      pop\n        /* \"#utility.yul\":18525:18944   */\n      swap4\n      swap3\n      pop\n      pop\n      pop\n      jump\t// out\n        /* \"#utility.yul\":18950:19130   */\n    tag_117:\n        /* \"#utility.yul\":18998:19075   */\n      0x4e487b7100000000000000000000000000000000000000000000000000000000\n        /* \"#utility.yul\":18995:18996   */\n      0x00\n        /* \"#utility.yul\":18988:19076   */\n      mstore\n        /* \"#utility.yul\":19095:19099   */\n      0x32\n        /* \"#utility.yul\":19092:19093   */\n      0x04\n        /* \"#utility.yul\":19085:19100   */\n      mstore\n        /* \"#utility.yul\":19119:19123   */\n      0x24\n        /* \"#utility.yul\":19116:19117   */\n      0x00\n        /* \"#utility.yul\":19109:19124   */\n      revert\n        /* \"#utility.yul\":19136:19314   */\n    tag_246:\n        /* \"#utility.yul\":19276:19306   */\n      0x5472616e73616374696f6e20616c726561647920657865637574656400000000\n        /* \"#utility.yul\":19272:19273   */\n      0x00\n        /* \"#utility.yul\":19264:19270   */\n      dup3\n        /* \"#utility.yul\":19260:19274   */\n      add\n        /* \"#utility.yul\":19253:19307   */\n      mstore\n        /* \"#utility.yul\":19136:19314   */\n      pop\n      jump\t// out\n        /* \"#utility.yul\":19320:19686   */\n    tag_247:\n        /* \"#utility.yul\":19462:19465   */\n      0x00\n        /* \"#utility.yul\":19483:19550   */\n      tag_464\n        /* \"#utility.yul\":19547:19549   */\n      0x1c\n        /* \"#utility.yul\":19542:19545   */\n      dup4\n        /* \"#utility.yul\":19483:19550   */\n      tag_222\n      jump\t// in\n    tag_464:\n        /* \"#utility.yul\":19476:19550   */\n      swap2\n      pop\n        /* \"#utility.yul\":19559:19652   */\n      tag_465\n        /* \"#utility.yul\":19648:19651   */\n      dup3\n        /* \"#utility.yul\":19559:19652   */\n      tag_246\n      jump\t// in\n    tag_465:\n        /* \"#utility.yul\":19677:19679   */\n      0x20\n        /* \"#utility.yul\":19672:19675   */\n      dup3\n        /* \"#utility.yul\":19668:19680   */\n      add\n        /* \"#utility.yul\":19661:19680   */\n      swap1\n      pop\n        /* \"#utility.yul\":19320:19686   */\n      swap2\n      swap1\n      pop\n      jump\t// out\n        /* \"#utility.yul\":19692:20111   */\n    tag_138:\n        /* \"#utility.yul\":19858:19862   */\n      0x00\n        /* \"#utility.yul\":19896:19898   */\n      0x20\n        /* \"#utility.yul\":19885:19894   */\n      dup3\n        /* \"#utility.yul\":19881:19899   */\n      add\n        /* \"#utility.yul\":19873:19899   */\n      swap1\n      pop\n        /* \"#utility.yul\":19945:19954   */\n      dup2\n        /* \"#utility.yul\":19939:19943   */\n      dup2\n        /* \"#utility.yul\":19935:19955   */\n      sub\n        /* \"#utility.yul\":19931:19932   */\n      0x00\n        /* \"#utility.yul\":19920:19929   */\n      dup4\n        /* \"#utility.yul\":19916:19933   */\n      add\n        /* \"#utility.yul\":19909:19956   */\n      mstore\n        /* \"#utility.yul\":19973:20104   */\n      tag_467\n        /* \"#utility.yul\":20099:20103   */\n      dup2\n        /* \"#utility.yul\":19973:20104   */\n      tag_247\n      jump\t// in\n    tag_467:\n        /* \"#utility.yul\":19965:20104   */\n      swap1\n      pop\n        /* \"#utility.yul\":19692:20111   */\n      swap2\n      swap1\n      pop\n      jump\t// out\n        /* \"#utility.yul\":20117:20284   */\n    tag_248:\n        /* \"#utility.yul\":20257:20276   */\n      0x416c726561647920636f6e6669726d6564000000000000000000000000000000\n        /* \"#utility.yul\":20253:20254   */\n      0x00\n        /* \"#utility.yul\":20245:20251   */\n      dup3\n        /* \"#utility.yul\":20241:20255   */\n      add\n        /* \"#utility.yul\":20234:20277   */\n      mstore\n        /* \"#utility.yul\":20117:20284   */\n      pop\n      jump\t// out\n        /* \"#utility.yul\":20290:20656   */\n    tag_249:\n        /* \"#utility.yul\":20432:20435   */\n      0x00\n        /* \"#utility.yul\":20453:20520   */\n      tag_470\n        /* \"#utility.yul\":20517:20519   */\n      0x11\n        /* \"#utility.yul\":20512:20515   */\n      dup4\n        /* \"#utility.yul\":20453:20520   */\n      tag_222\n      jump\t// in\n    tag_470:\n        /* \"#utility.yul\":20446:20520   */\n      swap2\n      pop\n        /* \"#utility.yul\":20529:20622   */\n      tag_471\n        /* \"#utility.yul\":20618:20621   */\n      dup3\n        /* \"#utility.yul\":20529:20622   */\n      tag_248\n      jump\t// in\n    tag_471:\n        /* \"#utility.yul\":20647:20649   */\n      0x20\n        /* \"#utility.yul\":20642:20645   */\n      dup3\n        /* \"#utility.yul\":20638:20650   */\n      add\n        /* \"#utility.yul\":20631:20650   */\n      swap1\n      pop\n        /* \"#utility.yul\":20290:20656   */\n      swap2\n      swap1\n      pop\n      jump\t// out\n        /* \"#utility.yul\":20662:21081   */\n    tag_142:\n        /* \"#utility.yul\":20828:20832   */\n      0x00\n        /* \"#utility.yul\":20866:20868   */\n      0x20\n        /* \"#utility.yul\":20855:20864   */\n      dup3\n        /* \"#utility.yul\":20851:20869   */\n      add\n        /* \"#utility.yul\":20843:20869   */\n      swap1\n      pop\n        /* \"#utility.yul\":20915:20924   */\n      dup2\n        /* \"#utility.yul\":20909:20913   */\n      dup2\n        /* \"#utility.yul\":20905:20925   */\n      sub\n        /* \"#utility.yul\":20901:20902   */\n      0x00\n        /* \"#utility.yul\":20890:20899   */\n      dup4\n        /* \"#utility.yul\":20886:20903   */\n      add\n        /* \"#utility.yul\":20879:20926   */\n      mstore\n        /* \"#utility.yul\":20943:21074   */\n      tag_473\n        /* \"#utility.yul\":21069:21073   */\n      dup2\n        /* \"#utility.yul\":20943:21074   */\n      tag_249\n      jump\t// in\n    tag_473:\n        /* \"#utility.yul\":20935:21074   */\n      swap1\n      pop\n        /* \"#utility.yul\":20662:21081   */\n      swap2\n      swap1\n      pop\n      jump\t// out\n        /* \"#utility.yul\":21087:21254   */\n    tag_250:\n        /* \"#utility.yul\":21227:21246   */\n      0x496e76616c6964207468726573686f6c64000000000000000000000000000000\n        /* \"#utility.yul\":21223:21224   */\n      0x00\n        /* \"#utility.yul\":21215:21221   */\n      dup3\n        /* \"#utility.yul\":21211:21225   */\n      add\n        /* \"#utility.yul\":21204:21247   */\n      mstore\n        /* \"#utility.yul\":21087:21254   */\n      pop\n      jump\t// out\n        /* \"#utility.yul\":21260:21626   */\n    tag_251:\n        /* \"#utility.yul\":21402:21405   */\n      0x00\n        /* \"#utility.yul\":21423:21490   */\n      tag_476\n        /* \"#utility.yul\":21487:21489   */\n      0x11\n        /* \"#utility.yul\":21482:21485   */\n      dup4\n        /* \"#utility.yul\":21423:21490   */\n      tag_222\n      jump\t// in\n    tag_476:\n        /* \"#utility.yul\":21416:21490   */\n      swap2\n      pop\n        /* \"#utility.yul\":21499:21592   */\n      tag_477\n        /* \"#utility.yul\":21588:21591   */\n      dup3\n        /* \"#utility.yul\":21499:21592   */\n      tag_250\n      jump\t// in\n    tag_477:\n        /* \"#utility.yul\":21617:21619   */\n      0x20\n        /* \"#utility.yul\":21612:21615   */\n      dup3\n        /* \"#utility.yul\":21608:21620   */\n      add\n        /* \"#utility.yul\":21601:21620   */\n      swap1\n      pop\n        /* \"#utility.yul\":21260:21626   */\n      swap2\n      swap1\n      pop\n      jump\t// out\n        /* \"#utility.yul\":21632:22051   */\n    tag_155:\n        /* \"#utility.yul\":21798:21802   */\n      0x00\n        /* \"#utility.yul\":21836:21838   */\n      0x20\n        /* \"#utility.yul\":21825:21834   */\n      dup3\n        /* \"#utility.yul\":21821:21839   */\n      add\n        /* \"#utility.yul\":21813:21839   */\n      swap1\n      pop\n        /* \"#utility.yul\":21885:21894   */\n      dup2\n        /* \"#utility.yul\":21879:21883   */\n      dup2\n        /* \"#utility.yul\":21875:21895   */\n      sub\n        /* \"#utility.yul\":21871:21872   */\n      0x00\n        /* \"#utility.yul\":21860:21869   */\n      dup4\n        /* \"#utility.yul\":21856:21873   */\n      add\n        /* \"#utility.yul\":21849:21896   */\n      mstore\n        /* \"#utility.yul\":21913:22044   */\n      tag_479\n        /* \"#utility.yul\":22039:22043   */\n      dup2\n        /* \"#utility.yul\":21913:22044   */\n      tag_251\n      jump\t// in\n    tag_479:\n        /* \"#utility.yul\":21905:22044   */\n      swap1\n      pop\n        /* \"#utility.yul\":21632:22051   */\n      swap2\n      swap1\n      pop\n      jump\t// out\n        /* \"#utility.yul\":22057:22229   */\n    tag_252:\n        /* \"#utility.yul\":22197:22221   */\n      0x496e76616c6964207369676e6572206164647265737300000000000000000000\n        /* \"#utility.yul\":22193:22194   */\n      0x00\n        /* \"#utility.yul\":22185:22191   */\n      dup3\n        /* \"#utility.yul\":22181:22195   */\n      add\n        /* \"#utility.yul\":22174:22222   */\n      mstore\n        /* \"#utility.yul\":22057:22229   */\n      pop\n      jump\t// out\n        /* \"#utility.yul\":22235:22601   */\n    tag_253:\n        /* \"#utility.yul\":22377:22380   */\n      0x00\n        /* \"#utility.yul\":22398:22465   */\n      tag_482\n        /* \"#utility.yul\":22462:22464   */\n      0x16\n        /* \"#utility.yul\":22457:22460   */\n      dup4\n        /* \"#utility.yul\":22398:22465   */\n      tag_222\n      jump\t// in\n    tag_482:\n        /* \"#utility.yul\":22391:22465   */\n      swap2\n      pop\n        /* \"#utility.yul\":22474:22567   */\n      tag_483\n        /* \"#utility.yul\":22563:22566   */\n      dup3\n        /* \"#utility.yul\":22474:22567   */\n      tag_252\n      jump\t// in\n    tag_483:\n        /* \"#utility.yul\":22592:22594   */\n      0x20\n        /* \"#utility.yul\":22587:22590   */\n      dup3\n        /* \"#utility.yul\":22583:22595   */\n      add\n        /* \"#utility.yul\":22576:22595   */\n      swap1\n      pop\n        /* \"#utility.yul\":22235:22601   */\n      swap2\n      swap1\n      pop\n      jump\t// out\n        /* \"#utility.yul\":22607:23026   */\n    tag_164:\n        /* \"#utility.yul\":22773:22777   */\n      0x00\n        /* \"#utility.yul\":22811:22813   */\n      0x20\n        /* \"#utility.yul\":22800:22809   */\n      dup3\n        /* \"#utility.yul\":22796:22814   */\n      add\n        /* \"#utility.yul\":22788:22814   */\n      swap1\n      pop\n        /* \"#utility.yul\":22860:22869   */\n      dup2\n        /* \"#utility.yul\":22854:22858   */\n      dup2\n        /* \"#utility.yul\":22850:22870   */\n      sub\n        /* \"#utility.yul\":22846:22847   */\n      0x00\n        /* \"#utility.yul\":22835:22844   */\n      dup4\n        /* \"#utility.yul\":22831:22848   */\n      add\n        /* \"#utility.yul\":22824:22871   */\n      mstore\n        /* \"#utility.yul\":22888:23019   */\n      tag_485\n        /* \"#utility.yul\":23014:23018   */\n      dup2\n        /* \"#utility.yul\":22888:23019   */\n      tag_253\n      jump\t// in\n    tag_485:\n        /* \"#utility.yul\":22880:23019   */\n      swap1\n      pop\n        /* \"#utility.yul\":22607:23026   */\n      swap2\n      swap1\n      pop\n      jump\t// out\n        /* \"#utility.yul\":23032:23198   */\n    tag_254:\n        /* \"#utility.yul\":23172:23190   */\n      0x416c72656164792061207369676e657200000000000000000000000000000000\n        /* \"#utility.yul\":23168:23169   */\n      0x00\n        /* \"#utility.yul\":23160:23166   */\n      dup3\n        /* \"#utility.yul\":23156:23170   */\n      add\n        /* \"#utility.yul\":23149:23191   */\n      mstore\n        /* \"#utility.yul\":23032:23198   */\n      pop\n      jump\t// out\n        /* \"#utility.yul\":23204:23570   */\n    tag_255:\n        /* \"#utility.yul\":23346:23349   */\n      0x00\n        /* \"#utility.yul\":23367:23434   */\n      tag_488\n        /* \"#utility.yul\":23431:23433   */\n      0x10\n        /* \"#utility.yul\":23426:23429   */\n      dup4\n        /* \"#utility.yul\":23367:23434   */\n      tag_222\n      jump\t// in\n    tag_488:\n        /* \"#utility.yul\":23360:23434   */\n      swap2\n      pop\n        /* \"#utility.yul\":23443:23536   */\n      tag_489\n        /* \"#utility.yul\":23532:23535   */\n      dup3\n        /* \"#utility.yul\":23443:23536   */\n      tag_254\n      jump\t// in\n    tag_489:\n        /* \"#utility.yul\":23561:23563   */\n      0x20\n        /* \"#utility.yul\":23556:23559   */\n      dup3\n        /* \"#utility.yul\":23552:23564   */\n      add\n        /* \"#utility.yul\":23545:23564   */\n      swap1\n      pop\n        /* \"#utility.yul\":23204:23570   */\n      swap2\n      swap1\n      pop\n      jump\t// out\n        /* \"#utility.yul\":23576:23995   */\n    tag_168:\n        /* \"#utility.yul\":23742:23746   */\n      0x00\n        /* \"#utility.yul\":23780:23782   */\n      0x20\n        /* \"#utility.yul\":23769:23778   */\n      dup3\n        /* \"#utility.yul\":23765:23783   */\n      add\n        /* \"#utility.yul\":23757:23783   */\n      swap1\n      pop\n        /* \"#utility.yul\":23829:23838   */\n      dup2\n        /* \"#utility.yul\":23823:23827   */\n      dup2\n        /* \"#utility.yul\":23819:23839   */\n      sub\n        /* \"#utility.yul\":23815:23816   */\n      0x00\n        /* \"#utility.yul\":23804:23813   */\n      dup4\n        /* \"#utility.yul\":23800:23817   */\n      add\n        /* \"#utility.yul\":23793:23840   */\n      mstore\n        /* \"#utility.yul\":23857:23988   */\n      tag_491\n        /* \"#utility.yul\":23983:23987   */\n      dup2\n        /* \"#utility.yul\":23857:23988   */\n      tag_255\n      jump\t// in\n    tag_491:\n        /* \"#utility.yul\":23849:23988   */\n      swap1\n      pop\n        /* \"#utility.yul\":23576:23995   */\n      swap2\n      swap1\n      pop\n      jump\t// out\n        /* \"#utility.yul\":24001:24177   */\n    tag_256:\n        /* \"#utility.yul\":24141:24169   */\n      0x496e73756666696369656e7420636f6e6669726d6174696f6e73000000000000\n        /* \"#utility.yul\":24137:24138   */\n      0x00\n        /* \"#utility.yul\":24129:24135   */\n      dup3\n        /* \"#utility.yul\":24125:24139   */\n      add\n        /* \"#utility.yul\":24118:24170   */\n      mstore\n        /* \"#utility.yul\":24001:24177   */\n      pop\n      jump\t// out\n        /* \"#utility.yul\":24183:24549   */\n    tag_257:\n        /* \"#utility.yul\":24325:24328   */\n      0x00\n        /* \"#utility.yul\":24346:24413   */\n      tag_494\n        /* \"#utility.yul\":24410:24412   */\n      0x1a\n        /* \"#utility.yul\":24405:24408   */\n      dup4\n        /* \"#utility.yul\":24346:24413   */\n      tag_222\n      jump\t// in\n    tag_494:\n        /* \"#utility.yul\":24339:24413   */\n      swap2\n      pop\n        /* \"#utility.yul\":24422:24515   */\n      tag_495\n        /* \"#utility.yul\":24511:24514   */\n      dup3\n        /* \"#utility.yul\":24422:24515   */\n      tag_256\n      jump\t// in\n    tag_495:\n        /* \"#utility.yul\":24540:24542   */\n      0x20\n        /* \"#utility.yul\":24535:24538   */\n      dup3\n        /* \"#utility.yul\":24531:24543   */\n      add\n        /* \"#utility.yul\":24524:24543   */\n      swap1\n      pop\n        /* \"#utility.yul\":24183:24549   */\n      swap2\n      swap1\n      pop\n      jump\t// out\n        /* \"#utility.yul\":24555:24974   */\n    tag_178:\n        /* \"#utility.yul\":24721:24725   */\n      0x00\n        /* \"#utility.yul\":24759:24761   */\n      0x20\n        /* \"#utility.yul\":24748:24757   */\n      dup3\n        /* \"#utility.yul\":24744:24762   */\n      add\n        /* \"#utility.yul\":24736:24762   */\n      swap1\n      pop\n        /* \"#utility.yul\":24808:24817   */\n      dup2\n        /* \"#utility.yul\":24802:24806   */\n      dup2\n        /* \"#utility.yul\":24798:24818   */\n      sub\n        /* \"#utility.yul\":24794:24795   */\n      0x00\n        /* \"#utility.yul\":24783:24792   */\n      dup4\n        /* \"#utility.yul\":24779:24796   */\n      add\n        /* \"#utility.yul\":24772:24819   */\n      mstore\n        /* \"#utility.yul\":24836:24967   */\n      tag_497\n        /* \"#utility.yul\":24962:24966   */\n      dup2\n        /* \"#utility.yul\":24836:24967   */\n      tag_257\n      jump\t// in\n    tag_497:\n        /* \"#utility.yul\":24828:24967   */\n      swap1\n      pop\n        /* \"#utility.yul\":24555:24974   */\n      swap2\n      swap1\n      pop\n      jump\t// out\n        /* \"#utility.yul\":24980:25127   */\n    tag_258:\n        /* \"#utility.yul\":25081:25092   */\n      0x00\n        /* \"#utility.yul\":25118:25121   */\n      dup2\n        /* \"#utility.yul\":25103:25121   */\n      swap1\n      pop\n        /* \"#utility.yul\":24980:25127   */\n      swap3\n      swap2\n      pop\n      pop\n      jump\t// out\n        /* \"#utility.yul\":25155:26025   */\n    tag_259:\n        /* \"#utility.yul\":25256:25259   */\n      0x00\n        /* \"#utility.yul\":25293:25298   */\n      dup2\n        /* \"#utility.yul\":25287:25299   */\n      sload\n        /* \"#utility.yul\":25322:25358   */\n      tag_500\n        /* \"#utility.yul\":25348:25357   */\n      dup2\n        /* \"#utility.yul\":25322:25358   */\n      tag_89\n      jump\t// in\n    tag_500:\n        /* \"#utility.yul\":25374:25462   */\n      tag_501\n        /* \"#utility.yul\":25455:25461   */\n      dup2\n        /* \"#utility.yul\":25450:25453   */\n      dup7\n        /* \"#utility.yul\":25374:25462   */\n      tag_258\n      jump\t// in\n    tag_501:\n        /* \"#utility.yul\":25367:25462   */\n      swap5\n      pop\n        /* \"#utility.yul\":25493:25494   */\n      0x01\n        /* \"#utility.yul\":25482:25491   */\n      dup3\n        /* \"#utility.yul\":25478:25495   */\n      and\n        /* \"#utility.yul\":25509:25510   */\n      0x00\n        /* \"#utility.yul\":25504:25670   */\n      dup2\n      eq\n      tag_503\n      jumpi\n        /* \"#utility.yul\":25684:25685   */\n      0x01\n        /* \"#utility.yul\":25679:26019   */\n      dup2\n      eq\n      tag_504\n      jumpi\n        /* \"#utility.yul\":25471:26019   */\n      jump(tag_502)\n        /* \"#utility.yul\":25504:25670   */\n    tag_503:\n        /* \"#utility.yul\":25588:25592   */\n      0xff\n        /* \"#utility.yul\":25584:25593   */\n      not\n        /* \"#utility.yul\":25573:25582   */\n      dup4\n        /* \"#utility.yul\":25569:25594   */\n      and\n        /* \"#utility.yul\":25564:25567   */\n      dup7\n        /* \"#utility.yul\":25557:25595   */\n      mstore\n        /* \"#utility.yul\":25650:25656   */\n      dup2\n        /* \"#utility.yul\":25643:25657   */\n      iszero\n        /* \"#utility.yul\":25636:25658   */\n      iszero\n        /* \"#utility.yul\":25628:25634   */\n      dup3\n        /* \"#utility.yul\":25624:25659   */\n      mul\n        /* \"#utility.yul\":25619:25622   */\n      dup7\n        /* \"#utility.yul\":25615:25660   */\n      add\n        /* \"#utility.yul\":25608:25660   */\n      swap4\n      pop\n        /* \"#utility.yul\":25504:25670   */\n      jump(tag_502)\n        /* \"#utility.yul\":25679:26019   */\n    tag_504:\n        /* \"#utility.yul\":25746:25783   */\n      tag_505\n        /* \"#utility.yul\":25777:25782   */\n      dup6\n        /* \"#utility.yul\":25746:25783   */\n      tag_230\n      jump\t// in\n    tag_505:\n        /* \"#utility.yul\":25805:25806   */\n      0x00\n        /* \"#utility.yul\":25819:25973   */\n    tag_506:\n        /* \"#utility.yul\":25833:25839   */\n      dup4\n        /* \"#utility.yul\":25830:25831   */\n      dup2\n        /* \"#utility.yul\":25827:25840   */\n      lt\n        /* \"#utility.yul\":25819:25973   */\n      iszero\n      tag_508\n      jumpi\n        /* \"#utility.yul\":25907:25914   */\n      dup2\n        /* \"#utility.yul\":25901:25915   */\n      sload\n        /* \"#utility.yul\":25897:25898   */\n      dup2\n        /* \"#utility.yul\":25892:25895   */\n      dup10\n        /* \"#utility.yul\":25888:25899   */\n      add\n        /* \"#utility.yul\":25881:25916   */\n      mstore\n        /* \"#utility.yul\":25957:25958   */\n      0x01\n        /* \"#utility.yul\":25948:25955   */\n      dup3\n        /* \"#utility.yul\":25944:25959   */\n      add\n        /* \"#utility.yul\":25933:25959   */\n      swap2\n      pop\n        /* \"#utility.yul\":25855:25859   */\n      0x20\n        /* \"#utility.yul\":25852:25853   */\n      dup2\n        /* \"#utility.yul\":25848:25860   */\n      add\n        /* \"#utility.yul\":25843:25860   */\n      swap1\n      pop\n        /* \"#utility.yul\":25819:25973   */\n      jump(tag_506)\n    tag_508:\n        /* \"#utility.yul\":26002:26008   */\n      dup4\n        /* \"#utility.yul\":25997:26000   */\n      dup9\n        /* \"#utility.yul\":25993:26009   */\n      add\n        /* \"#utility.yul\":25986:26009   */\n      swap6\n      pop\n        /* \"#utility.yul\":25686:26019   */\n      pop\n      pop\n        /* \"#utility.yul\":25471:26019   */\n    tag_502:\n      pop\n        /* \"#utility.yul\":25260:26025   */\n      pop\n      pop\n        /* \"#utility.yul\":25155:26025   */\n      swap3\n      swap2\n      pop\n      pop\n      jump\t// out\n        /* \"#utility.yul\":26031:26296   */\n    tag_180:\n        /* \"#utility.yul\":26158:26161   */\n      0x00\n        /* \"#utility.yul\":26180:26270   */\n      tag_510\n        /* \"#utility.yul\":26266:26269   */\n      dup3\n        /* \"#utility.yul\":26257:26263   */\n      dup5\n        /* \"#utility.yul\":26180:26270   */\n      tag_259\n      jump\t// in\n    tag_510:\n        /* \"#utility.yul\":26173:26270   */\n      swap2\n      pop\n        /* \"#utility.yul\":26287:26290   */\n      dup2\n        /* \"#utility.yul\":26280:26290   */\n      swap1\n      pop\n        /* \"#utility.yul\":26031:26296   */\n      swap3\n      swap2\n      pop\n      pop\n      jump\t// out\n        /* \"#utility.yul\":26302:26480   */\n    tag_260:\n        /* \"#utility.yul\":26442:26472   */\n      0x5472616e73616374696f6e20657865637574696f6e206661696c656400000000\n        /* \"#utility.yul\":26438:26439   */\n      0x00\n        /* \"#utility.yul\":26430:26436   */\n      dup3\n        /* \"#utility.yul\":26426:26440   */\n      add\n        /* \"#utility.yul\":26419:26473   */\n      mstore\n        /* \"#utility.yul\":26302:26480   */\n      pop\n      jump\t// out\n        /* \"#utility.yul\":26486:26852   */\n    tag_261:\n        /* \"#utility.yul\":26628:26631   */\n      0x00\n        /* \"#utility.yul\":26649:26716   */\n      tag_513\n        /* \"#utility.yul\":26713:26715   */\n      0x1c\n        /* \"#utility.yul\":26708:26711   */\n      dup4\n        /* \"#utility.yul\":26649:26716   */\n      tag_222\n      jump\t// in\n    tag_513:\n        /* \"#utility.yul\":26642:26716   */\n      swap2\n      pop\n        /* \"#utility.yul\":26725:26818   */\n      tag_514\n        /* \"#utility.yul\":26814:26817   */\n      dup3\n        /* \"#utility.yul\":26725:26818   */\n      tag_260\n      jump\t// in\n    tag_514:\n        /* \"#utility.yul\":26843:26845   */\n      0x20\n        /* \"#utility.yul\":26838:26841   */\n      dup3\n        /* \"#utility.yul\":26834:26846   */\n      add\n        /* \"#utility.yul\":26827:26846   */\n      swap1\n      pop\n        /* \"#utility.yul\":26486:26852   */\n      swap2\n      swap1\n      pop\n      jump\t// out\n        /* \"#utility.yul\":26858:27277   */\n    tag_186:\n        /* \"#utility.yul\":27024:27028   */\n      0x00\n        /* \"#utility.yul\":27062:27064   */\n      0x20\n        /* \"#utility.yul\":27051:27060   */\n      dup3\n        /* \"#utility.yul\":27047:27065   */\n      add\n        /* \"#utility.yul\":27039:27065   */\n      swap1\n      pop\n        /* \"#utility.yul\":27111:27120   */\n      dup2\n        /* \"#utility.yul\":27105:27109   */\n      dup2\n        /* \"#utility.yul\":27101:27121   */\n      sub\n        /* \"#utility.yul\":27097:27098   */\n      0x00\n        /* \"#utility.yul\":27086:27095   */\n      dup4\n        /* \"#utility.yul\":27082:27099   */\n      add\n        /* \"#utility.yul\":27075:27122   */\n      mstore\n        /* \"#utility.yul\":27139:27270   */\n      tag_516\n        /* \"#utility.yul\":27265:27269   */\n      dup2\n        /* \"#utility.yul\":27139:27270   */\n      tag_261\n      jump\t// in\n    tag_516:\n        /* \"#utility.yul\":27131:27270   */\n      swap1\n      pop\n        /* \"#utility.yul\":26858:27277   */\n      swap2\n      swap1\n      pop\n      jump\t// out\n\n    auxdata: 0xa26469706673582212209c9db472497086fd520fa0355c4aa55802fc60b08829af854e6137da0c9cd2ff64736f6c63430008140033\n}\n",
				"bytecode": {
					"linkReferences": {},
					"object": "60806040523480156200001157600080fd5b5060405162002625380380620026258339818101604052810190620000379190620004f4565b60008251116200007e576040517f08c379a00000000000000000000000000000000000000000000000000000000081526004016200007590620005bb565b60405180910390fd5b60008111801562000090575081518111155b620000d2576040517f08c379a0000000000000000000000000000000000000000000000000000000008152600401620000c9906200062d565b60405180910390fd5b60005b825181101562000204576000838281518110620000f757620000f66200064f565b5b60200260200101519050600073ffffffffffffffffffffffffffffffffffffffff168173ffffffffffffffffffffffffffffffffffffffff160362000173576040517f08c379a00000000000000000000000000000000000000000000000000000000081526004016200016a90620006ce565b60405180910390fd5b62000184816200021460201b60201c565b620001ed576000819080600181540180825580915050600190039060005260206000200160009091909190916101000a81548173ffffffffffffffffffffffffffffffffffffffff021916908373ffffffffffffffffffffffffffffffffffffffff1602179055505b508080620001fb906200071f565b915050620000d5565b508060018190555050506200076c565b600080600090505b600080549050811015620002c0578273ffffffffffffffffffffffffffffffffffffffff16600082815481106200025857620002576200064f565b5b9060005260206000200160009054906101000a900473ffffffffffffffffffffffffffffffffffffffff1673ffffffffffffffffffffffffffffffffffffffff1603620002aa576001915050620002c6565b8080620002b7906200071f565b9150506200021c565b50600090505b919050565b6000604051905090565b600080fd5b600080fd5b600080fd5b6000601f19601f8301169050919050565b7f4e487b7100000000000000000000000000000000000000000000000000000000600052604160045260246000fd5b6200032f82620002e4565b810181811067ffffffffffffffff82111715620003515762000350620002f5565b5b80604052505050565b600062000366620002cb565b905062000374828262000324565b919050565b600067ffffffffffffffff821115620003975762000396620002f5565b5b602082029050602081019050919050565b600080fd5b600073ffffffffffffffffffffffffffffffffffffffff82169050919050565b6000620003da82620003ad565b9050919050565b620003ec81620003cd565b8114620003f857600080fd5b50565b6000815190506200040c81620003e1565b92915050565b600062000429620004238462000379565b6200035a565b905080838252602082019050602084028301858111156200044f576200044e620003a8565b5b835b818110156200047c5780620004678882620003fb565b84526020840193505060208101905062000451565b5050509392505050565b600082601f8301126200049e576200049d620002df565b5b8151620004b084826020860162000412565b91505092915050565b6000819050919050565b620004ce81620004b9565b8114620004da57600080fd5b50565b600081519050620004ee81620004c3565b92915050565b600080604083850312156200050e576200050d620002d5565b5b600083015167ffffffffffffffff8111156200052f576200052e620002da565b5b6200053d8582860162000486565b92505060206200055085828601620004dd565b9150509250929050565b600082825260208201905092915050565b7f4174206c65617374206f6e65207369676e657220726571756972656400000000600082015250565b6000620005a3601c836200055a565b9150620005b0826200056b565b602082019050919050565b60006020820190508181036000830152620005d68162000594565b9050919050565b7f496e76616c6964207468726573686f6c64000000000000000000000000000000600082015250565b6000620006156011836200055a565b91506200062282620005dd565b602082019050919050565b60006020820190508181036000830152620006488162000606565b9050919050565b7f4e487b7100000000000000000000000000000000000000000000000000000000600052603260045260246000fd5b7f496e76616c6964207369676e6572206164647265737300000000000000000000600082015250565b6000620006b66016836200055a565b9150620006c3826200067e565b602082019050919050565b60006020820190508181036000830152620006e981620006a7565b9050919050565b7f4e487b7100000000000000000000000000000000000000000000000000000000600052601160045260246000fd5b60006200072c82620004b9565b91507fffffffffffffffffffffffffffffffffffffffffffffffffffffffffffffffff8203620007615762000760620006f0565b5b600182019050919050565b611ea9806200077c6000396000f3fe6080604052600436106100ab5760003560e01c806394cf795e1161006457806394cf795e146102175780639ace38c214610242578063b77bf60014610283578063c01a8c84146102ae578063d7d7442f146102d7578063eb12d61e14610300576100b2565b806308aff933146100b75780630fa683d3146100f45780632079fb9a1461013557806342cde4e8146101725780635e90852d1461019d5780637df73e27146101da576100b2565b366100b257005b600080fd5b3480156100c357600080fd5b506100de60048036038101906100d9919061113f565b610329565b6040516100eb919061119a565b60405180910390f35b34801561010057600080fd5b5061011b600480360381019061011691906111b5565b6103d8565b60405161012c959493929190611290565b60405180910390f35b34801561014157600080fd5b5061015c600480360381019061015791906111b5565b610520565b60405161016991906112ea565b60405180910390f35b34801561017e57600080fd5b5061018761055f565b6040516101949190611305565b60405180910390f35b3480156101a957600080fd5b506101c460048036038101906101bf9190611455565b610565565b6040516101d19190611305565b60405180910390f35b3480156101e657600080fd5b5061020160048036038101906101fc91906114c4565b610747565b60405161020e919061119a565b60405180910390f35b34801561022357600080fd5b5061022c6107f5565b60405161023991906115af565b60405180910390f35b34801561024e57600080fd5b50610269600480360381019061026491906111b5565b610883565b60405161027a959493929190611290565b60405180910390f35b34801561028f57600080fd5b5061029861096e565b6040516102a59190611305565b60405180910390f35b3480156102ba57600080fd5b506102d560048036038101906102d091906111b5565b610974565b005b3480156102e357600080fd5b506102fe60048036038101906102f991906111b5565b610bdf565b005b34801561030c57600080fd5b50610327600480360381019061032291906114c4565b610cbc565b005b6000600254831061036f576040517f08c379a00000000000000000000000000000000000000000000000000000000081526004016103669061162e565b60405180910390fd5b6003600084815260200190815260200160002060050160008373ffffffffffffffffffffffffffffffffffffffff1673ffffffffffffffffffffffffffffffffffffffff16815260200190815260200160002060009054906101000a900460ff16905092915050565b60008060606000806002548610610424576040517f08c379a000000000000000000000000000000000000000000000000000000000815260040161041b9061162e565b60405180910390fd5b60006003600088815260200190815260200160002090508060000160009054906101000a900473ffffffffffffffffffffffffffffffffffffffff168160010154826002018360030160009054906101000a900460ff16846004015482805461048c9061167d565b80601f01602080910402602001604051908101604052809291908181526020018280546104b89061167d565b80156105055780601f106104da57610100808354040283529160200191610505565b820191906000526020600020905b8154815290600101906020018083116104e857829003601f168201915b50505050509250955095509550955095505091939590929450565b6000818154811061053057600080fd5b906000526020600020016000915054906101000a900473ffffffffffffffffffffffffffffffffffffffff1681565b60015481565b600061057033610747565b6105af576040517f08c379a00000000000000000000000000000000000000000000000000000000081526004016105a6906116fa565b60405180910390fd5b600073ffffffffffffffffffffffffffffffffffffffff168473ffffffffffffffffffffffffffffffffffffffff160361061e576040517f08c379a000000000000000000000000000000000000000000000000000000000815260040161061590611766565b60405180910390fd5b60025490506000600360008381526020019081526020016000209050848160000160006101000a81548173ffffffffffffffffffffffffffffffffffffffff021916908373ffffffffffffffffffffffffffffffffffffffff160217905550838160010181905550828160020190816106979190611932565b5060008160030160006101000a81548160ff02191690831515021790555060008160040181905550600260008154809291906106d290611a33565b91905055508473ffffffffffffffffffffffffffffffffffffffff163373ffffffffffffffffffffffffffffffffffffffff16837ff13a7a4144a3232fd093fca16be52a8223bad74cee86d5fa8966c7061e75bfd38787604051610737929190611a7b565b60405180910390a4509392505050565b600080600090505b6000805490508110156107ea578273ffffffffffffffffffffffffffffffffffffffff166000828154811061078757610786611aab565b5b9060005260206000200160009054906101000a900473ffffffffffffffffffffffffffffffffffffffff1673ffffffffffffffffffffffffffffffffffffffff16036107d75760019150506107f0565b80806107e290611a33565b91505061074f565b50600090505b919050565b6060600080548060200260200160405190810160405280929190818152602001828054801561087957602002820191906000526020600020905b8160009054906101000a900473ffffffffffffffffffffffffffffffffffffffff1673ffffffffffffffffffffffffffffffffffffffff168152602001906001019080831161082f575b5050505050905090565b60036020528060005260406000206000915090508060000160009054906101000a900473ffffffffffffffffffffffffffffffffffffffff16908060010154908060020180546108d29061167d565b80601f01602080910402602001604051908101604052809291908181526020018280546108fe9061167d565b801561094b5780601f106109205761010080835404028352916020019161094b565b820191906000526020600020905b81548152906001019060200180831161092e57829003601f168201915b5050505050908060030160009054906101000a900460ff16908060040154905085565b60025481565b61097d33610747565b6109bc576040517f08c379a00000000000000000000000000000000000000000000000000000000081526004016109b3906116fa565b60405180910390fd5b806002548110610a01576040517f08c379a00000000000000000000000000000000000000000000000000000000081526004016109f89061162e565b60405180910390fd5b6003600082815260200190815260200160002060030160009054906101000a900460ff1615610a65576040517f08c379a0000000000000000000000000000000000000000000000000000000008152600401610a5c90611b26565b60405180910390fd5b60006003600084815260200190815260200160002090508060050160003373ffffffffffffffffffffffffffffffffffffffff1673ffffffffffffffffffffffffffffffffffffffff16815260200190815260200160002060009054906101000a900460ff1615610b0b576040517f08c379a0000000000000000000000000000000000000000000000000000000008152600401610b0290611b92565b60405180910390fd5b60018160050160003373ffffffffffffffffffffffffffffffffffffffff1673ffffffffffffffffffffffffffffffffffffffff16815260200190815260200160002060006101000a81548160ff021916908315150217905550806004016000815480929190610b7a90611a33565b91905055503373ffffffffffffffffffffffffffffffffffffffff16837f15c2f311c9e0f53b50388279894aeff029a3457884a6601e924fca879e12adcc60405160405180910390a3600154816004015410610bda57610bd983610e65565b5b505050565b610be833610747565b610c27576040517f08c379a0000000000000000000000000000000000000000000000000000000008152600401610c1e906116fa565b60405180910390fd5b600081118015610c3c57506000805490508111155b610c7b576040517f08c379a0000000000000000000000000000000000000000000000000000000008152600401610c7290611bfe565b60405180910390fd5b806001819055507fadfa8ecb21b6962ebcd0adbd9ab985b7b4c5b5eb3b0dead683171565c7bfe17181604051610cb19190611305565b60405180910390a150565b610cc533610747565b610d04576040517f08c379a0000000000000000000000000000000000000000000000000000000008152600401610cfb906116fa565b60405180910390fd5b600073ffffffffffffffffffffffffffffffffffffffff168173ffffffffffffffffffffffffffffffffffffffff1603610d73576040517f08c379a0000000000000000000000000000000000000000000000000000000008152600401610d6a90611c6a565b60405180910390fd5b610d7c81610747565b15610dbc576040517f08c379a0000000000000000000000000000000000000000000000000000000008152600401610db390611cd6565b60405180910390fd5b6000819080600181540180825580915050600190039060005260206000200160009091909190916101000a81548173ffffffffffffffffffffffffffffffffffffffff021916908373ffffffffffffffffffffffffffffffffffffffff1602179055508073ffffffffffffffffffffffffffffffffffffffff167f47d1c22a25bb3a5d4e481b9b1e6944c2eade3181a0a20b495ed61d35b5323f2460405160405180910390a250565b806002548110610eaa576040517f08c379a0000000000000000000000000000000000000000000000000000000008152600401610ea19061162e565b60405180910390fd5b6003600082815260200190815260200160002060030160009054906101000a900460ff1615610f0e576040517f08c379a0000000000000000000000000000000000000000000000000000000008152600401610f0590611b26565b60405180910390fd5b600060036000848152602001908152602001600020905060015481600401541015610f6e576040517f08c379a0000000000000000000000000000000000000000000000000000000008152600401610f6590611d42565b60405180910390fd5b60018160030160006101000a81548160ff02191690831515021790555060008160000160009054906101000a900473ffffffffffffffffffffffffffffffffffffffff1673ffffffffffffffffffffffffffffffffffffffff16826001015483600201604051610fde9190611df0565b60006040518083038185875af1925050503d806000811461101b576040519150601f19603f3d011682016040523d82523d6000602084013e611020565b606091505b5050905080611064576040517f08c379a000000000000000000000000000000000000000000000000000000000815260040161105b90611e53565b60405180910390fd5b837f15ed165a284872ea7017f03df402a0cadfbfab588320ffaf83f160c2f82781c760405160405180910390a250505050565b6000604051905090565b600080fd5b600080fd5b6000819050919050565b6110be816110ab565b81146110c957600080fd5b50565b6000813590506110db816110b5565b92915050565b600073ffffffffffffffffffffffffffffffffffffffff82169050919050565b600061110c826110e1565b9050919050565b61111c81611101565b811461112757600080fd5b50565b60008135905061113981611113565b92915050565b60008060408385031215611156576111556110a1565b5b6000611164858286016110cc565b92505060206111758582860161112a565b9150509250929050565b60008115159050919050565b6111948161117f565b82525050565b60006020820190506111af600083018461118b565b92915050565b6000602082840312156111cb576111ca6110a1565b5b60006111d9848285016110cc565b91505092915050565b6111eb81611101565b82525050565b6111fa816110ab565b82525050565b600081519050919050565b600082825260208201905092915050565b60005b8381101561123a57808201518184015260208101905061121f565b60008484015250505050565b6000601f19601f8301169050919050565b600061126282611200565b61126c818561120b565b935061127c81856020860161121c565b61128581611246565b840191505092915050565b600060a0820190506112a560008301886111e2565b6112b260208301876111f1565b81810360408301526112c48186611257565b90506112d3606083018561118b565b6112e060808301846111f1565b9695505050505050565b60006020820190506112ff60008301846111e2565b92915050565b600060208201905061131a60008301846111f1565b92915050565b600080fd5b600080fd5b7f4e487b7100000000000000000000000000000000000000000000000000000000600052604160045260246000fd5b61136282611246565b810181811067ffffffffffffffff821117156113815761138061132a565b5b80604052505050565b6000611394611097565b90506113a08282611359565b919050565b600067ffffffffffffffff8211156113c0576113bf61132a565b5b6113c982611246565b9050602081019050919050565b82818337600083830152505050565b60006113f86113f3846113a5565b61138a565b90508281526020810184848401111561141457611413611325565b5b61141f8482856113d6565b509392505050565b600082601f83011261143c5761143b611320565b5b813561144c8482602086016113e5565b91505092915050565b60008060006060848603121561146e5761146d6110a1565b5b600061147c8682870161112a565b935050602061148d868287016110cc565b925050604084013567ffffffffffffffff8111156114ae576114ad6110a6565b5b6114ba86828701611427565b9150509250925092565b6000602082840312156114da576114d96110a1565b5b60006114e88482850161112a565b91505092915050565b600081519050919050565b600082825260208201905092915050565b6000819050602082019050919050565b61152681611101565b82525050565b6000611538838361151d565b60208301905092915050565b6000602082019050919050565b600061155c826114f1565b61156681856114fc565b93506115718361150d565b8060005b838110156115a2578151611589888261152c565b975061159483611544565b925050600181019050611575565b5085935050505092915050565b600060208201905081810360008301526115c98184611551565b905092915050565b600082825260208201905092915050565b7f5472616e73616374696f6e20646f6573206e6f74206578697374000000000000600082015250565b6000611618601a836115d1565b9150611623826115e2565b602082019050919050565b600060208201905081810360008301526116478161160b565b9050919050565b7f4e487b7100000000000000000000000000000000000000000000000000000000600052602260045260246000fd5b6000600282049050600182168061169557607f821691505b6020821081036116a8576116a761164e565b5b50919050565b7f4e6f742061207369676e65720000000000000000000000000000000000000000600082015250565b60006116e4600c836115d1565b91506116ef826116ae565b602082019050919050565b60006020820190508181036000830152611713816116d7565b9050919050565b7f496e76616c696420746172676574206164647265737300000000000000000000600082015250565b60006117506016836115d1565b915061175b8261171a565b602082019050919050565b6000602082019050818103600083015261177f81611743565b9050919050565b60008190508160005260206000209050919050565b60006020601f8301049050919050565b600082821b905092915050565b6000600883026117e87fffffffffffffffffffffffffffffffffffffffffffffffffffffffffffffffff826117ab565b6117f286836117ab565b95508019841693508086168417925050509392505050565b6000819050919050565b600061182f61182a611825846110ab565b61180a565b6110ab565b9050919050565b6000819050919050565b61184983611814565b61185d61185582611836565b8484546117b8565b825550505050565b600090565b611872611865565b61187d818484611840565b505050565b5b818110156118a15761189660008261186a565b600181019050611883565b5050565b601f8211156118e6576118b781611786565b6118c08461179b565b810160208510156118cf578190505b6118e36118db8561179b565b830182611882565b50505b505050565b600082821c905092915050565b6000611909600019846008026118eb565b1980831691505092915050565b600061192283836118f8565b9150826002028217905092915050565b61193b82611200565b67ffffffffffffffff8111156119545761195361132a565b5b61195e825461167d565b6119698282856118a5565b600060209050601f83116001811461199c576000841561198a578287015190505b6119948582611916565b8655506119fc565b601f1984166119aa86611786565b60005b828110156119d2578489015182556001820191506020850194506020810190506119ad565b868310156119ef57848901516119eb601f8916826118f8565b8355505b6001600288020188555050505b505050505050565b7f4e487b7100000000000000000000000000000000000000000000000000000000600052601160045260246000fd5b6000611a3e826110ab565b91507fffffffffffffffffffffffffffffffffffffffffffffffffffffffffffffffff8203611a7057611a6f611a04565b5b600182019050919050565b6000604082019050611a9060008301856111f1565b8181036020830152611aa28184611257565b90509392505050565b7f4e487b7100000000000000000000000000000000000000000000000000000000600052603260045260246000fd5b7f5472616e73616374696f6e20616c726561647920657865637574656400000000600082015250565b6000611b10601c836115d1565b9150611b1b82611ada565b602082019050919050565b60006020820190508181036000830152611b3f81611b03565b9050919050565b7f416c726561647920636f6e6669726d6564000000000000000000000000000000600082015250565b6000611b7c6011836115d1565b9150611b8782611b46565b602082019050919050565b60006020820190508181036000830152611bab81611b6f565b9050919050565b7f496e76616c6964207468726573686f6c64000000000000000000000000000000600082015250565b6000611be86011836115d1565b9150611bf382611bb2565b602082019050919050565b60006020820190508181036000830152611c1781611bdb565b9050919050565b7f496e76616c6964207369676e6572206164647265737300000000000000000000600082015250565b6000611c546016836115d1565b9150611c5f82611c1e565b602082019050919050565b60006020820190508181036000830152611c8381611c47565b9050919050565b7f416c72656164792061207369676e657200000000000000000000000000000000600082015250565b6000611cc06010836115d1565b9150611ccb82611c8a565b602082019050919050565b60006020820190508181036000830152611cef81611cb3565b9050919050565b7f496e73756666696369656e7420636f6e6669726d6174696f6e73000000000000600082015250565b6000611d2c601a836115d1565b9150611d3782611cf6565b602082019050919050565b60006020820190508181036000830152611d5b81611d1f565b9050919050565b600081905092915050565b60008154611d7a8161167d565b611d848186611d62565b94506001821660008114611d9f5760018114611db457611de7565b60ff1983168652811515820286019350611de7565b611dbd85611786565b60005b83811015611ddf57815481890152600182019150602081019050611dc0565b838801955050505b50505092915050565b6000611dfc8284611d6d565b915081905092915050565b7f5472616e73616374696f6e20657865637574696f6e206661696c656400000000600082015250565b6000611e3d601c836115d1565b9150611e4882611e07565b602082019050919050565b60006020820190508181036000830152611e6c81611e30565b905091905056fea26469706673582212209c9db472497086fd520fa0355c4aa55802fc60b08829af854e6137da0c9cd2ff64736f6c63430008140033",
					"opcodes": "PUSH1 0x80 PUSH1 0x40 MSTORE CALLVALUE DUP1 ISZERO PUSH3 0x11 JUMPI PUSH1 0x0 DUP1 REVERT JUMPDEST POP PUSH1 0x40 MLOAD PUSH3 0x2625 CODESIZE SUB DUP1 PUSH3 0x2625 DUP4 CODECOPY DUP2 DUP2 ADD PUSH1 0x40 MSTORE DUP2 ADD SWAP1 PUSH3 0x37 SWAP2 SWAP1 PUSH3 0x4F4 JUMP JUMPDEST PUSH1 0x0 DUP3 MLOAD GT PUSH3 0x7E JUMPI PUSH1 0x40 MLOAD PUSH32 0x8C379A000000000000000000000000000000000000000000000000000000000 DUP2 MSTORE PUSH1 0x4 ADD PUSH3 0x75 SWAP1 PUSH3 0x5BB JUMP JUMPDEST PUSH1 0x40 MLOAD DUP1 SWAP2 SUB SWAP1 REVERT JUMPDEST PUSH1 0x0 DUP2 GT DUP1 ISZERO PUSH3 0x90 JUMPI POP DUP2 MLOAD DUP2 GT ISZERO JUMPDEST PUSH3 0xD2 JUMPI PUSH1 0x40 MLOAD PUSH32 0x8C379A000000000000000000000000000000000000000000000000000000000 DUP2 MSTORE PUSH1 0x4 ADD PUSH3 0xC9 SWAP1 PUSH3 0x62D JUMP JUMPDEST PUSH1 0x40 MLOAD DUP1 SWAP2 SUB SWAP1 REVERT JUMPDEST PUSH1 0x0 JUMPDEST DUP3 MLOAD DUP2 LT ISZERO PUSH3 0x204 JUMPI PUSH1 0x0 DUP4 DUP3 DUP2 MLOAD DUP2 LT PUSH3 0xF7 JUMPI PUSH3 0xF6 PUSH3 0x64F JUMP JUMPDEST JUMPDEST PUSH1 0x20 MUL PUSH1 0x20 ADD ADD MLOAD SWAP1 POP PUSH1 0x0 PUSH20 0xFFFFFFFFFFFFFFFFFFFFFFFFFFFFFFFFFFFFFFFF AND DUP2 PUSH20 0xFFFFFFFFFFFFFFFFFFFFFFFFFFFFFFFFFFFFFFFF AND SUB PUSH3 0x173 JUMPI PUSH1 0x40 MLOAD PUSH32 0x8C379A000000000000000000000000000000000000000000000000000000000 DUP2 MSTORE PUSH1 0x4 ADD PUSH3 0x16A SWAP1 PUSH3 0x6CE JUMP JUMPDEST PUSH1 0x40 MLOAD DUP1 SWAP2 SUB SWAP1 REVERT JUMPDEST PUSH3 0x184 DUP2 PUSH3 0x214 PUSH1 0x20 SHL PUSH1 0x20 SHR JUMP JUMPDEST PUSH3 0x1ED JUMPI PUSH1 0x0 DUP2 SWAP1 DUP1 PUSH1 0x1 DUP2 SLOAD ADD DUP1 DUP3 SSTORE DUP1 SWAP2 POP POP PUSH1 0x1 SWAP1 SUB SWAP1 PUSH1 0x0 MSTORE PUSH1 0x20 PUSH1 0x0 KECCAK256 ADD PUSH1 0x0 SWAP1 SWAP2 SWAP1 SWAP2 SWAP1 SWAP2 PUSH2 0x100 EXP DUP2 SLOAD DUP2 PUSH20 0xFFFFFFFFFFFFFFFFFFFFFFFFFFFFFFFFFFFFFFFF MUL NOT AND SWAP1 DUP4 PUSH20 0xFFFFFFFFFFFFFFFFFFFFFFFFFFFFFFFFFFFFFFFF AND MUL OR SWAP1 SSTORE POP JUMPDEST POP DUP1 DUP1 PUSH3 0x1FB SWAP1 PUSH3 0x71F JUMP JUMPDEST SWAP2 POP POP PUSH3 0xD5 JUMP JUMPDEST POP DUP1 PUSH1 0x1 DUP2 SWAP1 SSTORE POP POP POP PUSH3 0x76C JUMP JUMPDEST PUSH1 0x0 DUP1 PUSH1 0x0 SWAP1 POP JUMPDEST PUSH1 0x0 DUP1 SLOAD SWAP1 POP DUP2 LT ISZERO PUSH3 0x2C0 JUMPI DUP3 PUSH20 0xFFFFFFFFFFFFFFFFFFFFFFFFFFFFFFFFFFFFFFFF AND PUSH1 0x0 DUP3 DUP2 SLOAD DUP2 LT PUSH3 0x258 JUMPI PUSH3 0x257 PUSH3 0x64F JUMP JUMPDEST JUMPDEST SWAP1 PUSH1 0x0 MSTORE PUSH1 0x20 PUSH1 0x0 KECCAK256 ADD PUSH1 0x0 SWAP1 SLOAD SWAP1 PUSH2 0x100 EXP SWAP1 DIV PUSH20 0xFFFFFFFFFFFFFFFFFFFFFFFFFFFFFFFFFFFFFFFF AND PUSH20 0xFFFFFFFFFFFFFFFFFFFFFFFFFFFFFFFFFFFFFFFF AND SUB PUSH3 0x2AA JUMPI PUSH1 0x1 SWAP2 POP POP PUSH3 0x2C6 JUMP JUMPDEST DUP1 DUP1 PUSH3 0x2B7 SWAP1 PUSH3 0x71F JUMP JUMPDEST SWAP2 POP POP PUSH3 0x21C JUMP JUMPDEST POP PUSH1 0x0 SWAP1 POP JUMPDEST SWAP2 SWAP1 POP JUMP JUMPDEST PUSH1 0x0 PUSH1 0x40 MLOAD SWAP1 POP SWAP1 JUMP JUMPDEST PUSH1 0x0 DUP1 REVERT JUMPDEST PUSH1 0x0 DUP1 REVERT JUMPDEST PUSH1 0x0 DUP1 REVERT JUMPDEST PUSH1 0x0 PUSH1 0x1F NOT PUSH1 0x1F DUP4 ADD AND SWAP1 POP SWAP2 SWAP1 POP JUMP JUMPDEST PUSH32 0x4E487B7100000000000000000000000000000000000000000000000000000000 PUSH1 0x0 MSTORE PUSH1 0x41 PUSH1 0x4 MSTORE PUSH1 0x24 PUSH1 0x0 REVERT JUMPDEST PUSH3 0x32F DUP3 PUSH3 0x2E4 JUMP JUMPDEST DUP2 ADD DUP2 DUP2 LT PUSH8 0xFFFFFFFFFFFFFFFF DUP3 GT OR ISZERO PUSH3 0x351 JUMPI PUSH3 0x350 PUSH3 0x2F5 JUMP JUMPDEST JUMPDEST DUP1 PUSH1 0x40 MSTORE POP POP POP JUMP JUMPDEST PUSH1 0x0 PUSH3 0x366 PUSH3 0x2CB JUMP JUMPDEST SWAP1 POP PUSH3 0x374 DUP3 DUP3 PUSH3 0x324 JUMP JUMPDEST SWAP2 SWAP1 POP JUMP JUMPDEST PUSH1 0x0 PUSH8 0xFFFFFFFFFFFFFFFF DUP3 GT ISZERO PUSH3 0x397 JUMPI PUSH3 0x396 PUSH3 0x2F5 JUMP JUMPDEST JUMPDEST PUSH1 0x20 DUP3 MUL SWAP1 POP PUSH1 0x20 DUP2 ADD SWAP1 POP SWAP2 SWAP1 POP JUMP JUMPDEST PUSH1 0x0 DUP1 REVERT JUMPDEST PUSH1 0x0 PUSH20 0xFFFFFFFFFFFFFFFFFFFFFFFFFFFFFFFFFFFFFFFF DUP3 AND SWAP1 POP SWAP2 SWAP1 POP JUMP JUMPDEST PUSH1 0x0 PUSH3 0x3DA DUP3 PUSH3 0x3AD JUMP JUMPDEST SWAP1 POP SWAP2 SWAP1 POP JUMP JUMPDEST PUSH3 0x3EC DUP2 PUSH3 0x3CD JUMP JUMPDEST DUP2 EQ PUSH3 0x3F8 JUMPI PUSH1 0x0 DUP1 REVERT JUMPDEST POP JUMP JUMPDEST PUSH1 0x0 DUP2 MLOAD SWAP1 POP PUSH3 0x40C DUP2 PUSH3 0x3E1 JUMP JUMPDEST SWAP3 SWAP2 POP POP JUMP JUMPDEST PUSH1 0x0 PUSH3 0x429 PUSH3 0x423 DUP5 PUSH3 0x379 JUMP JUMPDEST PUSH3 0x35A JUMP JUMPDEST SWAP1 POP DUP1 DUP4 DUP3 MSTORE PUSH1 0x20 DUP3 ADD SWAP1 POP PUSH1 0x20 DUP5 MUL DUP4 ADD DUP6 DUP2 GT ISZERO PUSH3 0x44F JUMPI PUSH3 0x44E PUSH3 0x3A8 JUMP JUMPDEST JUMPDEST DUP4 JUMPDEST DUP2 DUP2 LT ISZERO PUSH3 0x47C JUMPI DUP1 PUSH3 0x467 DUP9 DUP3 PUSH3 0x3FB JUMP JUMPDEST DUP5 MSTORE PUSH1 0x20 DUP5 ADD SWAP4 POP POP PUSH1 0x20 DUP2 ADD SWAP1 POP PUSH3 0x451 JUMP JUMPDEST POP POP POP SWAP4 SWAP3 POP POP POP JUMP JUMPDEST PUSH1 0x0 DUP3 PUSH1 0x1F DUP4 ADD SLT PUSH3 0x49E JUMPI PUSH3 0x49D PUSH3 0x2DF JUMP JUMPDEST JUMPDEST DUP2 MLOAD PUSH3 0x4B0 DUP5 DUP3 PUSH1 0x20 DUP7 ADD PUSH3 0x412 JUMP JUMPDEST SWAP2 POP POP SWAP3 SWAP2 POP POP JUMP JUMPDEST PUSH1 0x0 DUP2 SWAP1 POP SWAP2 SWAP1 POP JUMP JUMPDEST PUSH3 0x4CE DUP2 PUSH3 0x4B9 JUMP JUMPDEST DUP2 EQ PUSH3 0x4DA JUMPI PUSH1 0x0 DUP1 REVERT JUMPDEST POP JUMP JUMPDEST PUSH1 0x0 DUP2 MLOAD SWAP1 POP PUSH3 0x4EE DUP2 PUSH3 0x4C3 JUMP JUMPDEST SWAP3 SWAP2 POP POP JUMP JUMPDEST PUSH1 0x0 DUP1 PUSH1 0x40 DUP4 DUP6 SUB SLT ISZERO PUSH3 0x50E JUMPI PUSH3 0x50D PUSH3 0x2D5 JUMP JUMPDEST JUMPDEST PUSH1 0x0 DUP4 ADD MLOAD PUSH8 0xFFFFFFFFFFFFFFFF DUP2 GT ISZERO PUSH3 0x52F JUMPI PUSH3 0x52E PUSH3 0x2DA JUMP JUMPDEST JUMPDEST PUSH3 0x53D DUP6 DUP3 DUP7 ADD PUSH3 0x486 JUMP JUMPDEST SWAP3 POP POP PUSH1 0x20 PUSH3 0x550 DUP6 DUP3 DUP7 ADD PUSH3 0x4DD JUMP JUMPDEST SWAP2 POP POP SWAP3 POP SWAP3 SWAP1 POP JUMP JUMPDEST PUSH1 0x0 DUP3 DUP3 MSTORE PUSH1 0x20 DUP3 ADD SWAP1 POP SWAP3 SWAP2 POP POP JUMP JUMPDEST PUSH32 0x4174206C65617374206F6E65207369676E657220726571756972656400000000 PUSH1 0x0 DUP3 ADD MSTORE POP JUMP JUMPDEST PUSH1 0x0 PUSH3 0x5A3 PUSH1 0x1C DUP4 PUSH3 0x55A JUMP JUMPDEST SWAP2 POP PUSH3 0x5B0 DUP3 PUSH3 0x56B JUMP JUMPDEST PUSH1 0x20 DUP3 ADD SWAP1 POP SWAP2 SWAP1 POP JUMP JUMPDEST PUSH1 0x0 PUSH1 0x20 DUP3 ADD SWAP1 POP DUP2 DUP2 SUB PUSH1 0x0 DUP4 ADD MSTORE PUSH3 0x5D6 DUP2 PUSH3 0x594 JUMP JUMPDEST SWAP1 POP SWAP2 SWAP1 POP JUMP JUMPDEST PUSH32 0x496E76616C6964207468726573686F6C64000000000000000000000000000000 PUSH1 0x0 DUP3 ADD MSTORE POP JUMP JUMPDEST PUSH1 0x0 PUSH3 0x615 PUSH1 0x11 DUP4 PUSH3 0x55A JUMP JUMPDEST SWAP2 POP PUSH3 0x622 DUP3 PUSH3 0x5DD JUMP JUMPDEST PUSH1 0x20 DUP3 ADD SWAP1 POP SWAP2 SWAP1 POP JUMP JUMPDEST PUSH1 0x0 PUSH1 0x20 DUP3 ADD SWAP1 POP DUP2 DUP2 SUB PUSH1 0x0 DUP4 ADD MSTORE PUSH3 0x648 DUP2 PUSH3 0x606 JUMP JUMPDEST SWAP1 POP SWAP2 SWAP1 POP JUMP JUMPDEST PUSH32 0x4E487B7100000000000000000000000000000000000000000000000000000000 PUSH1 0x0 MSTORE PUSH1 0x32 PUSH1 0x4 MSTORE PUSH1 0x24 PUSH1 0x0 REVERT JUMPDEST PUSH32 0x496E76616C6964207369676E6572206164647265737300000000000000000000 PUSH1 0x0 DUP3 ADD MSTORE POP JUMP JUMPDEST PUSH1 0x0 PUSH3 0x6B6 PUSH1 0x16 DUP4 PUSH3 0x55A JUMP JUMPDEST SWAP2 POP PUSH3 0x6C3 DUP3 PUSH3 0x67E JUMP JUMPDEST PUSH1 0x20 DUP3 ADD SWAP1 POP SWAP2 SWAP1 POP JUMP JUMPDEST PUSH1 0x0 PUSH1 0x20 DUP3 ADD SWAP1 POP DUP2 DUP2 SUB PUSH1 0x0 DUP4 ADD MSTORE PUSH3 0x6E9 DUP2 PUSH3 0x6A7 JUMP JUMPDEST SWAP1 POP SWAP2 SWAP1 POP JUMP JUMPDEST PUSH32 0x4E487B7100000000000000000000000000000000000000000000000000000000 PUSH1 0x0 MSTORE PUSH1 0x11 PUSH1 0x4 MSTORE PUSH1 0x24 PUSH1 0x0 REVERT JUMPDEST PUSH1 0x0 PUSH3 0x72C DUP3 PUSH3 0x4B9 JUMP JUMPDEST SWAP2 POP PUSH32 0xFFFFFFFFFFFFFFFFFFFFFFFFFFFFFFFFFFFFFFFFFFFFFFFFFFFFFFFFFFFFFFFF DUP3 SUB PUSH3 0x761 JUMPI PUSH3 0x760 PUSH3 0x6F0 JUMP JUMPDEST JUMPDEST PUSH1 0x1 DUP3 ADD SWAP1 POP SWAP2 SWAP1 POP JUMP JUMPDEST PUSH2 0x1EA9 DUP1 PUSH3 0x77C PUSH1 0x0 CODECOPY PUSH1 0x0 RETURN INVALID PUSH1 0x80 PUSH1 0x40 MSTORE PUSH1 0x4 CALLDATASIZE LT PUSH2 0xAB JUMPI PUSH1 0x0 CALLDATALOAD PUSH1 0xE0 SHR DUP1 PUSH4 0x94CF795E GT PUSH2 0x64 JUMPI DUP1 PUSH4 0x94CF795E EQ PUSH2 0x217 JUMPI DUP1 PUSH4 0x9ACE38C2 EQ PUSH2 0x242 JUMPI DUP1 PUSH4 0xB77BF600 EQ PUSH2 0x283 JUMPI DUP1 PUSH4 0xC01A8C84 EQ PUSH2 0x2AE JUMPI DUP1 PUSH4 0xD7D7442F EQ PUSH2 0x2D7 JUMPI DUP1 PUSH4 0xEB12D61E EQ PUSH2 0x300 JUMPI PUSH2 0xB2 JUMP JUMPDEST DUP1 PUSH4 0x8AFF933 EQ PUSH2 0xB7 JUMPI DUP1 PUSH4 0xFA683D3 EQ PUSH2 0xF4 JUMPI DUP1 PUSH4 0x2079FB9A EQ PUSH2 0x135 JUMPI DUP1 PUSH4 0x42CDE4E8 EQ PUSH2 0x172 JUMPI DUP1 PUSH4 0x5E90852D EQ PUSH2 0x19D JUMPI DUP1 PUSH4 0x7DF73E27 EQ PUSH2 0x1DA JUMPI PUSH2 0xB2 JUMP JUMPDEST CALLDATASIZE PUSH2 0xB2 JUMPI STOP JUMPDEST PUSH1 0x0 DUP1 REVERT JUMPDEST CALLVALUE DUP1 ISZERO PUSH2 0xC3 JUMPI PUSH1 0x0 DUP1 REVERT JUMPDEST POP PUSH2 0xDE PUSH1 0x4 DUP1 CALLDATASIZE SUB DUP2 ADD SWAP1 PUSH2 0xD9 SWAP2 SWAP1 PUSH2 0x113F JUMP JUMPDEST PUSH2 0x329 JUMP JUMPDEST PUSH1 0x40 MLOAD PUSH2 0xEB SWAP2 SWAP1 PUSH2 0x119A JUMP JUMPDEST PUSH1 0x40 MLOAD DUP1 SWAP2 SUB SWAP1 RETURN JUMPDEST CALLVALUE DUP1 ISZERO PUSH2 0x100 JUMPI PUSH1 0x0 DUP1 REVERT JUMPDEST POP PUSH2 0x11B PUSH1 0x4 DUP1 CALLDATASIZE SUB DUP2 ADD SWAP1 PUSH2 0x116 SWAP2 SWAP1 PUSH2 0x11B5 JUMP JUMPDEST PUSH2 0x3D8 JUMP JUMPDEST PUSH1 0x40 MLOAD PUSH2 0x12C SWAP6 SWAP5 SWAP4 SWAP3 SWAP2 SWAP1 PUSH2 0x1290 JUMP JUMPDEST PUSH1 0x40 MLOAD DUP1 SWAP2 SUB SWAP1 RETURN JUMPDEST CALLVALUE DUP1 ISZERO PUSH2 0x141 JUMPI PUSH1 0x0 DUP1 REVERT JUMPDEST POP PUSH2 0x15C PUSH1 0x4 DUP1 CALLDATASIZE SUB DUP2 ADD SWAP1 PUSH2 0x157 SWAP2 SWAP1 PUSH2 0x11B5 JUMP JUMPDEST PUSH2 0x520 JUMP JUMPDEST PUSH1 0x40 MLOAD PUSH2 0x169 SWAP2 SWAP1 PUSH2 0x12EA JUMP JUMPDEST PUSH1 0x40 MLOAD DUP1 SWAP2 SUB SWAP1 RETURN JUMPDEST CALLVALUE DUP1 ISZERO PUSH2 0x17E JUMPI PUSH1 0x0 DUP1 REVERT JUMPDEST POP PUSH2 0x187 PUSH2 0x55F JUMP JUMPDEST PUSH1 0x40 MLOAD PUSH2 0x194 SWAP2 SWAP1 PUSH2 0x1305 JUMP JUMPDEST PUSH1 0x40 MLOAD DUP1 SWAP2 SUB SWAP1 RETURN JUMPDEST CALLVALUE DUP1 ISZERO PUSH2 0x1A9 JUMPI PUSH1 0x0 DUP1 REVERT JUMPDEST POP PUSH2 0x1C4 PUSH1 0x4 DUP1 CALLDATASIZE SUB DUP2 ADD SWAP1 PUSH2 0x1BF SWAP2 SWAP1 PUSH2 0x1455 JUMP JUMPDEST PUSH2 0x565 JUMP JUMPDEST PUSH1 0x40 MLOAD PUSH2 0x1D1 SWAP2 SWAP1 PUSH2 0x1305 JUMP JUMPDEST PUSH1 0x40 MLOAD DUP1 SWAP2 SUB SWAP1 RETURN JUMPDEST CALLVALUE DUP1 ISZERO PUSH2 0x1E6 JUMPI PUSH1 0x0 DUP1 REVERT JUMPDEST POP PUSH2 0x201 PUSH1 0x4 DUP1 CALLDATASIZE SUB DUP2 ADD SWAP1 PUSH2 0x1FC SWAP2 SWAP1 PUSH2 0x14C4 JUMP JUMPDEST PUSH2 0x747 JUMP JUMPDEST PUSH1 0x40 MLOAD PUSH2 0x20E SWAP2 SWAP1 PUSH2 0x119A JUMP JUMPDEST PUSH1 0x40 MLOAD DUP1 SWAP2 SUB SWAP1 RETURN JUMPDEST CALLVALUE DUP1 ISZERO PUSH2 0x223 JUMPI PUSH1 0x0 DUP1 REVERT JUMPDEST POP PUSH2 0x22C PUSH2 0x7F5 JUMP JUMPDEST PUSH1 0x40 MLOAD PUSH2 0x239 SWAP2 SWAP1 PUSH2 0x15AF JUMP JUMPDEST PUSH1 0x40 MLOAD DUP1 SWAP2 SUB SWAP1 RETURN JUMPDEST CALLVALUE DUP1 ISZERO PUSH2 0x24E JUMPI PUSH1 0x0 DUP1 REVERT JUMPDEST POP PUSH2 0x269 PUSH1 0x4 DUP1 CALLDATASIZE SUB DUP2 ADD SWAP1 PUSH2 0x264 SWAP2 SWAP1 PUSH2 0x11B5 JUMP JUMPDEST PUSH2 0x883 JUMP JUMPDEST PUSH1 0x40 MLOAD PUSH2 0x27A SWAP6 SWAP5 SWAP4 SWAP3 SWAP2 SWAP1 PUSH2 0x1290 JUMP JUMPDEST PUSH1 0x40 MLOAD DUP1 SWAP2 SUB SWAP1 RETURN JUMPDEST CALLVALUE DUP1 ISZERO PUSH2 0x28F JUMPI PUSH1 0x0 DUP1 REVERT JUMPDEST POP PUSH2 0x298 PUSH2 0x96E JUMP JUMPDEST PUSH1 0x40 MLOAD PUSH2 0x2A5 SWAP2 SWAP1 PUSH2 0x1305 JUMP JUMPDEST PUSH1 0x40 MLOAD DUP1 SWAP2 SUB SWAP1 RETURN JUMPDEST CALLVALUE DUP1 ISZERO PUSH2 0x2BA JUMPI PUSH1 0x0 DUP1 REVERT JUMPDEST POP PUSH2 0x2D5 PUSH1 0x4 DUP1 CALLDATASIZE SUB DUP2 ADD SWAP1 PUSH2 0x2D0 SWAP2 SWAP1 PUSH2 0x11B5 JUMP JUMPDEST PUSH2 0x974 JUMP JUMPDEST STOP JUMPDEST CALLVALUE DUP1 ISZERO PUSH2 0x2E3 JUMPI PUSH1 0x0 DUP1 REVERT JUMPDEST POP PUSH2 0x2FE PUSH1 0x4 DUP1 CALLDATASIZE SUB DUP2 ADD SWAP1 PUSH2 0x2F9 SWAP2 SWAP1 PUSH2 0x11B5 JUMP JUMPDEST PUSH2 0xBDF JUMP JUMPDEST STOP JUMPDEST CALLVALUE DUP1 ISZERO PUSH2 0x30C JUMPI PUSH1 0x0 DUP1 REVERT JUMPDEST POP PUSH2 0x327 PUSH1 0x4 DUP1 CALLDATASIZE SUB DUP2 ADD SWAP1 PUSH2 0x322 SWAP2 SWAP1 PUSH2 0x14C4 JUMP JUMPDEST PUSH2 0xCBC JUMP JUMPDEST STOP JUMPDEST PUSH1 0x0 PUSH1 0x2 SLOAD DUP4 LT PUSH2 0x36F JUMPI PUSH1 0x40 MLOAD PUSH32 0x8C379A000000000000000000000000000000000000000000000000000000000 DUP2 MSTORE PUSH1 0x4 ADD PUSH2 0x366 SWAP1 PUSH2 0x162E JUMP JUMPDEST PUSH1 0x40 MLOAD DUP1 SWAP2 SUB SWAP1 REVERT JUMPDEST PUSH1 0x3 PUSH1 0x0 DUP5 DUP2 MSTORE PUSH1 0x20 ADD SWAP1 DUP2 MSTORE PUSH1 0x20 ADD PUSH1 0x0 KECCAK256 PUSH1 0x5 ADD PUSH1 0x0 DUP4 PUSH20 0xFFFFFFFFFFFFFFFFFFFFFFFFFFFFFFFFFFFFFFFF AND PUSH20 0xFFFFFFFFFFFFFFFFFFFFFFFFFFFFFFFFFFFFFFFF AND DUP2 MSTORE PUSH1 0x20 ADD SWAP1 DUP2 MSTORE PUSH1 0x20 ADD PUSH1 0x0 KECCAK256 PUSH1 0x0 SWAP1 SLOAD SWAP1 PUSH2 0x100 EXP SWAP1 DIV PUSH1 0xFF AND SWAP1 POP SWAP3 SWAP2 POP POP JUMP JUMPDEST PUSH1 0x0 DUP1 PUSH1 0x60 PUSH1 0x0 DUP1 PUSH1 0x2 SLOAD DUP7 LT PUSH2 0x424 JUMPI PUSH1 0x40 MLOAD PUSH32 0x8C379A000000000000000000000000000000000000000000000000000000000 DUP2 MSTORE PUSH1 0x4 ADD PUSH2 0x41B SWAP1 PUSH2 0x162E JUMP JUMPDEST PUSH1 0x40 MLOAD DUP1 SWAP2 SUB SWAP1 REVERT JUMPDEST PUSH1 0x0 PUSH1 0x3 PUSH1 0x0 DUP9 DUP2 MSTORE PUSH1 0x20 ADD SWAP1 DUP2 MSTORE PUSH1 0x20 ADD PUSH1 0x0 KECCAK256 SWAP1 POP DUP1 PUSH1 0x0 ADD PUSH1 0x0 SWAP1 SLOAD SWAP1 PUSH2 0x100 EXP SWAP1 DIV PUSH20 0xFFFFFFFFFFFFFFFFFFFFFFFFFFFFFFFFFFFFFFFF AND DUP2 PUSH1 0x1 ADD SLOAD DUP3 PUSH1 0x2 ADD DUP4 PUSH1 0x3 ADD PUSH1 0x0 SWAP1 SLOAD SWAP1 PUSH2 0x100 EXP SWAP1 DIV PUSH1 0xFF AND DUP5 PUSH1 0x4 ADD SLOAD DUP3 DUP1 SLOAD PUSH2 0x48C SWAP1 PUSH2 0x167D JUMP JUMPDEST DUP1 PUSH1 0x1F ADD PUSH1 0x20 DUP1 SWAP2 DIV MUL PUSH1 0x20 ADD PUSH1 0x40 MLOAD SWAP1 DUP2 ADD PUSH1 0x40 MSTORE DUP1 SWAP3 SWAP2 SWAP1 DUP2 DUP2 MSTORE PUSH1 0x20 ADD DUP3 DUP1 SLOAD PUSH2 0x4B8 SWAP1 PUSH2 0x167D JUMP JUMPDEST DUP1 ISZERO PUSH2 0x505 JUMPI DUP1 PUSH1 0x1F LT PUSH2 0x4DA JUMPI PUSH2 0x100 DUP1 DUP4 SLOAD DIV MUL DUP4 MSTORE SWAP2 PUSH1 0x20 ADD SWAP2 PUSH2 0x505 JUMP JUMPDEST DUP3 ADD SWAP2 SWAP1 PUSH1 0x0 MSTORE PUSH1 0x20 PUSH1 0x0 KECCAK256 SWAP1 JUMPDEST DUP2 SLOAD DUP2 MSTORE SWAP1 PUSH1 0x1 ADD SWAP1 PUSH1 0x20 ADD DUP1 DUP4 GT PUSH2 0x4E8 JUMPI DUP3 SWAP1 SUB PUSH1 0x1F AND DUP3 ADD SWAP2 JUMPDEST POP POP POP POP POP SWAP3 POP SWAP6 POP SWAP6 POP SWAP6 POP SWAP6 POP SWAP6 POP POP SWAP2 SWAP4 SWAP6 SWAP1 SWAP3 SWAP5 POP JUMP JUMPDEST PUSH1 0x0 DUP2 DUP2 SLOAD DUP2 LT PUSH2 0x530 JUMPI PUSH1 0x0 DUP1 REVERT JUMPDEST SWAP1 PUSH1 0x0 MSTORE PUSH1 0x20 PUSH1 0x0 KECCAK256 ADD PUSH1 0x0 SWAP2 POP SLOAD SWAP1 PUSH2 0x100 EXP SWAP1 DIV PUSH20 0xFFFFFFFFFFFFFFFFFFFFFFFFFFFFFFFFFFFFFFFF AND DUP2 JUMP JUMPDEST PUSH1 0x1 SLOAD DUP2 JUMP JUMPDEST PUSH1 0x0 PUSH2 0x570 CALLER PUSH2 0x747 JUMP JUMPDEST PUSH2 0x5AF JUMPI PUSH1 0x40 MLOAD PUSH32 0x8C379A000000000000000000000000000000000000000000000000000000000 DUP2 MSTORE PUSH1 0x4 ADD PUSH2 0x5A6 SWAP1 PUSH2 0x16FA JUMP JUMPDEST PUSH1 0x40 MLOAD DUP1 SWAP2 SUB SWAP1 REVERT JUMPDEST PUSH1 0x0 PUSH20 0xFFFFFFFFFFFFFFFFFFFFFFFFFFFFFFFFFFFFFFFF AND DUP5 PUSH20 0xFFFFFFFFFFFFFFFFFFFFFFFFFFFFFFFFFFFFFFFF AND SUB PUSH2 0x61E JUMPI PUSH1 0x40 MLOAD PUSH32 0x8C379A000000000000000000000000000000000000000000000000000000000 DUP2 MSTORE PUSH1 0x4 ADD PUSH2 0x615 SWAP1 PUSH2 0x1766 JUMP JUMPDEST PUSH1 0x40 MLOAD DUP1 SWAP2 SUB SWAP1 REVERT JUMPDEST PUSH1 0x2 SLOAD SWAP1 POP PUSH1 0x0 PUSH1 0x3 PUSH1 0x0 DUP4 DUP2 MSTORE PUSH1 0x20 ADD SWAP1 DUP2 MSTORE PUSH1 0x20 ADD PUSH1 0x0 KECCAK256 SWAP1 POP DUP5 DUP2 PUSH1 0x0 ADD PUSH1 0x0 PUSH2 0x100 EXP DUP2 SLOAD DUP2 PUSH20 0xFFFFFFFFFFFFFFFFFFFFFFFFFFFFFFFFFFFFFFFF MUL NOT AND SWAP1 DUP4 PUSH20 0xFFFFFFFFFFFFFFFFFFFFFFFFFFFFFFFFFFFFFFFF AND MUL OR SWAP1 SSTORE POP DUP4 DUP2 PUSH1 0x1 ADD DUP2 SWAP1 SSTORE POP DUP3 DUP2 PUSH1 0x2 ADD SWAP1 DUP2 PUSH2 0x697 SWAP2 SWAP1 PUSH2 0x1932 JUMP JUMPDEST POP PUSH1 0x0 DUP2 PUSH1 0x3 ADD PUSH1 0x0 PUSH2 0x100 EXP DUP2 SLOAD DUP2 PUSH1 0xFF MUL NOT AND SWAP1 DUP4 ISZERO ISZERO MUL OR SWAP1 SSTORE POP PUSH1 0x0 DUP2 PUSH1 0x4 ADD DUP2 SWAP1 SSTORE POP PUSH1 0x2 PUSH1 0x0 DUP2 SLOAD DUP1 SWAP3 SWAP2 SWAP1 PUSH2 0x6D2 SWAP1 PUSH2 0x1A33 JUMP JUMPDEST SWAP2 SWAP1 POP SSTORE POP DUP5 PUSH20 0xFFFFFFFFFFFFFFFFFFFFFFFFFFFFFFFFFFFFFFFF AND CALLER PUSH20 0xFFFFFFFFFFFFFFFFFFFFFFFFFFFFFFFFFFFFFFFF AND DUP4 PUSH32 0xF13A7A4144A3232FD093FCA16BE52A8223BAD74CEE86D5FA8966C7061E75BFD3 DUP8 DUP8 PUSH1 0x40 MLOAD PUSH2 0x737 SWAP3 SWAP2 SWAP1 PUSH2 0x1A7B JUMP JUMPDEST PUSH1 0x40 MLOAD DUP1 SWAP2 SUB SWAP1 LOG4 POP SWAP4 SWAP3 POP POP POP JUMP JUMPDEST PUSH1 0x0 DUP1 PUSH1 0x0 SWAP1 POP JUMPDEST PUSH1 0x0 DUP1 SLOAD SWAP1 POP DUP2 LT ISZERO PUSH2 0x7EA JUMPI DUP3 PUSH20 0xFFFFFFFFFFFFFFFFFFFFFFFFFFFFFFFFFFFFFFFF AND PUSH1 0x0 DUP3 DUP2 SLOAD DUP2 LT PUSH2 0x787 JUMPI PUSH2 0x786 PUSH2 0x1AAB JUMP JUMPDEST JUMPDEST SWAP1 PUSH1 0x0 MSTORE PUSH1 0x20 PUSH1 0x0 KECCAK256 ADD PUSH1 0x0 SWAP1 SLOAD SWAP1 PUSH2 0x100 EXP SWAP1 DIV PUSH20 0xFFFFFFFFFFFFFFFFFFFFFFFFFFFFFFFFFFFFFFFF AND PUSH20 0xFFFFFFFFFFFFFFFFFFFFFFFFFFFFFFFFFFFFFFFF AND SUB PUSH2 0x7D7 JUMPI PUSH1 0x1 SWAP2 POP POP PUSH2 0x7F0 JUMP JUMPDEST DUP1 DUP1 PUSH2 0x7E2 SWAP1 PUSH2 0x1A33 JUMP JUMPDEST SWAP2 POP POP PUSH2 0x74F JUMP JUMPDEST POP PUSH1 0x0 SWAP1 POP JUMPDEST SWAP2 SWAP1 POP JUMP JUMPDEST PUSH1 0x60 PUSH1 0x0 DUP1 SLOAD DUP1 PUSH1 0x20 MUL PUSH1 0x20 ADD PUSH1 0x40 MLOAD SWAP1 DUP2 ADD PUSH1 0x40 MSTORE DUP1 SWAP3 SWAP2 SWAP1 DUP2 DUP2 MSTORE PUSH1 0x20 ADD DUP3 DUP1 SLOAD DUP1 ISZERO PUSH2 0x879 JUMPI PUSH1 0x20 MUL DUP3 ADD SWAP2 SWAP1 PUSH1 0x0 MSTORE PUSH1 0x20 PUSH1 0x0 KECCAK256 SWAP1 JUMPDEST DUP2 PUSH1 0x0 SWAP1 SLOAD SWAP1 PUSH2 0x100 EXP SWAP1 DIV PUSH20 0xFFFFFFFFFFFFFFFFFFFFFFFFFFFFFFFFFFFFFFFF AND PUSH20 0xFFFFFFFFFFFFFFFFFFFFFFFFFFFFFFFFFFFFFFFF AND DUP2 MSTORE PUSH1 0x20 ADD SWAP1 PUSH1 0x1 ADD SWAP1 DUP1 DUP4 GT PUSH2 0x82F JUMPI JUMPDEST POP POP POP POP POP SWAP1 POP SWAP1 JUMP JUMPDEST PUSH1 0x3 PUSH1 0x20 MSTORE DUP1 PUSH1 0x0 MSTORE PUSH1 0x40 PUSH1 0x0 KECCAK256 PUSH1 0x0 SWAP2 POP SWAP1 POP DUP1 PUSH1 0x0 ADD PUSH1 0x0 SWAP1 SLOAD SWAP1 PUSH2 0x100 EXP SWAP1 DIV PUSH20 0xFFFFFFFFFFFFFFFFFFFFFFFFFFFFFFFFFFFFFFFF AND SWAP1 DUP1 PUSH1 0x1 ADD SLOAD SWAP1 DUP1 PUSH1 0x2 ADD DUP1 SLOAD PUSH2 0x8D2 SWAP1 PUSH2 0x167D JUMP JUMPDEST DUP1 PUSH1 0x1F ADD PUSH1 0x20 DUP1 SWAP2 DIV MUL PUSH1 0x20 ADD PUSH1 0x40 MLOAD SWAP1 DUP2 ADD PUSH1 0x40 MSTORE DUP1 SWAP3 SWAP2 SWAP1 DUP2 DUP2 MSTORE PUSH1 0x20 ADD DUP3 DUP1 SLOAD PUSH2 0x8FE SWAP1 PUSH2 0x167D JUMP JUMPDEST DUP1 ISZERO PUSH2 0x94B JUMPI DUP1 PUSH1 0x1F LT PUSH2 0x920 JUMPI PUSH2 0x100 DUP1 DUP4 SLOAD DIV MUL DUP4 MSTORE SWAP2 PUSH1 0x20 ADD SWAP2 PUSH2 0x94B JUMP JUMPDEST DUP3 ADD SWAP2 SWAP1 PUSH1 0x0 MSTORE PUSH1 0x20 PUSH1 0x0 KECCAK256 SWAP1 JUMPDEST DUP2 SLOAD DUP2 MSTORE SWAP1 PUSH1 0x1 ADD SWAP1 PUSH1 0x20 ADD DUP1 DUP4 GT PUSH2 0x92E JUMPI DUP3 SWAP1 SUB PUSH1 0x1F AND DUP3 ADD SWAP2 JUMPDEST POP POP POP POP POP SWAP1 DUP1 PUSH1 0x3 ADD PUSH1 0x0 SWAP1 SLOAD SWAP1 PUSH2 0x100 EXP SWAP1 DIV PUSH1 0xFF AND SWAP1 DUP1 PUSH1 0x4 ADD SLOAD SWAP1 POP DUP6 JUMP JUMPDEST PUSH1 0x2 SLOAD DUP2 JUMP JUMPDEST PUSH2 0x97D CALLER PUSH2 0x747 JUMP JUMPDEST PUSH2 0x9BC JUMPI PUSH1 0x40 MLOAD PUSH32 0x8C379A000000000000000000000000000000000000000000000000000000000 DUP2 MSTORE PUSH1 0x4 ADD PUSH2 0x9B3 SWAP1 PUSH2 0x16FA JUMP JUMPDEST PUSH1 0x40 MLOAD DUP1 SWAP2 SUB SWAP1 REVERT JUMPDEST DUP1 PUSH1 0x2 SLOAD DUP2 LT PUSH2 0xA01 JUMPI PUSH1 0x40 MLOAD PUSH32 0x8C379A000000000000000000000000000000000000000000000000000000000 DUP2 MSTORE PUSH1 0x4 ADD PUSH2 0x9F8 SWAP1 PUSH2 0x162E JUMP JUMPDEST PUSH1 0x40 MLOAD DUP1 SWAP2 SUB SWAP1 REVERT JUMPDEST PUSH1 0x3 PUSH1 0x0 DUP3 DUP2 MSTORE PUSH1 0x20 ADD SWAP1 DUP2 MSTORE PUSH1 0x20 ADD PUSH1 0x0 KECCAK256 PUSH1 0x3 ADD PUSH1 0x0 SWAP1 SLOAD SWAP1 PUSH2 0x100 EXP SWAP1 DIV PUSH1 0xFF AND ISZERO PUSH2 0xA65 JUMPI PUSH1 0x40 MLOAD PUSH32 0x8C379A000000000000000000000000000000000000000000000000000000000 DUP2 MSTORE PUSH1 0x4 ADD PUSH2 0xA5C SWAP1 PUSH2 0x1B26 JUMP JUMPDEST PUSH1 0x40 MLOAD DUP1 SWAP2 SUB SWAP1 REVERT JUMPDEST PUSH1 0x0 PUSH1 0x3 PUSH1 0x0 DUP5 DUP2 MSTORE PUSH1 0x20 ADD SWAP1 DUP2 MSTORE PUSH1 0x20 ADD PUSH1 0x0 KECCAK256 SWAP1 POP DUP1 PUSH1 0x5 ADD PUSH1 0x0 CALLER PUSH20 0xFFFFFFFFFFFFFFFFFFFFFFFFFFFFFFFFFFFFFFFF AND PUSH20 0xFFFFFFFFFFFFFFFFFFFFFFFFFFFFFFFFFFFFFFFF AND DUP2 MSTORE PUSH1 0x20 ADD SWAP1 DUP2 MSTORE PUSH1 0x20 ADD PUSH1 0x0 KECCAK256 PUSH1 0x0 SWAP1 SLOAD SWAP1 PUSH2 0x100 EXP SWAP1 DIV PUSH1 0xFF AND ISZERO PUSH2 0xB0B JUMPI PUSH1 0x40 MLOAD PUSH32 0x8C379A000000000000000000000000000000000000000000000000000000000 DUP2 MSTORE PUSH1 0x4 ADD PUSH2 0xB02 SWAP1 PUSH2 0x1B92 JUMP JUMPDEST PUSH1 0x40 MLOAD DUP1 SWAP2 SUB SWAP1 REVERT JUMPDEST PUSH1 0x1 DUP2 PUSH1 0x5 ADD PUSH1 0x0 CALLER PUSH20 0xFFFFFFFFFFFFFFFFFFFFFFFFFFFFFFFFFFFFFFFF AND PUSH20 0xFFFFFFFFFFFFFFFFFFFFFFFFFFFFFFFFFFFFFFFF AND DUP2 MSTORE PUSH1 0x20 ADD SWAP1 DUP2 MSTORE PUSH1 0x20 ADD PUSH1 0x0 KECCAK256 PUSH1 0x0 PUSH2 0x100 EXP DUP2 SLOAD DUP2 PUSH1 0xFF MUL NOT AND SWAP1 DUP4 ISZERO ISZERO MUL OR SWAP1 SSTORE POP DUP1 PUSH1 0x4 ADD PUSH1 0x0 DUP2 SLOAD DUP1 SWAP3 SWAP2 SWAP1 PUSH2 0xB7A SWAP1 PUSH2 0x1A33 JUMP JUMPDEST SWAP2 SWAP1 POP SSTORE POP CALLER PUSH20 0xFFFFFFFFFFFFFFFFFFFFFFFFFFFFFFFFFFFFFFFF AND DUP4 PUSH32 0x15C2F311C9E0F53B50388279894AEFF029A3457884A6601E924FCA879E12ADCC PUSH1 0x40 MLOAD PUSH1 0x40 MLOAD DUP1 SWAP2 SUB SWAP1 LOG3 PUSH1 0x1 SLOAD DUP2 PUSH1 0x4 ADD SLOAD LT PUSH2 0xBDA JUMPI PUSH2 0xBD9 DUP4 PUSH2 0xE65 JUMP JUMPDEST JUMPDEST POP POP POP JUMP JUMPDEST PUSH2 0xBE8 CALLER PUSH2 0x747 JUMP JUMPDEST PUSH2 0xC27 JUMPI PUSH1 0x40 MLOAD PUSH32 0x8C379A000000000000000000000000000000000000000000000000000000000 DUP2 MSTORE PUSH1 0x4 ADD PUSH2 0xC1E SWAP1 PUSH2 0x16FA JUMP JUMPDEST PUSH1 0x40 MLOAD DUP1 SWAP2 SUB SWAP1 REVERT JUMPDEST PUSH1 0x0 DUP2 GT DUP1 ISZERO PUSH2 0xC3C JUMPI POP PUSH1 0x0 DUP1 SLOAD SWAP1 POP DUP2 GT ISZERO JUMPDEST PUSH2 0xC7B JUMPI PUSH1 0x40 MLOAD PUSH32 0x8C379A000000000000000000000000000000000000000000000000000000000 DUP2 MSTORE PUSH1 0x4 ADD PUSH2 0xC72 SWAP1 PUSH2 0x1BFE JUMP JUMPDEST PUSH1 0x40 MLOAD DUP1 SWAP2 SUB SWAP1 REVERT JUMPDEST DUP1 PUSH1 0x1 DUP2 SWAP1 SSTORE POP PUSH32 0xADFA8ECB21B6962EBCD0ADBD9AB985B7B4C5B5EB3B0DEAD683171565C7BFE171 DUP2 PUSH1 0x40 MLOAD PUSH2 0xCB1 SWAP2 SWAP1 PUSH2 0x1305 JUMP JUMPDEST PUSH1 0x40 MLOAD DUP1 SWAP2 SUB SWAP1 LOG1 POP JUMP JUMPDEST PUSH2 0xCC5 CALLER PUSH2 0x747 JUMP JUMPDEST PUSH2 0xD04 JUMPI PUSH1 0x40 MLOAD PUSH32 0x8C379A000000000000000000000000000000000000000000000000000000000 DUP2 MSTORE PUSH1 0x4 ADD PUSH2 0xCFB SWAP1 PUSH2 0x16FA JUMP JUMPDEST PUSH1 0x40 MLOAD DUP1 SWAP2 SUB SWAP1 REVERT JUMPDEST PUSH1 0x0 PUSH20 0xFFFFFFFFFFFFFFFFFFFFFFFFFFFFFFFFFFFFFFFF AND DUP2 PUSH20 0xFFFFFFFFFFFFFFFFFFFFFFFFFFFFFFFFFFFFFFFF AND SUB PUSH2 0xD73 JUMPI PUSH1 0x40 MLOAD PUSH32 0x8C379A000000000000000000000000000000000000000000000000000000000 DUP2 MSTORE PUSH1 0x4 ADD PUSH2 0xD6A SWAP1 PUSH2 0x1C6A JUMP JUMPDEST PUSH1 0x40 MLOAD DUP1 SWAP2 SUB SWAP1 REVERT JUMPDEST PUSH2 0xD7C DUP2 PUSH2 0x747 JUMP JUMPDEST ISZERO PUSH2 0xDBC JUMPI PUSH1 0x40 MLOAD PUSH32 0x8C379A000000000000000000000000000000000000000000000000000000000 DUP2 MSTORE PUSH1 0x4 ADD PUSH2 0xDB3 SWAP1 PUSH2 0x1CD6 JUMP JUMPDEST PUSH1 0x40 MLOAD DUP1 SWAP2 SUB SWAP1 REVERT JUMPDEST PUSH1 0x0 DUP2 SWAP1 DUP1 PUSH1 0x1 DUP2 SLOAD ADD DUP1 DUP3 SSTORE DUP1 SWAP2 POP POP PUSH1 0x1 SWAP1 SUB SWAP1 PUSH1 0x0 MSTORE PUSH1 0x20 PUSH1 0x0 KECCAK256 ADD PUSH1 0x0 SWAP1 SWAP2 SWAP1 SWAP2 SWAP1 SWAP2 PUSH2 0x100 EXP DUP2 SLOAD DUP2 PUSH20 0xFFFFFFFFFFFFFFFFFFFFFFFFFFFFFFFFFFFFFFFF MUL NOT AND SWAP1 DUP4 PUSH20 0xFFFFFFFFFFFFFFFFFFFFFFFFFFFFFFFFFFFFFFFF AND MUL OR SWAP1 SSTORE POP DUP1 PUSH20 0xFFFFFFFFFFFFFFFFFFFFFFFFFFFFFFFFFFFFFFFF AND PUSH32 0x47D1C22A25BB3A5D4E481B9B1E6944C2EADE3181A0A20B495ED61D35B5323F24 PUSH1 0x40 MLOAD PUSH1 0x40 MLOAD DUP1 SWAP2 SUB SWAP1 LOG2 POP JUMP JUMPDEST DUP1 PUSH1 0x2 SLOAD DUP2 LT PUSH2 0xEAA JUMPI PUSH1 0x40 MLOAD PUSH32 0x8C379A000000000000000000000000000000000000000000000000000000000 DUP2 MSTORE PUSH1 0x4 ADD PUSH2 0xEA1 SWAP1 PUSH2 0x162E JUMP JUMPDEST PUSH1 0x40 MLOAD DUP1 SWAP2 SUB SWAP1 REVERT JUMPDEST PUSH1 0x3 PUSH1 0x0 DUP3 DUP2 MSTORE PUSH1 0x20 ADD SWAP1 DUP2 MSTORE PUSH1 0x20 ADD PUSH1 0x0 KECCAK256 PUSH1 0x3 ADD PUSH1 0x0 SWAP1 SLOAD SWAP1 PUSH2 0x100 EXP SWAP1 DIV PUSH1 0xFF AND ISZERO PUSH2 0xF0E JUMPI PUSH1 0x40 MLOAD PUSH32 0x8C379A000000000000000000000000000000000000000000000000000000000 DUP2 MSTORE PUSH1 0x4 ADD PUSH2 0xF05 SWAP1 PUSH2 0x1B26 JUMP JUMPDEST PUSH1 0x40 MLOAD DUP1 SWAP2 SUB SWAP1 REVERT JUMPDEST PUSH1 0x0 PUSH1 0x3 PUSH1 0x0 DUP5 DUP2 MSTORE PUSH1 0x20 ADD SWAP1 DUP2 MSTORE PUSH1 0x20 ADD PUSH1 0x0 KECCAK256 SWAP1 POP PUSH1 0x1 SLOAD DUP2 PUSH1 0x4 ADD SLOAD LT ISZERO PUSH2 0xF6E JUMPI PUSH1 0x40 MLOAD PUSH32 0x8C379A000000000000000000000000000000000000000000000000000000000 DUP2 MSTORE PUSH1 0x4 ADD PUSH2 0xF65 SWAP1 PUSH2 0x1D42 JUMP JUMPDEST PUSH1 0x40 MLOAD DUP1 SWAP2 SUB SWAP1 REVERT JUMPDEST PUSH1 0x1 DUP2 PUSH1 0x3 ADD PUSH1 0x0 PUSH2 0x100 EXP DUP2 SLOAD DUP2 PUSH1 0xFF MUL NOT AND SWAP1 DUP4 ISZERO ISZERO MUL OR SWAP1 SSTORE POP PUSH1 0x0 DUP2 PUSH1 0x0 ADD PUSH1 0x0 SWAP1 SLOAD SWAP1 PUSH2 0x100 EXP SWAP1 DIV PUSH20 0xFFFFFFFFFFFFFFFFFFFFFFFFFFFFFFFFFFFFFFFF AND PUSH20 0xFFFFFFFFFFFFFFFFFFFFFFFFFFFFFFFFFFFFFFFF AND DUP3 PUSH1 0x1 ADD SLOAD DUP4 PUSH1 0x2 ADD PUSH1 0x40 MLOAD PUSH2 0xFDE SWAP2 SWAP1 PUSH2 0x1DF0 JUMP JUMPDEST PUSH1 0x0 PUSH1 0x40 MLOAD DUP1 DUP4 SUB DUP2 DUP6 DUP8 GAS CALL SWAP3 POP POP POP RETURNDATASIZE DUP1 PUSH1 0x0 DUP2 EQ PUSH2 0x101B JUMPI PUSH1 0x40 MLOAD SWAP2 POP PUSH1 0x1F NOT PUSH1 0x3F RETURNDATASIZE ADD AND DUP3 ADD PUSH1 0x40 MSTORE RETURNDATASIZE DUP3 MSTORE RETURNDATASIZE PUSH1 0x0 PUSH1 0x20 DUP5 ADD RETURNDATACOPY PUSH2 0x1020 JUMP JUMPDEST PUSH1 0x60 SWAP2 POP JUMPDEST POP POP SWAP1 POP DUP1 PUSH2 0x1064 JUMPI PUSH1 0x40 MLOAD PUSH32 0x8C379A000000000000000000000000000000000000000000000000000000000 DUP2 MSTORE PUSH1 0x4 ADD PUSH2 0x105B SWAP1 PUSH2 0x1E53 JUMP JUMPDEST PUSH1 0x40 MLOAD DUP1 SWAP2 SUB SWAP1 REVERT JUMPDEST DUP4 PUSH32 0x15ED165A284872EA7017F03DF402A0CADFBFAB588320FFAF83F160C2F82781C7 PUSH1 0x40 MLOAD PUSH1 0x40 MLOAD DUP1 SWAP2 SUB SWAP1 LOG2 POP POP POP POP JUMP JUMPDEST PUSH1 0x0 PUSH1 0x40 MLOAD SWAP1 POP SWAP1 JUMP JUMPDEST PUSH1 0x0 DUP1 REVERT JUMPDEST PUSH1 0x0 DUP1 REVERT JUMPDEST PUSH1 0x0 DUP2 SWAP1 POP SWAP2 SWAP1 POP JUMP JUMPDEST PUSH2 0x10BE DUP2 PUSH2 0x10AB JUMP JUMPDEST DUP2 EQ PUSH2 0x10C9 JUMPI PUSH1 0x0 DUP1 REVERT JUMPDEST POP JUMP JUMPDEST PUSH1 0x0 DUP2 CALLDATALOAD SWAP1 POP PUSH2 0x10DB DUP2 PUSH2 0x10B5 JUMP JUMPDEST SWAP3 SWAP2 POP POP JUMP JUMPDEST PUSH1 0x0 PUSH20 0xFFFFFFFFFFFFFFFFFFFFFFFFFFFFFFFFFFFFFFFF DUP3 AND SWAP1 POP SWAP2 SWAP1 POP JUMP JUMPDEST PUSH1 0x0 PUSH2 0x110C DUP3 PUSH2 0x10E1 JUMP JUMPDEST SWAP1 POP SWAP2 SWAP1 POP JUMP JUMPDEST PUSH2 0x111C DUP2 PUSH2 0x1101 JUMP JUMPDEST DUP2 EQ PUSH2 0x1127 JUMPI PUSH1 0x0 DUP1 REVERT JUMPDEST POP JUMP JUMPDEST PUSH1 0x0 DUP2 CALLDATALOAD SWAP1 POP PUSH2 0x1139 DUP2 PUSH2 0x1113 JUMP JUMPDEST SWAP3 SWAP2 POP POP JUMP JUMPDEST PUSH1 0x0 DUP1 PUSH1 0x40 DUP4 DUP6 SUB SLT ISZERO PUSH2 0x1156 JUMPI PUSH2 0x1155 PUSH2 0x10A1 JUMP JUMPDEST JUMPDEST PUSH1 0x0 PUSH2 0x1164 DUP6 DUP3 DUP7 ADD PUSH2 0x10CC JUMP JUMPDEST SWAP3 POP POP PUSH1 0x20 PUSH2 0x1175 DUP6 DUP3 DUP7 ADD PUSH2 0x112A JUMP JUMPDEST SWAP2 POP POP SWAP3 POP SWAP3 SWAP1 POP JUMP JUMPDEST PUSH1 0x0 DUP2 ISZERO ISZERO SWAP1 POP SWAP2 SWAP1 POP JUMP JUMPDEST PUSH2 0x1194 DUP2 PUSH2 0x117F JUMP JUMPDEST DUP3 MSTORE POP POP JUMP JUMPDEST PUSH1 0x0 PUSH1 0x20 DUP3 ADD SWAP1 POP PUSH2 0x11AF PUSH1 0x0 DUP4 ADD DUP5 PUSH2 0x118B JUMP JUMPDEST SWAP3 SWAP2 POP POP JUMP JUMPDEST PUSH1 0x0 PUSH1 0x20 DUP3 DUP5 SUB SLT ISZERO PUSH2 0x11CB JUMPI PUSH2 0x11CA PUSH2 0x10A1 JUMP JUMPDEST JUMPDEST PUSH1 0x0 PUSH2 0x11D9 DUP5 DUP3 DUP6 ADD PUSH2 0x10CC JUMP JUMPDEST SWAP2 POP POP SWAP3 SWAP2 POP POP JUMP JUMPDEST PUSH2 0x11EB DUP2 PUSH2 0x1101 JUMP JUMPDEST DUP3 MSTORE POP POP JUMP JUMPDEST PUSH2 0x11FA DUP2 PUSH2 0x10AB JUMP JUMPDEST DUP3 MSTORE POP POP JUMP JUMPDEST PUSH1 0x0 DUP2 MLOAD SWAP1 POP SWAP2 SWAP1 POP JUMP JUMPDEST PUSH1 0x0 DUP3 DUP3 MSTORE PUSH1 0x20 DUP3 ADD SWAP1 POP SWAP3 SWAP2 POP POP JUMP JUMPDEST PUSH1 0x0 JUMPDEST DUP4 DUP2 LT ISZERO PUSH2 0x123A JUMPI DUP1 DUP3 ADD MLOAD DUP2 DUP5 ADD MSTORE PUSH1 0x20 DUP2 ADD SWAP1 POP PUSH2 0x121F JUMP JUMPDEST PUSH1 0x0 DUP5 DUP5 ADD MSTORE POP POP POP POP JUMP JUMPDEST PUSH1 0x0 PUSH1 0x1F NOT PUSH1 0x1F DUP4 ADD AND SWAP1 POP SWAP2 SWAP1 POP JUMP JUMPDEST PUSH1 0x0 PUSH2 0x1262 DUP3 PUSH2 0x1200 JUMP JUMPDEST PUSH2 0x126C DUP2 DUP6 PUSH2 0x120B JUMP JUMPDEST SWAP4 POP PUSH2 0x127C DUP2 DUP6 PUSH1 0x20 DUP7 ADD PUSH2 0x121C JUMP JUMPDEST PUSH2 0x1285 DUP2 PUSH2 0x1246 JUMP JUMPDEST DUP5 ADD SWAP2 POP POP SWAP3 SWAP2 POP POP JUMP JUMPDEST PUSH1 0x0 PUSH1 0xA0 DUP3 ADD SWAP1 POP PUSH2 0x12A5 PUSH1 0x0 DUP4 ADD DUP9 PUSH2 0x11E2 JUMP JUMPDEST PUSH2 0x12B2 PUSH1 0x20 DUP4 ADD DUP8 PUSH2 0x11F1 JUMP JUMPDEST DUP2 DUP2 SUB PUSH1 0x40 DUP4 ADD MSTORE PUSH2 0x12C4 DUP2 DUP7 PUSH2 0x1257 JUMP JUMPDEST SWAP1 POP PUSH2 0x12D3 PUSH1 0x60 DUP4 ADD DUP6 PUSH2 0x118B JUMP JUMPDEST PUSH2 0x12E0 PUSH1 0x80 DUP4 ADD DUP5 PUSH2 0x11F1 JUMP JUMPDEST SWAP7 SWAP6 POP POP POP POP POP POP JUMP JUMPDEST PUSH1 0x0 PUSH1 0x20 DUP3 ADD SWAP1 POP PUSH2 0x12FF PUSH1 0x0 DUP4 ADD DUP5 PUSH2 0x11E2 JUMP JUMPDEST SWAP3 SWAP2 POP POP JUMP JUMPDEST PUSH1 0x0 PUSH1 0x20 DUP3 ADD SWAP1 POP PUSH2 0x131A PUSH1 0x0 DUP4 ADD DUP5 PUSH2 0x11F1 JUMP JUMPDEST SWAP3 SWAP2 POP POP JUMP JUMPDEST PUSH1 0x0 DUP1 REVERT JUMPDEST PUSH1 0x0 DUP1 REVERT JUMPDEST PUSH32 0x4E487B7100000000000000000000000000000000000000000000000000000000 PUSH1 0x0 MSTORE PUSH1 0x41 PUSH1 0x4 MSTORE PUSH1 0x24 PUSH1 0x0 REVERT JUMPDEST PUSH2 0x1362 DUP3 PUSH2 0x1246 JUMP JUMPDEST DUP2 ADD DUP2 DUP2 LT PUSH8 0xFFFFFFFFFFFFFFFF DUP3 GT OR ISZERO PUSH2 0x1381 JUMPI PUSH2 0x1380 PUSH2 0x132A JUMP JUMPDEST JUMPDEST DUP1 PUSH1 0x40 MSTORE POP POP POP JUMP JUMPDEST PUSH1 0x0 PUSH2 0x1394 PUSH2 0x1097 JUMP JUMPDEST SWAP1 POP PUSH2 0x13A0 DUP3 DUP3 PUSH2 0x1359 JUMP JUMPDEST SWAP2 SWAP1 POP JUMP JUMPDEST PUSH1 0x0 PUSH8 0xFFFFFFFFFFFFFFFF DUP3 GT ISZERO PUSH2 0x13C0 JUMPI PUSH2 0x13BF PUSH2 0x132A JUMP JUMPDEST JUMPDEST PUSH2 0x13C9 DUP3 PUSH2 0x1246 JUMP JUMPDEST SWAP1 POP PUSH1 0x20 DUP2 ADD SWAP1 POP SWAP2 SWAP1 POP JUMP JUMPDEST DUP3 DUP2 DUP4 CALLDATACOPY PUSH1 0x0 DUP4 DUP4 ADD MSTORE POP POP POP JUMP JUMPDEST PUSH1 0x0 PUSH2 0x13F8 PUSH2 0x13F3 DUP5 PUSH2 0x13A5 JUMP JUMPDEST PUSH2 0x138A JUMP JUMPDEST SWAP1 POP DUP3 DUP2 MSTORE PUSH1 0x20 DUP2 ADD DUP5 DUP5 DUP5 ADD GT ISZERO PUSH2 0x1414 JUMPI PUSH2 0x1413 PUSH2 0x1325 JUMP JUMPDEST JUMPDEST PUSH2 0x141F DUP5 DUP3 DUP6 PUSH2 0x13D6 JUMP JUMPDEST POP SWAP4 SWAP3 POP POP POP JUMP JUMPDEST PUSH1 0x0 DUP3 PUSH1 0x1F DUP4 ADD SLT PUSH2 0x143C JUMPI PUSH2 0x143B PUSH2 0x1320 JUMP JUMPDEST JUMPDEST DUP2 CALLDATALOAD PUSH2 0x144C DUP5 DUP3 PUSH1 0x20 DUP7 ADD PUSH2 0x13E5 JUMP JUMPDEST SWAP2 POP POP SWAP3 SWAP2 POP POP JUMP JUMPDEST PUSH1 0x0 DUP1 PUSH1 0x0 PUSH1 0x60 DUP5 DUP7 SUB SLT ISZERO PUSH2 0x146E JUMPI PUSH2 0x146D PUSH2 0x10A1 JUMP JUMPDEST JUMPDEST PUSH1 0x0 PUSH2 0x147C DUP7 DUP3 DUP8 ADD PUSH2 0x112A JUMP JUMPDEST SWAP4 POP POP PUSH1 0x20 PUSH2 0x148D DUP7 DUP3 DUP8 ADD PUSH2 0x10CC JUMP JUMPDEST SWAP3 POP POP PUSH1 0x40 DUP5 ADD CALLDATALOAD PUSH8 0xFFFFFFFFFFFFFFFF DUP2 GT ISZERO PUSH2 0x14AE JUMPI PUSH2 0x14AD PUSH2 0x10A6 JUMP JUMPDEST JUMPDEST PUSH2 0x14BA DUP7 DUP3 DUP8 ADD PUSH2 0x1427 JUMP JUMPDEST SWAP2 POP POP SWAP3 POP SWAP3 POP SWAP3 JUMP JUMPDEST PUSH1 0x0 PUSH1 0x20 DUP3 DUP5 SUB SLT ISZERO PUSH2 0x14DA JUMPI PUSH2 0x14D9 PUSH2 0x10A1 JUMP JUMPDEST JUMPDEST PUSH1 0x0 PUSH2 0x14E8 DUP5 DUP3 DUP6 ADD PUSH2 0x112A JUMP JUMPDEST SWAP2 POP POP SWAP3 SWAP2 POP POP JUMP JUMPDEST PUSH1 0x0 DUP2 MLOAD SWAP1 POP SWAP2 SWAP1 POP JUMP JUMPDEST PUSH1 0x0 DUP3 DUP3 MSTORE PUSH1 0x20 DUP3 ADD SWAP1 POP SWAP3 SWAP2 POP POP JUMP JUMPDEST PUSH1 0x0 DUP2 SWAP1 POP PUSH1 0x20 DUP3 ADD SWAP1 POP SWAP2 SWAP1 POP JUMP JUMPDEST PUSH2 0x1526 DUP2 PUSH2 0x1101 JUMP JUMPDEST DUP3 MSTORE POP POP JUMP JUMPDEST PUSH1 0x0 PUSH2 0x1538 DUP4 DUP4 PUSH2 0x151D JUMP JUMPDEST PUSH1 0x20 DUP4 ADD SWAP1 POP SWAP3 SWAP2 POP POP JUMP JUMPDEST PUSH1 0x0 PUSH1 0x20 DUP3 ADD SWAP1 POP SWAP2 SWAP1 POP JUMP JUMPDEST PUSH1 0x0 PUSH2 0x155C DUP3 PUSH2 0x14F1 JUMP JUMPDEST PUSH2 0x1566 DUP2 DUP6 PUSH2 0x14FC JUMP JUMPDEST SWAP4 POP PUSH2 0x1571 DUP4 PUSH2 0x150D JUMP JUMPDEST DUP1 PUSH1 0x0 JUMPDEST DUP4 DUP2 LT ISZERO PUSH2 0x15A2 JUMPI DUP2 MLOAD PUSH2 0x1589 DUP9 DUP3 PUSH2 0x152C JUMP JUMPDEST SWAP8 POP PUSH2 0x1594 DUP4 PUSH2 0x1544 JUMP JUMPDEST SWAP3 POP POP PUSH1 0x1 DUP2 ADD SWAP1 POP PUSH2 0x1575 JUMP JUMPDEST POP DUP6 SWAP4 POP POP POP POP SWAP3 SWAP2 POP POP JUMP JUMPDEST PUSH1 0x0 PUSH1 0x20 DUP3 ADD SWAP1 POP DUP2 DUP2 SUB PUSH1 0x0 DUP4 ADD MSTORE PUSH2 0x15C9 DUP2 DUP5 PUSH2 0x1551 JUMP JUMPDEST SWAP1 POP SWAP3 SWAP2 POP POP JUMP JUMPDEST PUSH1 0x0 DUP3 DUP3 MSTORE PUSH1 0x20 DUP3 ADD SWAP1 POP SWAP3 SWAP2 POP POP JUMP JUMPDEST PUSH32 0x5472616E73616374696F6E20646F6573206E6F74206578697374000000000000 PUSH1 0x0 DUP3 ADD MSTORE POP JUMP JUMPDEST PUSH1 0x0 PUSH2 0x1618 PUSH1 0x1A DUP4 PUSH2 0x15D1 JUMP JUMPDEST SWAP2 POP PUSH2 0x1623 DUP3 PUSH2 0x15E2 JUMP JUMPDEST PUSH1 0x20 DUP3 ADD SWAP1 POP SWAP2 SWAP1 POP JUMP JUMPDEST PUSH1 0x0 PUSH1 0x20 DUP3 ADD SWAP1 POP DUP2 DUP2 SUB PUSH1 0x0 DUP4 ADD MSTORE PUSH2 0x1647 DUP2 PUSH2 0x160B JUMP JUMPDEST SWAP1 POP SWAP2 SWAP1 POP JUMP JUMPDEST PUSH32 0x4E487B7100000000000000000000000000000000000000000000000000000000 PUSH1 0x0 MSTORE PUSH1 0x22 PUSH1 0x4 MSTORE PUSH1 0x24 PUSH1 0x0 REVERT JUMPDEST PUSH1 0x0 PUSH1 0x2 DUP3 DIV SWAP1 POP PUSH1 0x1 DUP3 AND DUP1 PUSH2 0x1695 JUMPI PUSH1 0x7F DUP3 AND SWAP2 POP JUMPDEST PUSH1 0x20 DUP3 LT DUP2 SUB PUSH2 0x16A8 JUMPI PUSH2 0x16A7 PUSH2 0x164E JUMP JUMPDEST JUMPDEST POP SWAP2 SWAP1 POP JUMP JUMPDEST PUSH32 0x4E6F742061207369676E65720000000000000000000000000000000000000000 PUSH1 0x0 DUP3 ADD MSTORE POP JUMP JUMPDEST PUSH1 0x0 PUSH2 0x16E4 PUSH1 0xC DUP4 PUSH2 0x15D1 JUMP JUMPDEST SWAP2 POP PUSH2 0x16EF DUP3 PUSH2 0x16AE JUMP JUMPDEST PUSH1 0x20 DUP3 ADD SWAP1 POP SWAP2 SWAP1 POP JUMP JUMPDEST PUSH1 0x0 PUSH1 0x20 DUP3 ADD SWAP1 POP DUP2 DUP2 SUB PUSH1 0x0 DUP4 ADD MSTORE PUSH2 0x1713 DUP2 PUSH2 0x16D7 JUMP JUMPDEST SWAP1 POP SWAP2 SWAP1 POP JUMP JUMPDEST PUSH32 0x496E76616C696420746172676574206164647265737300000000000000000000 PUSH1 0x0 DUP3 ADD MSTORE POP JUMP JUMPDEST PUSH1 0x0 PUSH2 0x1750 PUSH1 0x16 DUP4 PUSH2 0x15D1 JUMP JUMPDEST SWAP2 POP PUSH2 0x175B DUP3 PUSH2 0x171A JUMP JUMPDEST PUSH1 0x20 DUP3 ADD SWAP1 POP SWAP2 SWAP1 POP JUMP JUMPDEST PUSH1 0x0 PUSH1 0x20 DUP3 ADD SWAP1 POP DUP2 DUP2 SUB PUSH1 0x0 DUP4 ADD MSTORE PUSH2 0x177F DUP2 PUSH2 0x1743 JUMP JUMPDEST SWAP1 POP SWAP2 SWAP1 POP JUMP JUMPDEST PUSH1 0x0 DUP2 SWAP1 POP DUP2 PUSH1 0x0 MSTORE PUSH1 0x20 PUSH1 0x0 KECCAK256 SWAP1 POP SWAP2 SWAP1 POP JUMP JUMPDEST PUSH1 0x0 PUSH1 0x20 PUSH1 0x1F DUP4 ADD DIV SWAP1 POP SWAP2 SWAP1 POP JUMP JUMPDEST PUSH1 0x0 DUP3 DUP3 SHL SWAP1 POP SWAP3 SWAP2 POP POP JUMP JUMPDEST PUSH1 0x0 PUSH1 0x8 DUP4 MUL PUSH2 0x17E8 PUSH32 0xFFFFFFFFFFFFFFFFFFFFFFFFFFFFFFFFFFFFFFFFFFFFFFFFFFFFFFFFFFFFFFFF DUP3 PUSH2 0x17AB JUMP JUMPDEST PUSH2 0x17F2 DUP7 DUP4 PUSH2 0x17AB JUMP JUMPDEST SWAP6 POP DUP1 NOT DUP5 AND SWAP4 POP DUP1 DUP7 AND DUP5 OR SWAP3 POP POP POP SWAP4 SWAP3 POP POP POP JUMP JUMPDEST PUSH1 0x0 DUP2 SWAP1 POP SWAP2 SWAP1 POP JUMP JUMPDEST PUSH1 0x0 PUSH2 0x182F PUSH2 0x182A PUSH2 0x1825 DUP5 PUSH2 0x10AB JUMP JUMPDEST PUSH2 0x180A JUMP JUMPDEST PUSH2 0x10AB JUMP JUMPDEST SWAP1 POP SWAP2 SWAP1 POP JUMP JUMPDEST PUSH1 0x0 DUP2 SWAP1 POP SWAP2 SWAP1 POP JUMP JUMPDEST PUSH2 0x1849 DUP4 PUSH2 0x1814 JUMP JUMPDEST PUSH2 0x185D PUSH2 0x1855 DUP3 PUSH2 0x1836 JUMP JUMPDEST DUP5 DUP5 SLOAD PUSH2 0x17B8 JUMP JUMPDEST DUP3 SSTORE POP POP POP POP JUMP JUMPDEST PUSH1 0x0 SWAP1 JUMP JUMPDEST PUSH2 0x1872 PUSH2 0x1865 JUMP JUMPDEST PUSH2 0x187D DUP2 DUP5 DUP5 PUSH2 0x1840 JUMP JUMPDEST POP POP POP JUMP JUMPDEST JUMPDEST DUP2 DUP2 LT ISZERO PUSH2 0x18A1 JUMPI PUSH2 0x1896 PUSH1 0x0 DUP3 PUSH2 0x186A JUMP JUMPDEST PUSH1 0x1 DUP2 ADD SWAP1 POP PUSH2 0x1883 JUMP JUMPDEST POP POP JUMP JUMPDEST PUSH1 0x1F DUP3 GT ISZERO PUSH2 0x18E6 JUMPI PUSH2 0x18B7 DUP2 PUSH2 0x1786 JUMP JUMPDEST PUSH2 0x18C0 DUP5 PUSH2 0x179B JUMP JUMPDEST DUP2 ADD PUSH1 0x20 DUP6 LT ISZERO PUSH2 0x18CF JUMPI DUP2 SWAP1 POP JUMPDEST PUSH2 0x18E3 PUSH2 0x18DB DUP6 PUSH2 0x179B JUMP JUMPDEST DUP4 ADD DUP3 PUSH2 0x1882 JUMP JUMPDEST POP POP JUMPDEST POP POP POP JUMP JUMPDEST PUSH1 0x0 DUP3 DUP3 SHR SWAP1 POP SWAP3 SWAP2 POP POP JUMP JUMPDEST PUSH1 0x0 PUSH2 0x1909 PUSH1 0x0 NOT DUP5 PUSH1 0x8 MUL PUSH2 0x18EB JUMP JUMPDEST NOT DUP1 DUP4 AND SWAP2 POP POP SWAP3 SWAP2 POP POP JUMP JUMPDEST PUSH1 0x0 PUSH2 0x1922 DUP4 DUP4 PUSH2 0x18F8 JUMP JUMPDEST SWAP2 POP DUP3 PUSH1 0x2 MUL DUP3 OR SWAP1 POP SWAP3 SWAP2 POP POP JUMP JUMPDEST PUSH2 0x193B DUP3 PUSH2 0x1200 JUMP JUMPDEST PUSH8 0xFFFFFFFFFFFFFFFF DUP2 GT ISZERO PUSH2 0x1954 JUMPI PUSH2 0x1953 PUSH2 0x132A JUMP JUMPDEST JUMPDEST PUSH2 0x195E DUP3 SLOAD PUSH2 0x167D JUMP JUMPDEST PUSH2 0x1969 DUP3 DUP3 DUP6 PUSH2 0x18A5 JUMP JUMPDEST PUSH1 0x0 PUSH1 0x20 SWAP1 POP PUSH1 0x1F DUP4 GT PUSH1 0x1 DUP2 EQ PUSH2 0x199C JUMPI PUSH1 0x0 DUP5 ISZERO PUSH2 0x198A JUMPI DUP3 DUP8 ADD MLOAD SWAP1 POP JUMPDEST PUSH2 0x1994 DUP6 DUP3 PUSH2 0x1916 JUMP JUMPDEST DUP7 SSTORE POP PUSH2 0x19FC JUMP JUMPDEST PUSH1 0x1F NOT DUP5 AND PUSH2 0x19AA DUP7 PUSH2 0x1786 JUMP JUMPDEST PUSH1 0x0 JUMPDEST DUP3 DUP2 LT ISZERO PUSH2 0x19D2 JUMPI DUP5 DUP10 ADD MLOAD DUP3 SSTORE PUSH1 0x1 DUP3 ADD SWAP2 POP PUSH1 0x20 DUP6 ADD SWAP5 POP PUSH1 0x20 DUP2 ADD SWAP1 POP PUSH2 0x19AD JUMP JUMPDEST DUP7 DUP4 LT ISZERO PUSH2 0x19EF JUMPI DUP5 DUP10 ADD MLOAD PUSH2 0x19EB PUSH1 0x1F DUP10 AND DUP3 PUSH2 0x18F8 JUMP JUMPDEST DUP4 SSTORE POP JUMPDEST PUSH1 0x1 PUSH1 0x2 DUP9 MUL ADD DUP9 SSTORE POP POP POP JUMPDEST POP POP POP POP POP POP JUMP JUMPDEST PUSH32 0x4E487B7100000000000000000000000000000000000000000000000000000000 PUSH1 0x0 MSTORE PUSH1 0x11 PUSH1 0x4 MSTORE PUSH1 0x24 PUSH1 0x0 REVERT JUMPDEST PUSH1 0x0 PUSH2 0x1A3E DUP3 PUSH2 0x10AB JUMP JUMPDEST SWAP2 POP PUSH32 0xFFFFFFFFFFFFFFFFFFFFFFFFFFFFFFFFFFFFFFFFFFFFFFFFFFFFFFFFFFFFFFFF DUP3 SUB PUSH2 0x1A70 JUMPI PUSH2 0x1A6F PUSH2 0x1A04 JUMP JUMPDEST JUMPDEST PUSH1 0x1 DUP3 ADD SWAP1 POP SWAP2 SWAP1 POP JUMP JUMPDEST PUSH1 0x0 PUSH1 0x40 DUP3 ADD SWAP1 POP PUSH2 0x1A90 PUSH1 0x0 DUP4 ADD DUP6 PUSH2 0x11F1 JUMP JUMPDEST DUP2 DUP2 SUB PUSH1 0x20 DUP4 ADD MSTORE PUSH2 0x1AA2 DUP2 DUP5 PUSH2 0x1257 JUMP JUMPDEST SWAP1 POP SWAP4 SWAP3 POP POP POP JUMP JUMPDEST PUSH32 0x4E487B7100000000000000000000000000000000000000000000000000000000 PUSH1 0x0 MSTORE PUSH1 0x32 PUSH1 0x4 MSTORE PUSH1 0x24 PUSH1 0x0 REVERT JUMPDEST PUSH32 0x5472616E73616374696F6E20616C726561647920657865637574656400000000 PUSH1 0x0 DUP3 ADD MSTORE POP JUMP JUMPDEST PUSH1 0x0 PUSH2 0x1B10 PUSH1 0x1C DUP4 PUSH2 0x15D1 JUMP JUMPDEST SWAP2 POP PUSH2 0x1B1B DUP3 PUSH2 0x1ADA JUMP JUMPDEST PUSH1 0x20 DUP3 ADD SWAP1 POP SWAP2 SWAP1 POP JUMP JUMPDEST PUSH1 0x0 PUSH1 0x20 DUP3 ADD SWAP1 POP DUP2 DUP2 SUB PUSH1 0x0 DUP4 ADD MSTORE PUSH2 0x1B3F DUP2 PUSH2 0x1B03 JUMP JUMPDEST SWAP1 POP SWAP2 SWAP1 POP JUMP JUMPDEST PUSH32 0x416C726561647920636F6E6669726D6564000000000000000000000000000000 PUSH1 0x0 DUP3 ADD MSTORE POP JUMP JUMPDEST PUSH1 0x0 PUSH2 0x1B7C PUSH1 0x11 DUP4 PUSH2 0x15D1 JUMP JUMPDEST SWAP2 POP PUSH2 0x1B87 DUP3 PUSH2 0x1B46 JUMP JUMPDEST PUSH1 0x20 DUP3 ADD SWAP1 POP SWAP2 SWAP1 POP JUMP JUMPDEST PUSH1 0x0 PUSH1 0x20 DUP3 ADD SWAP1 POP DUP2 DUP2 SUB PUSH1 0x0 DUP4 ADD MSTORE PUSH2 0x1BAB DUP2 PUSH2 0x1B6F JUMP JUMPDEST SWAP1 POP SWAP2 SWAP1 POP JUMP JUMPDEST PUSH32 0x496E76616C6964207468726573686F6C64000000000000000000000000000000 PUSH1 0x0 DUP3 ADD MSTORE POP JUMP JUMPDEST PUSH1 0x0 PUSH2 0x1BE8 PUSH1 0x11 DUP4 PUSH2 0x15D1 JUMP JUMPDEST SWAP2 POP PUSH2 0x1BF3 DUP3 PUSH2 0x1BB2 JUMP JUMPDEST PUSH1 0x20 DUP3 ADD SWAP1 POP SWAP2 SWAP1 POP JUMP JUMPDEST PUSH1 0x0 PUSH1 0x20 DUP3 ADD SWAP1 POP DUP2 DUP2 SUB PUSH1 0x0 DUP4 ADD MSTORE PUSH2 0x1C17 DUP2 PUSH2 0x1BDB JUMP JUMPDEST SWAP1 POP SWAP2 SWAP1 POP JUMP JUMPDEST PUSH32 0x496E76616C6964207369676E6572206164647265737300000000000000000000 PUSH1 0x0 DUP3 ADD MSTORE POP JUMP JUMPDEST PUSH1 0x0 PUSH2 0x1C54 PUSH1 0x16 DUP4 PUSH2 0x15D1 JUMP JUMPDEST SWAP2 POP PUSH2 0x1C5F DUP3 PUSH2 0x1C1E JUMP JUMPDEST PUSH1 0x20 DUP3 ADD SWAP1 POP SWAP2 SWAP1 POP JUMP JUMPDEST PUSH1 0x0 PUSH1 0x20 DUP3 ADD SWAP1 POP DUP2 DUP2 SUB PUSH1 0x0 DUP4 ADD MSTORE PUSH2 0x1C83 DUP2 PUSH2 0x1C47 JUMP JUMPDEST SWAP1 POP SWAP2 SWAP1 POP JUMP JUMPDEST PUSH32 0x416C72656164792061207369676E657200000000000000000000000000000000 PUSH1 0x0 DUP3 ADD MSTORE POP JUMP JUMPDEST PUSH1 0x0 PUSH2 0x1CC0 PUSH1 0x10 DUP4 PUSH2 0x15D1 JUMP JUMPDEST SWAP2 POP PUSH2 0x1CCB DUP3 PUSH2 0x1C8A JUMP JUMPDEST PUSH1 0x20 DUP3 ADD SWAP1 POP SWAP2 SWAP1 POP JUMP JUMPDEST PUSH1 0x0 PUSH1 0x20 DUP3 ADD SWAP1 POP DUP2 DUP2 SUB PUSH1 0x0 DUP4 ADD MSTORE PUSH2 0x1CEF DUP2 PUSH2 0x1CB3 JUMP JUMPDEST SWAP1 POP SWAP2 SWAP1 POP JUMP JUMPDEST PUSH32 0x496E73756666696369656E7420636F6E6669726D6174696F6E73000000000000 PUSH1 0x0 DUP3 ADD MSTORE POP JUMP JUMPDEST PUSH1 0x0 PUSH2 0x1D2C PUSH1 0x1A DUP4 PUSH2 0x15D1 JUMP JUMPDEST SWAP2 POP PUSH2 0x1D37 DUP3 PUSH2 0x1CF6 JUMP JUMPDEST PUSH1 0x20 DUP3 ADD SWAP1 POP SWAP2 SWAP1 POP JUMP JUMPDEST PUSH1 0x0 PUSH1 0x20 DUP3 ADD SWAP1 POP DUP2 DUP2 SUB PUSH1 0x0 DUP4 ADD MSTORE PUSH2 0x1D5B DUP2 PUSH2 0x1D1F JUMP JUMPDEST SWAP1 POP SWAP2 SWAP1 POP JUMP JUMPDEST PUSH1 0x0 DUP2 SWAP1 POP SWAP3 SWAP2 POP POP JUMP JUMPDEST PUSH1 0x0 DUP2 SLOAD PUSH2 0x1D7A DUP2 PUSH2 0x167D JUMP JUMPDEST PUSH2 0x1D84 DUP2 DUP7 PUSH2 0x1D62 JUMP JUMPDEST SWAP5 POP PUSH1 0x1 DUP3 AND PUSH1 0x0 DUP2 EQ PUSH2 0x1D9F JUMPI PUSH1 0x1 DUP2 EQ PUSH2 0x1DB4 JUMPI PUSH2 0x1DE7 JUMP JUMPDEST PUSH1 0xFF NOT DUP4 AND DUP7 MSTORE DUP2 ISZERO ISZERO DUP3 MUL DUP7 ADD SWAP4 POP PUSH2 0x1DE7 JUMP JUMPDEST PUSH2 0x1DBD DUP6 PUSH2 0x1786 JUMP JUMPDEST PUSH1 0x0 JUMPDEST DUP4 DUP2 LT ISZERO PUSH2 0x1DDF JUMPI DUP2 SLOAD DUP2 DUP10 ADD MSTORE PUSH1 0x1 DUP3 ADD SWAP2 POP PUSH1 0x20 DUP2 ADD SWAP1 POP PUSH2 0x1DC0 JUMP JUMPDEST DUP4 DUP9 ADD SWAP6 POP POP POP JUMPDEST POP POP POP SWAP3 SWAP2 POP POP JUMP JUMPDEST PUSH1 0x0 PUSH2 0x1DFC DUP3 DUP5 PUSH2 0x1D6D JUMP JUMPDEST SWAP2 POP DUP2 SWAP1 POP SWAP3 SWAP2 POP POP JUMP JUMPDEST PUSH32 0x5472616E73616374696F6E20657865637574696F6E206661696C656400000000 PUSH1 0x0 DUP3 ADD MSTORE POP JUMP JUMPDEST PUSH1 0x0 PUSH2 0x1E3D PUSH1 0x1C DUP4 PUSH2 0x15D1 JUMP JUMPDEST SWAP2 POP PUSH2 0x1E48 DUP3 PUSH2 0x1E07 JUMP JUMPDEST PUSH1 0x20 DUP3 ADD SWAP1 POP SWAP2 SWAP1 POP JUMP JUMPDEST PUSH1 0x0 PUSH1 0x20 DUP3 ADD SWAP1 POP DUP2 DUP2 SUB PUSH1 0x0 DUP4 ADD MSTORE PUSH2 0x1E6C DUP2 PUSH2 0x1E30 JUMP JUMPDEST SWAP1 POP SWAP2 SWAP1 POP JUMP INVALID LOG2 PUSH5 0x6970667358 0x22 SLT KECCAK256 SWAP13 SWAP14 0xB4 PUSH19 0x497086FD520FA0355C4AA55802FC60B08829AF DUP6 0x4E PUSH2 0x37DA 0xC SWAP13 0xD2 SELFDESTRUCT PUSH5 0x736F6C6343 STOP ADDMOD EQ STOP CALLER "
				},
				"gasEstimates": {
					"creation": {
						"codeDepositCost": "1569800",
						"executionCost": "infinite",
						"totalCost": "infinite"
					},
					"external": {
						"addSigner(address)": "infinite",
						"confirmTransaction(uint256)": "infinite",
						"getSigners()": "infinite",
						"getTransactionDetails(uint256)": "infinite",
						"hasConfirmed(uint256,address)": "5264",
						"isSigner(address)": "infinite",
						"proposeTransaction(address,uint256,bytes)": "infinite",
						"signers(uint256)": "5001",
						"threshold()": "2496",
						"transactionCount()": "2473",
						"transactions(uint256)": "infinite",
						"updateThreshold(uint256)": "infinite"
					},
					"internal": {
						"executeTransaction(uint256)": "infinite"
					}
				},
				"methodIdentifiers": {
					"addSigner(address)": "eb12d61e",
					"confirmTransaction(uint256)": "c01a8c84",
					"getSigners()": "94cf795e",
					"getTransactionDetails(uint256)": "0fa683d3",
					"hasConfirmed(uint256,address)": "08aff933",
					"isSigner(address)": "7df73e27",
					"proposeTransaction(address,uint256,bytes)": "5e90852d",
					"signers(uint256)": "2079fb9a",
					"threshold()": "42cde4e8",
					"transactionCount()": "b77bf600",
					"transactions(uint256)": "9ace38c2",
					"updateThreshold(uint256)": "d7d7442f"
				}
			},
			"storageLayout": {
				"storage": [
					{
						"astId": 4,
						"contract": "practise3.3/MultiSignatureWallet.sol:MultiSigWallet",
						"label": "signers",
						"offset": 0,
						"slot": "0",
						"type": "t_array(t_address)dyn_storage"
					},
					{
						"astId": 6,
						"contract": "practise3.3/MultiSignatureWallet.sol:MultiSigWallet",
						"label": "threshold",
						"offset": 0,
						"slot": "1",
						"type": "t_uint256"
					},
					{
						"astId": 8,
						"contract": "practise3.3/MultiSignatureWallet.sol:MultiSigWallet",
						"label": "transactionCount",
						"offset": 0,
						"slot": "2",
						"type": "t_uint256"
					},
					{
						"astId": 28,
						"contract": "practise3.3/MultiSignatureWallet.sol:MultiSigWallet",
						"label": "transactions",
						"offset": 0,
						"slot": "3",
						"type": "t_mapping(t_uint256,t_struct(Transaction)23_storage)"
					}
				],
				"types": {
					"t_address": {
						"encoding": "inplace",
						"label": "address",
						"numberOfBytes": "20"
					},
					"t_array(t_address)dyn_storage": {
						"base": "t_address",
						"encoding": "dynamic_array",
						"label": "address[]",
						"numberOfBytes": "32"
					},
					"t_bool": {
						"encoding": "inplace",
						"label": "bool",
						"numberOfBytes": "1"
					},
					"t_bytes_storage": {
						"encoding": "bytes",
						"label": "bytes",
						"numberOfBytes": "32"
					},
					"t_mapping(t_address,t_bool)": {
						"encoding": "mapping",
						"key": "t_address",
						"label": "mapping(address => bool)",
						"numberOfBytes": "32",
						"value": "t_bool"
					},
					"t_mapping(t_uint256,t_struct(Transaction)23_storage)": {
						"encoding": "mapping",
						"key": "t_uint256",
						"label": "mapping(uint256 => struct MultiSigWallet.Transaction)",
						"numberOfBytes": "32",
						"value": "t_struct(Transaction)23_storage"
					},
					"t_struct(Transaction)23_storage": {
						"encoding": "inplace",
						"label": "struct MultiSigWallet.Transaction",
						"members": [
							{
								"astId": 10,
								"contract": "practise3.3/MultiSignatureWallet.sol:MultiSigWallet",
								"label": "to",
								"offset": 0,
								"slot": "0",
								"type": "t_address"
							},
							{
								"astId": 12,
								"contract": "practise3.3/MultiSignatureWallet.sol:MultiSigWallet",
								"label": "value",
								"offset": 0,
								"slot": "1",
								"type": "t_uint256"
							},
							{
								"astId": 14,
								"contract": "practise3.3/MultiSignatureWallet.sol:MultiSigWallet",
								"label": "data",
								"offset": 0,
								"slot": "2",
								"type": "t_bytes_storage"
							},
							{
								"astId": 16,
								"contract": "practise3.3/MultiSignatureWallet.sol:MultiSigWallet",
								"label": "executed",
								"offset": 0,
								"slot": "3",
								"type": "t_bool"
							},
							{
								"astId": 18,
								"contract": "practise3.3/MultiSignatureWallet.sol:MultiSigWallet",
								"label": "confirmations",
								"offset": 0,
								"slot": "4",
								"type": "t_uint256"
							},
							{
								"astId": 22,
								"contract": "practise3.3/MultiSignatureWallet.sol:MultiSigWallet",
								"label": "isConfirmed",
								"offset": 0,
								"slot": "5",
								"type": "t_mapping(t_address,t_bool)"
							}
						],
						"numberOfBytes": "192"
					},
					"t_uint256": {
						"encoding": "inplace",
						"label": "uint256",
						"numberOfBytes": "32"
					}
				}
			},
			"userdoc": {
				"kind": "user",
				"methods": {},
				"version": 1
			}
		}
	}
}