{
	"practises/UnoptimizedCode.sol": {
		"UnoptimizedCode": {
			"abi": [
				{
					"inputs": [
						{
							"internalType": "uint256",
							"name": "",
							"type": "uint256"
						}
					],
					"name": "data",
					"outputs": [
						{
							"internalType": "uint256",
							"name": "",
							"type": "uint256"
						}
					],
					"stateMutability": "view",
					"type": "function"
				},
				{
					"inputs": [
						{
							"internalType": "uint256",
							"name": "",
							"type": "uint256"
						}
					],
					"name": "data1",
					"outputs": [
						{
							"internalType": "uint256",
							"name": "",
							"type": "uint256"
						}
					],
					"stateMutability": "view",
					"type": "function"
				},
				{
					"inputs": [
						{
							"internalType": "uint256",
							"name": "",
							"type": "uint256"
						}
					],
					"name": "data2",
					"outputs": [
						{
							"internalType": "uint256",
							"name": "",
							"type": "uint256"
						}
					],
					"stateMutability": "view",
					"type": "function"
				},
				{
					"inputs": [
						{
							"internalType": "uint256[]",
							"name": "values",
							"type": "uint256[]"
						}
					],
					"name": "process",
					"outputs": [],
					"stateMutability": "nonpayable",
					"type": "function"
				},
				{
					"inputs": [
						{
							"internalType": "uint256[]",
							"name": "values",
							"type": "uint256[]"
						}
					],
					"name": "process1",
					"outputs": [],
					"stateMutability": "nonpayable",
					"type": "function"
				},
				{
					"inputs": [
						{
							"internalType": "uint256[]",
							"name": "values",
							"type": "uint256[]"
						}
					],
					"name": "process2",
					"outputs": [],
					"stateMutability": "nonpayable",
					"type": "function"
				},
				{
					"inputs": [],
					"name": "reset",
					"outputs": [],
					"stateMutability": "nonpayable",
					"type": "function"
				},
				{
					"inputs": [],
					"name": "testLargeArray",
					"outputs": [
						{
							"internalType": "uint256[]",
							"name": "",
							"type": "uint256[]"
						}
					],
					"stateMutability": "pure",
					"type": "function"
				}
			],
			"devdoc": {
				"kind": "dev",
				"methods": {},
				"version": 1
			},
			"evm": {
				"assembly": "    /* \"practises/UnoptimizedCode.sol\":56:1750  contract UnoptimizedCode {... */\n  mstore(0x40, 0x80)\n  callvalue\n  dup1\n  iszero\n  tag_1\n  jumpi\n  0x00\n  dup1\n  revert\ntag_1:\n  pop\n  dataSize(sub_0)\n  dup1\n  dataOffset(sub_0)\n  0x00\n  codecopy\n  0x00\n  return\nstop\n\nsub_0: assembly {\n        /* \"practises/UnoptimizedCode.sol\":56:1750  contract UnoptimizedCode {... */\n      mstore(0x40, 0x80)\n      callvalue\n      dup1\n      iszero\n      tag_1\n      jumpi\n      0x00\n      dup1\n      revert\n    tag_1:\n      pop\n      jumpi(tag_2, lt(calldatasize, 0x04))\n      shr(0xe0, calldataload(0x00))\n      dup1\n      0xc8f43d16\n      gt\n      tag_11\n      jumpi\n      dup1\n      0xc8f43d16\n      eq\n      tag_7\n      jumpi\n      dup1\n      0xd826f88f\n      eq\n      tag_8\n      jumpi\n      dup1\n      0xe2744a81\n      eq\n      tag_9\n      jumpi\n      dup1\n      0xf0ba8440\n      eq\n      tag_10\n      jumpi\n      jump(tag_2)\n    tag_11:\n      dup1\n      0x33034c2c\n      eq\n      tag_3\n      jumpi\n      dup1\n      0x442dc193\n      eq\n      tag_4\n      jumpi\n      dup1\n      0x736d159d\n      eq\n      tag_5\n      jumpi\n      dup1\n      0x85ad8a8d\n      eq\n      tag_6\n      jumpi\n    tag_2:\n      0x00\n      dup1\n      revert\n        /* \"practises/UnoptimizedCode.sol\":1197:1607  function testLargeArray() public pure  returns (uint[] memory) {... */\n    tag_3:\n      tag_12\n      tag_13\n      jump\t// in\n    tag_12:\n      mload(0x40)\n      tag_14\n      swap2\n      swap1\n      tag_15\n      jump\t// in\n    tag_14:\n      mload(0x40)\n      dup1\n      swap2\n      sub\n      swap1\n      return\n        /* \"practises/UnoptimizedCode.sol\":950:1153  function process2(uint[] memory values) public {... */\n    tag_4:\n      tag_16\n      0x04\n      dup1\n      calldatasize\n      sub\n      dup2\n      add\n      swap1\n      tag_17\n      swap2\n      swap1\n      tag_18\n      jump\t// in\n    tag_17:\n      tag_19\n      jump\t// in\n    tag_16:\n      stop\n        /* \"practises/UnoptimizedCode.sol\":115:134  uint[] public data1 */\n    tag_5:\n      tag_20\n      0x04\n      dup1\n      calldatasize\n      sub\n      dup2\n      add\n      swap1\n      tag_21\n      swap2\n      swap1\n      tag_22\n      jump\t// in\n    tag_21:\n      tag_23\n      jump\t// in\n    tag_20:\n      mload(0x40)\n      tag_24\n      swap2\n      swap1\n      tag_25\n      jump\t// in\n    tag_24:\n      mload(0x40)\n      dup1\n      swap2\n      sub\n      swap1\n      return\n        /* \"practises/UnoptimizedCode.sol\":668:942  function process1(uint[] calldata values) public   {... */\n    tag_6:\n      tag_26\n      0x04\n      dup1\n      calldatasize\n      sub\n      dup2\n      add\n      swap1\n      tag_27\n      swap2\n      swap1\n      tag_28\n      jump\t// in\n    tag_27:\n      tag_29\n      jump\t// in\n    tag_26:\n      stop\n        /* \"practises/UnoptimizedCode.sol\":140:159  uint[] public data2 */\n    tag_7:\n      tag_30\n      0x04\n      dup1\n      calldatasize\n      sub\n      dup2\n      add\n      swap1\n      tag_31\n      swap2\n      swap1\n      tag_22\n      jump\t// in\n    tag_31:\n      tag_32\n      jump\t// in\n    tag_30:\n      mload(0x40)\n      tag_33\n      swap2\n      swap1\n      tag_25\n      jump\t// in\n    tag_33:\n      mload(0x40)\n      dup1\n      swap2\n      sub\n      swap1\n      return\n        /* \"practises/UnoptimizedCode.sol\":1647:1743  function reset() public {... */\n    tag_8:\n      tag_34\n      tag_35\n      jump\t// in\n    tag_34:\n      stop\n        /* \"practises/UnoptimizedCode.sol\":172:661  function process(uint[] calldata values) external {... */\n    tag_9:\n      tag_36\n      0x04\n      dup1\n      calldatasize\n      sub\n      dup2\n      add\n      swap1\n      tag_37\n      swap2\n      swap1\n      tag_28\n      jump\t// in\n    tag_37:\n      tag_38\n      jump\t// in\n    tag_36:\n      stop\n        /* \"practises/UnoptimizedCode.sol\":87:105  uint[] public data */\n    tag_10:\n      tag_39\n      0x04\n      dup1\n      calldatasize\n      sub\n      dup2\n      add\n      swap1\n      tag_40\n      swap2\n      swap1\n      tag_22\n      jump\t// in\n    tag_40:\n      tag_41\n      jump\t// in\n    tag_39:\n      mload(0x40)\n      tag_42\n      swap2\n      swap1\n      tag_25\n      jump\t// in\n    tag_42:\n      mload(0x40)\n      dup1\n      swap2\n      sub\n      swap1\n      return\n        /* \"practises/UnoptimizedCode.sol\":1197:1607  function testLargeArray() public pure  returns (uint[] memory) {... */\n    tag_13:\n        /* \"practises/UnoptimizedCode.sol\":1245:1258  uint[] memory */\n      0x60\n        /* \"practises/UnoptimizedCode.sol\":1311:1335  uint[] memory largeArray */\n      0x00\n        /* \"practises/UnoptimizedCode.sol\":1349:1352  500 */\n      0x01f4\n        /* \"practises/UnoptimizedCode.sol\":1338:1353  new uint[](500) */\n      0xffffffffffffffff\n      dup2\n      gt\n      iszero\n      tag_44\n      jumpi\n      tag_45\n      tag_46\n      jump\t// in\n    tag_45:\n    tag_44:\n      mload(0x40)\n      swap1\n      dup1\n      dup3\n      mstore\n      dup1\n      0x20\n      mul\n      0x20\n      add\n      dup3\n      add\n      0x40\n      mstore\n      dup1\n      iszero\n      tag_47\n      jumpi\n      dup2\n      0x20\n      add\n      0x20\n      dup3\n      mul\n      dup1\n      calldatasize\n      dup4\n      calldatacopy\n      dup1\n      dup3\n      add\n      swap2\n      pop\n      pop\n      swap1\n      pop\n    tag_47:\n      pop\n        /* \"practises/UnoptimizedCode.sol\":1311:1353  uint[] memory largeArray = new uint[](500) */\n      swap1\n      pop\n        /* \"practises/UnoptimizedCode.sol\":1364:1370  uint i */\n      0x00\n        /* \"practises/UnoptimizedCode.sol\":1359:1464  for (uint i = 0; i < 500; i++) {... */\n    tag_48:\n        /* \"practises/UnoptimizedCode.sol\":1380:1383  500 */\n      0x01f4\n        /* \"practises/UnoptimizedCode.sol\":1376:1377  i */\n      dup2\n        /* \"practises/UnoptimizedCode.sol\":1376:1383  i < 500 */\n      lt\n        /* \"practises/UnoptimizedCode.sol\":1359:1464  for (uint i = 0; i < 500; i++) {... */\n      iszero\n      tag_49\n      jumpi\n        /* \"practises/UnoptimizedCode.sol\":1420:1422  20 */\n      0x14\n        /* \"practises/UnoptimizedCode.sol\":1416:1417  i */\n      dup2\n        /* \"practises/UnoptimizedCode.sol\":1416:1422  i % 20 */\n      tag_51\n      swap2\n      swap1\n      tag_52\n      jump\t// in\n    tag_51:\n        /* \"practises/UnoptimizedCode.sol\":1400:1410  largeArray */\n      dup3\n        /* \"practises/UnoptimizedCode.sol\":1411:1412  i */\n      dup3\n        /* \"practises/UnoptimizedCode.sol\":1400:1413  largeArray[i] */\n      dup2\n      mload\n      dup2\n      lt\n      tag_53\n      jumpi\n      tag_54\n      tag_55\n      jump\t// in\n    tag_54:\n    tag_53:\n      0x20\n      mul\n      0x20\n      add\n      add\n        /* \"practises/UnoptimizedCode.sol\":1400:1422  largeArray[i] = i % 20 */\n      dup2\n      dup2\n      mstore\n      pop\n      pop\n        /* \"practises/UnoptimizedCode.sol\":1385:1388  i++ */\n      dup1\n      dup1\n      0x01\n      add\n      swap2\n      pop\n      pop\n        /* \"practises/UnoptimizedCode.sol\":1359:1464  for (uint i = 0; i < 500; i++) {... */\n      jump(tag_48)\n    tag_49:\n      pop\n        /* \"practises/UnoptimizedCode.sol\":1594:1604  largeArray */\n      dup1\n        /* \"practises/UnoptimizedCode.sol\":1586:1604  return  largeArray */\n      swap2\n      pop\n      pop\n        /* \"practises/UnoptimizedCode.sol\":1197:1607  function testLargeArray() public pure  returns (uint[] memory) {... */\n      swap1\n      jump\t// out\n        /* \"practises/UnoptimizedCode.sol\":950:1153  function process2(uint[] memory values) public {... */\n    tag_19:\n        /* \"practises/UnoptimizedCode.sol\":1011:1017  uint i */\n      0x00\n        /* \"practises/UnoptimizedCode.sol\":1007:1147  for(uint i = 0; i < values.length; i++) {... */\n    tag_57:\n        /* \"practises/UnoptimizedCode.sol\":1027:1033  values */\n      dup2\n        /* \"practises/UnoptimizedCode.sol\":1027:1040  values.length */\n      mload\n        /* \"practises/UnoptimizedCode.sol\":1023:1024  i */\n      dup2\n        /* \"practises/UnoptimizedCode.sol\":1023:1040  i < values.length */\n      lt\n        /* \"practises/UnoptimizedCode.sol\":1007:1147  for(uint i = 0; i < values.length; i++) {... */\n      iszero\n      tag_58\n      jumpi\n        /* \"practises/UnoptimizedCode.sol\":1076:1078  10 */\n      0x0a\n        /* \"practises/UnoptimizedCode.sol\":1064:1070  values */\n      dup3\n        /* \"practises/UnoptimizedCode.sol\":1071:1072  i */\n      dup3\n        /* \"practises/UnoptimizedCode.sol\":1064:1073  values[i] */\n      dup2\n      mload\n      dup2\n      lt\n      tag_60\n      jumpi\n      tag_61\n      tag_55\n      jump\t// in\n    tag_61:\n    tag_60:\n      0x20\n      mul\n      0x20\n      add\n      add\n      mload\n        /* \"practises/UnoptimizedCode.sol\":1064:1078  values[i] > 10 */\n      pop\n      pop\n        /* \"practises/UnoptimizedCode.sol\":1042:1045  i++ */\n      dup1\n      dup1\n      0x01\n      add\n      swap2\n      pop\n      pop\n        /* \"practises/UnoptimizedCode.sol\":1007:1147  for(uint i = 0; i < values.length; i++) {... */\n      jump(tag_57)\n    tag_58:\n      pop\n        /* \"practises/UnoptimizedCode.sol\":950:1153  function process2(uint[] memory values) public {... */\n      pop\n      jump\t// out\n        /* \"practises/UnoptimizedCode.sol\":115:134  uint[] public data1 */\n    tag_23:\n      0x01\n      dup2\n      dup2\n      sload\n      dup2\n      lt\n      tag_63\n      jumpi\n      0x00\n      dup1\n      revert\n    tag_63:\n      swap1\n      0x00\n      mstore\n      keccak256(0x00, 0x20)\n      add\n      0x00\n      swap2\n      pop\n      swap1\n      pop\n      sload\n      dup2\n      jump\t// out\n        /* \"practises/UnoptimizedCode.sol\":668:942  function process1(uint[] calldata values) public   {... */\n    tag_29:\n        /* \"practises/UnoptimizedCode.sol\":729:738  uint  len */\n      0x00\n        /* \"practises/UnoptimizedCode.sol\":741:747  values */\n      dup3\n      dup3\n        /* \"practises/UnoptimizedCode.sol\":741:754  values.length */\n      swap1\n      pop\n        /* \"practises/UnoptimizedCode.sol\":729:754  uint  len = values.length */\n      swap1\n      pop\n        /* \"practises/UnoptimizedCode.sol\":768:774  uint i */\n      0x00\n        /* \"practises/UnoptimizedCode.sol\":764:920  for(uint i = 0; i < len; i++) {... */\n    tag_66:\n        /* \"practises/UnoptimizedCode.sol\":784:787  len */\n      dup2\n        /* \"practises/UnoptimizedCode.sol\":780:781  i */\n      dup2\n        /* \"practises/UnoptimizedCode.sol\":780:787  i < len */\n      lt\n        /* \"practises/UnoptimizedCode.sol\":764:920  for(uint i = 0; i < len; i++) {... */\n      iszero\n      tag_67\n      jumpi\n        /* \"practises/UnoptimizedCode.sol\":808:818  uint value */\n      0x00\n        /* \"practises/UnoptimizedCode.sol\":819:825  values */\n      dup5\n      dup5\n        /* \"practises/UnoptimizedCode.sol\":826:827  i */\n      dup4\n        /* \"practises/UnoptimizedCode.sol\":819:828  values[i] */\n      dup2\n      dup2\n      lt\n      tag_69\n      jumpi\n      tag_70\n      tag_55\n      jump\t// in\n    tag_70:\n    tag_69:\n      swap1\n      pop\n      0x20\n      mul\n      add\n      calldataload\n        /* \"practises/UnoptimizedCode.sol\":808:828  uint value=values[i] */\n      swap1\n      pop\n        /* \"practises/UnoptimizedCode.sol\":794:920  {... */\n      pop\n        /* \"practises/UnoptimizedCode.sol\":789:792  i++ */\n      dup1\n      dup1\n      0x01\n      add\n      swap2\n      pop\n      pop\n        /* \"practises/UnoptimizedCode.sol\":764:920  for(uint i = 0; i < len; i++) {... */\n      jump(tag_66)\n    tag_67:\n      pop\n        /* \"practises/UnoptimizedCode.sol\":719:942  {... */\n      pop\n        /* \"practises/UnoptimizedCode.sol\":668:942  function process1(uint[] calldata values) public   {... */\n      pop\n      pop\n      jump\t// out\n        /* \"practises/UnoptimizedCode.sol\":140:159  uint[] public data2 */\n    tag_32:\n      0x02\n      dup2\n      dup2\n      sload\n      dup2\n      lt\n      tag_72\n      jumpi\n      0x00\n      dup1\n      revert\n    tag_72:\n      swap1\n      0x00\n      mstore\n      keccak256(0x00, 0x20)\n      add\n      0x00\n      swap2\n      pop\n      swap1\n      pop\n      sload\n      dup2\n      jump\t// out\n        /* \"practises/UnoptimizedCode.sol\":1647:1743  function reset() public {... */\n    tag_35:\n        /* \"practises/UnoptimizedCode.sol\":1688:1692  data */\n      0x00\n      dup1\n        /* \"practises/UnoptimizedCode.sol\":1681:1692  delete data */\n      tag_75\n      swap2\n      swap1\n      tag_76\n      jump\t// in\n    tag_75:\n        /* \"practises/UnoptimizedCode.sol\":1709:1714  data1 */\n      0x01\n      0x00\n        /* \"practises/UnoptimizedCode.sol\":1702:1714  delete data1 */\n      tag_77\n      swap2\n      swap1\n      tag_76\n      jump\t// in\n    tag_77:\n        /* \"practises/UnoptimizedCode.sol\":1731:1736  data2 */\n      0x02\n      0x00\n        /* \"practises/UnoptimizedCode.sol\":1724:1736  delete data2 */\n      tag_78\n      swap2\n      swap1\n      tag_76\n      jump\t// in\n    tag_78:\n        /* \"practises/UnoptimizedCode.sol\":1647:1743  function reset() public {... */\n      jump\t// out\n        /* \"practises/UnoptimizedCode.sol\":172:661  function process(uint[] calldata values) external {... */\n    tag_38:\n        /* \"practises/UnoptimizedCode.sol\":232:240  uint len */\n      0x00\n        /* \"practises/UnoptimizedCode.sol\":243:249  values */\n      dup3\n      dup3\n        /* \"practises/UnoptimizedCode.sol\":243:256  values.length */\n      swap1\n      pop\n        /* \"practises/UnoptimizedCode.sol\":232:256  uint len = values.length */\n      swap1\n      pop\n        /* \"practises/UnoptimizedCode.sol\":332:342  uint count */\n      0x00\n        /* \"practises/UnoptimizedCode.sol\":360:366  uint i */\n      dup1\n        /* \"practises/UnoptimizedCode.sol\":356:469  for(uint i = 0; i < len; i++) {... */\n    tag_80:\n        /* \"practises/UnoptimizedCode.sol\":376:379  len */\n      dup3\n        /* \"practises/UnoptimizedCode.sol\":372:373  i */\n      dup2\n        /* \"practises/UnoptimizedCode.sol\":372:379  i < len */\n      lt\n        /* \"practises/UnoptimizedCode.sol\":356:469  for(uint i = 0; i < len; i++) {... */\n      iszero\n      tag_81\n      jumpi\n        /* \"practises/UnoptimizedCode.sol\":415:417  10 */\n      0x0a\n        /* \"practises/UnoptimizedCode.sol\":403:409  values */\n      dup6\n      dup6\n        /* \"practises/UnoptimizedCode.sol\":410:411  i */\n      dup4\n        /* \"practises/UnoptimizedCode.sol\":403:412  values[i] */\n      dup2\n      dup2\n      lt\n      tag_83\n      jumpi\n      tag_84\n      tag_55\n      jump\t// in\n    tag_84:\n    tag_83:\n      swap1\n      pop\n      0x20\n      mul\n      add\n      calldataload\n        /* \"practises/UnoptimizedCode.sol\":403:417  values[i] > 10 */\n      gt\n        /* \"practises/UnoptimizedCode.sol\":400:459  if(values[i] > 10) {... */\n      iszero\n      tag_85\n      jumpi\n        /* \"practises/UnoptimizedCode.sol\":437:444  count++ */\n      dup2\n      dup1\n      tag_86\n      swap1\n      tag_87\n      jump\t// in\n    tag_86:\n      swap3\n      pop\n      pop\n        /* \"practises/UnoptimizedCode.sol\":400:459  if(values[i] > 10) {... */\n    tag_85:\n        /* \"practises/UnoptimizedCode.sol\":381:384  i++ */\n      dup1\n      dup1\n      0x01\n      add\n      swap2\n      pop\n      pop\n        /* \"practises/UnoptimizedCode.sol\":356:469  for(uint i = 0; i < len; i++) {... */\n      jump(tag_80)\n    tag_81:\n      pop\n        /* \"practises/UnoptimizedCode.sol\":533:539  uint i */\n      0x00\n        /* \"practises/UnoptimizedCode.sol\":529:655  for(uint i = 0; i < len; i++) {... */\n    tag_88:\n        /* \"practises/UnoptimizedCode.sol\":549:552  len */\n      dup3\n        /* \"practises/UnoptimizedCode.sol\":545:546  i */\n      dup2\n        /* \"practises/UnoptimizedCode.sol\":545:552  i < len */\n      lt\n        /* \"practises/UnoptimizedCode.sol\":529:655  for(uint i = 0; i < len; i++) {... */\n      iszero\n      tag_89\n      jumpi\n        /* \"practises/UnoptimizedCode.sol\":588:590  10 */\n      0x0a\n        /* \"practises/UnoptimizedCode.sol\":576:582  values */\n      dup6\n      dup6\n        /* \"practises/UnoptimizedCode.sol\":583:584  i */\n      dup4\n        /* \"practises/UnoptimizedCode.sol\":576:585  values[i] */\n      dup2\n      dup2\n      lt\n      tag_91\n      jumpi\n      tag_92\n      tag_55\n      jump\t// in\n    tag_92:\n    tag_91:\n      swap1\n      pop\n      0x20\n      mul\n      add\n      calldataload\n        /* \"practises/UnoptimizedCode.sol\":576:590  values[i] > 10 */\n      gt\n        /* \"practises/UnoptimizedCode.sol\":573:645  if(values[i] > 10) {... */\n      iszero\n      tag_93\n      jumpi\n        /* \"practises/UnoptimizedCode.sol\":610:614  data */\n      0x00\n        /* \"practises/UnoptimizedCode.sol\":620:626  values */\n      dup6\n      dup6\n        /* \"practises/UnoptimizedCode.sol\":627:628  i */\n      dup4\n        /* \"practises/UnoptimizedCode.sol\":620:629  values[i] */\n      dup2\n      dup2\n      lt\n      tag_94\n      jumpi\n      tag_95\n      tag_55\n      jump\t// in\n    tag_95:\n    tag_94:\n      swap1\n      pop\n      0x20\n      mul\n      add\n      calldataload\n        /* \"practises/UnoptimizedCode.sol\":610:630  data.push(values[i]) */\n      swap1\n      dup1\n      0x01\n      dup2\n      sload\n      add\n      dup1\n      dup3\n      sstore\n      dup1\n      swap2\n      pop\n      pop\n      0x01\n      swap1\n      sub\n      swap1\n      0x00\n      mstore\n      keccak256(0x00, 0x20)\n      add\n      0x00\n      swap1\n      swap2\n      swap1\n      swap2\n      swap1\n      swap2\n      pop\n      sstore\n        /* \"practises/UnoptimizedCode.sol\":573:645  if(values[i] > 10) {... */\n    tag_93:\n        /* \"practises/UnoptimizedCode.sol\":554:557  i++ */\n      dup1\n      dup1\n      0x01\n      add\n      swap2\n      pop\n      pop\n        /* \"practises/UnoptimizedCode.sol\":529:655  for(uint i = 0; i < len; i++) {... */\n      jump(tag_88)\n    tag_89:\n      pop\n        /* \"practises/UnoptimizedCode.sol\":222:661  {... */\n      pop\n      pop\n        /* \"practises/UnoptimizedCode.sol\":172:661  function process(uint[] calldata values) external {... */\n      pop\n      pop\n      jump\t// out\n        /* \"practises/UnoptimizedCode.sol\":87:105  uint[] public data */\n    tag_41:\n      0x00\n      dup2\n      dup2\n      sload\n      dup2\n      lt\n      tag_97\n      jumpi\n      0x00\n      dup1\n      revert\n    tag_97:\n      swap1\n      0x00\n      mstore\n      keccak256(0x00, 0x20)\n      add\n      0x00\n      swap2\n      pop\n      swap1\n      pop\n      sload\n      dup2\n      jump\t// out\n    tag_76:\n      pop\n      dup1\n      sload\n      0x00\n      dup3\n      sstore\n      swap1\n      0x00\n      mstore\n      keccak256(0x00, 0x20)\n      swap1\n      dup2\n      add\n      swap1\n      tag_100\n      swap2\n      swap1\n      tag_101\n      jump\t// in\n    tag_100:\n      pop\n      jump\t// out\n    tag_101:\n    tag_102:\n      dup1\n      dup3\n      gt\n      iszero\n      tag_103\n      jumpi\n      0x00\n      dup2\n      0x00\n      swap1\n      sstore\n      pop\n      0x01\n      add\n      jump(tag_102)\n    tag_103:\n      pop\n      swap1\n      jump\t// out\n        /* \"#utility.yul\":7:121   */\n    tag_104:\n        /* \"#utility.yul\":74:80   */\n      0x00\n        /* \"#utility.yul\":108:113   */\n      dup2\n        /* \"#utility.yul\":102:114   */\n      mload\n        /* \"#utility.yul\":92:114   */\n      swap1\n      pop\n        /* \"#utility.yul\":7:121   */\n      swap2\n      swap1\n      pop\n      jump\t// out\n        /* \"#utility.yul\":127:311   */\n    tag_105:\n        /* \"#utility.yul\":226:237   */\n      0x00\n        /* \"#utility.yul\":260:266   */\n      dup3\n        /* \"#utility.yul\":255:258   */\n      dup3\n        /* \"#utility.yul\":248:267   */\n      mstore\n        /* \"#utility.yul\":300:304   */\n      0x20\n        /* \"#utility.yul\":295:298   */\n      dup3\n        /* \"#utility.yul\":291:305   */\n      add\n        /* \"#utility.yul\":276:305   */\n      swap1\n      pop\n        /* \"#utility.yul\":127:311   */\n      swap3\n      swap2\n      pop\n      pop\n      jump\t// out\n        /* \"#utility.yul\":317:449   */\n    tag_106:\n        /* \"#utility.yul\":384:388   */\n      0x00\n        /* \"#utility.yul\":407:410   */\n      dup2\n        /* \"#utility.yul\":399:410   */\n      swap1\n      pop\n        /* \"#utility.yul\":437:441   */\n      0x20\n        /* \"#utility.yul\":432:435   */\n      dup3\n        /* \"#utility.yul\":428:442   */\n      add\n        /* \"#utility.yul\":420:442   */\n      swap1\n      pop\n        /* \"#utility.yul\":317:449   */\n      swap2\n      swap1\n      pop\n      jump\t// out\n        /* \"#utility.yul\":455:532   */\n    tag_107:\n        /* \"#utility.yul\":492:499   */\n      0x00\n        /* \"#utility.yul\":521:526   */\n      dup2\n        /* \"#utility.yul\":510:526   */\n      swap1\n      pop\n        /* \"#utility.yul\":455:532   */\n      swap2\n      swap1\n      pop\n      jump\t// out\n        /* \"#utility.yul\":538:646   */\n    tag_108:\n        /* \"#utility.yul\":615:639   */\n      tag_136\n        /* \"#utility.yul\":633:638   */\n      dup2\n        /* \"#utility.yul\":615:639   */\n      tag_107\n      jump\t// in\n    tag_136:\n        /* \"#utility.yul\":610:613   */\n      dup3\n        /* \"#utility.yul\":603:640   */\n      mstore\n        /* \"#utility.yul\":538:646   */\n      pop\n      pop\n      jump\t// out\n        /* \"#utility.yul\":652:831   */\n    tag_109:\n        /* \"#utility.yul\":721:731   */\n      0x00\n        /* \"#utility.yul\":742:788   */\n      tag_138\n        /* \"#utility.yul\":784:787   */\n      dup4\n        /* \"#utility.yul\":776:782   */\n      dup4\n        /* \"#utility.yul\":742:788   */\n      tag_108\n      jump\t// in\n    tag_138:\n        /* \"#utility.yul\":820:824   */\n      0x20\n        /* \"#utility.yul\":815:818   */\n      dup4\n        /* \"#utility.yul\":811:825   */\n      add\n        /* \"#utility.yul\":797:825   */\n      swap1\n      pop\n        /* \"#utility.yul\":652:831   */\n      swap3\n      swap2\n      pop\n      pop\n      jump\t// out\n        /* \"#utility.yul\":837:950   */\n    tag_110:\n        /* \"#utility.yul\":907:911   */\n      0x00\n        /* \"#utility.yul\":939:943   */\n      0x20\n        /* \"#utility.yul\":934:937   */\n      dup3\n        /* \"#utility.yul\":930:944   */\n      add\n        /* \"#utility.yul\":922:944   */\n      swap1\n      pop\n        /* \"#utility.yul\":837:950   */\n      swap2\n      swap1\n      pop\n      jump\t// out\n        /* \"#utility.yul\":986:1718   */\n    tag_111:\n        /* \"#utility.yul\":1105:1108   */\n      0x00\n        /* \"#utility.yul\":1134:1188   */\n      tag_141\n        /* \"#utility.yul\":1182:1187   */\n      dup3\n        /* \"#utility.yul\":1134:1188   */\n      tag_104\n      jump\t// in\n    tag_141:\n        /* \"#utility.yul\":1204:1290   */\n      tag_142\n        /* \"#utility.yul\":1283:1289   */\n      dup2\n        /* \"#utility.yul\":1278:1281   */\n      dup6\n        /* \"#utility.yul\":1204:1290   */\n      tag_105\n      jump\t// in\n    tag_142:\n        /* \"#utility.yul\":1197:1290   */\n      swap4\n      pop\n        /* \"#utility.yul\":1314:1370   */\n      tag_143\n        /* \"#utility.yul\":1364:1369   */\n      dup4\n        /* \"#utility.yul\":1314:1370   */\n      tag_106\n      jump\t// in\n    tag_143:\n        /* \"#utility.yul\":1393:1400   */\n      dup1\n        /* \"#utility.yul\":1424:1425   */\n      0x00\n        /* \"#utility.yul\":1409:1693   */\n    tag_144:\n        /* \"#utility.yul\":1434:1440   */\n      dup4\n        /* \"#utility.yul\":1431:1432   */\n      dup2\n        /* \"#utility.yul\":1428:1441   */\n      lt\n        /* \"#utility.yul\":1409:1693   */\n      iszero\n      tag_146\n      jumpi\n        /* \"#utility.yul\":1510:1516   */\n      dup2\n        /* \"#utility.yul\":1504:1517   */\n      mload\n        /* \"#utility.yul\":1537:1600   */\n      tag_147\n        /* \"#utility.yul\":1596:1599   */\n      dup9\n        /* \"#utility.yul\":1581:1594   */\n      dup3\n        /* \"#utility.yul\":1537:1600   */\n      tag_109\n      jump\t// in\n    tag_147:\n        /* \"#utility.yul\":1530:1600   */\n      swap8\n      pop\n        /* \"#utility.yul\":1623:1683   */\n      tag_148\n        /* \"#utility.yul\":1676:1682   */\n      dup4\n        /* \"#utility.yul\":1623:1683   */\n      tag_110\n      jump\t// in\n    tag_148:\n        /* \"#utility.yul\":1613:1683   */\n      swap3\n      pop\n        /* \"#utility.yul\":1469:1693   */\n      pop\n        /* \"#utility.yul\":1456:1457   */\n      0x01\n        /* \"#utility.yul\":1453:1454   */\n      dup2\n        /* \"#utility.yul\":1449:1458   */\n      add\n        /* \"#utility.yul\":1444:1458   */\n      swap1\n      pop\n        /* \"#utility.yul\":1409:1693   */\n      jump(tag_144)\n    tag_146:\n        /* \"#utility.yul\":1413:1427   */\n      pop\n        /* \"#utility.yul\":1709:1712   */\n      dup6\n        /* \"#utility.yul\":1702:1712   */\n      swap4\n      pop\n        /* \"#utility.yul\":1110:1718   */\n      pop\n      pop\n      pop\n        /* \"#utility.yul\":986:1718   */\n      swap3\n      swap2\n      pop\n      pop\n      jump\t// out\n        /* \"#utility.yul\":1724:2097   */\n    tag_15:\n        /* \"#utility.yul\":1867:1871   */\n      0x00\n        /* \"#utility.yul\":1905:1907   */\n      0x20\n        /* \"#utility.yul\":1894:1903   */\n      dup3\n        /* \"#utility.yul\":1890:1908   */\n      add\n        /* \"#utility.yul\":1882:1908   */\n      swap1\n      pop\n        /* \"#utility.yul\":1954:1963   */\n      dup2\n        /* \"#utility.yul\":1948:1952   */\n      dup2\n        /* \"#utility.yul\":1944:1964   */\n      sub\n        /* \"#utility.yul\":1940:1941   */\n      0x00\n        /* \"#utility.yul\":1929:1938   */\n      dup4\n        /* \"#utility.yul\":1925:1942   */\n      add\n        /* \"#utility.yul\":1918:1965   */\n      mstore\n        /* \"#utility.yul\":1982:2090   */\n      tag_150\n        /* \"#utility.yul\":2085:2089   */\n      dup2\n        /* \"#utility.yul\":2076:2082   */\n      dup5\n        /* \"#utility.yul\":1982:2090   */\n      tag_111\n      jump\t// in\n    tag_150:\n        /* \"#utility.yul\":1974:2090   */\n      swap1\n      pop\n        /* \"#utility.yul\":1724:2097   */\n      swap3\n      swap2\n      pop\n      pop\n      jump\t// out\n        /* \"#utility.yul\":2103:2178   */\n    tag_112:\n        /* \"#utility.yul\":2136:2142   */\n      0x00\n        /* \"#utility.yul\":2169:2171   */\n      0x40\n        /* \"#utility.yul\":2163:2172   */\n      mload\n        /* \"#utility.yul\":2153:2172   */\n      swap1\n      pop\n        /* \"#utility.yul\":2103:2178   */\n      swap1\n      jump\t// out\n        /* \"#utility.yul\":2184:2301   */\n    tag_113:\n        /* \"#utility.yul\":2293:2294   */\n      0x00\n        /* \"#utility.yul\":2290:2291   */\n      dup1\n        /* \"#utility.yul\":2283:2295   */\n      revert\n        /* \"#utility.yul\":2307:2424   */\n    tag_114:\n        /* \"#utility.yul\":2416:2417   */\n      0x00\n        /* \"#utility.yul\":2413:2414   */\n      dup1\n        /* \"#utility.yul\":2406:2418   */\n      revert\n        /* \"#utility.yul\":2430:2547   */\n    tag_115:\n        /* \"#utility.yul\":2539:2540   */\n      0x00\n        /* \"#utility.yul\":2536:2537   */\n      dup1\n        /* \"#utility.yul\":2529:2541   */\n      revert\n        /* \"#utility.yul\":2553:2655   */\n    tag_116:\n        /* \"#utility.yul\":2594:2600   */\n      0x00\n        /* \"#utility.yul\":2645:2647   */\n      0x1f\n        /* \"#utility.yul\":2641:2648   */\n      not\n        /* \"#utility.yul\":2636:2638   */\n      0x1f\n        /* \"#utility.yul\":2629:2634   */\n      dup4\n        /* \"#utility.yul\":2625:2639   */\n      add\n        /* \"#utility.yul\":2621:2649   */\n      and\n        /* \"#utility.yul\":2611:2649   */\n      swap1\n      pop\n        /* \"#utility.yul\":2553:2655   */\n      swap2\n      swap1\n      pop\n      jump\t// out\n        /* \"#utility.yul\":2661:2841   */\n    tag_46:\n        /* \"#utility.yul\":2709:2786   */\n      0x4e487b7100000000000000000000000000000000000000000000000000000000\n        /* \"#utility.yul\":2706:2707   */\n      0x00\n        /* \"#utility.yul\":2699:2787   */\n      mstore\n        /* \"#utility.yul\":2806:2810   */\n      0x41\n        /* \"#utility.yul\":2803:2804   */\n      0x04\n        /* \"#utility.yul\":2796:2811   */\n      mstore\n        /* \"#utility.yul\":2830:2834   */\n      0x24\n        /* \"#utility.yul\":2827:2828   */\n      0x00\n        /* \"#utility.yul\":2820:2835   */\n      revert\n        /* \"#utility.yul\":2847:3128   */\n    tag_117:\n        /* \"#utility.yul\":2930:2957   */\n      tag_158\n        /* \"#utility.yul\":2952:2956   */\n      dup3\n        /* \"#utility.yul\":2930:2957   */\n      tag_116\n      jump\t// in\n    tag_158:\n        /* \"#utility.yul\":2922:2928   */\n      dup2\n        /* \"#utility.yul\":2918:2958   */\n      add\n        /* \"#utility.yul\":3060:3066   */\n      dup2\n        /* \"#utility.yul\":3048:3058   */\n      dup2\n        /* \"#utility.yul\":3045:3067   */\n      lt\n        /* \"#utility.yul\":3024:3042   */\n      0xffffffffffffffff\n        /* \"#utility.yul\":3012:3022   */\n      dup3\n        /* \"#utility.yul\":3009:3043   */\n      gt\n        /* \"#utility.yul\":3006:3068   */\n      or\n        /* \"#utility.yul\":3003:3091   */\n      iszero\n      tag_159\n      jumpi\n        /* \"#utility.yul\":3071:3089   */\n      tag_160\n      tag_46\n      jump\t// in\n    tag_160:\n        /* \"#utility.yul\":3003:3091   */\n    tag_159:\n        /* \"#utility.yul\":3111:3121   */\n      dup1\n        /* \"#utility.yul\":3107:3109   */\n      0x40\n        /* \"#utility.yul\":3100:3122   */\n      mstore\n        /* \"#utility.yul\":2890:3128   */\n      pop\n        /* \"#utility.yul\":2847:3128   */\n      pop\n      pop\n      jump\t// out\n        /* \"#utility.yul\":3134:3263   */\n    tag_118:\n        /* \"#utility.yul\":3168:3174   */\n      0x00\n        /* \"#utility.yul\":3195:3215   */\n      tag_162\n      tag_112\n      jump\t// in\n    tag_162:\n        /* \"#utility.yul\":3185:3215   */\n      swap1\n      pop\n        /* \"#utility.yul\":3224:3257   */\n      tag_163\n        /* \"#utility.yul\":3252:3256   */\n      dup3\n        /* \"#utility.yul\":3244:3250   */\n      dup3\n        /* \"#utility.yul\":3224:3257   */\n      tag_117\n      jump\t// in\n    tag_163:\n        /* \"#utility.yul\":3134:3263   */\n      swap2\n      swap1\n      pop\n      jump\t// out\n        /* \"#utility.yul\":3269:3580   */\n    tag_119:\n        /* \"#utility.yul\":3346:3350   */\n      0x00\n        /* \"#utility.yul\":3436:3454   */\n      0xffffffffffffffff\n        /* \"#utility.yul\":3428:3434   */\n      dup3\n        /* \"#utility.yul\":3425:3455   */\n      gt\n        /* \"#utility.yul\":3422:3478   */\n      iszero\n      tag_165\n      jumpi\n        /* \"#utility.yul\":3458:3476   */\n      tag_166\n      tag_46\n      jump\t// in\n    tag_166:\n        /* \"#utility.yul\":3422:3478   */\n    tag_165:\n        /* \"#utility.yul\":3508:3512   */\n      0x20\n        /* \"#utility.yul\":3500:3506   */\n      dup3\n        /* \"#utility.yul\":3496:3513   */\n      mul\n        /* \"#utility.yul\":3488:3513   */\n      swap1\n      pop\n        /* \"#utility.yul\":3568:3572   */\n      0x20\n        /* \"#utility.yul\":3562:3566   */\n      dup2\n        /* \"#utility.yul\":3558:3573   */\n      add\n        /* \"#utility.yul\":3550:3573   */\n      swap1\n      pop\n        /* \"#utility.yul\":3269:3580   */\n      swap2\n      swap1\n      pop\n      jump\t// out\n        /* \"#utility.yul\":3586:3703   */\n    tag_120:\n        /* \"#utility.yul\":3695:3696   */\n      0x00\n        /* \"#utility.yul\":3692:3693   */\n      dup1\n        /* \"#utility.yul\":3685:3697   */\n      revert\n        /* \"#utility.yul\":3709:3831   */\n    tag_121:\n        /* \"#utility.yul\":3782:3806   */\n      tag_169\n        /* \"#utility.yul\":3800:3805   */\n      dup2\n        /* \"#utility.yul\":3782:3806   */\n      tag_107\n      jump\t// in\n    tag_169:\n        /* \"#utility.yul\":3775:3780   */\n      dup2\n        /* \"#utility.yul\":3772:3807   */\n      eq\n        /* \"#utility.yul\":3762:3825   */\n      tag_170\n      jumpi\n        /* \"#utility.yul\":3821:3822   */\n      0x00\n        /* \"#utility.yul\":3818:3819   */\n      dup1\n        /* \"#utility.yul\":3811:3823   */\n      revert\n        /* \"#utility.yul\":3762:3825   */\n    tag_170:\n        /* \"#utility.yul\":3709:3831   */\n      pop\n      jump\t// out\n        /* \"#utility.yul\":3837:3976   */\n    tag_122:\n        /* \"#utility.yul\":3883:3888   */\n      0x00\n        /* \"#utility.yul\":3921:3927   */\n      dup2\n        /* \"#utility.yul\":3908:3928   */\n      calldataload\n        /* \"#utility.yul\":3899:3928   */\n      swap1\n      pop\n        /* \"#utility.yul\":3937:3970   */\n      tag_172\n        /* \"#utility.yul\":3964:3969   */\n      dup2\n        /* \"#utility.yul\":3937:3970   */\n      tag_121\n      jump\t// in\n    tag_172:\n        /* \"#utility.yul\":3837:3976   */\n      swap3\n      swap2\n      pop\n      pop\n      jump\t// out\n        /* \"#utility.yul\":3999:4709   */\n    tag_123:\n        /* \"#utility.yul\":4095:4100   */\n      0x00\n        /* \"#utility.yul\":4120:4201   */\n      tag_174\n        /* \"#utility.yul\":4136:4200   */\n      tag_175\n        /* \"#utility.yul\":4193:4199   */\n      dup5\n        /* \"#utility.yul\":4136:4200   */\n      tag_119\n      jump\t// in\n    tag_175:\n        /* \"#utility.yul\":4120:4201   */\n      tag_118\n      jump\t// in\n    tag_174:\n        /* \"#utility.yul\":4111:4201   */\n      swap1\n      pop\n        /* \"#utility.yul\":4221:4226   */\n      dup1\n        /* \"#utility.yul\":4250:4256   */\n      dup4\n        /* \"#utility.yul\":4243:4248   */\n      dup3\n        /* \"#utility.yul\":4236:4257   */\n      mstore\n        /* \"#utility.yul\":4284:4288   */\n      0x20\n        /* \"#utility.yul\":4277:4282   */\n      dup3\n        /* \"#utility.yul\":4273:4289   */\n      add\n        /* \"#utility.yul\":4266:4289   */\n      swap1\n      pop\n        /* \"#utility.yul\":4337:4341   */\n      0x20\n        /* \"#utility.yul\":4329:4335   */\n      dup5\n        /* \"#utility.yul\":4325:4342   */\n      mul\n        /* \"#utility.yul\":4317:4323   */\n      dup4\n        /* \"#utility.yul\":4313:4343   */\n      add\n        /* \"#utility.yul\":4366:4369   */\n      dup6\n        /* \"#utility.yul\":4358:4364   */\n      dup2\n        /* \"#utility.yul\":4355:4370   */\n      gt\n        /* \"#utility.yul\":4352:4474   */\n      iszero\n      tag_176\n      jumpi\n        /* \"#utility.yul\":4385:4464   */\n      tag_177\n      tag_120\n      jump\t// in\n    tag_177:\n        /* \"#utility.yul\":4352:4474   */\n    tag_176:\n        /* \"#utility.yul\":4500:4506   */\n      dup4\n        /* \"#utility.yul\":4483:4703   */\n    tag_178:\n        /* \"#utility.yul\":4517:4523   */\n      dup2\n        /* \"#utility.yul\":4512:4515   */\n      dup2\n        /* \"#utility.yul\":4509:4524   */\n      lt\n        /* \"#utility.yul\":4483:4703   */\n      iszero\n      tag_180\n      jumpi\n        /* \"#utility.yul\":4592:4595   */\n      dup1\n        /* \"#utility.yul\":4621:4658   */\n      tag_181\n        /* \"#utility.yul\":4654:4657   */\n      dup9\n        /* \"#utility.yul\":4642:4652   */\n      dup3\n        /* \"#utility.yul\":4621:4658   */\n      tag_122\n      jump\t// in\n    tag_181:\n        /* \"#utility.yul\":4616:4619   */\n      dup5\n        /* \"#utility.yul\":4609:4659   */\n      mstore\n        /* \"#utility.yul\":4688:4692   */\n      0x20\n        /* \"#utility.yul\":4683:4686   */\n      dup5\n        /* \"#utility.yul\":4679:4693   */\n      add\n        /* \"#utility.yul\":4672:4693   */\n      swap4\n      pop\n        /* \"#utility.yul\":4559:4703   */\n      pop\n        /* \"#utility.yul\":4543:4547   */\n      0x20\n        /* \"#utility.yul\":4538:4541   */\n      dup2\n        /* \"#utility.yul\":4534:4548   */\n      add\n        /* \"#utility.yul\":4527:4548   */\n      swap1\n      pop\n        /* \"#utility.yul\":4483:4703   */\n      jump(tag_178)\n    tag_180:\n        /* \"#utility.yul\":4487:4508   */\n      pop\n        /* \"#utility.yul\":4101:4709   */\n      pop\n      pop\n        /* \"#utility.yul\":3999:4709   */\n      swap4\n      swap3\n      pop\n      pop\n      pop\n      jump\t// out\n        /* \"#utility.yul\":4732:5102   */\n    tag_124:\n        /* \"#utility.yul\":4803:4808   */\n      0x00\n        /* \"#utility.yul\":4852:4855   */\n      dup3\n        /* \"#utility.yul\":4845:4849   */\n      0x1f\n        /* \"#utility.yul\":4837:4843   */\n      dup4\n        /* \"#utility.yul\":4833:4850   */\n      add\n        /* \"#utility.yul\":4829:4856   */\n      slt\n        /* \"#utility.yul\":4819:4941   */\n      tag_183\n      jumpi\n        /* \"#utility.yul\":4860:4939   */\n      tag_184\n      tag_115\n      jump\t// in\n    tag_184:\n        /* \"#utility.yul\":4819:4941   */\n    tag_183:\n        /* \"#utility.yul\":4977:4983   */\n      dup2\n        /* \"#utility.yul\":4964:4984   */\n      calldataload\n        /* \"#utility.yul\":5002:5096   */\n      tag_185\n        /* \"#utility.yul\":5092:5095   */\n      dup5\n        /* \"#utility.yul\":5084:5090   */\n      dup3\n        /* \"#utility.yul\":5077:5081   */\n      0x20\n        /* \"#utility.yul\":5069:5075   */\n      dup7\n        /* \"#utility.yul\":5065:5082   */\n      add\n        /* \"#utility.yul\":5002:5096   */\n      tag_123\n      jump\t// in\n    tag_185:\n        /* \"#utility.yul\":4993:5096   */\n      swap2\n      pop\n        /* \"#utility.yul\":4809:5102   */\n      pop\n        /* \"#utility.yul\":4732:5102   */\n      swap3\n      swap2\n      pop\n      pop\n      jump\t// out\n        /* \"#utility.yul\":5108:5647   */\n    tag_18:\n        /* \"#utility.yul\":5192:5198   */\n      0x00\n        /* \"#utility.yul\":5241:5243   */\n      0x20\n        /* \"#utility.yul\":5229:5238   */\n      dup3\n        /* \"#utility.yul\":5220:5227   */\n      dup5\n        /* \"#utility.yul\":5216:5239   */\n      sub\n        /* \"#utility.yul\":5212:5244   */\n      slt\n        /* \"#utility.yul\":5209:5328   */\n      iszero\n      tag_187\n      jumpi\n        /* \"#utility.yul\":5247:5326   */\n      tag_188\n      tag_113\n      jump\t// in\n    tag_188:\n        /* \"#utility.yul\":5209:5328   */\n    tag_187:\n        /* \"#utility.yul\":5395:5396   */\n      0x00\n        /* \"#utility.yul\":5384:5393   */\n      dup3\n        /* \"#utility.yul\":5380:5397   */\n      add\n        /* \"#utility.yul\":5367:5398   */\n      calldataload\n        /* \"#utility.yul\":5425:5443   */\n      0xffffffffffffffff\n        /* \"#utility.yul\":5417:5423   */\n      dup2\n        /* \"#utility.yul\":5414:5444   */\n      gt\n        /* \"#utility.yul\":5411:5528   */\n      iszero\n      tag_189\n      jumpi\n        /* \"#utility.yul\":5447:5526   */\n      tag_190\n      tag_114\n      jump\t// in\n    tag_190:\n        /* \"#utility.yul\":5411:5528   */\n    tag_189:\n        /* \"#utility.yul\":5552:5630   */\n      tag_191\n        /* \"#utility.yul\":5622:5629   */\n      dup5\n        /* \"#utility.yul\":5613:5619   */\n      dup3\n        /* \"#utility.yul\":5602:5611   */\n      dup6\n        /* \"#utility.yul\":5598:5620   */\n      add\n        /* \"#utility.yul\":5552:5630   */\n      tag_124\n      jump\t// in\n    tag_191:\n        /* \"#utility.yul\":5542:5630   */\n      swap2\n      pop\n        /* \"#utility.yul\":5338:5640   */\n      pop\n        /* \"#utility.yul\":5108:5647   */\n      swap3\n      swap2\n      pop\n      pop\n      jump\t// out\n        /* \"#utility.yul\":5653:5982   */\n    tag_22:\n        /* \"#utility.yul\":5712:5718   */\n      0x00\n        /* \"#utility.yul\":5761:5763   */\n      0x20\n        /* \"#utility.yul\":5749:5758   */\n      dup3\n        /* \"#utility.yul\":5740:5747   */\n      dup5\n        /* \"#utility.yul\":5736:5759   */\n      sub\n        /* \"#utility.yul\":5732:5764   */\n      slt\n        /* \"#utility.yul\":5729:5848   */\n      iszero\n      tag_193\n      jumpi\n        /* \"#utility.yul\":5767:5846   */\n      tag_194\n      tag_113\n      jump\t// in\n    tag_194:\n        /* \"#utility.yul\":5729:5848   */\n    tag_193:\n        /* \"#utility.yul\":5887:5888   */\n      0x00\n        /* \"#utility.yul\":5912:5965   */\n      tag_195\n        /* \"#utility.yul\":5957:5964   */\n      dup5\n        /* \"#utility.yul\":5948:5954   */\n      dup3\n        /* \"#utility.yul\":5937:5946   */\n      dup6\n        /* \"#utility.yul\":5933:5955   */\n      add\n        /* \"#utility.yul\":5912:5965   */\n      tag_122\n      jump\t// in\n    tag_195:\n        /* \"#utility.yul\":5902:5965   */\n      swap2\n      pop\n        /* \"#utility.yul\":5858:5975   */\n      pop\n        /* \"#utility.yul\":5653:5982   */\n      swap3\n      swap2\n      pop\n      pop\n      jump\t// out\n        /* \"#utility.yul\":5988:6106   */\n    tag_125:\n        /* \"#utility.yul\":6075:6099   */\n      tag_197\n        /* \"#utility.yul\":6093:6098   */\n      dup2\n        /* \"#utility.yul\":6075:6099   */\n      tag_107\n      jump\t// in\n    tag_197:\n        /* \"#utility.yul\":6070:6073   */\n      dup3\n        /* \"#utility.yul\":6063:6100   */\n      mstore\n        /* \"#utility.yul\":5988:6106   */\n      pop\n      pop\n      jump\t// out\n        /* \"#utility.yul\":6112:6334   */\n    tag_25:\n        /* \"#utility.yul\":6205:6209   */\n      0x00\n        /* \"#utility.yul\":6243:6245   */\n      0x20\n        /* \"#utility.yul\":6232:6241   */\n      dup3\n        /* \"#utility.yul\":6228:6246   */\n      add\n        /* \"#utility.yul\":6220:6246   */\n      swap1\n      pop\n        /* \"#utility.yul\":6256:6327   */\n      tag_199\n        /* \"#utility.yul\":6324:6325   */\n      0x00\n        /* \"#utility.yul\":6313:6322   */\n      dup4\n        /* \"#utility.yul\":6309:6326   */\n      add\n        /* \"#utility.yul\":6300:6306   */\n      dup5\n        /* \"#utility.yul\":6256:6327   */\n      tag_125\n      jump\t// in\n    tag_199:\n        /* \"#utility.yul\":6112:6334   */\n      swap3\n      swap2\n      pop\n      pop\n      jump\t// out\n        /* \"#utility.yul\":6340:6457   */\n    tag_126:\n        /* \"#utility.yul\":6449:6450   */\n      0x00\n        /* \"#utility.yul\":6446:6447   */\n      dup1\n        /* \"#utility.yul\":6439:6451   */\n      revert\n        /* \"#utility.yul\":6480:7048   */\n    tag_127:\n        /* \"#utility.yul\":6553:6561   */\n      0x00\n        /* \"#utility.yul\":6563:6569   */\n      dup1\n        /* \"#utility.yul\":6613:6616   */\n      dup4\n        /* \"#utility.yul\":6606:6610   */\n      0x1f\n        /* \"#utility.yul\":6598:6604   */\n      dup5\n        /* \"#utility.yul\":6594:6611   */\n      add\n        /* \"#utility.yul\":6590:6617   */\n      slt\n        /* \"#utility.yul\":6580:6702   */\n      tag_202\n      jumpi\n        /* \"#utility.yul\":6621:6700   */\n      tag_203\n      tag_115\n      jump\t// in\n    tag_203:\n        /* \"#utility.yul\":6580:6702   */\n    tag_202:\n        /* \"#utility.yul\":6734:6740   */\n      dup3\n        /* \"#utility.yul\":6721:6741   */\n      calldataload\n        /* \"#utility.yul\":6711:6741   */\n      swap1\n      pop\n        /* \"#utility.yul\":6764:6782   */\n      0xffffffffffffffff\n        /* \"#utility.yul\":6756:6762   */\n      dup2\n        /* \"#utility.yul\":6753:6783   */\n      gt\n        /* \"#utility.yul\":6750:6867   */\n      iszero\n      tag_204\n      jumpi\n        /* \"#utility.yul\":6786:6865   */\n      tag_205\n      tag_126\n      jump\t// in\n    tag_205:\n        /* \"#utility.yul\":6750:6867   */\n    tag_204:\n        /* \"#utility.yul\":6900:6904   */\n      0x20\n        /* \"#utility.yul\":6892:6898   */\n      dup4\n        /* \"#utility.yul\":6888:6905   */\n      add\n        /* \"#utility.yul\":6876:6905   */\n      swap2\n      pop\n        /* \"#utility.yul\":6954:6957   */\n      dup4\n        /* \"#utility.yul\":6946:6950   */\n      0x20\n        /* \"#utility.yul\":6938:6944   */\n      dup3\n        /* \"#utility.yul\":6934:6951   */\n      mul\n        /* \"#utility.yul\":6924:6932   */\n      dup4\n        /* \"#utility.yul\":6920:6952   */\n      add\n        /* \"#utility.yul\":6917:6958   */\n      gt\n        /* \"#utility.yul\":6914:7042   */\n      iszero\n      tag_206\n      jumpi\n        /* \"#utility.yul\":6961:7040   */\n      tag_207\n      tag_120\n      jump\t// in\n    tag_207:\n        /* \"#utility.yul\":6914:7042   */\n    tag_206:\n        /* \"#utility.yul\":6480:7048   */\n      swap3\n      pop\n      swap3\n      swap1\n      pop\n      jump\t// out\n        /* \"#utility.yul\":7054:7613   */\n    tag_28:\n        /* \"#utility.yul\":7140:7146   */\n      0x00\n        /* \"#utility.yul\":7148:7154   */\n      dup1\n        /* \"#utility.yul\":7197:7199   */\n      0x20\n        /* \"#utility.yul\":7185:7194   */\n      dup4\n        /* \"#utility.yul\":7176:7183   */\n      dup6\n        /* \"#utility.yul\":7172:7195   */\n      sub\n        /* \"#utility.yul\":7168:7200   */\n      slt\n        /* \"#utility.yul\":7165:7284   */\n      iszero\n      tag_209\n      jumpi\n        /* \"#utility.yul\":7203:7282   */\n      tag_210\n      tag_113\n      jump\t// in\n    tag_210:\n        /* \"#utility.yul\":7165:7284   */\n    tag_209:\n        /* \"#utility.yul\":7351:7352   */\n      0x00\n        /* \"#utility.yul\":7340:7349   */\n      dup4\n        /* \"#utility.yul\":7336:7353   */\n      add\n        /* \"#utility.yul\":7323:7354   */\n      calldataload\n        /* \"#utility.yul\":7381:7399   */\n      0xffffffffffffffff\n        /* \"#utility.yul\":7373:7379   */\n      dup2\n        /* \"#utility.yul\":7370:7400   */\n      gt\n        /* \"#utility.yul\":7367:7484   */\n      iszero\n      tag_211\n      jumpi\n        /* \"#utility.yul\":7403:7482   */\n      tag_212\n      tag_114\n      jump\t// in\n    tag_212:\n        /* \"#utility.yul\":7367:7484   */\n    tag_211:\n        /* \"#utility.yul\":7516:7596   */\n      tag_213\n        /* \"#utility.yul\":7588:7595   */\n      dup6\n        /* \"#utility.yul\":7579:7585   */\n      dup3\n        /* \"#utility.yul\":7568:7577   */\n      dup7\n        /* \"#utility.yul\":7564:7586   */\n      add\n        /* \"#utility.yul\":7516:7596   */\n      tag_127\n      jump\t// in\n    tag_213:\n        /* \"#utility.yul\":7498:7596   */\n      swap3\n      pop\n      swap3\n      pop\n        /* \"#utility.yul\":7294:7606   */\n      pop\n        /* \"#utility.yul\":7054:7613   */\n      swap3\n      pop\n      swap3\n      swap1\n      pop\n      jump\t// out\n        /* \"#utility.yul\":7619:7799   */\n    tag_128:\n        /* \"#utility.yul\":7667:7744   */\n      0x4e487b7100000000000000000000000000000000000000000000000000000000\n        /* \"#utility.yul\":7664:7665   */\n      0x00\n        /* \"#utility.yul\":7657:7745   */\n      mstore\n        /* \"#utility.yul\":7764:7768   */\n      0x12\n        /* \"#utility.yul\":7761:7762   */\n      0x04\n        /* \"#utility.yul\":7754:7769   */\n      mstore\n        /* \"#utility.yul\":7788:7792   */\n      0x24\n        /* \"#utility.yul\":7785:7786   */\n      0x00\n        /* \"#utility.yul\":7778:7793   */\n      revert\n        /* \"#utility.yul\":7805:7981   */\n    tag_52:\n        /* \"#utility.yul\":7837:7838   */\n      0x00\n        /* \"#utility.yul\":7854:7874   */\n      tag_216\n        /* \"#utility.yul\":7872:7873   */\n      dup3\n        /* \"#utility.yul\":7854:7874   */\n      tag_107\n      jump\t// in\n    tag_216:\n        /* \"#utility.yul\":7849:7874   */\n      swap2\n      pop\n        /* \"#utility.yul\":7888:7908   */\n      tag_217\n        /* \"#utility.yul\":7906:7907   */\n      dup4\n        /* \"#utility.yul\":7888:7908   */\n      tag_107\n      jump\t// in\n    tag_217:\n        /* \"#utility.yul\":7883:7908   */\n      swap3\n      pop\n        /* \"#utility.yul\":7927:7928   */\n      dup3\n        /* \"#utility.yul\":7917:7952   */\n      tag_218\n      jumpi\n        /* \"#utility.yul\":7932:7950   */\n      tag_219\n      tag_128\n      jump\t// in\n    tag_219:\n        /* \"#utility.yul\":7917:7952   */\n    tag_218:\n        /* \"#utility.yul\":7973:7974   */\n      dup3\n        /* \"#utility.yul\":7970:7971   */\n      dup3\n        /* \"#utility.yul\":7966:7975   */\n      mod\n        /* \"#utility.yul\":7961:7975   */\n      swap1\n      pop\n        /* \"#utility.yul\":7805:7981   */\n      swap3\n      swap2\n      pop\n      pop\n      jump\t// out\n        /* \"#utility.yul\":7987:8167   */\n    tag_55:\n        /* \"#utility.yul\":8035:8112   */\n      0x4e487b7100000000000000000000000000000000000000000000000000000000\n        /* \"#utility.yul\":8032:8033   */\n      0x00\n        /* \"#utility.yul\":8025:8113   */\n      mstore\n        /* \"#utility.yul\":8132:8136   */\n      0x32\n        /* \"#utility.yul\":8129:8130   */\n      0x04\n        /* \"#utility.yul\":8122:8137   */\n      mstore\n        /* \"#utility.yul\":8156:8160   */\n      0x24\n        /* \"#utility.yul\":8153:8154   */\n      0x00\n        /* \"#utility.yul\":8146:8161   */\n      revert\n        /* \"#utility.yul\":8173:8353   */\n    tag_129:\n        /* \"#utility.yul\":8221:8298   */\n      0x4e487b7100000000000000000000000000000000000000000000000000000000\n        /* \"#utility.yul\":8218:8219   */\n      0x00\n        /* \"#utility.yul\":8211:8299   */\n      mstore\n        /* \"#utility.yul\":8318:8322   */\n      0x11\n        /* \"#utility.yul\":8315:8316   */\n      0x04\n        /* \"#utility.yul\":8308:8323   */\n      mstore\n        /* \"#utility.yul\":8342:8346   */\n      0x24\n        /* \"#utility.yul\":8339:8340   */\n      0x00\n        /* \"#utility.yul\":8332:8347   */\n      revert\n        /* \"#utility.yul\":8359:8592   */\n    tag_87:\n        /* \"#utility.yul\":8398:8401   */\n      0x00\n        /* \"#utility.yul\":8421:8445   */\n      tag_223\n        /* \"#utility.yul\":8439:8444   */\n      dup3\n        /* \"#utility.yul\":8421:8445   */\n      tag_107\n      jump\t// in\n    tag_223:\n        /* \"#utility.yul\":8412:8445   */\n      swap2\n      pop\n        /* \"#utility.yul\":8467:8533   */\n      0xffffffffffffffffffffffffffffffffffffffffffffffffffffffffffffffff\n        /* \"#utility.yul\":8460:8465   */\n      dup3\n        /* \"#utility.yul\":8457:8534   */\n      sub\n        /* \"#utility.yul\":8454:8557   */\n      tag_224\n      jumpi\n        /* \"#utility.yul\":8537:8555   */\n      tag_225\n      tag_129\n      jump\t// in\n    tag_225:\n        /* \"#utility.yul\":8454:8557   */\n    tag_224:\n        /* \"#utility.yul\":8584:8585   */\n      0x01\n        /* \"#utility.yul\":8577:8582   */\n      dup3\n        /* \"#utility.yul\":8573:8586   */\n      add\n        /* \"#utility.yul\":8566:8586   */\n      swap1\n      pop\n        /* \"#utility.yul\":8359:8592   */\n      swap2\n      swap1\n      pop\n      jump\t// out\n\n    auxdata: 0xa2646970667358221220e1300302e9292e37e24aa2f4552041e477df16399191132917ecf83e2b342eec64736f6c63430008190033\n}\n",
				"bytecode": {
					"linkReferences": {},
					"object": "6080604052348015600f57600080fd5b5061096c8061001f6000396000f3fe608060405234801561001057600080fd5b50600436106100885760003560e01c8063c8f43d161161005b578063c8f43d1614610113578063d826f88f14610143578063e2744a811461014d578063f0ba84401461016957610088565b806333034c2c1461008d578063442dc193146100ab578063736d159d146100c757806385ad8a8d146100f7575b600080fd5b610095610199565b6040516100a2919061052d565b60405180910390f35b6100c560048036038101906100c091906106e8565b610238565b005b6100e160048036038101906100dc9190610731565b610274565b6040516100ee919061076d565b60405180910390f35b610111600480360381019061010c91906107e3565b610298565b005b61012d60048036038101906101289190610731565b6102dd565b60405161013a919061076d565b60405180910390f35b61014b610301565b005b610167600480360381019061016291906107e3565b61032c565b005b610183600480360381019061017e9190610731565b610403565b604051610190919061076d565b60405180910390f35b606060006101f467ffffffffffffffff8111156101b9576101b8610579565b5b6040519080825280602002602001820160405280156101e75781602001602082028036833780820191505090505b50905060005b6101f481101561023057601481610204919061085f565b82828151811061021757610216610890565b5b60200260200101818152505080806001019150506101ed565b508091505090565b60005b815181101561027057600a82828151811061025957610258610890565b5b60200260200101515050808060010191505061023b565b5050565b6001818154811061028457600080fd5b906000526020600020016000915090505481565b600082829050905060005b818110156102d75760008484838181106102c0576102bf610890565b5b9050602002013590505080806001019150506102a3565b50505050565b600281815481106102ed57600080fd5b906000526020600020016000915090505481565b60008061030e9190610427565b6001600061031c9190610427565b6002600061032a9190610427565b565b60008282905090506000805b8281101561037e57600a85858381811061035557610354610890565b5b90506020020135111561037157818061036d906108ee565b9250505b8080600101915050610338565b5060005b828110156103fc57600a85858381811061039f5761039e610890565b5b9050602002013511156103ef5760008585838181106103c1576103c0610890565b5b9050602002013590806001815401808255809150506001900390600052602060002001600090919091909150555b8080600101915050610382565b5050505050565b6000818154811061041357600080fd5b906000526020600020016000915090505481565b50805460008255906000526020600020908101906104459190610448565b50565b5b80821115610461576000816000905550600101610449565b5090565b600081519050919050565b600082825260208201905092915050565b6000819050602082019050919050565b6000819050919050565b6104a481610491565b82525050565b60006104b6838361049b565b60208301905092915050565b6000602082019050919050565b60006104da82610465565b6104e48185610470565b93506104ef83610481565b8060005b8381101561052057815161050788826104aa565b9750610512836104c2565b9250506001810190506104f3565b5085935050505092915050565b6000602082019050818103600083015261054781846104cf565b905092915050565b6000604051905090565b600080fd5b600080fd5b600080fd5b6000601f19601f8301169050919050565b7f4e487b7100000000000000000000000000000000000000000000000000000000600052604160045260246000fd5b6105b182610568565b810181811067ffffffffffffffff821117156105d0576105cf610579565b5b80604052505050565b60006105e361054f565b90506105ef82826105a8565b919050565b600067ffffffffffffffff82111561060f5761060e610579565b5b602082029050602081019050919050565b600080fd5b61062e81610491565b811461063957600080fd5b50565b60008135905061064b81610625565b92915050565b600061066461065f846105f4565b6105d9565b9050808382526020820190506020840283018581111561068757610686610620565b5b835b818110156106b0578061069c888261063c565b845260208401935050602081019050610689565b5050509392505050565b600082601f8301126106cf576106ce610563565b5b81356106df848260208601610651565b91505092915050565b6000602082840312156106fe576106fd610559565b5b600082013567ffffffffffffffff81111561071c5761071b61055e565b5b610728848285016106ba565b91505092915050565b60006020828403121561074757610746610559565b5b60006107558482850161063c565b91505092915050565b61076781610491565b82525050565b6000602082019050610782600083018461075e565b92915050565b600080fd5b60008083601f8401126107a3576107a2610563565b5b8235905067ffffffffffffffff8111156107c0576107bf610788565b5b6020830191508360208202830111156107dc576107db610620565b5b9250929050565b600080602083850312156107fa576107f9610559565b5b600083013567ffffffffffffffff8111156108185761081761055e565b5b6108248582860161078d565b92509250509250929050565b7f4e487b7100000000000000000000000000000000000000000000000000000000600052601260045260246000fd5b600061086a82610491565b915061087583610491565b92508261088557610884610830565b5b828206905092915050565b7f4e487b7100000000000000000000000000000000000000000000000000000000600052603260045260246000fd5b7f4e487b7100000000000000000000000000000000000000000000000000000000600052601160045260246000fd5b60006108f982610491565b91507fffffffffffffffffffffffffffffffffffffffffffffffffffffffffffffffff820361092b5761092a6108bf565b5b60018201905091905056fea2646970667358221220e1300302e9292e37e24aa2f4552041e477df16399191132917ecf83e2b342eec64736f6c63430008190033",
					"opcodes": "PUSH1 0x80 PUSH1 0x40 MSTORE CALLVALUE DUP1 ISZERO PUSH1 0xF JUMPI PUSH1 0x0 DUP1 REVERT JUMPDEST POP PUSH2 0x96C DUP1 PUSH2 0x1F PUSH1 0x0 CODECOPY PUSH1 0x0 RETURN INVALID PUSH1 0x80 PUSH1 0x40 MSTORE CALLVALUE DUP1 ISZERO PUSH2 0x10 JUMPI PUSH1 0x0 DUP1 REVERT JUMPDEST POP PUSH1 0x4 CALLDATASIZE LT PUSH2 0x88 JUMPI PUSH1 0x0 CALLDATALOAD PUSH1 0xE0 SHR DUP1 PUSH4 0xC8F43D16 GT PUSH2 0x5B JUMPI DUP1 PUSH4 0xC8F43D16 EQ PUSH2 0x113 JUMPI DUP1 PUSH4 0xD826F88F EQ PUSH2 0x143 JUMPI DUP1 PUSH4 0xE2744A81 EQ PUSH2 0x14D JUMPI DUP1 PUSH4 0xF0BA8440 EQ PUSH2 0x169 JUMPI PUSH2 0x88 JUMP JUMPDEST DUP1 PUSH4 0x33034C2C EQ PUSH2 0x8D JUMPI DUP1 PUSH4 0x442DC193 EQ PUSH2 0xAB JUMPI DUP1 PUSH4 0x736D159D EQ PUSH2 0xC7 JUMPI DUP1 PUSH4 0x85AD8A8D EQ PUSH2 0xF7 JUMPI JUMPDEST PUSH1 0x0 DUP1 REVERT JUMPDEST PUSH2 0x95 PUSH2 0x199 JUMP JUMPDEST PUSH1 0x40 MLOAD PUSH2 0xA2 SWAP2 SWAP1 PUSH2 0x52D JUMP JUMPDEST PUSH1 0x40 MLOAD DUP1 SWAP2 SUB SWAP1 RETURN JUMPDEST PUSH2 0xC5 PUSH1 0x4 DUP1 CALLDATASIZE SUB DUP2 ADD SWAP1 PUSH2 0xC0 SWAP2 SWAP1 PUSH2 0x6E8 JUMP JUMPDEST PUSH2 0x238 JUMP JUMPDEST STOP JUMPDEST PUSH2 0xE1 PUSH1 0x4 DUP1 CALLDATASIZE SUB DUP2 ADD SWAP1 PUSH2 0xDC SWAP2 SWAP1 PUSH2 0x731 JUMP JUMPDEST PUSH2 0x274 JUMP JUMPDEST PUSH1 0x40 MLOAD PUSH2 0xEE SWAP2 SWAP1 PUSH2 0x76D JUMP JUMPDEST PUSH1 0x40 MLOAD DUP1 SWAP2 SUB SWAP1 RETURN JUMPDEST PUSH2 0x111 PUSH1 0x4 DUP1 CALLDATASIZE SUB DUP2 ADD SWAP1 PUSH2 0x10C SWAP2 SWAP1 PUSH2 0x7E3 JUMP JUMPDEST PUSH2 0x298 JUMP JUMPDEST STOP JUMPDEST PUSH2 0x12D PUSH1 0x4 DUP1 CALLDATASIZE SUB DUP2 ADD SWAP1 PUSH2 0x128 SWAP2 SWAP1 PUSH2 0x731 JUMP JUMPDEST PUSH2 0x2DD JUMP JUMPDEST PUSH1 0x40 MLOAD PUSH2 0x13A SWAP2 SWAP1 PUSH2 0x76D JUMP JUMPDEST PUSH1 0x40 MLOAD DUP1 SWAP2 SUB SWAP1 RETURN JUMPDEST PUSH2 0x14B PUSH2 0x301 JUMP JUMPDEST STOP JUMPDEST PUSH2 0x167 PUSH1 0x4 DUP1 CALLDATASIZE SUB DUP2 ADD SWAP1 PUSH2 0x162 SWAP2 SWAP1 PUSH2 0x7E3 JUMP JUMPDEST PUSH2 0x32C JUMP JUMPDEST STOP JUMPDEST PUSH2 0x183 PUSH1 0x4 DUP1 CALLDATASIZE SUB DUP2 ADD SWAP1 PUSH2 0x17E SWAP2 SWAP1 PUSH2 0x731 JUMP JUMPDEST PUSH2 0x403 JUMP JUMPDEST PUSH1 0x40 MLOAD PUSH2 0x190 SWAP2 SWAP1 PUSH2 0x76D JUMP JUMPDEST PUSH1 0x40 MLOAD DUP1 SWAP2 SUB SWAP1 RETURN JUMPDEST PUSH1 0x60 PUSH1 0x0 PUSH2 0x1F4 PUSH8 0xFFFFFFFFFFFFFFFF DUP2 GT ISZERO PUSH2 0x1B9 JUMPI PUSH2 0x1B8 PUSH2 0x579 JUMP JUMPDEST JUMPDEST PUSH1 0x40 MLOAD SWAP1 DUP1 DUP3 MSTORE DUP1 PUSH1 0x20 MUL PUSH1 0x20 ADD DUP3 ADD PUSH1 0x40 MSTORE DUP1 ISZERO PUSH2 0x1E7 JUMPI DUP2 PUSH1 0x20 ADD PUSH1 0x20 DUP3 MUL DUP1 CALLDATASIZE DUP4 CALLDATACOPY DUP1 DUP3 ADD SWAP2 POP POP SWAP1 POP JUMPDEST POP SWAP1 POP PUSH1 0x0 JUMPDEST PUSH2 0x1F4 DUP2 LT ISZERO PUSH2 0x230 JUMPI PUSH1 0x14 DUP2 PUSH2 0x204 SWAP2 SWAP1 PUSH2 0x85F JUMP JUMPDEST DUP3 DUP3 DUP2 MLOAD DUP2 LT PUSH2 0x217 JUMPI PUSH2 0x216 PUSH2 0x890 JUMP JUMPDEST JUMPDEST PUSH1 0x20 MUL PUSH1 0x20 ADD ADD DUP2 DUP2 MSTORE POP POP DUP1 DUP1 PUSH1 0x1 ADD SWAP2 POP POP PUSH2 0x1ED JUMP JUMPDEST POP DUP1 SWAP2 POP POP SWAP1 JUMP JUMPDEST PUSH1 0x0 JUMPDEST DUP2 MLOAD DUP2 LT ISZERO PUSH2 0x270 JUMPI PUSH1 0xA DUP3 DUP3 DUP2 MLOAD DUP2 LT PUSH2 0x259 JUMPI PUSH2 0x258 PUSH2 0x890 JUMP JUMPDEST JUMPDEST PUSH1 0x20 MUL PUSH1 0x20 ADD ADD MLOAD POP POP DUP1 DUP1 PUSH1 0x1 ADD SWAP2 POP POP PUSH2 0x23B JUMP JUMPDEST POP POP JUMP JUMPDEST PUSH1 0x1 DUP2 DUP2 SLOAD DUP2 LT PUSH2 0x284 JUMPI PUSH1 0x0 DUP1 REVERT JUMPDEST SWAP1 PUSH1 0x0 MSTORE PUSH1 0x20 PUSH1 0x0 KECCAK256 ADD PUSH1 0x0 SWAP2 POP SWAP1 POP SLOAD DUP2 JUMP JUMPDEST PUSH1 0x0 DUP3 DUP3 SWAP1 POP SWAP1 POP PUSH1 0x0 JUMPDEST DUP2 DUP2 LT ISZERO PUSH2 0x2D7 JUMPI PUSH1 0x0 DUP5 DUP5 DUP4 DUP2 DUP2 LT PUSH2 0x2C0 JUMPI PUSH2 0x2BF PUSH2 0x890 JUMP JUMPDEST JUMPDEST SWAP1 POP PUSH1 0x20 MUL ADD CALLDATALOAD SWAP1 POP POP DUP1 DUP1 PUSH1 0x1 ADD SWAP2 POP POP PUSH2 0x2A3 JUMP JUMPDEST POP POP POP POP JUMP JUMPDEST PUSH1 0x2 DUP2 DUP2 SLOAD DUP2 LT PUSH2 0x2ED JUMPI PUSH1 0x0 DUP1 REVERT JUMPDEST SWAP1 PUSH1 0x0 MSTORE PUSH1 0x20 PUSH1 0x0 KECCAK256 ADD PUSH1 0x0 SWAP2 POP SWAP1 POP SLOAD DUP2 JUMP JUMPDEST PUSH1 0x0 DUP1 PUSH2 0x30E SWAP2 SWAP1 PUSH2 0x427 JUMP JUMPDEST PUSH1 0x1 PUSH1 0x0 PUSH2 0x31C SWAP2 SWAP1 PUSH2 0x427 JUMP JUMPDEST PUSH1 0x2 PUSH1 0x0 PUSH2 0x32A SWAP2 SWAP1 PUSH2 0x427 JUMP JUMPDEST JUMP JUMPDEST PUSH1 0x0 DUP3 DUP3 SWAP1 POP SWAP1 POP PUSH1 0x0 DUP1 JUMPDEST DUP3 DUP2 LT ISZERO PUSH2 0x37E JUMPI PUSH1 0xA DUP6 DUP6 DUP4 DUP2 DUP2 LT PUSH2 0x355 JUMPI PUSH2 0x354 PUSH2 0x890 JUMP JUMPDEST JUMPDEST SWAP1 POP PUSH1 0x20 MUL ADD CALLDATALOAD GT ISZERO PUSH2 0x371 JUMPI DUP2 DUP1 PUSH2 0x36D SWAP1 PUSH2 0x8EE JUMP JUMPDEST SWAP3 POP POP JUMPDEST DUP1 DUP1 PUSH1 0x1 ADD SWAP2 POP POP PUSH2 0x338 JUMP JUMPDEST POP PUSH1 0x0 JUMPDEST DUP3 DUP2 LT ISZERO PUSH2 0x3FC JUMPI PUSH1 0xA DUP6 DUP6 DUP4 DUP2 DUP2 LT PUSH2 0x39F JUMPI PUSH2 0x39E PUSH2 0x890 JUMP JUMPDEST JUMPDEST SWAP1 POP PUSH1 0x20 MUL ADD CALLDATALOAD GT ISZERO PUSH2 0x3EF JUMPI PUSH1 0x0 DUP6 DUP6 DUP4 DUP2 DUP2 LT PUSH2 0x3C1 JUMPI PUSH2 0x3C0 PUSH2 0x890 JUMP JUMPDEST JUMPDEST SWAP1 POP PUSH1 0x20 MUL ADD CALLDATALOAD SWAP1 DUP1 PUSH1 0x1 DUP2 SLOAD ADD DUP1 DUP3 SSTORE DUP1 SWAP2 POP POP PUSH1 0x1 SWAP1 SUB SWAP1 PUSH1 0x0 MSTORE PUSH1 0x20 PUSH1 0x0 KECCAK256 ADD PUSH1 0x0 SWAP1 SWAP2 SWAP1 SWAP2 SWAP1 SWAP2 POP SSTORE JUMPDEST DUP1 DUP1 PUSH1 0x1 ADD SWAP2 POP POP PUSH2 0x382 JUMP JUMPDEST POP POP POP POP POP JUMP JUMPDEST PUSH1 0x0 DUP2 DUP2 SLOAD DUP2 LT PUSH2 0x413 JUMPI PUSH1 0x0 DUP1 REVERT JUMPDEST SWAP1 PUSH1 0x0 MSTORE PUSH1 0x20 PUSH1 0x0 KECCAK256 ADD PUSH1 0x0 SWAP2 POP SWAP1 POP SLOAD DUP2 JUMP JUMPDEST POP DUP1 SLOAD PUSH1 0x0 DUP3 SSTORE SWAP1 PUSH1 0x0 MSTORE PUSH1 0x20 PUSH1 0x0 KECCAK256 SWAP1 DUP2 ADD SWAP1 PUSH2 0x445 SWAP2 SWAP1 PUSH2 0x448 JUMP JUMPDEST POP JUMP JUMPDEST JUMPDEST DUP1 DUP3 GT ISZERO PUSH2 0x461 JUMPI PUSH1 0x0 DUP2 PUSH1 0x0 SWAP1 SSTORE POP PUSH1 0x1 ADD PUSH2 0x449 JUMP JUMPDEST POP SWAP1 JUMP JUMPDEST PUSH1 0x0 DUP2 MLOAD SWAP1 POP SWAP2 SWAP1 POP JUMP JUMPDEST PUSH1 0x0 DUP3 DUP3 MSTORE PUSH1 0x20 DUP3 ADD SWAP1 POP SWAP3 SWAP2 POP POP JUMP JUMPDEST PUSH1 0x0 DUP2 SWAP1 POP PUSH1 0x20 DUP3 ADD SWAP1 POP SWAP2 SWAP1 POP JUMP JUMPDEST PUSH1 0x0 DUP2 SWAP1 POP SWAP2 SWAP1 POP JUMP JUMPDEST PUSH2 0x4A4 DUP2 PUSH2 0x491 JUMP JUMPDEST DUP3 MSTORE POP POP JUMP JUMPDEST PUSH1 0x0 PUSH2 0x4B6 DUP4 DUP4 PUSH2 0x49B JUMP JUMPDEST PUSH1 0x20 DUP4 ADD SWAP1 POP SWAP3 SWAP2 POP POP JUMP JUMPDEST PUSH1 0x0 PUSH1 0x20 DUP3 ADD SWAP1 POP SWAP2 SWAP1 POP JUMP JUMPDEST PUSH1 0x0 PUSH2 0x4DA DUP3 PUSH2 0x465 JUMP JUMPDEST PUSH2 0x4E4 DUP2 DUP6 PUSH2 0x470 JUMP JUMPDEST SWAP4 POP PUSH2 0x4EF DUP4 PUSH2 0x481 JUMP JUMPDEST DUP1 PUSH1 0x0 JUMPDEST DUP4 DUP2 LT ISZERO PUSH2 0x520 JUMPI DUP2 MLOAD PUSH2 0x507 DUP9 DUP3 PUSH2 0x4AA JUMP JUMPDEST SWAP8 POP PUSH2 0x512 DUP4 PUSH2 0x4C2 JUMP JUMPDEST SWAP3 POP POP PUSH1 0x1 DUP2 ADD SWAP1 POP PUSH2 0x4F3 JUMP JUMPDEST POP DUP6 SWAP4 POP POP POP POP SWAP3 SWAP2 POP POP JUMP JUMPDEST PUSH1 0x0 PUSH1 0x20 DUP3 ADD SWAP1 POP DUP2 DUP2 SUB PUSH1 0x0 DUP4 ADD MSTORE PUSH2 0x547 DUP2 DUP5 PUSH2 0x4CF JUMP JUMPDEST SWAP1 POP SWAP3 SWAP2 POP POP JUMP JUMPDEST PUSH1 0x0 PUSH1 0x40 MLOAD SWAP1 POP SWAP1 JUMP JUMPDEST PUSH1 0x0 DUP1 REVERT JUMPDEST PUSH1 0x0 DUP1 REVERT JUMPDEST PUSH1 0x0 DUP1 REVERT JUMPDEST PUSH1 0x0 PUSH1 0x1F NOT PUSH1 0x1F DUP4 ADD AND SWAP1 POP SWAP2 SWAP1 POP JUMP JUMPDEST PUSH32 0x4E487B7100000000000000000000000000000000000000000000000000000000 PUSH1 0x0 MSTORE PUSH1 0x41 PUSH1 0x4 MSTORE PUSH1 0x24 PUSH1 0x0 REVERT JUMPDEST PUSH2 0x5B1 DUP3 PUSH2 0x568 JUMP JUMPDEST DUP2 ADD DUP2 DUP2 LT PUSH8 0xFFFFFFFFFFFFFFFF DUP3 GT OR ISZERO PUSH2 0x5D0 JUMPI PUSH2 0x5CF PUSH2 0x579 JUMP JUMPDEST JUMPDEST DUP1 PUSH1 0x40 MSTORE POP POP POP JUMP JUMPDEST PUSH1 0x0 PUSH2 0x5E3 PUSH2 0x54F JUMP JUMPDEST SWAP1 POP PUSH2 0x5EF DUP3 DUP3 PUSH2 0x5A8 JUMP JUMPDEST SWAP2 SWAP1 POP JUMP JUMPDEST PUSH1 0x0 PUSH8 0xFFFFFFFFFFFFFFFF DUP3 GT ISZERO PUSH2 0x60F JUMPI PUSH2 0x60E PUSH2 0x579 JUMP JUMPDEST JUMPDEST PUSH1 0x20 DUP3 MUL SWAP1 POP PUSH1 0x20 DUP2 ADD SWAP1 POP SWAP2 SWAP1 POP JUMP JUMPDEST PUSH1 0x0 DUP1 REVERT JUMPDEST PUSH2 0x62E DUP2 PUSH2 0x491 JUMP JUMPDEST DUP2 EQ PUSH2 0x639 JUMPI PUSH1 0x0 DUP1 REVERT JUMPDEST POP JUMP JUMPDEST PUSH1 0x0 DUP2 CALLDATALOAD SWAP1 POP PUSH2 0x64B DUP2 PUSH2 0x625 JUMP JUMPDEST SWAP3 SWAP2 POP POP JUMP JUMPDEST PUSH1 0x0 PUSH2 0x664 PUSH2 0x65F DUP5 PUSH2 0x5F4 JUMP JUMPDEST PUSH2 0x5D9 JUMP JUMPDEST SWAP1 POP DUP1 DUP4 DUP3 MSTORE PUSH1 0x20 DUP3 ADD SWAP1 POP PUSH1 0x20 DUP5 MUL DUP4 ADD DUP6 DUP2 GT ISZERO PUSH2 0x687 JUMPI PUSH2 0x686 PUSH2 0x620 JUMP JUMPDEST JUMPDEST DUP4 JUMPDEST DUP2 DUP2 LT ISZERO PUSH2 0x6B0 JUMPI DUP1 PUSH2 0x69C DUP9 DUP3 PUSH2 0x63C JUMP JUMPDEST DUP5 MSTORE PUSH1 0x20 DUP5 ADD SWAP4 POP POP PUSH1 0x20 DUP2 ADD SWAP1 POP PUSH2 0x689 JUMP JUMPDEST POP POP POP SWAP4 SWAP3 POP POP POP JUMP JUMPDEST PUSH1 0x0 DUP3 PUSH1 0x1F DUP4 ADD SLT PUSH2 0x6CF JUMPI PUSH2 0x6CE PUSH2 0x563 JUMP JUMPDEST JUMPDEST DUP2 CALLDATALOAD PUSH2 0x6DF DUP5 DUP3 PUSH1 0x20 DUP7 ADD PUSH2 0x651 JUMP JUMPDEST SWAP2 POP POP SWAP3 SWAP2 POP POP JUMP JUMPDEST PUSH1 0x0 PUSH1 0x20 DUP3 DUP5 SUB SLT ISZERO PUSH2 0x6FE JUMPI PUSH2 0x6FD PUSH2 0x559 JUMP JUMPDEST JUMPDEST PUSH1 0x0 DUP3 ADD CALLDATALOAD PUSH8 0xFFFFFFFFFFFFFFFF DUP2 GT ISZERO PUSH2 0x71C JUMPI PUSH2 0x71B PUSH2 0x55E JUMP JUMPDEST JUMPDEST PUSH2 0x728 DUP5 DUP3 DUP6 ADD PUSH2 0x6BA JUMP JUMPDEST SWAP2 POP POP SWAP3 SWAP2 POP POP JUMP JUMPDEST PUSH1 0x0 PUSH1 0x20 DUP3 DUP5 SUB SLT ISZERO PUSH2 0x747 JUMPI PUSH2 0x746 PUSH2 0x559 JUMP JUMPDEST JUMPDEST PUSH1 0x0 PUSH2 0x755 DUP5 DUP3 DUP6 ADD PUSH2 0x63C JUMP JUMPDEST SWAP2 POP POP SWAP3 SWAP2 POP POP JUMP JUMPDEST PUSH2 0x767 DUP2 PUSH2 0x491 JUMP JUMPDEST DUP3 MSTORE POP POP JUMP JUMPDEST PUSH1 0x0 PUSH1 0x20 DUP3 ADD SWAP1 POP PUSH2 0x782 PUSH1 0x0 DUP4 ADD DUP5 PUSH2 0x75E JUMP JUMPDEST SWAP3 SWAP2 POP POP JUMP JUMPDEST PUSH1 0x0 DUP1 REVERT JUMPDEST PUSH1 0x0 DUP1 DUP4 PUSH1 0x1F DUP5 ADD SLT PUSH2 0x7A3 JUMPI PUSH2 0x7A2 PUSH2 0x563 JUMP JUMPDEST JUMPDEST DUP3 CALLDATALOAD SWAP1 POP PUSH8 0xFFFFFFFFFFFFFFFF DUP2 GT ISZERO PUSH2 0x7C0 JUMPI PUSH2 0x7BF PUSH2 0x788 JUMP JUMPDEST JUMPDEST PUSH1 0x20 DUP4 ADD SWAP2 POP DUP4 PUSH1 0x20 DUP3 MUL DUP4 ADD GT ISZERO PUSH2 0x7DC JUMPI PUSH2 0x7DB PUSH2 0x620 JUMP JUMPDEST JUMPDEST SWAP3 POP SWAP3 SWAP1 POP JUMP JUMPDEST PUSH1 0x0 DUP1 PUSH1 0x20 DUP4 DUP6 SUB SLT ISZERO PUSH2 0x7FA JUMPI PUSH2 0x7F9 PUSH2 0x559 JUMP JUMPDEST JUMPDEST PUSH1 0x0 DUP4 ADD CALLDATALOAD PUSH8 0xFFFFFFFFFFFFFFFF DUP2 GT ISZERO PUSH2 0x818 JUMPI PUSH2 0x817 PUSH2 0x55E JUMP JUMPDEST JUMPDEST PUSH2 0x824 DUP6 DUP3 DUP7 ADD PUSH2 0x78D JUMP JUMPDEST SWAP3 POP SWAP3 POP POP SWAP3 POP SWAP3 SWAP1 POP JUMP JUMPDEST PUSH32 0x4E487B7100000000000000000000000000000000000000000000000000000000 PUSH1 0x0 MSTORE PUSH1 0x12 PUSH1 0x4 MSTORE PUSH1 0x24 PUSH1 0x0 REVERT JUMPDEST PUSH1 0x0 PUSH2 0x86A DUP3 PUSH2 0x491 JUMP JUMPDEST SWAP2 POP PUSH2 0x875 DUP4 PUSH2 0x491 JUMP JUMPDEST SWAP3 POP DUP3 PUSH2 0x885 JUMPI PUSH2 0x884 PUSH2 0x830 JUMP JUMPDEST JUMPDEST DUP3 DUP3 MOD SWAP1 POP SWAP3 SWAP2 POP POP JUMP JUMPDEST PUSH32 0x4E487B7100000000000000000000000000000000000000000000000000000000 PUSH1 0x0 MSTORE PUSH1 0x32 PUSH1 0x4 MSTORE PUSH1 0x24 PUSH1 0x0 REVERT JUMPDEST PUSH32 0x4E487B7100000000000000000000000000000000000000000000000000000000 PUSH1 0x0 MSTORE PUSH1 0x11 PUSH1 0x4 MSTORE PUSH1 0x24 PUSH1 0x0 REVERT JUMPDEST PUSH1 0x0 PUSH2 0x8F9 DUP3 PUSH2 0x491 JUMP JUMPDEST SWAP2 POP PUSH32 0xFFFFFFFFFFFFFFFFFFFFFFFFFFFFFFFFFFFFFFFFFFFFFFFFFFFFFFFFFFFFFFFF DUP3 SUB PUSH2 0x92B JUMPI PUSH2 0x92A PUSH2 0x8BF JUMP JUMPDEST JUMPDEST PUSH1 0x1 DUP3 ADD SWAP1 POP SWAP2 SWAP1 POP JUMP INVALID LOG2 PUSH5 0x6970667358 0x22 SLT KECCAK256 0xE1 ADDRESS SUB MUL 0xE9 0x29 0x2E CALLDATACOPY 0xE2 BLOBBASEFEE LOG2 DELEGATECALL SSTORE KECCAK256 COINBASE 0xE4 PUSH24 0xDF16399191132917ECF83E2B342EEC64736F6C6343000819 STOP CALLER "
				},
				"gasEstimates": {
					"creation": {
						"codeDepositCost": "482400",
						"executionCost": "518",
						"totalCost": "482918"
					},
					"external": {
						"data(uint256)": "infinite",
						"data1(uint256)": "infinite",
						"data2(uint256)": "infinite",
						"process(uint256[])": "infinite",
						"process1(uint256[])": "infinite",
						"process2(uint256[])": "infinite",
						"reset()": "infinite",
						"testLargeArray()": "infinite"
					}
				},
				"methodIdentifiers": {
					"data(uint256)": "f0ba8440",
					"data1(uint256)": "736d159d",
					"data2(uint256)": "c8f43d16",
					"process(uint256[])": "e2744a81",
					"process1(uint256[])": "85ad8a8d",
					"process2(uint256[])": "442dc193",
					"reset()": "d826f88f",
					"testLargeArray()": "33034c2c"
				}
			},
			"storageLayout": {
				"storage": [
					{
						"astId": 4,
						"contract": "practises/UnoptimizedCode.sol:UnoptimizedCode",
						"label": "data",
						"offset": 0,
						"slot": "0",
						"type": "t_array(t_uint256)dyn_storage"
					},
					{
						"astId": 7,
						"contract": "practises/UnoptimizedCode.sol:UnoptimizedCode",
						"label": "data1",
						"offset": 0,
						"slot": "1",
						"type": "t_array(t_uint256)dyn_storage"
					},
					{
						"astId": 10,
						"contract": "practises/UnoptimizedCode.sol:UnoptimizedCode",
						"label": "data2",
						"offset": 0,
						"slot": "2",
						"type": "t_array(t_uint256)dyn_storage"
					}
				],
				"types": {
					"t_array(t_uint256)dyn_storage": {
						"base": "t_uint256",
						"encoding": "dynamic_array",
						"label": "uint256[]",
						"numberOfBytes": "32"
					},
					"t_uint256": {
						"encoding": "inplace",
						"label": "uint256",
						"numberOfBytes": "32"
					}
				}
			},
			"userdoc": {
				"kind": "user",
				"methods": {},
				"version": 1
			}
		}
	}
}